{
  "_format": "hh-sol-artifact-1",
  "contractName": "Election",
  "sourceName": "contracts/Election.sol",
  "abi": [
    {
      "inputs": [],
      "stateMutability": "nonpayable",
      "type": "constructor"
    },
    {
      "inputs": [],
      "name": "admin",
      "outputs": [
        {
          "internalType": "address",
          "name": "",
          "type": "address"
        }
      ],
      "stateMutability": "view",
      "type": "function"
    },
    {
      "inputs": [
        {
          "internalType": "uint256",
          "name": "",
          "type": "uint256"
        }
      ],
      "name": "approvedCandidates",
      "outputs": [
        {
          "internalType": "address",
          "name": "",
          "type": "address"
        }
      ],
      "stateMutability": "view",
      "type": "function"
    },
    {
      "inputs": [
        {
          "internalType": "uint256",
          "name": "",
          "type": "uint256"
        }
      ],
      "name": "approvedVoters",
      "outputs": [
        {
          "internalType": "address",
          "name": "",
          "type": "address"
        }
      ],
      "stateMutability": "view",
      "type": "function"
    },
    {
      "inputs": [
        {
          "internalType": "address",
          "name": "",
          "type": "address"
        }
      ],
      "name": "candidateDetails",
      "outputs": [
        {
          "internalType": "uint8",
          "name": "candidateId",
          "type": "uint8"
        },
        {
          "internalType": "address",
          "name": "candidateAddress",
          "type": "address"
        },
        {
          "internalType": "string",
          "name": "header",
          "type": "string"
        },
        {
          "internalType": "string",
          "name": "slogan",
          "type": "string"
        },
        {
          "internalType": "uint256",
          "name": "electionTitleIndex",
          "type": "uint256"
        },
        {
          "internalType": "uint256",
          "name": "voteCount",
          "type": "uint256"
        },
        {
          "internalType": "bool",
          "name": "isVerified",
          "type": "bool"
        },
        {
          "internalType": "bool",
          "name": "isRegistered",
          "type": "bool"
        }
      ],
      "stateMutability": "view",
      "type": "function"
    },
    {
      "inputs": [
        {
          "internalType": "uint256",
          "name": "",
          "type": "uint256"
        }
      ],
      "name": "candidates",
      "outputs": [
        {
          "internalType": "address",
          "name": "",
          "type": "address"
        }
      ],
      "stateMutability": "view",
      "type": "function"
    },
    {
      "inputs": [],
      "name": "getAdmin",
      "outputs": [
        {
          "internalType": "address",
          "name": "",
          "type": "address"
        }
      ],
      "stateMutability": "view",
      "type": "function"
    },
    {
      "inputs": [],
      "name": "getAdminEmail",
      "outputs": [
        {
          "internalType": "string",
          "name": "",
          "type": "string"
        }
      ],
      "stateMutability": "view",
      "type": "function"
    },
    {
      "inputs": [],
      "name": "getAdminName",
      "outputs": [
        {
          "internalType": "string",
          "name": "",
          "type": "string"
        }
      ],
      "stateMutability": "view",
      "type": "function"
    },
    {
      "inputs": [],
      "name": "getAdminTitle",
      "outputs": [
        {
          "internalType": "string",
          "name": "",
          "type": "string"
        }
      ],
      "stateMutability": "view",
      "type": "function"
    },
    {
      "inputs": [
        {
          "internalType": "address",
          "name": "_currentAddress",
          "type": "address"
        }
      ],
      "name": "getAlreadyRegisteredCandidateStatus",
      "outputs": [
        {
          "internalType": "bool",
          "name": "",
          "type": "bool"
        }
      ],
      "stateMutability": "view",
      "type": "function"
    },
    {
      "inputs": [
        {
          "internalType": "uint8",
          "name": "_electionTitleIndex",
          "type": "uint8"
        }
      ],
      "name": "getCandidateCountForAsscociatedElection",
      "outputs": [
        {
          "internalType": "uint8",
          "name": "",
          "type": "uint8"
        }
      ],
      "stateMutability": "view",
      "type": "function"
    },
    {
      "inputs": [
        {
          "internalType": "uint8",
          "name": "_electionTitleIndex",
          "type": "uint8"
        }
      ],
      "name": "getCandidatesForAssociatedElections",
      "outputs": [
        {
          "components": [
            {
              "internalType": "uint8",
              "name": "candidateId",
              "type": "uint8"
            },
            {
              "internalType": "address",
              "name": "candidateAddress",
              "type": "address"
            },
            {
              "internalType": "string",
              "name": "header",
              "type": "string"
            },
            {
              "internalType": "string",
              "name": "slogan",
              "type": "string"
            },
            {
              "internalType": "uint256",
              "name": "electionTitleIndex",
              "type": "uint256"
            },
            {
              "internalType": "uint256",
              "name": "voteCount",
              "type": "uint256"
            },
            {
              "internalType": "bool",
              "name": "isVerified",
              "type": "bool"
            },
            {
              "internalType": "bool",
              "name": "isRegistered",
              "type": "bool"
            }
          ],
          "internalType": "struct Election.Candidate[]",
          "name": "",
          "type": "tuple[]"
        }
      ],
      "stateMutability": "view",
      "type": "function"
    },
    {
      "inputs": [
        {
          "internalType": "uint256",
          "name": "_timeStamp",
          "type": "uint256"
        }
      ],
      "name": "getElectionEndedStatus",
      "outputs": [
        {
          "internalType": "bool",
          "name": "",
          "type": "bool"
        }
      ],
      "stateMutability": "view",
      "type": "function"
    },
    {
      "inputs": [],
      "name": "getElectionInitStatus",
      "outputs": [
        {
          "internalType": "bool",
          "name": "",
          "type": "bool"
        }
      ],
      "stateMutability": "view",
      "type": "function"
    },
    {
      "inputs": [],
      "name": "getElectionSlogans",
      "outputs": [
        {
          "internalType": "string[]",
          "name": "",
          "type": "string[]"
        }
      ],
      "stateMutability": "view",
      "type": "function"
    },
    {
      "inputs": [
        {
          "internalType": "uint256",
          "name": "_timeStamp",
          "type": "uint256"
        }
      ],
      "name": "getElectionStatus",
      "outputs": [
        {
          "internalType": "bool",
          "name": "",
          "type": "bool"
        }
      ],
      "stateMutability": "view",
      "type": "function"
    },
    {
      "inputs": [],
      "name": "getElectionTitles",
      "outputs": [
        {
          "internalType": "string[]",
          "name": "",
          "type": "string[]"
        }
      ],
      "stateMutability": "view",
      "type": "function"
    },
    {
      "inputs": [],
      "name": "getOrganizationTitle",
      "outputs": [
        {
          "internalType": "string",
          "name": "",
          "type": "string"
        }
      ],
      "stateMutability": "view",
      "type": "function"
    },
    {
      "inputs": [],
      "name": "getRegistrationEndTime",
      "outputs": [
        {
          "internalType": "uint256",
          "name": "",
          "type": "uint256"
        }
      ],
      "stateMutability": "view",
      "type": "function"
    },
    {
      "inputs": [
        {
          "internalType": "uint256",
          "name": "_timeStamp",
          "type": "uint256"
        }
      ],
      "name": "getRegistrationEndedStatus",
      "outputs": [
        {
          "internalType": "bool",
          "name": "",
          "type": "bool"
        }
      ],
      "stateMutability": "view",
      "type": "function"
    },
    {
      "inputs": [],
      "name": "getRegistrationStartTime",
      "outputs": [
        {
          "internalType": "uint256",
          "name": "",
          "type": "uint256"
        }
      ],
      "stateMutability": "view",
      "type": "function"
    },
    {
      "inputs": [
        {
          "internalType": "uint256",
          "name": "_timeStamp",
          "type": "uint256"
        }
      ],
      "name": "getRegistrationStartedStatus",
      "outputs": [
        {
          "internalType": "bool",
          "name": "",
          "type": "bool"
        }
      ],
      "stateMutability": "view",
      "type": "function"
    },
    {
      "inputs": [
        {
          "internalType": "uint256",
          "name": "_timeStamp",
          "type": "uint256"
        }
      ],
      "name": "getRegistrationStatus",
      "outputs": [
        {
          "internalType": "bool",
          "name": "",
          "type": "bool"
        }
      ],
      "stateMutability": "view",
      "type": "function"
    },
    {
      "inputs": [],
      "name": "getRejectedCandidates",
      "outputs": [
        {
          "internalType": "uint256",
          "name": "",
          "type": "uint256"
        }
      ],
      "stateMutability": "view",
      "type": "function"
    },
    {
      "inputs": [],
      "name": "getRejectedVoters",
      "outputs": [
        {
          "internalType": "uint256",
          "name": "",
          "type": "uint256"
        }
      ],
      "stateMutability": "view",
      "type": "function"
    },
    {
      "inputs": [],
      "name": "getUnVerifiedCandidates",
      "outputs": [
        {
          "internalType": "uint256",
          "name": "",
          "type": "uint256"
        }
      ],
      "stateMutability": "view",
      "type": "function"
    },
    {
      "inputs": [],
      "name": "getUnVerifiedVoters",
      "outputs": [
        {
          "internalType": "uint256",
          "name": "",
          "type": "uint256"
        }
      ],
      "stateMutability": "view",
      "type": "function"
    },
    {
      "inputs": [],
      "name": "getVerifiedCandidates",
      "outputs": [
        {
          "internalType": "uint256",
          "name": "",
          "type": "uint256"
        }
      ],
      "stateMutability": "view",
      "type": "function"
    },
    {
      "inputs": [],
      "name": "getVerifiedVoters",
      "outputs": [
        {
          "internalType": "uint256",
          "name": "",
          "type": "uint256"
        }
      ],
      "stateMutability": "view",
      "type": "function"
    },
    {
      "inputs": [],
      "name": "getVoterElectionTitles",
      "outputs": [
        {
          "internalType": "uint8[]",
          "name": "",
          "type": "uint8[]"
        }
      ],
      "stateMutability": "view",
      "type": "function"
    },
    {
      "inputs": [
        {
          "internalType": "address",
          "name": "_currentAddress",
          "type": "address"
        }
      ],
      "name": "getVoterStatusForCandidate",
      "outputs": [
        {
          "internalType": "bool",
          "name": "",
          "type": "bool"
        }
      ],
      "stateMutability": "view",
      "type": "function"
    },
    {
      "inputs": [],
      "name": "getVotingEndTime",
      "outputs": [
        {
          "internalType": "uint256",
          "name": "",
          "type": "uint256"
        }
      ],
      "stateMutability": "view",
      "type": "function"
    },
    {
      "inputs": [],
      "name": "getVotingStartTime",
      "outputs": [
        {
          "internalType": "uint256",
          "name": "",
          "type": "uint256"
        }
      ],
      "stateMutability": "view",
      "type": "function"
    },
    {
      "inputs": [
        {
          "internalType": "uint256",
          "name": "_electionTitleIndex",
          "type": "uint256"
        }
      ],
      "name": "getWinnerCandidate",
      "outputs": [
        {
          "internalType": "address",
          "name": "",
          "type": "address"
        }
      ],
      "stateMutability": "view",
      "type": "function"
    },
    {
      "inputs": [
        {
          "internalType": "uint8[]",
          "name": "electionTitleList",
          "type": "uint8[]"
        },
        {
          "internalType": "uint8",
          "name": "item",
          "type": "uint8"
        }
      ],
      "name": "iselectionTitleIndexInList",
      "outputs": [
        {
          "internalType": "bool",
          "name": "",
          "type": "bool"
        }
      ],
      "stateMutability": "pure",
      "type": "function"
    },
    {
      "inputs": [
        {
          "internalType": "string",
          "name": "_header",
          "type": "string"
        },
        {
          "internalType": "string",
          "name": "_slogan",
          "type": "string"
        },
        {
          "internalType": "uint256",
          "name": "_electionTitleIndex",
          "type": "uint256"
        }
      ],
      "name": "registerAsCandidate",
      "outputs": [],
      "stateMutability": "nonpayable",
      "type": "function"
    },
    {
      "inputs": [
        {
          "internalType": "string",
          "name": "_name",
          "type": "string"
        },
        {
          "internalType": "string",
          "name": "_phone",
          "type": "string"
        }
      ],
      "name": "registerAsVoter",
      "outputs": [],
      "stateMutability": "nonpayable",
      "type": "function"
    },
    {
      "inputs": [
        {
          "internalType": "address",
          "name": "candidateAddress",
          "type": "address"
        },
        {
          "internalType": "string",
          "name": "message",
          "type": "string"
        }
      ],
      "name": "rejectCandidate",
      "outputs": [],
      "stateMutability": "nonpayable",
      "type": "function"
    },
    {
      "inputs": [
        {
          "internalType": "address",
          "name": "voterAddress",
          "type": "address"
        },
        {
          "internalType": "string",
          "name": "message",
          "type": "string"
        }
      ],
      "name": "rejectVoter",
      "outputs": [],
      "stateMutability": "nonpayable",
      "type": "function"
    },
    {
      "inputs": [
        {
          "internalType": "address",
          "name": "",
          "type": "address"
        }
      ],
      "name": "rejectedCandidateDetails",
      "outputs": [
        {
          "internalType": "uint8",
          "name": "candidateId",
          "type": "uint8"
        },
        {
          "internalType": "address",
          "name": "candidateAddress",
          "type": "address"
        },
        {
          "internalType": "string",
          "name": "header",
          "type": "string"
        },
        {
          "internalType": "string",
          "name": "slogan",
          "type": "string"
        },
        {
          "internalType": "string",
          "name": "message",
          "type": "string"
        }
      ],
      "stateMutability": "view",
      "type": "function"
    },
    {
      "inputs": [
        {
          "internalType": "uint256",
          "name": "",
          "type": "uint256"
        }
      ],
      "name": "rejectedCandidates",
      "outputs": [
        {
          "internalType": "address",
          "name": "",
          "type": "address"
        }
      ],
      "stateMutability": "view",
      "type": "function"
    },
    {
      "inputs": [
        {
          "internalType": "address",
          "name": "",
          "type": "address"
        }
      ],
      "name": "rejectedVoterDetails",
      "outputs": [
        {
          "internalType": "address",
          "name": "voterAddress",
          "type": "address"
        },
        {
          "internalType": "string",
          "name": "name",
          "type": "string"
        },
        {
          "internalType": "string",
          "name": "phone",
          "type": "string"
        },
        {
          "internalType": "string",
          "name": "message",
          "type": "string"
        }
      ],
      "stateMutability": "view",
      "type": "function"
    },
    {
      "inputs": [
        {
          "internalType": "uint256",
          "name": "",
          "type": "uint256"
        }
      ],
      "name": "rejectedVoters",
      "outputs": [
        {
          "internalType": "address",
          "name": "",
          "type": "address"
        }
      ],
      "stateMutability": "view",
      "type": "function"
    },
    {
      "inputs": [
        {
          "internalType": "string",
          "name": "_adminName",
          "type": "string"
        },
        {
          "internalType": "string",
          "name": "_adminEmail",
          "type": "string"
        },
        {
          "internalType": "string",
          "name": "_adminTitle",
          "type": "string"
        },
        {
          "internalType": "string",
          "name": "_organizationTitle",
          "type": "string"
        },
        {
          "internalType": "uint256",
          "name": "_votingStartTime",
          "type": "uint256"
        },
        {
          "internalType": "uint256",
          "name": "_votingEndTime",
          "type": "uint256"
        },
        {
          "internalType": "uint256",
          "name": "_registrationStartTime",
          "type": "uint256"
        },
        {
          "internalType": "uint256",
          "name": "_registrationEndTime",
          "type": "uint256"
        },
        {
          "internalType": "string[]",
          "name": "_elections",
          "type": "string[]"
        },
        {
          "internalType": "string[]",
          "name": "_slogans",
          "type": "string[]"
        }
      ],
      "name": "setElectionDetails",
      "outputs": [],
      "stateMutability": "nonpayable",
      "type": "function"
    },
    {
      "inputs": [
        {
          "internalType": "bool",
          "name": "_verifedStatus",
          "type": "bool"
        },
        {
          "internalType": "address",
          "name": "candidateAddress",
          "type": "address"
        }
      ],
      "name": "verifyCandidate",
      "outputs": [],
      "stateMutability": "nonpayable",
      "type": "function"
    },
    {
      "inputs": [
        {
          "internalType": "bool",
          "name": "_verifedStatus",
          "type": "bool"
        },
        {
          "internalType": "address",
          "name": "voterAddress",
          "type": "address"
        }
      ],
      "name": "verifyVoter",
      "outputs": [],
      "stateMutability": "nonpayable",
      "type": "function"
    },
    {
      "inputs": [
        {
          "internalType": "address",
          "name": "_candidateAddress",
          "type": "address"
        },
        {
          "internalType": "uint8",
          "name": "_electionTitleIndex",
          "type": "uint8"
        }
      ],
      "name": "vote",
      "outputs": [],
      "stateMutability": "nonpayable",
      "type": "function"
    },
    {
      "inputs": [
        {
          "internalType": "address",
          "name": "",
          "type": "address"
        }
      ],
      "name": "voterDetails",
      "outputs": [
        {
          "internalType": "address",
          "name": "voterAddress",
          "type": "address"
        },
        {
          "internalType": "string",
          "name": "name",
          "type": "string"
        },
        {
          "internalType": "string",
          "name": "phone",
          "type": "string"
        },
        {
          "internalType": "bool",
          "name": "isVerified",
          "type": "bool"
        },
        {
          "internalType": "bool",
          "name": "hasVoted",
          "type": "bool"
        },
        {
          "internalType": "bool",
          "name": "isRegistered",
          "type": "bool"
        }
      ],
      "stateMutability": "view",
      "type": "function"
    },
    {
      "inputs": [
        {
          "internalType": "uint256",
          "name": "",
          "type": "uint256"
        }
      ],
      "name": "voters",
      "outputs": [
        {
          "internalType": "address",
          "name": "",
          "type": "address"
        }
      ],
      "stateMutability": "view",
      "type": "function"
    }
  ],
  "bytecode": "0x608060405234801561001057600080fd5b5033600060016101000a81548173ffffffffffffffffffffffffffffffffffffffff021916908373ffffffffffffffffffffffffffffffffffffffff16021790555060008060156101000a81548160ff021916908360ff16021790555060008060006101000a81548160ff0219169083151502179055506000600b819055506000600c819055506000600d819055506000600e819055506152fb806100b66000396000f3fe608060405234801561001057600080fd5b50600436106102bb5760003560e01c8063831318f111610182578063d0980f20116100e9578063dd698f90116100a2578063f33a18801161007c578063f33a188014610973578063f33a8a7314610991578063f851a440146109c1578063fee0d19a146109df576102bb565b8063dd698f9014610919578063df1c84ef14610937578063df6d278414610955576102bb565b8063d0980f2014610808578063d22bc83814610838578063d2fdf16f1461086b578063d4ecadb81461089b578063da58c7d9146108cb578063dc973d50146108fb576102bb565b8063bceb514d1161013b578063bceb514d14610746578063be081b6f14610762578063c041da3114610780578063c784d2131461079e578063cad43b48146107bc578063cfe0c7fc146107d8576102bb565b8063831318f11461066c5780638709b71b1461068a578063aed93010146106a6578063b0891aa4146106d6578063b1bf87b01461070a578063b54e629a14610728576102bb565b80634a2846a8116102265780635fcdd8a1116101df5780635fcdd8a11461058257806364ca6938146105b25780636a82ee51146105e25780636e9960c314610600578063739a95f81461061e5780637d6605351461063c576102bb565b80634a2846a8146104ad5780634c652fc6146104c9578063506b8e0a146104e55780635938750d1461050157806359632c22146105365780635e894b1214610552576102bb565b80633477ee2e116102785780633477ee2e146103b1578063399f694d146103e15780633afa3e07146104115780633f66f48b1461044157806347eaa1d914610471578063483431751461048f576102bb565b806305e73ced146102c05780630712aa05146102f75780630e2354cf1461031557806319c5c5071461033357806324785b9e146103635780632d0f7eef14610393575b600080fd5b6102da60048036038101906102d59190613e50565b6109fb565b6040516102ee989796959493929190613f75565b60405180910390f35b6102ff610b9a565b60405161030c919061410d565b60405180910390f35b61031d610cec565b60405161032a919061412f565b60405180910390f35b61034d6004803603810190610348919061417d565b610d81565b60405161035a91906141aa565b60405180910390f35b61037d6004803603810190610378919061417d565b610db4565b60405161038a91906141aa565b60405180910390f35b61039b610de7565b6040516103a891906141c5565b60405180910390f35b6103cb60048036038101906103c6919061417d565b610df4565b6040516103d891906141e0565b60405180910390f35b6103fb60048036038101906103f69190614227565b610e33565b6040516104089190614254565b60405180910390f35b61042b6004803603810190610426919061417d565b610f01565b60405161043891906141e0565b60405180910390f35b61045b6004803603810190610456919061417d565b610f40565b60405161046891906141e0565b60405180910390f35b610479610f7f565b60405161048691906141c5565b60405180910390f35b610497610f8c565b6040516104a4919061412f565b60405180910390f35b6104c760048036038101906104c291906143a4565b611021565b005b6104e360048036038101906104de9190614400565b611521565b005b6104ff60048036038101906104fa91906144b7565b6117f1565b005b61051b60048036038101906105169190613e50565b61190c565b60405161052d969594939291906144f7565b60405180910390f35b610550600480360381019061054b91906143a4565b611a9f565b005b61056c6004803603810190610567919061417d565b612049565b60405161057991906141e0565b60405180910390f35b61059c60048036038101906105979190613e50565b612088565b6040516105a991906141aa565b60405180910390f35b6105cc60048036038101906105c7919061462e565b612137565b6040516105d991906141aa565b60405180910390f35b6105ea612199565b6040516105f791906141c5565b60405180910390f35b6106086121a3565b60405161061591906141e0565b60405180910390f35b6106266121cc565b60405161063391906141c5565b60405180910390f35b61065660048036038101906106519190613e50565b6121d9565b60405161066391906141aa565b60405180910390f35b610674612288565b604051610681919061412f565b60405180910390f35b6106a4600480360381019061069f919061476b565b61231d565b005b6106c060048036038101906106bb919061417d565b61263c565b6040516106cd91906141e0565b60405180910390f35b6106f060048036038101906106eb9190613e50565b61267b565b6040516107019594939291906148f2565b60405180910390f35b610712612876565b60405161071f91906141c5565b60405180910390f35b610730612880565b60405161073d91906141c5565b60405180910390f35b610760600480360381019061075b919061495a565b61288d565b005b61076a612bbb565b604051610777919061412f565b60405180910390f35b610788612c50565b604051610795919061410d565b60405180910390f35b6107a6612dab565b6040516107b391906141c5565b60405180910390f35b6107d660048036038101906107d191906144b7565b612db5565b005b6107f260048036038101906107ed9190614227565b612ed0565b6040516107ff9190614b4f565b60405180910390f35b610822600480360381019061081d919061417d565b61333a565b60405161082f91906141aa565b60405180910390f35b610852600480360381019061084d9190613e50565b613368565b6040516108629493929190614b71565b60405180910390f35b6108856004803603810190610880919061417d565b613550565b60405161089291906141aa565b60405180910390f35b6108b560048036038101906108b0919061417d565b61356e565b6040516108c291906141aa565b60405180910390f35b6108e560048036038101906108e0919061417d565b6135a0565b6040516108f291906141e0565b60405180910390f35b6109036135df565b60405161091091906141c5565b60405180910390f35b6109216135ec565b60405161092e91906141aa565b60405180910390f35b61093f613602565b60405161094c9190614c7a565b60405180910390f35b61095d6136c6565b60405161096a91906141c5565b60405180910390f35b61097b6136d0565b60405161098891906141c5565b60405180910390f35b6109ab60048036038101906109a6919061417d565b6136dd565b6040516109b891906141e0565b60405180910390f35b6109c9613873565b6040516109d691906141e0565b60405180910390f35b6109f960048036038101906109f49190614c9c565b613899565b005b60086020528060005260406000206000915090508060000160009054906101000a900460ff16908060000160019054906101000a900473ffffffffffffffffffffffffffffffffffffffff1690806001018054610a5790614d43565b80601f0160208091040260200160405190810160405280929190818152602001828054610a8390614d43565b8015610ad05780601f10610aa557610100808354040283529160200191610ad0565b820191906000526020600020905b815481529060010190602001808311610ab357829003601f168201915b505050505090806002018054610ae590614d43565b80601f0160208091040260200160405190810160405280929190818152602001828054610b1190614d43565b8015610b5e5780601f10610b3357610100808354040283529160200191610b5e565b820191906000526020600020905b815481529060010190602001808311610b4157829003601f168201915b5050505050908060030154908060040154908060050160009054906101000a900460ff16908060050160019054906101000a900460ff16905088565b60606000600f6008018054905067ffffffffffffffff811115610bc057610bbf614279565b5b604051908082528060200260200182016040528015610bf357816020015b6060815260200190600190039081610bde5790505b50905060005b600f60080180549050811015610ce457600f6008018181548110610c2057610c1f614d75565b5b906000526020600020018054610c3590614d43565b80601f0160208091040260200160405190810160405280929190818152602001828054610c6190614d43565b8015610cae5780601f10610c8357610100808354040283529160200191610cae565b820191906000526020600020905b815481529060010190602001808311610c9157829003601f168201915b5050505050828281518110610cc657610cc5614d75565b5b60200260200101819052508080610cdc90614dd3565b915050610bf9565b508091505090565b6060600f6000018054610cfe90614d43565b80601f0160208091040260200160405190810160405280929190818152602001828054610d2a90614d43565b8015610d775780601f10610d4c57610100808354040283529160200191610d77565b820191906000526020600020905b815481529060010190602001808311610d5a57829003601f168201915b5050505050905090565b600080600b548310158015610d985750600c548311155b15610da65760019050610dab565b600090505b80915050919050565b600080600d548310158015610dcb5750600e548311155b15610dd95760019050610dde565b600090505b80915050919050565b6000600680549050905090565b60028181548110610e0457600080fd5b906000526020600020016000915054906101000a900473ffffffffffffffffffffffffffffffffffffffff1681565b6000806000905060005b600480549050811015610ef7578360ff166008600060048481548110610e6657610e65614d75565b5b9060005260206000200160009054906101000a900473ffffffffffffffffffffffffffffffffffffffff1673ffffffffffffffffffffffffffffffffffffffff1673ffffffffffffffffffffffffffffffffffffffff168152602001908152602001600020600301541415610ee4578180610ee090614e1c565b9250505b8080610eef90614dd3565b915050610e3d565b5080915050919050565b60058181548110610f1157600080fd5b906000526020600020016000915054906101000a900473ffffffffffffffffffffffffffffffffffffffff1681565b60048181548110610f5057600080fd5b906000526020600020016000915054906101000a900473ffffffffffffffffffffffffffffffffffffffff1681565b6000600480549050905090565b6060600f6003018054610f9e90614d43565b80601f0160208091040260200160405190810160405280929190818152602001828054610fca90614d43565b80156110175780601f10610fec57610100808354040283529160200191611017565b820191906000526020600020905b815481529060010190602001808311610ffa57829003601f168201915b5050505050905090565b600060019054906101000a900473ffffffffffffffffffffffffffffffffffffffff1673ffffffffffffffffffffffffffffffffffffffff163373ffffffffffffffffffffffffffffffffffffffff161461107b57600080fd5b60008060005b60018054905081101561111c578473ffffffffffffffffffffffffffffffffffffffff16600182815481106110b9576110b8614d75565b5b9060005260206000200160009054906101000a900473ffffffffffffffffffffffffffffffffffffffff1673ffffffffffffffffffffffffffffffffffffffff161415611109576001925061111c565b808061111490614dd3565b915050611081565b5060005b6005805490508110156111b7578473ffffffffffffffffffffffffffffffffffffffff166005828154811061115857611157614d75565b5b9060005260206000200160009054906101000a900473ffffffffffffffffffffffffffffffffffffffff1673ffffffffffffffffffffffffffffffffffffffff1614156111a457600191505b80806111af90614dd3565b915050611120565b5060011515821515146111ff576040517f08c379a00000000000000000000000000000000000000000000000000000000081526004016111f690614e92565b60405180910390fd5b6000151581151514611246576040517f08c379a000000000000000000000000000000000000000000000000000000000815260040161123d90614efe565b60405180910390fd5b82600960008673ffffffffffffffffffffffffffffffffffffffff1673ffffffffffffffffffffffffffffffffffffffff168152602001908152602001600020600301908051906020019061129c929190613ae1565b50600760008573ffffffffffffffffffffffffffffffffffffffff1673ffffffffffffffffffffffffffffffffffffffff168152602001908152602001600020600101600960008673ffffffffffffffffffffffffffffffffffffffff1673ffffffffffffffffffffffffffffffffffffffff16815260200190815260200160002060010190805461132d90614d43565b611338929190613b67565b50600760008573ffffffffffffffffffffffffffffffffffffffff1673ffffffffffffffffffffffffffffffffffffffff168152602001908152602001600020600201600960008673ffffffffffffffffffffffffffffffffffffffff1673ffffffffffffffffffffffffffffffffffffffff1681526020019081526020016000206002019080546113c990614d43565b6113d4929190613b67565b50600760008573ffffffffffffffffffffffffffffffffffffffff1673ffffffffffffffffffffffffffffffffffffffff16815260200190815260200160002060000160009054906101000a900473ffffffffffffffffffffffffffffffffffffffff16600960008673ffffffffffffffffffffffffffffffffffffffff1673ffffffffffffffffffffffffffffffffffffffff16815260200190815260200160002060000160006101000a81548173ffffffffffffffffffffffffffffffffffffffff021916908373ffffffffffffffffffffffffffffffffffffffff1602179055506005849080600181540180825580915050600190039060005260206000200160009091909190916101000a81548173ffffffffffffffffffffffffffffffffffffffff021916908373ffffffffffffffffffffffffffffffffffffffff16021790555050505050565b600b54421015611566576040517f08c379a000000000000000000000000000000000000000000000000000000000815260040161155d90614f6a565b60405180910390fd5b600c544211156115ab576040517f08c379a00000000000000000000000000000000000000000000000000000000081526004016115a290614fd6565b60405180910390fd5b6000604051806101000160405280600060159054906101000a900460ff1660ff1681526020013373ffffffffffffffffffffffffffffffffffffffff1681526020018581526020018481526020018381526020016000815260200160001515815260200160011515815250905080600860003373ffffffffffffffffffffffffffffffffffffffff1673ffffffffffffffffffffffffffffffffffffffff16815260200190815260200160002060008201518160000160006101000a81548160ff021916908360ff16021790555060208201518160000160016101000a81548173ffffffffffffffffffffffffffffffffffffffff021916908373ffffffffffffffffffffffffffffffffffffffff16021790555060408201518160010190805190602001906116dc929190613ae1565b5060608201518160020190805190602001906116f9929190613ae1565b506080820151816003015560a0820151816004015560c08201518160050160006101000a81548160ff02191690831515021790555060e08201518160050160016101000a81548160ff0219169083151502179055509050506002339080600181540180825580915050600190039060005260206000200160009091909190916101000a81548173ffffffffffffffffffffffffffffffffffffffff021916908373ffffffffffffffffffffffffffffffffffffffff1602179055506001600060158282829054906101000a900460ff166117d39190614ff6565b92506101000a81548160ff021916908360ff16021790555050505050565b600060019054906101000a900473ffffffffffffffffffffffffffffffffffffffff1673ffffffffffffffffffffffffffffffffffffffff163373ffffffffffffffffffffffffffffffffffffffff161461184b57600080fd5b81600760008373ffffffffffffffffffffffffffffffffffffffff1673ffffffffffffffffffffffffffffffffffffffff16815260200190815260200160002060030160006101000a81548160ff0219169083151502179055506003819080600181540180825580915050600190039060005260206000200160009091909190916101000a81548173ffffffffffffffffffffffffffffffffffffffff021916908373ffffffffffffffffffffffffffffffffffffffff1602179055505050565b60076020528060005260406000206000915090508060000160009054906101000a900473ffffffffffffffffffffffffffffffffffffffff169080600101805461195590614d43565b80601f016020809104026020016040519081016040528092919081815260200182805461198190614d43565b80156119ce5780601f106119a3576101008083540402835291602001916119ce565b820191906000526020600020905b8154815290600101906020018083116119b157829003601f168201915b5050505050908060020180546119e390614d43565b80601f0160208091040260200160405190810160405280929190818152602001828054611a0f90614d43565b8015611a5c5780601f10611a3157610100808354040283529160200191611a5c565b820191906000526020600020905b815481529060010190602001808311611a3f57829003601f168201915b5050505050908060030160009054906101000a900460ff16908060030160019054906101000a900460ff16908060030160029054906101000a900460ff16905086565b600060019054906101000a900473ffffffffffffffffffffffffffffffffffffffff1673ffffffffffffffffffffffffffffffffffffffff163373ffffffffffffffffffffffffffffffffffffffff1614611af957600080fd5b60008060005b600280549050811015611b9a578473ffffffffffffffffffffffffffffffffffffffff1660028281548110611b3757611b36614d75565b5b9060005260206000200160009054906101000a900473ffffffffffffffffffffffffffffffffffffffff1673ffffffffffffffffffffffffffffffffffffffff161415611b875760019250611b9a565b8080611b9290614dd3565b915050611aff565b5060005b600680549050811015611c35578473ffffffffffffffffffffffffffffffffffffffff1660068281548110611bd657611bd5614d75565b5b9060005260206000200160009054906101000a900473ffffffffffffffffffffffffffffffffffffffff1673ffffffffffffffffffffffffffffffffffffffff161415611c2257600191505b8080611c2d90614dd3565b915050611b9e565b506001151582151514611c7d576040517f08c379a0000000000000000000000000000000000000000000000000000000008152600401611c7490615079565b60405180910390fd5b6000151581151514611cc4576040517f08c379a0000000000000000000000000000000000000000000000000000000008152600401611cbb906150e5565b60405180910390fd5b600860008573ffffffffffffffffffffffffffffffffffffffff1673ffffffffffffffffffffffffffffffffffffffff16815260200190815260200160002060000160009054906101000a900460ff16600a60008673ffffffffffffffffffffffffffffffffffffffff1673ffffffffffffffffffffffffffffffffffffffff16815260200190815260200160002060000160006101000a81548160ff021916908360ff160217905550600860008573ffffffffffffffffffffffffffffffffffffffff1673ffffffffffffffffffffffffffffffffffffffff16815260200190815260200160002060000160019054906101000a900473ffffffffffffffffffffffffffffffffffffffff16600a60008673ffffffffffffffffffffffffffffffffffffffff1673ffffffffffffffffffffffffffffffffffffffff16815260200190815260200160002060000160016101000a81548173ffffffffffffffffffffffffffffffffffffffff021916908373ffffffffffffffffffffffffffffffffffffffff160217905550600860008573ffffffffffffffffffffffffffffffffffffffff1673ffffffffffffffffffffffffffffffffffffffff168152602001908152602001600020600101600a60008673ffffffffffffffffffffffffffffffffffffffff1673ffffffffffffffffffffffffffffffffffffffff168152602001908152602001600020600101908054611ee190614d43565b611eec929190613b67565b50600860008573ffffffffffffffffffffffffffffffffffffffff1673ffffffffffffffffffffffffffffffffffffffff168152602001908152602001600020600201600a60008673ffffffffffffffffffffffffffffffffffffffff1673ffffffffffffffffffffffffffffffffffffffff168152602001908152602001600020600201908054611f7d90614d43565b611f88929190613b67565b5082600a60008673ffffffffffffffffffffffffffffffffffffffff1673ffffffffffffffffffffffffffffffffffffffff1681526020019081526020016000206003019080519060200190611fdf929190613ae1565b506006849080600181540180825580915050600190039060005260206000200160009091909190916101000a81548173ffffffffffffffffffffffffffffffffffffffff021916908373ffffffffffffffffffffffffffffffffffffffff16021790555050505050565b6006818154811061205957600080fd5b906000526020600020016000915054906101000a900473ffffffffffffffffffffffffffffffffffffffff1681565b6000806000905060005b60038054905081101561212d57600381815481106120b3576120b2614d75565b5b9060005260206000200160009054906101000a900473ffffffffffffffffffffffffffffffffffffffff1673ffffffffffffffffffffffffffffffffffffffff168473ffffffffffffffffffffffffffffffffffffffff16141561211a576001915061212d565b808061212590614dd3565b915050612092565b5080915050919050565b600080600090505b835181101561218d578260ff1684828151811061215f5761215e614d75565b5b602002602001015160ff16141561217a576001915050612193565b808061218590614dd3565b91505061213f565b50600090505b92915050565b6000600d54905090565b60008060019054906101000a900473ffffffffffffffffffffffffffffffffffffffff16905090565b6000600180549050905090565b6000806000905060005b60028054905081101561227e576002818154811061220457612203614d75565b5b9060005260206000200160009054906101000a900473ffffffffffffffffffffffffffffffffffffffff1673ffffffffffffffffffffffffffffffffffffffff168473ffffffffffffffffffffffffffffffffffffffff16141561226b576001915061227e565b808061227690614dd3565b9150506121e3565b5080915050919050565b6060600f600101805461229a90614d43565b80601f01602080910402602001604051908101604052809291908181526020018280546122c690614d43565b80156123135780601f106122e857610100808354040283529160200191612313565b820191906000526020600020905b8154815290600101906020018083116122f657829003601f168201915b5050505050905090565b600060019054906101000a900473ffffffffffffffffffffffffffffffffffffffff1673ffffffffffffffffffffffffffffffffffffffff163373ffffffffffffffffffffffffffffffffffffffff161461237757600080fd5b6000825167ffffffffffffffff81111561239457612393614279565b5b6040519080825280602002602001820160405280156123c757816020015b60608152602001906001900390816123b25790505b50905060005b8351811015612422578381815181106123e9576123e8614d75565b5b602002602001015182828151811061240457612403614d75565b5b6020026020010181905250808061241a90614dd3565b9150506123cd565b506000825167ffffffffffffffff8111156124405761243f614279565b5b60405190808252806020026020018201604052801561247357816020015b606081526020019060019003908161245e5790505b50905060005b83518110156124ce5783818151811061249557612494614d75565b5b60200260200101518282815181106124b0576124af614d75565b5b602002602001018190525080806124c690614dd3565b915050612479565b5060006040518061014001604052808e81526020018d81526020018c81526020018b81526020018a815260200189815260200188815260200187815260200184815260200183815250905080600f6000820151816000019080519060200190612538929190613ae1565b506020820151816001019080519060200190612555929190613ae1565b506040820151816002019080519060200190612572929190613ae1565b50606082015181600301908051906020019061258f929190613ae1565b506080820151816004015560a0820151816005015560c0820151816006015560e082015181600701556101008201518160080190805190602001906125d5929190613bf4565b506101208201518160090190805190602001906125f3929190613bf4565b5090505060016000806101000a81548160ff02191690831515021790555086600b8190555085600c8190555088600d8190555087600e8190555050505050505050505050505050565b6003818154811061264c57600080fd5b906000526020600020016000915054906101000a900473ffffffffffffffffffffffffffffffffffffffff1681565b600a6020528060005260406000206000915090508060000160009054906101000a900460ff16908060000160019054906101000a900473ffffffffffffffffffffffffffffffffffffffff16908060010180546126d790614d43565b80601f016020809104026020016040519081016040528092919081815260200182805461270390614d43565b80156127505780601f1061272557610100808354040283529160200191612750565b820191906000526020600020905b81548152906001019060200180831161273357829003601f168201915b50505050509080600201805461276590614d43565b80601f016020809104026020016040519081016040528092919081815260200182805461279190614d43565b80156127de5780601f106127b3576101008083540402835291602001916127de565b820191906000526020600020905b8154815290600101906020018083116127c157829003601f168201915b5050505050908060030180546127f390614d43565b80601f016020809104026020016040519081016040528092919081815260200182805461281f90614d43565b801561286c5780601f106128415761010080835404028352916020019161286c565b820191906000526020600020905b81548152906001019060200180831161284f57829003601f168201915b5050505050905085565b6000600e54905090565b6000600380549050905090565b600d544210156128d2576040517f08c379a00000000000000000000000000000000000000000000000000000000081526004016128c990615151565b60405180910390fd5b600e54421115612917576040517f08c379a000000000000000000000000000000000000000000000000000000000815260040161290e906151bd565b60405180910390fd5b60006129d9600760003373ffffffffffffffffffffffffffffffffffffffff1673ffffffffffffffffffffffffffffffffffffffff1681526020019081526020016000206004018054806020026020016040519081016040528092919081815260200182805480156129ce57602002820191906000526020600020906000905b82829054906101000a900460ff1660ff16815260200190600101906020826000010492830192600103820291508084116129975790505b505050505083612137565b90508015612a1c576040517f08c379a0000000000000000000000000000000000000000000000000000000008152600401612a139061524f565b60405180910390fd5b60011515600760003373ffffffffffffffffffffffffffffffffffffffff1673ffffffffffffffffffffffffffffffffffffffff16815260200190815260200160002060030160009054906101000a900460ff16151514612a7c57600080fd5b6001600860008573ffffffffffffffffffffffffffffffffffffffff1673ffffffffffffffffffffffffffffffffffffffff1681526020019081526020016000206004016000828254612acf919061526f565b925050819055506001600760003373ffffffffffffffffffffffffffffffffffffffff1673ffffffffffffffffffffffffffffffffffffffff16815260200190815260200160002060030160016101000a81548160ff021916908315150217905550600760003373ffffffffffffffffffffffffffffffffffffffff1673ffffffffffffffffffffffffffffffffffffffff1681526020019081526020016000206004018290806001815401808255809150506001900390600052602060002090602091828204019190069091909190916101000a81548160ff021916908360ff160217905550505050565b6060600f6002018054612bcd90614d43565b80601f0160208091040260200160405190810160405280929190818152602001828054612bf990614d43565b8015612c465780601f10612c1b57610100808354040283529160200191612c46565b820191906000526020600020905b815481529060010190602001808311612c2957829003601f168201915b5050505050905090565b60606000600f6009018054905067ffffffffffffffff811115612c7657612c75614279565b5b604051908082528060200260200182016040528015612ca957816020015b6060815260200190600190039081612c945790505b50905060005b600f600901805490508160ff161015612da357600f6009018160ff1681548110612cdc57612cdb614d75565b5b906000526020600020018054612cf190614d43565b80601f0160208091040260200160405190810160405280929190818152602001828054612d1d90614d43565b8015612d6a5780601f10612d3f57610100808354040283529160200191612d6a565b820191906000526020600020905b815481529060010190602001808311612d4d57829003601f168201915b5050505050828260ff1681518110612d8557612d84614d75565b5b60200260200101819052508080612d9b90614e1c565b915050612caf565b508091505090565b6000600c54905090565b600060019054906101000a900473ffffffffffffffffffffffffffffffffffffffff1673ffffffffffffffffffffffffffffffffffffffff163373ffffffffffffffffffffffffffffffffffffffff1614612e0f57600080fd5b81600860008373ffffffffffffffffffffffffffffffffffffffff1673ffffffffffffffffffffffffffffffffffffffff16815260200190815260200160002060050160006101000a81548160ff0219169083151502179055506004819080600181540180825580915050600190039060005260206000200160009091909190916101000a81548173ffffffffffffffffffffffffffffffffffffffff021916908373ffffffffffffffffffffffffffffffffffffffff1602179055505050565b6060600060048054905067ffffffffffffffff811115612ef357612ef2614279565b5b604051908082528060200260200182016040528015612f2c57816020015b612f19613c54565b815260200190600190039081612f115790505b5090506000805b600480549050811015613278578460ff166008600060048481548110612f5c57612f5b614d75565b5b9060005260206000200160009054906101000a900473ffffffffffffffffffffffffffffffffffffffff1673ffffffffffffffffffffffffffffffffffffffff1673ffffffffffffffffffffffffffffffffffffffff168152602001908152602001600020600301541415613265576008600060048381548110612fe357612fe2614d75565b5b9060005260206000200160009054906101000a900473ffffffffffffffffffffffffffffffffffffffff1673ffffffffffffffffffffffffffffffffffffffff1673ffffffffffffffffffffffffffffffffffffffff168152602001908152602001600020604051806101000160405290816000820160009054906101000a900460ff1660ff1660ff1681526020016000820160019054906101000a900473ffffffffffffffffffffffffffffffffffffffff1673ffffffffffffffffffffffffffffffffffffffff1673ffffffffffffffffffffffffffffffffffffffff1681526020016001820180546130d790614d43565b80601f016020809104026020016040519081016040528092919081815260200182805461310390614d43565b80156131505780601f1061312557610100808354040283529160200191613150565b820191906000526020600020905b81548152906001019060200180831161313357829003601f168201915b5050505050815260200160028201805461316990614d43565b80601f016020809104026020016040519081016040528092919081815260200182805461319590614d43565b80156131e25780601f106131b7576101008083540402835291602001916131e2565b820191906000526020600020905b8154815290600101906020018083116131c557829003601f168201915b5050505050815260200160038201548152602001600482015481526020016005820160009054906101000a900460ff161515151581526020016005820160019054906101000a900460ff161515151581525050838360ff168151811061324b5761324a614d75565b5b6020026020010181905250818061326190614e1c565b9250505b808061327090614dd3565b915050612f33565b5060008160ff1667ffffffffffffffff81111561329857613297614279565b5b6040519080825280602002602001820160405280156132d157816020015b6132be613c54565b8152602001906001900390816132b65790505b50905060005b8260ff1681101561332e578381815181106132f5576132f4614d75565b5b60200260200101518282815181106133105761330f614d75565b5b6020026020010181905250808061332690614dd3565b9150506132d7565b50809350505050919050565b60008060009050600b5483101580156133555750600c548311155b1561335f57600190505b80915050919050565b60096020528060005260406000206000915090508060000160009054906101000a900473ffffffffffffffffffffffffffffffffffffffff16908060010180546133b190614d43565b80601f01602080910402602001604051908101604052809291908181526020018280546133dd90614d43565b801561342a5780601f106133ff5761010080835404028352916020019161342a565b820191906000526020600020905b81548152906001019060200180831161340d57829003601f168201915b50505050509080600201805461343f90614d43565b80601f016020809104026020016040519081016040528092919081815260200182805461346b90614d43565b80156134b85780601f1061348d576101008083540402835291602001916134b8565b820191906000526020600020905b81548152906001019060200180831161349b57829003601f168201915b5050505050908060030180546134cd90614d43565b80601f01602080910402602001604051908101604052809291908181526020018280546134f990614d43565b80156135465780601f1061351b57610100808354040283529160200191613546565b820191906000526020600020905b81548152906001019060200180831161352957829003601f168201915b5050505050905084565b60008060009050600c54831061356557600190505b80915050919050565b6000806000905060008054906101000a900460ff161561359757600e54831061359657600190505b5b80915050919050565b600181815481106135b057600080fd5b906000526020600020016000915054906101000a900473ffffffffffffffffffffffffffffffffffffffff1681565b6000600280549050905090565b60008060009054906101000a900460ff16905090565b60606000600760003373ffffffffffffffffffffffffffffffffffffffff1673ffffffffffffffffffffffffffffffffffffffff1681526020019081526020016000206004018054806020026020016040519081016040528092919081815260200182805480156136b857602002820191906000526020600020906000905b82829054906101000a900460ff1660ff16815260200190600101906020826000010492830192600103820291508084116136815790505b505050505090508091505090565b6000600b54905090565b6000600580549050905090565b60008060009050600080600090505b6004805490508110156138685784600860006004848154811061371257613711614d75565b5b9060005260206000200160009054906101000a900473ffffffffffffffffffffffffffffffffffffffff1673ffffffffffffffffffffffffffffffffffffffff1673ffffffffffffffffffffffffffffffffffffffff168152602001908152602001600020600301541415613855576000600860006004848154811061379b5761379a614d75565b5b9060005260206000200160009054906101000a900473ffffffffffffffffffffffffffffffffffffffff1673ffffffffffffffffffffffffffffffffffffffff1673ffffffffffffffffffffffffffffffffffffffff16815260200190815260200160002060040154905083811115613853578093506004828154811061382557613824614d75565b5b9060005260206000200160009054906101000a900473ffffffffffffffffffffffffffffffffffffffff1692505b505b808061386090614dd3565b9150506136ec565b508092505050919050565b600060019054906101000a900473ffffffffffffffffffffffffffffffffffffffff1681565b60006040518060e001604052803373ffffffffffffffffffffffffffffffffffffffff168152602001848152602001838152602001600015158152602001600015158152602001600115158152602001600067ffffffffffffffff81111561390457613903614279565b5b6040519080825280602002602001820160405280156139325781602001602082028036833780820191505090505b50815250905080600760003373ffffffffffffffffffffffffffffffffffffffff1673ffffffffffffffffffffffffffffffffffffffff16815260200190815260200160002060008201518160000160006101000a81548173ffffffffffffffffffffffffffffffffffffffff021916908373ffffffffffffffffffffffffffffffffffffffff16021790555060208201518160010190805190602001906139db929190613ae1565b5060408201518160020190805190602001906139f8929190613ae1565b5060608201518160030160006101000a81548160ff02191690831515021790555060808201518160030160016101000a81548160ff02191690831515021790555060a08201518160030160026101000a81548160ff02191690831515021790555060c0820151816004019080519060200190613a75929190613cb6565b509050506001339080600181540180825580915050600190039060005260206000200160009091909190916101000a81548173ffffffffffffffffffffffffffffffffffffffff021916908373ffffffffffffffffffffffffffffffffffffffff160217905550505050565b828054613aed90614d43565b90600052602060002090601f016020900481019282613b0f5760008555613b56565b82601f10613b2857805160ff1916838001178555613b56565b82800160010185558215613b56579182015b82811115613b55578251825591602001919060010190613b3a565b5b509050613b639190613d5d565b5090565b828054613b7390614d43565b90600052602060002090601f016020900481019282613b955760008555613be3565b82601f10613ba65780548555613be3565b82800160010185558215613be357600052602060002091601f016020900482015b82811115613be2578254825591600101919060010190613bc7565b5b509050613bf09190613d5d565b5090565b828054828255906000526020600020908101928215613c43579160200282015b82811115613c42578251829080519060200190613c32929190613ae1565b5091602001919060010190613c14565b5b509050613c509190613d7a565b5090565b604051806101000160405280600060ff168152602001600073ffffffffffffffffffffffffffffffffffffffff168152602001606081526020016060815260200160008152602001600081526020016000151581526020016000151581525090565b82805482825590600052602060002090601f01602090048101928215613d4c5791602002820160005b83821115613d1d57835183826101000a81548160ff021916908360ff1602179055509260200192600101602081600001049283019260010302613cdf565b8015613d4a5782816101000a81549060ff0219169055600101602081600001049283019260010302613d1d565b505b509050613d599190613d5d565b5090565b5b80821115613d76576000816000905550600101613d5e565b5090565b5b80821115613d9a5760008181613d919190613d9e565b50600101613d7b565b5090565b508054613daa90614d43565b6000825580601f10613dbc5750613ddb565b601f016020900490600052602060002090810190613dda9190613d5d565b5b50565b6000604051905090565b600080fd5b600080fd5b600073ffffffffffffffffffffffffffffffffffffffff82169050919050565b6000613e1d82613df2565b9050919050565b613e2d81613e12565b8114613e3857600080fd5b50565b600081359050613e4a81613e24565b92915050565b600060208284031215613e6657613e65613de8565b5b6000613e7484828501613e3b565b91505092915050565b600060ff82169050919050565b613e9381613e7d565b82525050565b613ea281613e12565b82525050565b600081519050919050565b600082825260208201905092915050565b60005b83811015613ee2578082015181840152602081019050613ec7565b83811115613ef1576000848401525b50505050565b6000601f19601f8301169050919050565b6000613f1382613ea8565b613f1d8185613eb3565b9350613f2d818560208601613ec4565b613f3681613ef7565b840191505092915050565b6000819050919050565b613f5481613f41565b82525050565b60008115159050919050565b613f6f81613f5a565b82525050565b600061010082019050613f8b600083018b613e8a565b613f98602083018a613e99565b8181036040830152613faa8189613f08565b90508181036060830152613fbe8188613f08565b9050613fcd6080830187613f4b565b613fda60a0830186613f4b565b613fe760c0830185613f66565b613ff460e0830184613f66565b9998505050505050505050565b600081519050919050565b600082825260208201905092915050565b6000819050602082019050919050565b600082825260208201905092915050565b600061404982613ea8565b614053818561402d565b9350614063818560208601613ec4565b61406c81613ef7565b840191505092915050565b6000614083838361403e565b905092915050565b6000602082019050919050565b60006140a382614001565b6140ad818561400c565b9350836020820285016140bf8561401d565b8060005b858110156140fb57848403895281516140dc8582614077565b94506140e78361408b565b925060208a019950506001810190506140c3565b50829750879550505050505092915050565b600060208201905081810360008301526141278184614098565b905092915050565b600060208201905081810360008301526141498184613f08565b905092915050565b61415a81613f41565b811461416557600080fd5b50565b60008135905061417781614151565b92915050565b60006020828403121561419357614192613de8565b5b60006141a184828501614168565b91505092915050565b60006020820190506141bf6000830184613f66565b92915050565b60006020820190506141da6000830184613f4b565b92915050565b60006020820190506141f56000830184613e99565b92915050565b61420481613e7d565b811461420f57600080fd5b50565b600081359050614221816141fb565b92915050565b60006020828403121561423d5761423c613de8565b5b600061424b84828501614212565b91505092915050565b60006020820190506142696000830184613e8a565b92915050565b600080fd5b600080fd5b7f4e487b7100000000000000000000000000000000000000000000000000000000600052604160045260246000fd5b6142b182613ef7565b810181811067ffffffffffffffff821117156142d0576142cf614279565b5b80604052505050565b60006142e3613dde565b90506142ef82826142a8565b919050565b600067ffffffffffffffff82111561430f5761430e614279565b5b61431882613ef7565b9050602081019050919050565b82818337600083830152505050565b6000614347614342846142f4565b6142d9565b90508281526020810184848401111561436357614362614274565b5b61436e848285614325565b509392505050565b600082601f83011261438b5761438a61426f565b5b813561439b848260208601614334565b91505092915050565b600080604083850312156143bb576143ba613de8565b5b60006143c985828601613e3b565b925050602083013567ffffffffffffffff8111156143ea576143e9613ded565b5b6143f685828601614376565b9150509250929050565b60008060006060848603121561441957614418613de8565b5b600084013567ffffffffffffffff81111561443757614436613ded565b5b61444386828701614376565b935050602084013567ffffffffffffffff81111561446457614463613ded565b5b61447086828701614376565b925050604061448186828701614168565b9150509250925092565b61449481613f5a565b811461449f57600080fd5b50565b6000813590506144b18161448b565b92915050565b600080604083850312156144ce576144cd613de8565b5b60006144dc858286016144a2565b92505060206144ed85828601613e3b565b9150509250929050565b600060c08201905061450c6000830189613e99565b818103602083015261451e8188613f08565b905081810360408301526145328187613f08565b90506145416060830186613f66565b61454e6080830185613f66565b61455b60a0830184613f66565b979650505050505050565b600067ffffffffffffffff82111561458157614580614279565b5b602082029050602081019050919050565b600080fd5b60006145aa6145a584614566565b6142d9565b905080838252602082019050602084028301858111156145cd576145cc614592565b5b835b818110156145f657806145e28882614212565b8452602084019350506020810190506145cf565b5050509392505050565b600082601f8301126146155761461461426f565b5b8135614625848260208601614597565b91505092915050565b6000806040838503121561464557614644613de8565b5b600083013567ffffffffffffffff81111561466357614662613ded565b5b61466f85828601614600565b925050602061468085828601614212565b9150509250929050565b600067ffffffffffffffff8211156146a5576146a4614279565b5b602082029050602081019050919050565b60006146c96146c48461468a565b6142d9565b905080838252602082019050602084028301858111156146ec576146eb614592565b5b835b8181101561473357803567ffffffffffffffff8111156147115761471061426f565b5b80860161471e8982614376565b855260208501945050506020810190506146ee565b5050509392505050565b600082601f8301126147525761475161426f565b5b81356147628482602086016146b6565b91505092915050565b6000806000806000806000806000806101408b8d03121561478f5761478e613de8565b5b60008b013567ffffffffffffffff8111156147ad576147ac613ded565b5b6147b98d828e01614376565b9a505060208b013567ffffffffffffffff8111156147da576147d9613ded565b5b6147e68d828e01614376565b99505060408b013567ffffffffffffffff81111561480757614806613ded565b5b6148138d828e01614376565b98505060608b013567ffffffffffffffff81111561483457614833613ded565b5b6148408d828e01614376565b97505060806148518d828e01614168565b96505060a06148628d828e01614168565b95505060c06148738d828e01614168565b94505060e06148848d828e01614168565b9350506101008b013567ffffffffffffffff8111156148a6576148a5613ded565b5b6148b28d828e0161473d565b9250506101208b013567ffffffffffffffff8111156148d4576148d3613ded565b5b6148e08d828e0161473d565b9150509295989b9194979a5092959850565b600060a0820190506149076000830188613e8a565b6149146020830187613e99565b81810360408301526149268186613f08565b9050818103606083015261493a8185613f08565b9050818103608083015261494e8184613f08565b90509695505050505050565b6000806040838503121561497157614970613de8565b5b600061497f85828601613e3b565b925050602061499085828601614212565b9150509250929050565b600081519050919050565b600082825260208201905092915050565b6000819050602082019050919050565b6149cf81613e7d565b82525050565b6149de81613e12565b82525050565b6149ed81613f41565b82525050565b6149fc81613f5a565b82525050565b600061010083016000830151614a1b60008601826149c6565b506020830151614a2e60208601826149d5565b5060408301518482036040860152614a46828261403e565b91505060608301518482036060860152614a60828261403e565b9150506080830151614a7560808601826149e4565b5060a0830151614a8860a08601826149e4565b5060c0830151614a9b60c08601826149f3565b5060e0830151614aae60e08601826149f3565b508091505092915050565b6000614ac58383614a02565b905092915050565b6000602082019050919050565b6000614ae58261499a565b614aef81856149a5565b935083602082028501614b01856149b6565b8060005b85811015614b3d5784840389528151614b1e8582614ab9565b9450614b2983614acd565b925060208a01995050600181019050614b05565b50829750879550505050505092915050565b60006020820190508181036000830152614b698184614ada565b905092915050565b6000608082019050614b866000830187613e99565b8181036020830152614b988186613f08565b90508181036040830152614bac8185613f08565b90508181036060830152614bc08184613f08565b905095945050505050565b600081519050919050565b600082825260208201905092915050565b6000819050602082019050919050565b6000614c0383836149c6565b60208301905092915050565b6000602082019050919050565b6000614c2782614bcb565b614c318185614bd6565b9350614c3c83614be7565b8060005b83811015614c6d578151614c548882614bf7565b9750614c5f83614c0f565b925050600181019050614c40565b5085935050505092915050565b60006020820190508181036000830152614c948184614c1c565b905092915050565b60008060408385031215614cb357614cb2613de8565b5b600083013567ffffffffffffffff811115614cd157614cd0613ded565b5b614cdd85828601614376565b925050602083013567ffffffffffffffff811115614cfe57614cfd613ded565b5b614d0a85828601614376565b9150509250929050565b7f4e487b7100000000000000000000000000000000000000000000000000000000600052602260045260246000fd5b60006002820490506001821680614d5b57607f821691505b60208210811415614d6f57614d6e614d14565b5b50919050565b7f4e487b7100000000000000000000000000000000000000000000000000000000600052603260045260246000fd5b7f4e487b7100000000000000000000000000000000000000000000000000000000600052601160045260246000fd5b6000614dde82613f41565b91507fffffffffffffffffffffffffffffffffffffffffffffffffffffffffffffffff821415614e1157614e10614da4565b5b600182019050919050565b6000614e2782613e7d565b915060ff821415614e3b57614e3a614da4565b5b600182019050919050565b7f566f746572732061646472657373206e6f7420666f756e640000000000000000600082015250565b6000614e7c601883613eb3565b9150614e8782614e46565b602082019050919050565b60006020820190508181036000830152614eab81614e6f565b9050919050565b7f566f74657220616c72656164792072656a65637465642e000000000000000000600082015250565b6000614ee8601783613eb3565b9150614ef382614eb2565b602082019050919050565b60006020820190508181036000830152614f1781614edb565b9050919050565b7f526567697374726174696f6e206973206e6f7420737461727465642079657400600082015250565b6000614f54601f83613eb3565b9150614f5f82614f1e565b602082019050919050565b60006020820190508181036000830152614f8381614f47565b9050919050565b7f526567697374726174696f6e20697320616c726561647920656e6465642e0000600082015250565b6000614fc0601e83613eb3565b9150614fcb82614f8a565b602082019050919050565b60006020820190508181036000830152614fef81614fb3565b9050919050565b600061500182613e7d565b915061500c83613e7d565b92508260ff0382111561502257615021614da4565b5b828201905092915050565b7f43616e6469646174652061646472657373206e6f7420666f756e640000000000600082015250565b6000615063601b83613eb3565b915061506e8261502d565b602082019050919050565b6000602082019050818103600083015261509281615056565b9050919050565b7f43616e64696461746520616c72656164792072656a65637465642e0000000000600082015250565b60006150cf601b83613eb3565b91506150da82615099565b602082019050919050565b600060208201905081810360008301526150fe816150c2565b9050919050565b7f566f74696e67206973206e6f7420737461727465642079657400000000000000600082015250565b600061513b601983613eb3565b915061514682615105565b602082019050919050565b6000602082019050818103600083015261516a8161512e565b9050919050565b7f566f74696e6720697320616c726561647920656e646564000000000000000000600082015250565b60006151a7601783613eb3565b91506151b282615171565b602082019050919050565b600060208201905081810360008301526151d68161519a565b9050919050565b7f416c72656164792063617374656420766f746520746f207468652073656c656360008201527f746564207469746c652e00000000000000000000000000000000000000000000602082015250565b6000615239602a83613eb3565b9150615244826151dd565b604082019050919050565b600060208201905081810360008301526152688161522c565b9050919050565b600061527a82613f41565b915061528583613f41565b9250827fffffffffffffffffffffffffffffffffffffffffffffffffffffffffffffffff038211156152ba576152b9614da4565b5b82820190509291505056fea2646970667358221220f627be1c95504ea3508908f9913c33ed6ecd9088d3e0e34e701268cbb86e736b64736f6c634300080b0033",
  "linkReferences": {},
  "deployedLinkReferences": {}
}