{
  "_format": "hh-sol-artifact-1",
  "contractName": "Election",
  "sourceName": "contracts/Election.sol",
  "abi": [
    {
      "inputs": [],
      "stateMutability": "nonpayable",
      "type": "constructor"
    },
    {
      "inputs": [],
      "name": "admin",
      "outputs": [
        {
          "internalType": "address",
          "name": "",
          "type": "address"
        }
      ],
      "stateMutability": "view",
      "type": "function"
    },
    {
      "inputs": [
        {
          "internalType": "uint256",
          "name": "",
          "type": "uint256"
        }
      ],
      "name": "approvedCandidates",
      "outputs": [
        {
          "internalType": "address",
          "name": "",
          "type": "address"
        }
      ],
      "stateMutability": "view",
      "type": "function"
    },
    {
      "inputs": [
        {
          "internalType": "uint256",
          "name": "",
          "type": "uint256"
        }
      ],
      "name": "approvedVoters",
      "outputs": [
        {
          "internalType": "address",
          "name": "",
          "type": "address"
        }
      ],
      "stateMutability": "view",
      "type": "function"
    },
    {
      "inputs": [
        {
          "internalType": "address",
          "name": "",
          "type": "address"
        }
      ],
      "name": "candidateDetails",
      "outputs": [
        {
          "internalType": "uint256",
          "name": "candidateId",
          "type": "uint256"
        },
        {
          "internalType": "address",
          "name": "candidateAddress",
          "type": "address"
        },
        {
          "internalType": "string",
          "name": "header",
          "type": "string"
        },
        {
          "internalType": "string",
          "name": "slogan",
          "type": "string"
        },
        {
          "internalType": "uint256",
          "name": "electionTitleIndex",
          "type": "uint256"
        },
        {
          "internalType": "uint256",
          "name": "voteCount",
          "type": "uint256"
        },
        {
          "internalType": "bool",
          "name": "isVerified",
          "type": "bool"
        },
        {
          "internalType": "bool",
          "name": "isRegistered",
          "type": "bool"
        }
      ],
      "stateMutability": "view",
      "type": "function"
    },
    {
      "inputs": [
        {
          "internalType": "uint256",
          "name": "",
          "type": "uint256"
        }
      ],
      "name": "candidates",
      "outputs": [
        {
          "internalType": "address",
          "name": "",
          "type": "address"
        }
      ],
      "stateMutability": "view",
      "type": "function"
    },
    {
      "inputs": [
        {
          "internalType": "uint256",
          "name": "_electionTitleIndex",
          "type": "uint256"
        }
      ],
      "name": "checkForSingleElectionAndCandidate",
      "outputs": [
        {
          "internalType": "bool",
          "name": "",
          "type": "bool"
        }
      ],
      "stateMutability": "view",
      "type": "function"
    },
    {
      "inputs": [],
      "name": "getAdmin",
      "outputs": [
        {
          "internalType": "address",
          "name": "",
          "type": "address"
        }
      ],
      "stateMutability": "view",
      "type": "function"
    },
    {
      "inputs": [],
      "name": "getAdminEmail",
      "outputs": [
        {
          "internalType": "string",
          "name": "",
          "type": "string"
        }
      ],
      "stateMutability": "view",
      "type": "function"
    },
    {
      "inputs": [],
      "name": "getAdminName",
      "outputs": [
        {
          "internalType": "string",
          "name": "",
          "type": "string"
        }
      ],
      "stateMutability": "view",
      "type": "function"
    },
    {
      "inputs": [],
      "name": "getAdminTitle",
      "outputs": [
        {
          "internalType": "string",
          "name": "",
          "type": "string"
        }
      ],
      "stateMutability": "view",
      "type": "function"
    },
    {
      "inputs": [
        {
          "internalType": "address",
          "name": "_currentAddress",
          "type": "address"
        }
      ],
      "name": "getAlreadyRegisteredCandidateStatus",
      "outputs": [
        {
          "internalType": "bool",
          "name": "",
          "type": "bool"
        }
      ],
      "stateMutability": "view",
      "type": "function"
    },
    {
      "inputs": [
        {
          "internalType": "uint256",
          "name": "_electionTitleIndex",
          "type": "uint256"
        }
      ],
      "name": "getCandidateCountForAsscociatedElection",
      "outputs": [
        {
          "internalType": "uint256",
          "name": "",
          "type": "uint256"
        }
      ],
      "stateMutability": "view",
      "type": "function"
    },
    {
      "inputs": [
        {
          "internalType": "uint256",
          "name": "_electionTitleIndex",
          "type": "uint256"
        }
      ],
      "name": "getCandidatesForAssociatedElections",
      "outputs": [
        {
          "components": [
            {
              "internalType": "uint256",
              "name": "candidateId",
              "type": "uint256"
            },
            {
              "internalType": "address",
              "name": "candidateAddress",
              "type": "address"
            },
            {
              "internalType": "string",
              "name": "header",
              "type": "string"
            },
            {
              "internalType": "string",
              "name": "slogan",
              "type": "string"
            },
            {
              "internalType": "uint256",
              "name": "electionTitleIndex",
              "type": "uint256"
            },
            {
              "internalType": "uint256",
              "name": "voteCount",
              "type": "uint256"
            },
            {
              "internalType": "bool",
              "name": "isVerified",
              "type": "bool"
            },
            {
              "internalType": "bool",
              "name": "isRegistered",
              "type": "bool"
            }
          ],
          "internalType": "struct Election.Candidate[]",
          "name": "",
          "type": "tuple[]"
        }
      ],
      "stateMutability": "view",
      "type": "function"
    },
    {
      "inputs": [
        {
          "internalType": "uint256",
          "name": "_timeStamp",
          "type": "uint256"
        }
      ],
      "name": "getElectionEndedStatus",
      "outputs": [
        {
          "internalType": "bool",
          "name": "",
          "type": "bool"
        }
      ],
      "stateMutability": "view",
      "type": "function"
    },
    {
      "inputs": [],
      "name": "getElectionInitStatus",
      "outputs": [
        {
          "internalType": "bool",
          "name": "",
          "type": "bool"
        }
      ],
      "stateMutability": "view",
      "type": "function"
    },
    {
      "inputs": [
        {
          "internalType": "uint256",
          "name": "_timeStamp",
          "type": "uint256"
        }
      ],
      "name": "getElectionStatus",
      "outputs": [
        {
          "internalType": "bool",
          "name": "",
          "type": "bool"
        }
      ],
      "stateMutability": "view",
      "type": "function"
    },
    {
      "inputs": [],
      "name": "getElectionTitles",
      "outputs": [
        {
          "internalType": "string[]",
          "name": "",
          "type": "string[]"
        }
      ],
      "stateMutability": "view",
      "type": "function"
    },
    {
      "inputs": [],
      "name": "getOrganizationTitle",
      "outputs": [
        {
          "internalType": "string",
          "name": "",
          "type": "string"
        }
      ],
      "stateMutability": "view",
      "type": "function"
    },
    {
      "inputs": [],
      "name": "getRegistrationEndTime",
      "outputs": [
        {
          "internalType": "uint256",
          "name": "",
          "type": "uint256"
        }
      ],
      "stateMutability": "view",
      "type": "function"
    },
    {
      "inputs": [],
      "name": "getRegistrationStartTime",
      "outputs": [
        {
          "internalType": "uint256",
          "name": "",
          "type": "uint256"
        }
      ],
      "stateMutability": "view",
      "type": "function"
    },
    {
      "inputs": [
        {
          "internalType": "uint256",
          "name": "_timeStamp",
          "type": "uint256"
        }
      ],
      "name": "getRegistrationStatus",
      "outputs": [
        {
          "internalType": "bool",
          "name": "",
          "type": "bool"
        }
      ],
      "stateMutability": "view",
      "type": "function"
    },
    {
      "inputs": [],
      "name": "getTotalCandidate",
      "outputs": [
        {
          "internalType": "uint256",
          "name": "",
          "type": "uint256"
        }
      ],
      "stateMutability": "view",
      "type": "function"
    },
    {
      "inputs": [],
      "name": "getTotalVoter",
      "outputs": [
        {
          "internalType": "uint256",
          "name": "",
          "type": "uint256"
        }
      ],
      "stateMutability": "view",
      "type": "function"
    },
    {
      "inputs": [
        {
          "internalType": "address",
          "name": "_currentAddress",
          "type": "address"
        }
      ],
      "name": "getVoterStatusForCandidate",
      "outputs": [
        {
          "internalType": "bool",
          "name": "",
          "type": "bool"
        }
      ],
      "stateMutability": "view",
      "type": "function"
    },
    {
      "inputs": [],
      "name": "getVotingEndTime",
      "outputs": [
        {
          "internalType": "uint256",
          "name": "",
          "type": "uint256"
        }
      ],
      "stateMutability": "view",
      "type": "function"
    },
    {
      "inputs": [],
      "name": "getVotingStartTime",
      "outputs": [
        {
          "internalType": "uint256",
          "name": "",
          "type": "uint256"
        }
      ],
      "stateMutability": "view",
      "type": "function"
    },
    {
      "inputs": [],
      "name": "getWinner",
      "outputs": [
        {
          "internalType": "address",
          "name": "",
          "type": "address"
        }
      ],
      "stateMutability": "view",
      "type": "function"
    },
    {
      "inputs": [
        {
          "internalType": "string",
          "name": "_header",
          "type": "string"
        },
        {
          "internalType": "string",
          "name": "_slogan",
          "type": "string"
        },
        {
          "internalType": "uint256",
          "name": "_electionTitleIndex",
          "type": "uint256"
        }
      ],
      "name": "registerAsCandidate",
      "outputs": [],
      "stateMutability": "nonpayable",
      "type": "function"
    },
    {
      "inputs": [
        {
          "internalType": "string",
          "name": "_name",
          "type": "string"
        },
        {
          "internalType": "string",
          "name": "_phone",
          "type": "string"
        }
      ],
      "name": "registerAsVoter",
      "outputs": [],
      "stateMutability": "nonpayable",
      "type": "function"
    },
    {
      "inputs": [
        {
          "internalType": "string",
          "name": "_adminName",
          "type": "string"
        },
        {
          "internalType": "string",
          "name": "_adminEmail",
          "type": "string"
        },
        {
          "internalType": "string",
          "name": "_adminTitle",
          "type": "string"
        },
        {
          "internalType": "string",
          "name": "_organizationTitle",
          "type": "string"
        },
        {
          "internalType": "uint256",
          "name": "_votingStartTime",
          "type": "uint256"
        },
        {
          "internalType": "uint256",
          "name": "_votingEndTime",
          "type": "uint256"
        },
        {
          "internalType": "uint256",
          "name": "_registrationStartTime",
          "type": "uint256"
        },
        {
          "internalType": "uint256",
          "name": "_registrationEndTime",
          "type": "uint256"
        },
        {
          "internalType": "string[]",
          "name": "_elections",
          "type": "string[]"
        }
      ],
      "name": "setElectionDetails",
      "outputs": [],
      "stateMutability": "nonpayable",
      "type": "function"
    },
    {
      "inputs": [
        {
          "internalType": "bool",
          "name": "_verifedStatus",
          "type": "bool"
        },
        {
          "internalType": "address",
          "name": "candidateAddress",
          "type": "address"
        }
      ],
      "name": "verifyCandidate",
      "outputs": [],
      "stateMutability": "nonpayable",
      "type": "function"
    },
    {
      "inputs": [
        {
          "internalType": "bool",
          "name": "_verifedStatus",
          "type": "bool"
        },
        {
          "internalType": "address",
          "name": "voterAddress",
          "type": "address"
        }
      ],
      "name": "verifyVoter",
      "outputs": [],
      "stateMutability": "nonpayable",
      "type": "function"
    },
    {
      "inputs": [
        {
          "internalType": "address",
          "name": "_candidateAddress",
          "type": "address"
        },
        {
          "internalType": "uint256",
          "name": "_electionTitleIndex",
          "type": "uint256"
        }
      ],
      "name": "vote",
      "outputs": [],
      "stateMutability": "nonpayable",
      "type": "function"
    },
    {
      "inputs": [
        {
          "internalType": "address",
          "name": "",
          "type": "address"
        }
      ],
      "name": "voterDetails",
      "outputs": [
        {
          "internalType": "address",
          "name": "voterAddress",
          "type": "address"
        },
        {
          "internalType": "string",
          "name": "name",
          "type": "string"
        },
        {
          "internalType": "string",
          "name": "phone",
          "type": "string"
        },
        {
          "internalType": "bool",
          "name": "isVerified",
          "type": "bool"
        },
        {
          "internalType": "bool",
          "name": "hasVoted",
          "type": "bool"
        },
        {
          "internalType": "bool",
          "name": "isRegistered",
          "type": "bool"
        }
      ],
      "stateMutability": "view",
      "type": "function"
    },
    {
      "inputs": [
        {
          "internalType": "uint256",
          "name": "",
          "type": "uint256"
        }
      ],
      "name": "voters",
      "outputs": [
        {
          "internalType": "address",
          "name": "",
          "type": "address"
        }
      ],
      "stateMutability": "view",
      "type": "function"
    }
  ],
  "bytecode": "0x608060405234801561001057600080fd5b5033600360006101000a81548173ffffffffffffffffffffffffffffffffffffffff021916908373ffffffffffffffffffffffffffffffffffffffff1602179055506000600281905550600060018190555060008060006101000a81548160ff0219169083151502179055506000600a819055506000600b819055506000600c819055506000600d81905550613641806100ab6000396000f3fe608060405234801561001057600080fd5b50600436106102115760003560e01c806364d198a111610125578063c3a171a2116100ad578063da58c7d91161007c578063da58c7d914610686578063dd698f90146106b6578063df6d2784146106d4578063f851a440146106f2578063fee0d19a1461071057610211565b8063c3a171a214610600578063c784d2131461061c578063cad43b481461063a578063d4ecadb81461065657610211565b8063831318f1116100f4578063831318f1146105585780638e7ea5b214610576578063aed9301014610594578063b1bf87b0146105c4578063be081b6f146105e257610211565b806364d198a1146104ce5780636a82ee51146104ec5780636e9960c31461050a5780637d6605351461052857610211565b80633f66f48b116101a85780634c652fc6116101775780634c652fc614610415578063506b8e0a146104315780635938750d1461044d5780635f74bbde146104825780635fcdd8a11461049e57610211565b80633f66f48b1461036757806341217ed51461039757806345543878146103c757806348343175146103f757610211565b806315811029116101e457806315811029146102a757806319c5c507146102d757806324785b9e146103075780633477ee2e1461033757610211565b806305e73ced146102165780630712aa051461024d5780630b93400e1461026b5780630e2354cf14610289575b600080fd5b610230600480360381019061022b9190612785565b61072c565b60405161024498979695949392919061288e565b60405180910390f35b6102556108be565b6040516102629190612a26565b60405180910390f35b610273610a10565b6040516102809190612a48565b60405180910390f35b610291610a1a565b60405161029e9190612a63565b60405180910390f35b6102c160048036038101906102bc9190612ab1565b610aaf565b6040516102ce9190612c84565b60405180910390f35b6102f160048036038101906102ec9190612ab1565b610efa565b6040516102fe9190612ca6565b60405180910390f35b610321600480360381019061031c9190612ab1565b610f2d565b60405161032e9190612ca6565b60405180910390f35b610351600480360381019061034c9190612ab1565b610f60565b60405161035e9190612cc1565b60405180910390f35b610381600480360381019061037c9190612ab1565b610f9f565b60405161038e9190612cc1565b60405180910390f35b6103b160048036038101906103ac9190612ab1565b610fde565b6040516103be9190612a48565b60405180910390f35b6103e160048036038101906103dc9190612ab1565b6110a9565b6040516103ee9190612ca6565b60405180910390f35b6103ff61119c565b60405161040c9190612a63565b60405180910390f35b61042f600480360381019061042a9190612e11565b611231565b005b61044b60048036038101906104469190612ec8565b6114bd565b005b61046760048036038101906104629190612785565b6115d8565b60405161047996959493929190612f08565b60405180910390f35b61049c60048036038101906104979190612f77565b61176b565b005b6104b860048036038101906104b39190612785565b611a97565b6040516104c59190612ca6565b60405180910390f35b6104d6611b46565b6040516104e39190612a48565b60405180910390f35b6104f4611b50565b6040516105019190612a48565b60405180910390f35b610512611b5a565b60405161051f9190612cc1565b60405180910390f35b610542600480360381019061053d9190612785565b611b84565b60405161054f9190612ca6565b60405180910390f35b610560611c33565b60405161056d9190612a63565b60405180910390f35b61057e611cc8565b60405161058b9190612cc1565b60405180910390f35b6105ae60048036038101906105a99190612ab1565b611d98565b6040516105bb9190612cc1565b60405180910390f35b6105cc611dd7565b6040516105d99190612a48565b60405180910390f35b6105ea611de1565b6040516105f79190612a63565b60405180910390f35b61061a6004803603810190610615919061309d565b611e76565b005b6106246120c3565b6040516106319190612a48565b60405180910390f35b610654600480360381019061064f9190612ec8565b6120cd565b005b610670600480360381019061066b9190612ab1565b6121e8565b60405161067d9190612ca6565b60405180910390f35b6106a0600480360381019061069b9190612ab1565b61221a565b6040516106ad9190612cc1565b60405180910390f35b6106be612259565b6040516106cb9190612ca6565b60405180910390f35b6106dc61226f565b6040516106e99190612a48565b60405180910390f35b6106fa612279565b6040516107079190612cc1565b60405180910390f35b61072a600480360381019061072591906131f3565b61229f565b005b60096020528060005260406000206000915090508060000154908060010160009054906101000a900473ffffffffffffffffffffffffffffffffffffffff169080600201805461077b9061329a565b80601f01602080910402602001604051908101604052809291908181526020018280546107a79061329a565b80156107f45780601f106107c9576101008083540402835291602001916107f4565b820191906000526020600020905b8154815290600101906020018083116107d757829003601f168201915b5050505050908060030180546108099061329a565b80601f01602080910402602001604051908101604052809291908181526020018280546108359061329a565b80156108825780601f1061085757610100808354040283529160200191610882565b820191906000526020600020905b81548152906001019060200180831161086557829003601f168201915b5050505050908060040154908060050154908060060160009054906101000a900460ff16908060060160019054906101000a900460ff16905088565b60606000600e6008018054905067ffffffffffffffff8111156108e4576108e3612ce6565b5b60405190808252806020026020018201604052801561091757816020015b60608152602001906001900390816109025790505b50905060005b600e60080180549050811015610a0857600e6008018181548110610944576109436132cc565b5b9060005260206000200180546109599061329a565b80601f01602080910402602001604051908101604052809291908181526020018280546109859061329a565b80156109d25780601f106109a7576101008083540402835291602001916109d2565b820191906000526020600020905b8154815290600101906020018083116109b557829003601f168201915b50505050508282815181106109ea576109e96132cc565b5b60200260200101819052508080610a009061332a565b91505061091d565b508091505090565b6000600154905090565b6060600e6000018054610a2c9061329a565b80601f0160208091040260200160405190810160405280929190818152602001828054610a589061329a565b8015610aa55780601f10610a7a57610100808354040283529160200191610aa5565b820191906000526020600020905b815481529060010190602001808311610a8857829003601f168201915b5050505050905090565b6060600060078054905067ffffffffffffffff811115610ad257610ad1612ce6565b5b604051908082528060200260200182016040528015610b0b57816020015b610af8612500565b815260200190600190039081610af05790505b5090506000805b600780549050811015610e3e57846009600060078481548110610b3857610b376132cc565b5b9060005260206000200160009054906101000a900473ffffffffffffffffffffffffffffffffffffffff1673ffffffffffffffffffffffffffffffffffffffff1673ffffffffffffffffffffffffffffffffffffffff168152602001908152602001600020600401541415610e2b576009600060078381548110610bbf57610bbe6132cc565b5b9060005260206000200160009054906101000a900473ffffffffffffffffffffffffffffffffffffffff1673ffffffffffffffffffffffffffffffffffffffff1673ffffffffffffffffffffffffffffffffffffffff16815260200190815260200160002060405180610100016040529081600082015481526020016001820160009054906101000a900473ffffffffffffffffffffffffffffffffffffffff1673ffffffffffffffffffffffffffffffffffffffff1673ffffffffffffffffffffffffffffffffffffffff168152602001600282018054610ca09061329a565b80601f0160208091040260200160405190810160405280929190818152602001828054610ccc9061329a565b8015610d195780601f10610cee57610100808354040283529160200191610d19565b820191906000526020600020905b815481529060010190602001808311610cfc57829003601f168201915b50505050508152602001600382018054610d329061329a565b80601f0160208091040260200160405190810160405280929190818152602001828054610d5e9061329a565b8015610dab5780601f10610d8057610100808354040283529160200191610dab565b820191906000526020600020905b815481529060010190602001808311610d8e57829003601f168201915b5050505050815260200160048201548152602001600582015481526020016006820160009054906101000a900460ff161515151581526020016006820160019054906101000a900460ff161515151581525050838381518110610e1157610e106132cc565b5b60200260200101819052508180610e279061332a565b9250505b8080610e369061332a565b915050610b12565b5060008167ffffffffffffffff811115610e5b57610e5a612ce6565b5b604051908082528060200260200182016040528015610e9457816020015b610e81612500565b815260200190600190039081610e795790505b50905060005b82811015610eee57838181518110610eb557610eb46132cc565b5b6020026020010151828281518110610ed057610ecf6132cc565b5b60200260200101819052508080610ee69061332a565b915050610e9a565b50809350505050919050565b600080600a548310158015610f115750600b548311155b15610f1f5760019050610f24565b600090505b80915050919050565b600080600c548310158015610f445750600d548311155b15610f525760019050610f57565b600090505b80915050919050565b60058181548110610f7057600080fd5b906000526020600020016000915054906101000a900473ffffffffffffffffffffffffffffffffffffffff1681565b60078181548110610faf57600080fd5b906000526020600020016000915054906101000a900473ffffffffffffffffffffffffffffffffffffffff1681565b6000806000905060005b60078054905081101561109f5783600960006007848154811061100e5761100d6132cc565b5b9060005260206000200160009054906101000a900473ffffffffffffffffffffffffffffffffffffffff1673ffffffffffffffffffffffffffffffffffffffff1673ffffffffffffffffffffffffffffffffffffffff16815260200190815260200160002060040154141561108c5781806110889061332a565b9250505b80806110979061332a565b915050610fe8565b5080915050919050565b60008060009050600080600e60080180549050905060018114156111835760005b600780549050811015611181578560096000600784815481106110f0576110ef6132cc565b5b9060005260206000200160009054906101000a900473ffffffffffffffffffffffffffffffffffffffff1673ffffffffffffffffffffffffffffffffffffffff1673ffffffffffffffffffffffffffffffffffffffff16815260200190815260200160002060040154141561116e57828061116a9061332a565b9350505b80806111799061332a565b9150506110ca565b505b600182141561119157600192505b829350505050919050565b6060600e60030180546111ae9061329a565b80601f01602080910402602001604051908101604052809291908181526020018280546111da9061329a565b80156112275780601f106111fc57610100808354040283529160200191611227565b820191906000526020600020905b81548152906001019060200180831161120a57829003601f168201915b5050505050905090565b600a54421015611276576040517f08c379a000000000000000000000000000000000000000000000000000000000815260040161126d906133bf565b60405180910390fd5b600b544211156112bb576040517f08c379a00000000000000000000000000000000000000000000000000000000081526004016112b29061342b565b60405180910390fd5b600060405180610100016040528060025481526020013373ffffffffffffffffffffffffffffffffffffffff1681526020018581526020018481526020018381526020016000815260200160001515815260200160011515815250905080600960003373ffffffffffffffffffffffffffffffffffffffff1673ffffffffffffffffffffffffffffffffffffffff1681526020019081526020016000206000820151816000015560208201518160010160006101000a81548173ffffffffffffffffffffffffffffffffffffffff021916908373ffffffffffffffffffffffffffffffffffffffff16021790555060408201518160020190805190602001906113c592919061255f565b5060608201518160030190805190602001906113e292919061255f565b506080820151816004015560a0820151816005015560c08201518160060160006101000a81548160ff02191690831515021790555060e08201518160060160016101000a81548160ff0219169083151502179055509050506005339080600181540180825580915050600190039060005260206000200160009091909190916101000a81548173ffffffffffffffffffffffffffffffffffffffff021916908373ffffffffffffffffffffffffffffffffffffffff1602179055506001600260008282546114b0919061344b565b9250508190555050505050565b600360009054906101000a900473ffffffffffffffffffffffffffffffffffffffff1673ffffffffffffffffffffffffffffffffffffffff163373ffffffffffffffffffffffffffffffffffffffff161461151757600080fd5b81600860008373ffffffffffffffffffffffffffffffffffffffff1673ffffffffffffffffffffffffffffffffffffffff16815260200190815260200160002060030160006101000a81548160ff0219169083151502179055506006819080600181540180825580915050600190039060005260206000200160009091909190916101000a81548173ffffffffffffffffffffffffffffffffffffffff021916908373ffffffffffffffffffffffffffffffffffffffff1602179055505050565b60086020528060005260406000206000915090508060000160009054906101000a900473ffffffffffffffffffffffffffffffffffffffff16908060010180546116219061329a565b80601f016020809104026020016040519081016040528092919081815260200182805461164d9061329a565b801561169a5780601f1061166f5761010080835404028352916020019161169a565b820191906000526020600020905b81548152906001019060200180831161167d57829003601f168201915b5050505050908060020180546116af9061329a565b80601f01602080910402602001604051908101604052809291908181526020018280546116db9061329a565b80156117285780601f106116fd57610100808354040283529160200191611728565b820191906000526020600020905b81548152906001019060200180831161170b57829003601f168201915b5050505050908060030160009054906101000a900460ff16908060030160019054906101000a900460ff16908060030160029054906101000a900460ff16905086565b600c544210156117b0576040517f08c379a00000000000000000000000000000000000000000000000000000000081526004016117a7906134ed565b60405180910390fd5b600d544211156117f5576040517f08c379a00000000000000000000000000000000000000000000000000000000081526004016117ec90613559565b60405180910390fd5b600080600090505b600860003373ffffffffffffffffffffffffffffffffffffffff1673ffffffffffffffffffffffffffffffffffffffff168152602001908152602001600020600401805490508110156118cc5782600860003373ffffffffffffffffffffffffffffffffffffffff1673ffffffffffffffffffffffffffffffffffffffff168152602001908152602001600020600401828154811061189f5761189e6132cc565b5b906000526020600020015414156118b957600191506118cc565b80806118c49061332a565b9150506117fd565b506000151581151514611914576040517f08c379a000000000000000000000000000000000000000000000000000000000815260040161190b906135eb565b60405180910390fd5b60011515600860003373ffffffffffffffffffffffffffffffffffffffff1673ffffffffffffffffffffffffffffffffffffffff16815260200190815260200160002060030160009054906101000a900460ff1615151461197457600080fd5b6001600960008573ffffffffffffffffffffffffffffffffffffffff1673ffffffffffffffffffffffffffffffffffffffff16815260200190815260200160002060050160008282546119c7919061344b565b925050819055506001600860003373ffffffffffffffffffffffffffffffffffffffff1673ffffffffffffffffffffffffffffffffffffffff16815260200190815260200160002060030160016101000a81548160ff021916908315150217905550600860003373ffffffffffffffffffffffffffffffffffffffff1673ffffffffffffffffffffffffffffffffffffffff168152602001908152602001600020600401829080600181540180825580915050600190039060005260206000200160009091909190915055505050565b6000806000905060005b600680549050811015611b3c5760068181548110611ac257611ac16132cc565b5b9060005260206000200160009054906101000a900473ffffffffffffffffffffffffffffffffffffffff1673ffffffffffffffffffffffffffffffffffffffff168473ffffffffffffffffffffffffffffffffffffffff161415611b295760019150611b3c565b8080611b349061332a565b915050611aa1565b5080915050919050565b6000600254905090565b6000600c54905090565b6000600360009054906101000a900473ffffffffffffffffffffffffffffffffffffffff16905090565b6000806000905060005b600580549050811015611c295760058181548110611baf57611bae6132cc565b5b9060005260206000200160009054906101000a900473ffffffffffffffffffffffffffffffffffffffff1673ffffffffffffffffffffffffffffffffffffffff168473ffffffffffffffffffffffffffffffffffffffff161415611c165760019150611c29565b8080611c219061332a565b915050611b8e565b5080915050919050565b6060600e6001018054611c459061329a565b80601f0160208091040260200160405190810160405280929190818152602001828054611c719061329a565b8015611cbe5780601f10611c9357610100808354040283529160200191611cbe565b820191906000526020600020905b815481529060010190602001808311611ca157829003601f168201915b5050505050905090565b60008060009050600080600090505b600254811015611d8f57600060078281548110611cf757611cf66132cc565b5b9060005260206000200160009054906101000a900473ffffffffffffffffffffffffffffffffffffffff1690506000600960008373ffffffffffffffffffffffffffffffffffffffff1673ffffffffffffffffffffffffffffffffffffffff16815260200190815260200160002060050154905084811115611d7a578094508193505b50508080611d879061332a565b915050611cd7565b50809250505090565b60068181548110611da857600080fd5b906000526020600020016000915054906101000a900473ffffffffffffffffffffffffffffffffffffffff1681565b6000600d54905090565b6060600e6002018054611df39061329a565b80601f0160208091040260200160405190810160405280929190818152602001828054611e1f9061329a565b8015611e6c5780601f10611e4157610100808354040283529160200191611e6c565b820191906000526020600020905b815481529060010190602001808311611e4f57829003601f168201915b5050505050905090565b600360009054906101000a900473ffffffffffffffffffffffffffffffffffffffff1673ffffffffffffffffffffffffffffffffffffffff163373ffffffffffffffffffffffffffffffffffffffff1614611ed057600080fd5b6000815167ffffffffffffffff811115611eed57611eec612ce6565b5b604051908082528060200260200182016040528015611f2057816020015b6060815260200190600190039081611f0b5790505b50905060005b8251811015611f7b57828181518110611f4257611f416132cc565b5b6020026020010151828281518110611f5d57611f5c6132cc565b5b60200260200101819052508080611f739061332a565b915050611f26565b5060006040518061012001604052808c81526020018b81526020018a815260200189815260200188815260200187815260200186815260200185815260200183815250905080600e6000820151816000019080519060200190611fdf92919061255f565b506020820151816001019080519060200190611ffc92919061255f565b50604082015181600201908051906020019061201992919061255f565b50606082015181600301908051906020019061203692919061255f565b506080820151816004015560a0820151816005015560c0820151816006015560e0820151816007015561010082015181600801908051906020019061207c9291906125e5565b5090505060016000806101000a81548160ff02191690831515021790555084600a8190555083600b8190555086600c8190555085600d819055505050505050505050505050565b6000600b54905090565b600360009054906101000a900473ffffffffffffffffffffffffffffffffffffffff1673ffffffffffffffffffffffffffffffffffffffff163373ffffffffffffffffffffffffffffffffffffffff161461212757600080fd5b81600960008373ffffffffffffffffffffffffffffffffffffffff1673ffffffffffffffffffffffffffffffffffffffff16815260200190815260200160002060060160006101000a81548160ff0219169083151502179055506007819080600181540180825580915050600190039060005260206000200160009091909190916101000a81548173ffffffffffffffffffffffffffffffffffffffff021916908373ffffffffffffffffffffffffffffffffffffffff1602179055505050565b6000806000905060008054906101000a900460ff161561221157600d54831061221057600190505b5b80915050919050565b6004818154811061222a57600080fd5b906000526020600020016000915054906101000a900473ffffffffffffffffffffffffffffffffffffffff1681565b60008060009054906101000a900460ff16905090565b6000600a54905090565b600360009054906101000a900473ffffffffffffffffffffffffffffffffffffffff1681565b60006040518060e001604052803373ffffffffffffffffffffffffffffffffffffffff168152602001848152602001838152602001600015158152602001600015158152602001600115158152602001600067ffffffffffffffff81111561230a57612309612ce6565b5b6040519080825280602002602001820160405280156123385781602001602082028036833780820191505090505b50815250905080600860003373ffffffffffffffffffffffffffffffffffffffff1673ffffffffffffffffffffffffffffffffffffffff16815260200190815260200160002060008201518160000160006101000a81548173ffffffffffffffffffffffffffffffffffffffff021916908373ffffffffffffffffffffffffffffffffffffffff16021790555060208201518160010190805190602001906123e192919061255f565b5060408201518160020190805190602001906123fe92919061255f565b5060608201518160030160006101000a81548160ff02191690831515021790555060808201518160030160016101000a81548160ff02191690831515021790555060a08201518160030160026101000a81548160ff02191690831515021790555060c082015181600401908051906020019061247b929190612645565b509050506004339080600181540180825580915050600190039060005260206000200160009091909190916101000a81548173ffffffffffffffffffffffffffffffffffffffff021916908373ffffffffffffffffffffffffffffffffffffffff16021790555060018060008282546124f4919061344b565b92505081905550505050565b60405180610100016040528060008152602001600073ffffffffffffffffffffffffffffffffffffffff168152602001606081526020016060815260200160008152602001600081526020016000151581526020016000151581525090565b82805461256b9061329a565b90600052602060002090601f01602090048101928261258d57600085556125d4565b82601f106125a657805160ff19168380011785556125d4565b828001600101855582156125d4579182015b828111156125d35782518255916020019190600101906125b8565b5b5090506125e19190612692565b5090565b828054828255906000526020600020908101928215612634579160200282015b8281111561263357825182908051906020019061262392919061255f565b5091602001919060010190612605565b5b50905061264191906126af565b5090565b828054828255906000526020600020908101928215612681579160200282015b82811115612680578251825591602001919060010190612665565b5b50905061268e9190612692565b5090565b5b808211156126ab576000816000905550600101612693565b5090565b5b808211156126cf57600081816126c691906126d3565b506001016126b0565b5090565b5080546126df9061329a565b6000825580601f106126f15750612710565b601f01602090049060005260206000209081019061270f9190612692565b5b50565b6000604051905090565b600080fd5b600080fd5b600073ffffffffffffffffffffffffffffffffffffffff82169050919050565b600061275282612727565b9050919050565b61276281612747565b811461276d57600080fd5b50565b60008135905061277f81612759565b92915050565b60006020828403121561279b5761279a61271d565b5b60006127a984828501612770565b91505092915050565b6000819050919050565b6127c5816127b2565b82525050565b6127d481612747565b82525050565b600081519050919050565b600082825260208201905092915050565b60005b838110156128145780820151818401526020810190506127f9565b83811115612823576000848401525b50505050565b6000601f19601f8301169050919050565b6000612845826127da565b61284f81856127e5565b935061285f8185602086016127f6565b61286881612829565b840191505092915050565b60008115159050919050565b61288881612873565b82525050565b6000610100820190506128a4600083018b6127bc565b6128b1602083018a6127cb565b81810360408301526128c3818961283a565b905081810360608301526128d7818861283a565b90506128e660808301876127bc565b6128f360a08301866127bc565b61290060c083018561287f565b61290d60e083018461287f565b9998505050505050505050565b600081519050919050565b600082825260208201905092915050565b6000819050602082019050919050565b600082825260208201905092915050565b6000612962826127da565b61296c8185612946565b935061297c8185602086016127f6565b61298581612829565b840191505092915050565b600061299c8383612957565b905092915050565b6000602082019050919050565b60006129bc8261291a565b6129c68185612925565b9350836020820285016129d885612936565b8060005b85811015612a1457848403895281516129f58582612990565b9450612a00836129a4565b925060208a019950506001810190506129dc565b50829750879550505050505092915050565b60006020820190508181036000830152612a4081846129b1565b905092915050565b6000602082019050612a5d60008301846127bc565b92915050565b60006020820190508181036000830152612a7d818461283a565b905092915050565b612a8e816127b2565b8114612a9957600080fd5b50565b600081359050612aab81612a85565b92915050565b600060208284031215612ac757612ac661271d565b5b6000612ad584828501612a9c565b91505092915050565b600081519050919050565b600082825260208201905092915050565b6000819050602082019050919050565b612b13816127b2565b82525050565b612b2281612747565b82525050565b612b3181612873565b82525050565b600061010083016000830151612b506000860182612b0a565b506020830151612b636020860182612b19565b5060408301518482036040860152612b7b8282612957565b91505060608301518482036060860152612b958282612957565b9150506080830151612baa6080860182612b0a565b5060a0830151612bbd60a0860182612b0a565b5060c0830151612bd060c0860182612b28565b5060e0830151612be360e0860182612b28565b508091505092915050565b6000612bfa8383612b37565b905092915050565b6000602082019050919050565b6000612c1a82612ade565b612c248185612ae9565b935083602082028501612c3685612afa565b8060005b85811015612c725784840389528151612c538582612bee565b9450612c5e83612c02565b925060208a01995050600181019050612c3a565b50829750879550505050505092915050565b60006020820190508181036000830152612c9e8184612c0f565b905092915050565b6000602082019050612cbb600083018461287f565b92915050565b6000602082019050612cd660008301846127cb565b92915050565b600080fd5b600080fd5b7f4e487b7100000000000000000000000000000000000000000000000000000000600052604160045260246000fd5b612d1e82612829565b810181811067ffffffffffffffff82111715612d3d57612d3c612ce6565b5b80604052505050565b6000612d50612713565b9050612d5c8282612d15565b919050565b600067ffffffffffffffff821115612d7c57612d7b612ce6565b5b612d8582612829565b9050602081019050919050565b82818337600083830152505050565b6000612db4612daf84612d61565b612d46565b905082815260208101848484011115612dd057612dcf612ce1565b5b612ddb848285612d92565b509392505050565b600082601f830112612df857612df7612cdc565b5b8135612e08848260208601612da1565b91505092915050565b600080600060608486031215612e2a57612e2961271d565b5b600084013567ffffffffffffffff811115612e4857612e47612722565b5b612e5486828701612de3565b935050602084013567ffffffffffffffff811115612e7557612e74612722565b5b612e8186828701612de3565b9250506040612e9286828701612a9c565b9150509250925092565b612ea581612873565b8114612eb057600080fd5b50565b600081359050612ec281612e9c565b92915050565b60008060408385031215612edf57612ede61271d565b5b6000612eed85828601612eb3565b9250506020612efe85828601612770565b9150509250929050565b600060c082019050612f1d60008301896127cb565b8181036020830152612f2f818861283a565b90508181036040830152612f43818761283a565b9050612f52606083018661287f565b612f5f608083018561287f565b612f6c60a083018461287f565b979650505050505050565b60008060408385031215612f8e57612f8d61271d565b5b6000612f9c85828601612770565b9250506020612fad85828601612a9c565b9150509250929050565b600067ffffffffffffffff821115612fd257612fd1612ce6565b5b602082029050602081019050919050565b600080fd5b6000612ffb612ff684612fb7565b612d46565b9050808382526020820190506020840283018581111561301e5761301d612fe3565b5b835b8181101561306557803567ffffffffffffffff81111561304357613042612cdc565b5b8086016130508982612de3565b85526020850194505050602081019050613020565b5050509392505050565b600082601f83011261308457613083612cdc565b5b8135613094848260208601612fe8565b91505092915050565b60008060008060008060008060006101208a8c0312156130c0576130bf61271d565b5b60008a013567ffffffffffffffff8111156130de576130dd612722565b5b6130ea8c828d01612de3565b99505060208a013567ffffffffffffffff81111561310b5761310a612722565b5b6131178c828d01612de3565b98505060408a013567ffffffffffffffff81111561313857613137612722565b5b6131448c828d01612de3565b97505060608a013567ffffffffffffffff81111561316557613164612722565b5b6131718c828d01612de3565b96505060806131828c828d01612a9c565b95505060a06131938c828d01612a9c565b94505060c06131a48c828d01612a9c565b93505060e06131b58c828d01612a9c565b9250506101008a013567ffffffffffffffff8111156131d7576131d6612722565b5b6131e38c828d0161306f565b9150509295985092959850929598565b6000806040838503121561320a5761320961271d565b5b600083013567ffffffffffffffff81111561322857613227612722565b5b61323485828601612de3565b925050602083013567ffffffffffffffff81111561325557613254612722565b5b61326185828601612de3565b9150509250929050565b7f4e487b7100000000000000000000000000000000000000000000000000000000600052602260045260246000fd5b600060028204905060018216806132b257607f821691505b602082108114156132c6576132c561326b565b5b50919050565b7f4e487b7100000000000000000000000000000000000000000000000000000000600052603260045260246000fd5b7f4e487b7100000000000000000000000000000000000000000000000000000000600052601160045260246000fd5b6000613335826127b2565b91507fffffffffffffffffffffffffffffffffffffffffffffffffffffffffffffffff821415613368576133676132fb565b5b600182019050919050565b7f526567697374726174696f6e206973206e6f7420737461727465642079657400600082015250565b60006133a9601f836127e5565b91506133b482613373565b602082019050919050565b600060208201905081810360008301526133d88161339c565b9050919050565b7f526567697374726174696f6e20697320616c726561647920656e6465642e0000600082015250565b6000613415601e836127e5565b9150613420826133df565b602082019050919050565b6000602082019050818103600083015261344481613408565b9050919050565b6000613456826127b2565b9150613461836127b2565b9250827fffffffffffffffffffffffffffffffffffffffffffffffffffffffffffffffff03821115613496576134956132fb565b5b828201905092915050565b7f566f74696e67206973206e6f7420737461727465642079657400000000000000600082015250565b60006134d76019836127e5565b91506134e2826134a1565b602082019050919050565b60006020820190508181036000830152613506816134ca565b9050919050565b7f566f74696e6720697320616c726561647920656e646564000000000000000000600082015250565b60006135436017836127e5565b915061354e8261350d565b602082019050919050565b6000602082019050818103600083015261357281613536565b9050919050565b7f596f75206861766520616c726561647920766f74656420746f20656c6563746960008201527f6f6e207469746c65000000000000000000000000000000000000000000000000602082015250565b60006135d56028836127e5565b91506135e082613579565b604082019050919050565b60006020820190508181036000830152613604816135c8565b905091905056fea2646970667358221220de1b77066766e00f5761a662f5f4b3546e092b7607f8000ccc396a98d177c1e464736f6c634300080b0033",
  "linkReferences": {},
  "deployedLinkReferences": {}
}