{
  "_format": "hh-sol-artifact-1",
  "contractName": "Election",
  "sourceName": "contracts/Election.sol",
  "abi": [
    {
      "inputs": [],
      "stateMutability": "nonpayable",
      "type": "constructor"
    },
    {
      "inputs": [],
      "name": "admin",
      "outputs": [
        {
          "internalType": "address",
          "name": "",
          "type": "address"
        }
      ],
      "stateMutability": "view",
      "type": "function"
    },
    {
      "inputs": [
        {
          "internalType": "uint256",
          "name": "",
          "type": "uint256"
        }
      ],
      "name": "approvedCandidates",
      "outputs": [
        {
          "internalType": "address",
          "name": "",
          "type": "address"
        }
      ],
      "stateMutability": "view",
      "type": "function"
    },
    {
      "inputs": [
        {
          "internalType": "uint256",
          "name": "",
          "type": "uint256"
        }
      ],
      "name": "approvedVoters",
      "outputs": [
        {
          "internalType": "address",
          "name": "",
          "type": "address"
        }
      ],
      "stateMutability": "view",
      "type": "function"
    },
    {
      "inputs": [
        {
          "internalType": "address",
          "name": "",
          "type": "address"
        }
      ],
      "name": "candidateDetails",
      "outputs": [
        {
          "internalType": "uint8",
          "name": "candidateId",
          "type": "uint8"
        },
        {
          "internalType": "address",
          "name": "candidateAddress",
          "type": "address"
        },
        {
          "internalType": "string",
          "name": "header",
          "type": "string"
        },
        {
          "internalType": "string",
          "name": "slogan",
          "type": "string"
        },
        {
          "internalType": "uint256",
          "name": "electionTitleIndex",
          "type": "uint256"
        },
        {
          "internalType": "uint256",
          "name": "voteCount",
          "type": "uint256"
        },
        {
          "internalType": "bool",
          "name": "isVerified",
          "type": "bool"
        },
        {
          "internalType": "bool",
          "name": "isRegistered",
          "type": "bool"
        }
      ],
      "stateMutability": "view",
      "type": "function"
    },
    {
      "inputs": [
        {
          "internalType": "uint256",
          "name": "",
          "type": "uint256"
        }
      ],
      "name": "candidates",
      "outputs": [
        {
          "internalType": "address",
          "name": "",
          "type": "address"
        }
      ],
      "stateMutability": "view",
      "type": "function"
    },
    {
      "inputs": [],
      "name": "electionResultShowFeatureToPublicStatus",
      "outputs": [
        {
          "internalType": "bool",
          "name": "",
          "type": "bool"
        }
      ],
      "stateMutability": "view",
      "type": "function"
    },
    {
      "inputs": [],
      "name": "getAdmin",
      "outputs": [
        {
          "internalType": "address",
          "name": "",
          "type": "address"
        }
      ],
      "stateMutability": "view",
      "type": "function"
    },
    {
      "inputs": [],
      "name": "getAdminEmail",
      "outputs": [
        {
          "internalType": "string",
          "name": "",
          "type": "string"
        }
      ],
      "stateMutability": "view",
      "type": "function"
    },
    {
      "inputs": [],
      "name": "getAdminName",
      "outputs": [
        {
          "internalType": "string",
          "name": "",
          "type": "string"
        }
      ],
      "stateMutability": "view",
      "type": "function"
    },
    {
      "inputs": [],
      "name": "getAdminTitle",
      "outputs": [
        {
          "internalType": "string",
          "name": "",
          "type": "string"
        }
      ],
      "stateMutability": "view",
      "type": "function"
    },
    {
      "inputs": [
        {
          "internalType": "address",
          "name": "_currentAddress",
          "type": "address"
        }
      ],
      "name": "getAlreadyRegisteredCandidateStatus",
      "outputs": [
        {
          "internalType": "bool",
          "name": "",
          "type": "bool"
        }
      ],
      "stateMutability": "view",
      "type": "function"
    },
    {
      "inputs": [
        {
          "internalType": "uint8",
          "name": "_electionTitleIndex",
          "type": "uint8"
        }
      ],
      "name": "getCandidateCountForAsscociatedElection",
      "outputs": [
        {
          "internalType": "uint8",
          "name": "",
          "type": "uint8"
        }
      ],
      "stateMutability": "view",
      "type": "function"
    },
    {
      "inputs": [
        {
          "internalType": "uint8",
          "name": "_electionTitleIndex",
          "type": "uint8"
        }
      ],
      "name": "getCandidatesForAssociatedElections",
      "outputs": [
        {
          "components": [
            {
              "internalType": "uint8",
              "name": "candidateId",
              "type": "uint8"
            },
            {
              "internalType": "address",
              "name": "candidateAddress",
              "type": "address"
            },
            {
              "internalType": "string",
              "name": "header",
              "type": "string"
            },
            {
              "internalType": "string",
              "name": "slogan",
              "type": "string"
            },
            {
              "internalType": "uint256",
              "name": "electionTitleIndex",
              "type": "uint256"
            },
            {
              "internalType": "uint256",
              "name": "voteCount",
              "type": "uint256"
            },
            {
              "internalType": "bool",
              "name": "isVerified",
              "type": "bool"
            },
            {
              "internalType": "bool",
              "name": "isRegistered",
              "type": "bool"
            }
          ],
          "internalType": "struct Election.Candidate[]",
          "name": "",
          "type": "tuple[]"
        }
      ],
      "stateMutability": "view",
      "type": "function"
    },
    {
      "inputs": [
        {
          "internalType": "uint256",
          "name": "_timeStamp",
          "type": "uint256"
        }
      ],
      "name": "getElectionEndedStatus",
      "outputs": [
        {
          "internalType": "bool",
          "name": "",
          "type": "bool"
        }
      ],
      "stateMutability": "view",
      "type": "function"
    },
    {
      "inputs": [],
      "name": "getElectionInitStatus",
      "outputs": [
        {
          "internalType": "bool",
          "name": "",
          "type": "bool"
        }
      ],
      "stateMutability": "view",
      "type": "function"
    },
    {
      "inputs": [],
      "name": "getElectionSlogans",
      "outputs": [
        {
          "internalType": "string[]",
          "name": "",
          "type": "string[]"
        }
      ],
      "stateMutability": "view",
      "type": "function"
    },
    {
      "inputs": [
        {
          "internalType": "uint256",
          "name": "_timeStamp",
          "type": "uint256"
        }
      ],
      "name": "getElectionStatus",
      "outputs": [
        {
          "internalType": "bool",
          "name": "",
          "type": "bool"
        }
      ],
      "stateMutability": "view",
      "type": "function"
    },
    {
      "inputs": [],
      "name": "getElectionTitles",
      "outputs": [
        {
          "internalType": "string[]",
          "name": "",
          "type": "string[]"
        }
      ],
      "stateMutability": "view",
      "type": "function"
    },
    {
      "inputs": [],
      "name": "getOrganizationTitle",
      "outputs": [
        {
          "internalType": "string",
          "name": "",
          "type": "string"
        }
      ],
      "stateMutability": "view",
      "type": "function"
    },
    {
      "inputs": [],
      "name": "getRegistrationEndTime",
      "outputs": [
        {
          "internalType": "uint256",
          "name": "",
          "type": "uint256"
        }
      ],
      "stateMutability": "view",
      "type": "function"
    },
    {
      "inputs": [
        {
          "internalType": "uint256",
          "name": "_timeStamp",
          "type": "uint256"
        }
      ],
      "name": "getRegistrationEndedStatus",
      "outputs": [
        {
          "internalType": "bool",
          "name": "",
          "type": "bool"
        }
      ],
      "stateMutability": "view",
      "type": "function"
    },
    {
      "inputs": [],
      "name": "getRegistrationStartTime",
      "outputs": [
        {
          "internalType": "uint256",
          "name": "",
          "type": "uint256"
        }
      ],
      "stateMutability": "view",
      "type": "function"
    },
    {
      "inputs": [
        {
          "internalType": "uint256",
          "name": "_timeStamp",
          "type": "uint256"
        }
      ],
      "name": "getRegistrationStartedStatus",
      "outputs": [
        {
          "internalType": "bool",
          "name": "",
          "type": "bool"
        }
      ],
      "stateMutability": "view",
      "type": "function"
    },
    {
      "inputs": [
        {
          "internalType": "uint256",
          "name": "_timeStamp",
          "type": "uint256"
        }
      ],
      "name": "getRegistrationStatus",
      "outputs": [
        {
          "internalType": "bool",
          "name": "",
          "type": "bool"
        }
      ],
      "stateMutability": "view",
      "type": "function"
    },
    {
      "inputs": [],
      "name": "getRejectedCandidates",
      "outputs": [
        {
          "internalType": "uint256",
          "name": "",
          "type": "uint256"
        }
      ],
      "stateMutability": "view",
      "type": "function"
    },
    {
      "inputs": [],
      "name": "getRejectedVoters",
      "outputs": [
        {
          "internalType": "uint256",
          "name": "",
          "type": "uint256"
        }
      ],
      "stateMutability": "view",
      "type": "function"
    },
    {
      "inputs": [],
      "name": "getUnVerifiedCandidates",
      "outputs": [
        {
          "internalType": "uint256",
          "name": "",
          "type": "uint256"
        }
      ],
      "stateMutability": "view",
      "type": "function"
    },
    {
      "inputs": [],
      "name": "getUnVerifiedVoters",
      "outputs": [
        {
          "internalType": "uint256",
          "name": "",
          "type": "uint256"
        }
      ],
      "stateMutability": "view",
      "type": "function"
    },
    {
      "inputs": [],
      "name": "getVerifiedCandidates",
      "outputs": [
        {
          "internalType": "uint256",
          "name": "",
          "type": "uint256"
        }
      ],
      "stateMutability": "view",
      "type": "function"
    },
    {
      "inputs": [],
      "name": "getVerifiedVoters",
      "outputs": [
        {
          "internalType": "uint256",
          "name": "",
          "type": "uint256"
        }
      ],
      "stateMutability": "view",
      "type": "function"
    },
    {
      "inputs": [],
      "name": "getVoterElectionTitles",
      "outputs": [
        {
          "internalType": "uint8[]",
          "name": "",
          "type": "uint8[]"
        }
      ],
      "stateMutability": "view",
      "type": "function"
    },
    {
      "inputs": [
        {
          "internalType": "address",
          "name": "_currentAddress",
          "type": "address"
        }
      ],
      "name": "getVoterStatusForCandidate",
      "outputs": [
        {
          "internalType": "bool",
          "name": "",
          "type": "bool"
        }
      ],
      "stateMutability": "view",
      "type": "function"
    },
    {
      "inputs": [],
      "name": "getVotingEndTime",
      "outputs": [
        {
          "internalType": "uint256",
          "name": "",
          "type": "uint256"
        }
      ],
      "stateMutability": "view",
      "type": "function"
    },
    {
      "inputs": [],
      "name": "getVotingStartTime",
      "outputs": [
        {
          "internalType": "uint256",
          "name": "",
          "type": "uint256"
        }
      ],
      "stateMutability": "view",
      "type": "function"
    },
    {
      "inputs": [
        {
          "internalType": "uint256",
          "name": "_electionTitleIndex",
          "type": "uint256"
        }
      ],
      "name": "getWinnerCandidate",
      "outputs": [
        {
          "internalType": "address",
          "name": "",
          "type": "address"
        }
      ],
      "stateMutability": "view",
      "type": "function"
    },
    {
      "inputs": [
        {
          "internalType": "uint8[]",
          "name": "electionTitleList",
          "type": "uint8[]"
        },
        {
          "internalType": "uint8",
          "name": "item",
          "type": "uint8"
        }
      ],
      "name": "iselectionTitleIndexInList",
      "outputs": [
        {
          "internalType": "bool",
          "name": "",
          "type": "bool"
        }
      ],
      "stateMutability": "pure",
      "type": "function"
    },
    {
      "inputs": [
        {
          "internalType": "string",
          "name": "_header",
          "type": "string"
        },
        {
          "internalType": "string",
          "name": "_slogan",
          "type": "string"
        },
        {
          "internalType": "uint256",
          "name": "_electionTitleIndex",
          "type": "uint256"
        }
      ],
      "name": "registerAsCandidate",
      "outputs": [],
      "stateMutability": "nonpayable",
      "type": "function"
    },
    {
      "inputs": [
        {
          "internalType": "string",
          "name": "_name",
          "type": "string"
        },
        {
          "internalType": "string",
          "name": "_phone",
          "type": "string"
        }
      ],
      "name": "registerAsVoter",
      "outputs": [],
      "stateMutability": "nonpayable",
      "type": "function"
    },
    {
      "inputs": [
        {
          "internalType": "address",
          "name": "candidateAddress",
          "type": "address"
        },
        {
          "internalType": "string",
          "name": "message",
          "type": "string"
        }
      ],
      "name": "rejectCandidate",
      "outputs": [],
      "stateMutability": "nonpayable",
      "type": "function"
    },
    {
      "inputs": [
        {
          "internalType": "address",
          "name": "voterAddress",
          "type": "address"
        },
        {
          "internalType": "string",
          "name": "message",
          "type": "string"
        }
      ],
      "name": "rejectVoter",
      "outputs": [],
      "stateMutability": "nonpayable",
      "type": "function"
    },
    {
      "inputs": [
        {
          "internalType": "address",
          "name": "",
          "type": "address"
        }
      ],
      "name": "rejectedCandidateDetails",
      "outputs": [
        {
          "internalType": "uint8",
          "name": "candidateId",
          "type": "uint8"
        },
        {
          "internalType": "address",
          "name": "candidateAddress",
          "type": "address"
        },
        {
          "internalType": "string",
          "name": "header",
          "type": "string"
        },
        {
          "internalType": "string",
          "name": "slogan",
          "type": "string"
        },
        {
          "internalType": "string",
          "name": "message",
          "type": "string"
        }
      ],
      "stateMutability": "view",
      "type": "function"
    },
    {
      "inputs": [
        {
          "internalType": "uint256",
          "name": "",
          "type": "uint256"
        }
      ],
      "name": "rejectedCandidates",
      "outputs": [
        {
          "internalType": "address",
          "name": "",
          "type": "address"
        }
      ],
      "stateMutability": "view",
      "type": "function"
    },
    {
      "inputs": [
        {
          "internalType": "address",
          "name": "",
          "type": "address"
        }
      ],
      "name": "rejectedVoterDetails",
      "outputs": [
        {
          "internalType": "address",
          "name": "voterAddress",
          "type": "address"
        },
        {
          "internalType": "string",
          "name": "name",
          "type": "string"
        },
        {
          "internalType": "string",
          "name": "phone",
          "type": "string"
        },
        {
          "internalType": "string",
          "name": "message",
          "type": "string"
        }
      ],
      "stateMutability": "view",
      "type": "function"
    },
    {
      "inputs": [
        {
          "internalType": "uint256",
          "name": "",
          "type": "uint256"
        }
      ],
      "name": "rejectedVoters",
      "outputs": [
        {
          "internalType": "address",
          "name": "",
          "type": "address"
        }
      ],
      "stateMutability": "view",
      "type": "function"
    },
    {
      "inputs": [
        {
          "internalType": "string",
          "name": "_adminName",
          "type": "string"
        },
        {
          "internalType": "string",
          "name": "_adminEmail",
          "type": "string"
        },
        {
          "internalType": "string",
          "name": "_adminTitle",
          "type": "string"
        },
        {
          "internalType": "string",
          "name": "_organizationTitle",
          "type": "string"
        },
        {
          "internalType": "uint256",
          "name": "_votingStartTime",
          "type": "uint256"
        },
        {
          "internalType": "uint256",
          "name": "_votingEndTime",
          "type": "uint256"
        },
        {
          "internalType": "uint256",
          "name": "_registrationStartTime",
          "type": "uint256"
        },
        {
          "internalType": "uint256",
          "name": "_registrationEndTime",
          "type": "uint256"
        },
        {
          "internalType": "string[]",
          "name": "_elections",
          "type": "string[]"
        },
        {
          "internalType": "string[]",
          "name": "_slogans",
          "type": "string[]"
        }
      ],
      "name": "setElectionDetails",
      "outputs": [],
      "stateMutability": "nonpayable",
      "type": "function"
    },
    {
      "inputs": [],
      "name": "setElectionResultShowFeatureToPublic",
      "outputs": [],
      "stateMutability": "nonpayable",
      "type": "function"
    },
    {
      "inputs": [
        {
          "internalType": "bool",
          "name": "_verifedStatus",
          "type": "bool"
        },
        {
          "internalType": "address",
          "name": "candidateAddress",
          "type": "address"
        }
      ],
      "name": "verifyCandidate",
      "outputs": [],
      "stateMutability": "nonpayable",
      "type": "function"
    },
    {
      "inputs": [
        {
          "internalType": "bool",
          "name": "_verifedStatus",
          "type": "bool"
        },
        {
          "internalType": "address",
          "name": "voterAddress",
          "type": "address"
        }
      ],
      "name": "verifyVoter",
      "outputs": [],
      "stateMutability": "nonpayable",
      "type": "function"
    },
    {
      "inputs": [
        {
          "internalType": "address",
          "name": "_candidateAddress",
          "type": "address"
        },
        {
          "internalType": "uint8",
          "name": "_electionTitleIndex",
          "type": "uint8"
        }
      ],
      "name": "vote",
      "outputs": [],
      "stateMutability": "nonpayable",
      "type": "function"
    },
    {
      "inputs": [
        {
          "internalType": "address",
          "name": "",
          "type": "address"
        }
      ],
      "name": "voterDetails",
      "outputs": [
        {
          "internalType": "address",
          "name": "voterAddress",
          "type": "address"
        },
        {
          "internalType": "string",
          "name": "name",
          "type": "string"
        },
        {
          "internalType": "string",
          "name": "phone",
          "type": "string"
        },
        {
          "internalType": "bool",
          "name": "isVerified",
          "type": "bool"
        },
        {
          "internalType": "bool",
          "name": "hasVoted",
          "type": "bool"
        },
        {
          "internalType": "bool",
          "name": "isRegistered",
          "type": "bool"
        }
      ],
      "stateMutability": "view",
      "type": "function"
    },
    {
      "inputs": [
        {
          "internalType": "uint256",
          "name": "",
          "type": "uint256"
        }
      ],
      "name": "voters",
      "outputs": [
        {
          "internalType": "address",
          "name": "",
          "type": "address"
        }
      ],
      "stateMutability": "view",
      "type": "function"
    }
  ],
  "bytecode": "0x608060405234801561001057600080fd5b5033600060026101000a81548173ffffffffffffffffffffffffffffffffffffffff021916908373ffffffffffffffffffffffffffffffffffffffff16021790555060008060166101000a81548160ff021916908360ff16021790555060008060006101000a81548160ff02191690831515021790555060008060016101000a81548160ff0219169083151502179055506000600b819055506000600c819055506000600d819055506000600e819055506153e6806100d06000396000f3fe608060405234801561001057600080fd5b50600436106102f15760003560e01c8063831318f11161019d578063d0980f20116100e9578063dd698f90116100a2578063f33a18801161007c578063f33a1880146109d1578063f33a8a73146109ef578063f851a44014610a1f578063fee0d19a14610a3d576102f1565b8063dd698f9014610977578063df1c84ef14610995578063df6d2784146109b3576102f1565b8063d0980f2014610866578063d22bc83814610896578063d2fdf16f146108c9578063d4ecadb8146108f9578063da58c7d914610929578063dc973d5014610959576102f1565b8063bceb514d11610156578063c5c871be11610130578063c5c871be146107f2578063c784d213146107fc578063cad43b481461081a578063cfe0c7fc14610836576102f1565b8063bceb514d1461079a578063be081b6f146107b6578063c041da31146107d4576102f1565b8063831318f1146106c05780638709b71b146106de578063aed93010146106fa578063b0891aa41461072a578063b1bf87b01461075e578063b54e629a1461077c576102f1565b80634a2846a81161025c5780635fcdd8a1116102155780636a82ee51116101ef5780636a82ee51146106365780636e9960c314610654578063739a95f8146106725780637d66053514610690576102f1565b80635fcdd8a1146105b857806364ca6938146105e85780636723677f14610618576102f1565b80634a2846a8146104e35780634c652fc6146104ff578063506b8e0a1461051b5780635938750d1461053757806359632c221461056c5780635e894b1214610588576102f1565b80633477ee2e116102ae5780633477ee2e146103e7578063399f694d146104175780633afa3e07146104475780633f66f48b1461047757806347eaa1d9146104a757806348343175146104c5576102f1565b806305e73ced146102f65780630712aa051461032d5780630e2354cf1461034b57806319c5c5071461036957806324785b9e146103995780632d0f7eef146103c9575b600080fd5b610310600480360381019061030b9190613f3b565b610a59565b604051610324989796959493929190614060565b60405180910390f35b610335610bf8565b60405161034291906141f8565b60405180910390f35b610353610d4a565b604051610360919061421a565b60405180910390f35b610383600480360381019061037e9190614268565b610ddf565b6040516103909190614295565b60405180910390f35b6103b360048036038101906103ae9190614268565b610e12565b6040516103c09190614295565b60405180910390f35b6103d1610e45565b6040516103de91906142b0565b60405180910390f35b61040160048036038101906103fc9190614268565b610e52565b60405161040e91906142cb565b60405180910390f35b610431600480360381019061042c9190614312565b610e91565b60405161043e919061433f565b60405180910390f35b610461600480360381019061045c9190614268565b610f5f565b60405161046e91906142cb565b60405180910390f35b610491600480360381019061048c9190614268565b610f9e565b60405161049e91906142cb565b60405180910390f35b6104af610fdd565b6040516104bc91906142b0565b60405180910390f35b6104cd610fea565b6040516104da919061421a565b60405180910390f35b6104fd60048036038101906104f8919061448f565b61107f565b005b610519600480360381019061051491906144eb565b61157f565b005b610535600480360381019061053091906145a2565b61184f565b005b610551600480360381019061054c9190613f3b565b61196a565b604051610563969594939291906145e2565b60405180910390f35b6105866004803603810190610581919061448f565b611afd565b005b6105a2600480360381019061059d9190614268565b6120a7565b6040516105af91906142cb565b60405180910390f35b6105d260048036038101906105cd9190613f3b565b6120e6565b6040516105df9190614295565b60405180910390f35b61060260048036038101906105fd9190614719565b612195565b60405161060f9190614295565b60405180910390f35b6106206121f7565b60405161062d9190614295565b60405180910390f35b61063e61220d565b60405161064b91906142b0565b60405180910390f35b61065c612217565b60405161066991906142cb565b60405180910390f35b61067a612240565b60405161068791906142b0565b60405180910390f35b6106aa60048036038101906106a59190613f3b565b61224d565b6040516106b79190614295565b60405180910390f35b6106c86122fc565b6040516106d5919061421a565b60405180910390f35b6106f860048036038101906106f39190614856565b612391565b005b610714600480360381019061070f9190614268565b6126b0565b60405161072191906142cb565b60405180910390f35b610744600480360381019061073f9190613f3b565b6126ef565b6040516107559594939291906149dd565b60405180910390f35b6107666128ea565b60405161077391906142b0565b60405180910390f35b6107846128f4565b60405161079191906142b0565b60405180910390f35b6107b460048036038101906107af9190614a45565b612901565b005b6107be612c2f565b6040516107cb919061421a565b60405180910390f35b6107dc612cc4565b6040516107e991906141f8565b60405180910390f35b6107fa612e1f565b005b610804612e96565b60405161081191906142b0565b60405180910390f35b610834600480360381019061082f91906145a2565b612ea0565b005b610850600480360381019061084b9190614312565b612fbb565b60405161085d9190614c3a565b60405180910390f35b610880600480360381019061087b9190614268565b613425565b60405161088d9190614295565b60405180910390f35b6108b060048036038101906108ab9190613f3b565b613453565b6040516108c09493929190614c5c565b60405180910390f35b6108e360048036038101906108de9190614268565b61363b565b6040516108f09190614295565b60405180910390f35b610913600480360381019061090e9190614268565b613659565b6040516109209190614295565b60405180910390f35b610943600480360381019061093e9190614268565b61368b565b60405161095091906142cb565b60405180910390f35b6109616136ca565b60405161096e91906142b0565b60405180910390f35b61097f6136d7565b60405161098c9190614295565b60405180910390f35b61099d6136ed565b6040516109aa9190614d65565b60405180910390f35b6109bb6137b1565b6040516109c891906142b0565b60405180910390f35b6109d96137bb565b6040516109e691906142b0565b60405180910390f35b610a096004803603810190610a049190614268565b6137c8565b604051610a1691906142cb565b60405180910390f35b610a2761395e565b604051610a3491906142cb565b60405180910390f35b610a576004803603810190610a529190614d87565b613984565b005b60086020528060005260406000206000915090508060000160009054906101000a900460ff16908060000160019054906101000a900473ffffffffffffffffffffffffffffffffffffffff1690806001018054610ab590614e2e565b80601f0160208091040260200160405190810160405280929190818152602001828054610ae190614e2e565b8015610b2e5780601f10610b0357610100808354040283529160200191610b2e565b820191906000526020600020905b815481529060010190602001808311610b1157829003601f168201915b505050505090806002018054610b4390614e2e565b80601f0160208091040260200160405190810160405280929190818152602001828054610b6f90614e2e565b8015610bbc5780601f10610b9157610100808354040283529160200191610bbc565b820191906000526020600020905b815481529060010190602001808311610b9f57829003601f168201915b5050505050908060030154908060040154908060050160009054906101000a900460ff16908060050160019054906101000a900460ff16905088565b60606000600f6008018054905067ffffffffffffffff811115610c1e57610c1d614364565b5b604051908082528060200260200182016040528015610c5157816020015b6060815260200190600190039081610c3c5790505b50905060005b600f60080180549050811015610d4257600f6008018181548110610c7e57610c7d614e60565b5b906000526020600020018054610c9390614e2e565b80601f0160208091040260200160405190810160405280929190818152602001828054610cbf90614e2e565b8015610d0c5780601f10610ce157610100808354040283529160200191610d0c565b820191906000526020600020905b815481529060010190602001808311610cef57829003601f168201915b5050505050828281518110610d2457610d23614e60565b5b60200260200101819052508080610d3a90614ebe565b915050610c57565b508091505090565b6060600f6000018054610d5c90614e2e565b80601f0160208091040260200160405190810160405280929190818152602001828054610d8890614e2e565b8015610dd55780601f10610daa57610100808354040283529160200191610dd5565b820191906000526020600020905b815481529060010190602001808311610db857829003601f168201915b5050505050905090565b600080600b548310158015610df65750600c548311155b15610e045760019050610e09565b600090505b80915050919050565b600080600d548310158015610e295750600e548311155b15610e375760019050610e3c565b600090505b80915050919050565b6000600680549050905090565b60028181548110610e6257600080fd5b906000526020600020016000915054906101000a900473ffffffffffffffffffffffffffffffffffffffff1681565b6000806000905060005b600480549050811015610f55578360ff166008600060048481548110610ec457610ec3614e60565b5b9060005260206000200160009054906101000a900473ffffffffffffffffffffffffffffffffffffffff1673ffffffffffffffffffffffffffffffffffffffff1673ffffffffffffffffffffffffffffffffffffffff168152602001908152602001600020600301541415610f42578180610f3e90614f07565b9250505b8080610f4d90614ebe565b915050610e9b565b5080915050919050565b60058181548110610f6f57600080fd5b906000526020600020016000915054906101000a900473ffffffffffffffffffffffffffffffffffffffff1681565b60048181548110610fae57600080fd5b906000526020600020016000915054906101000a900473ffffffffffffffffffffffffffffffffffffffff1681565b6000600480549050905090565b6060600f6003018054610ffc90614e2e565b80601f016020809104026020016040519081016040528092919081815260200182805461102890614e2e565b80156110755780601f1061104a57610100808354040283529160200191611075565b820191906000526020600020905b81548152906001019060200180831161105857829003601f168201915b5050505050905090565b600060029054906101000a900473ffffffffffffffffffffffffffffffffffffffff1673ffffffffffffffffffffffffffffffffffffffff163373ffffffffffffffffffffffffffffffffffffffff16146110d957600080fd5b60008060005b60018054905081101561117a578473ffffffffffffffffffffffffffffffffffffffff166001828154811061111757611116614e60565b5b9060005260206000200160009054906101000a900473ffffffffffffffffffffffffffffffffffffffff1673ffffffffffffffffffffffffffffffffffffffff161415611167576001925061117a565b808061117290614ebe565b9150506110df565b5060005b600580549050811015611215578473ffffffffffffffffffffffffffffffffffffffff16600582815481106111b6576111b5614e60565b5b9060005260206000200160009054906101000a900473ffffffffffffffffffffffffffffffffffffffff1673ffffffffffffffffffffffffffffffffffffffff16141561120257600191505b808061120d90614ebe565b91505061117e565b50600115158215151461125d576040517f08c379a000000000000000000000000000000000000000000000000000000000815260040161125490614f7d565b60405180910390fd5b60001515811515146112a4576040517f08c379a000000000000000000000000000000000000000000000000000000000815260040161129b90614fe9565b60405180910390fd5b82600960008673ffffffffffffffffffffffffffffffffffffffff1673ffffffffffffffffffffffffffffffffffffffff16815260200190815260200160002060030190805190602001906112fa929190613bcc565b50600760008573ffffffffffffffffffffffffffffffffffffffff1673ffffffffffffffffffffffffffffffffffffffff168152602001908152602001600020600101600960008673ffffffffffffffffffffffffffffffffffffffff1673ffffffffffffffffffffffffffffffffffffffff16815260200190815260200160002060010190805461138b90614e2e565b611396929190613c52565b50600760008573ffffffffffffffffffffffffffffffffffffffff1673ffffffffffffffffffffffffffffffffffffffff168152602001908152602001600020600201600960008673ffffffffffffffffffffffffffffffffffffffff1673ffffffffffffffffffffffffffffffffffffffff16815260200190815260200160002060020190805461142790614e2e565b611432929190613c52565b50600760008573ffffffffffffffffffffffffffffffffffffffff1673ffffffffffffffffffffffffffffffffffffffff16815260200190815260200160002060000160009054906101000a900473ffffffffffffffffffffffffffffffffffffffff16600960008673ffffffffffffffffffffffffffffffffffffffff1673ffffffffffffffffffffffffffffffffffffffff16815260200190815260200160002060000160006101000a81548173ffffffffffffffffffffffffffffffffffffffff021916908373ffffffffffffffffffffffffffffffffffffffff1602179055506005849080600181540180825580915050600190039060005260206000200160009091909190916101000a81548173ffffffffffffffffffffffffffffffffffffffff021916908373ffffffffffffffffffffffffffffffffffffffff16021790555050505050565b600b544210156115c4576040517f08c379a00000000000000000000000000000000000000000000000000000000081526004016115bb90615055565b60405180910390fd5b600c54421115611609576040517f08c379a0000000000000000000000000000000000000000000000000000000008152600401611600906150c1565b60405180910390fd5b6000604051806101000160405280600060169054906101000a900460ff1660ff1681526020013373ffffffffffffffffffffffffffffffffffffffff1681526020018581526020018481526020018381526020016000815260200160001515815260200160011515815250905080600860003373ffffffffffffffffffffffffffffffffffffffff1673ffffffffffffffffffffffffffffffffffffffff16815260200190815260200160002060008201518160000160006101000a81548160ff021916908360ff16021790555060208201518160000160016101000a81548173ffffffffffffffffffffffffffffffffffffffff021916908373ffffffffffffffffffffffffffffffffffffffff160217905550604082015181600101908051906020019061173a929190613bcc565b506060820151816002019080519060200190611757929190613bcc565b506080820151816003015560a0820151816004015560c08201518160050160006101000a81548160ff02191690831515021790555060e08201518160050160016101000a81548160ff0219169083151502179055509050506002339080600181540180825580915050600190039060005260206000200160009091909190916101000a81548173ffffffffffffffffffffffffffffffffffffffff021916908373ffffffffffffffffffffffffffffffffffffffff1602179055506001600060168282829054906101000a900460ff1661183191906150e1565b92506101000a81548160ff021916908360ff16021790555050505050565b600060029054906101000a900473ffffffffffffffffffffffffffffffffffffffff1673ffffffffffffffffffffffffffffffffffffffff163373ffffffffffffffffffffffffffffffffffffffff16146118a957600080fd5b81600760008373ffffffffffffffffffffffffffffffffffffffff1673ffffffffffffffffffffffffffffffffffffffff16815260200190815260200160002060030160006101000a81548160ff0219169083151502179055506003819080600181540180825580915050600190039060005260206000200160009091909190916101000a81548173ffffffffffffffffffffffffffffffffffffffff021916908373ffffffffffffffffffffffffffffffffffffffff1602179055505050565b60076020528060005260406000206000915090508060000160009054906101000a900473ffffffffffffffffffffffffffffffffffffffff16908060010180546119b390614e2e565b80601f01602080910402602001604051908101604052809291908181526020018280546119df90614e2e565b8015611a2c5780601f10611a0157610100808354040283529160200191611a2c565b820191906000526020600020905b815481529060010190602001808311611a0f57829003601f168201915b505050505090806002018054611a4190614e2e565b80601f0160208091040260200160405190810160405280929190818152602001828054611a6d90614e2e565b8015611aba5780601f10611a8f57610100808354040283529160200191611aba565b820191906000526020600020905b815481529060010190602001808311611a9d57829003601f168201915b5050505050908060030160009054906101000a900460ff16908060030160019054906101000a900460ff16908060030160029054906101000a900460ff16905086565b600060029054906101000a900473ffffffffffffffffffffffffffffffffffffffff1673ffffffffffffffffffffffffffffffffffffffff163373ffffffffffffffffffffffffffffffffffffffff1614611b5757600080fd5b60008060005b600280549050811015611bf8578473ffffffffffffffffffffffffffffffffffffffff1660028281548110611b9557611b94614e60565b5b9060005260206000200160009054906101000a900473ffffffffffffffffffffffffffffffffffffffff1673ffffffffffffffffffffffffffffffffffffffff161415611be55760019250611bf8565b8080611bf090614ebe565b915050611b5d565b5060005b600680549050811015611c93578473ffffffffffffffffffffffffffffffffffffffff1660068281548110611c3457611c33614e60565b5b9060005260206000200160009054906101000a900473ffffffffffffffffffffffffffffffffffffffff1673ffffffffffffffffffffffffffffffffffffffff161415611c8057600191505b8080611c8b90614ebe565b915050611bfc565b506001151582151514611cdb576040517f08c379a0000000000000000000000000000000000000000000000000000000008152600401611cd290615164565b60405180910390fd5b6000151581151514611d22576040517f08c379a0000000000000000000000000000000000000000000000000000000008152600401611d19906151d0565b60405180910390fd5b600860008573ffffffffffffffffffffffffffffffffffffffff1673ffffffffffffffffffffffffffffffffffffffff16815260200190815260200160002060000160009054906101000a900460ff16600a60008673ffffffffffffffffffffffffffffffffffffffff1673ffffffffffffffffffffffffffffffffffffffff16815260200190815260200160002060000160006101000a81548160ff021916908360ff160217905550600860008573ffffffffffffffffffffffffffffffffffffffff1673ffffffffffffffffffffffffffffffffffffffff16815260200190815260200160002060000160019054906101000a900473ffffffffffffffffffffffffffffffffffffffff16600a60008673ffffffffffffffffffffffffffffffffffffffff1673ffffffffffffffffffffffffffffffffffffffff16815260200190815260200160002060000160016101000a81548173ffffffffffffffffffffffffffffffffffffffff021916908373ffffffffffffffffffffffffffffffffffffffff160217905550600860008573ffffffffffffffffffffffffffffffffffffffff1673ffffffffffffffffffffffffffffffffffffffff168152602001908152602001600020600101600a60008673ffffffffffffffffffffffffffffffffffffffff1673ffffffffffffffffffffffffffffffffffffffff168152602001908152602001600020600101908054611f3f90614e2e565b611f4a929190613c52565b50600860008573ffffffffffffffffffffffffffffffffffffffff1673ffffffffffffffffffffffffffffffffffffffff168152602001908152602001600020600201600a60008673ffffffffffffffffffffffffffffffffffffffff1673ffffffffffffffffffffffffffffffffffffffff168152602001908152602001600020600201908054611fdb90614e2e565b611fe6929190613c52565b5082600a60008673ffffffffffffffffffffffffffffffffffffffff1673ffffffffffffffffffffffffffffffffffffffff168152602001908152602001600020600301908051906020019061203d929190613bcc565b506006849080600181540180825580915050600190039060005260206000200160009091909190916101000a81548173ffffffffffffffffffffffffffffffffffffffff021916908373ffffffffffffffffffffffffffffffffffffffff16021790555050505050565b600681815481106120b757600080fd5b906000526020600020016000915054906101000a900473ffffffffffffffffffffffffffffffffffffffff1681565b6000806000905060005b60038054905081101561218b576003818154811061211157612110614e60565b5b9060005260206000200160009054906101000a900473ffffffffffffffffffffffffffffffffffffffff1673ffffffffffffffffffffffffffffffffffffffff168473ffffffffffffffffffffffffffffffffffffffff161415612178576001915061218b565b808061218390614ebe565b9150506120f0565b5080915050919050565b600080600090505b83518110156121eb578260ff168482815181106121bd576121bc614e60565b5b602002602001015160ff1614156121d85760019150506121f1565b80806121e390614ebe565b91505061219d565b50600090505b92915050565b60008060019054906101000a900460ff16905090565b6000600d54905090565b60008060029054906101000a900473ffffffffffffffffffffffffffffffffffffffff16905090565b6000600180549050905090565b6000806000905060005b6002805490508110156122f2576002818154811061227857612277614e60565b5b9060005260206000200160009054906101000a900473ffffffffffffffffffffffffffffffffffffffff1673ffffffffffffffffffffffffffffffffffffffff168473ffffffffffffffffffffffffffffffffffffffff1614156122df57600191506122f2565b80806122ea90614ebe565b915050612257565b5080915050919050565b6060600f600101805461230e90614e2e565b80601f016020809104026020016040519081016040528092919081815260200182805461233a90614e2e565b80156123875780601f1061235c57610100808354040283529160200191612387565b820191906000526020600020905b81548152906001019060200180831161236a57829003601f168201915b5050505050905090565b600060029054906101000a900473ffffffffffffffffffffffffffffffffffffffff1673ffffffffffffffffffffffffffffffffffffffff163373ffffffffffffffffffffffffffffffffffffffff16146123eb57600080fd5b6000825167ffffffffffffffff81111561240857612407614364565b5b60405190808252806020026020018201604052801561243b57816020015b60608152602001906001900390816124265790505b50905060005b83518110156124965783818151811061245d5761245c614e60565b5b602002602001015182828151811061247857612477614e60565b5b6020026020010181905250808061248e90614ebe565b915050612441565b506000825167ffffffffffffffff8111156124b4576124b3614364565b5b6040519080825280602002602001820160405280156124e757816020015b60608152602001906001900390816124d25790505b50905060005b83518110156125425783818151811061250957612508614e60565b5b602002602001015182828151811061252457612523614e60565b5b6020026020010181905250808061253a90614ebe565b9150506124ed565b5060006040518061014001604052808e81526020018d81526020018c81526020018b81526020018a815260200189815260200188815260200187815260200184815260200183815250905080600f60008201518160000190805190602001906125ac929190613bcc565b5060208201518160010190805190602001906125c9929190613bcc565b5060408201518160020190805190602001906125e6929190613bcc565b506060820151816003019080519060200190612603929190613bcc565b506080820151816004015560a0820151816005015560c0820151816006015560e08201518160070155610100820151816008019080519060200190612649929190613cdf565b50610120820151816009019080519060200190612667929190613cdf565b5090505060016000806101000a81548160ff02191690831515021790555086600b8190555085600c8190555088600d8190555087600e8190555050505050505050505050505050565b600381815481106126c057600080fd5b906000526020600020016000915054906101000a900473ffffffffffffffffffffffffffffffffffffffff1681565b600a6020528060005260406000206000915090508060000160009054906101000a900460ff16908060000160019054906101000a900473ffffffffffffffffffffffffffffffffffffffff169080600101805461274b90614e2e565b80601f016020809104026020016040519081016040528092919081815260200182805461277790614e2e565b80156127c45780601f10612799576101008083540402835291602001916127c4565b820191906000526020600020905b8154815290600101906020018083116127a757829003601f168201915b5050505050908060020180546127d990614e2e565b80601f016020809104026020016040519081016040528092919081815260200182805461280590614e2e565b80156128525780601f1061282757610100808354040283529160200191612852565b820191906000526020600020905b81548152906001019060200180831161283557829003601f168201915b50505050509080600301805461286790614e2e565b80601f016020809104026020016040519081016040528092919081815260200182805461289390614e2e565b80156128e05780601f106128b5576101008083540402835291602001916128e0565b820191906000526020600020905b8154815290600101906020018083116128c357829003601f168201915b5050505050905085565b6000600e54905090565b6000600380549050905090565b600d54421015612946576040517f08c379a000000000000000000000000000000000000000000000000000000000815260040161293d9061523c565b60405180910390fd5b600e5442111561298b576040517f08c379a0000000000000000000000000000000000000000000000000000000008152600401612982906152a8565b60405180910390fd5b6000612a4d600760003373ffffffffffffffffffffffffffffffffffffffff1673ffffffffffffffffffffffffffffffffffffffff168152602001908152602001600020600401805480602002602001604051908101604052809291908181526020018280548015612a4257602002820191906000526020600020906000905b82829054906101000a900460ff1660ff1681526020019060010190602082600001049283019260010382029150808411612a0b5790505b505050505083612195565b90508015612a90576040517f08c379a0000000000000000000000000000000000000000000000000000000008152600401612a879061533a565b60405180910390fd5b60011515600760003373ffffffffffffffffffffffffffffffffffffffff1673ffffffffffffffffffffffffffffffffffffffff16815260200190815260200160002060030160009054906101000a900460ff16151514612af057600080fd5b6001600860008573ffffffffffffffffffffffffffffffffffffffff1673ffffffffffffffffffffffffffffffffffffffff1681526020019081526020016000206004016000828254612b43919061535a565b925050819055506001600760003373ffffffffffffffffffffffffffffffffffffffff1673ffffffffffffffffffffffffffffffffffffffff16815260200190815260200160002060030160016101000a81548160ff021916908315150217905550600760003373ffffffffffffffffffffffffffffffffffffffff1673ffffffffffffffffffffffffffffffffffffffff1681526020019081526020016000206004018290806001815401808255809150506001900390600052602060002090602091828204019190069091909190916101000a81548160ff021916908360ff160217905550505050565b6060600f6002018054612c4190614e2e565b80601f0160208091040260200160405190810160405280929190818152602001828054612c6d90614e2e565b8015612cba5780601f10612c8f57610100808354040283529160200191612cba565b820191906000526020600020905b815481529060010190602001808311612c9d57829003601f168201915b5050505050905090565b60606000600f6009018054905067ffffffffffffffff811115612cea57612ce9614364565b5b604051908082528060200260200182016040528015612d1d57816020015b6060815260200190600190039081612d085790505b50905060005b600f600901805490508160ff161015612e1757600f6009018160ff1681548110612d5057612d4f614e60565b5b906000526020600020018054612d6590614e2e565b80601f0160208091040260200160405190810160405280929190818152602001828054612d9190614e2e565b8015612dde5780601f10612db357610100808354040283529160200191612dde565b820191906000526020600020905b815481529060010190602001808311612dc157829003601f168201915b5050505050828260ff1681518110612df957612df8614e60565b5b60200260200101819052508080612e0f90614f07565b915050612d23565b508091505090565b600060029054906101000a900473ffffffffffffffffffffffffffffffffffffffff1673ffffffffffffffffffffffffffffffffffffffff163373ffffffffffffffffffffffffffffffffffffffff1614612e7957600080fd5b6001600060016101000a81548160ff021916908315150217905550565b6000600c54905090565b600060029054906101000a900473ffffffffffffffffffffffffffffffffffffffff1673ffffffffffffffffffffffffffffffffffffffff163373ffffffffffffffffffffffffffffffffffffffff1614612efa57600080fd5b81600860008373ffffffffffffffffffffffffffffffffffffffff1673ffffffffffffffffffffffffffffffffffffffff16815260200190815260200160002060050160006101000a81548160ff0219169083151502179055506004819080600181540180825580915050600190039060005260206000200160009091909190916101000a81548173ffffffffffffffffffffffffffffffffffffffff021916908373ffffffffffffffffffffffffffffffffffffffff1602179055505050565b6060600060048054905067ffffffffffffffff811115612fde57612fdd614364565b5b60405190808252806020026020018201604052801561301757816020015b613004613d3f565b815260200190600190039081612ffc5790505b5090506000805b600480549050811015613363578460ff16600860006004848154811061304757613046614e60565b5b9060005260206000200160009054906101000a900473ffffffffffffffffffffffffffffffffffffffff1673ffffffffffffffffffffffffffffffffffffffff1673ffffffffffffffffffffffffffffffffffffffff1681526020019081526020016000206003015414156133505760086000600483815481106130ce576130cd614e60565b5b9060005260206000200160009054906101000a900473ffffffffffffffffffffffffffffffffffffffff1673ffffffffffffffffffffffffffffffffffffffff1673ffffffffffffffffffffffffffffffffffffffff168152602001908152602001600020604051806101000160405290816000820160009054906101000a900460ff1660ff1660ff1681526020016000820160019054906101000a900473ffffffffffffffffffffffffffffffffffffffff1673ffffffffffffffffffffffffffffffffffffffff1673ffffffffffffffffffffffffffffffffffffffff1681526020016001820180546131c290614e2e565b80601f01602080910402602001604051908101604052809291908181526020018280546131ee90614e2e565b801561323b5780601f106132105761010080835404028352916020019161323b565b820191906000526020600020905b81548152906001019060200180831161321e57829003601f168201915b5050505050815260200160028201805461325490614e2e565b80601f016020809104026020016040519081016040528092919081815260200182805461328090614e2e565b80156132cd5780601f106132a2576101008083540402835291602001916132cd565b820191906000526020600020905b8154815290600101906020018083116132b057829003601f168201915b5050505050815260200160038201548152602001600482015481526020016005820160009054906101000a900460ff161515151581526020016005820160019054906101000a900460ff161515151581525050838360ff168151811061333657613335614e60565b5b6020026020010181905250818061334c90614f07565b9250505b808061335b90614ebe565b91505061301e565b5060008160ff1667ffffffffffffffff81111561338357613382614364565b5b6040519080825280602002602001820160405280156133bc57816020015b6133a9613d3f565b8152602001906001900390816133a15790505b50905060005b8260ff16811015613419578381815181106133e0576133df614e60565b5b60200260200101518282815181106133fb576133fa614e60565b5b6020026020010181905250808061341190614ebe565b9150506133c2565b50809350505050919050565b60008060009050600b5483101580156134405750600c548311155b1561344a57600190505b80915050919050565b60096020528060005260406000206000915090508060000160009054906101000a900473ffffffffffffffffffffffffffffffffffffffff169080600101805461349c90614e2e565b80601f01602080910402602001604051908101604052809291908181526020018280546134c890614e2e565b80156135155780601f106134ea57610100808354040283529160200191613515565b820191906000526020600020905b8154815290600101906020018083116134f857829003601f168201915b50505050509080600201805461352a90614e2e565b80601f016020809104026020016040519081016040528092919081815260200182805461355690614e2e565b80156135a35780601f10613578576101008083540402835291602001916135a3565b820191906000526020600020905b81548152906001019060200180831161358657829003601f168201915b5050505050908060030180546135b890614e2e565b80601f01602080910402602001604051908101604052809291908181526020018280546135e490614e2e565b80156136315780601f1061360657610100808354040283529160200191613631565b820191906000526020600020905b81548152906001019060200180831161361457829003601f168201915b5050505050905084565b60008060009050600c54831061365057600190505b80915050919050565b6000806000905060008054906101000a900460ff161561368257600e54831061368157600190505b5b80915050919050565b6001818154811061369b57600080fd5b906000526020600020016000915054906101000a900473ffffffffffffffffffffffffffffffffffffffff1681565b6000600280549050905090565b60008060009054906101000a900460ff16905090565b60606000600760003373ffffffffffffffffffffffffffffffffffffffff1673ffffffffffffffffffffffffffffffffffffffff1681526020019081526020016000206004018054806020026020016040519081016040528092919081815260200182805480156137a357602002820191906000526020600020906000905b82829054906101000a900460ff1660ff168152602001906001019060208260000104928301926001038202915080841161376c5790505b505050505090508091505090565b6000600b54905090565b6000600580549050905090565b60008060009050600080600090505b600480549050811015613953578460086000600484815481106137fd576137fc614e60565b5b9060005260206000200160009054906101000a900473ffffffffffffffffffffffffffffffffffffffff1673ffffffffffffffffffffffffffffffffffffffff1673ffffffffffffffffffffffffffffffffffffffff168152602001908152602001600020600301541415613940576000600860006004848154811061388657613885614e60565b5b9060005260206000200160009054906101000a900473ffffffffffffffffffffffffffffffffffffffff1673ffffffffffffffffffffffffffffffffffffffff1673ffffffffffffffffffffffffffffffffffffffff1681526020019081526020016000206004015490508381111561393e57809350600482815481106139105761390f614e60565b5b9060005260206000200160009054906101000a900473ffffffffffffffffffffffffffffffffffffffff1692505b505b808061394b90614ebe565b9150506137d7565b508092505050919050565b600060029054906101000a900473ffffffffffffffffffffffffffffffffffffffff1681565b60006040518060e001604052803373ffffffffffffffffffffffffffffffffffffffff168152602001848152602001838152602001600015158152602001600015158152602001600115158152602001600067ffffffffffffffff8111156139ef576139ee614364565b5b604051908082528060200260200182016040528015613a1d5781602001602082028036833780820191505090505b50815250905080600760003373ffffffffffffffffffffffffffffffffffffffff1673ffffffffffffffffffffffffffffffffffffffff16815260200190815260200160002060008201518160000160006101000a81548173ffffffffffffffffffffffffffffffffffffffff021916908373ffffffffffffffffffffffffffffffffffffffff1602179055506020820151816001019080519060200190613ac6929190613bcc565b506040820151816002019080519060200190613ae3929190613bcc565b5060608201518160030160006101000a81548160ff02191690831515021790555060808201518160030160016101000a81548160ff02191690831515021790555060a08201518160030160026101000a81548160ff02191690831515021790555060c0820151816004019080519060200190613b60929190613da1565b509050506001339080600181540180825580915050600190039060005260206000200160009091909190916101000a81548173ffffffffffffffffffffffffffffffffffffffff021916908373ffffffffffffffffffffffffffffffffffffffff160217905550505050565b828054613bd890614e2e565b90600052602060002090601f016020900481019282613bfa5760008555613c41565b82601f10613c1357805160ff1916838001178555613c41565b82800160010185558215613c41579182015b82811115613c40578251825591602001919060010190613c25565b5b509050613c4e9190613e48565b5090565b828054613c5e90614e2e565b90600052602060002090601f016020900481019282613c805760008555613cce565b82601f10613c915780548555613cce565b82800160010185558215613cce57600052602060002091601f016020900482015b82811115613ccd578254825591600101919060010190613cb2565b5b509050613cdb9190613e48565b5090565b828054828255906000526020600020908101928215613d2e579160200282015b82811115613d2d578251829080519060200190613d1d929190613bcc565b5091602001919060010190613cff565b5b509050613d3b9190613e65565b5090565b604051806101000160405280600060ff168152602001600073ffffffffffffffffffffffffffffffffffffffff168152602001606081526020016060815260200160008152602001600081526020016000151581526020016000151581525090565b82805482825590600052602060002090601f01602090048101928215613e375791602002820160005b83821115613e0857835183826101000a81548160ff021916908360ff1602179055509260200192600101602081600001049283019260010302613dca565b8015613e355782816101000a81549060ff0219169055600101602081600001049283019260010302613e08565b505b509050613e449190613e48565b5090565b5b80821115613e61576000816000905550600101613e49565b5090565b5b80821115613e855760008181613e7c9190613e89565b50600101613e66565b5090565b508054613e9590614e2e565b6000825580601f10613ea75750613ec6565b601f016020900490600052602060002090810190613ec59190613e48565b5b50565b6000604051905090565b600080fd5b600080fd5b600073ffffffffffffffffffffffffffffffffffffffff82169050919050565b6000613f0882613edd565b9050919050565b613f1881613efd565b8114613f2357600080fd5b50565b600081359050613f3581613f0f565b92915050565b600060208284031215613f5157613f50613ed3565b5b6000613f5f84828501613f26565b91505092915050565b600060ff82169050919050565b613f7e81613f68565b82525050565b613f8d81613efd565b82525050565b600081519050919050565b600082825260208201905092915050565b60005b83811015613fcd578082015181840152602081019050613fb2565b83811115613fdc576000848401525b50505050565b6000601f19601f8301169050919050565b6000613ffe82613f93565b6140088185613f9e565b9350614018818560208601613faf565b61402181613fe2565b840191505092915050565b6000819050919050565b61403f8161402c565b82525050565b60008115159050919050565b61405a81614045565b82525050565b600061010082019050614076600083018b613f75565b614083602083018a613f84565b81810360408301526140958189613ff3565b905081810360608301526140a98188613ff3565b90506140b86080830187614036565b6140c560a0830186614036565b6140d260c0830185614051565b6140df60e0830184614051565b9998505050505050505050565b600081519050919050565b600082825260208201905092915050565b6000819050602082019050919050565b600082825260208201905092915050565b600061413482613f93565b61413e8185614118565b935061414e818560208601613faf565b61415781613fe2565b840191505092915050565b600061416e8383614129565b905092915050565b6000602082019050919050565b600061418e826140ec565b61419881856140f7565b9350836020820285016141aa85614108565b8060005b858110156141e657848403895281516141c78582614162565b94506141d283614176565b925060208a019950506001810190506141ae565b50829750879550505050505092915050565b600060208201905081810360008301526142128184614183565b905092915050565b600060208201905081810360008301526142348184613ff3565b905092915050565b6142458161402c565b811461425057600080fd5b50565b6000813590506142628161423c565b92915050565b60006020828403121561427e5761427d613ed3565b5b600061428c84828501614253565b91505092915050565b60006020820190506142aa6000830184614051565b92915050565b60006020820190506142c56000830184614036565b92915050565b60006020820190506142e06000830184613f84565b92915050565b6142ef81613f68565b81146142fa57600080fd5b50565b60008135905061430c816142e6565b92915050565b60006020828403121561432857614327613ed3565b5b6000614336848285016142fd565b91505092915050565b60006020820190506143546000830184613f75565b92915050565b600080fd5b600080fd5b7f4e487b7100000000000000000000000000000000000000000000000000000000600052604160045260246000fd5b61439c82613fe2565b810181811067ffffffffffffffff821117156143bb576143ba614364565b5b80604052505050565b60006143ce613ec9565b90506143da8282614393565b919050565b600067ffffffffffffffff8211156143fa576143f9614364565b5b61440382613fe2565b9050602081019050919050565b82818337600083830152505050565b600061443261442d846143df565b6143c4565b90508281526020810184848401111561444e5761444d61435f565b5b614459848285614410565b509392505050565b600082601f8301126144765761447561435a565b5b813561448684826020860161441f565b91505092915050565b600080604083850312156144a6576144a5613ed3565b5b60006144b485828601613f26565b925050602083013567ffffffffffffffff8111156144d5576144d4613ed8565b5b6144e185828601614461565b9150509250929050565b60008060006060848603121561450457614503613ed3565b5b600084013567ffffffffffffffff81111561452257614521613ed8565b5b61452e86828701614461565b935050602084013567ffffffffffffffff81111561454f5761454e613ed8565b5b61455b86828701614461565b925050604061456c86828701614253565b9150509250925092565b61457f81614045565b811461458a57600080fd5b50565b60008135905061459c81614576565b92915050565b600080604083850312156145b9576145b8613ed3565b5b60006145c78582860161458d565b92505060206145d885828601613f26565b9150509250929050565b600060c0820190506145f76000830189613f84565b81810360208301526146098188613ff3565b9050818103604083015261461d8187613ff3565b905061462c6060830186614051565b6146396080830185614051565b61464660a0830184614051565b979650505050505050565b600067ffffffffffffffff82111561466c5761466b614364565b5b602082029050602081019050919050565b600080fd5b600061469561469084614651565b6143c4565b905080838252602082019050602084028301858111156146b8576146b761467d565b5b835b818110156146e157806146cd88826142fd565b8452602084019350506020810190506146ba565b5050509392505050565b600082601f830112614700576146ff61435a565b5b8135614710848260208601614682565b91505092915050565b600080604083850312156147305761472f613ed3565b5b600083013567ffffffffffffffff81111561474e5761474d613ed8565b5b61475a858286016146eb565b925050602061476b858286016142fd565b9150509250929050565b600067ffffffffffffffff8211156147905761478f614364565b5b602082029050602081019050919050565b60006147b46147af84614775565b6143c4565b905080838252602082019050602084028301858111156147d7576147d661467d565b5b835b8181101561481e57803567ffffffffffffffff8111156147fc576147fb61435a565b5b8086016148098982614461565b855260208501945050506020810190506147d9565b5050509392505050565b600082601f83011261483d5761483c61435a565b5b813561484d8482602086016147a1565b91505092915050565b6000806000806000806000806000806101408b8d03121561487a57614879613ed3565b5b60008b013567ffffffffffffffff81111561489857614897613ed8565b5b6148a48d828e01614461565b9a505060208b013567ffffffffffffffff8111156148c5576148c4613ed8565b5b6148d18d828e01614461565b99505060408b013567ffffffffffffffff8111156148f2576148f1613ed8565b5b6148fe8d828e01614461565b98505060608b013567ffffffffffffffff81111561491f5761491e613ed8565b5b61492b8d828e01614461565b975050608061493c8d828e01614253565b96505060a061494d8d828e01614253565b95505060c061495e8d828e01614253565b94505060e061496f8d828e01614253565b9350506101008b013567ffffffffffffffff81111561499157614990613ed8565b5b61499d8d828e01614828565b9250506101208b013567ffffffffffffffff8111156149bf576149be613ed8565b5b6149cb8d828e01614828565b9150509295989b9194979a5092959850565b600060a0820190506149f26000830188613f75565b6149ff6020830187613f84565b8181036040830152614a118186613ff3565b90508181036060830152614a258185613ff3565b90508181036080830152614a398184613ff3565b90509695505050505050565b60008060408385031215614a5c57614a5b613ed3565b5b6000614a6a85828601613f26565b9250506020614a7b858286016142fd565b9150509250929050565b600081519050919050565b600082825260208201905092915050565b6000819050602082019050919050565b614aba81613f68565b82525050565b614ac981613efd565b82525050565b614ad88161402c565b82525050565b614ae781614045565b82525050565b600061010083016000830151614b066000860182614ab1565b506020830151614b196020860182614ac0565b5060408301518482036040860152614b318282614129565b91505060608301518482036060860152614b4b8282614129565b9150506080830151614b606080860182614acf565b5060a0830151614b7360a0860182614acf565b5060c0830151614b8660c0860182614ade565b5060e0830151614b9960e0860182614ade565b508091505092915050565b6000614bb08383614aed565b905092915050565b6000602082019050919050565b6000614bd082614a85565b614bda8185614a90565b935083602082028501614bec85614aa1565b8060005b85811015614c285784840389528151614c098582614ba4565b9450614c1483614bb8565b925060208a01995050600181019050614bf0565b50829750879550505050505092915050565b60006020820190508181036000830152614c548184614bc5565b905092915050565b6000608082019050614c716000830187613f84565b8181036020830152614c838186613ff3565b90508181036040830152614c978185613ff3565b90508181036060830152614cab8184613ff3565b905095945050505050565b600081519050919050565b600082825260208201905092915050565b6000819050602082019050919050565b6000614cee8383614ab1565b60208301905092915050565b6000602082019050919050565b6000614d1282614cb6565b614d1c8185614cc1565b9350614d2783614cd2565b8060005b83811015614d58578151614d3f8882614ce2565b9750614d4a83614cfa565b925050600181019050614d2b565b5085935050505092915050565b60006020820190508181036000830152614d7f8184614d07565b905092915050565b60008060408385031215614d9e57614d9d613ed3565b5b600083013567ffffffffffffffff811115614dbc57614dbb613ed8565b5b614dc885828601614461565b925050602083013567ffffffffffffffff811115614de957614de8613ed8565b5b614df585828601614461565b9150509250929050565b7f4e487b7100000000000000000000000000000000000000000000000000000000600052602260045260246000fd5b60006002820490506001821680614e4657607f821691505b60208210811415614e5a57614e59614dff565b5b50919050565b7f4e487b7100000000000000000000000000000000000000000000000000000000600052603260045260246000fd5b7f4e487b7100000000000000000000000000000000000000000000000000000000600052601160045260246000fd5b6000614ec98261402c565b91507fffffffffffffffffffffffffffffffffffffffffffffffffffffffffffffffff821415614efc57614efb614e8f565b5b600182019050919050565b6000614f1282613f68565b915060ff821415614f2657614f25614e8f565b5b600182019050919050565b7f566f746572732061646472657373206e6f7420666f756e640000000000000000600082015250565b6000614f67601883613f9e565b9150614f7282614f31565b602082019050919050565b60006020820190508181036000830152614f9681614f5a565b9050919050565b7f566f74657220616c72656164792072656a65637465642e000000000000000000600082015250565b6000614fd3601783613f9e565b9150614fde82614f9d565b602082019050919050565b6000602082019050818103600083015261500281614fc6565b9050919050565b7f526567697374726174696f6e206973206e6f7420737461727465642079657400600082015250565b600061503f601f83613f9e565b915061504a82615009565b602082019050919050565b6000602082019050818103600083015261506e81615032565b9050919050565b7f526567697374726174696f6e20697320616c726561647920656e6465642e0000600082015250565b60006150ab601e83613f9e565b91506150b682615075565b602082019050919050565b600060208201905081810360008301526150da8161509e565b9050919050565b60006150ec82613f68565b91506150f783613f68565b92508260ff0382111561510d5761510c614e8f565b5b828201905092915050565b7f43616e6469646174652061646472657373206e6f7420666f756e640000000000600082015250565b600061514e601b83613f9e565b915061515982615118565b602082019050919050565b6000602082019050818103600083015261517d81615141565b9050919050565b7f43616e64696461746520616c72656164792072656a65637465642e0000000000600082015250565b60006151ba601b83613f9e565b91506151c582615184565b602082019050919050565b600060208201905081810360008301526151e9816151ad565b9050919050565b7f566f74696e67206973206e6f7420737461727465642079657400000000000000600082015250565b6000615226601983613f9e565b9150615231826151f0565b602082019050919050565b6000602082019050818103600083015261525581615219565b9050919050565b7f566f74696e6720697320616c726561647920656e646564000000000000000000600082015250565b6000615292601783613f9e565b915061529d8261525c565b602082019050919050565b600060208201905081810360008301526152c181615285565b9050919050565b7f416c72656164792063617374656420766f746520746f207468652073656c656360008201527f746564207469746c652e00000000000000000000000000000000000000000000602082015250565b6000615324602a83613f9e565b915061532f826152c8565b604082019050919050565b6000602082019050818103600083015261535381615317565b9050919050565b60006153658261402c565b91506153708361402c565b9250827fffffffffffffffffffffffffffffffffffffffffffffffffffffffffffffffff038211156153a5576153a4614e8f565b5b82820190509291505056fea264697066735822122063e7bd83c2a5c2efa9bdae27733b0ceceae14d17427bff81b1b653d9543a1b9c64736f6c634300080b0033",
  "linkReferences": {},
  "deployedLinkReferences": {}
}