{
  "_format": "hh-sol-artifact-1",
  "contractName": "Election",
  "sourceName": "contracts/Election.sol",
  "abi": [
    {
      "inputs": [],
      "stateMutability": "nonpayable",
      "type": "constructor"
    },
    {
      "inputs": [],
      "name": "admin",
      "outputs": [
        {
          "internalType": "address",
          "name": "",
          "type": "address"
        }
      ],
      "stateMutability": "view",
      "type": "function"
    },
    {
      "inputs": [
        {
          "internalType": "uint256",
          "name": "",
          "type": "uint256"
        }
      ],
      "name": "approvedCandidates",
      "outputs": [
        {
          "internalType": "address",
          "name": "",
          "type": "address"
        }
      ],
      "stateMutability": "view",
      "type": "function"
    },
    {
      "inputs": [
        {
          "internalType": "uint256",
          "name": "",
          "type": "uint256"
        }
      ],
      "name": "approvedVoters",
      "outputs": [
        {
          "internalType": "address",
          "name": "",
          "type": "address"
        }
      ],
      "stateMutability": "view",
      "type": "function"
    },
    {
      "inputs": [
        {
          "internalType": "address",
          "name": "",
          "type": "address"
        }
      ],
      "name": "candidateDetails",
      "outputs": [
        {
          "internalType": "uint256",
          "name": "candidateId",
          "type": "uint256"
        },
        {
          "internalType": "address",
          "name": "candidateAddress",
          "type": "address"
        },
        {
          "internalType": "string",
          "name": "header",
          "type": "string"
        },
        {
          "internalType": "string",
          "name": "slogan",
          "type": "string"
        },
        {
          "internalType": "uint256",
          "name": "electionTitleIndex",
          "type": "uint256"
        },
        {
          "internalType": "uint256",
          "name": "voteCount",
          "type": "uint256"
        },
        {
          "internalType": "bool",
          "name": "isVerified",
          "type": "bool"
        },
        {
          "internalType": "bool",
          "name": "isRegistered",
          "type": "bool"
        }
      ],
      "stateMutability": "view",
      "type": "function"
    },
    {
      "inputs": [
        {
          "internalType": "uint256",
          "name": "",
          "type": "uint256"
        }
      ],
      "name": "candidates",
      "outputs": [
        {
          "internalType": "address",
          "name": "",
          "type": "address"
        }
      ],
      "stateMutability": "view",
      "type": "function"
    },
    {
      "inputs": [
        {
          "internalType": "uint256",
          "name": "_electionTitleIndex",
          "type": "uint256"
        }
      ],
      "name": "checkForSingleElectionAndCandidate",
      "outputs": [
        {
          "internalType": "bool",
          "name": "",
          "type": "bool"
        }
      ],
      "stateMutability": "view",
      "type": "function"
    },
    {
      "inputs": [],
      "name": "getAdmin",
      "outputs": [
        {
          "internalType": "address",
          "name": "",
          "type": "address"
        }
      ],
      "stateMutability": "view",
      "type": "function"
    },
    {
      "inputs": [],
      "name": "getAdminEmail",
      "outputs": [
        {
          "internalType": "string",
          "name": "",
          "type": "string"
        }
      ],
      "stateMutability": "view",
      "type": "function"
    },
    {
      "inputs": [],
      "name": "getAdminName",
      "outputs": [
        {
          "internalType": "string",
          "name": "",
          "type": "string"
        }
      ],
      "stateMutability": "view",
      "type": "function"
    },
    {
      "inputs": [],
      "name": "getAdminTitle",
      "outputs": [
        {
          "internalType": "string",
          "name": "",
          "type": "string"
        }
      ],
      "stateMutability": "view",
      "type": "function"
    },
    {
      "inputs": [
        {
          "internalType": "address",
          "name": "_currentAddress",
          "type": "address"
        }
      ],
      "name": "getAlreadyRegisteredCandidateStatus",
      "outputs": [
        {
          "internalType": "bool",
          "name": "",
          "type": "bool"
        }
      ],
      "stateMutability": "view",
      "type": "function"
    },
    {
      "inputs": [
        {
          "internalType": "uint256",
          "name": "_electionTitleIndex",
          "type": "uint256"
        }
      ],
      "name": "getCandidateCountForAsscociatedElection",
      "outputs": [
        {
          "internalType": "uint256",
          "name": "",
          "type": "uint256"
        }
      ],
      "stateMutability": "view",
      "type": "function"
    },
    {
      "inputs": [
        {
          "internalType": "uint256",
          "name": "_electionTitleIndex",
          "type": "uint256"
        }
      ],
      "name": "getCandidatesForAssociatedElections",
      "outputs": [
        {
          "components": [
            {
              "internalType": "uint256",
              "name": "candidateId",
              "type": "uint256"
            },
            {
              "internalType": "address",
              "name": "candidateAddress",
              "type": "address"
            },
            {
              "internalType": "string",
              "name": "header",
              "type": "string"
            },
            {
              "internalType": "string",
              "name": "slogan",
              "type": "string"
            },
            {
              "internalType": "uint256",
              "name": "electionTitleIndex",
              "type": "uint256"
            },
            {
              "internalType": "uint256",
              "name": "voteCount",
              "type": "uint256"
            },
            {
              "internalType": "bool",
              "name": "isVerified",
              "type": "bool"
            },
            {
              "internalType": "bool",
              "name": "isRegistered",
              "type": "bool"
            }
          ],
          "internalType": "struct Election.Candidate[]",
          "name": "",
          "type": "tuple[]"
        }
      ],
      "stateMutability": "view",
      "type": "function"
    },
    {
      "inputs": [
        {
          "internalType": "uint256",
          "name": "_timeStamp",
          "type": "uint256"
        }
      ],
      "name": "getElectionEndedStatus",
      "outputs": [
        {
          "internalType": "bool",
          "name": "",
          "type": "bool"
        }
      ],
      "stateMutability": "view",
      "type": "function"
    },
    {
      "inputs": [],
      "name": "getElectionInitStatus",
      "outputs": [
        {
          "internalType": "bool",
          "name": "",
          "type": "bool"
        }
      ],
      "stateMutability": "view",
      "type": "function"
    },
    {
      "inputs": [
        {
          "internalType": "uint256",
          "name": "_timeStamp",
          "type": "uint256"
        }
      ],
      "name": "getElectionStatus",
      "outputs": [
        {
          "internalType": "bool",
          "name": "",
          "type": "bool"
        }
      ],
      "stateMutability": "view",
      "type": "function"
    },
    {
      "inputs": [],
      "name": "getElectionTitles",
      "outputs": [
        {
          "internalType": "string[]",
          "name": "",
          "type": "string[]"
        }
      ],
      "stateMutability": "view",
      "type": "function"
    },
    {
      "inputs": [],
      "name": "getOrganizationTitle",
      "outputs": [
        {
          "internalType": "string",
          "name": "",
          "type": "string"
        }
      ],
      "stateMutability": "view",
      "type": "function"
    },
    {
      "inputs": [],
      "name": "getRegistrationEndTime",
      "outputs": [
        {
          "internalType": "uint256",
          "name": "",
          "type": "uint256"
        }
      ],
      "stateMutability": "view",
      "type": "function"
    },
    {
      "inputs": [],
      "name": "getRegistrationStartTime",
      "outputs": [
        {
          "internalType": "uint256",
          "name": "",
          "type": "uint256"
        }
      ],
      "stateMutability": "view",
      "type": "function"
    },
    {
      "inputs": [
        {
          "internalType": "uint256",
          "name": "_timeStamp",
          "type": "uint256"
        }
      ],
      "name": "getRegistrationStatus",
      "outputs": [
        {
          "internalType": "bool",
          "name": "",
          "type": "bool"
        }
      ],
      "stateMutability": "view",
      "type": "function"
    },
    {
      "inputs": [],
      "name": "getTotalCandidate",
      "outputs": [
        {
          "internalType": "uint256",
          "name": "",
          "type": "uint256"
        }
      ],
      "stateMutability": "view",
      "type": "function"
    },
    {
      "inputs": [],
      "name": "getTotalVoter",
      "outputs": [
        {
          "internalType": "uint256",
          "name": "",
          "type": "uint256"
        }
      ],
      "stateMutability": "view",
      "type": "function"
    },
    {
      "inputs": [
        {
          "internalType": "address",
          "name": "_currentAddress",
          "type": "address"
        }
      ],
      "name": "getVoterStatusForCandidate",
      "outputs": [
        {
          "internalType": "bool",
          "name": "",
          "type": "bool"
        }
      ],
      "stateMutability": "view",
      "type": "function"
    },
    {
      "inputs": [],
      "name": "getVotingEndTime",
      "outputs": [
        {
          "internalType": "uint256",
          "name": "",
          "type": "uint256"
        }
      ],
      "stateMutability": "view",
      "type": "function"
    },
    {
      "inputs": [],
      "name": "getVotingStartTime",
      "outputs": [
        {
          "internalType": "uint256",
          "name": "",
          "type": "uint256"
        }
      ],
      "stateMutability": "view",
      "type": "function"
    },
    {
      "inputs": [],
      "name": "getWinner",
      "outputs": [
        {
          "internalType": "address",
          "name": "",
          "type": "address"
        }
      ],
      "stateMutability": "view",
      "type": "function"
    },
    {
      "inputs": [
        {
          "internalType": "string",
          "name": "_header",
          "type": "string"
        },
        {
          "internalType": "string",
          "name": "_slogan",
          "type": "string"
        },
        {
          "internalType": "uint256",
          "name": "_electionTitleIndex",
          "type": "uint256"
        }
      ],
      "name": "registerAsCandidate",
      "outputs": [],
      "stateMutability": "nonpayable",
      "type": "function"
    },
    {
      "inputs": [
        {
          "internalType": "string",
          "name": "_name",
          "type": "string"
        },
        {
          "internalType": "string",
          "name": "_phone",
          "type": "string"
        }
      ],
      "name": "registerAsVoter",
      "outputs": [],
      "stateMutability": "nonpayable",
      "type": "function"
    },
    {
      "inputs": [
        {
          "internalType": "string",
          "name": "_adminName",
          "type": "string"
        },
        {
          "internalType": "string",
          "name": "_adminEmail",
          "type": "string"
        },
        {
          "internalType": "string",
          "name": "_adminTitle",
          "type": "string"
        },
        {
          "internalType": "string",
          "name": "_organizationTitle",
          "type": "string"
        },
        {
          "internalType": "uint256",
          "name": "_votingStartTime",
          "type": "uint256"
        },
        {
          "internalType": "uint256",
          "name": "_votingEndTime",
          "type": "uint256"
        },
        {
          "internalType": "uint256",
          "name": "_registrationStartTime",
          "type": "uint256"
        },
        {
          "internalType": "uint256",
          "name": "_registrationEndTime",
          "type": "uint256"
        },
        {
          "internalType": "string[]",
          "name": "_elections",
          "type": "string[]"
        }
      ],
      "name": "setElectionDetails",
      "outputs": [],
      "stateMutability": "nonpayable",
      "type": "function"
    },
    {
      "inputs": [
        {
          "internalType": "bool",
          "name": "_verifedStatus",
          "type": "bool"
        },
        {
          "internalType": "address",
          "name": "candidateAddress",
          "type": "address"
        }
      ],
      "name": "verifyCandidate",
      "outputs": [],
      "stateMutability": "nonpayable",
      "type": "function"
    },
    {
      "inputs": [
        {
          "internalType": "bool",
          "name": "_verifedStatus",
          "type": "bool"
        },
        {
          "internalType": "address",
          "name": "voterAddress",
          "type": "address"
        }
      ],
      "name": "verifyVoter",
      "outputs": [],
      "stateMutability": "nonpayable",
      "type": "function"
    },
    {
      "inputs": [
        {
          "internalType": "address",
          "name": "_candidateAddress",
          "type": "address"
        }
      ],
      "name": "vote",
      "outputs": [],
      "stateMutability": "nonpayable",
      "type": "function"
    },
    {
      "inputs": [
        {
          "internalType": "address",
          "name": "",
          "type": "address"
        }
      ],
      "name": "voterDetails",
      "outputs": [
        {
          "internalType": "address",
          "name": "voterAddress",
          "type": "address"
        },
        {
          "internalType": "string",
          "name": "name",
          "type": "string"
        },
        {
          "internalType": "string",
          "name": "phone",
          "type": "string"
        },
        {
          "internalType": "bool",
          "name": "isVerified",
          "type": "bool"
        },
        {
          "internalType": "bool",
          "name": "hasVoted",
          "type": "bool"
        },
        {
          "internalType": "bool",
          "name": "isRegistered",
          "type": "bool"
        }
      ],
      "stateMutability": "view",
      "type": "function"
    },
    {
      "inputs": [
        {
          "internalType": "uint256",
          "name": "",
          "type": "uint256"
        }
      ],
      "name": "voters",
      "outputs": [
        {
          "internalType": "address",
          "name": "",
          "type": "address"
        }
      ],
      "stateMutability": "view",
      "type": "function"
    }
  ],
  "bytecode": "0x608060405234801561001057600080fd5b5033600360006101000a81548173ffffffffffffffffffffffffffffffffffffffff021916908373ffffffffffffffffffffffffffffffffffffffff1602179055506000600281905550600060018190555060008060006101000a81548160ff0219169083151502179055506000600a819055506000600b819055506000600c819055506000600d8190555061338c806100ab6000396000f3fe608060405234801561001057600080fd5b50600436106102115760003560e01c80636a82ee5111610125578063c3a171a2116100ad578063da58c7d91161007c578063da58c7d914610686578063dd698f90146106b6578063df6d2784146106d4578063f851a440146106f2578063fee0d19a1461071057610211565b8063c3a171a214610600578063c784d2131461061c578063cad43b481461063a578063d4ecadb81461065657610211565b8063831318f1116100f4578063831318f1146105585780638e7ea5b214610576578063aed9301014610594578063b1bf87b0146105c4578063be081b6f146105e257610211565b80636a82ee51146104d05780636dd7d8ea146104ee5780636e9960c31461050a5780637d6605351461052857610211565b80633f66f48b116101a85780634c652fc6116101775780634c652fc614610415578063506b8e0a146104315780635938750d1461044d5780635fcdd8a11461048257806364d198a1146104b257610211565b80633f66f48b1461036757806341217ed51461039757806345543878146103c757806348343175146103f757610211565b806315811029116101e457806315811029146102a757806319c5c507146102d757806324785b9e146103075780633477ee2e1461033757610211565b806305e73ced146102165780630712aa051461024d5780630b93400e1461026b5780630e2354cf14610289575b600080fd5b610230600480360381019061022b91906125a2565b61072c565b6040516102449897969594939291906126ab565b60405180910390f35b6102556108be565b6040516102629190612843565b60405180910390f35b610273610a10565b6040516102809190612865565b60405180910390f35b610291610a1a565b60405161029e9190612880565b60405180910390f35b6102c160048036038101906102bc91906128ce565b610aaf565b6040516102ce9190612aa1565b60405180910390f35b6102f160048036038101906102ec91906128ce565b610efa565b6040516102fe9190612ac3565b60405180910390f35b610321600480360381019061031c91906128ce565b610f2d565b60405161032e9190612ac3565b60405180910390f35b610351600480360381019061034c91906128ce565b610f60565b60405161035e9190612ade565b60405180910390f35b610381600480360381019061037c91906128ce565b610f9f565b60405161038e9190612ade565b60405180910390f35b6103b160048036038101906103ac91906128ce565b610fde565b6040516103be9190612865565b60405180910390f35b6103e160048036038101906103dc91906128ce565b6110a9565b6040516103ee9190612ac3565b60405180910390f35b6103ff61119c565b60405161040c9190612880565b60405180910390f35b61042f600480360381019061042a9190612c2e565b611231565b005b61044b60048036038101906104469190612ce5565b6114bd565b005b610467600480360381019061046291906125a2565b6115d8565b60405161047996959493929190612d25565b60405180910390f35b61049c600480360381019061049791906125a2565b61176b565b6040516104a99190612ac3565b60405180910390f35b6104ba61181a565b6040516104c79190612865565b60405180910390f35b6104d8611824565b6040516104e59190612865565b60405180910390f35b610508600480360381019061050391906125a2565b61182e565b005b610512611a30565b60405161051f9190612ade565b60405180910390f35b610542600480360381019061053d91906125a2565b611a5a565b60405161054f9190612ac3565b60405180910390f35b610560611b09565b60405161056d9190612880565b60405180910390f35b61057e611b9e565b60405161058b9190612ade565b60405180910390f35b6105ae60048036038101906105a991906128ce565b611c6e565b6040516105bb9190612ade565b60405180910390f35b6105cc611cad565b6040516105d99190612865565b60405180910390f35b6105ea611cb7565b6040516105f79190612880565b60405180910390f35b61061a60048036038101906106159190612e7a565b611d4c565b005b610624611f99565b6040516106319190612865565b60405180910390f35b610654600480360381019061064f9190612ce5565b611fa3565b005b610670600480360381019061066b91906128ce565b6120be565b60405161067d9190612ac3565b60405180910390f35b6106a0600480360381019061069b91906128ce565b6120f0565b6040516106ad9190612ade565b60405180910390f35b6106be61212f565b6040516106cb9190612ac3565b60405180910390f35b6106dc612145565b6040516106e99190612865565b60405180910390f35b6106fa61214f565b6040516107079190612ade565b60405180910390f35b61072a60048036038101906107259190612fd0565b612175565b005b60096020528060005260406000206000915090508060000154908060010160009054906101000a900473ffffffffffffffffffffffffffffffffffffffff169080600201805461077b90613077565b80601f01602080910402602001604051908101604052809291908181526020018280546107a790613077565b80156107f45780601f106107c9576101008083540402835291602001916107f4565b820191906000526020600020905b8154815290600101906020018083116107d757829003601f168201915b50505050509080600301805461080990613077565b80601f016020809104026020016040519081016040528092919081815260200182805461083590613077565b80156108825780601f1061085757610100808354040283529160200191610882565b820191906000526020600020905b81548152906001019060200180831161086557829003601f168201915b5050505050908060040154908060050154908060060160009054906101000a900460ff16908060060160019054906101000a900460ff16905088565b60606000600e6008018054905067ffffffffffffffff8111156108e4576108e3612b03565b5b60405190808252806020026020018201604052801561091757816020015b60608152602001906001900390816109025790505b50905060005b600e60080180549050811015610a0857600e6008018181548110610944576109436130a9565b5b90600052602060002001805461095990613077565b80601f016020809104026020016040519081016040528092919081815260200182805461098590613077565b80156109d25780601f106109a7576101008083540402835291602001916109d2565b820191906000526020600020905b8154815290600101906020018083116109b557829003601f168201915b50505050508282815181106109ea576109e96130a9565b5b60200260200101819052508080610a0090613107565b91505061091d565b508091505090565b6000600154905090565b6060600e6000018054610a2c90613077565b80601f0160208091040260200160405190810160405280929190818152602001828054610a5890613077565b8015610aa55780601f10610a7a57610100808354040283529160200191610aa5565b820191906000526020600020905b815481529060010190602001808311610a8857829003601f168201915b5050505050905090565b6060600060078054905067ffffffffffffffff811115610ad257610ad1612b03565b5b604051908082528060200260200182016040528015610b0b57816020015b610af861236a565b815260200190600190039081610af05790505b5090506000805b600780549050811015610e3e57846009600060078481548110610b3857610b376130a9565b5b9060005260206000200160009054906101000a900473ffffffffffffffffffffffffffffffffffffffff1673ffffffffffffffffffffffffffffffffffffffff1673ffffffffffffffffffffffffffffffffffffffff168152602001908152602001600020600401541415610e2b576009600060078381548110610bbf57610bbe6130a9565b5b9060005260206000200160009054906101000a900473ffffffffffffffffffffffffffffffffffffffff1673ffffffffffffffffffffffffffffffffffffffff1673ffffffffffffffffffffffffffffffffffffffff16815260200190815260200160002060405180610100016040529081600082015481526020016001820160009054906101000a900473ffffffffffffffffffffffffffffffffffffffff1673ffffffffffffffffffffffffffffffffffffffff1673ffffffffffffffffffffffffffffffffffffffff168152602001600282018054610ca090613077565b80601f0160208091040260200160405190810160405280929190818152602001828054610ccc90613077565b8015610d195780601f10610cee57610100808354040283529160200191610d19565b820191906000526020600020905b815481529060010190602001808311610cfc57829003601f168201915b50505050508152602001600382018054610d3290613077565b80601f0160208091040260200160405190810160405280929190818152602001828054610d5e90613077565b8015610dab5780601f10610d8057610100808354040283529160200191610dab565b820191906000526020600020905b815481529060010190602001808311610d8e57829003601f168201915b5050505050815260200160048201548152602001600582015481526020016006820160009054906101000a900460ff161515151581526020016006820160019054906101000a900460ff161515151581525050838381518110610e1157610e106130a9565b5b60200260200101819052508180610e2790613107565b9250505b8080610e3690613107565b915050610b12565b5060008167ffffffffffffffff811115610e5b57610e5a612b03565b5b604051908082528060200260200182016040528015610e9457816020015b610e8161236a565b815260200190600190039081610e795790505b50905060005b82811015610eee57838181518110610eb557610eb46130a9565b5b6020026020010151828281518110610ed057610ecf6130a9565b5b60200260200101819052508080610ee690613107565b915050610e9a565b50809350505050919050565b600080600a548310158015610f115750600b548311155b15610f1f5760019050610f24565b600090505b80915050919050565b600080600c548310158015610f445750600d548311155b15610f525760019050610f57565b600090505b80915050919050565b60058181548110610f7057600080fd5b906000526020600020016000915054906101000a900473ffffffffffffffffffffffffffffffffffffffff1681565b60078181548110610faf57600080fd5b906000526020600020016000915054906101000a900473ffffffffffffffffffffffffffffffffffffffff1681565b6000806000905060005b60078054905081101561109f5783600960006007848154811061100e5761100d6130a9565b5b9060005260206000200160009054906101000a900473ffffffffffffffffffffffffffffffffffffffff1673ffffffffffffffffffffffffffffffffffffffff1673ffffffffffffffffffffffffffffffffffffffff16815260200190815260200160002060040154141561108c57818061108890613107565b9250505b808061109790613107565b915050610fe8565b5080915050919050565b60008060009050600080600e60080180549050905060018114156111835760005b600780549050811015611181578560096000600784815481106110f0576110ef6130a9565b5b9060005260206000200160009054906101000a900473ffffffffffffffffffffffffffffffffffffffff1673ffffffffffffffffffffffffffffffffffffffff1673ffffffffffffffffffffffffffffffffffffffff16815260200190815260200160002060040154141561116e57828061116a90613107565b9350505b808061117990613107565b9150506110ca565b505b600182141561119157600192505b829350505050919050565b6060600e60030180546111ae90613077565b80601f01602080910402602001604051908101604052809291908181526020018280546111da90613077565b80156112275780601f106111fc57610100808354040283529160200191611227565b820191906000526020600020905b81548152906001019060200180831161120a57829003601f168201915b5050505050905090565b600a54421015611276576040517f08c379a000000000000000000000000000000000000000000000000000000000815260040161126d9061319c565b60405180910390fd5b600b544211156112bb576040517f08c379a00000000000000000000000000000000000000000000000000000000081526004016112b290613208565b60405180910390fd5b600060405180610100016040528060025481526020013373ffffffffffffffffffffffffffffffffffffffff1681526020018581526020018481526020018381526020016000815260200160001515815260200160011515815250905080600960003373ffffffffffffffffffffffffffffffffffffffff1673ffffffffffffffffffffffffffffffffffffffff1681526020019081526020016000206000820151816000015560208201518160010160006101000a81548173ffffffffffffffffffffffffffffffffffffffff021916908373ffffffffffffffffffffffffffffffffffffffff16021790555060408201518160020190805190602001906113c59291906123c9565b5060608201518160030190805190602001906113e29291906123c9565b506080820151816004015560a0820151816005015560c08201518160060160006101000a81548160ff02191690831515021790555060e08201518160060160016101000a81548160ff0219169083151502179055509050506005339080600181540180825580915050600190039060005260206000200160009091909190916101000a81548173ffffffffffffffffffffffffffffffffffffffff021916908373ffffffffffffffffffffffffffffffffffffffff1602179055506001600260008282546114b09190613228565b9250508190555050505050565b600360009054906101000a900473ffffffffffffffffffffffffffffffffffffffff1673ffffffffffffffffffffffffffffffffffffffff163373ffffffffffffffffffffffffffffffffffffffff161461151757600080fd5b81600860008373ffffffffffffffffffffffffffffffffffffffff1673ffffffffffffffffffffffffffffffffffffffff16815260200190815260200160002060030160006101000a81548160ff0219169083151502179055506006819080600181540180825580915050600190039060005260206000200160009091909190916101000a81548173ffffffffffffffffffffffffffffffffffffffff021916908373ffffffffffffffffffffffffffffffffffffffff1602179055505050565b60086020528060005260406000206000915090508060000160009054906101000a900473ffffffffffffffffffffffffffffffffffffffff169080600101805461162190613077565b80601f016020809104026020016040519081016040528092919081815260200182805461164d90613077565b801561169a5780601f1061166f5761010080835404028352916020019161169a565b820191906000526020600020905b81548152906001019060200180831161167d57829003601f168201915b5050505050908060020180546116af90613077565b80601f01602080910402602001604051908101604052809291908181526020018280546116db90613077565b80156117285780601f106116fd57610100808354040283529160200191611728565b820191906000526020600020905b81548152906001019060200180831161170b57829003601f168201915b5050505050908060030160009054906101000a900460ff16908060030160019054906101000a900460ff16908060030160029054906101000a900460ff16905086565b6000806000905060005b6006805490508110156118105760068181548110611796576117956130a9565b5b9060005260206000200160009054906101000a900473ffffffffffffffffffffffffffffffffffffffff1673ffffffffffffffffffffffffffffffffffffffff168473ffffffffffffffffffffffffffffffffffffffff1614156117fd5760019150611810565b808061180890613107565b915050611775565b5080915050919050565b6000600254905090565b6000600c54905090565b600c54421015611873576040517f08c379a000000000000000000000000000000000000000000000000000000000815260040161186a906132ca565b60405180910390fd5b600d544211156118b8576040517f08c379a00000000000000000000000000000000000000000000000000000000081526004016118af90613336565b60405180910390fd5b60001515600860003373ffffffffffffffffffffffffffffffffffffffff1673ffffffffffffffffffffffffffffffffffffffff16815260200190815260200160002060030160019054906101000a900460ff1615151461191857600080fd5b60011515600860003373ffffffffffffffffffffffffffffffffffffffff1673ffffffffffffffffffffffffffffffffffffffff16815260200190815260200160002060030160009054906101000a900460ff1615151461197857600080fd5b6001600960008373ffffffffffffffffffffffffffffffffffffffff1673ffffffffffffffffffffffffffffffffffffffff16815260200190815260200160002060050160008282546119cb9190613228565b925050819055506001600860003373ffffffffffffffffffffffffffffffffffffffff1673ffffffffffffffffffffffffffffffffffffffff16815260200190815260200160002060030160016101000a81548160ff02191690831515021790555050565b6000600360009054906101000a900473ffffffffffffffffffffffffffffffffffffffff16905090565b6000806000905060005b600580549050811015611aff5760058181548110611a8557611a846130a9565b5b9060005260206000200160009054906101000a900473ffffffffffffffffffffffffffffffffffffffff1673ffffffffffffffffffffffffffffffffffffffff168473ffffffffffffffffffffffffffffffffffffffff161415611aec5760019150611aff565b8080611af790613107565b915050611a64565b5080915050919050565b6060600e6001018054611b1b90613077565b80601f0160208091040260200160405190810160405280929190818152602001828054611b4790613077565b8015611b945780601f10611b6957610100808354040283529160200191611b94565b820191906000526020600020905b815481529060010190602001808311611b7757829003601f168201915b5050505050905090565b60008060009050600080600090505b600254811015611c6557600060078281548110611bcd57611bcc6130a9565b5b9060005260206000200160009054906101000a900473ffffffffffffffffffffffffffffffffffffffff1690506000600960008373ffffffffffffffffffffffffffffffffffffffff1673ffffffffffffffffffffffffffffffffffffffff16815260200190815260200160002060050154905084811115611c50578094508193505b50508080611c5d90613107565b915050611bad565b50809250505090565b60068181548110611c7e57600080fd5b906000526020600020016000915054906101000a900473ffffffffffffffffffffffffffffffffffffffff1681565b6000600d54905090565b6060600e6002018054611cc990613077565b80601f0160208091040260200160405190810160405280929190818152602001828054611cf590613077565b8015611d425780601f10611d1757610100808354040283529160200191611d42565b820191906000526020600020905b815481529060010190602001808311611d2557829003601f168201915b5050505050905090565b600360009054906101000a900473ffffffffffffffffffffffffffffffffffffffff1673ffffffffffffffffffffffffffffffffffffffff163373ffffffffffffffffffffffffffffffffffffffff1614611da657600080fd5b6000815167ffffffffffffffff811115611dc357611dc2612b03565b5b604051908082528060200260200182016040528015611df657816020015b6060815260200190600190039081611de15790505b50905060005b8251811015611e5157828181518110611e1857611e176130a9565b5b6020026020010151828281518110611e3357611e326130a9565b5b60200260200101819052508080611e4990613107565b915050611dfc565b5060006040518061012001604052808c81526020018b81526020018a815260200189815260200188815260200187815260200186815260200185815260200183815250905080600e6000820151816000019080519060200190611eb59291906123c9565b506020820151816001019080519060200190611ed29291906123c9565b506040820151816002019080519060200190611eef9291906123c9565b506060820151816003019080519060200190611f0c9291906123c9565b506080820151816004015560a0820151816005015560c0820151816006015560e08201518160070155610100820151816008019080519060200190611f5292919061244f565b5090505060016000806101000a81548160ff02191690831515021790555084600a8190555083600b8190555086600c8190555085600d819055505050505050505050505050565b6000600b54905090565b600360009054906101000a900473ffffffffffffffffffffffffffffffffffffffff1673ffffffffffffffffffffffffffffffffffffffff163373ffffffffffffffffffffffffffffffffffffffff1614611ffd57600080fd5b81600960008373ffffffffffffffffffffffffffffffffffffffff1673ffffffffffffffffffffffffffffffffffffffff16815260200190815260200160002060060160006101000a81548160ff0219169083151502179055506007819080600181540180825580915050600190039060005260206000200160009091909190916101000a81548173ffffffffffffffffffffffffffffffffffffffff021916908373ffffffffffffffffffffffffffffffffffffffff1602179055505050565b6000806000905060008054906101000a900460ff16156120e757600d5483106120e657600190505b5b80915050919050565b6004818154811061210057600080fd5b906000526020600020016000915054906101000a900473ffffffffffffffffffffffffffffffffffffffff1681565b60008060009054906101000a900460ff16905090565b6000600a54905090565b600360009054906101000a900473ffffffffffffffffffffffffffffffffffffffff1681565b60006040518060c001604052803373ffffffffffffffffffffffffffffffffffffffff16815260200184815260200183815260200160001515815260200160001515815260200160011515815250905080600860003373ffffffffffffffffffffffffffffffffffffffff1673ffffffffffffffffffffffffffffffffffffffff16815260200190815260200160002060008201518160000160006101000a81548173ffffffffffffffffffffffffffffffffffffffff021916908373ffffffffffffffffffffffffffffffffffffffff16021790555060208201518160010190805190602001906122689291906123c9565b5060408201518160020190805190602001906122859291906123c9565b5060608201518160030160006101000a81548160ff02191690831515021790555060808201518160030160016101000a81548160ff02191690831515021790555060a08201518160030160026101000a81548160ff0219169083151502179055509050506004339080600181540180825580915050600190039060005260206000200160009091909190916101000a81548173ffffffffffffffffffffffffffffffffffffffff021916908373ffffffffffffffffffffffffffffffffffffffff160217905550600180600082825461235e9190613228565b92505081905550505050565b60405180610100016040528060008152602001600073ffffffffffffffffffffffffffffffffffffffff168152602001606081526020016060815260200160008152602001600081526020016000151581526020016000151581525090565b8280546123d590613077565b90600052602060002090601f0160209004810192826123f7576000855561243e565b82601f1061241057805160ff191683800117855561243e565b8280016001018555821561243e579182015b8281111561243d578251825591602001919060010190612422565b5b50905061244b91906124af565b5090565b82805482825590600052602060002090810192821561249e579160200282015b8281111561249d57825182908051906020019061248d9291906123c9565b509160200191906001019061246f565b5b5090506124ab91906124cc565b5090565b5b808211156124c85760008160009055506001016124b0565b5090565b5b808211156124ec57600081816124e391906124f0565b506001016124cd565b5090565b5080546124fc90613077565b6000825580601f1061250e575061252d565b601f01602090049060005260206000209081019061252c91906124af565b5b50565b6000604051905090565b600080fd5b600080fd5b600073ffffffffffffffffffffffffffffffffffffffff82169050919050565b600061256f82612544565b9050919050565b61257f81612564565b811461258a57600080fd5b50565b60008135905061259c81612576565b92915050565b6000602082840312156125b8576125b761253a565b5b60006125c68482850161258d565b91505092915050565b6000819050919050565b6125e2816125cf565b82525050565b6125f181612564565b82525050565b600081519050919050565b600082825260208201905092915050565b60005b83811015612631578082015181840152602081019050612616565b83811115612640576000848401525b50505050565b6000601f19601f8301169050919050565b6000612662826125f7565b61266c8185612602565b935061267c818560208601612613565b61268581612646565b840191505092915050565b60008115159050919050565b6126a581612690565b82525050565b6000610100820190506126c1600083018b6125d9565b6126ce602083018a6125e8565b81810360408301526126e08189612657565b905081810360608301526126f48188612657565b905061270360808301876125d9565b61271060a08301866125d9565b61271d60c083018561269c565b61272a60e083018461269c565b9998505050505050505050565b600081519050919050565b600082825260208201905092915050565b6000819050602082019050919050565b600082825260208201905092915050565b600061277f826125f7565b6127898185612763565b9350612799818560208601612613565b6127a281612646565b840191505092915050565b60006127b98383612774565b905092915050565b6000602082019050919050565b60006127d982612737565b6127e38185612742565b9350836020820285016127f585612753565b8060005b85811015612831578484038952815161281285826127ad565b945061281d836127c1565b925060208a019950506001810190506127f9565b50829750879550505050505092915050565b6000602082019050818103600083015261285d81846127ce565b905092915050565b600060208201905061287a60008301846125d9565b92915050565b6000602082019050818103600083015261289a8184612657565b905092915050565b6128ab816125cf565b81146128b657600080fd5b50565b6000813590506128c8816128a2565b92915050565b6000602082840312156128e4576128e361253a565b5b60006128f2848285016128b9565b91505092915050565b600081519050919050565b600082825260208201905092915050565b6000819050602082019050919050565b612930816125cf565b82525050565b61293f81612564565b82525050565b61294e81612690565b82525050565b60006101008301600083015161296d6000860182612927565b5060208301516129806020860182612936565b50604083015184820360408601526129988282612774565b915050606083015184820360608601526129b28282612774565b91505060808301516129c76080860182612927565b5060a08301516129da60a0860182612927565b5060c08301516129ed60c0860182612945565b5060e0830151612a0060e0860182612945565b508091505092915050565b6000612a178383612954565b905092915050565b6000602082019050919050565b6000612a37826128fb565b612a418185612906565b935083602082028501612a5385612917565b8060005b85811015612a8f5784840389528151612a708582612a0b565b9450612a7b83612a1f565b925060208a01995050600181019050612a57565b50829750879550505050505092915050565b60006020820190508181036000830152612abb8184612a2c565b905092915050565b6000602082019050612ad8600083018461269c565b92915050565b6000602082019050612af360008301846125e8565b92915050565b600080fd5b600080fd5b7f4e487b7100000000000000000000000000000000000000000000000000000000600052604160045260246000fd5b612b3b82612646565b810181811067ffffffffffffffff82111715612b5a57612b59612b03565b5b80604052505050565b6000612b6d612530565b9050612b798282612b32565b919050565b600067ffffffffffffffff821115612b9957612b98612b03565b5b612ba282612646565b9050602081019050919050565b82818337600083830152505050565b6000612bd1612bcc84612b7e565b612b63565b905082815260208101848484011115612bed57612bec612afe565b5b612bf8848285612baf565b509392505050565b600082601f830112612c1557612c14612af9565b5b8135612c25848260208601612bbe565b91505092915050565b600080600060608486031215612c4757612c4661253a565b5b600084013567ffffffffffffffff811115612c6557612c6461253f565b5b612c7186828701612c00565b935050602084013567ffffffffffffffff811115612c9257612c9161253f565b5b612c9e86828701612c00565b9250506040612caf868287016128b9565b9150509250925092565b612cc281612690565b8114612ccd57600080fd5b50565b600081359050612cdf81612cb9565b92915050565b60008060408385031215612cfc57612cfb61253a565b5b6000612d0a85828601612cd0565b9250506020612d1b8582860161258d565b9150509250929050565b600060c082019050612d3a60008301896125e8565b8181036020830152612d4c8188612657565b90508181036040830152612d608187612657565b9050612d6f606083018661269c565b612d7c608083018561269c565b612d8960a083018461269c565b979650505050505050565b600067ffffffffffffffff821115612daf57612dae612b03565b5b602082029050602081019050919050565b600080fd5b6000612dd8612dd384612d94565b612b63565b90508083825260208201905060208402830185811115612dfb57612dfa612dc0565b5b835b81811015612e4257803567ffffffffffffffff811115612e2057612e1f612af9565b5b808601612e2d8982612c00565b85526020850194505050602081019050612dfd565b5050509392505050565b600082601f830112612e6157612e60612af9565b5b8135612e71848260208601612dc5565b91505092915050565b60008060008060008060008060006101208a8c031215612e9d57612e9c61253a565b5b60008a013567ffffffffffffffff811115612ebb57612eba61253f565b5b612ec78c828d01612c00565b99505060208a013567ffffffffffffffff811115612ee857612ee761253f565b5b612ef48c828d01612c00565b98505060408a013567ffffffffffffffff811115612f1557612f1461253f565b5b612f218c828d01612c00565b97505060608a013567ffffffffffffffff811115612f4257612f4161253f565b5b612f4e8c828d01612c00565b9650506080612f5f8c828d016128b9565b95505060a0612f708c828d016128b9565b94505060c0612f818c828d016128b9565b93505060e0612f928c828d016128b9565b9250506101008a013567ffffffffffffffff811115612fb457612fb361253f565b5b612fc08c828d01612e4c565b9150509295985092959850929598565b60008060408385031215612fe757612fe661253a565b5b600083013567ffffffffffffffff8111156130055761300461253f565b5b61301185828601612c00565b925050602083013567ffffffffffffffff8111156130325761303161253f565b5b61303e85828601612c00565b9150509250929050565b7f4e487b7100000000000000000000000000000000000000000000000000000000600052602260045260246000fd5b6000600282049050600182168061308f57607f821691505b602082108114156130a3576130a2613048565b5b50919050565b7f4e487b7100000000000000000000000000000000000000000000000000000000600052603260045260246000fd5b7f4e487b7100000000000000000000000000000000000000000000000000000000600052601160045260246000fd5b6000613112826125cf565b91507fffffffffffffffffffffffffffffffffffffffffffffffffffffffffffffffff821415613145576131446130d8565b5b600182019050919050565b7f526567697374726174696f6e206973206e6f7420737461727465642079657400600082015250565b6000613186601f83612602565b915061319182613150565b602082019050919050565b600060208201905081810360008301526131b581613179565b9050919050565b7f526567697374726174696f6e20697320616c726561647920656e6465642e0000600082015250565b60006131f2601e83612602565b91506131fd826131bc565b602082019050919050565b60006020820190508181036000830152613221816131e5565b9050919050565b6000613233826125cf565b915061323e836125cf565b9250827fffffffffffffffffffffffffffffffffffffffffffffffffffffffffffffffff03821115613273576132726130d8565b5b828201905092915050565b7f566f74696e67206973206e6f7420737461727465642079657400000000000000600082015250565b60006132b4601983612602565b91506132bf8261327e565b602082019050919050565b600060208201905081810360008301526132e3816132a7565b9050919050565b7f566f74696e6720697320616c726561647920656e646564000000000000000000600082015250565b6000613320601783612602565b915061332b826132ea565b602082019050919050565b6000602082019050818103600083015261334f81613313565b905091905056fea26469706673582212209dc4e352978366f4782777ce0af75cc6162d906754a542e116764995324b4b9d64736f6c634300080b0033",
  "linkReferences": {},
  "deployedLinkReferences": {}
}