{
  "_format": "hh-sol-artifact-1",
  "contractName": "Election",
  "sourceName": "contracts/Election.sol",
  "abi": [
    {
      "inputs": [],
      "stateMutability": "nonpayable",
      "type": "constructor"
    },
    {
      "inputs": [],
      "name": "admin",
      "outputs": [
        {
          "internalType": "address",
          "name": "",
          "type": "address"
        }
      ],
      "stateMutability": "view",
      "type": "function"
    },
    {
      "inputs": [
        {
          "internalType": "uint256",
          "name": "",
          "type": "uint256"
        }
      ],
      "name": "approvedCandidates",
      "outputs": [
        {
          "internalType": "address",
          "name": "",
          "type": "address"
        }
      ],
      "stateMutability": "view",
      "type": "function"
    },
    {
      "inputs": [
        {
          "internalType": "uint256",
          "name": "",
          "type": "uint256"
        }
      ],
      "name": "approvedVoters",
      "outputs": [
        {
          "internalType": "address",
          "name": "",
          "type": "address"
        }
      ],
      "stateMutability": "view",
      "type": "function"
    },
    {
      "inputs": [
        {
          "internalType": "address",
          "name": "",
          "type": "address"
        }
      ],
      "name": "candidateDetails",
      "outputs": [
        {
          "internalType": "uint256",
          "name": "candidateId",
          "type": "uint256"
        },
        {
          "internalType": "address",
          "name": "candidateAddress",
          "type": "address"
        },
        {
          "internalType": "string",
          "name": "header",
          "type": "string"
        },
        {
          "internalType": "string",
          "name": "slogan",
          "type": "string"
        },
        {
          "internalType": "uint256",
          "name": "voteCount",
          "type": "uint256"
        },
        {
          "internalType": "bool",
          "name": "isVerified",
          "type": "bool"
        },
        {
          "internalType": "bool",
          "name": "isRegistered",
          "type": "bool"
        }
      ],
      "stateMutability": "view",
      "type": "function"
    },
    {
      "inputs": [
        {
          "internalType": "uint256",
          "name": "",
          "type": "uint256"
        }
      ],
      "name": "candidates",
      "outputs": [
        {
          "internalType": "address",
          "name": "",
          "type": "address"
        }
      ],
      "stateMutability": "view",
      "type": "function"
    },
    {
      "inputs": [],
      "name": "getAdmin",
      "outputs": [
        {
          "internalType": "address",
          "name": "",
          "type": "address"
        }
      ],
      "stateMutability": "view",
      "type": "function"
    },
    {
      "inputs": [],
      "name": "getAdminEmail",
      "outputs": [
        {
          "internalType": "string",
          "name": "",
          "type": "string"
        }
      ],
      "stateMutability": "view",
      "type": "function"
    },
    {
      "inputs": [],
      "name": "getAdminName",
      "outputs": [
        {
          "internalType": "string",
          "name": "",
          "type": "string"
        }
      ],
      "stateMutability": "view",
      "type": "function"
    },
    {
      "inputs": [],
      "name": "getAdminTitle",
      "outputs": [
        {
          "internalType": "string",
          "name": "",
          "type": "string"
        }
      ],
      "stateMutability": "view",
      "type": "function"
    },
    {
      "inputs": [],
      "name": "getElectionTitles",
      "outputs": [
        {
          "internalType": "string[]",
          "name": "",
          "type": "string[]"
        }
      ],
      "stateMutability": "view",
      "type": "function"
    },
    {
      "inputs": [],
      "name": "getEnd",
      "outputs": [
        {
          "internalType": "bool",
          "name": "",
          "type": "bool"
        }
      ],
      "stateMutability": "view",
      "type": "function"
    },
    {
      "inputs": [],
      "name": "getOrganizationTitle",
      "outputs": [
        {
          "internalType": "string",
          "name": "",
          "type": "string"
        }
      ],
      "stateMutability": "view",
      "type": "function"
    },
    {
      "inputs": [],
      "name": "getRegistrationStatus",
      "outputs": [
        {
          "internalType": "bool",
          "name": "",
          "type": "bool"
        }
      ],
      "stateMutability": "view",
      "type": "function"
    },
    {
      "inputs": [],
      "name": "getStart",
      "outputs": [
        {
          "internalType": "bool",
          "name": "",
          "type": "bool"
        }
      ],
      "stateMutability": "view",
      "type": "function"
    },
    {
      "inputs": [],
      "name": "getTotalCandidate",
      "outputs": [
        {
          "internalType": "uint256",
          "name": "",
          "type": "uint256"
        }
      ],
      "stateMutability": "view",
      "type": "function"
    },
    {
      "inputs": [],
      "name": "getTotalVoter",
      "outputs": [
        {
          "internalType": "uint256",
          "name": "",
          "type": "uint256"
        }
      ],
      "stateMutability": "view",
      "type": "function"
    },
    {
      "inputs": [
        {
          "internalType": "address",
          "name": "_currentAddress",
          "type": "address"
        }
      ],
      "name": "getVoterStatusForCandidate",
      "outputs": [
        {
          "internalType": "bool",
          "name": "",
          "type": "bool"
        }
      ],
      "stateMutability": "view",
      "type": "function"
    },
    {
      "inputs": [],
      "name": "getWinner",
      "outputs": [
        {
          "internalType": "address",
          "name": "",
          "type": "address"
        }
      ],
      "stateMutability": "view",
      "type": "function"
    },
    {
      "inputs": [
        {
          "internalType": "string",
          "name": "_header",
          "type": "string"
        },
        {
          "internalType": "string",
          "name": "_slogan",
          "type": "string"
        }
      ],
      "name": "registerAsCandidate",
      "outputs": [],
      "stateMutability": "nonpayable",
      "type": "function"
    },
    {
      "inputs": [
        {
          "internalType": "string",
          "name": "_name",
          "type": "string"
        },
        {
          "internalType": "string",
          "name": "_phone",
          "type": "string"
        }
      ],
      "name": "registerAsVoter",
      "outputs": [],
      "stateMutability": "nonpayable",
      "type": "function"
    },
    {
      "inputs": [
        {
          "internalType": "string",
          "name": "_adminName",
          "type": "string"
        },
        {
          "internalType": "string",
          "name": "_adminEmail",
          "type": "string"
        },
        {
          "internalType": "string",
          "name": "_adminTitle",
          "type": "string"
        },
        {
          "internalType": "string",
          "name": "_organizationTitle",
          "type": "string"
        },
        {
          "internalType": "uint256",
          "name": "_votingStartTime",
          "type": "uint256"
        },
        {
          "internalType": "uint256",
          "name": "_votingEndTime",
          "type": "uint256"
        },
        {
          "internalType": "uint256",
          "name": "_registrationStartTime",
          "type": "uint256"
        },
        {
          "internalType": "uint256",
          "name": "_registrationEndTime",
          "type": "uint256"
        },
        {
          "internalType": "string[]",
          "name": "_elections",
          "type": "string[]"
        }
      ],
      "name": "setElectionDetails",
      "outputs": [],
      "stateMutability": "nonpayable",
      "type": "function"
    },
    {
      "inputs": [
        {
          "internalType": "bool",
          "name": "_verifedStatus",
          "type": "bool"
        },
        {
          "internalType": "address",
          "name": "candidateAddress",
          "type": "address"
        }
      ],
      "name": "verifyCandidate",
      "outputs": [],
      "stateMutability": "nonpayable",
      "type": "function"
    },
    {
      "inputs": [
        {
          "internalType": "bool",
          "name": "_verifedStatus",
          "type": "bool"
        },
        {
          "internalType": "address",
          "name": "voterAddress",
          "type": "address"
        }
      ],
      "name": "verifyVoter",
      "outputs": [],
      "stateMutability": "nonpayable",
      "type": "function"
    },
    {
      "inputs": [
        {
          "internalType": "address",
          "name": "_candidateAddress",
          "type": "address"
        }
      ],
      "name": "vote",
      "outputs": [],
      "stateMutability": "nonpayable",
      "type": "function"
    },
    {
      "inputs": [
        {
          "internalType": "address",
          "name": "",
          "type": "address"
        }
      ],
      "name": "voterDetails",
      "outputs": [
        {
          "internalType": "address",
          "name": "voterAddress",
          "type": "address"
        },
        {
          "internalType": "string",
          "name": "name",
          "type": "string"
        },
        {
          "internalType": "string",
          "name": "phone",
          "type": "string"
        },
        {
          "internalType": "bool",
          "name": "isVerified",
          "type": "bool"
        },
        {
          "internalType": "bool",
          "name": "hasVoted",
          "type": "bool"
        },
        {
          "internalType": "bool",
          "name": "isRegistered",
          "type": "bool"
        }
      ],
      "stateMutability": "view",
      "type": "function"
    },
    {
      "inputs": [
        {
          "internalType": "uint256",
          "name": "",
          "type": "uint256"
        }
      ],
      "name": "voters",
      "outputs": [
        {
          "internalType": "address",
          "name": "",
          "type": "address"
        }
      ],
      "stateMutability": "view",
      "type": "function"
    }
  ],
  "bytecode": "0x608060405234801561001057600080fd5b5033600360006101000a81548173ffffffffffffffffffffffffffffffffffffffff021916908373ffffffffffffffffffffffffffffffffffffffff1602179055506000600281905550600060018190555060008060026101000a81548160ff02191690831515021790555060008060036101000a81548160ff02191690831515021790555060008060006101000a81548160ff02191690831515021790555060008060016101000a81548160ff0219169083151502179055506127e2806100d96000396000f3fe608060405234801561001057600080fd5b506004361061018e5760003560e01c80636e9960c3116100de578063c3a171a211610097578063da58c7d911610071578063da58c7d914610494578063e35fb241146104c4578063f851a440146104e2578063fee0d19a146105005761018e565b8063c3a171a21461043e578063c5292c671461045a578063cad43b48146104785761018e565b80636e9960c314610378578063831318f1146103965780638e7ea5b2146103b45780639f05a36d146103d2578063aed93010146103f0578063be081b6f146104205761018e565b80633f66f48b1161014b5780635938750d116101255780635938750d146102d95780635fcdd8a11461030e57806364d198a11461033e5780636dd7d8ea1461035c5761018e565b80633f66f48b1461026f578063483431751461029f578063506b8e0a146102bd5761018e565b806304b8789b1461019357806305e73ced146101af5780630712aa05146101e55780630b93400e146102035780630e2354cf146102215780633477ee2e1461023f575b600080fd5b6101ad60048036038101906101a89190611d42565b61051c565b005b6101c960048036038101906101c49190611e18565b610796565b6040516101dc9796959493929190611f10565b60405180910390f35b6101ed610922565b6040516101fa9190612099565b60405180910390f35b61020b610a74565b60405161021891906120bb565b60405180910390f35b610229610a7e565b60405161023691906120d6565b60405180910390f35b61025960048036038101906102549190612124565b610b13565b6040516102669190612151565b60405180910390f35b61028960048036038101906102849190612124565b610b52565b6040516102969190612151565b60405180910390f35b6102a7610b91565b6040516102b491906120d6565b60405180910390f35b6102d760048036038101906102d29190612198565b610c26565b005b6102f360048036038101906102ee9190611e18565b610d41565b604051610305969594939291906121d8565b60405180910390f35b61032860048036038101906103239190611e18565b610ed4565b6040516103359190612247565b60405180910390f35b610346610f83565b60405161035391906120bb565b60405180910390f35b61037660048036038101906103719190611e18565b610f8d565b005b61038061118f565b60405161038d9190612151565b60405180910390f35b61039e6111b9565b6040516103ab91906120d6565b60405180910390f35b6103bc61124e565b6040516103c99190612151565b60405180910390f35b6103da61131e565b6040516103e79190612247565b60405180910390f35b61040a60048036038101906104059190612124565b611334565b6040516104179190612151565b60405180910390f35b610428611373565b60405161043591906120d6565b60405180910390f35b61045860048036038101906104539190612348565b611408565b005b61046261163b565b60405161046f9190612247565b60405180910390f35b610492600480360381019061048d9190612198565b611651565b005b6104ae60048036038101906104a99190612124565b61176c565b6040516104bb9190612151565b60405180910390f35b6104cc6117ab565b6040516104d99190612247565b60405180910390f35b6104ea6117dc565b6040516104f79190612151565b60405180910390f35b61051a60048036038101906105159190611d42565b611802565b005b600a54421015610561576040517f08c379a0000000000000000000000000000000000000000000000000000000008152600401610558906124ea565b60405180910390fd5b600b544211156105a6576040517f08c379a000000000000000000000000000000000000000000000000000000000815260040161059d90612556565b60405180910390fd5b60006040518060e0016040528060025481526020013373ffffffffffffffffffffffffffffffffffffffff1681526020018481526020018381526020016000815260200160001515815260200160011515815250905080600960003373ffffffffffffffffffffffffffffffffffffffff1673ffffffffffffffffffffffffffffffffffffffff1681526020019081526020016000206000820151816000015560208201518160010160006101000a81548173ffffffffffffffffffffffffffffffffffffffff021916908373ffffffffffffffffffffffffffffffffffffffff16021790555060408201518160020190805190602001906106a9929190611a81565b5060608201518160030190805190602001906106c6929190611a81565b506080820151816004015560a08201518160050160006101000a81548160ff02191690831515021790555060c08201518160050160016101000a81548160ff0219169083151502179055509050506005339080600181540180825580915050600190039060005260206000200160009091909190916101000a81548173ffffffffffffffffffffffffffffffffffffffff021916908373ffffffffffffffffffffffffffffffffffffffff16021790555060016002600082825461078a91906125a5565b92505081905550505050565b60096020528060005260406000206000915090508060000154908060010160009054906101000a900473ffffffffffffffffffffffffffffffffffffffff16908060020180546107e59061262a565b80601f01602080910402602001604051908101604052809291908181526020018280546108119061262a565b801561085e5780601f106108335761010080835404028352916020019161085e565b820191906000526020600020905b81548152906001019060200180831161084157829003601f168201915b5050505050908060030180546108739061262a565b80601f016020809104026020016040519081016040528092919081815260200182805461089f9061262a565b80156108ec5780601f106108c1576101008083540402835291602001916108ec565b820191906000526020600020905b8154815290600101906020018083116108cf57829003601f168201915b5050505050908060040154908060050160009054906101000a900460ff16908060050160019054906101000a900460ff16905087565b60606000600e6008018054905067ffffffffffffffff81111561094857610947611c17565b5b60405190808252806020026020018201604052801561097b57816020015b60608152602001906001900390816109665790505b50905060005b600e60080180549050811015610a6c57600e60080181815481106109a8576109a761265c565b5b9060005260206000200180546109bd9061262a565b80601f01602080910402602001604051908101604052809291908181526020018280546109e99061262a565b8015610a365780601f10610a0b57610100808354040283529160200191610a36565b820191906000526020600020905b815481529060010190602001808311610a1957829003601f168201915b5050505050828281518110610a4e57610a4d61265c565b5b60200260200101819052508080610a649061268b565b915050610981565b508091505090565b6000600154905090565b6060600e6000018054610a909061262a565b80601f0160208091040260200160405190810160405280929190818152602001828054610abc9061262a565b8015610b095780601f10610ade57610100808354040283529160200191610b09565b820191906000526020600020905b815481529060010190602001808311610aec57829003601f168201915b5050505050905090565b60058181548110610b2357600080fd5b906000526020600020016000915054906101000a900473ffffffffffffffffffffffffffffffffffffffff1681565b60078181548110610b6257600080fd5b906000526020600020016000915054906101000a900473ffffffffffffffffffffffffffffffffffffffff1681565b6060600e6003018054610ba39061262a565b80601f0160208091040260200160405190810160405280929190818152602001828054610bcf9061262a565b8015610c1c5780601f10610bf157610100808354040283529160200191610c1c565b820191906000526020600020905b815481529060010190602001808311610bff57829003601f168201915b5050505050905090565b600360009054906101000a900473ffffffffffffffffffffffffffffffffffffffff1673ffffffffffffffffffffffffffffffffffffffff163373ffffffffffffffffffffffffffffffffffffffff1614610c8057600080fd5b81600860008373ffffffffffffffffffffffffffffffffffffffff1673ffffffffffffffffffffffffffffffffffffffff16815260200190815260200160002060030160006101000a81548160ff0219169083151502179055506006819080600181540180825580915050600190039060005260206000200160009091909190916101000a81548173ffffffffffffffffffffffffffffffffffffffff021916908373ffffffffffffffffffffffffffffffffffffffff1602179055505050565b60086020528060005260406000206000915090508060000160009054906101000a900473ffffffffffffffffffffffffffffffffffffffff1690806001018054610d8a9061262a565b80601f0160208091040260200160405190810160405280929190818152602001828054610db69061262a565b8015610e035780601f10610dd857610100808354040283529160200191610e03565b820191906000526020600020905b815481529060010190602001808311610de657829003601f168201915b505050505090806002018054610e189061262a565b80601f0160208091040260200160405190810160405280929190818152602001828054610e449061262a565b8015610e915780601f10610e6657610100808354040283529160200191610e91565b820191906000526020600020905b815481529060010190602001808311610e7457829003601f168201915b5050505050908060030160009054906101000a900460ff16908060030160019054906101000a900460ff16908060030160029054906101000a900460ff16905086565b6000806000905060005b600680549050811015610f795760068181548110610eff57610efe61265c565b5b9060005260206000200160009054906101000a900473ffffffffffffffffffffffffffffffffffffffff1673ffffffffffffffffffffffffffffffffffffffff168473ffffffffffffffffffffffffffffffffffffffff161415610f665760019150610f79565b8080610f719061268b565b915050610ede565b5080915050919050565b6000600254905090565b600c54421015610fd2576040517f08c379a0000000000000000000000000000000000000000000000000000000008152600401610fc990612720565b60405180910390fd5b600d54421115611017576040517f08c379a000000000000000000000000000000000000000000000000000000000815260040161100e9061278c565b60405180910390fd5b60001515600860003373ffffffffffffffffffffffffffffffffffffffff1673ffffffffffffffffffffffffffffffffffffffff16815260200190815260200160002060030160019054906101000a900460ff1615151461107757600080fd5b60011515600860003373ffffffffffffffffffffffffffffffffffffffff1673ffffffffffffffffffffffffffffffffffffffff16815260200190815260200160002060030160009054906101000a900460ff161515146110d757600080fd5b6001600960008373ffffffffffffffffffffffffffffffffffffffff1673ffffffffffffffffffffffffffffffffffffffff168152602001908152602001600020600401600082825461112a91906125a5565b925050819055506001600860003373ffffffffffffffffffffffffffffffffffffffff1673ffffffffffffffffffffffffffffffffffffffff16815260200190815260200160002060030160016101000a81548160ff02191690831515021790555050565b6000600360009054906101000a900473ffffffffffffffffffffffffffffffffffffffff16905090565b6060600e60010180546111cb9061262a565b80601f01602080910402602001604051908101604052809291908181526020018280546111f79061262a565b80156112445780601f1061121957610100808354040283529160200191611244565b820191906000526020600020905b81548152906001019060200180831161122757829003601f168201915b5050505050905090565b60008060009050600080600090505b6002548110156113155760006005828154811061127d5761127c61265c565b5b9060005260206000200160009054906101000a900473ffffffffffffffffffffffffffffffffffffffff1690506000600960008373ffffffffffffffffffffffffffffffffffffffff1673ffffffffffffffffffffffffffffffffffffffff16815260200190815260200160002060040154905084811115611300578094508193505b5050808061130d9061268b565b91505061125d565b50809250505090565b60008060019054906101000a900460ff16905090565b6006818154811061134457600080fd5b906000526020600020016000915054906101000a900473ffffffffffffffffffffffffffffffffffffffff1681565b6060600e60020180546113859061262a565b80601f01602080910402602001604051908101604052809291908181526020018280546113b19061262a565b80156113fe5780601f106113d3576101008083540402835291602001916113fe565b820191906000526020600020905b8154815290600101906020018083116113e157829003601f168201915b5050505050905090565b600360009054906101000a900473ffffffffffffffffffffffffffffffffffffffff1673ffffffffffffffffffffffffffffffffffffffff163373ffffffffffffffffffffffffffffffffffffffff161461146257600080fd5b6000815167ffffffffffffffff81111561147f5761147e611c17565b5b6040519080825280602002602001820160405280156114b257816020015b606081526020019060019003908161149d5790505b50905060005b825181101561150d578281815181106114d4576114d361265c565b5b60200260200101518282815181106114ef576114ee61265c565b5b602002602001018190525080806115059061268b565b9150506114b8565b5060006040518061012001604052808c81526020018b81526020018a815260200189815260200188815260200187815260200186815260200185815260200183815250905080600e6000820151816000019080519060200190611571929190611a81565b50602082015181600101908051906020019061158e929190611a81565b5060408201518160020190805190602001906115ab929190611a81565b5060608201518160030190805190602001906115c8929190611a81565b506080820151816004015560a0820151816005015560c0820151816006015560e0820151816007015561010082015181600801908051906020019061160e929190611b07565b5090505084600a8190555083600b8190555086600c8190555085600d819055505050505050505050505050565b60008060009054906101000a900460ff16905090565b600360009054906101000a900473ffffffffffffffffffffffffffffffffffffffff1673ffffffffffffffffffffffffffffffffffffffff163373ffffffffffffffffffffffffffffffffffffffff16146116ab57600080fd5b81600960008373ffffffffffffffffffffffffffffffffffffffff1673ffffffffffffffffffffffffffffffffffffffff16815260200190815260200160002060050160006101000a81548160ff0219169083151502179055506007819080600181540180825580915050600190039060005260206000200160009091909190916101000a81548173ffffffffffffffffffffffffffffffffffffffff021916908373ffffffffffffffffffffffffffffffffffffffff1602179055505050565b6004818154811061177c57600080fd5b906000526020600020016000915054906101000a900473ffffffffffffffffffffffffffffffffffffffff1681565b600080600a5442101580156117c25750600b544211155b156117d057600190506117d5565b600090505b8091505090565b600360009054906101000a900473ffffffffffffffffffffffffffffffffffffffff1681565b600a54421015611847576040517f08c379a000000000000000000000000000000000000000000000000000000000815260040161183e906124ea565b60405180910390fd5b600b5442111561188c576040517f08c379a000000000000000000000000000000000000000000000000000000000815260040161188390612556565b60405180910390fd5b60006040518060c001604052803373ffffffffffffffffffffffffffffffffffffffff16815260200184815260200183815260200160001515815260200160001515815260200160011515815250905080600860003373ffffffffffffffffffffffffffffffffffffffff1673ffffffffffffffffffffffffffffffffffffffff16815260200190815260200160002060008201518160000160006101000a81548173ffffffffffffffffffffffffffffffffffffffff021916908373ffffffffffffffffffffffffffffffffffffffff160217905550602082015181600101908051906020019061197f929190611a81565b50604082015181600201908051906020019061199c929190611a81565b5060608201518160030160006101000a81548160ff02191690831515021790555060808201518160030160016101000a81548160ff02191690831515021790555060a08201518160030160026101000a81548160ff0219169083151502179055509050506004339080600181540180825580915050600190039060005260206000200160009091909190916101000a81548173ffffffffffffffffffffffffffffffffffffffff021916908373ffffffffffffffffffffffffffffffffffffffff1602179055506001806000828254611a7591906125a5565b92505081905550505050565b828054611a8d9061262a565b90600052602060002090601f016020900481019282611aaf5760008555611af6565b82601f10611ac857805160ff1916838001178555611af6565b82800160010185558215611af6579182015b82811115611af5578251825591602001919060010190611ada565b5b509050611b039190611b67565b5090565b828054828255906000526020600020908101928215611b56579160200282015b82811115611b55578251829080519060200190611b45929190611a81565b5091602001919060010190611b27565b5b509050611b639190611b84565b5090565b5b80821115611b80576000816000905550600101611b68565b5090565b5b80821115611ba45760008181611b9b9190611ba8565b50600101611b85565b5090565b508054611bb49061262a565b6000825580601f10611bc65750611be5565b601f016020900490600052602060002090810190611be49190611b67565b5b50565b6000604051905090565b600080fd5b600080fd5b600080fd5b600080fd5b6000601f19601f8301169050919050565b7f4e487b7100000000000000000000000000000000000000000000000000000000600052604160045260246000fd5b611c4f82611c06565b810181811067ffffffffffffffff82111715611c6e57611c6d611c17565b5b80604052505050565b6000611c81611be8565b9050611c8d8282611c46565b919050565b600067ffffffffffffffff821115611cad57611cac611c17565b5b611cb682611c06565b9050602081019050919050565b82818337600083830152505050565b6000611ce5611ce084611c92565b611c77565b905082815260208101848484011115611d0157611d00611c01565b5b611d0c848285611cc3565b509392505050565b600082601f830112611d2957611d28611bfc565b5b8135611d39848260208601611cd2565b91505092915050565b60008060408385031215611d5957611d58611bf2565b5b600083013567ffffffffffffffff811115611d7757611d76611bf7565b5b611d8385828601611d14565b925050602083013567ffffffffffffffff811115611da457611da3611bf7565b5b611db085828601611d14565b9150509250929050565b600073ffffffffffffffffffffffffffffffffffffffff82169050919050565b6000611de582611dba565b9050919050565b611df581611dda565b8114611e0057600080fd5b50565b600081359050611e1281611dec565b92915050565b600060208284031215611e2e57611e2d611bf2565b5b6000611e3c84828501611e03565b91505092915050565b6000819050919050565b611e5881611e45565b82525050565b611e6781611dda565b82525050565b600081519050919050565b600082825260208201905092915050565b60005b83811015611ea7578082015181840152602081019050611e8c565b83811115611eb6576000848401525b50505050565b6000611ec782611e6d565b611ed18185611e78565b9350611ee1818560208601611e89565b611eea81611c06565b840191505092915050565b60008115159050919050565b611f0a81611ef5565b82525050565b600060e082019050611f25600083018a611e4f565b611f326020830189611e5e565b8181036040830152611f448188611ebc565b90508181036060830152611f588187611ebc565b9050611f676080830186611e4f565b611f7460a0830185611f01565b611f8160c0830184611f01565b98975050505050505050565b600081519050919050565b600082825260208201905092915050565b6000819050602082019050919050565b600082825260208201905092915050565b6000611fd582611e6d565b611fdf8185611fb9565b9350611fef818560208601611e89565b611ff881611c06565b840191505092915050565b600061200f8383611fca565b905092915050565b6000602082019050919050565b600061202f82611f8d565b6120398185611f98565b93508360208202850161204b85611fa9565b8060005b8581101561208757848403895281516120688582612003565b945061207383612017565b925060208a0199505060018101905061204f565b50829750879550505050505092915050565b600060208201905081810360008301526120b38184612024565b905092915050565b60006020820190506120d06000830184611e4f565b92915050565b600060208201905081810360008301526120f08184611ebc565b905092915050565b61210181611e45565b811461210c57600080fd5b50565b60008135905061211e816120f8565b92915050565b60006020828403121561213a57612139611bf2565b5b60006121488482850161210f565b91505092915050565b60006020820190506121666000830184611e5e565b92915050565b61217581611ef5565b811461218057600080fd5b50565b6000813590506121928161216c565b92915050565b600080604083850312156121af576121ae611bf2565b5b60006121bd85828601612183565b92505060206121ce85828601611e03565b9150509250929050565b600060c0820190506121ed6000830189611e5e565b81810360208301526121ff8188611ebc565b905081810360408301526122138187611ebc565b90506122226060830186611f01565b61222f6080830185611f01565b61223c60a0830184611f01565b979650505050505050565b600060208201905061225c6000830184611f01565b92915050565b600067ffffffffffffffff82111561227d5761227c611c17565b5b602082029050602081019050919050565b600080fd5b60006122a66122a184612262565b611c77565b905080838252602082019050602084028301858111156122c9576122c861228e565b5b835b8181101561231057803567ffffffffffffffff8111156122ee576122ed611bfc565b5b8086016122fb8982611d14565b855260208501945050506020810190506122cb565b5050509392505050565b600082601f83011261232f5761232e611bfc565b5b813561233f848260208601612293565b91505092915050565b60008060008060008060008060006101208a8c03121561236b5761236a611bf2565b5b60008a013567ffffffffffffffff81111561238957612388611bf7565b5b6123958c828d01611d14565b99505060208a013567ffffffffffffffff8111156123b6576123b5611bf7565b5b6123c28c828d01611d14565b98505060408a013567ffffffffffffffff8111156123e3576123e2611bf7565b5b6123ef8c828d01611d14565b97505060608a013567ffffffffffffffff8111156124105761240f611bf7565b5b61241c8c828d01611d14565b965050608061242d8c828d0161210f565b95505060a061243e8c828d0161210f565b94505060c061244f8c828d0161210f565b93505060e06124608c828d0161210f565b9250506101008a013567ffffffffffffffff81111561248257612481611bf7565b5b61248e8c828d0161231a565b9150509295985092959850929598565b7f526567697374726174696f6e206973206e6f7420737461727465642079657400600082015250565b60006124d4601f83611e78565b91506124df8261249e565b602082019050919050565b60006020820190508181036000830152612503816124c7565b9050919050565b7f526567697374726174696f6e20697320616c726561647920656e6465642e0000600082015250565b6000612540601e83611e78565b915061254b8261250a565b602082019050919050565b6000602082019050818103600083015261256f81612533565b9050919050565b7f4e487b7100000000000000000000000000000000000000000000000000000000600052601160045260246000fd5b60006125b082611e45565b91506125bb83611e45565b9250827fffffffffffffffffffffffffffffffffffffffffffffffffffffffffffffffff038211156125f0576125ef612576565b5b828201905092915050565b7f4e487b7100000000000000000000000000000000000000000000000000000000600052602260045260246000fd5b6000600282049050600182168061264257607f821691505b60208210811415612656576126556125fb565b5b50919050565b7f4e487b7100000000000000000000000000000000000000000000000000000000600052603260045260246000fd5b600061269682611e45565b91507fffffffffffffffffffffffffffffffffffffffffffffffffffffffffffffffff8214156126c9576126c8612576565b5b600182019050919050565b7f566f74696e67206973206e6f7420737461727465642079657400000000000000600082015250565b600061270a601983611e78565b9150612715826126d4565b602082019050919050565b60006020820190508181036000830152612739816126fd565b9050919050565b7f566f74696e6720697320616c726561647920656e646564000000000000000000600082015250565b6000612776601783611e78565b915061278182612740565b602082019050919050565b600060208201905081810360008301526127a581612769565b905091905056fea26469706673582212203baa581dc8dca060c93f1c85f5d91797b6bb4c4a87a87bb8a9d12da2d5a0a91864736f6c634300080b0033",
  "linkReferences": {},
  "deployedLinkReferences": {}
}