{
  "_format": "hh-sol-artifact-1",
  "contractName": "Election",
  "sourceName": "contracts/Election.sol",
  "abi": [
    {
      "inputs": [],
      "stateMutability": "nonpayable",
      "type": "constructor"
    },
    {
      "inputs": [],
      "name": "admin",
      "outputs": [
        {
          "internalType": "address",
          "name": "",
          "type": "address"
        }
      ],
      "stateMutability": "view",
      "type": "function"
    },
    {
      "inputs": [
        {
          "internalType": "uint256",
          "name": "",
          "type": "uint256"
        }
      ],
      "name": "approvedCandidates",
      "outputs": [
        {
          "internalType": "address",
          "name": "",
          "type": "address"
        }
      ],
      "stateMutability": "view",
      "type": "function"
    },
    {
      "inputs": [
        {
          "internalType": "uint256",
          "name": "",
          "type": "uint256"
        }
      ],
      "name": "approvedVoters",
      "outputs": [
        {
          "internalType": "address",
          "name": "",
          "type": "address"
        }
      ],
      "stateMutability": "view",
      "type": "function"
    },
    {
      "inputs": [
        {
          "internalType": "address",
          "name": "",
          "type": "address"
        }
      ],
      "name": "candidateDetails",
      "outputs": [
        {
          "internalType": "uint256",
          "name": "candidateId",
          "type": "uint256"
        },
        {
          "internalType": "address",
          "name": "candidateAddress",
          "type": "address"
        },
        {
          "internalType": "string",
          "name": "header",
          "type": "string"
        },
        {
          "internalType": "string",
          "name": "slogan",
          "type": "string"
        },
        {
          "internalType": "uint256",
          "name": "electionTitleIndex",
          "type": "uint256"
        },
        {
          "internalType": "uint256",
          "name": "voteCount",
          "type": "uint256"
        },
        {
          "internalType": "bool",
          "name": "isVerified",
          "type": "bool"
        },
        {
          "internalType": "bool",
          "name": "isRegistered",
          "type": "bool"
        }
      ],
      "stateMutability": "view",
      "type": "function"
    },
    {
      "inputs": [
        {
          "internalType": "uint256",
          "name": "",
          "type": "uint256"
        }
      ],
      "name": "candidates",
      "outputs": [
        {
          "internalType": "address",
          "name": "",
          "type": "address"
        }
      ],
      "stateMutability": "view",
      "type": "function"
    },
    {
      "inputs": [
        {
          "internalType": "uint256",
          "name": "_electionTitleIndex",
          "type": "uint256"
        }
      ],
      "name": "checkForSingleElectionAndCandidate",
      "outputs": [
        {
          "internalType": "bool",
          "name": "",
          "type": "bool"
        }
      ],
      "stateMutability": "view",
      "type": "function"
    },
    {
      "inputs": [],
      "name": "getAdmin",
      "outputs": [
        {
          "internalType": "address",
          "name": "",
          "type": "address"
        }
      ],
      "stateMutability": "view",
      "type": "function"
    },
    {
      "inputs": [],
      "name": "getAdminEmail",
      "outputs": [
        {
          "internalType": "string",
          "name": "",
          "type": "string"
        }
      ],
      "stateMutability": "view",
      "type": "function"
    },
    {
      "inputs": [],
      "name": "getAdminName",
      "outputs": [
        {
          "internalType": "string",
          "name": "",
          "type": "string"
        }
      ],
      "stateMutability": "view",
      "type": "function"
    },
    {
      "inputs": [],
      "name": "getAdminTitle",
      "outputs": [
        {
          "internalType": "string",
          "name": "",
          "type": "string"
        }
      ],
      "stateMutability": "view",
      "type": "function"
    },
    {
      "inputs": [
        {
          "internalType": "address",
          "name": "_currentAddress",
          "type": "address"
        }
      ],
      "name": "getAlreadyRegisteredCandidateStatus",
      "outputs": [
        {
          "internalType": "bool",
          "name": "",
          "type": "bool"
        }
      ],
      "stateMutability": "view",
      "type": "function"
    },
    {
      "inputs": [
        {
          "internalType": "uint256",
          "name": "_electionTitleIndex",
          "type": "uint256"
        }
      ],
      "name": "getCandidateCountForAsscociatedElection",
      "outputs": [
        {
          "internalType": "uint256",
          "name": "",
          "type": "uint256"
        }
      ],
      "stateMutability": "view",
      "type": "function"
    },
    {
      "inputs": [
        {
          "internalType": "uint256",
          "name": "_electionTitleIndex",
          "type": "uint256"
        }
      ],
      "name": "getCandidatesForAssociatedElections",
      "outputs": [
        {
          "components": [
            {
              "internalType": "uint256",
              "name": "candidateId",
              "type": "uint256"
            },
            {
              "internalType": "address",
              "name": "candidateAddress",
              "type": "address"
            },
            {
              "internalType": "string",
              "name": "header",
              "type": "string"
            },
            {
              "internalType": "string",
              "name": "slogan",
              "type": "string"
            },
            {
              "internalType": "uint256",
              "name": "electionTitleIndex",
              "type": "uint256"
            },
            {
              "internalType": "uint256",
              "name": "voteCount",
              "type": "uint256"
            },
            {
              "internalType": "bool",
              "name": "isVerified",
              "type": "bool"
            },
            {
              "internalType": "bool",
              "name": "isRegistered",
              "type": "bool"
            }
          ],
          "internalType": "struct Election.Candidate[]",
          "name": "",
          "type": "tuple[]"
        }
      ],
      "stateMutability": "view",
      "type": "function"
    },
    {
      "inputs": [
        {
          "internalType": "uint256",
          "name": "_timeStamp",
          "type": "uint256"
        }
      ],
      "name": "getElectionEndedStatus",
      "outputs": [
        {
          "internalType": "bool",
          "name": "",
          "type": "bool"
        }
      ],
      "stateMutability": "view",
      "type": "function"
    },
    {
      "inputs": [],
      "name": "getElectionInitStatus",
      "outputs": [
        {
          "internalType": "bool",
          "name": "",
          "type": "bool"
        }
      ],
      "stateMutability": "view",
      "type": "function"
    },
    {
      "inputs": [
        {
          "internalType": "uint256",
          "name": "_timeStamp",
          "type": "uint256"
        }
      ],
      "name": "getElectionStatus",
      "outputs": [
        {
          "internalType": "bool",
          "name": "",
          "type": "bool"
        }
      ],
      "stateMutability": "view",
      "type": "function"
    },
    {
      "inputs": [],
      "name": "getElectionTitles",
      "outputs": [
        {
          "internalType": "string[]",
          "name": "",
          "type": "string[]"
        }
      ],
      "stateMutability": "view",
      "type": "function"
    },
    {
      "inputs": [],
      "name": "getOrganizationTitle",
      "outputs": [
        {
          "internalType": "string",
          "name": "",
          "type": "string"
        }
      ],
      "stateMutability": "view",
      "type": "function"
    },
    {
      "inputs": [],
      "name": "getRegistrationEndTime",
      "outputs": [
        {
          "internalType": "uint256",
          "name": "",
          "type": "uint256"
        }
      ],
      "stateMutability": "view",
      "type": "function"
    },
    {
      "inputs": [
        {
          "internalType": "uint256",
          "name": "_timeStamp",
          "type": "uint256"
        }
      ],
      "name": "getRegistrationEndedStatus",
      "outputs": [
        {
          "internalType": "bool",
          "name": "",
          "type": "bool"
        }
      ],
      "stateMutability": "view",
      "type": "function"
    },
    {
      "inputs": [],
      "name": "getRegistrationStartTime",
      "outputs": [
        {
          "internalType": "uint256",
          "name": "",
          "type": "uint256"
        }
      ],
      "stateMutability": "view",
      "type": "function"
    },
    {
      "inputs": [
        {
          "internalType": "uint256",
          "name": "_timeStamp",
          "type": "uint256"
        }
      ],
      "name": "getRegistrationStartedStatus",
      "outputs": [
        {
          "internalType": "bool",
          "name": "",
          "type": "bool"
        }
      ],
      "stateMutability": "view",
      "type": "function"
    },
    {
      "inputs": [
        {
          "internalType": "uint256",
          "name": "_timeStamp",
          "type": "uint256"
        }
      ],
      "name": "getRegistrationStatus",
      "outputs": [
        {
          "internalType": "bool",
          "name": "",
          "type": "bool"
        }
      ],
      "stateMutability": "view",
      "type": "function"
    },
    {
      "inputs": [],
      "name": "getTotalCandidate",
      "outputs": [
        {
          "internalType": "uint256",
          "name": "",
          "type": "uint256"
        }
      ],
      "stateMutability": "view",
      "type": "function"
    },
    {
      "inputs": [],
      "name": "getTotalVoter",
      "outputs": [
        {
          "internalType": "uint256",
          "name": "",
          "type": "uint256"
        }
      ],
      "stateMutability": "view",
      "type": "function"
    },
    {
      "inputs": [
        {
          "internalType": "address",
          "name": "_currentAddress",
          "type": "address"
        }
      ],
      "name": "getVoterStatusForCandidate",
      "outputs": [
        {
          "internalType": "bool",
          "name": "",
          "type": "bool"
        }
      ],
      "stateMutability": "view",
      "type": "function"
    },
    {
      "inputs": [],
      "name": "getVotingEndTime",
      "outputs": [
        {
          "internalType": "uint256",
          "name": "",
          "type": "uint256"
        }
      ],
      "stateMutability": "view",
      "type": "function"
    },
    {
      "inputs": [],
      "name": "getVotingStartTime",
      "outputs": [
        {
          "internalType": "uint256",
          "name": "",
          "type": "uint256"
        }
      ],
      "stateMutability": "view",
      "type": "function"
    },
    {
      "inputs": [],
      "name": "getWinner",
      "outputs": [
        {
          "internalType": "address",
          "name": "",
          "type": "address"
        }
      ],
      "stateMutability": "view",
      "type": "function"
    },
    {
      "inputs": [
        {
          "internalType": "string",
          "name": "_header",
          "type": "string"
        },
        {
          "internalType": "string",
          "name": "_slogan",
          "type": "string"
        },
        {
          "internalType": "uint256",
          "name": "_electionTitleIndex",
          "type": "uint256"
        }
      ],
      "name": "registerAsCandidate",
      "outputs": [],
      "stateMutability": "nonpayable",
      "type": "function"
    },
    {
      "inputs": [
        {
          "internalType": "string",
          "name": "_name",
          "type": "string"
        },
        {
          "internalType": "string",
          "name": "_phone",
          "type": "string"
        }
      ],
      "name": "registerAsVoter",
      "outputs": [],
      "stateMutability": "nonpayable",
      "type": "function"
    },
    {
      "inputs": [
        {
          "internalType": "string",
          "name": "_adminName",
          "type": "string"
        },
        {
          "internalType": "string",
          "name": "_adminEmail",
          "type": "string"
        },
        {
          "internalType": "string",
          "name": "_adminTitle",
          "type": "string"
        },
        {
          "internalType": "string",
          "name": "_organizationTitle",
          "type": "string"
        },
        {
          "internalType": "uint256",
          "name": "_votingStartTime",
          "type": "uint256"
        },
        {
          "internalType": "uint256",
          "name": "_votingEndTime",
          "type": "uint256"
        },
        {
          "internalType": "uint256",
          "name": "_registrationStartTime",
          "type": "uint256"
        },
        {
          "internalType": "uint256",
          "name": "_registrationEndTime",
          "type": "uint256"
        },
        {
          "internalType": "string[]",
          "name": "_elections",
          "type": "string[]"
        }
      ],
      "name": "setElectionDetails",
      "outputs": [],
      "stateMutability": "nonpayable",
      "type": "function"
    },
    {
      "inputs": [
        {
          "internalType": "bool",
          "name": "_verifedStatus",
          "type": "bool"
        },
        {
          "internalType": "address",
          "name": "candidateAddress",
          "type": "address"
        }
      ],
      "name": "verifyCandidate",
      "outputs": [],
      "stateMutability": "nonpayable",
      "type": "function"
    },
    {
      "inputs": [
        {
          "internalType": "bool",
          "name": "_verifedStatus",
          "type": "bool"
        },
        {
          "internalType": "address",
          "name": "voterAddress",
          "type": "address"
        }
      ],
      "name": "verifyVoter",
      "outputs": [],
      "stateMutability": "nonpayable",
      "type": "function"
    },
    {
      "inputs": [
        {
          "internalType": "address",
          "name": "_candidateAddress",
          "type": "address"
        },
        {
          "internalType": "uint256",
          "name": "_electionTitleIndex",
          "type": "uint256"
        }
      ],
      "name": "vote",
      "outputs": [],
      "stateMutability": "nonpayable",
      "type": "function"
    },
    {
      "inputs": [
        {
          "internalType": "address",
          "name": "",
          "type": "address"
        }
      ],
      "name": "voterDetails",
      "outputs": [
        {
          "internalType": "address",
          "name": "voterAddress",
          "type": "address"
        },
        {
          "internalType": "string",
          "name": "name",
          "type": "string"
        },
        {
          "internalType": "string",
          "name": "phone",
          "type": "string"
        },
        {
          "internalType": "bool",
          "name": "isVerified",
          "type": "bool"
        },
        {
          "internalType": "bool",
          "name": "hasVoted",
          "type": "bool"
        },
        {
          "internalType": "bool",
          "name": "isRegistered",
          "type": "bool"
        }
      ],
      "stateMutability": "view",
      "type": "function"
    },
    {
      "inputs": [
        {
          "internalType": "uint256",
          "name": "",
          "type": "uint256"
        }
      ],
      "name": "voters",
      "outputs": [
        {
          "internalType": "address",
          "name": "",
          "type": "address"
        }
      ],
      "stateMutability": "view",
      "type": "function"
    }
  ],
  "bytecode": "0x608060405234801561001057600080fd5b5033600360006101000a81548173ffffffffffffffffffffffffffffffffffffffff021916908373ffffffffffffffffffffffffffffffffffffffff1602179055506000600281905550600060018190555060008060006101000a81548160ff0219169083151502179055506000600a819055506000600b819055506000600c819055506000600d819055506136ff806100ab6000396000f3fe608060405234801561001057600080fd5b50600436106102275760003560e01c80636a82ee5111610130578063c784d213116100b8578063da58c7d91161007c578063da58c7d9146106fc578063dd698f901461072c578063df6d27841461074a578063f851a44014610768578063fee0d19a1461078657610227565b8063c784d21314610632578063cad43b4814610650578063d0980f201461066c578063d2fdf16f1461069c578063d4ecadb8146106cc57610227565b80638e7ea5b2116100ff5780638e7ea5b21461058c578063aed93010146105aa578063b1bf87b0146105da578063be081b6f146105f8578063c3a171a21461061657610227565b80636a82ee51146105025780636e9960c3146105205780637d6605351461053e578063831318f11461056e57610227565b806341217ed5116101b3578063506b8e0a11610182578063506b8e0a146104475780635938750d146104635780635f74bbde146104985780635fcdd8a1146104b457806364d198a1146104e457610227565b806341217ed5146103ad57806345543878146103dd578063483431751461040d5780634c652fc61461042b57610227565b806315811029116101fa57806315811029146102bd57806319c5c507146102ed57806324785b9e1461031d5780633477ee2e1461034d5780633f66f48b1461037d57610227565b806305e73ced1461022c5780630712aa05146102635780630b93400e146102815780630e2354cf1461029f575b600080fd5b61024660048036038101906102419190612843565b6107a2565b60405161025a98979695949392919061294c565b60405180910390f35b61026b610934565b6040516102789190612ae4565b60405180910390f35b610289610a86565b6040516102969190612b06565b60405180910390f35b6102a7610a90565b6040516102b49190612b21565b60405180910390f35b6102d760048036038101906102d29190612b6f565b610b25565b6040516102e49190612d42565b60405180910390f35b61030760048036038101906103029190612b6f565b610f70565b6040516103149190612d64565b60405180910390f35b61033760048036038101906103329190612b6f565b610fa3565b6040516103449190612d64565b60405180910390f35b61036760048036038101906103629190612b6f565b610fd6565b6040516103749190612d7f565b60405180910390f35b61039760048036038101906103929190612b6f565b611015565b6040516103a49190612d7f565b60405180910390f35b6103c760048036038101906103c29190612b6f565b611054565b6040516103d49190612b06565b60405180910390f35b6103f760048036038101906103f29190612b6f565b61111f565b6040516104049190612d64565b60405180910390f35b610415611212565b6040516104229190612b21565b60405180910390f35b61044560048036038101906104409190612ecf565b6112a7565b005b610461600480360381019061045c9190612f86565b611533565b005b61047d60048036038101906104789190612843565b61164e565b60405161048f96959493929190612fc6565b60405180910390f35b6104b260048036038101906104ad9190613035565b6117e1565b005b6104ce60048036038101906104c99190612843565b611b09565b6040516104db9190612d64565b60405180910390f35b6104ec611bb8565b6040516104f99190612b06565b60405180910390f35b61050a611bc2565b6040516105179190612b06565b60405180910390f35b610528611bcc565b6040516105359190612d7f565b60405180910390f35b61055860048036038101906105539190612843565b611bf6565b6040516105659190612d64565b60405180910390f35b610576611ca5565b6040516105839190612b21565b60405180910390f35b610594611d3a565b6040516105a19190612d7f565b60405180910390f35b6105c460048036038101906105bf9190612b6f565b611e0a565b6040516105d19190612d7f565b60405180910390f35b6105e2611e49565b6040516105ef9190612b06565b60405180910390f35b610600611e53565b60405161060d9190612b21565b60405180910390f35b610630600480360381019061062b919061315b565b611ee8565b005b61063a612135565b6040516106479190612b06565b60405180910390f35b61066a60048036038101906106659190612f86565b61213f565b005b61068660048036038101906106819190612b6f565b61225a565b6040516106939190612d64565b60405180910390f35b6106b660048036038101906106b19190612b6f565b612288565b6040516106c39190612d64565b60405180910390f35b6106e660048036038101906106e19190612b6f565b6122a6565b6040516106f39190612d64565b60405180910390f35b61071660048036038101906107119190612b6f565b6122d8565b6040516107239190612d7f565b60405180910390f35b610734612317565b6040516107419190612d64565b60405180910390f35b61075261232d565b60405161075f9190612b06565b60405180910390f35b610770612337565b60405161077d9190612d7f565b60405180910390f35b6107a0600480360381019061079b91906132b1565b61235d565b005b60096020528060005260406000206000915090508060000154908060010160009054906101000a900473ffffffffffffffffffffffffffffffffffffffff16908060020180546107f190613358565b80601f016020809104026020016040519081016040528092919081815260200182805461081d90613358565b801561086a5780601f1061083f5761010080835404028352916020019161086a565b820191906000526020600020905b81548152906001019060200180831161084d57829003601f168201915b50505050509080600301805461087f90613358565b80601f01602080910402602001604051908101604052809291908181526020018280546108ab90613358565b80156108f85780601f106108cd576101008083540402835291602001916108f8565b820191906000526020600020905b8154815290600101906020018083116108db57829003601f168201915b5050505050908060040154908060050154908060060160009054906101000a900460ff16908060060160019054906101000a900460ff16905088565b60606000600e6008018054905067ffffffffffffffff81111561095a57610959612da4565b5b60405190808252806020026020018201604052801561098d57816020015b60608152602001906001900390816109785790505b50905060005b600e60080180549050811015610a7e57600e60080181815481106109ba576109b961338a565b5b9060005260206000200180546109cf90613358565b80601f01602080910402602001604051908101604052809291908181526020018280546109fb90613358565b8015610a485780601f10610a1d57610100808354040283529160200191610a48565b820191906000526020600020905b815481529060010190602001808311610a2b57829003601f168201915b5050505050828281518110610a6057610a5f61338a565b5b60200260200101819052508080610a76906133e8565b915050610993565b508091505090565b6000600154905090565b6060600e6000018054610aa290613358565b80601f0160208091040260200160405190810160405280929190818152602001828054610ace90613358565b8015610b1b5780601f10610af057610100808354040283529160200191610b1b565b820191906000526020600020905b815481529060010190602001808311610afe57829003601f168201915b5050505050905090565b6060600060078054905067ffffffffffffffff811115610b4857610b47612da4565b5b604051908082528060200260200182016040528015610b8157816020015b610b6e6125be565b815260200190600190039081610b665790505b5090506000805b600780549050811015610eb457846009600060078481548110610bae57610bad61338a565b5b9060005260206000200160009054906101000a900473ffffffffffffffffffffffffffffffffffffffff1673ffffffffffffffffffffffffffffffffffffffff1673ffffffffffffffffffffffffffffffffffffffff168152602001908152602001600020600401541415610ea1576009600060078381548110610c3557610c3461338a565b5b9060005260206000200160009054906101000a900473ffffffffffffffffffffffffffffffffffffffff1673ffffffffffffffffffffffffffffffffffffffff1673ffffffffffffffffffffffffffffffffffffffff16815260200190815260200160002060405180610100016040529081600082015481526020016001820160009054906101000a900473ffffffffffffffffffffffffffffffffffffffff1673ffffffffffffffffffffffffffffffffffffffff1673ffffffffffffffffffffffffffffffffffffffff168152602001600282018054610d1690613358565b80601f0160208091040260200160405190810160405280929190818152602001828054610d4290613358565b8015610d8f5780601f10610d6457610100808354040283529160200191610d8f565b820191906000526020600020905b815481529060010190602001808311610d7257829003601f168201915b50505050508152602001600382018054610da890613358565b80601f0160208091040260200160405190810160405280929190818152602001828054610dd490613358565b8015610e215780601f10610df657610100808354040283529160200191610e21565b820191906000526020600020905b815481529060010190602001808311610e0457829003601f168201915b5050505050815260200160048201548152602001600582015481526020016006820160009054906101000a900460ff161515151581526020016006820160019054906101000a900460ff161515151581525050838381518110610e8757610e8661338a565b5b60200260200101819052508180610e9d906133e8565b9250505b8080610eac906133e8565b915050610b88565b5060008167ffffffffffffffff811115610ed157610ed0612da4565b5b604051908082528060200260200182016040528015610f0a57816020015b610ef76125be565b815260200190600190039081610eef5790505b50905060005b82811015610f6457838181518110610f2b57610f2a61338a565b5b6020026020010151828281518110610f4657610f4561338a565b5b60200260200101819052508080610f5c906133e8565b915050610f10565b50809350505050919050565b600080600a548310158015610f875750600b548311155b15610f955760019050610f9a565b600090505b80915050919050565b600080600c548310158015610fba5750600d548311155b15610fc85760019050610fcd565b600090505b80915050919050565b60058181548110610fe657600080fd5b906000526020600020016000915054906101000a900473ffffffffffffffffffffffffffffffffffffffff1681565b6007818154811061102557600080fd5b906000526020600020016000915054906101000a900473ffffffffffffffffffffffffffffffffffffffff1681565b6000806000905060005b600780549050811015611115578360096000600784815481106110845761108361338a565b5b9060005260206000200160009054906101000a900473ffffffffffffffffffffffffffffffffffffffff1673ffffffffffffffffffffffffffffffffffffffff1673ffffffffffffffffffffffffffffffffffffffff1681526020019081526020016000206004015414156111025781806110fe906133e8565b9250505b808061110d906133e8565b91505061105e565b5080915050919050565b60008060009050600080600e60080180549050905060018114156111f95760005b6007805490508110156111f7578560096000600784815481106111665761116561338a565b5b9060005260206000200160009054906101000a900473ffffffffffffffffffffffffffffffffffffffff1673ffffffffffffffffffffffffffffffffffffffff1673ffffffffffffffffffffffffffffffffffffffff1681526020019081526020016000206004015414156111e45782806111e0906133e8565b9350505b80806111ef906133e8565b915050611140565b505b600182141561120757600192505b829350505050919050565b6060600e600301805461122490613358565b80601f016020809104026020016040519081016040528092919081815260200182805461125090613358565b801561129d5780601f106112725761010080835404028352916020019161129d565b820191906000526020600020905b81548152906001019060200180831161128057829003601f168201915b5050505050905090565b600a544210156112ec576040517f08c379a00000000000000000000000000000000000000000000000000000000081526004016112e39061347d565b60405180910390fd5b600b54421115611331576040517f08c379a0000000000000000000000000000000000000000000000000000000008152600401611328906134e9565b60405180910390fd5b600060405180610100016040528060025481526020013373ffffffffffffffffffffffffffffffffffffffff1681526020018581526020018481526020018381526020016000815260200160001515815260200160011515815250905080600960003373ffffffffffffffffffffffffffffffffffffffff1673ffffffffffffffffffffffffffffffffffffffff1681526020019081526020016000206000820151816000015560208201518160010160006101000a81548173ffffffffffffffffffffffffffffffffffffffff021916908373ffffffffffffffffffffffffffffffffffffffff160217905550604082015181600201908051906020019061143b92919061261d565b50606082015181600301908051906020019061145892919061261d565b506080820151816004015560a0820151816005015560c08201518160060160006101000a81548160ff02191690831515021790555060e08201518160060160016101000a81548160ff0219169083151502179055509050506005339080600181540180825580915050600190039060005260206000200160009091909190916101000a81548173ffffffffffffffffffffffffffffffffffffffff021916908373ffffffffffffffffffffffffffffffffffffffff1602179055506001600260008282546115269190613509565b9250508190555050505050565b600360009054906101000a900473ffffffffffffffffffffffffffffffffffffffff1673ffffffffffffffffffffffffffffffffffffffff163373ffffffffffffffffffffffffffffffffffffffff161461158d57600080fd5b81600860008373ffffffffffffffffffffffffffffffffffffffff1673ffffffffffffffffffffffffffffffffffffffff16815260200190815260200160002060030160006101000a81548160ff0219169083151502179055506006819080600181540180825580915050600190039060005260206000200160009091909190916101000a81548173ffffffffffffffffffffffffffffffffffffffff021916908373ffffffffffffffffffffffffffffffffffffffff1602179055505050565b60086020528060005260406000206000915090508060000160009054906101000a900473ffffffffffffffffffffffffffffffffffffffff169080600101805461169790613358565b80601f01602080910402602001604051908101604052809291908181526020018280546116c390613358565b80156117105780601f106116e557610100808354040283529160200191611710565b820191906000526020600020905b8154815290600101906020018083116116f357829003601f168201915b50505050509080600201805461172590613358565b80601f016020809104026020016040519081016040528092919081815260200182805461175190613358565b801561179e5780601f106117735761010080835404028352916020019161179e565b820191906000526020600020905b81548152906001019060200180831161178157829003601f168201915b5050505050908060030160009054906101000a900460ff16908060030160019054906101000a900460ff16908060030160029054906101000a900460ff16905086565b600c54421015611826576040517f08c379a000000000000000000000000000000000000000000000000000000000815260040161181d906135ab565b60405180910390fd5b600d5442111561186b576040517f08c379a000000000000000000000000000000000000000000000000000000000815260040161186290613617565b60405180910390fd5b6000805b600860003373ffffffffffffffffffffffffffffffffffffffff1673ffffffffffffffffffffffffffffffffffffffff1681526020019081526020016000206004018054905081101561193e5782600860003373ffffffffffffffffffffffffffffffffffffffff1673ffffffffffffffffffffffffffffffffffffffff16815260200190815260200160002060040182815481106119115761191061338a565b5b9060005260206000200154141561192b576001915061193e565b8080611936906133e8565b91505061186f565b506000151581151514611986576040517f08c379a000000000000000000000000000000000000000000000000000000000815260040161197d906136a9565b60405180910390fd5b60011515600860003373ffffffffffffffffffffffffffffffffffffffff1673ffffffffffffffffffffffffffffffffffffffff16815260200190815260200160002060030160009054906101000a900460ff161515146119e657600080fd5b6001600960008573ffffffffffffffffffffffffffffffffffffffff1673ffffffffffffffffffffffffffffffffffffffff1681526020019081526020016000206005016000828254611a399190613509565b925050819055506001600860003373ffffffffffffffffffffffffffffffffffffffff1673ffffffffffffffffffffffffffffffffffffffff16815260200190815260200160002060030160016101000a81548160ff021916908315150217905550600860003373ffffffffffffffffffffffffffffffffffffffff1673ffffffffffffffffffffffffffffffffffffffff168152602001908152602001600020600401829080600181540180825580915050600190039060005260206000200160009091909190915055505050565b6000806000905060005b600680549050811015611bae5760068181548110611b3457611b3361338a565b5b9060005260206000200160009054906101000a900473ffffffffffffffffffffffffffffffffffffffff1673ffffffffffffffffffffffffffffffffffffffff168473ffffffffffffffffffffffffffffffffffffffff161415611b9b5760019150611bae565b8080611ba6906133e8565b915050611b13565b5080915050919050565b6000600254905090565b6000600c54905090565b6000600360009054906101000a900473ffffffffffffffffffffffffffffffffffffffff16905090565b6000806000905060005b600580549050811015611c9b5760058181548110611c2157611c2061338a565b5b9060005260206000200160009054906101000a900473ffffffffffffffffffffffffffffffffffffffff1673ffffffffffffffffffffffffffffffffffffffff168473ffffffffffffffffffffffffffffffffffffffff161415611c885760019150611c9b565b8080611c93906133e8565b915050611c00565b5080915050919050565b6060600e6001018054611cb790613358565b80601f0160208091040260200160405190810160405280929190818152602001828054611ce390613358565b8015611d305780601f10611d0557610100808354040283529160200191611d30565b820191906000526020600020905b815481529060010190602001808311611d1357829003601f168201915b5050505050905090565b60008060009050600080600090505b600254811015611e0157600060078281548110611d6957611d6861338a565b5b9060005260206000200160009054906101000a900473ffffffffffffffffffffffffffffffffffffffff1690506000600960008373ffffffffffffffffffffffffffffffffffffffff1673ffffffffffffffffffffffffffffffffffffffff16815260200190815260200160002060050154905084811115611dec578094508193505b50508080611df9906133e8565b915050611d49565b50809250505090565b60068181548110611e1a57600080fd5b906000526020600020016000915054906101000a900473ffffffffffffffffffffffffffffffffffffffff1681565b6000600d54905090565b6060600e6002018054611e6590613358565b80601f0160208091040260200160405190810160405280929190818152602001828054611e9190613358565b8015611ede5780601f10611eb357610100808354040283529160200191611ede565b820191906000526020600020905b815481529060010190602001808311611ec157829003601f168201915b5050505050905090565b600360009054906101000a900473ffffffffffffffffffffffffffffffffffffffff1673ffffffffffffffffffffffffffffffffffffffff163373ffffffffffffffffffffffffffffffffffffffff1614611f4257600080fd5b6000815167ffffffffffffffff811115611f5f57611f5e612da4565b5b604051908082528060200260200182016040528015611f9257816020015b6060815260200190600190039081611f7d5790505b50905060005b8251811015611fed57828181518110611fb457611fb361338a565b5b6020026020010151828281518110611fcf57611fce61338a565b5b60200260200101819052508080611fe5906133e8565b915050611f98565b5060006040518061012001604052808c81526020018b81526020018a815260200189815260200188815260200187815260200186815260200185815260200183815250905080600e600082015181600001908051906020019061205192919061261d565b50602082015181600101908051906020019061206e92919061261d565b50604082015181600201908051906020019061208b92919061261d565b5060608201518160030190805190602001906120a892919061261d565b506080820151816004015560a0820151816005015560c0820151816006015560e082015181600701556101008201518160080190805190602001906120ee9291906126a3565b5090505060016000806101000a81548160ff02191690831515021790555084600a8190555083600b8190555086600c8190555085600d819055505050505050505050505050565b6000600b54905090565b600360009054906101000a900473ffffffffffffffffffffffffffffffffffffffff1673ffffffffffffffffffffffffffffffffffffffff163373ffffffffffffffffffffffffffffffffffffffff161461219957600080fd5b81600960008373ffffffffffffffffffffffffffffffffffffffff1673ffffffffffffffffffffffffffffffffffffffff16815260200190815260200160002060060160006101000a81548160ff0219169083151502179055506007819080600181540180825580915050600190039060005260206000200160009091909190916101000a81548173ffffffffffffffffffffffffffffffffffffffff021916908373ffffffffffffffffffffffffffffffffffffffff1602179055505050565b60008060009050600a5483101580156122755750600b548311155b1561227f57600190505b80915050919050565b60008060009050600b54831061229d57600190505b80915050919050565b6000806000905060008054906101000a900460ff16156122cf57600d5483106122ce57600190505b5b80915050919050565b600481815481106122e857600080fd5b906000526020600020016000915054906101000a900473ffffffffffffffffffffffffffffffffffffffff1681565b60008060009054906101000a900460ff16905090565b6000600a54905090565b600360009054906101000a900473ffffffffffffffffffffffffffffffffffffffff1681565b60006040518060e001604052803373ffffffffffffffffffffffffffffffffffffffff168152602001848152602001838152602001600015158152602001600015158152602001600115158152602001600067ffffffffffffffff8111156123c8576123c7612da4565b5b6040519080825280602002602001820160405280156123f65781602001602082028036833780820191505090505b50815250905080600860003373ffffffffffffffffffffffffffffffffffffffff1673ffffffffffffffffffffffffffffffffffffffff16815260200190815260200160002060008201518160000160006101000a81548173ffffffffffffffffffffffffffffffffffffffff021916908373ffffffffffffffffffffffffffffffffffffffff160217905550602082015181600101908051906020019061249f92919061261d565b5060408201518160020190805190602001906124bc92919061261d565b5060608201518160030160006101000a81548160ff02191690831515021790555060808201518160030160016101000a81548160ff02191690831515021790555060a08201518160030160026101000a81548160ff02191690831515021790555060c0820151816004019080519060200190612539929190612703565b509050506004339080600181540180825580915050600190039060005260206000200160009091909190916101000a81548173ffffffffffffffffffffffffffffffffffffffff021916908373ffffffffffffffffffffffffffffffffffffffff16021790555060018060008282546125b29190613509565b92505081905550505050565b60405180610100016040528060008152602001600073ffffffffffffffffffffffffffffffffffffffff168152602001606081526020016060815260200160008152602001600081526020016000151581526020016000151581525090565b82805461262990613358565b90600052602060002090601f01602090048101928261264b5760008555612692565b82601f1061266457805160ff1916838001178555612692565b82800160010185558215612692579182015b82811115612691578251825591602001919060010190612676565b5b50905061269f9190612750565b5090565b8280548282559060005260206000209081019282156126f2579160200282015b828111156126f15782518290805190602001906126e192919061261d565b50916020019190600101906126c3565b5b5090506126ff919061276d565b5090565b82805482825590600052602060002090810192821561273f579160200282015b8281111561273e578251825591602001919060010190612723565b5b50905061274c9190612750565b5090565b5b80821115612769576000816000905550600101612751565b5090565b5b8082111561278d57600081816127849190612791565b5060010161276e565b5090565b50805461279d90613358565b6000825580601f106127af57506127ce565b601f0160209004906000526020600020908101906127cd9190612750565b5b50565b6000604051905090565b600080fd5b600080fd5b600073ffffffffffffffffffffffffffffffffffffffff82169050919050565b6000612810826127e5565b9050919050565b61282081612805565b811461282b57600080fd5b50565b60008135905061283d81612817565b92915050565b600060208284031215612859576128586127db565b5b60006128678482850161282e565b91505092915050565b6000819050919050565b61288381612870565b82525050565b61289281612805565b82525050565b600081519050919050565b600082825260208201905092915050565b60005b838110156128d25780820151818401526020810190506128b7565b838111156128e1576000848401525b50505050565b6000601f19601f8301169050919050565b600061290382612898565b61290d81856128a3565b935061291d8185602086016128b4565b612926816128e7565b840191505092915050565b60008115159050919050565b61294681612931565b82525050565b600061010082019050612962600083018b61287a565b61296f602083018a612889565b818103604083015261298181896128f8565b9050818103606083015261299581886128f8565b90506129a4608083018761287a565b6129b160a083018661287a565b6129be60c083018561293d565b6129cb60e083018461293d565b9998505050505050505050565b600081519050919050565b600082825260208201905092915050565b6000819050602082019050919050565b600082825260208201905092915050565b6000612a2082612898565b612a2a8185612a04565b9350612a3a8185602086016128b4565b612a43816128e7565b840191505092915050565b6000612a5a8383612a15565b905092915050565b6000602082019050919050565b6000612a7a826129d8565b612a8481856129e3565b935083602082028501612a96856129f4565b8060005b85811015612ad25784840389528151612ab38582612a4e565b9450612abe83612a62565b925060208a01995050600181019050612a9a565b50829750879550505050505092915050565b60006020820190508181036000830152612afe8184612a6f565b905092915050565b6000602082019050612b1b600083018461287a565b92915050565b60006020820190508181036000830152612b3b81846128f8565b905092915050565b612b4c81612870565b8114612b5757600080fd5b50565b600081359050612b6981612b43565b92915050565b600060208284031215612b8557612b846127db565b5b6000612b9384828501612b5a565b91505092915050565b600081519050919050565b600082825260208201905092915050565b6000819050602082019050919050565b612bd181612870565b82525050565b612be081612805565b82525050565b612bef81612931565b82525050565b600061010083016000830151612c0e6000860182612bc8565b506020830151612c216020860182612bd7565b5060408301518482036040860152612c398282612a15565b91505060608301518482036060860152612c538282612a15565b9150506080830151612c686080860182612bc8565b5060a0830151612c7b60a0860182612bc8565b5060c0830151612c8e60c0860182612be6565b5060e0830151612ca160e0860182612be6565b508091505092915050565b6000612cb88383612bf5565b905092915050565b6000602082019050919050565b6000612cd882612b9c565b612ce28185612ba7565b935083602082028501612cf485612bb8565b8060005b85811015612d305784840389528151612d118582612cac565b9450612d1c83612cc0565b925060208a01995050600181019050612cf8565b50829750879550505050505092915050565b60006020820190508181036000830152612d5c8184612ccd565b905092915050565b6000602082019050612d79600083018461293d565b92915050565b6000602082019050612d946000830184612889565b92915050565b600080fd5b600080fd5b7f4e487b7100000000000000000000000000000000000000000000000000000000600052604160045260246000fd5b612ddc826128e7565b810181811067ffffffffffffffff82111715612dfb57612dfa612da4565b5b80604052505050565b6000612e0e6127d1565b9050612e1a8282612dd3565b919050565b600067ffffffffffffffff821115612e3a57612e39612da4565b5b612e43826128e7565b9050602081019050919050565b82818337600083830152505050565b6000612e72612e6d84612e1f565b612e04565b905082815260208101848484011115612e8e57612e8d612d9f565b5b612e99848285612e50565b509392505050565b600082601f830112612eb657612eb5612d9a565b5b8135612ec6848260208601612e5f565b91505092915050565b600080600060608486031215612ee857612ee76127db565b5b600084013567ffffffffffffffff811115612f0657612f056127e0565b5b612f1286828701612ea1565b935050602084013567ffffffffffffffff811115612f3357612f326127e0565b5b612f3f86828701612ea1565b9250506040612f5086828701612b5a565b9150509250925092565b612f6381612931565b8114612f6e57600080fd5b50565b600081359050612f8081612f5a565b92915050565b60008060408385031215612f9d57612f9c6127db565b5b6000612fab85828601612f71565b9250506020612fbc8582860161282e565b9150509250929050565b600060c082019050612fdb6000830189612889565b8181036020830152612fed81886128f8565b9050818103604083015261300181876128f8565b9050613010606083018661293d565b61301d608083018561293d565b61302a60a083018461293d565b979650505050505050565b6000806040838503121561304c5761304b6127db565b5b600061305a8582860161282e565b925050602061306b85828601612b5a565b9150509250929050565b600067ffffffffffffffff8211156130905761308f612da4565b5b602082029050602081019050919050565b600080fd5b60006130b96130b484613075565b612e04565b905080838252602082019050602084028301858111156130dc576130db6130a1565b5b835b8181101561312357803567ffffffffffffffff81111561310157613100612d9a565b5b80860161310e8982612ea1565b855260208501945050506020810190506130de565b5050509392505050565b600082601f83011261314257613141612d9a565b5b81356131528482602086016130a6565b91505092915050565b60008060008060008060008060006101208a8c03121561317e5761317d6127db565b5b60008a013567ffffffffffffffff81111561319c5761319b6127e0565b5b6131a88c828d01612ea1565b99505060208a013567ffffffffffffffff8111156131c9576131c86127e0565b5b6131d58c828d01612ea1565b98505060408a013567ffffffffffffffff8111156131f6576131f56127e0565b5b6132028c828d01612ea1565b97505060608a013567ffffffffffffffff811115613223576132226127e0565b5b61322f8c828d01612ea1565b96505060806132408c828d01612b5a565b95505060a06132518c828d01612b5a565b94505060c06132628c828d01612b5a565b93505060e06132738c828d01612b5a565b9250506101008a013567ffffffffffffffff811115613295576132946127e0565b5b6132a18c828d0161312d565b9150509295985092959850929598565b600080604083850312156132c8576132c76127db565b5b600083013567ffffffffffffffff8111156132e6576132e56127e0565b5b6132f285828601612ea1565b925050602083013567ffffffffffffffff811115613313576133126127e0565b5b61331f85828601612ea1565b9150509250929050565b7f4e487b7100000000000000000000000000000000000000000000000000000000600052602260045260246000fd5b6000600282049050600182168061337057607f821691505b6020821081141561338457613383613329565b5b50919050565b7f4e487b7100000000000000000000000000000000000000000000000000000000600052603260045260246000fd5b7f4e487b7100000000000000000000000000000000000000000000000000000000600052601160045260246000fd5b60006133f382612870565b91507fffffffffffffffffffffffffffffffffffffffffffffffffffffffffffffffff821415613426576134256133b9565b5b600182019050919050565b7f526567697374726174696f6e206973206e6f7420737461727465642079657400600082015250565b6000613467601f836128a3565b915061347282613431565b602082019050919050565b600060208201905081810360008301526134968161345a565b9050919050565b7f526567697374726174696f6e20697320616c726561647920656e6465642e0000600082015250565b60006134d3601e836128a3565b91506134de8261349d565b602082019050919050565b60006020820190508181036000830152613502816134c6565b9050919050565b600061351482612870565b915061351f83612870565b9250827fffffffffffffffffffffffffffffffffffffffffffffffffffffffffffffffff03821115613554576135536133b9565b5b828201905092915050565b7f566f74696e67206973206e6f7420737461727465642079657400000000000000600082015250565b60006135956019836128a3565b91506135a08261355f565b602082019050919050565b600060208201905081810360008301526135c481613588565b9050919050565b7f566f74696e6720697320616c726561647920656e646564000000000000000000600082015250565b60006136016017836128a3565b915061360c826135cb565b602082019050919050565b60006020820190508181036000830152613630816135f4565b9050919050565b7f596f75206861766520616c726561647920766f74656420746f20656c6563746960008201527f6f6e207469746c65000000000000000000000000000000000000000000000000602082015250565b60006136936028836128a3565b915061369e82613637565b604082019050919050565b600060208201905081810360008301526136c281613686565b905091905056fea2646970667358221220a6916f6b65ed15eebd12150926a2262fc94dc4039c5cb46c55608b83ce7808f164736f6c634300080b0033",
  "linkReferences": {},
  "deployedLinkReferences": {}
}