{
  "_format": "hh-sol-artifact-1",
  "contractName": "Election",
  "sourceName": "contracts/Election.sol",
  "abi": [
    {
      "inputs": [],
      "stateMutability": "nonpayable",
      "type": "constructor"
    },
    {
      "inputs": [],
      "name": "admin",
      "outputs": [
        {
          "internalType": "address",
          "name": "",
          "type": "address"
        }
      ],
      "stateMutability": "view",
      "type": "function"
    },
    {
      "inputs": [
        {
          "internalType": "uint256",
          "name": "",
          "type": "uint256"
        }
      ],
      "name": "approvedCandidates",
      "outputs": [
        {
          "internalType": "address",
          "name": "",
          "type": "address"
        }
      ],
      "stateMutability": "view",
      "type": "function"
    },
    {
      "inputs": [
        {
          "internalType": "uint256",
          "name": "",
          "type": "uint256"
        }
      ],
      "name": "approvedVoters",
      "outputs": [
        {
          "internalType": "address",
          "name": "",
          "type": "address"
        }
      ],
      "stateMutability": "view",
      "type": "function"
    },
    {
      "inputs": [
        {
          "internalType": "address",
          "name": "",
          "type": "address"
        }
      ],
      "name": "candidateDetails",
      "outputs": [
        {
          "internalType": "uint256",
          "name": "candidateId",
          "type": "uint256"
        },
        {
          "internalType": "address",
          "name": "candidateAddress",
          "type": "address"
        },
        {
          "internalType": "string",
          "name": "header",
          "type": "string"
        },
        {
          "internalType": "string",
          "name": "slogan",
          "type": "string"
        },
        {
          "internalType": "uint256",
          "name": "electionTitleIndex",
          "type": "uint256"
        },
        {
          "internalType": "uint256",
          "name": "voteCount",
          "type": "uint256"
        },
        {
          "internalType": "bool",
          "name": "isVerified",
          "type": "bool"
        },
        {
          "internalType": "bool",
          "name": "isRegistered",
          "type": "bool"
        }
      ],
      "stateMutability": "view",
      "type": "function"
    },
    {
      "inputs": [
        {
          "internalType": "uint256",
          "name": "",
          "type": "uint256"
        }
      ],
      "name": "candidates",
      "outputs": [
        {
          "internalType": "address",
          "name": "",
          "type": "address"
        }
      ],
      "stateMutability": "view",
      "type": "function"
    },
    {
      "inputs": [],
      "name": "getAdmin",
      "outputs": [
        {
          "internalType": "address",
          "name": "",
          "type": "address"
        }
      ],
      "stateMutability": "view",
      "type": "function"
    },
    {
      "inputs": [],
      "name": "getAdminEmail",
      "outputs": [
        {
          "internalType": "string",
          "name": "",
          "type": "string"
        }
      ],
      "stateMutability": "view",
      "type": "function"
    },
    {
      "inputs": [],
      "name": "getAdminName",
      "outputs": [
        {
          "internalType": "string",
          "name": "",
          "type": "string"
        }
      ],
      "stateMutability": "view",
      "type": "function"
    },
    {
      "inputs": [],
      "name": "getAdminTitle",
      "outputs": [
        {
          "internalType": "string",
          "name": "",
          "type": "string"
        }
      ],
      "stateMutability": "view",
      "type": "function"
    },
    {
      "inputs": [
        {
          "internalType": "uint256",
          "name": "_electionTitleIndex",
          "type": "uint256"
        }
      ],
      "name": "getCandidateCountForAsscociatedElection",
      "outputs": [
        {
          "internalType": "uint256",
          "name": "",
          "type": "uint256"
        }
      ],
      "stateMutability": "view",
      "type": "function"
    },
    {
      "inputs": [
        {
          "internalType": "uint256",
          "name": "_electionTitleIndex",
          "type": "uint256"
        }
      ],
      "name": "getCandidatesForAssociatedElections",
      "outputs": [
        {
          "components": [
            {
              "internalType": "uint256",
              "name": "candidateId",
              "type": "uint256"
            },
            {
              "internalType": "address",
              "name": "candidateAddress",
              "type": "address"
            },
            {
              "internalType": "string",
              "name": "header",
              "type": "string"
            },
            {
              "internalType": "string",
              "name": "slogan",
              "type": "string"
            },
            {
              "internalType": "uint256",
              "name": "electionTitleIndex",
              "type": "uint256"
            },
            {
              "internalType": "uint256",
              "name": "voteCount",
              "type": "uint256"
            },
            {
              "internalType": "bool",
              "name": "isVerified",
              "type": "bool"
            },
            {
              "internalType": "bool",
              "name": "isRegistered",
              "type": "bool"
            }
          ],
          "internalType": "struct Election.Candidate[]",
          "name": "",
          "type": "tuple[]"
        }
      ],
      "stateMutability": "view",
      "type": "function"
    },
    {
      "inputs": [],
      "name": "getElectionInitStatus",
      "outputs": [
        {
          "internalType": "bool",
          "name": "",
          "type": "bool"
        }
      ],
      "stateMutability": "view",
      "type": "function"
    },
    {
      "inputs": [
        {
          "internalType": "uint256",
          "name": "_timeStamp",
          "type": "uint256"
        }
      ],
      "name": "getElectionStatus",
      "outputs": [
        {
          "internalType": "bool",
          "name": "",
          "type": "bool"
        }
      ],
      "stateMutability": "view",
      "type": "function"
    },
    {
      "inputs": [],
      "name": "getElectionTitles",
      "outputs": [
        {
          "internalType": "string[]",
          "name": "",
          "type": "string[]"
        }
      ],
      "stateMutability": "view",
      "type": "function"
    },
    {
      "inputs": [],
      "name": "getEnd",
      "outputs": [
        {
          "internalType": "bool",
          "name": "",
          "type": "bool"
        }
      ],
      "stateMutability": "view",
      "type": "function"
    },
    {
      "inputs": [],
      "name": "getOrganizationTitle",
      "outputs": [
        {
          "internalType": "string",
          "name": "",
          "type": "string"
        }
      ],
      "stateMutability": "view",
      "type": "function"
    },
    {
      "inputs": [],
      "name": "getRegistrationEndTime",
      "outputs": [
        {
          "internalType": "uint256",
          "name": "",
          "type": "uint256"
        }
      ],
      "stateMutability": "view",
      "type": "function"
    },
    {
      "inputs": [],
      "name": "getRegistrationStartTime",
      "outputs": [
        {
          "internalType": "uint256",
          "name": "",
          "type": "uint256"
        }
      ],
      "stateMutability": "view",
      "type": "function"
    },
    {
      "inputs": [
        {
          "internalType": "uint256",
          "name": "_timeStamp",
          "type": "uint256"
        }
      ],
      "name": "getRegistrationStatus",
      "outputs": [
        {
          "internalType": "bool",
          "name": "",
          "type": "bool"
        }
      ],
      "stateMutability": "view",
      "type": "function"
    },
    {
      "inputs": [],
      "name": "getStart",
      "outputs": [
        {
          "internalType": "bool",
          "name": "",
          "type": "bool"
        }
      ],
      "stateMutability": "view",
      "type": "function"
    },
    {
      "inputs": [],
      "name": "getTotalCandidate",
      "outputs": [
        {
          "internalType": "uint256",
          "name": "",
          "type": "uint256"
        }
      ],
      "stateMutability": "view",
      "type": "function"
    },
    {
      "inputs": [],
      "name": "getTotalVoter",
      "outputs": [
        {
          "internalType": "uint256",
          "name": "",
          "type": "uint256"
        }
      ],
      "stateMutability": "view",
      "type": "function"
    },
    {
      "inputs": [
        {
          "internalType": "address",
          "name": "_currentAddress",
          "type": "address"
        }
      ],
      "name": "getVoterStatusForCandidate",
      "outputs": [
        {
          "internalType": "bool",
          "name": "",
          "type": "bool"
        }
      ],
      "stateMutability": "view",
      "type": "function"
    },
    {
      "inputs": [],
      "name": "getVotingEndTime",
      "outputs": [
        {
          "internalType": "uint256",
          "name": "",
          "type": "uint256"
        }
      ],
      "stateMutability": "view",
      "type": "function"
    },
    {
      "inputs": [],
      "name": "getVotingStartTime",
      "outputs": [
        {
          "internalType": "uint256",
          "name": "",
          "type": "uint256"
        }
      ],
      "stateMutability": "view",
      "type": "function"
    },
    {
      "inputs": [],
      "name": "getWinner",
      "outputs": [
        {
          "internalType": "address",
          "name": "",
          "type": "address"
        }
      ],
      "stateMutability": "view",
      "type": "function"
    },
    {
      "inputs": [
        {
          "internalType": "string",
          "name": "_header",
          "type": "string"
        },
        {
          "internalType": "string",
          "name": "_slogan",
          "type": "string"
        },
        {
          "internalType": "uint256",
          "name": "_electionTitleIndex",
          "type": "uint256"
        }
      ],
      "name": "registerAsCandidate",
      "outputs": [],
      "stateMutability": "nonpayable",
      "type": "function"
    },
    {
      "inputs": [
        {
          "internalType": "string",
          "name": "_name",
          "type": "string"
        },
        {
          "internalType": "string",
          "name": "_phone",
          "type": "string"
        }
      ],
      "name": "registerAsVoter",
      "outputs": [],
      "stateMutability": "nonpayable",
      "type": "function"
    },
    {
      "inputs": [],
      "name": "registrationEndTime",
      "outputs": [
        {
          "internalType": "uint256",
          "name": "",
          "type": "uint256"
        }
      ],
      "stateMutability": "view",
      "type": "function"
    },
    {
      "inputs": [],
      "name": "registrationStartTime",
      "outputs": [
        {
          "internalType": "uint256",
          "name": "",
          "type": "uint256"
        }
      ],
      "stateMutability": "view",
      "type": "function"
    },
    {
      "inputs": [
        {
          "internalType": "string",
          "name": "_adminName",
          "type": "string"
        },
        {
          "internalType": "string",
          "name": "_adminEmail",
          "type": "string"
        },
        {
          "internalType": "string",
          "name": "_adminTitle",
          "type": "string"
        },
        {
          "internalType": "string",
          "name": "_organizationTitle",
          "type": "string"
        },
        {
          "internalType": "uint256",
          "name": "_votingStartTime",
          "type": "uint256"
        },
        {
          "internalType": "uint256",
          "name": "_votingEndTime",
          "type": "uint256"
        },
        {
          "internalType": "uint256",
          "name": "_registrationStartTime",
          "type": "uint256"
        },
        {
          "internalType": "uint256",
          "name": "_registrationEndTime",
          "type": "uint256"
        },
        {
          "internalType": "string[]",
          "name": "_elections",
          "type": "string[]"
        }
      ],
      "name": "setElectionDetails",
      "outputs": [],
      "stateMutability": "nonpayable",
      "type": "function"
    },
    {
      "inputs": [
        {
          "internalType": "bool",
          "name": "_verifedStatus",
          "type": "bool"
        },
        {
          "internalType": "address",
          "name": "candidateAddress",
          "type": "address"
        }
      ],
      "name": "verifyCandidate",
      "outputs": [],
      "stateMutability": "nonpayable",
      "type": "function"
    },
    {
      "inputs": [
        {
          "internalType": "bool",
          "name": "_verifedStatus",
          "type": "bool"
        },
        {
          "internalType": "address",
          "name": "voterAddress",
          "type": "address"
        }
      ],
      "name": "verifyVoter",
      "outputs": [],
      "stateMutability": "nonpayable",
      "type": "function"
    },
    {
      "inputs": [
        {
          "internalType": "address",
          "name": "_candidateAddress",
          "type": "address"
        }
      ],
      "name": "vote",
      "outputs": [],
      "stateMutability": "nonpayable",
      "type": "function"
    },
    {
      "inputs": [
        {
          "internalType": "address",
          "name": "",
          "type": "address"
        }
      ],
      "name": "voterDetails",
      "outputs": [
        {
          "internalType": "address",
          "name": "voterAddress",
          "type": "address"
        },
        {
          "internalType": "string",
          "name": "name",
          "type": "string"
        },
        {
          "internalType": "string",
          "name": "phone",
          "type": "string"
        },
        {
          "internalType": "bool",
          "name": "isVerified",
          "type": "bool"
        },
        {
          "internalType": "bool",
          "name": "hasVoted",
          "type": "bool"
        },
        {
          "internalType": "bool",
          "name": "isRegistered",
          "type": "bool"
        }
      ],
      "stateMutability": "view",
      "type": "function"
    },
    {
      "inputs": [
        {
          "internalType": "uint256",
          "name": "",
          "type": "uint256"
        }
      ],
      "name": "voters",
      "outputs": [
        {
          "internalType": "address",
          "name": "",
          "type": "address"
        }
      ],
      "stateMutability": "view",
      "type": "function"
    },
    {
      "inputs": [],
      "name": "votingEndTime",
      "outputs": [
        {
          "internalType": "uint256",
          "name": "",
          "type": "uint256"
        }
      ],
      "stateMutability": "view",
      "type": "function"
    },
    {
      "inputs": [],
      "name": "votingStartTime",
      "outputs": [
        {
          "internalType": "uint256",
          "name": "",
          "type": "uint256"
        }
      ],
      "stateMutability": "view",
      "type": "function"
    }
  ],
  "bytecode": "0x608060405234801561001057600080fd5b5033600360006101000a81548173ffffffffffffffffffffffffffffffffffffffff021916908373ffffffffffffffffffffffffffffffffffffffff1602179055506000600281905550600060018190555060008060006101000a81548160ff02191690831515021790555060008060016101000a81548160ff02191690831515021790555060008060026101000a81548160ff0219169083151502179055506000600a819055506000600b819055506000600c819055506000600d81905550613242806100df6000396000f3fe608060405234801561001057600080fd5b50600436106102325760003560e01c80636dd7d8ea11610130578063c3a171a2116100b8578063dd698f901161007c578063dd698f90146106dd578063df6d2784146106fb578063dff7d2c714610719578063f851a44014610737578063fee0d19a1461075557610232565b8063c3a171a214610639578063c5292c6714610655578063c784d21314610673578063cad43b4814610691578063da58c7d9146106ad57610232565b80639af5c09d116100ff5780639af5c09d146105915780639f05a36d146105af578063aed93010146105cd578063b1bf87b0146105fd578063be081b6f1461061b57610232565b80636dd7d8ea1461051b5780636e9960c314610537578063831318f1146105555780638e7ea5b21461057357610232565b80633477ee2e116101be578063506b8e0a11610182578063506b8e0a1461045e5780635938750d1461047a5780635fcdd8a1146104af57806364d198a1146104df5780636a82ee51146104fd57610232565b80633477ee2e146103945780633f66f48b146103c457806341217ed5146103f457806348343175146104245780634c652fc61461044257610232565b8063158110291161020557806315811029146102c857806319c5c507146102f85780631ea736e0146103285780632019a6081461034657806324785b9e1461036457610232565b806305e73ced146102375780630712aa051461026e5780630b93400e1461028c5780630e2354cf146102aa575b600080fd5b610251600480360381019061024c9190612458565b610771565b604051610265989796959493929190612561565b60405180910390f35b610276610903565b60405161028391906126f9565b60405180910390f35b610294610a55565b6040516102a1919061271b565b60405180910390f35b6102b2610a5f565b6040516102bf9190612736565b60405180910390f35b6102e260048036038101906102dd9190612784565b610af4565b6040516102ef9190612957565b60405180910390f35b610312600480360381019061030d9190612784565b610f3f565b60405161031f9190612979565b60405180910390f35b610330610f72565b60405161033d919061271b565b60405180910390f35b61034e610f78565b60405161035b919061271b565b60405180910390f35b61037e60048036038101906103799190612784565b610f7e565b60405161038b9190612979565b60405180910390f35b6103ae60048036038101906103a99190612784565b610fb1565b6040516103bb9190612994565b60405180910390f35b6103de60048036038101906103d99190612784565b610ff0565b6040516103eb9190612994565b60405180910390f35b61040e60048036038101906104099190612784565b61102f565b60405161041b919061271b565b60405180910390f35b61042c6110fa565b6040516104399190612736565b60405180910390f35b61045c60048036038101906104579190612ae4565b61118f565b005b61047860048036038101906104739190612b9b565b61141b565b005b610494600480360381019061048f9190612458565b611536565b6040516104a696959493929190612bdb565b60405180910390f35b6104c960048036038101906104c49190612458565b6116c9565b6040516104d69190612979565b60405180910390f35b6104e7611778565b6040516104f4919061271b565b60405180910390f35b610505611782565b604051610512919061271b565b60405180910390f35b61053560048036038101906105309190612458565b61178c565b005b61053f61198e565b60405161054c9190612994565b60405180910390f35b61055d6119b8565b60405161056a9190612736565b60405180910390f35b61057b611a4d565b6040516105889190612994565b60405180910390f35b610599611b1d565b6040516105a6919061271b565b60405180910390f35b6105b7611b23565b6040516105c49190612979565b60405180910390f35b6105e760048036038101906105e29190612784565b611b39565b6040516105f49190612994565b60405180910390f35b610605611b78565b604051610612919061271b565b60405180910390f35b610623611b82565b6040516106309190612736565b60405180910390f35b610653600480360381019061064e9190612d30565b611c17565b005b61065d611e65565b60405161066a9190612979565b60405180910390f35b61067b611e7b565b604051610688919061271b565b60405180910390f35b6106ab60048036038101906106a69190612b9b565b611e85565b005b6106c760048036038101906106c29190612784565b611fa0565b6040516106d49190612994565b60405180910390f35b6106e5611fdf565b6040516106f29190612979565b60405180910390f35b610703611ff5565b604051610710919061271b565b60405180910390f35b610721611fff565b60405161072e919061271b565b60405180910390f35b61073f612005565b60405161074c9190612994565b60405180910390f35b61076f600480360381019061076a9190612e86565b61202b565b005b60096020528060005260406000206000915090508060000154908060010160009054906101000a900473ffffffffffffffffffffffffffffffffffffffff16908060020180546107c090612f2d565b80601f01602080910402602001604051908101604052809291908181526020018280546107ec90612f2d565b80156108395780601f1061080e57610100808354040283529160200191610839565b820191906000526020600020905b81548152906001019060200180831161081c57829003601f168201915b50505050509080600301805461084e90612f2d565b80601f016020809104026020016040519081016040528092919081815260200182805461087a90612f2d565b80156108c75780601f1061089c576101008083540402835291602001916108c7565b820191906000526020600020905b8154815290600101906020018083116108aa57829003601f168201915b5050505050908060040154908060050154908060060160009054906101000a900460ff16908060060160019054906101000a900460ff16905088565b60606000600e6008018054905067ffffffffffffffff811115610929576109286129b9565b5b60405190808252806020026020018201604052801561095c57816020015b60608152602001906001900390816109475790505b50905060005b600e60080180549050811015610a4d57600e600801818154811061098957610988612f5f565b5b90600052602060002001805461099e90612f2d565b80601f01602080910402602001604051908101604052809291908181526020018280546109ca90612f2d565b8015610a175780601f106109ec57610100808354040283529160200191610a17565b820191906000526020600020905b8154815290600101906020018083116109fa57829003601f168201915b5050505050828281518110610a2f57610a2e612f5f565b5b60200260200101819052508080610a4590612fbd565b915050610962565b508091505090565b6000600154905090565b6060600e6000018054610a7190612f2d565b80601f0160208091040260200160405190810160405280929190818152602001828054610a9d90612f2d565b8015610aea5780601f10610abf57610100808354040283529160200191610aea565b820191906000526020600020905b815481529060010190602001808311610acd57829003601f168201915b5050505050905090565b6060600060078054905067ffffffffffffffff811115610b1757610b166129b9565b5b604051908082528060200260200182016040528015610b5057816020015b610b3d612220565b815260200190600190039081610b355790505b5090506000805b600780549050811015610e8357846009600060078481548110610b7d57610b7c612f5f565b5b9060005260206000200160009054906101000a900473ffffffffffffffffffffffffffffffffffffffff1673ffffffffffffffffffffffffffffffffffffffff1673ffffffffffffffffffffffffffffffffffffffff168152602001908152602001600020600401541415610e70576009600060078381548110610c0457610c03612f5f565b5b9060005260206000200160009054906101000a900473ffffffffffffffffffffffffffffffffffffffff1673ffffffffffffffffffffffffffffffffffffffff1673ffffffffffffffffffffffffffffffffffffffff16815260200190815260200160002060405180610100016040529081600082015481526020016001820160009054906101000a900473ffffffffffffffffffffffffffffffffffffffff1673ffffffffffffffffffffffffffffffffffffffff1673ffffffffffffffffffffffffffffffffffffffff168152602001600282018054610ce590612f2d565b80601f0160208091040260200160405190810160405280929190818152602001828054610d1190612f2d565b8015610d5e5780601f10610d3357610100808354040283529160200191610d5e565b820191906000526020600020905b815481529060010190602001808311610d4157829003601f168201915b50505050508152602001600382018054610d7790612f2d565b80601f0160208091040260200160405190810160405280929190818152602001828054610da390612f2d565b8015610df05780601f10610dc557610100808354040283529160200191610df0565b820191906000526020600020905b815481529060010190602001808311610dd357829003601f168201915b5050505050815260200160048201548152602001600582015481526020016006820160009054906101000a900460ff161515151581526020016006820160019054906101000a900460ff161515151581525050838381518110610e5657610e55612f5f565b5b60200260200101819052508180610e6c90612fbd565b9250505b8080610e7b90612fbd565b915050610b57565b5060008167ffffffffffffffff811115610ea057610e9f6129b9565b5b604051908082528060200260200182016040528015610ed957816020015b610ec6612220565b815260200190600190039081610ebe5790505b50905060005b82811015610f3357838181518110610efa57610ef9612f5f565b5b6020026020010151828281518110610f1557610f14612f5f565b5b60200260200101819052508080610f2b90612fbd565b915050610edf565b50809350505050919050565b600080600a548310158015610f565750600b548311155b15610f645760019050610f69565b600090505b80915050919050565b600d5481565b600c5481565b600080600c548310158015610f955750600d548311155b15610fa35760019050610fa8565b600090505b80915050919050565b60058181548110610fc157600080fd5b906000526020600020016000915054906101000a900473ffffffffffffffffffffffffffffffffffffffff1681565b6007818154811061100057600080fd5b906000526020600020016000915054906101000a900473ffffffffffffffffffffffffffffffffffffffff1681565b6000806000905060005b6007805490508110156110f05783600960006007848154811061105f5761105e612f5f565b5b9060005260206000200160009054906101000a900473ffffffffffffffffffffffffffffffffffffffff1673ffffffffffffffffffffffffffffffffffffffff1673ffffffffffffffffffffffffffffffffffffffff1681526020019081526020016000206004015414156110dd5781806110d990612fbd565b9250505b80806110e890612fbd565b915050611039565b5080915050919050565b6060600e600301805461110c90612f2d565b80601f016020809104026020016040519081016040528092919081815260200182805461113890612f2d565b80156111855780601f1061115a57610100808354040283529160200191611185565b820191906000526020600020905b81548152906001019060200180831161116857829003601f168201915b5050505050905090565b600a544210156111d4576040517f08c379a00000000000000000000000000000000000000000000000000000000081526004016111cb90613052565b60405180910390fd5b600b54421115611219576040517f08c379a0000000000000000000000000000000000000000000000000000000008152600401611210906130be565b60405180910390fd5b600060405180610100016040528060025481526020013373ffffffffffffffffffffffffffffffffffffffff1681526020018581526020018481526020018381526020016000815260200160001515815260200160011515815250905080600960003373ffffffffffffffffffffffffffffffffffffffff1673ffffffffffffffffffffffffffffffffffffffff1681526020019081526020016000206000820151816000015560208201518160010160006101000a81548173ffffffffffffffffffffffffffffffffffffffff021916908373ffffffffffffffffffffffffffffffffffffffff160217905550604082015181600201908051906020019061132392919061227f565b50606082015181600301908051906020019061134092919061227f565b506080820151816004015560a0820151816005015560c08201518160060160006101000a81548160ff02191690831515021790555060e08201518160060160016101000a81548160ff0219169083151502179055509050506005339080600181540180825580915050600190039060005260206000200160009091909190916101000a81548173ffffffffffffffffffffffffffffffffffffffff021916908373ffffffffffffffffffffffffffffffffffffffff16021790555060016002600082825461140e91906130de565b9250508190555050505050565b600360009054906101000a900473ffffffffffffffffffffffffffffffffffffffff1673ffffffffffffffffffffffffffffffffffffffff163373ffffffffffffffffffffffffffffffffffffffff161461147557600080fd5b81600860008373ffffffffffffffffffffffffffffffffffffffff1673ffffffffffffffffffffffffffffffffffffffff16815260200190815260200160002060030160006101000a81548160ff0219169083151502179055506006819080600181540180825580915050600190039060005260206000200160009091909190916101000a81548173ffffffffffffffffffffffffffffffffffffffff021916908373ffffffffffffffffffffffffffffffffffffffff1602179055505050565b60086020528060005260406000206000915090508060000160009054906101000a900473ffffffffffffffffffffffffffffffffffffffff169080600101805461157f90612f2d565b80601f01602080910402602001604051908101604052809291908181526020018280546115ab90612f2d565b80156115f85780601f106115cd576101008083540402835291602001916115f8565b820191906000526020600020905b8154815290600101906020018083116115db57829003601f168201915b50505050509080600201805461160d90612f2d565b80601f016020809104026020016040519081016040528092919081815260200182805461163990612f2d565b80156116865780601f1061165b57610100808354040283529160200191611686565b820191906000526020600020905b81548152906001019060200180831161166957829003601f168201915b5050505050908060030160009054906101000a900460ff16908060030160019054906101000a900460ff16908060030160029054906101000a900460ff16905086565b6000806000905060005b60068054905081101561176e57600681815481106116f4576116f3612f5f565b5b9060005260206000200160009054906101000a900473ffffffffffffffffffffffffffffffffffffffff1673ffffffffffffffffffffffffffffffffffffffff168473ffffffffffffffffffffffffffffffffffffffff16141561175b576001915061176e565b808061176690612fbd565b9150506116d3565b5080915050919050565b6000600254905090565b6000600c54905090565b600c544210156117d1576040517f08c379a00000000000000000000000000000000000000000000000000000000081526004016117c890613180565b60405180910390fd5b600d54421115611816576040517f08c379a000000000000000000000000000000000000000000000000000000000815260040161180d906131ec565b60405180910390fd5b60001515600860003373ffffffffffffffffffffffffffffffffffffffff1673ffffffffffffffffffffffffffffffffffffffff16815260200190815260200160002060030160019054906101000a900460ff1615151461187657600080fd5b60011515600860003373ffffffffffffffffffffffffffffffffffffffff1673ffffffffffffffffffffffffffffffffffffffff16815260200190815260200160002060030160009054906101000a900460ff161515146118d657600080fd5b6001600960008373ffffffffffffffffffffffffffffffffffffffff1673ffffffffffffffffffffffffffffffffffffffff168152602001908152602001600020600501600082825461192991906130de565b925050819055506001600860003373ffffffffffffffffffffffffffffffffffffffff1673ffffffffffffffffffffffffffffffffffffffff16815260200190815260200160002060030160016101000a81548160ff02191690831515021790555050565b6000600360009054906101000a900473ffffffffffffffffffffffffffffffffffffffff16905090565b6060600e60010180546119ca90612f2d565b80601f01602080910402602001604051908101604052809291908181526020018280546119f690612f2d565b8015611a435780601f10611a1857610100808354040283529160200191611a43565b820191906000526020600020905b815481529060010190602001808311611a2657829003601f168201915b5050505050905090565b60008060009050600080600090505b600254811015611b1457600060058281548110611a7c57611a7b612f5f565b5b9060005260206000200160009054906101000a900473ffffffffffffffffffffffffffffffffffffffff1690506000600960008373ffffffffffffffffffffffffffffffffffffffff1673ffffffffffffffffffffffffffffffffffffffff16815260200190815260200160002060050154905084811115611aff578094508193505b50508080611b0c90612fbd565b915050611a5c565b50809250505090565b600a5481565b60008060019054906101000a900460ff16905090565b60068181548110611b4957600080fd5b906000526020600020016000915054906101000a900473ffffffffffffffffffffffffffffffffffffffff1681565b6000600d54905090565b6060600e6002018054611b9490612f2d565b80601f0160208091040260200160405190810160405280929190818152602001828054611bc090612f2d565b8015611c0d5780601f10611be257610100808354040283529160200191611c0d565b820191906000526020600020905b815481529060010190602001808311611bf057829003601f168201915b5050505050905090565b600360009054906101000a900473ffffffffffffffffffffffffffffffffffffffff1673ffffffffffffffffffffffffffffffffffffffff163373ffffffffffffffffffffffffffffffffffffffff1614611c7157600080fd5b6000815167ffffffffffffffff811115611c8e57611c8d6129b9565b5b604051908082528060200260200182016040528015611cc157816020015b6060815260200190600190039081611cac5790505b50905060005b8251811015611d1c57828181518110611ce357611ce2612f5f565b5b6020026020010151828281518110611cfe57611cfd612f5f565b5b60200260200101819052508080611d1490612fbd565b915050611cc7565b5060006040518061012001604052808c81526020018b81526020018a815260200189815260200188815260200187815260200186815260200185815260200183815250905080600e6000820151816000019080519060200190611d8092919061227f565b506020820151816001019080519060200190611d9d92919061227f565b506040820151816002019080519060200190611dba92919061227f565b506060820151816003019080519060200190611dd792919061227f565b506080820151816004015560a0820151816005015560c0820151816006015560e08201518160070155610100820151816008019080519060200190611e1d929190612305565b509050506001600060026101000a81548160ff02191690831515021790555084600a8190555083600b8190555086600c8190555085600d819055505050505050505050505050565b60008060009054906101000a900460ff16905090565b6000600b54905090565b600360009054906101000a900473ffffffffffffffffffffffffffffffffffffffff1673ffffffffffffffffffffffffffffffffffffffff163373ffffffffffffffffffffffffffffffffffffffff1614611edf57600080fd5b81600960008373ffffffffffffffffffffffffffffffffffffffff1673ffffffffffffffffffffffffffffffffffffffff16815260200190815260200160002060060160006101000a81548160ff0219169083151502179055506007819080600181540180825580915050600190039060005260206000200160009091909190916101000a81548173ffffffffffffffffffffffffffffffffffffffff021916908373ffffffffffffffffffffffffffffffffffffffff1602179055505050565b60048181548110611fb057600080fd5b906000526020600020016000915054906101000a900473ffffffffffffffffffffffffffffffffffffffff1681565b60008060029054906101000a900460ff16905090565b6000600a54905090565b600b5481565b600360009054906101000a900473ffffffffffffffffffffffffffffffffffffffff1681565b60006040518060c001604052803373ffffffffffffffffffffffffffffffffffffffff16815260200184815260200183815260200160001515815260200160001515815260200160011515815250905080600860003373ffffffffffffffffffffffffffffffffffffffff1673ffffffffffffffffffffffffffffffffffffffff16815260200190815260200160002060008201518160000160006101000a81548173ffffffffffffffffffffffffffffffffffffffff021916908373ffffffffffffffffffffffffffffffffffffffff160217905550602082015181600101908051906020019061211e92919061227f565b50604082015181600201908051906020019061213b92919061227f565b5060608201518160030160006101000a81548160ff02191690831515021790555060808201518160030160016101000a81548160ff02191690831515021790555060a08201518160030160026101000a81548160ff0219169083151502179055509050506004339080600181540180825580915050600190039060005260206000200160009091909190916101000a81548173ffffffffffffffffffffffffffffffffffffffff021916908373ffffffffffffffffffffffffffffffffffffffff160217905550600180600082825461221491906130de565b92505081905550505050565b60405180610100016040528060008152602001600073ffffffffffffffffffffffffffffffffffffffff168152602001606081526020016060815260200160008152602001600081526020016000151581526020016000151581525090565b82805461228b90612f2d565b90600052602060002090601f0160209004810192826122ad57600085556122f4565b82601f106122c657805160ff19168380011785556122f4565b828001600101855582156122f4579182015b828111156122f35782518255916020019190600101906122d8565b5b5090506123019190612365565b5090565b828054828255906000526020600020908101928215612354579160200282015b8281111561235357825182908051906020019061234392919061227f565b5091602001919060010190612325565b5b5090506123619190612382565b5090565b5b8082111561237e576000816000905550600101612366565b5090565b5b808211156123a2576000818161239991906123a6565b50600101612383565b5090565b5080546123b290612f2d565b6000825580601f106123c457506123e3565b601f0160209004906000526020600020908101906123e29190612365565b5b50565b6000604051905090565b600080fd5b600080fd5b600073ffffffffffffffffffffffffffffffffffffffff82169050919050565b6000612425826123fa565b9050919050565b6124358161241a565b811461244057600080fd5b50565b6000813590506124528161242c565b92915050565b60006020828403121561246e5761246d6123f0565b5b600061247c84828501612443565b91505092915050565b6000819050919050565b61249881612485565b82525050565b6124a78161241a565b82525050565b600081519050919050565b600082825260208201905092915050565b60005b838110156124e75780820151818401526020810190506124cc565b838111156124f6576000848401525b50505050565b6000601f19601f8301169050919050565b6000612518826124ad565b61252281856124b8565b93506125328185602086016124c9565b61253b816124fc565b840191505092915050565b60008115159050919050565b61255b81612546565b82525050565b600061010082019050612577600083018b61248f565b612584602083018a61249e565b8181036040830152612596818961250d565b905081810360608301526125aa818861250d565b90506125b9608083018761248f565b6125c660a083018661248f565b6125d360c0830185612552565b6125e060e0830184612552565b9998505050505050505050565b600081519050919050565b600082825260208201905092915050565b6000819050602082019050919050565b600082825260208201905092915050565b6000612635826124ad565b61263f8185612619565b935061264f8185602086016124c9565b612658816124fc565b840191505092915050565b600061266f838361262a565b905092915050565b6000602082019050919050565b600061268f826125ed565b61269981856125f8565b9350836020820285016126ab85612609565b8060005b858110156126e757848403895281516126c88582612663565b94506126d383612677565b925060208a019950506001810190506126af565b50829750879550505050505092915050565b600060208201905081810360008301526127138184612684565b905092915050565b6000602082019050612730600083018461248f565b92915050565b60006020820190508181036000830152612750818461250d565b905092915050565b61276181612485565b811461276c57600080fd5b50565b60008135905061277e81612758565b92915050565b60006020828403121561279a576127996123f0565b5b60006127a88482850161276f565b91505092915050565b600081519050919050565b600082825260208201905092915050565b6000819050602082019050919050565b6127e681612485565b82525050565b6127f58161241a565b82525050565b61280481612546565b82525050565b60006101008301600083015161282360008601826127dd565b50602083015161283660208601826127ec565b506040830151848203604086015261284e828261262a565b91505060608301518482036060860152612868828261262a565b915050608083015161287d60808601826127dd565b5060a083015161289060a08601826127dd565b5060c08301516128a360c08601826127fb565b5060e08301516128b660e08601826127fb565b508091505092915050565b60006128cd838361280a565b905092915050565b6000602082019050919050565b60006128ed826127b1565b6128f781856127bc565b935083602082028501612909856127cd565b8060005b85811015612945578484038952815161292685826128c1565b9450612931836128d5565b925060208a0199505060018101905061290d565b50829750879550505050505092915050565b6000602082019050818103600083015261297181846128e2565b905092915050565b600060208201905061298e6000830184612552565b92915050565b60006020820190506129a9600083018461249e565b92915050565b600080fd5b600080fd5b7f4e487b7100000000000000000000000000000000000000000000000000000000600052604160045260246000fd5b6129f1826124fc565b810181811067ffffffffffffffff82111715612a1057612a0f6129b9565b5b80604052505050565b6000612a236123e6565b9050612a2f82826129e8565b919050565b600067ffffffffffffffff821115612a4f57612a4e6129b9565b5b612a58826124fc565b9050602081019050919050565b82818337600083830152505050565b6000612a87612a8284612a34565b612a19565b905082815260208101848484011115612aa357612aa26129b4565b5b612aae848285612a65565b509392505050565b600082601f830112612acb57612aca6129af565b5b8135612adb848260208601612a74565b91505092915050565b600080600060608486031215612afd57612afc6123f0565b5b600084013567ffffffffffffffff811115612b1b57612b1a6123f5565b5b612b2786828701612ab6565b935050602084013567ffffffffffffffff811115612b4857612b476123f5565b5b612b5486828701612ab6565b9250506040612b658682870161276f565b9150509250925092565b612b7881612546565b8114612b8357600080fd5b50565b600081359050612b9581612b6f565b92915050565b60008060408385031215612bb257612bb16123f0565b5b6000612bc085828601612b86565b9250506020612bd185828601612443565b9150509250929050565b600060c082019050612bf0600083018961249e565b8181036020830152612c02818861250d565b90508181036040830152612c16818761250d565b9050612c256060830186612552565b612c326080830185612552565b612c3f60a0830184612552565b979650505050505050565b600067ffffffffffffffff821115612c6557612c646129b9565b5b602082029050602081019050919050565b600080fd5b6000612c8e612c8984612c4a565b612a19565b90508083825260208201905060208402830185811115612cb157612cb0612c76565b5b835b81811015612cf857803567ffffffffffffffff811115612cd657612cd56129af565b5b808601612ce38982612ab6565b85526020850194505050602081019050612cb3565b5050509392505050565b600082601f830112612d1757612d166129af565b5b8135612d27848260208601612c7b565b91505092915050565b60008060008060008060008060006101208a8c031215612d5357612d526123f0565b5b60008a013567ffffffffffffffff811115612d7157612d706123f5565b5b612d7d8c828d01612ab6565b99505060208a013567ffffffffffffffff811115612d9e57612d9d6123f5565b5b612daa8c828d01612ab6565b98505060408a013567ffffffffffffffff811115612dcb57612dca6123f5565b5b612dd78c828d01612ab6565b97505060608a013567ffffffffffffffff811115612df857612df76123f5565b5b612e048c828d01612ab6565b9650506080612e158c828d0161276f565b95505060a0612e268c828d0161276f565b94505060c0612e378c828d0161276f565b93505060e0612e488c828d0161276f565b9250506101008a013567ffffffffffffffff811115612e6a57612e696123f5565b5b612e768c828d01612d02565b9150509295985092959850929598565b60008060408385031215612e9d57612e9c6123f0565b5b600083013567ffffffffffffffff811115612ebb57612eba6123f5565b5b612ec785828601612ab6565b925050602083013567ffffffffffffffff811115612ee857612ee76123f5565b5b612ef485828601612ab6565b9150509250929050565b7f4e487b7100000000000000000000000000000000000000000000000000000000600052602260045260246000fd5b60006002820490506001821680612f4557607f821691505b60208210811415612f5957612f58612efe565b5b50919050565b7f4e487b7100000000000000000000000000000000000000000000000000000000600052603260045260246000fd5b7f4e487b7100000000000000000000000000000000000000000000000000000000600052601160045260246000fd5b6000612fc882612485565b91507fffffffffffffffffffffffffffffffffffffffffffffffffffffffffffffffff821415612ffb57612ffa612f8e565b5b600182019050919050565b7f526567697374726174696f6e206973206e6f7420737461727465642079657400600082015250565b600061303c601f836124b8565b915061304782613006565b602082019050919050565b6000602082019050818103600083015261306b8161302f565b9050919050565b7f526567697374726174696f6e20697320616c726561647920656e6465642e0000600082015250565b60006130a8601e836124b8565b91506130b382613072565b602082019050919050565b600060208201905081810360008301526130d78161309b565b9050919050565b60006130e982612485565b91506130f483612485565b9250827fffffffffffffffffffffffffffffffffffffffffffffffffffffffffffffffff0382111561312957613128612f8e565b5b828201905092915050565b7f566f74696e67206973206e6f7420737461727465642079657400000000000000600082015250565b600061316a6019836124b8565b915061317582613134565b602082019050919050565b600060208201905081810360008301526131998161315d565b9050919050565b7f566f74696e6720697320616c726561647920656e646564000000000000000000600082015250565b60006131d66017836124b8565b91506131e1826131a0565b602082019050919050565b60006020820190508181036000830152613205816131c9565b905091905056fea2646970667358221220fe663b698a6e3ebabd5661c05a133c3baba6fb521d0b62709eb477b988819feb64736f6c634300080b0033",
  "linkReferences": {},
  "deployedLinkReferences": {}
}