{
  "_format": "hh-sol-artifact-1",
  "contractName": "Election",
  "sourceName": "contracts/Election.sol",
  "abi": [
    {
      "inputs": [],
      "stateMutability": "nonpayable",
      "type": "constructor"
    },
    {
      "inputs": [],
      "name": "admin",
      "outputs": [
        {
          "internalType": "address",
          "name": "",
          "type": "address"
        }
      ],
      "stateMutability": "view",
      "type": "function"
    },
    {
      "inputs": [
        {
          "internalType": "uint256",
          "name": "",
          "type": "uint256"
        }
      ],
      "name": "approvedCandidates",
      "outputs": [
        {
          "internalType": "address",
          "name": "",
          "type": "address"
        }
      ],
      "stateMutability": "view",
      "type": "function"
    },
    {
      "inputs": [
        {
          "internalType": "uint256",
          "name": "",
          "type": "uint256"
        }
      ],
      "name": "approvedVoters",
      "outputs": [
        {
          "internalType": "address",
          "name": "",
          "type": "address"
        }
      ],
      "stateMutability": "view",
      "type": "function"
    },
    {
      "inputs": [
        {
          "internalType": "address",
          "name": "",
          "type": "address"
        }
      ],
      "name": "candidateDetails",
      "outputs": [
        {
          "internalType": "uint256",
          "name": "candidateId",
          "type": "uint256"
        },
        {
          "internalType": "address",
          "name": "candidateAddress",
          "type": "address"
        },
        {
          "internalType": "string",
          "name": "header",
          "type": "string"
        },
        {
          "internalType": "string",
          "name": "slogan",
          "type": "string"
        },
        {
          "internalType": "uint256",
          "name": "electionTitleIndex",
          "type": "uint256"
        },
        {
          "internalType": "uint256",
          "name": "voteCount",
          "type": "uint256"
        },
        {
          "internalType": "bool",
          "name": "isVerified",
          "type": "bool"
        },
        {
          "internalType": "bool",
          "name": "isRegistered",
          "type": "bool"
        }
      ],
      "stateMutability": "view",
      "type": "function"
    },
    {
      "inputs": [
        {
          "internalType": "uint256",
          "name": "",
          "type": "uint256"
        }
      ],
      "name": "candidates",
      "outputs": [
        {
          "internalType": "address",
          "name": "",
          "type": "address"
        }
      ],
      "stateMutability": "view",
      "type": "function"
    },
    {
      "inputs": [],
      "name": "getAdmin",
      "outputs": [
        {
          "internalType": "address",
          "name": "",
          "type": "address"
        }
      ],
      "stateMutability": "view",
      "type": "function"
    },
    {
      "inputs": [],
      "name": "getAdminEmail",
      "outputs": [
        {
          "internalType": "string",
          "name": "",
          "type": "string"
        }
      ],
      "stateMutability": "view",
      "type": "function"
    },
    {
      "inputs": [],
      "name": "getAdminName",
      "outputs": [
        {
          "internalType": "string",
          "name": "",
          "type": "string"
        }
      ],
      "stateMutability": "view",
      "type": "function"
    },
    {
      "inputs": [],
      "name": "getAdminTitle",
      "outputs": [
        {
          "internalType": "string",
          "name": "",
          "type": "string"
        }
      ],
      "stateMutability": "view",
      "type": "function"
    },
    {
      "inputs": [],
      "name": "getAlreadyRegisteredCandidateStatus",
      "outputs": [
        {
          "internalType": "bool",
          "name": "",
          "type": "bool"
        }
      ],
      "stateMutability": "view",
      "type": "function"
    },
    {
      "inputs": [
        {
          "internalType": "uint256",
          "name": "_electionTitleIndex",
          "type": "uint256"
        }
      ],
      "name": "getCandidateCountForAsscociatedElection",
      "outputs": [
        {
          "internalType": "uint256",
          "name": "",
          "type": "uint256"
        }
      ],
      "stateMutability": "view",
      "type": "function"
    },
    {
      "inputs": [
        {
          "internalType": "uint256",
          "name": "_electionTitleIndex",
          "type": "uint256"
        }
      ],
      "name": "getCandidatesForAssociatedElections",
      "outputs": [
        {
          "components": [
            {
              "internalType": "uint256",
              "name": "candidateId",
              "type": "uint256"
            },
            {
              "internalType": "address",
              "name": "candidateAddress",
              "type": "address"
            },
            {
              "internalType": "string",
              "name": "header",
              "type": "string"
            },
            {
              "internalType": "string",
              "name": "slogan",
              "type": "string"
            },
            {
              "internalType": "uint256",
              "name": "electionTitleIndex",
              "type": "uint256"
            },
            {
              "internalType": "uint256",
              "name": "voteCount",
              "type": "uint256"
            },
            {
              "internalType": "bool",
              "name": "isVerified",
              "type": "bool"
            },
            {
              "internalType": "bool",
              "name": "isRegistered",
              "type": "bool"
            }
          ],
          "internalType": "struct Election.Candidate[]",
          "name": "",
          "type": "tuple[]"
        }
      ],
      "stateMutability": "view",
      "type": "function"
    },
    {
      "inputs": [],
      "name": "getElectionInitStatus",
      "outputs": [
        {
          "internalType": "bool",
          "name": "",
          "type": "bool"
        }
      ],
      "stateMutability": "view",
      "type": "function"
    },
    {
      "inputs": [
        {
          "internalType": "uint256",
          "name": "_timeStamp",
          "type": "uint256"
        }
      ],
      "name": "getElectionStatus",
      "outputs": [
        {
          "internalType": "bool",
          "name": "",
          "type": "bool"
        }
      ],
      "stateMutability": "view",
      "type": "function"
    },
    {
      "inputs": [],
      "name": "getElectionTitles",
      "outputs": [
        {
          "internalType": "string[]",
          "name": "",
          "type": "string[]"
        }
      ],
      "stateMutability": "view",
      "type": "function"
    },
    {
      "inputs": [],
      "name": "getEnd",
      "outputs": [
        {
          "internalType": "bool",
          "name": "",
          "type": "bool"
        }
      ],
      "stateMutability": "view",
      "type": "function"
    },
    {
      "inputs": [],
      "name": "getOrganizationTitle",
      "outputs": [
        {
          "internalType": "string",
          "name": "",
          "type": "string"
        }
      ],
      "stateMutability": "view",
      "type": "function"
    },
    {
      "inputs": [],
      "name": "getRegistrationEndTime",
      "outputs": [
        {
          "internalType": "uint256",
          "name": "",
          "type": "uint256"
        }
      ],
      "stateMutability": "view",
      "type": "function"
    },
    {
      "inputs": [],
      "name": "getRegistrationStartTime",
      "outputs": [
        {
          "internalType": "uint256",
          "name": "",
          "type": "uint256"
        }
      ],
      "stateMutability": "view",
      "type": "function"
    },
    {
      "inputs": [
        {
          "internalType": "uint256",
          "name": "_timeStamp",
          "type": "uint256"
        }
      ],
      "name": "getRegistrationStatus",
      "outputs": [
        {
          "internalType": "bool",
          "name": "",
          "type": "bool"
        }
      ],
      "stateMutability": "view",
      "type": "function"
    },
    {
      "inputs": [],
      "name": "getStart",
      "outputs": [
        {
          "internalType": "bool",
          "name": "",
          "type": "bool"
        }
      ],
      "stateMutability": "view",
      "type": "function"
    },
    {
      "inputs": [],
      "name": "getTotalCandidate",
      "outputs": [
        {
          "internalType": "uint256",
          "name": "",
          "type": "uint256"
        }
      ],
      "stateMutability": "view",
      "type": "function"
    },
    {
      "inputs": [],
      "name": "getTotalVoter",
      "outputs": [
        {
          "internalType": "uint256",
          "name": "",
          "type": "uint256"
        }
      ],
      "stateMutability": "view",
      "type": "function"
    },
    {
      "inputs": [
        {
          "internalType": "address",
          "name": "_currentAddress",
          "type": "address"
        }
      ],
      "name": "getVoterStatusForCandidate",
      "outputs": [
        {
          "internalType": "bool",
          "name": "",
          "type": "bool"
        }
      ],
      "stateMutability": "view",
      "type": "function"
    },
    {
      "inputs": [],
      "name": "getVotingEndTime",
      "outputs": [
        {
          "internalType": "uint256",
          "name": "",
          "type": "uint256"
        }
      ],
      "stateMutability": "view",
      "type": "function"
    },
    {
      "inputs": [],
      "name": "getVotingStartTime",
      "outputs": [
        {
          "internalType": "uint256",
          "name": "",
          "type": "uint256"
        }
      ],
      "stateMutability": "view",
      "type": "function"
    },
    {
      "inputs": [],
      "name": "getWinner",
      "outputs": [
        {
          "internalType": "address",
          "name": "",
          "type": "address"
        }
      ],
      "stateMutability": "view",
      "type": "function"
    },
    {
      "inputs": [
        {
          "internalType": "string",
          "name": "_header",
          "type": "string"
        },
        {
          "internalType": "string",
          "name": "_slogan",
          "type": "string"
        },
        {
          "internalType": "uint256",
          "name": "_electionTitleIndex",
          "type": "uint256"
        }
      ],
      "name": "registerAsCandidate",
      "outputs": [],
      "stateMutability": "nonpayable",
      "type": "function"
    },
    {
      "inputs": [
        {
          "internalType": "string",
          "name": "_name",
          "type": "string"
        },
        {
          "internalType": "string",
          "name": "_phone",
          "type": "string"
        }
      ],
      "name": "registerAsVoter",
      "outputs": [],
      "stateMutability": "nonpayable",
      "type": "function"
    },
    {
      "inputs": [],
      "name": "registrationEndTime",
      "outputs": [
        {
          "internalType": "uint256",
          "name": "",
          "type": "uint256"
        }
      ],
      "stateMutability": "view",
      "type": "function"
    },
    {
      "inputs": [],
      "name": "registrationStartTime",
      "outputs": [
        {
          "internalType": "uint256",
          "name": "",
          "type": "uint256"
        }
      ],
      "stateMutability": "view",
      "type": "function"
    },
    {
      "inputs": [
        {
          "internalType": "string",
          "name": "_adminName",
          "type": "string"
        },
        {
          "internalType": "string",
          "name": "_adminEmail",
          "type": "string"
        },
        {
          "internalType": "string",
          "name": "_adminTitle",
          "type": "string"
        },
        {
          "internalType": "string",
          "name": "_organizationTitle",
          "type": "string"
        },
        {
          "internalType": "uint256",
          "name": "_votingStartTime",
          "type": "uint256"
        },
        {
          "internalType": "uint256",
          "name": "_votingEndTime",
          "type": "uint256"
        },
        {
          "internalType": "uint256",
          "name": "_registrationStartTime",
          "type": "uint256"
        },
        {
          "internalType": "uint256",
          "name": "_registrationEndTime",
          "type": "uint256"
        },
        {
          "internalType": "string[]",
          "name": "_elections",
          "type": "string[]"
        }
      ],
      "name": "setElectionDetails",
      "outputs": [],
      "stateMutability": "nonpayable",
      "type": "function"
    },
    {
      "inputs": [
        {
          "internalType": "bool",
          "name": "_verifedStatus",
          "type": "bool"
        },
        {
          "internalType": "address",
          "name": "candidateAddress",
          "type": "address"
        }
      ],
      "name": "verifyCandidate",
      "outputs": [],
      "stateMutability": "nonpayable",
      "type": "function"
    },
    {
      "inputs": [
        {
          "internalType": "bool",
          "name": "_verifedStatus",
          "type": "bool"
        },
        {
          "internalType": "address",
          "name": "voterAddress",
          "type": "address"
        }
      ],
      "name": "verifyVoter",
      "outputs": [],
      "stateMutability": "nonpayable",
      "type": "function"
    },
    {
      "inputs": [
        {
          "internalType": "address",
          "name": "_candidateAddress",
          "type": "address"
        }
      ],
      "name": "vote",
      "outputs": [],
      "stateMutability": "nonpayable",
      "type": "function"
    },
    {
      "inputs": [
        {
          "internalType": "address",
          "name": "",
          "type": "address"
        }
      ],
      "name": "voterDetails",
      "outputs": [
        {
          "internalType": "address",
          "name": "voterAddress",
          "type": "address"
        },
        {
          "internalType": "string",
          "name": "name",
          "type": "string"
        },
        {
          "internalType": "string",
          "name": "phone",
          "type": "string"
        },
        {
          "internalType": "bool",
          "name": "isVerified",
          "type": "bool"
        },
        {
          "internalType": "bool",
          "name": "hasVoted",
          "type": "bool"
        },
        {
          "internalType": "bool",
          "name": "isRegistered",
          "type": "bool"
        }
      ],
      "stateMutability": "view",
      "type": "function"
    },
    {
      "inputs": [
        {
          "internalType": "uint256",
          "name": "",
          "type": "uint256"
        }
      ],
      "name": "voters",
      "outputs": [
        {
          "internalType": "address",
          "name": "",
          "type": "address"
        }
      ],
      "stateMutability": "view",
      "type": "function"
    },
    {
      "inputs": [],
      "name": "votingEndTime",
      "outputs": [
        {
          "internalType": "uint256",
          "name": "",
          "type": "uint256"
        }
      ],
      "stateMutability": "view",
      "type": "function"
    },
    {
      "inputs": [],
      "name": "votingStartTime",
      "outputs": [
        {
          "internalType": "uint256",
          "name": "",
          "type": "uint256"
        }
      ],
      "stateMutability": "view",
      "type": "function"
    }
  ],
  "bytecode": "0x608060405234801561001057600080fd5b5033600360006101000a81548173ffffffffffffffffffffffffffffffffffffffff021916908373ffffffffffffffffffffffffffffffffffffffff1602179055506000600281905550600060018190555060008060006101000a81548160ff02191690831515021790555060008060016101000a81548160ff02191690831515021790555060008060026101000a81548160ff0219169083151502179055506000600a819055506000600b819055506000600c819055506000600d8190555060008060036101000a81548160ff02191690831515021790555061329c806100f96000396000f3fe608060405234801561001057600080fd5b506004361061023d5760003560e01c80636dd7d8ea1161013b578063c3a171a2116100b8578063dd698f901161007c578063dd698f9014610706578063df6d278414610724578063dff7d2c714610742578063f851a44014610760578063fee0d19a1461077e5761023d565b8063c3a171a214610662578063c5292c671461067e578063c784d2131461069c578063cad43b48146106ba578063da58c7d9146106d65761023d565b80639f05a36d116100ff5780639f05a36d146105ba578063a2529f53146105d8578063aed93010146105f6578063b1bf87b014610626578063be081b6f146106445761023d565b80636dd7d8ea146105265780636e9960c314610542578063831318f1146105605780638e7ea5b21461057e5780639af5c09d1461059c5761023d565b80633477ee2e116101c9578063506b8e0a1161018d578063506b8e0a146104695780635938750d146104855780635fcdd8a1146104ba57806364d198a1146104ea5780636a82ee51146105085761023d565b80633477ee2e1461039f5780633f66f48b146103cf57806341217ed5146103ff578063483431751461042f5780634c652fc61461044d5761023d565b8063158110291161021057806315811029146102d357806319c5c507146103035780631ea736e0146103335780632019a6081461035157806324785b9e1461036f5761023d565b806305e73ced146102425780630712aa05146102795780630b93400e146102975780630e2354cf146102b5575b600080fd5b61025c600480360381019061025791906124b2565b61079a565b6040516102709897969594939291906125bb565b60405180910390f35b61028161092c565b60405161028e9190612753565b60405180910390f35b61029f610a7e565b6040516102ac9190612775565b60405180910390f35b6102bd610a88565b6040516102ca9190612790565b60405180910390f35b6102ed60048036038101906102e891906127de565b610b1d565b6040516102fa91906129b1565b60405180910390f35b61031d600480360381019061031891906127de565b610f68565b60405161032a91906129d3565b60405180910390f35b61033b610f9b565b6040516103489190612775565b60405180910390f35b610359610fa1565b6040516103669190612775565b60405180910390f35b610389600480360381019061038491906127de565b610fa7565b60405161039691906129d3565b60405180910390f35b6103b960048036038101906103b491906127de565b610fda565b6040516103c691906129ee565b60405180910390f35b6103e960048036038101906103e491906127de565b611019565b6040516103f691906129ee565b60405180910390f35b610419600480360381019061041491906127de565b611058565b6040516104269190612775565b60405180910390f35b610437611123565b6040516104449190612790565b60405180910390f35b61046760048036038101906104629190612b3e565b6111b8565b005b610483600480360381019061047e9190612bf5565b61145f565b005b61049f600480360381019061049a91906124b2565b61157a565b6040516104b196959493929190612c35565b60405180910390f35b6104d460048036038101906104cf91906124b2565b61170d565b6040516104e191906129d3565b60405180910390f35b6104f26117bc565b6040516104ff9190612775565b60405180910390f35b6105106117c6565b60405161051d9190612775565b60405180910390f35b610540600480360381019061053b91906124b2565b6117d0565b005b61054a6119d2565b60405161055791906129ee565b60405180910390f35b6105686119fc565b6040516105759190612790565b60405180910390f35b610586611a91565b60405161059391906129ee565b60405180910390f35b6105a4611b61565b6040516105b19190612775565b60405180910390f35b6105c2611b67565b6040516105cf91906129d3565b60405180910390f35b6105e0611b7d565b6040516105ed91906129d3565b60405180910390f35b610610600480360381019061060b91906127de565b611b93565b60405161061d91906129ee565b60405180910390f35b61062e611bd2565b60405161063b9190612775565b60405180910390f35b61064c611bdc565b6040516106599190612790565b60405180910390f35b61067c60048036038101906106779190612d8a565b611c71565b005b610686611ebf565b60405161069391906129d3565b60405180910390f35b6106a4611ed5565b6040516106b19190612775565b60405180910390f35b6106d460048036038101906106cf9190612bf5565b611edf565b005b6106f060048036038101906106eb91906127de565b611ffa565b6040516106fd91906129ee565b60405180910390f35b61070e612039565b60405161071b91906129d3565b60405180910390f35b61072c61204f565b6040516107399190612775565b60405180910390f35b61074a612059565b6040516107579190612775565b60405180910390f35b61076861205f565b60405161077591906129ee565b60405180910390f35b61079860048036038101906107939190612ee0565b612085565b005b60096020528060005260406000206000915090508060000154908060010160009054906101000a900473ffffffffffffffffffffffffffffffffffffffff16908060020180546107e990612f87565b80601f016020809104026020016040519081016040528092919081815260200182805461081590612f87565b80156108625780601f1061083757610100808354040283529160200191610862565b820191906000526020600020905b81548152906001019060200180831161084557829003601f168201915b50505050509080600301805461087790612f87565b80601f01602080910402602001604051908101604052809291908181526020018280546108a390612f87565b80156108f05780601f106108c5576101008083540402835291602001916108f0565b820191906000526020600020905b8154815290600101906020018083116108d357829003601f168201915b5050505050908060040154908060050154908060060160009054906101000a900460ff16908060060160019054906101000a900460ff16905088565b60606000600e6008018054905067ffffffffffffffff81111561095257610951612a13565b5b60405190808252806020026020018201604052801561098557816020015b60608152602001906001900390816109705790505b50905060005b600e60080180549050811015610a7657600e60080181815481106109b2576109b1612fb9565b5b9060005260206000200180546109c790612f87565b80601f01602080910402602001604051908101604052809291908181526020018280546109f390612f87565b8015610a405780601f10610a1557610100808354040283529160200191610a40565b820191906000526020600020905b815481529060010190602001808311610a2357829003601f168201915b5050505050828281518110610a5857610a57612fb9565b5b60200260200101819052508080610a6e90613017565b91505061098b565b508091505090565b6000600154905090565b6060600e6000018054610a9a90612f87565b80601f0160208091040260200160405190810160405280929190818152602001828054610ac690612f87565b8015610b135780601f10610ae857610100808354040283529160200191610b13565b820191906000526020600020905b815481529060010190602001808311610af657829003601f168201915b5050505050905090565b6060600060078054905067ffffffffffffffff811115610b4057610b3f612a13565b5b604051908082528060200260200182016040528015610b7957816020015b610b6661227a565b815260200190600190039081610b5e5790505b5090506000805b600780549050811015610eac57846009600060078481548110610ba657610ba5612fb9565b5b9060005260206000200160009054906101000a900473ffffffffffffffffffffffffffffffffffffffff1673ffffffffffffffffffffffffffffffffffffffff1673ffffffffffffffffffffffffffffffffffffffff168152602001908152602001600020600401541415610e99576009600060078381548110610c2d57610c2c612fb9565b5b9060005260206000200160009054906101000a900473ffffffffffffffffffffffffffffffffffffffff1673ffffffffffffffffffffffffffffffffffffffff1673ffffffffffffffffffffffffffffffffffffffff16815260200190815260200160002060405180610100016040529081600082015481526020016001820160009054906101000a900473ffffffffffffffffffffffffffffffffffffffff1673ffffffffffffffffffffffffffffffffffffffff1673ffffffffffffffffffffffffffffffffffffffff168152602001600282018054610d0e90612f87565b80601f0160208091040260200160405190810160405280929190818152602001828054610d3a90612f87565b8015610d875780601f10610d5c57610100808354040283529160200191610d87565b820191906000526020600020905b815481529060010190602001808311610d6a57829003601f168201915b50505050508152602001600382018054610da090612f87565b80601f0160208091040260200160405190810160405280929190818152602001828054610dcc90612f87565b8015610e195780601f10610dee57610100808354040283529160200191610e19565b820191906000526020600020905b815481529060010190602001808311610dfc57829003601f168201915b5050505050815260200160048201548152602001600582015481526020016006820160009054906101000a900460ff161515151581526020016006820160019054906101000a900460ff161515151581525050838381518110610e7f57610e7e612fb9565b5b60200260200101819052508180610e9590613017565b9250505b8080610ea490613017565b915050610b80565b5060008167ffffffffffffffff811115610ec957610ec8612a13565b5b604051908082528060200260200182016040528015610f0257816020015b610eef61227a565b815260200190600190039081610ee75790505b50905060005b82811015610f5c57838181518110610f2357610f22612fb9565b5b6020026020010151828281518110610f3e57610f3d612fb9565b5b60200260200101819052508080610f5490613017565b915050610f08565b50809350505050919050565b600080600a548310158015610f7f5750600b548311155b15610f8d5760019050610f92565b600090505b80915050919050565b600d5481565b600c5481565b600080600c548310158015610fbe5750600d548311155b15610fcc5760019050610fd1565b600090505b80915050919050565b60058181548110610fea57600080fd5b906000526020600020016000915054906101000a900473ffffffffffffffffffffffffffffffffffffffff1681565b6007818154811061102957600080fd5b906000526020600020016000915054906101000a900473ffffffffffffffffffffffffffffffffffffffff1681565b6000806000905060005b6007805490508110156111195783600960006007848154811061108857611087612fb9565b5b9060005260206000200160009054906101000a900473ffffffffffffffffffffffffffffffffffffffff1673ffffffffffffffffffffffffffffffffffffffff1673ffffffffffffffffffffffffffffffffffffffff16815260200190815260200160002060040154141561110657818061110290613017565b9250505b808061111190613017565b915050611062565b5080915050919050565b6060600e600301805461113590612f87565b80601f016020809104026020016040519081016040528092919081815260200182805461116190612f87565b80156111ae5780601f10611183576101008083540402835291602001916111ae565b820191906000526020600020905b81548152906001019060200180831161119157829003601f168201915b5050505050905090565b600a544210156111fd576040517f08c379a00000000000000000000000000000000000000000000000000000000081526004016111f4906130ac565b60405180910390fd5b600b54421115611242576040517f08c379a000000000000000000000000000000000000000000000000000000000815260040161123990613118565b60405180910390fd5b600060405180610100016040528060025481526020013373ffffffffffffffffffffffffffffffffffffffff1681526020018581526020018481526020018381526020016000815260200160001515815260200160011515815250905080600960003373ffffffffffffffffffffffffffffffffffffffff1673ffffffffffffffffffffffffffffffffffffffff1681526020019081526020016000206000820151816000015560208201518160010160006101000a81548173ffffffffffffffffffffffffffffffffffffffff021916908373ffffffffffffffffffffffffffffffffffffffff160217905550604082015181600201908051906020019061134c9291906122d9565b5060608201518160030190805190602001906113699291906122d9565b506080820151816004015560a0820151816005015560c08201518160060160006101000a81548160ff02191690831515021790555060e08201518160060160016101000a81548160ff0219169083151502179055509050506005339080600181540180825580915050600190039060005260206000200160009091909190916101000a81548173ffffffffffffffffffffffffffffffffffffffff021916908373ffffffffffffffffffffffffffffffffffffffff1602179055506001600260008282546114379190613138565b925050819055506001600060036101000a81548160ff02191690831515021790555050505050565b600360009054906101000a900473ffffffffffffffffffffffffffffffffffffffff1673ffffffffffffffffffffffffffffffffffffffff163373ffffffffffffffffffffffffffffffffffffffff16146114b957600080fd5b81600860008373ffffffffffffffffffffffffffffffffffffffff1673ffffffffffffffffffffffffffffffffffffffff16815260200190815260200160002060030160006101000a81548160ff0219169083151502179055506006819080600181540180825580915050600190039060005260206000200160009091909190916101000a81548173ffffffffffffffffffffffffffffffffffffffff021916908373ffffffffffffffffffffffffffffffffffffffff1602179055505050565b60086020528060005260406000206000915090508060000160009054906101000a900473ffffffffffffffffffffffffffffffffffffffff16908060010180546115c390612f87565b80601f01602080910402602001604051908101604052809291908181526020018280546115ef90612f87565b801561163c5780601f106116115761010080835404028352916020019161163c565b820191906000526020600020905b81548152906001019060200180831161161f57829003601f168201915b50505050509080600201805461165190612f87565b80601f016020809104026020016040519081016040528092919081815260200182805461167d90612f87565b80156116ca5780601f1061169f576101008083540402835291602001916116ca565b820191906000526020600020905b8154815290600101906020018083116116ad57829003601f168201915b5050505050908060030160009054906101000a900460ff16908060030160019054906101000a900460ff16908060030160029054906101000a900460ff16905086565b6000806000905060005b6006805490508110156117b2576006818154811061173857611737612fb9565b5b9060005260206000200160009054906101000a900473ffffffffffffffffffffffffffffffffffffffff1673ffffffffffffffffffffffffffffffffffffffff168473ffffffffffffffffffffffffffffffffffffffff16141561179f57600191506117b2565b80806117aa90613017565b915050611717565b5080915050919050565b6000600254905090565b6000600c54905090565b600c54421015611815576040517f08c379a000000000000000000000000000000000000000000000000000000000815260040161180c906131da565b60405180910390fd5b600d5442111561185a576040517f08c379a000000000000000000000000000000000000000000000000000000000815260040161185190613246565b60405180910390fd5b60001515600860003373ffffffffffffffffffffffffffffffffffffffff1673ffffffffffffffffffffffffffffffffffffffff16815260200190815260200160002060030160019054906101000a900460ff161515146118ba57600080fd5b60011515600860003373ffffffffffffffffffffffffffffffffffffffff1673ffffffffffffffffffffffffffffffffffffffff16815260200190815260200160002060030160009054906101000a900460ff1615151461191a57600080fd5b6001600960008373ffffffffffffffffffffffffffffffffffffffff1673ffffffffffffffffffffffffffffffffffffffff168152602001908152602001600020600501600082825461196d9190613138565b925050819055506001600860003373ffffffffffffffffffffffffffffffffffffffff1673ffffffffffffffffffffffffffffffffffffffff16815260200190815260200160002060030160016101000a81548160ff02191690831515021790555050565b6000600360009054906101000a900473ffffffffffffffffffffffffffffffffffffffff16905090565b6060600e6001018054611a0e90612f87565b80601f0160208091040260200160405190810160405280929190818152602001828054611a3a90612f87565b8015611a875780601f10611a5c57610100808354040283529160200191611a87565b820191906000526020600020905b815481529060010190602001808311611a6a57829003601f168201915b5050505050905090565b60008060009050600080600090505b600254811015611b5857600060058281548110611ac057611abf612fb9565b5b9060005260206000200160009054906101000a900473ffffffffffffffffffffffffffffffffffffffff1690506000600960008373ffffffffffffffffffffffffffffffffffffffff1673ffffffffffffffffffffffffffffffffffffffff16815260200190815260200160002060050154905084811115611b43578094508193505b50508080611b5090613017565b915050611aa0565b50809250505090565b600a5481565b60008060019054906101000a900460ff16905090565b60008060039054906101000a900460ff16905090565b60068181548110611ba357600080fd5b906000526020600020016000915054906101000a900473ffffffffffffffffffffffffffffffffffffffff1681565b6000600d54905090565b6060600e6002018054611bee90612f87565b80601f0160208091040260200160405190810160405280929190818152602001828054611c1a90612f87565b8015611c675780601f10611c3c57610100808354040283529160200191611c67565b820191906000526020600020905b815481529060010190602001808311611c4a57829003601f168201915b5050505050905090565b600360009054906101000a900473ffffffffffffffffffffffffffffffffffffffff1673ffffffffffffffffffffffffffffffffffffffff163373ffffffffffffffffffffffffffffffffffffffff1614611ccb57600080fd5b6000815167ffffffffffffffff811115611ce857611ce7612a13565b5b604051908082528060200260200182016040528015611d1b57816020015b6060815260200190600190039081611d065790505b50905060005b8251811015611d7657828181518110611d3d57611d3c612fb9565b5b6020026020010151828281518110611d5857611d57612fb9565b5b60200260200101819052508080611d6e90613017565b915050611d21565b5060006040518061012001604052808c81526020018b81526020018a815260200189815260200188815260200187815260200186815260200185815260200183815250905080600e6000820151816000019080519060200190611dda9291906122d9565b506020820151816001019080519060200190611df79291906122d9565b506040820151816002019080519060200190611e149291906122d9565b506060820151816003019080519060200190611e319291906122d9565b506080820151816004015560a0820151816005015560c0820151816006015560e08201518160070155610100820151816008019080519060200190611e7792919061235f565b509050506001600060026101000a81548160ff02191690831515021790555084600a8190555083600b8190555086600c8190555085600d819055505050505050505050505050565b60008060009054906101000a900460ff16905090565b6000600b54905090565b600360009054906101000a900473ffffffffffffffffffffffffffffffffffffffff1673ffffffffffffffffffffffffffffffffffffffff163373ffffffffffffffffffffffffffffffffffffffff1614611f3957600080fd5b81600960008373ffffffffffffffffffffffffffffffffffffffff1673ffffffffffffffffffffffffffffffffffffffff16815260200190815260200160002060060160006101000a81548160ff0219169083151502179055506007819080600181540180825580915050600190039060005260206000200160009091909190916101000a81548173ffffffffffffffffffffffffffffffffffffffff021916908373ffffffffffffffffffffffffffffffffffffffff1602179055505050565b6004818154811061200a57600080fd5b906000526020600020016000915054906101000a900473ffffffffffffffffffffffffffffffffffffffff1681565b60008060029054906101000a900460ff16905090565b6000600a54905090565b600b5481565b600360009054906101000a900473ffffffffffffffffffffffffffffffffffffffff1681565b60006040518060c001604052803373ffffffffffffffffffffffffffffffffffffffff16815260200184815260200183815260200160001515815260200160001515815260200160011515815250905080600860003373ffffffffffffffffffffffffffffffffffffffff1673ffffffffffffffffffffffffffffffffffffffff16815260200190815260200160002060008201518160000160006101000a81548173ffffffffffffffffffffffffffffffffffffffff021916908373ffffffffffffffffffffffffffffffffffffffff16021790555060208201518160010190805190602001906121789291906122d9565b5060408201518160020190805190602001906121959291906122d9565b5060608201518160030160006101000a81548160ff02191690831515021790555060808201518160030160016101000a81548160ff02191690831515021790555060a08201518160030160026101000a81548160ff0219169083151502179055509050506004339080600181540180825580915050600190039060005260206000200160009091909190916101000a81548173ffffffffffffffffffffffffffffffffffffffff021916908373ffffffffffffffffffffffffffffffffffffffff160217905550600180600082825461226e9190613138565b92505081905550505050565b60405180610100016040528060008152602001600073ffffffffffffffffffffffffffffffffffffffff168152602001606081526020016060815260200160008152602001600081526020016000151581526020016000151581525090565b8280546122e590612f87565b90600052602060002090601f016020900481019282612307576000855561234e565b82601f1061232057805160ff191683800117855561234e565b8280016001018555821561234e579182015b8281111561234d578251825591602001919060010190612332565b5b50905061235b91906123bf565b5090565b8280548282559060005260206000209081019282156123ae579160200282015b828111156123ad57825182908051906020019061239d9291906122d9565b509160200191906001019061237f565b5b5090506123bb91906123dc565b5090565b5b808211156123d85760008160009055506001016123c0565b5090565b5b808211156123fc57600081816123f39190612400565b506001016123dd565b5090565b50805461240c90612f87565b6000825580601f1061241e575061243d565b601f01602090049060005260206000209081019061243c91906123bf565b5b50565b6000604051905090565b600080fd5b600080fd5b600073ffffffffffffffffffffffffffffffffffffffff82169050919050565b600061247f82612454565b9050919050565b61248f81612474565b811461249a57600080fd5b50565b6000813590506124ac81612486565b92915050565b6000602082840312156124c8576124c761244a565b5b60006124d68482850161249d565b91505092915050565b6000819050919050565b6124f2816124df565b82525050565b61250181612474565b82525050565b600081519050919050565b600082825260208201905092915050565b60005b83811015612541578082015181840152602081019050612526565b83811115612550576000848401525b50505050565b6000601f19601f8301169050919050565b600061257282612507565b61257c8185612512565b935061258c818560208601612523565b61259581612556565b840191505092915050565b60008115159050919050565b6125b5816125a0565b82525050565b6000610100820190506125d1600083018b6124e9565b6125de602083018a6124f8565b81810360408301526125f08189612567565b905081810360608301526126048188612567565b905061261360808301876124e9565b61262060a08301866124e9565b61262d60c08301856125ac565b61263a60e08301846125ac565b9998505050505050505050565b600081519050919050565b600082825260208201905092915050565b6000819050602082019050919050565b600082825260208201905092915050565b600061268f82612507565b6126998185612673565b93506126a9818560208601612523565b6126b281612556565b840191505092915050565b60006126c98383612684565b905092915050565b6000602082019050919050565b60006126e982612647565b6126f38185612652565b93508360208202850161270585612663565b8060005b85811015612741578484038952815161272285826126bd565b945061272d836126d1565b925060208a01995050600181019050612709565b50829750879550505050505092915050565b6000602082019050818103600083015261276d81846126de565b905092915050565b600060208201905061278a60008301846124e9565b92915050565b600060208201905081810360008301526127aa8184612567565b905092915050565b6127bb816124df565b81146127c657600080fd5b50565b6000813590506127d8816127b2565b92915050565b6000602082840312156127f4576127f361244a565b5b6000612802848285016127c9565b91505092915050565b600081519050919050565b600082825260208201905092915050565b6000819050602082019050919050565b612840816124df565b82525050565b61284f81612474565b82525050565b61285e816125a0565b82525050565b60006101008301600083015161287d6000860182612837565b5060208301516128906020860182612846565b50604083015184820360408601526128a88282612684565b915050606083015184820360608601526128c28282612684565b91505060808301516128d76080860182612837565b5060a08301516128ea60a0860182612837565b5060c08301516128fd60c0860182612855565b5060e083015161291060e0860182612855565b508091505092915050565b60006129278383612864565b905092915050565b6000602082019050919050565b60006129478261280b565b6129518185612816565b93508360208202850161296385612827565b8060005b8581101561299f5784840389528151612980858261291b565b945061298b8361292f565b925060208a01995050600181019050612967565b50829750879550505050505092915050565b600060208201905081810360008301526129cb818461293c565b905092915050565b60006020820190506129e860008301846125ac565b92915050565b6000602082019050612a0360008301846124f8565b92915050565b600080fd5b600080fd5b7f4e487b7100000000000000000000000000000000000000000000000000000000600052604160045260246000fd5b612a4b82612556565b810181811067ffffffffffffffff82111715612a6a57612a69612a13565b5b80604052505050565b6000612a7d612440565b9050612a898282612a42565b919050565b600067ffffffffffffffff821115612aa957612aa8612a13565b5b612ab282612556565b9050602081019050919050565b82818337600083830152505050565b6000612ae1612adc84612a8e565b612a73565b905082815260208101848484011115612afd57612afc612a0e565b5b612b08848285612abf565b509392505050565b600082601f830112612b2557612b24612a09565b5b8135612b35848260208601612ace565b91505092915050565b600080600060608486031215612b5757612b5661244a565b5b600084013567ffffffffffffffff811115612b7557612b7461244f565b5b612b8186828701612b10565b935050602084013567ffffffffffffffff811115612ba257612ba161244f565b5b612bae86828701612b10565b9250506040612bbf868287016127c9565b9150509250925092565b612bd2816125a0565b8114612bdd57600080fd5b50565b600081359050612bef81612bc9565b92915050565b60008060408385031215612c0c57612c0b61244a565b5b6000612c1a85828601612be0565b9250506020612c2b8582860161249d565b9150509250929050565b600060c082019050612c4a60008301896124f8565b8181036020830152612c5c8188612567565b90508181036040830152612c708187612567565b9050612c7f60608301866125ac565b612c8c60808301856125ac565b612c9960a08301846125ac565b979650505050505050565b600067ffffffffffffffff821115612cbf57612cbe612a13565b5b602082029050602081019050919050565b600080fd5b6000612ce8612ce384612ca4565b612a73565b90508083825260208201905060208402830185811115612d0b57612d0a612cd0565b5b835b81811015612d5257803567ffffffffffffffff811115612d3057612d2f612a09565b5b808601612d3d8982612b10565b85526020850194505050602081019050612d0d565b5050509392505050565b600082601f830112612d7157612d70612a09565b5b8135612d81848260208601612cd5565b91505092915050565b60008060008060008060008060006101208a8c031215612dad57612dac61244a565b5b60008a013567ffffffffffffffff811115612dcb57612dca61244f565b5b612dd78c828d01612b10565b99505060208a013567ffffffffffffffff811115612df857612df761244f565b5b612e048c828d01612b10565b98505060408a013567ffffffffffffffff811115612e2557612e2461244f565b5b612e318c828d01612b10565b97505060608a013567ffffffffffffffff811115612e5257612e5161244f565b5b612e5e8c828d01612b10565b9650506080612e6f8c828d016127c9565b95505060a0612e808c828d016127c9565b94505060c0612e918c828d016127c9565b93505060e0612ea28c828d016127c9565b9250506101008a013567ffffffffffffffff811115612ec457612ec361244f565b5b612ed08c828d01612d5c565b9150509295985092959850929598565b60008060408385031215612ef757612ef661244a565b5b600083013567ffffffffffffffff811115612f1557612f1461244f565b5b612f2185828601612b10565b925050602083013567ffffffffffffffff811115612f4257612f4161244f565b5b612f4e85828601612b10565b9150509250929050565b7f4e487b7100000000000000000000000000000000000000000000000000000000600052602260045260246000fd5b60006002820490506001821680612f9f57607f821691505b60208210811415612fb357612fb2612f58565b5b50919050565b7f4e487b7100000000000000000000000000000000000000000000000000000000600052603260045260246000fd5b7f4e487b7100000000000000000000000000000000000000000000000000000000600052601160045260246000fd5b6000613022826124df565b91507fffffffffffffffffffffffffffffffffffffffffffffffffffffffffffffffff82141561305557613054612fe8565b5b600182019050919050565b7f526567697374726174696f6e206973206e6f7420737461727465642079657400600082015250565b6000613096601f83612512565b91506130a182613060565b602082019050919050565b600060208201905081810360008301526130c581613089565b9050919050565b7f526567697374726174696f6e20697320616c726561647920656e6465642e0000600082015250565b6000613102601e83612512565b915061310d826130cc565b602082019050919050565b60006020820190508181036000830152613131816130f5565b9050919050565b6000613143826124df565b915061314e836124df565b9250827fffffffffffffffffffffffffffffffffffffffffffffffffffffffffffffffff0382111561318357613182612fe8565b5b828201905092915050565b7f566f74696e67206973206e6f7420737461727465642079657400000000000000600082015250565b60006131c4601983612512565b91506131cf8261318e565b602082019050919050565b600060208201905081810360008301526131f3816131b7565b9050919050565b7f566f74696e6720697320616c726561647920656e646564000000000000000000600082015250565b6000613230601783612512565b915061323b826131fa565b602082019050919050565b6000602082019050818103600083015261325f81613223565b905091905056fea264697066735822122051f8ea91c15e80d3934fd84a6099bfc39b27e831b99003e345cdc930132dae1b64736f6c634300080b0033",
  "linkReferences": {},
  "deployedLinkReferences": {}
}