{
  "_format": "hh-sol-artifact-1",
  "contractName": "Election",
  "sourceName": "contracts/Election.sol",
  "abi": [
    {
      "inputs": [],
      "stateMutability": "nonpayable",
      "type": "constructor"
    },
    {
      "inputs": [],
      "name": "admin",
      "outputs": [
        {
          "internalType": "address",
          "name": "",
          "type": "address"
        }
      ],
      "stateMutability": "view",
      "type": "function"
    },
    {
      "inputs": [
        {
          "internalType": "address",
          "name": "",
          "type": "address"
        }
      ],
      "name": "candidateDetails",
      "outputs": [
        {
          "internalType": "uint256",
          "name": "candidateId",
          "type": "uint256"
        },
        {
          "internalType": "address",
          "name": "candidateAddress",
          "type": "address"
        },
        {
          "internalType": "string",
          "name": "header",
          "type": "string"
        },
        {
          "internalType": "string",
          "name": "slogan",
          "type": "string"
        },
        {
          "internalType": "uint256",
          "name": "voteCount",
          "type": "uint256"
        },
        {
          "internalType": "bool",
          "name": "isVerified",
          "type": "bool"
        },
        {
          "internalType": "bool",
          "name": "isRegistered",
          "type": "bool"
        }
      ],
      "stateMutability": "view",
      "type": "function"
    },
    {
      "inputs": [
        {
          "internalType": "uint256",
          "name": "",
          "type": "uint256"
        }
      ],
      "name": "candidates",
      "outputs": [
        {
          "internalType": "address",
          "name": "",
          "type": "address"
        }
      ],
      "stateMutability": "view",
      "type": "function"
    },
    {
      "inputs": [
        {
          "internalType": "uint256",
          "name": "",
          "type": "uint256"
        }
      ],
      "name": "elections",
      "outputs": [
        {
          "internalType": "string",
          "name": "adminName",
          "type": "string"
        },
        {
          "internalType": "string",
          "name": "adminEmail",
          "type": "string"
        },
        {
          "internalType": "string",
          "name": "adminTitle",
          "type": "string"
        },
        {
          "internalType": "string",
          "name": "organizationTitle",
          "type": "string"
        },
        {
          "internalType": "uint256",
          "name": "votingStartDate",
          "type": "uint256"
        },
        {
          "internalType": "uint256",
          "name": "votingEndDate",
          "type": "uint256"
        },
        {
          "internalType": "uint256",
          "name": "registrationStartDate",
          "type": "uint256"
        },
        {
          "internalType": "uint256",
          "name": "registrationEndDate",
          "type": "uint256"
        }
      ],
      "stateMutability": "view",
      "type": "function"
    },
    {
      "inputs": [],
      "name": "endElection",
      "outputs": [],
      "stateMutability": "nonpayable",
      "type": "function"
    },
    {
      "inputs": [],
      "name": "getAdmin",
      "outputs": [
        {
          "internalType": "address",
          "name": "",
          "type": "address"
        }
      ],
      "stateMutability": "view",
      "type": "function"
    },
    {
      "inputs": [],
      "name": "getAdminEmail",
      "outputs": [
        {
          "internalType": "string",
          "name": "",
          "type": "string"
        }
      ],
      "stateMutability": "view",
      "type": "function"
    },
    {
      "inputs": [],
      "name": "getAdminName",
      "outputs": [
        {
          "internalType": "string",
          "name": "",
          "type": "string"
        }
      ],
      "stateMutability": "view",
      "type": "function"
    },
    {
      "inputs": [],
      "name": "getAdminTitle",
      "outputs": [
        {
          "internalType": "string",
          "name": "",
          "type": "string"
        }
      ],
      "stateMutability": "view",
      "type": "function"
    },
    {
      "inputs": [],
      "name": "getEnd",
      "outputs": [
        {
          "internalType": "bool",
          "name": "",
          "type": "bool"
        }
      ],
      "stateMutability": "view",
      "type": "function"
    },
    {
      "inputs": [],
      "name": "getOrganizationTitle",
      "outputs": [
        {
          "internalType": "string",
          "name": "",
          "type": "string"
        }
      ],
      "stateMutability": "view",
      "type": "function"
    },
    {
      "inputs": [],
      "name": "getStart",
      "outputs": [
        {
          "internalType": "bool",
          "name": "",
          "type": "bool"
        }
      ],
      "stateMutability": "view",
      "type": "function"
    },
    {
      "inputs": [],
      "name": "getTotalCandidate",
      "outputs": [
        {
          "internalType": "uint256",
          "name": "",
          "type": "uint256"
        }
      ],
      "stateMutability": "view",
      "type": "function"
    },
    {
      "inputs": [],
      "name": "getTotalVoter",
      "outputs": [
        {
          "internalType": "uint256",
          "name": "",
          "type": "uint256"
        }
      ],
      "stateMutability": "view",
      "type": "function"
    },
    {
      "inputs": [],
      "name": "getWinner",
      "outputs": [
        {
          "internalType": "address",
          "name": "",
          "type": "address"
        }
      ],
      "stateMutability": "view",
      "type": "function"
    },
    {
      "inputs": [
        {
          "internalType": "string",
          "name": "_header",
          "type": "string"
        },
        {
          "internalType": "string",
          "name": "_slogan",
          "type": "string"
        }
      ],
      "name": "registerAsCandidate",
      "outputs": [],
      "stateMutability": "nonpayable",
      "type": "function"
    },
    {
      "inputs": [
        {
          "internalType": "string",
          "name": "_name",
          "type": "string"
        },
        {
          "internalType": "string",
          "name": "_phone",
          "type": "string"
        }
      ],
      "name": "registerAsVoter",
      "outputs": [],
      "stateMutability": "nonpayable",
      "type": "function"
    },
    {
      "inputs": [
        {
          "internalType": "bool",
          "name": "_verifedStatus",
          "type": "bool"
        },
        {
          "internalType": "address",
          "name": "candidateAddress",
          "type": "address"
        }
      ],
      "name": "verifyCandidate",
      "outputs": [],
      "stateMutability": "nonpayable",
      "type": "function"
    },
    {
      "inputs": [
        {
          "internalType": "bool",
          "name": "_verifedStatus",
          "type": "bool"
        },
        {
          "internalType": "address",
          "name": "voterAddress",
          "type": "address"
        }
      ],
      "name": "verifyVoter",
      "outputs": [],
      "stateMutability": "nonpayable",
      "type": "function"
    },
    {
      "inputs": [
        {
          "internalType": "address",
          "name": "_candidateAddress",
          "type": "address"
        }
      ],
      "name": "vote",
      "outputs": [],
      "stateMutability": "nonpayable",
      "type": "function"
    },
    {
      "inputs": [
        {
          "internalType": "address",
          "name": "",
          "type": "address"
        }
      ],
      "name": "voterDetails",
      "outputs": [
        {
          "internalType": "address",
          "name": "voterAddress",
          "type": "address"
        },
        {
          "internalType": "string",
          "name": "name",
          "type": "string"
        },
        {
          "internalType": "string",
          "name": "phone",
          "type": "string"
        },
        {
          "internalType": "bool",
          "name": "isVerified",
          "type": "bool"
        },
        {
          "internalType": "bool",
          "name": "hasVoted",
          "type": "bool"
        },
        {
          "internalType": "bool",
          "name": "isRegistered",
          "type": "bool"
        }
      ],
      "stateMutability": "view",
      "type": "function"
    },
    {
      "inputs": [
        {
          "internalType": "uint256",
          "name": "",
          "type": "uint256"
        }
      ],
      "name": "voters",
      "outputs": [
        {
          "internalType": "address",
          "name": "",
          "type": "address"
        }
      ],
      "stateMutability": "view",
      "type": "function"
    }
  ],
  "bytecode": "0x608060405234801561001057600080fd5b5033600360006101000a81548173ffffffffffffffffffffffffffffffffffffffff021916908373ffffffffffffffffffffffffffffffffffffffff1602179055506000600281905550600060018190555060008060006101000a81548160ff02191690831515021790555060008060016101000a81548160ff021916908315150217905550611d5e806100a56000396000f3fe608060405234801561001057600080fd5b50600436106101425760003560e01c80636dd7d8ea116100b8578063be081b6f1161007c578063be081b6f14610367578063c5292c6714610385578063cad43b48146103a3578063da58c7d9146103bf578063f851a440146103ef578063fee0d19a1461040d57610142565b80636dd7d8ea146102d35780636e9960c3146102ef578063831318f11461030d5780638e7ea5b21461032b5780639f05a36d1461034957610142565b8063483431751161010a5780634834317514610205578063506b8e0a146102235780635938750d1461023f57806359f78468146102745780635e6fef011461027e57806364d198a1146102b557610142565b806304b8789b1461014757806305e73ced146101635780630b93400e146101995780630e2354cf146101b75780633477ee2e146101d5575b600080fd5b610161600480360381019061015c9190611753565b610429565b005b61017d600480360381019061017891906116ee565b610619565b60405161019097969594939291906119ca565b60405180910390f35b6101a16107a5565b6040516101ae91906119af565b60405180910390f35b6101bf6107af565b6040516101cc91906118f3565b60405180910390f35b6101ef60048036038101906101ea91906117bf565b610844565b6040516101fc919061184e565b60405180910390f35b61020d610883565b60405161021a91906118f3565b60405180910390f35b61023d60048036038101906102389190611717565b610918565b005b610259600480360381019061025491906116ee565b6109d0565b60405161026b96959493929190611869565b60405180910390f35b61027c610b63565b005b610298600480360381019061029391906117bf565b610bf4565b6040516102ac989796959493929190611915565b60405180910390f35b6102bd610e5c565b6040516102ca91906119af565b60405180910390f35b6102ed60048036038101906102e891906116ee565b610e66565b005b6102f761101c565b604051610304919061184e565b60405180910390f35b610315611046565b60405161032291906118f3565b60405180910390f35b6103336110db565b604051610340919061184e565b60405180910390f35b6103516111d1565b60405161035e91906118d8565b60405180910390f35b61036f6111e7565b60405161037c91906118f3565b60405180910390f35b61038d61127c565b60405161039a91906118d8565b60405180910390f35b6103bd60048036038101906103b89190611717565b611292565b005b6103d960048036038101906103d491906117bf565b61134a565b6040516103e6919061184e565b60405180910390f35b6103f7611389565b604051610404919061184e565b60405180910390f35b61042760048036038101906104229190611753565b6113af565b005b60006040518060e0016040528060025481526020013373ffffffffffffffffffffffffffffffffffffffff1681526020018481526020018381526020016000815260200160001515815260200160011515815250905080600760003373ffffffffffffffffffffffffffffffffffffffff1673ffffffffffffffffffffffffffffffffffffffff1681526020019081526020016000206000820151816000015560208201518160010160006101000a81548173ffffffffffffffffffffffffffffffffffffffff021916908373ffffffffffffffffffffffffffffffffffffffff160217905550604082015181600201908051906020019061052c9291906115a4565b5060608201518160030190805190602001906105499291906115a4565b506080820151816004015560a08201518160050160006101000a81548160ff02191690831515021790555060c08201518160050160016101000a81548160ff0219169083151502179055509050506005339080600181540180825580915050600190039060005260206000200160009091909190916101000a81548173ffffffffffffffffffffffffffffffffffffffff021916908373ffffffffffffffffffffffffffffffffffffffff16021790555060016002600082825461060d9190611ab9565b92505081905550505050565b60076020528060005260406000206000915090508060000154908060010160009054906101000a900473ffffffffffffffffffffffffffffffffffffffff169080600201805461066890611b99565b80601f016020809104026020016040519081016040528092919081815260200182805461069490611b99565b80156106e15780601f106106b6576101008083540402835291602001916106e1565b820191906000526020600020905b8154815290600101906020018083116106c457829003601f168201915b5050505050908060030180546106f690611b99565b80601f016020809104026020016040519081016040528092919081815260200182805461072290611b99565b801561076f5780601f106107445761010080835404028352916020019161076f565b820191906000526020600020905b81548152906001019060200180831161075257829003601f168201915b5050505050908060040154908060050160009054906101000a900460ff16908060050160019054906101000a900460ff16905087565b6000600154905090565b6060600a60000180546107c190611b99565b80601f01602080910402602001604051908101604052809291908181526020018280546107ed90611b99565b801561083a5780601f1061080f5761010080835404028352916020019161083a565b820191906000526020600020905b81548152906001019060200180831161081d57829003601f168201915b5050505050905090565b6005818154811061085457600080fd5b906000526020600020016000915054906101000a900473ffffffffffffffffffffffffffffffffffffffff1681565b6060600a600301805461089590611b99565b80601f01602080910402602001604051908101604052809291908181526020018280546108c190611b99565b801561090e5780601f106108e35761010080835404028352916020019161090e565b820191906000526020600020905b8154815290600101906020018083116108f157829003601f168201915b5050505050905090565b600360009054906101000a900473ffffffffffffffffffffffffffffffffffffffff1673ffffffffffffffffffffffffffffffffffffffff163373ffffffffffffffffffffffffffffffffffffffff161461097257600080fd5b81600660008373ffffffffffffffffffffffffffffffffffffffff1673ffffffffffffffffffffffffffffffffffffffff16815260200190815260200160002060030160006101000a81548160ff0219169083151502179055505050565b60066020528060005260406000206000915090508060000160009054906101000a900473ffffffffffffffffffffffffffffffffffffffff1690806001018054610a1990611b99565b80601f0160208091040260200160405190810160405280929190818152602001828054610a4590611b99565b8015610a925780601f10610a6757610100808354040283529160200191610a92565b820191906000526020600020905b815481529060010190602001808311610a7557829003601f168201915b505050505090806002018054610aa790611b99565b80601f0160208091040260200160405190810160405280929190818152602001828054610ad390611b99565b8015610b205780601f10610af557610100808354040283529160200191610b20565b820191906000526020600020905b815481529060010190602001808311610b0357829003601f168201915b5050505050908060030160009054906101000a900460ff16908060030160019054906101000a900460ff16908060030160029054906101000a900460ff16905086565b600360009054906101000a900473ffffffffffffffffffffffffffffffffffffffff1673ffffffffffffffffffffffffffffffffffffffff163373ffffffffffffffffffffffffffffffffffffffff1614610bbd57600080fd5b6001600060016101000a81548160ff02191690831515021790555060008060006101000a81548160ff021916908315150217905550565b6008602052806000526040600020600091509050806000018054610c1790611b99565b80601f0160208091040260200160405190810160405280929190818152602001828054610c4390611b99565b8015610c905780601f10610c6557610100808354040283529160200191610c90565b820191906000526020600020905b815481529060010190602001808311610c7357829003601f168201915b505050505090806001018054610ca590611b99565b80601f0160208091040260200160405190810160405280929190818152602001828054610cd190611b99565b8015610d1e5780601f10610cf357610100808354040283529160200191610d1e565b820191906000526020600020905b815481529060010190602001808311610d0157829003601f168201915b505050505090806002018054610d3390611b99565b80601f0160208091040260200160405190810160405280929190818152602001828054610d5f90611b99565b8015610dac5780601f10610d8157610100808354040283529160200191610dac565b820191906000526020600020905b815481529060010190602001808311610d8f57829003601f168201915b505050505090806003018054610dc190611b99565b80601f0160208091040260200160405190810160405280929190818152602001828054610ded90611b99565b8015610e3a5780601f10610e0f57610100808354040283529160200191610e3a565b820191906000526020600020905b815481529060010190602001808311610e1d57829003601f168201915b5050505050908060040154908060050154908060060154908060070154905088565b6000600254905090565b60001515600660003373ffffffffffffffffffffffffffffffffffffffff1673ffffffffffffffffffffffffffffffffffffffff16815260200190815260200160002060030160019054906101000a900460ff16151514610ec657600080fd5b60011515600660003373ffffffffffffffffffffffffffffffffffffffff1673ffffffffffffffffffffffffffffffffffffffff16815260200190815260200160002060030160009054906101000a900460ff16151514610f2657600080fd5b6001151560008054906101000a900460ff16151514610f4457600080fd5b60001515600060019054906101000a900460ff16151514610f6457600080fd5b6001600760008373ffffffffffffffffffffffffffffffffffffffff1673ffffffffffffffffffffffffffffffffffffffff1681526020019081526020016000206004016000828254610fb79190611ab9565b925050819055506001600660003373ffffffffffffffffffffffffffffffffffffffff1673ffffffffffffffffffffffffffffffffffffffff16815260200190815260200160002060030160016101000a81548160ff02191690831515021790555050565b6000600360009054906101000a900473ffffffffffffffffffffffffffffffffffffffff16905090565b6060600a600101805461105890611b99565b80601f016020809104026020016040519081016040528092919081815260200182805461108490611b99565b80156110d15780601f106110a6576101008083540402835291602001916110d1565b820191906000526020600020905b8154815290600101906020018083116110b457829003601f168201915b5050505050905090565b60008060009050600080600090505b6002548110156111c857600060058281548110611130577f4e487b7100000000000000000000000000000000000000000000000000000000600052603260045260246000fd5b9060005260206000200160009054906101000a900473ffffffffffffffffffffffffffffffffffffffff1690506000600760008373ffffffffffffffffffffffffffffffffffffffff1673ffffffffffffffffffffffffffffffffffffffff168152602001908152602001600020600401549050848111156111b3578094508193505b505080806111c090611bfc565b9150506110ea565b50809250505090565b60008060019054906101000a900460ff16905090565b6060600a60020180546111f990611b99565b80601f016020809104026020016040519081016040528092919081815260200182805461122590611b99565b80156112725780601f1061124757610100808354040283529160200191611272565b820191906000526020600020905b81548152906001019060200180831161125557829003601f168201915b5050505050905090565b60008060009054906101000a900460ff16905090565b600360009054906101000a900473ffffffffffffffffffffffffffffffffffffffff1673ffffffffffffffffffffffffffffffffffffffff163373ffffffffffffffffffffffffffffffffffffffff16146112ec57600080fd5b81600760008373ffffffffffffffffffffffffffffffffffffffff1673ffffffffffffffffffffffffffffffffffffffff16815260200190815260200160002060050160006101000a81548160ff0219169083151502179055505050565b6004818154811061135a57600080fd5b906000526020600020016000915054906101000a900473ffffffffffffffffffffffffffffffffffffffff1681565b600360009054906101000a900473ffffffffffffffffffffffffffffffffffffffff1681565b60006040518060c001604052803373ffffffffffffffffffffffffffffffffffffffff16815260200184815260200183815260200160001515815260200160001515815260200160011515815250905080600660003373ffffffffffffffffffffffffffffffffffffffff1673ffffffffffffffffffffffffffffffffffffffff16815260200190815260200160002060008201518160000160006101000a81548173ffffffffffffffffffffffffffffffffffffffff021916908373ffffffffffffffffffffffffffffffffffffffff16021790555060208201518160010190805190602001906114a29291906115a4565b5060408201518160020190805190602001906114bf9291906115a4565b5060608201518160030160006101000a81548160ff02191690831515021790555060808201518160030160016101000a81548160ff02191690831515021790555060a08201518160030160026101000a81548160ff0219169083151502179055509050506004339080600181540180825580915050600190039060005260206000200160009091909190916101000a81548173ffffffffffffffffffffffffffffffffffffffff021916908373ffffffffffffffffffffffffffffffffffffffff16021790555060018060008282546115989190611ab9565b92505081905550505050565b8280546115b090611b99565b90600052602060002090601f0160209004810192826115d25760008555611619565b82601f106115eb57805160ff1916838001178555611619565b82800160010185558215611619579182015b828111156116185782518255916020019190600101906115fd565b5b509050611626919061162a565b5090565b5b8082111561164357600081600090555060010161162b565b5090565b600061165a61165584611a6c565b611a47565b90508281526020810184848401111561167257600080fd5b61167d848285611b57565b509392505050565b60008135905061169481611ce3565b92915050565b6000813590506116a981611cfa565b92915050565b600082601f8301126116c057600080fd5b81356116d0848260208601611647565b91505092915050565b6000813590506116e881611d11565b92915050565b60006020828403121561170057600080fd5b600061170e84828501611685565b91505092915050565b6000806040838503121561172a57600080fd5b60006117388582860161169a565b925050602061174985828601611685565b9150509250929050565b6000806040838503121561176657600080fd5b600083013567ffffffffffffffff81111561178057600080fd5b61178c858286016116af565b925050602083013567ffffffffffffffff8111156117a957600080fd5b6117b5858286016116af565b9150509250929050565b6000602082840312156117d157600080fd5b60006117df848285016116d9565b91505092915050565b6117f181611b0f565b82525050565b61180081611b21565b82525050565b600061181182611a9d565b61181b8185611aa8565b935061182b818560208601611b66565b61183481611cd2565b840191505092915050565b61184881611b4d565b82525050565b600060208201905061186360008301846117e8565b92915050565b600060c08201905061187e60008301896117e8565b81810360208301526118908188611806565b905081810360408301526118a48187611806565b90506118b360608301866117f7565b6118c060808301856117f7565b6118cd60a08301846117f7565b979650505050505050565b60006020820190506118ed60008301846117f7565b92915050565b6000602082019050818103600083015261190d8184611806565b905092915050565b6000610100820190508181036000830152611930818b611806565b90508181036020830152611944818a611806565b905081810360408301526119588189611806565b9050818103606083015261196c8188611806565b905061197b608083018761183f565b61198860a083018661183f565b61199560c083018561183f565b6119a260e083018461183f565b9998505050505050505050565b60006020820190506119c4600083018461183f565b92915050565b600060e0820190506119df600083018a61183f565b6119ec60208301896117e8565b81810360408301526119fe8188611806565b90508181036060830152611a128187611806565b9050611a21608083018661183f565b611a2e60a08301856117f7565b611a3b60c08301846117f7565b98975050505050505050565b6000611a51611a62565b9050611a5d8282611bcb565b919050565b6000604051905090565b600067ffffffffffffffff821115611a8757611a86611ca3565b5b611a9082611cd2565b9050602081019050919050565b600081519050919050565b600082825260208201905092915050565b6000611ac482611b4d565b9150611acf83611b4d565b9250827fffffffffffffffffffffffffffffffffffffffffffffffffffffffffffffffff03821115611b0457611b03611c45565b5b828201905092915050565b6000611b1a82611b2d565b9050919050565b60008115159050919050565b600073ffffffffffffffffffffffffffffffffffffffff82169050919050565b6000819050919050565b82818337600083830152505050565b60005b83811015611b84578082015181840152602081019050611b69565b83811115611b93576000848401525b50505050565b60006002820490506001821680611bb157607f821691505b60208210811415611bc557611bc4611c74565b5b50919050565b611bd482611cd2565b810181811067ffffffffffffffff82111715611bf357611bf2611ca3565b5b80604052505050565b6000611c0782611b4d565b91507fffffffffffffffffffffffffffffffffffffffffffffffffffffffffffffffff821415611c3a57611c39611c45565b5b600182019050919050565b7f4e487b7100000000000000000000000000000000000000000000000000000000600052601160045260246000fd5b7f4e487b7100000000000000000000000000000000000000000000000000000000600052602260045260246000fd5b7f4e487b7100000000000000000000000000000000000000000000000000000000600052604160045260246000fd5b6000601f19601f8301169050919050565b611cec81611b0f565b8114611cf757600080fd5b50565b611d0381611b21565b8114611d0e57600080fd5b50565b611d1a81611b4d565b8114611d2557600080fd5b5056fea26469706673582212209583ddffb453cb86bca9c68bbbdff879035b87c5e290ecf2c39a246dee135b9364736f6c63430008010033",
  "linkReferences": {},
  "deployedLinkReferences": {}
}