{
  "_format": "hh-sol-artifact-1",
  "contractName": "Election",
  "sourceName": "contracts/Election.sol",
  "abi": [
    {
      "inputs": [],
      "stateMutability": "nonpayable",
      "type": "constructor"
    },
    {
      "inputs": [],
      "name": "admin",
      "outputs": [
        {
          "internalType": "address",
          "name": "",
          "type": "address"
        }
      ],
      "stateMutability": "view",
      "type": "function"
    },
    {
      "inputs": [
        {
          "internalType": "uint256",
          "name": "",
          "type": "uint256"
        }
      ],
      "name": "approvedCandidates",
      "outputs": [
        {
          "internalType": "address",
          "name": "",
          "type": "address"
        }
      ],
      "stateMutability": "view",
      "type": "function"
    },
    {
      "inputs": [
        {
          "internalType": "uint256",
          "name": "",
          "type": "uint256"
        }
      ],
      "name": "approvedVoters",
      "outputs": [
        {
          "internalType": "address",
          "name": "",
          "type": "address"
        }
      ],
      "stateMutability": "view",
      "type": "function"
    },
    {
      "inputs": [
        {
          "internalType": "address",
          "name": "",
          "type": "address"
        }
      ],
      "name": "candidateDetails",
      "outputs": [
        {
          "internalType": "uint256",
          "name": "candidateId",
          "type": "uint256"
        },
        {
          "internalType": "address",
          "name": "candidateAddress",
          "type": "address"
        },
        {
          "internalType": "string",
          "name": "header",
          "type": "string"
        },
        {
          "internalType": "string",
          "name": "slogan",
          "type": "string"
        },
        {
          "internalType": "uint256",
          "name": "electionTitleIndex",
          "type": "uint256"
        },
        {
          "internalType": "uint256",
          "name": "voteCount",
          "type": "uint256"
        },
        {
          "internalType": "bool",
          "name": "isVerified",
          "type": "bool"
        },
        {
          "internalType": "bool",
          "name": "isRegistered",
          "type": "bool"
        }
      ],
      "stateMutability": "view",
      "type": "function"
    },
    {
      "inputs": [
        {
          "internalType": "uint256",
          "name": "",
          "type": "uint256"
        }
      ],
      "name": "candidates",
      "outputs": [
        {
          "internalType": "address",
          "name": "",
          "type": "address"
        }
      ],
      "stateMutability": "view",
      "type": "function"
    },
    {
      "inputs": [],
      "name": "getAdmin",
      "outputs": [
        {
          "internalType": "address",
          "name": "",
          "type": "address"
        }
      ],
      "stateMutability": "view",
      "type": "function"
    },
    {
      "inputs": [],
      "name": "getAdminEmail",
      "outputs": [
        {
          "internalType": "string",
          "name": "",
          "type": "string"
        }
      ],
      "stateMutability": "view",
      "type": "function"
    },
    {
      "inputs": [],
      "name": "getAdminName",
      "outputs": [
        {
          "internalType": "string",
          "name": "",
          "type": "string"
        }
      ],
      "stateMutability": "view",
      "type": "function"
    },
    {
      "inputs": [],
      "name": "getAdminTitle",
      "outputs": [
        {
          "internalType": "string",
          "name": "",
          "type": "string"
        }
      ],
      "stateMutability": "view",
      "type": "function"
    },
    {
      "inputs": [
        {
          "internalType": "address",
          "name": "_currentAddress",
          "type": "address"
        }
      ],
      "name": "getAlreadyRegisteredCandidateStatus",
      "outputs": [
        {
          "internalType": "bool",
          "name": "",
          "type": "bool"
        }
      ],
      "stateMutability": "view",
      "type": "function"
    },
    {
      "inputs": [
        {
          "internalType": "uint8",
          "name": "_electionTitleIndex",
          "type": "uint8"
        }
      ],
      "name": "getCandidateCountForAsscociatedElection",
      "outputs": [
        {
          "internalType": "uint8",
          "name": "",
          "type": "uint8"
        }
      ],
      "stateMutability": "view",
      "type": "function"
    },
    {
      "inputs": [
        {
          "internalType": "uint8",
          "name": "_electionTitleIndex",
          "type": "uint8"
        }
      ],
      "name": "getCandidatesForAssociatedElections",
      "outputs": [
        {
          "components": [
            {
              "internalType": "uint256",
              "name": "candidateId",
              "type": "uint256"
            },
            {
              "internalType": "address",
              "name": "candidateAddress",
              "type": "address"
            },
            {
              "internalType": "string",
              "name": "header",
              "type": "string"
            },
            {
              "internalType": "string",
              "name": "slogan",
              "type": "string"
            },
            {
              "internalType": "uint256",
              "name": "electionTitleIndex",
              "type": "uint256"
            },
            {
              "internalType": "uint256",
              "name": "voteCount",
              "type": "uint256"
            },
            {
              "internalType": "bool",
              "name": "isVerified",
              "type": "bool"
            },
            {
              "internalType": "bool",
              "name": "isRegistered",
              "type": "bool"
            }
          ],
          "internalType": "struct Election.Candidate[]",
          "name": "",
          "type": "tuple[]"
        }
      ],
      "stateMutability": "view",
      "type": "function"
    },
    {
      "inputs": [
        {
          "internalType": "uint256",
          "name": "_timeStamp",
          "type": "uint256"
        }
      ],
      "name": "getElectionEndedStatus",
      "outputs": [
        {
          "internalType": "bool",
          "name": "",
          "type": "bool"
        }
      ],
      "stateMutability": "view",
      "type": "function"
    },
    {
      "inputs": [],
      "name": "getElectionInitStatus",
      "outputs": [
        {
          "internalType": "bool",
          "name": "",
          "type": "bool"
        }
      ],
      "stateMutability": "view",
      "type": "function"
    },
    {
      "inputs": [
        {
          "internalType": "uint256",
          "name": "_timeStamp",
          "type": "uint256"
        }
      ],
      "name": "getElectionStatus",
      "outputs": [
        {
          "internalType": "bool",
          "name": "",
          "type": "bool"
        }
      ],
      "stateMutability": "view",
      "type": "function"
    },
    {
      "inputs": [],
      "name": "getElectionTitles",
      "outputs": [
        {
          "internalType": "string[]",
          "name": "",
          "type": "string[]"
        }
      ],
      "stateMutability": "view",
      "type": "function"
    },
    {
      "inputs": [],
      "name": "getOrganizationTitle",
      "outputs": [
        {
          "internalType": "string",
          "name": "",
          "type": "string"
        }
      ],
      "stateMutability": "view",
      "type": "function"
    },
    {
      "inputs": [],
      "name": "getRegistrationEndTime",
      "outputs": [
        {
          "internalType": "uint256",
          "name": "",
          "type": "uint256"
        }
      ],
      "stateMutability": "view",
      "type": "function"
    },
    {
      "inputs": [
        {
          "internalType": "uint256",
          "name": "_timeStamp",
          "type": "uint256"
        }
      ],
      "name": "getRegistrationEndedStatus",
      "outputs": [
        {
          "internalType": "bool",
          "name": "",
          "type": "bool"
        }
      ],
      "stateMutability": "view",
      "type": "function"
    },
    {
      "inputs": [],
      "name": "getRegistrationStartTime",
      "outputs": [
        {
          "internalType": "uint256",
          "name": "",
          "type": "uint256"
        }
      ],
      "stateMutability": "view",
      "type": "function"
    },
    {
      "inputs": [
        {
          "internalType": "uint256",
          "name": "_timeStamp",
          "type": "uint256"
        }
      ],
      "name": "getRegistrationStartedStatus",
      "outputs": [
        {
          "internalType": "bool",
          "name": "",
          "type": "bool"
        }
      ],
      "stateMutability": "view",
      "type": "function"
    },
    {
      "inputs": [
        {
          "internalType": "uint256",
          "name": "_timeStamp",
          "type": "uint256"
        }
      ],
      "name": "getRegistrationStatus",
      "outputs": [
        {
          "internalType": "bool",
          "name": "",
          "type": "bool"
        }
      ],
      "stateMutability": "view",
      "type": "function"
    },
    {
      "inputs": [],
      "name": "getTotalCandidate",
      "outputs": [
        {
          "internalType": "uint256",
          "name": "",
          "type": "uint256"
        }
      ],
      "stateMutability": "view",
      "type": "function"
    },
    {
      "inputs": [],
      "name": "getTotalVoter",
      "outputs": [
        {
          "internalType": "uint256",
          "name": "",
          "type": "uint256"
        }
      ],
      "stateMutability": "view",
      "type": "function"
    },
    {
      "inputs": [
        {
          "internalType": "address",
          "name": "_currentAddress",
          "type": "address"
        }
      ],
      "name": "getVoterStatusForCandidate",
      "outputs": [
        {
          "internalType": "bool",
          "name": "",
          "type": "bool"
        }
      ],
      "stateMutability": "view",
      "type": "function"
    },
    {
      "inputs": [],
      "name": "getVotingEndTime",
      "outputs": [
        {
          "internalType": "uint256",
          "name": "",
          "type": "uint256"
        }
      ],
      "stateMutability": "view",
      "type": "function"
    },
    {
      "inputs": [],
      "name": "getVotingStartTime",
      "outputs": [
        {
          "internalType": "uint256",
          "name": "",
          "type": "uint256"
        }
      ],
      "stateMutability": "view",
      "type": "function"
    },
    {
      "inputs": [
        {
          "internalType": "uint256",
          "name": "_electionTitleIndex",
          "type": "uint256"
        }
      ],
      "name": "getWinnerCandidate",
      "outputs": [
        {
          "internalType": "address",
          "name": "",
          "type": "address"
        }
      ],
      "stateMutability": "view",
      "type": "function"
    },
    {
      "inputs": [
        {
          "internalType": "string",
          "name": "_header",
          "type": "string"
        },
        {
          "internalType": "string",
          "name": "_slogan",
          "type": "string"
        },
        {
          "internalType": "uint256",
          "name": "_electionTitleIndex",
          "type": "uint256"
        }
      ],
      "name": "registerAsCandidate",
      "outputs": [],
      "stateMutability": "nonpayable",
      "type": "function"
    },
    {
      "inputs": [
        {
          "internalType": "string",
          "name": "_name",
          "type": "string"
        },
        {
          "internalType": "string",
          "name": "_phone",
          "type": "string"
        }
      ],
      "name": "registerAsVoter",
      "outputs": [],
      "stateMutability": "nonpayable",
      "type": "function"
    },
    {
      "inputs": [
        {
          "internalType": "string",
          "name": "_adminName",
          "type": "string"
        },
        {
          "internalType": "string",
          "name": "_adminEmail",
          "type": "string"
        },
        {
          "internalType": "string",
          "name": "_adminTitle",
          "type": "string"
        },
        {
          "internalType": "string",
          "name": "_organizationTitle",
          "type": "string"
        },
        {
          "internalType": "uint256",
          "name": "_votingStartTime",
          "type": "uint256"
        },
        {
          "internalType": "uint256",
          "name": "_votingEndTime",
          "type": "uint256"
        },
        {
          "internalType": "uint256",
          "name": "_registrationStartTime",
          "type": "uint256"
        },
        {
          "internalType": "uint256",
          "name": "_registrationEndTime",
          "type": "uint256"
        },
        {
          "internalType": "string[]",
          "name": "_elections",
          "type": "string[]"
        }
      ],
      "name": "setElectionDetails",
      "outputs": [],
      "stateMutability": "nonpayable",
      "type": "function"
    },
    {
      "inputs": [
        {
          "internalType": "bool",
          "name": "_verifedStatus",
          "type": "bool"
        },
        {
          "internalType": "address",
          "name": "candidateAddress",
          "type": "address"
        }
      ],
      "name": "verifyCandidate",
      "outputs": [],
      "stateMutability": "nonpayable",
      "type": "function"
    },
    {
      "inputs": [
        {
          "internalType": "bool",
          "name": "_verifedStatus",
          "type": "bool"
        },
        {
          "internalType": "address",
          "name": "voterAddress",
          "type": "address"
        }
      ],
      "name": "verifyVoter",
      "outputs": [],
      "stateMutability": "nonpayable",
      "type": "function"
    },
    {
      "inputs": [
        {
          "internalType": "address",
          "name": "_candidateAddress",
          "type": "address"
        },
        {
          "internalType": "uint8",
          "name": "_electionTitleIndex",
          "type": "uint8"
        }
      ],
      "name": "vote",
      "outputs": [],
      "stateMutability": "nonpayable",
      "type": "function"
    },
    {
      "inputs": [
        {
          "internalType": "address",
          "name": "",
          "type": "address"
        }
      ],
      "name": "voterDetails",
      "outputs": [
        {
          "internalType": "address",
          "name": "voterAddress",
          "type": "address"
        },
        {
          "internalType": "string",
          "name": "name",
          "type": "string"
        },
        {
          "internalType": "string",
          "name": "phone",
          "type": "string"
        },
        {
          "internalType": "bool",
          "name": "isVerified",
          "type": "bool"
        },
        {
          "internalType": "bool",
          "name": "hasVoted",
          "type": "bool"
        },
        {
          "internalType": "bool",
          "name": "isRegistered",
          "type": "bool"
        }
      ],
      "stateMutability": "view",
      "type": "function"
    },
    {
      "inputs": [
        {
          "internalType": "uint256",
          "name": "",
          "type": "uint256"
        }
      ],
      "name": "voters",
      "outputs": [
        {
          "internalType": "address",
          "name": "",
          "type": "address"
        }
      ],
      "stateMutability": "view",
      "type": "function"
    }
  ],
  "bytecode": "0x608060405234801561001057600080fd5b5033600360006101000a81548173ffffffffffffffffffffffffffffffffffffffff021916908373ffffffffffffffffffffffffffffffffffffffff1602179055506000600281905550600060018190555060008060006101000a81548160ff0219169083151502179055506000600a819055506000600b819055506000600c819055506000600d81905550613803806100ab6000396000f3fe608060405234801561001057600080fd5b506004361061021c5760003560e01c8063831318f111610125578063d0980f20116100ad578063dd698f901161007c578063dd698f90146106d3578063df6d2784146106f1578063f33a8a731461070f578063f851a4401461073f578063fee0d19a1461075d5761021c565b8063d0980f2014610613578063d2fdf16f14610643578063d4ecadb814610673578063da58c7d9146106a35761021c565b8063be081b6f116100f4578063be081b6f1461056f578063c3a171a21461058d578063c784d213146105a9578063cad43b48146105c7578063cfe0c7fc146105e35761021c565b8063831318f1146104e7578063aed9301014610505578063b1bf87b014610535578063bceb514d146105535761021c565b806348343175116101a85780635fcdd8a1116101775780635fcdd8a11461042d57806364d198a11461045d5780636a82ee511461047b5780636e9960c3146104995780637d660535146104b75761021c565b806348343175146103a25780634c652fc6146103c0578063506b8e0a146103dc5780635938750d146103f85761021c565b806319c5c507116101ef57806319c5c507146102b257806324785b9e146102e25780633477ee2e14610312578063399f694d146103425780633f66f48b146103725761021c565b806305e73ced146102215780630712aa05146102585780630b93400e146102765780630e2354cf14610294575b600080fd5b61023b6004803603810190610236919061288d565b610779565b60405161024f989796959493929190612996565b60405180910390f35b61026061090b565b60405161026d9190612b2e565b60405180910390f35b61027e610a5d565b60405161028b9190612b50565b60405180910390f35b61029c610a67565b6040516102a99190612b6b565b60405180910390f35b6102cc60048036038101906102c79190612bb9565b610afc565b6040516102d99190612be6565b60405180910390f35b6102fc60048036038101906102f79190612bb9565b610b2f565b6040516103099190612be6565b60405180910390f35b61032c60048036038101906103279190612bb9565b610b62565b6040516103399190612c01565b60405180910390f35b61035c60048036038101906103579190612c55565b610ba1565b6040516103699190612c91565b60405180910390f35b61038c60048036038101906103879190612bb9565b610c6f565b6040516103999190612c01565b60405180910390f35b6103aa610cae565b6040516103b79190612b6b565b60405180910390f35b6103da60048036038101906103d59190612de1565b610d43565b005b6103f660048036038101906103f19190612e98565b610fb5565b005b610412600480360381019061040d919061288d565b6110e9565b60405161042496959493929190612ed8565b60405180910390f35b6104476004803603810190610442919061288d565b61127c565b6040516104549190612be6565b60405180910390f35b61046561132b565b6040516104729190612b50565b60405180910390f35b610483611335565b6040516104909190612b50565b60405180910390f35b6104a161133f565b6040516104ae9190612c01565b60405180910390f35b6104d160048036038101906104cc919061288d565b611369565b6040516104de9190612be6565b60405180910390f35b6104ef611418565b6040516104fc9190612b6b565b60405180910390f35b61051f600480360381019061051a9190612bb9565b6114ad565b60405161052c9190612c01565b60405180910390f35b61053d6114ec565b60405161054a9190612b50565b60405180910390f35b61056d60048036038101906105689190612f47565b6114f6565b005b610577611855565b6040516105849190612b6b565b60405180910390f35b6105a760048036038101906105a2919061306d565b6118ea565b005b6105b1611b37565b6040516105be9190612b50565b60405180910390f35b6105e160048036038101906105dc9190612e98565b611b41565b005b6105fd60048036038101906105f89190612c55565b611c76565b60405161060a9190613369565b60405180910390f35b61062d60048036038101906106289190612bb9565b6120cd565b60405161063a9190612be6565b60405180910390f35b61065d60048036038101906106589190612bb9565b6120fb565b60405161066a9190612be6565b60405180910390f35b61068d60048036038101906106889190612bb9565b612119565b60405161069a9190612be6565b60405180910390f35b6106bd60048036038101906106b89190612bb9565b61214b565b6040516106ca9190612c01565b60405180910390f35b6106db61218a565b6040516106e89190612be6565b60405180910390f35b6106f96121a0565b6040516107069190612b50565b60405180910390f35b61072960048036038101906107249190612bb9565b6121aa565b6040516107369190612c01565b60405180910390f35b610747612340565b6040516107549190612c01565b60405180910390f35b6107776004803603810190610772919061338b565b612366565b005b60096020528060005260406000206000915090508060000154908060010160009054906101000a900473ffffffffffffffffffffffffffffffffffffffff16908060020180546107c890613432565b80601f01602080910402602001604051908101604052809291908181526020018280546107f490613432565b80156108415780601f1061081657610100808354040283529160200191610841565b820191906000526020600020905b81548152906001019060200180831161082457829003601f168201915b50505050509080600301805461085690613432565b80601f016020809104026020016040519081016040528092919081815260200182805461088290613432565b80156108cf5780601f106108a4576101008083540402835291602001916108cf565b820191906000526020600020905b8154815290600101906020018083116108b257829003601f168201915b5050505050908060040154908060050154908060060160009054906101000a900460ff16908060060160019054906101000a900460ff16905088565b60606000600e6008018054905067ffffffffffffffff81111561093157610930612cb6565b5b60405190808252806020026020018201604052801561096457816020015b606081526020019060019003908161094f5790505b50905060005b600e60080180549050811015610a5557600e600801818154811061099157610990613464565b5b9060005260206000200180546109a690613432565b80601f01602080910402602001604051908101604052809291908181526020018280546109d290613432565b8015610a1f5780601f106109f457610100808354040283529160200191610a1f565b820191906000526020600020905b815481529060010190602001808311610a0257829003601f168201915b5050505050828281518110610a3757610a36613464565b5b60200260200101819052508080610a4d906134c2565b91505061096a565b508091505090565b6000600154905090565b6060600e6000018054610a7990613432565b80601f0160208091040260200160405190810160405280929190818152602001828054610aa590613432565b8015610af25780601f10610ac757610100808354040283529160200191610af2565b820191906000526020600020905b815481529060010190602001808311610ad557829003601f168201915b5050505050905090565b600080600a548310158015610b135750600b548311155b15610b215760019050610b26565b600090505b80915050919050565b600080600c548310158015610b465750600d548311155b15610b545760019050610b59565b600090505b80915050919050565b60058181548110610b7257600080fd5b906000526020600020016000915054906101000a900473ffffffffffffffffffffffffffffffffffffffff1681565b6000806000905060005b600780549050811015610c65578360ff166009600060078481548110610bd457610bd3613464565b5b9060005260206000200160009054906101000a900473ffffffffffffffffffffffffffffffffffffffff1673ffffffffffffffffffffffffffffffffffffffff1673ffffffffffffffffffffffffffffffffffffffff168152602001908152602001600020600401541415610c52578180610c4e9061350b565b9250505b8080610c5d906134c2565b915050610bab565b5080915050919050565b60078181548110610c7f57600080fd5b906000526020600020016000915054906101000a900473ffffffffffffffffffffffffffffffffffffffff1681565b6060600e6003018054610cc090613432565b80601f0160208091040260200160405190810160405280929190818152602001828054610cec90613432565b8015610d395780601f10610d0e57610100808354040283529160200191610d39565b820191906000526020600020905b815481529060010190602001808311610d1c57829003601f168201915b5050505050905090565b600a54421015610d88576040517f08c379a0000000000000000000000000000000000000000000000000000000008152600401610d7f90613581565b60405180910390fd5b600b54421115610dcd576040517f08c379a0000000000000000000000000000000000000000000000000000000008152600401610dc4906135ed565b60405180910390fd5b600060405180610100016040528060025481526020013373ffffffffffffffffffffffffffffffffffffffff1681526020018581526020018481526020018381526020016000815260200160001515815260200160011515815250905080600960003373ffffffffffffffffffffffffffffffffffffffff1673ffffffffffffffffffffffffffffffffffffffff1681526020019081526020016000206000820151816000015560208201518160010160006101000a81548173ffffffffffffffffffffffffffffffffffffffff021916908373ffffffffffffffffffffffffffffffffffffffff1602179055506040820151816002019080519060200190610ed79291906125ae565b506060820151816003019080519060200190610ef49291906125ae565b506080820151816004015560a0820151816005015560c08201518160060160006101000a81548160ff02191690831515021790555060e08201518160060160016101000a81548160ff0219169083151502179055509050506005339080600181540180825580915050600190039060005260206000200160009091909190916101000a81548173ffffffffffffffffffffffffffffffffffffffff021916908373ffffffffffffffffffffffffffffffffffffffff16021790555050505050565b600360009054906101000a900473ffffffffffffffffffffffffffffffffffffffff1673ffffffffffffffffffffffffffffffffffffffff163373ffffffffffffffffffffffffffffffffffffffff161461100f57600080fd5b81600860008373ffffffffffffffffffffffffffffffffffffffff1673ffffffffffffffffffffffffffffffffffffffff16815260200190815260200160002060030160006101000a81548160ff0219169083151502179055506006819080600181540180825580915050600190039060005260206000200160009091909190916101000a81548173ffffffffffffffffffffffffffffffffffffffff021916908373ffffffffffffffffffffffffffffffffffffffff16021790555060018060008282546110de919061360d565b925050819055505050565b60086020528060005260406000206000915090508060000160009054906101000a900473ffffffffffffffffffffffffffffffffffffffff169080600101805461113290613432565b80601f016020809104026020016040519081016040528092919081815260200182805461115e90613432565b80156111ab5780601f10611180576101008083540402835291602001916111ab565b820191906000526020600020905b81548152906001019060200180831161118e57829003601f168201915b5050505050908060020180546111c090613432565b80601f01602080910402602001604051908101604052809291908181526020018280546111ec90613432565b80156112395780601f1061120e57610100808354040283529160200191611239565b820191906000526020600020905b81548152906001019060200180831161121c57829003601f168201915b5050505050908060030160009054906101000a900460ff16908060030160019054906101000a900460ff16908060030160029054906101000a900460ff16905086565b6000806000905060005b60068054905081101561132157600681815481106112a7576112a6613464565b5b9060005260206000200160009054906101000a900473ffffffffffffffffffffffffffffffffffffffff1673ffffffffffffffffffffffffffffffffffffffff168473ffffffffffffffffffffffffffffffffffffffff16141561130e5760019150611321565b8080611319906134c2565b915050611286565b5080915050919050565b6000600254905090565b6000600c54905090565b6000600360009054906101000a900473ffffffffffffffffffffffffffffffffffffffff16905090565b6000806000905060005b60058054905081101561140e576005818154811061139457611393613464565b5b9060005260206000200160009054906101000a900473ffffffffffffffffffffffffffffffffffffffff1673ffffffffffffffffffffffffffffffffffffffff168473ffffffffffffffffffffffffffffffffffffffff1614156113fb576001915061140e565b8080611406906134c2565b915050611373565b5080915050919050565b6060600e600101805461142a90613432565b80601f016020809104026020016040519081016040528092919081815260200182805461145690613432565b80156114a35780601f10611478576101008083540402835291602001916114a3565b820191906000526020600020905b81548152906001019060200180831161148657829003601f168201915b5050505050905090565b600681815481106114bd57600080fd5b906000526020600020016000915054906101000a900473ffffffffffffffffffffffffffffffffffffffff1681565b6000600d54905090565b600c5442101561153b576040517f08c379a0000000000000000000000000000000000000000000000000000000008152600401611532906136af565b60405180910390fd5b600d54421115611580576040517f08c379a00000000000000000000000000000000000000000000000000000000081526004016115779061371b565b60405180910390fd5b6000805b600860003373ffffffffffffffffffffffffffffffffffffffff1673ffffffffffffffffffffffffffffffffffffffff1681526020019081526020016000206004018054905081101561166e578260ff16600860003373ffffffffffffffffffffffffffffffffffffffff1673ffffffffffffffffffffffffffffffffffffffff168152602001908152602001600020600401828154811061162957611628613464565b5b90600052602060002090602091828204019190069054906101000a900460ff1660ff16141561165b576001915061166e565b8080611666906134c2565b915050611584565b5060001515811515146116b6576040517f08c379a00000000000000000000000000000000000000000000000000000000081526004016116ad906137ad565b60405180910390fd5b60011515600860003373ffffffffffffffffffffffffffffffffffffffff1673ffffffffffffffffffffffffffffffffffffffff16815260200190815260200160002060030160009054906101000a900460ff1615151461171657600080fd5b6001600960008573ffffffffffffffffffffffffffffffffffffffff1673ffffffffffffffffffffffffffffffffffffffff1681526020019081526020016000206005016000828254611769919061360d565b925050819055506001600860003373ffffffffffffffffffffffffffffffffffffffff1673ffffffffffffffffffffffffffffffffffffffff16815260200190815260200160002060030160016101000a81548160ff021916908315150217905550600860003373ffffffffffffffffffffffffffffffffffffffff1673ffffffffffffffffffffffffffffffffffffffff1681526020019081526020016000206004018290806001815401808255809150506001900390600052602060002090602091828204019190069091909190916101000a81548160ff021916908360ff160217905550505050565b6060600e600201805461186790613432565b80601f016020809104026020016040519081016040528092919081815260200182805461189390613432565b80156118e05780601f106118b5576101008083540402835291602001916118e0565b820191906000526020600020905b8154815290600101906020018083116118c357829003601f168201915b5050505050905090565b600360009054906101000a900473ffffffffffffffffffffffffffffffffffffffff1673ffffffffffffffffffffffffffffffffffffffff163373ffffffffffffffffffffffffffffffffffffffff161461194457600080fd5b6000815167ffffffffffffffff81111561196157611960612cb6565b5b60405190808252806020026020018201604052801561199457816020015b606081526020019060019003908161197f5790505b50905060005b82518110156119ef578281815181106119b6576119b5613464565b5b60200260200101518282815181106119d1576119d0613464565b5b602002602001018190525080806119e7906134c2565b91505061199a565b5060006040518061012001604052808c81526020018b81526020018a815260200189815260200188815260200187815260200186815260200185815260200183815250905080600e6000820151816000019080519060200190611a539291906125ae565b506020820151816001019080519060200190611a709291906125ae565b506040820151816002019080519060200190611a8d9291906125ae565b506060820151816003019080519060200190611aaa9291906125ae565b506080820151816004015560a0820151816005015560c0820151816006015560e08201518160070155610100820151816008019080519060200190611af0929190612634565b5090505060016000806101000a81548160ff02191690831515021790555084600a8190555083600b8190555086600c8190555085600d819055505050505050505050505050565b6000600b54905090565b600360009054906101000a900473ffffffffffffffffffffffffffffffffffffffff1673ffffffffffffffffffffffffffffffffffffffff163373ffffffffffffffffffffffffffffffffffffffff1614611b9b57600080fd5b81600960008373ffffffffffffffffffffffffffffffffffffffff1673ffffffffffffffffffffffffffffffffffffffff16815260200190815260200160002060060160006101000a81548160ff0219169083151502179055506007819080600181540180825580915050600190039060005260206000200160009091909190916101000a81548173ffffffffffffffffffffffffffffffffffffffff021916908373ffffffffffffffffffffffffffffffffffffffff160217905550600160026000828254611c6b919061360d565b925050819055505050565b6060600060078054905067ffffffffffffffff811115611c9957611c98612cb6565b5b604051908082528060200260200182016040528015611cd257816020015b611cbf612694565b815260200190600190039081611cb75790505b5090506000805b60078054905081101561200b578460ff166009600060078481548110611d0257611d01613464565b5b9060005260206000200160009054906101000a900473ffffffffffffffffffffffffffffffffffffffff1673ffffffffffffffffffffffffffffffffffffffff1673ffffffffffffffffffffffffffffffffffffffff168152602001908152602001600020600401541415611ff8576009600060078381548110611d8957611d88613464565b5b9060005260206000200160009054906101000a900473ffffffffffffffffffffffffffffffffffffffff1673ffffffffffffffffffffffffffffffffffffffff1673ffffffffffffffffffffffffffffffffffffffff16815260200190815260200160002060405180610100016040529081600082015481526020016001820160009054906101000a900473ffffffffffffffffffffffffffffffffffffffff1673ffffffffffffffffffffffffffffffffffffffff1673ffffffffffffffffffffffffffffffffffffffff168152602001600282018054611e6a90613432565b80601f0160208091040260200160405190810160405280929190818152602001828054611e9690613432565b8015611ee35780601f10611eb857610100808354040283529160200191611ee3565b820191906000526020600020905b815481529060010190602001808311611ec657829003601f168201915b50505050508152602001600382018054611efc90613432565b80601f0160208091040260200160405190810160405280929190818152602001828054611f2890613432565b8015611f755780601f10611f4a57610100808354040283529160200191611f75565b820191906000526020600020905b815481529060010190602001808311611f5857829003601f168201915b5050505050815260200160048201548152602001600582015481526020016006820160009054906101000a900460ff161515151581526020016006820160019054906101000a900460ff161515151581525050838360ff1681518110611fde57611fdd613464565b5b60200260200101819052508180611ff49061350b565b9250505b8080612003906134c2565b915050611cd9565b5060008160ff1667ffffffffffffffff81111561202b5761202a612cb6565b5b60405190808252806020026020018201604052801561206457816020015b612051612694565b8152602001906001900390816120495790505b50905060005b8260ff168110156120c15783818151811061208857612087613464565b5b60200260200101518282815181106120a3576120a2613464565b5b602002602001018190525080806120b9906134c2565b91505061206a565b50809350505050919050565b60008060009050600a5483101580156120e85750600b548311155b156120f257600190505b80915050919050565b60008060009050600b54831061211057600190505b80915050919050565b6000806000905060008054906101000a900460ff161561214257600d54831061214157600190505b5b80915050919050565b6004818154811061215b57600080fd5b906000526020600020016000915054906101000a900473ffffffffffffffffffffffffffffffffffffffff1681565b60008060009054906101000a900460ff16905090565b6000600a54905090565b60008060009050600080600090505b600780549050811015612335578460096000600784815481106121df576121de613464565b5b9060005260206000200160009054906101000a900473ffffffffffffffffffffffffffffffffffffffff1673ffffffffffffffffffffffffffffffffffffffff1673ffffffffffffffffffffffffffffffffffffffff168152602001908152602001600020600401541415612322576000600960006007848154811061226857612267613464565b5b9060005260206000200160009054906101000a900473ffffffffffffffffffffffffffffffffffffffff1673ffffffffffffffffffffffffffffffffffffffff1673ffffffffffffffffffffffffffffffffffffffff1681526020019081526020016000206005015490508381111561232057809350600782815481106122f2576122f1613464565b5b9060005260206000200160009054906101000a900473ffffffffffffffffffffffffffffffffffffffff1692505b505b808061232d906134c2565b9150506121b9565b508092505050919050565b600360009054906101000a900473ffffffffffffffffffffffffffffffffffffffff1681565b60006040518060e001604052803373ffffffffffffffffffffffffffffffffffffffff168152602001848152602001838152602001600015158152602001600015158152602001600115158152602001600067ffffffffffffffff8111156123d1576123d0612cb6565b5b6040519080825280602002602001820160405280156123ff5781602001602082028036833780820191505090505b50815250905080600860003373ffffffffffffffffffffffffffffffffffffffff1673ffffffffffffffffffffffffffffffffffffffff16815260200190815260200160002060008201518160000160006101000a81548173ffffffffffffffffffffffffffffffffffffffff021916908373ffffffffffffffffffffffffffffffffffffffff16021790555060208201518160010190805190602001906124a89291906125ae565b5060408201518160020190805190602001906124c59291906125ae565b5060608201518160030160006101000a81548160ff02191690831515021790555060808201518160030160016101000a81548160ff02191690831515021790555060a08201518160030160026101000a81548160ff02191690831515021790555060c08201518160040190805190602001906125429291906126f3565b509050506004339080600181540180825580915050600190039060005260206000200160009091909190916101000a81548173ffffffffffffffffffffffffffffffffffffffff021916908373ffffffffffffffffffffffffffffffffffffffff160217905550505050565b8280546125ba90613432565b90600052602060002090601f0160209004810192826125dc5760008555612623565b82601f106125f557805160ff1916838001178555612623565b82800160010185558215612623579182015b82811115612622578251825591602001919060010190612607565b5b509050612630919061279a565b5090565b828054828255906000526020600020908101928215612683579160200282015b828111156126825782518290805190602001906126729291906125ae565b5091602001919060010190612654565b5b50905061269091906127b7565b5090565b60405180610100016040528060008152602001600073ffffffffffffffffffffffffffffffffffffffff168152602001606081526020016060815260200160008152602001600081526020016000151581526020016000151581525090565b82805482825590600052602060002090601f016020900481019282156127895791602002820160005b8382111561275a57835183826101000a81548160ff021916908360ff160217905550926020019260010160208160000104928301926001030261271c565b80156127875782816101000a81549060ff021916905560010160208160000104928301926001030261275a565b505b509050612796919061279a565b5090565b5b808211156127b357600081600090555060010161279b565b5090565b5b808211156127d757600081816127ce91906127db565b506001016127b8565b5090565b5080546127e790613432565b6000825580601f106127f95750612818565b601f016020900490600052602060002090810190612817919061279a565b5b50565b6000604051905090565b600080fd5b600080fd5b600073ffffffffffffffffffffffffffffffffffffffff82169050919050565b600061285a8261282f565b9050919050565b61286a8161284f565b811461287557600080fd5b50565b60008135905061288781612861565b92915050565b6000602082840312156128a3576128a2612825565b5b60006128b184828501612878565b91505092915050565b6000819050919050565b6128cd816128ba565b82525050565b6128dc8161284f565b82525050565b600081519050919050565b600082825260208201905092915050565b60005b8381101561291c578082015181840152602081019050612901565b8381111561292b576000848401525b50505050565b6000601f19601f8301169050919050565b600061294d826128e2565b61295781856128ed565b93506129678185602086016128fe565b61297081612931565b840191505092915050565b60008115159050919050565b6129908161297b565b82525050565b6000610100820190506129ac600083018b6128c4565b6129b9602083018a6128d3565b81810360408301526129cb8189612942565b905081810360608301526129df8188612942565b90506129ee60808301876128c4565b6129fb60a08301866128c4565b612a0860c0830185612987565b612a1560e0830184612987565b9998505050505050505050565b600081519050919050565b600082825260208201905092915050565b6000819050602082019050919050565b600082825260208201905092915050565b6000612a6a826128e2565b612a748185612a4e565b9350612a848185602086016128fe565b612a8d81612931565b840191505092915050565b6000612aa48383612a5f565b905092915050565b6000602082019050919050565b6000612ac482612a22565b612ace8185612a2d565b935083602082028501612ae085612a3e565b8060005b85811015612b1c5784840389528151612afd8582612a98565b9450612b0883612aac565b925060208a01995050600181019050612ae4565b50829750879550505050505092915050565b60006020820190508181036000830152612b488184612ab9565b905092915050565b6000602082019050612b6560008301846128c4565b92915050565b60006020820190508181036000830152612b858184612942565b905092915050565b612b96816128ba565b8114612ba157600080fd5b50565b600081359050612bb381612b8d565b92915050565b600060208284031215612bcf57612bce612825565b5b6000612bdd84828501612ba4565b91505092915050565b6000602082019050612bfb6000830184612987565b92915050565b6000602082019050612c1660008301846128d3565b92915050565b600060ff82169050919050565b612c3281612c1c565b8114612c3d57600080fd5b50565b600081359050612c4f81612c29565b92915050565b600060208284031215612c6b57612c6a612825565b5b6000612c7984828501612c40565b91505092915050565b612c8b81612c1c565b82525050565b6000602082019050612ca66000830184612c82565b92915050565b600080fd5b600080fd5b7f4e487b7100000000000000000000000000000000000000000000000000000000600052604160045260246000fd5b612cee82612931565b810181811067ffffffffffffffff82111715612d0d57612d0c612cb6565b5b80604052505050565b6000612d2061281b565b9050612d2c8282612ce5565b919050565b600067ffffffffffffffff821115612d4c57612d4b612cb6565b5b612d5582612931565b9050602081019050919050565b82818337600083830152505050565b6000612d84612d7f84612d31565b612d16565b905082815260208101848484011115612da057612d9f612cb1565b5b612dab848285612d62565b509392505050565b600082601f830112612dc857612dc7612cac565b5b8135612dd8848260208601612d71565b91505092915050565b600080600060608486031215612dfa57612df9612825565b5b600084013567ffffffffffffffff811115612e1857612e1761282a565b5b612e2486828701612db3565b935050602084013567ffffffffffffffff811115612e4557612e4461282a565b5b612e5186828701612db3565b9250506040612e6286828701612ba4565b9150509250925092565b612e758161297b565b8114612e8057600080fd5b50565b600081359050612e9281612e6c565b92915050565b60008060408385031215612eaf57612eae612825565b5b6000612ebd85828601612e83565b9250506020612ece85828601612878565b9150509250929050565b600060c082019050612eed60008301896128d3565b8181036020830152612eff8188612942565b90508181036040830152612f138187612942565b9050612f226060830186612987565b612f2f6080830185612987565b612f3c60a0830184612987565b979650505050505050565b60008060408385031215612f5e57612f5d612825565b5b6000612f6c85828601612878565b9250506020612f7d85828601612c40565b9150509250929050565b600067ffffffffffffffff821115612fa257612fa1612cb6565b5b602082029050602081019050919050565b600080fd5b6000612fcb612fc684612f87565b612d16565b90508083825260208201905060208402830185811115612fee57612fed612fb3565b5b835b8181101561303557803567ffffffffffffffff81111561301357613012612cac565b5b8086016130208982612db3565b85526020850194505050602081019050612ff0565b5050509392505050565b600082601f83011261305457613053612cac565b5b8135613064848260208601612fb8565b91505092915050565b60008060008060008060008060006101208a8c0312156130905761308f612825565b5b60008a013567ffffffffffffffff8111156130ae576130ad61282a565b5b6130ba8c828d01612db3565b99505060208a013567ffffffffffffffff8111156130db576130da61282a565b5b6130e78c828d01612db3565b98505060408a013567ffffffffffffffff8111156131085761310761282a565b5b6131148c828d01612db3565b97505060608a013567ffffffffffffffff8111156131355761313461282a565b5b6131418c828d01612db3565b96505060806131528c828d01612ba4565b95505060a06131638c828d01612ba4565b94505060c06131748c828d01612ba4565b93505060e06131858c828d01612ba4565b9250506101008a013567ffffffffffffffff8111156131a7576131a661282a565b5b6131b38c828d0161303f565b9150509295985092959850929598565b600081519050919050565b600082825260208201905092915050565b6000819050602082019050919050565b6131f8816128ba565b82525050565b6132078161284f565b82525050565b6132168161297b565b82525050565b60006101008301600083015161323560008601826131ef565b50602083015161324860208601826131fe565b50604083015184820360408601526132608282612a5f565b9150506060830151848203606086015261327a8282612a5f565b915050608083015161328f60808601826131ef565b5060a08301516132a260a08601826131ef565b5060c08301516132b560c086018261320d565b5060e08301516132c860e086018261320d565b508091505092915050565b60006132df838361321c565b905092915050565b6000602082019050919050565b60006132ff826131c3565b61330981856131ce565b93508360208202850161331b856131df565b8060005b85811015613357578484038952815161333885826132d3565b9450613343836132e7565b925060208a0199505060018101905061331f565b50829750879550505050505092915050565b6000602082019050818103600083015261338381846132f4565b905092915050565b600080604083850312156133a2576133a1612825565b5b600083013567ffffffffffffffff8111156133c0576133bf61282a565b5b6133cc85828601612db3565b925050602083013567ffffffffffffffff8111156133ed576133ec61282a565b5b6133f985828601612db3565b9150509250929050565b7f4e487b7100000000000000000000000000000000000000000000000000000000600052602260045260246000fd5b6000600282049050600182168061344a57607f821691505b6020821081141561345e5761345d613403565b5b50919050565b7f4e487b7100000000000000000000000000000000000000000000000000000000600052603260045260246000fd5b7f4e487b7100000000000000000000000000000000000000000000000000000000600052601160045260246000fd5b60006134cd826128ba565b91507fffffffffffffffffffffffffffffffffffffffffffffffffffffffffffffffff821415613500576134ff613493565b5b600182019050919050565b600061351682612c1c565b915060ff82141561352a57613529613493565b5b600182019050919050565b7f526567697374726174696f6e206973206e6f7420737461727465642079657400600082015250565b600061356b601f836128ed565b915061357682613535565b602082019050919050565b6000602082019050818103600083015261359a8161355e565b9050919050565b7f526567697374726174696f6e20697320616c726561647920656e6465642e0000600082015250565b60006135d7601e836128ed565b91506135e2826135a1565b602082019050919050565b60006020820190508181036000830152613606816135ca565b9050919050565b6000613618826128ba565b9150613623836128ba565b9250827fffffffffffffffffffffffffffffffffffffffffffffffffffffffffffffffff0382111561365857613657613493565b5b828201905092915050565b7f566f74696e67206973206e6f7420737461727465642079657400000000000000600082015250565b60006136996019836128ed565b91506136a482613663565b602082019050919050565b600060208201905081810360008301526136c88161368c565b9050919050565b7f566f74696e6720697320616c726561647920656e646564000000000000000000600082015250565b60006137056017836128ed565b9150613710826136cf565b602082019050919050565b60006020820190508181036000830152613734816136f8565b9050919050565b7f596f75206861766520616c726561647920766f74656420746f20656c6563746960008201527f6f6e207469746c65000000000000000000000000000000000000000000000000602082015250565b60006137976028836128ed565b91506137a28261373b565b604082019050919050565b600060208201905081810360008301526137c68161378a565b905091905056fea2646970667358221220b2a3ebd2a3a8fd111aaee2289159f3da56849c02c277e282a9166c5b7757c90a64736f6c634300080b0033",
  "linkReferences": {},
  "deployedLinkReferences": {}
}