{
  "_format": "hh-sol-artifact-1",
  "contractName": "Election",
  "sourceName": "contracts/Election.sol",
  "abi": [
    {
      "inputs": [],
      "stateMutability": "nonpayable",
      "type": "constructor"
    },
    {
      "inputs": [],
      "name": "admin",
      "outputs": [
        {
          "internalType": "address",
          "name": "",
          "type": "address"
        }
      ],
      "stateMutability": "view",
      "type": "function"
    },
    {
      "inputs": [
        {
          "internalType": "uint256",
          "name": "",
          "type": "uint256"
        }
      ],
      "name": "approvedCandidates",
      "outputs": [
        {
          "internalType": "address",
          "name": "",
          "type": "address"
        }
      ],
      "stateMutability": "view",
      "type": "function"
    },
    {
      "inputs": [
        {
          "internalType": "uint256",
          "name": "",
          "type": "uint256"
        }
      ],
      "name": "approvedVoters",
      "outputs": [
        {
          "internalType": "address",
          "name": "",
          "type": "address"
        }
      ],
      "stateMutability": "view",
      "type": "function"
    },
    {
      "inputs": [
        {
          "internalType": "address",
          "name": "",
          "type": "address"
        }
      ],
      "name": "candidateDetails",
      "outputs": [
        {
          "internalType": "uint8",
          "name": "candidateId",
          "type": "uint8"
        },
        {
          "internalType": "address",
          "name": "candidateAddress",
          "type": "address"
        },
        {
          "internalType": "string",
          "name": "header",
          "type": "string"
        },
        {
          "internalType": "string",
          "name": "slogan",
          "type": "string"
        },
        {
          "internalType": "uint256",
          "name": "electionTitleIndex",
          "type": "uint256"
        },
        {
          "internalType": "uint256",
          "name": "voteCount",
          "type": "uint256"
        },
        {
          "internalType": "bool",
          "name": "isVerified",
          "type": "bool"
        },
        {
          "internalType": "bool",
          "name": "isRegistered",
          "type": "bool"
        }
      ],
      "stateMutability": "view",
      "type": "function"
    },
    {
      "inputs": [
        {
          "internalType": "uint256",
          "name": "",
          "type": "uint256"
        }
      ],
      "name": "candidates",
      "outputs": [
        {
          "internalType": "address",
          "name": "",
          "type": "address"
        }
      ],
      "stateMutability": "view",
      "type": "function"
    },
    {
      "inputs": [],
      "name": "getAdmin",
      "outputs": [
        {
          "internalType": "address",
          "name": "",
          "type": "address"
        }
      ],
      "stateMutability": "view",
      "type": "function"
    },
    {
      "inputs": [],
      "name": "getAdminEmail",
      "outputs": [
        {
          "internalType": "string",
          "name": "",
          "type": "string"
        }
      ],
      "stateMutability": "view",
      "type": "function"
    },
    {
      "inputs": [],
      "name": "getAdminName",
      "outputs": [
        {
          "internalType": "string",
          "name": "",
          "type": "string"
        }
      ],
      "stateMutability": "view",
      "type": "function"
    },
    {
      "inputs": [],
      "name": "getAdminTitle",
      "outputs": [
        {
          "internalType": "string",
          "name": "",
          "type": "string"
        }
      ],
      "stateMutability": "view",
      "type": "function"
    },
    {
      "inputs": [
        {
          "internalType": "address",
          "name": "_currentAddress",
          "type": "address"
        }
      ],
      "name": "getAlreadyRegisteredCandidateStatus",
      "outputs": [
        {
          "internalType": "bool",
          "name": "",
          "type": "bool"
        }
      ],
      "stateMutability": "view",
      "type": "function"
    },
    {
      "inputs": [
        {
          "internalType": "uint8",
          "name": "_electionTitleIndex",
          "type": "uint8"
        }
      ],
      "name": "getCandidateCountForAsscociatedElection",
      "outputs": [
        {
          "internalType": "uint8",
          "name": "",
          "type": "uint8"
        }
      ],
      "stateMutability": "view",
      "type": "function"
    },
    {
      "inputs": [
        {
          "internalType": "uint8",
          "name": "_electionTitleIndex",
          "type": "uint8"
        }
      ],
      "name": "getCandidatesForAssociatedElections",
      "outputs": [
        {
          "components": [
            {
              "internalType": "uint8",
              "name": "candidateId",
              "type": "uint8"
            },
            {
              "internalType": "address",
              "name": "candidateAddress",
              "type": "address"
            },
            {
              "internalType": "string",
              "name": "header",
              "type": "string"
            },
            {
              "internalType": "string",
              "name": "slogan",
              "type": "string"
            },
            {
              "internalType": "uint256",
              "name": "electionTitleIndex",
              "type": "uint256"
            },
            {
              "internalType": "uint256",
              "name": "voteCount",
              "type": "uint256"
            },
            {
              "internalType": "bool",
              "name": "isVerified",
              "type": "bool"
            },
            {
              "internalType": "bool",
              "name": "isRegistered",
              "type": "bool"
            }
          ],
          "internalType": "struct Election.Candidate[]",
          "name": "",
          "type": "tuple[]"
        }
      ],
      "stateMutability": "view",
      "type": "function"
    },
    {
      "inputs": [
        {
          "internalType": "uint256",
          "name": "_timeStamp",
          "type": "uint256"
        }
      ],
      "name": "getElectionEndedStatus",
      "outputs": [
        {
          "internalType": "bool",
          "name": "",
          "type": "bool"
        }
      ],
      "stateMutability": "view",
      "type": "function"
    },
    {
      "inputs": [],
      "name": "getElectionInitStatus",
      "outputs": [
        {
          "internalType": "bool",
          "name": "",
          "type": "bool"
        }
      ],
      "stateMutability": "view",
      "type": "function"
    },
    {
      "inputs": [
        {
          "internalType": "uint256",
          "name": "_timeStamp",
          "type": "uint256"
        }
      ],
      "name": "getElectionStatus",
      "outputs": [
        {
          "internalType": "bool",
          "name": "",
          "type": "bool"
        }
      ],
      "stateMutability": "view",
      "type": "function"
    },
    {
      "inputs": [],
      "name": "getElectionTitles",
      "outputs": [
        {
          "internalType": "string[]",
          "name": "",
          "type": "string[]"
        }
      ],
      "stateMutability": "view",
      "type": "function"
    },
    {
      "inputs": [],
      "name": "getOrganizationTitle",
      "outputs": [
        {
          "internalType": "string",
          "name": "",
          "type": "string"
        }
      ],
      "stateMutability": "view",
      "type": "function"
    },
    {
      "inputs": [],
      "name": "getRegistrationEndTime",
      "outputs": [
        {
          "internalType": "uint256",
          "name": "",
          "type": "uint256"
        }
      ],
      "stateMutability": "view",
      "type": "function"
    },
    {
      "inputs": [
        {
          "internalType": "uint256",
          "name": "_timeStamp",
          "type": "uint256"
        }
      ],
      "name": "getRegistrationEndedStatus",
      "outputs": [
        {
          "internalType": "bool",
          "name": "",
          "type": "bool"
        }
      ],
      "stateMutability": "view",
      "type": "function"
    },
    {
      "inputs": [],
      "name": "getRegistrationStartTime",
      "outputs": [
        {
          "internalType": "uint256",
          "name": "",
          "type": "uint256"
        }
      ],
      "stateMutability": "view",
      "type": "function"
    },
    {
      "inputs": [
        {
          "internalType": "uint256",
          "name": "_timeStamp",
          "type": "uint256"
        }
      ],
      "name": "getRegistrationStartedStatus",
      "outputs": [
        {
          "internalType": "bool",
          "name": "",
          "type": "bool"
        }
      ],
      "stateMutability": "view",
      "type": "function"
    },
    {
      "inputs": [
        {
          "internalType": "uint256",
          "name": "_timeStamp",
          "type": "uint256"
        }
      ],
      "name": "getRegistrationStatus",
      "outputs": [
        {
          "internalType": "bool",
          "name": "",
          "type": "bool"
        }
      ],
      "stateMutability": "view",
      "type": "function"
    },
    {
      "inputs": [],
      "name": "getUnVerifiedCandidates",
      "outputs": [
        {
          "internalType": "uint256",
          "name": "",
          "type": "uint256"
        }
      ],
      "stateMutability": "view",
      "type": "function"
    },
    {
      "inputs": [],
      "name": "getUnVerifiedVoters",
      "outputs": [
        {
          "internalType": "uint256",
          "name": "",
          "type": "uint256"
        }
      ],
      "stateMutability": "view",
      "type": "function"
    },
    {
      "inputs": [],
      "name": "getVerifiedCandidates",
      "outputs": [
        {
          "internalType": "uint256",
          "name": "",
          "type": "uint256"
        }
      ],
      "stateMutability": "view",
      "type": "function"
    },
    {
      "inputs": [],
      "name": "getVerifiedVoters",
      "outputs": [
        {
          "internalType": "uint256",
          "name": "",
          "type": "uint256"
        }
      ],
      "stateMutability": "view",
      "type": "function"
    },
    {
      "inputs": [],
      "name": "getVoterElectionTitles",
      "outputs": [
        {
          "internalType": "uint8[]",
          "name": "",
          "type": "uint8[]"
        }
      ],
      "stateMutability": "view",
      "type": "function"
    },
    {
      "inputs": [
        {
          "internalType": "address",
          "name": "_currentAddress",
          "type": "address"
        }
      ],
      "name": "getVoterStatusForCandidate",
      "outputs": [
        {
          "internalType": "bool",
          "name": "",
          "type": "bool"
        }
      ],
      "stateMutability": "view",
      "type": "function"
    },
    {
      "inputs": [],
      "name": "getVotingEndTime",
      "outputs": [
        {
          "internalType": "uint256",
          "name": "",
          "type": "uint256"
        }
      ],
      "stateMutability": "view",
      "type": "function"
    },
    {
      "inputs": [],
      "name": "getVotingStartTime",
      "outputs": [
        {
          "internalType": "uint256",
          "name": "",
          "type": "uint256"
        }
      ],
      "stateMutability": "view",
      "type": "function"
    },
    {
      "inputs": [
        {
          "internalType": "uint256",
          "name": "_electionTitleIndex",
          "type": "uint256"
        }
      ],
      "name": "getWinnerCandidate",
      "outputs": [
        {
          "internalType": "address",
          "name": "",
          "type": "address"
        }
      ],
      "stateMutability": "view",
      "type": "function"
    },
    {
      "inputs": [
        {
          "internalType": "uint8[]",
          "name": "electionTitleList",
          "type": "uint8[]"
        },
        {
          "internalType": "uint8",
          "name": "item",
          "type": "uint8"
        }
      ],
      "name": "iselectionTitleIndexInList",
      "outputs": [
        {
          "internalType": "bool",
          "name": "",
          "type": "bool"
        }
      ],
      "stateMutability": "pure",
      "type": "function"
    },
    {
      "inputs": [
        {
          "internalType": "string",
          "name": "_header",
          "type": "string"
        },
        {
          "internalType": "string",
          "name": "_slogan",
          "type": "string"
        },
        {
          "internalType": "uint256",
          "name": "_electionTitleIndex",
          "type": "uint256"
        }
      ],
      "name": "registerAsCandidate",
      "outputs": [],
      "stateMutability": "nonpayable",
      "type": "function"
    },
    {
      "inputs": [
        {
          "internalType": "string",
          "name": "_name",
          "type": "string"
        },
        {
          "internalType": "string",
          "name": "_phone",
          "type": "string"
        }
      ],
      "name": "registerAsVoter",
      "outputs": [],
      "stateMutability": "nonpayable",
      "type": "function"
    },
    {
      "inputs": [
        {
          "internalType": "string",
          "name": "_adminName",
          "type": "string"
        },
        {
          "internalType": "string",
          "name": "_adminEmail",
          "type": "string"
        },
        {
          "internalType": "string",
          "name": "_adminTitle",
          "type": "string"
        },
        {
          "internalType": "string",
          "name": "_organizationTitle",
          "type": "string"
        },
        {
          "internalType": "uint256",
          "name": "_votingStartTime",
          "type": "uint256"
        },
        {
          "internalType": "uint256",
          "name": "_votingEndTime",
          "type": "uint256"
        },
        {
          "internalType": "uint256",
          "name": "_registrationStartTime",
          "type": "uint256"
        },
        {
          "internalType": "uint256",
          "name": "_registrationEndTime",
          "type": "uint256"
        },
        {
          "internalType": "string[]",
          "name": "_elections",
          "type": "string[]"
        }
      ],
      "name": "setElectionDetails",
      "outputs": [],
      "stateMutability": "nonpayable",
      "type": "function"
    },
    {
      "inputs": [
        {
          "internalType": "bool",
          "name": "_verifedStatus",
          "type": "bool"
        },
        {
          "internalType": "address",
          "name": "candidateAddress",
          "type": "address"
        }
      ],
      "name": "verifyCandidate",
      "outputs": [],
      "stateMutability": "nonpayable",
      "type": "function"
    },
    {
      "inputs": [
        {
          "internalType": "bool",
          "name": "_verifedStatus",
          "type": "bool"
        },
        {
          "internalType": "address",
          "name": "voterAddress",
          "type": "address"
        }
      ],
      "name": "verifyVoter",
      "outputs": [],
      "stateMutability": "nonpayable",
      "type": "function"
    },
    {
      "inputs": [
        {
          "internalType": "address",
          "name": "_candidateAddress",
          "type": "address"
        },
        {
          "internalType": "uint8",
          "name": "_electionTitleIndex",
          "type": "uint8"
        }
      ],
      "name": "vote",
      "outputs": [],
      "stateMutability": "nonpayable",
      "type": "function"
    },
    {
      "inputs": [
        {
          "internalType": "address",
          "name": "",
          "type": "address"
        }
      ],
      "name": "voterDetails",
      "outputs": [
        {
          "internalType": "address",
          "name": "voterAddress",
          "type": "address"
        },
        {
          "internalType": "string",
          "name": "name",
          "type": "string"
        },
        {
          "internalType": "string",
          "name": "phone",
          "type": "string"
        },
        {
          "internalType": "bool",
          "name": "isVerified",
          "type": "bool"
        },
        {
          "internalType": "bool",
          "name": "hasVoted",
          "type": "bool"
        },
        {
          "internalType": "bool",
          "name": "isRegistered",
          "type": "bool"
        }
      ],
      "stateMutability": "view",
      "type": "function"
    },
    {
      "inputs": [
        {
          "internalType": "uint256",
          "name": "",
          "type": "uint256"
        }
      ],
      "name": "voters",
      "outputs": [
        {
          "internalType": "address",
          "name": "",
          "type": "address"
        }
      ],
      "stateMutability": "view",
      "type": "function"
    }
  ],
  "bytecode": "0x608060405234801561001057600080fd5b5033600060016101000a81548173ffffffffffffffffffffffffffffffffffffffff021916908373ffffffffffffffffffffffffffffffffffffffff16021790555060008060156101000a81548160ff021916908360ff16021790555060008060006101000a81548160ff0219169083151502179055506000600781905550600060088190555060006009819055506000600a81905550613c51806100b66000396000f3fe608060405234801561001057600080fd5b50600436106102485760003560e01c8063aed930101161013b578063d2fdf16f116100b8578063df1c84ef1161007c578063df1c84ef14610789578063df6d2784146107a7578063f33a8a73146107c5578063f851a440146107f5578063fee0d19a1461081357610248565b8063d2fdf16f146106bd578063d4ecadb8146106ed578063da58c7d91461071d578063dc973d501461074d578063dd698f901461076b57610248565b8063c3a171a2116100ff578063c3a171a214610607578063c784d21314610623578063cad43b4814610641578063cfe0c7fc1461065d578063d0980f201461068d57610248565b8063aed9301014610561578063b1bf87b014610591578063b54e629a146105af578063bceb514d146105cd578063be081b6f146105e957610248565b80634c652fc6116101c95780636a82ee511161018d5780636a82ee51146104b95780636e9960c3146104d7578063739a95f8146104f55780637d66053514610513578063831318f11461054357610248565b80634c652fc6146103ec578063506b8e0a146104085780635938750d146104245780635fcdd8a11461045957806364ca69381461048957610248565b80633477ee2e116102105780633477ee2e14610320578063399f694d146103505780633f66f48b1461038057806347eaa1d9146103b057806348343175146103ce57610248565b806305e73ced1461024d5780630712aa05146102845780630e2354cf146102a257806319c5c507146102c057806324785b9e146102f0575b600080fd5b61026760048036038101906102629190612aa5565b61082f565b60405161027b989796959493929190612bca565b60405180910390f35b61028c6109ce565b6040516102999190612d62565b60405180910390f35b6102aa610b20565b6040516102b79190612d84565b60405180910390f35b6102da60048036038101906102d59190612dd2565b610bb5565b6040516102e79190612dff565b60405180910390f35b61030a60048036038101906103059190612dd2565b610be8565b6040516103179190612dff565b60405180910390f35b61033a60048036038101906103359190612dd2565b610c1b565b6040516103479190612e1a565b60405180910390f35b61036a60048036038101906103659190612e61565b610c5a565b6040516103779190612e8e565b60405180910390f35b61039a60048036038101906103959190612dd2565b610d28565b6040516103a79190612e1a565b60405180910390f35b6103b8610d67565b6040516103c59190612ea9565b60405180910390f35b6103d6610d74565b6040516103e39190612d84565b60405180910390f35b61040660048036038101906104019190612ff9565b610e09565b005b610422600480360381019061041d91906130b0565b6110d9565b005b61043e60048036038101906104399190612aa5565b6111f4565b604051610450969594939291906130f0565b60405180910390f35b610473600480360381019061046e9190612aa5565b611387565b6040516104809190612dff565b60405180910390f35b6104a3600480360381019061049e9190613227565b611436565b6040516104b09190612dff565b60405180910390f35b6104c1611498565b6040516104ce9190612ea9565b60405180910390f35b6104df6114a2565b6040516104ec9190612e1a565b60405180910390f35b6104fd6114cb565b60405161050a9190612ea9565b60405180910390f35b61052d60048036038101906105289190612aa5565b6114d8565b60405161053a9190612dff565b60405180910390f35b61054b611587565b6040516105589190612d84565b60405180910390f35b61057b60048036038101906105769190612dd2565b61161c565b6040516105889190612e1a565b60405180910390f35b61059961165b565b6040516105a69190612ea9565b60405180910390f35b6105b7611665565b6040516105c49190612ea9565b60405180910390f35b6105e760048036038101906105e29190613283565b611672565b005b6105f16119a0565b6040516105fe9190612d84565b60405180910390f35b610621600480360381019061061c91906133a4565b611a35565b005b61062b611c82565b6040516106389190612ea9565b60405180910390f35b61065b600480360381019061065691906130b0565b611c8c565b005b61067760048036038101906106729190612e61565b611da7565b60405161068491906136af565b60405180910390f35b6106a760048036038101906106a29190612dd2565b612211565b6040516106b49190612dff565b60405180910390f35b6106d760048036038101906106d29190612dd2565b61223f565b6040516106e49190612dff565b60405180910390f35b61070760048036038101906107029190612dd2565b61225d565b6040516107149190612dff565b60405180910390f35b61073760048036038101906107329190612dd2565b61228f565b6040516107449190612e1a565b60405180910390f35b6107556122ce565b6040516107629190612ea9565b60405180910390f35b6107736122db565b6040516107809190612dff565b60405180910390f35b6107916122f1565b60405161079e9190613780565b60405180910390f35b6107af6123b5565b6040516107bc9190612ea9565b60405180910390f35b6107df60048036038101906107da9190612dd2565b6123bf565b6040516107ec9190612e1a565b60405180910390f35b6107fd612555565b60405161080a9190612e1a565b60405180910390f35b61082d600480360381019061082891906137a2565b61257b565b005b60066020528060005260406000206000915090508060000160009054906101000a900460ff16908060000160019054906101000a900473ffffffffffffffffffffffffffffffffffffffff169080600101805461088b90613849565b80601f01602080910402602001604051908101604052809291908181526020018280546108b790613849565b80156109045780601f106108d957610100808354040283529160200191610904565b820191906000526020600020905b8154815290600101906020018083116108e757829003601f168201915b50505050509080600201805461091990613849565b80601f016020809104026020016040519081016040528092919081815260200182805461094590613849565b80156109925780601f1061096757610100808354040283529160200191610992565b820191906000526020600020905b81548152906001019060200180831161097557829003601f168201915b5050505050908060030154908060040154908060050160009054906101000a900460ff16908060050160019054906101000a900460ff16905088565b60606000600b6008018054905067ffffffffffffffff8111156109f4576109f3612ece565b5b604051908082528060200260200182016040528015610a2757816020015b6060815260200190600190039081610a125790505b50905060005b600b60080180549050811015610b1857600b6008018181548110610a5457610a5361387b565b5b906000526020600020018054610a6990613849565b80601f0160208091040260200160405190810160405280929190818152602001828054610a9590613849565b8015610ae25780601f10610ab757610100808354040283529160200191610ae2565b820191906000526020600020905b815481529060010190602001808311610ac557829003601f168201915b5050505050828281518110610afa57610af961387b565b5b60200260200101819052508080610b10906138d9565b915050610a2d565b508091505090565b6060600b6000018054610b3290613849565b80601f0160208091040260200160405190810160405280929190818152602001828054610b5e90613849565b8015610bab5780601f10610b8057610100808354040283529160200191610bab565b820191906000526020600020905b815481529060010190602001808311610b8e57829003601f168201915b5050505050905090565b6000806007548310158015610bcc57506008548311155b15610bda5760019050610bdf565b600090505b80915050919050565b6000806009548310158015610bff5750600a548311155b15610c0d5760019050610c12565b600090505b80915050919050565b60028181548110610c2b57600080fd5b906000526020600020016000915054906101000a900473ffffffffffffffffffffffffffffffffffffffff1681565b6000806000905060005b600480549050811015610d1e578360ff166006600060048481548110610c8d57610c8c61387b565b5b9060005260206000200160009054906101000a900473ffffffffffffffffffffffffffffffffffffffff1673ffffffffffffffffffffffffffffffffffffffff1673ffffffffffffffffffffffffffffffffffffffff168152602001908152602001600020600301541415610d0b578180610d0790613922565b9250505b8080610d16906138d9565b915050610c64565b5080915050919050565b60048181548110610d3857600080fd5b906000526020600020016000915054906101000a900473ffffffffffffffffffffffffffffffffffffffff1681565b6000600480549050905090565b6060600b6003018054610d8690613849565b80601f0160208091040260200160405190810160405280929190818152602001828054610db290613849565b8015610dff5780601f10610dd457610100808354040283529160200191610dff565b820191906000526020600020905b815481529060010190602001808311610de257829003601f168201915b5050505050905090565b600754421015610e4e576040517f08c379a0000000000000000000000000000000000000000000000000000000008152600401610e4590613998565b60405180910390fd5b600854421115610e93576040517f08c379a0000000000000000000000000000000000000000000000000000000008152600401610e8a90613a04565b60405180910390fd5b6000604051806101000160405280600060159054906101000a900460ff1660ff1681526020013373ffffffffffffffffffffffffffffffffffffffff1681526020018581526020018481526020018381526020016000815260200160001515815260200160011515815250905080600660003373ffffffffffffffffffffffffffffffffffffffff1673ffffffffffffffffffffffffffffffffffffffff16815260200190815260200160002060008201518160000160006101000a81548160ff021916908360ff16021790555060208201518160000160016101000a81548173ffffffffffffffffffffffffffffffffffffffff021916908373ffffffffffffffffffffffffffffffffffffffff1602179055506040820151816001019080519060200190610fc49291906127c3565b506060820151816002019080519060200190610fe19291906127c3565b506080820151816003015560a0820151816004015560c08201518160050160006101000a81548160ff02191690831515021790555060e08201518160050160016101000a81548160ff0219169083151502179055509050506002339080600181540180825580915050600190039060005260206000200160009091909190916101000a81548173ffffffffffffffffffffffffffffffffffffffff021916908373ffffffffffffffffffffffffffffffffffffffff1602179055506001600060158282829054906101000a900460ff166110bb9190613a24565b92506101000a81548160ff021916908360ff16021790555050505050565b600060019054906101000a900473ffffffffffffffffffffffffffffffffffffffff1673ffffffffffffffffffffffffffffffffffffffff163373ffffffffffffffffffffffffffffffffffffffff161461113357600080fd5b81600560008373ffffffffffffffffffffffffffffffffffffffff1673ffffffffffffffffffffffffffffffffffffffff16815260200190815260200160002060030160006101000a81548160ff0219169083151502179055506003819080600181540180825580915050600190039060005260206000200160009091909190916101000a81548173ffffffffffffffffffffffffffffffffffffffff021916908373ffffffffffffffffffffffffffffffffffffffff1602179055505050565b60056020528060005260406000206000915090508060000160009054906101000a900473ffffffffffffffffffffffffffffffffffffffff169080600101805461123d90613849565b80601f016020809104026020016040519081016040528092919081815260200182805461126990613849565b80156112b65780601f1061128b576101008083540402835291602001916112b6565b820191906000526020600020905b81548152906001019060200180831161129957829003601f168201915b5050505050908060020180546112cb90613849565b80601f01602080910402602001604051908101604052809291908181526020018280546112f790613849565b80156113445780601f1061131957610100808354040283529160200191611344565b820191906000526020600020905b81548152906001019060200180831161132757829003601f168201915b5050505050908060030160009054906101000a900460ff16908060030160019054906101000a900460ff16908060030160029054906101000a900460ff16905086565b6000806000905060005b60038054905081101561142c57600381815481106113b2576113b161387b565b5b9060005260206000200160009054906101000a900473ffffffffffffffffffffffffffffffffffffffff1673ffffffffffffffffffffffffffffffffffffffff168473ffffffffffffffffffffffffffffffffffffffff161415611419576001915061142c565b8080611424906138d9565b915050611391565b5080915050919050565b600080600090505b835181101561148c578260ff1684828151811061145e5761145d61387b565b5b602002602001015160ff161415611479576001915050611492565b8080611484906138d9565b91505061143e565b50600090505b92915050565b6000600954905090565b60008060019054906101000a900473ffffffffffffffffffffffffffffffffffffffff16905090565b6000600180549050905090565b6000806000905060005b60028054905081101561157d57600281815481106115035761150261387b565b5b9060005260206000200160009054906101000a900473ffffffffffffffffffffffffffffffffffffffff1673ffffffffffffffffffffffffffffffffffffffff168473ffffffffffffffffffffffffffffffffffffffff16141561156a576001915061157d565b8080611575906138d9565b9150506114e2565b5080915050919050565b6060600b600101805461159990613849565b80601f01602080910402602001604051908101604052809291908181526020018280546115c590613849565b80156116125780601f106115e757610100808354040283529160200191611612565b820191906000526020600020905b8154815290600101906020018083116115f557829003601f168201915b5050505050905090565b6003818154811061162c57600080fd5b906000526020600020016000915054906101000a900473ffffffffffffffffffffffffffffffffffffffff1681565b6000600a54905090565b6000600380549050905090565b6009544210156116b7576040517f08c379a00000000000000000000000000000000000000000000000000000000081526004016116ae90613aa7565b60405180910390fd5b600a544211156116fc576040517f08c379a00000000000000000000000000000000000000000000000000000000081526004016116f390613b13565b60405180910390fd5b60006117be600560003373ffffffffffffffffffffffffffffffffffffffff1673ffffffffffffffffffffffffffffffffffffffff1681526020019081526020016000206004018054806020026020016040519081016040528092919081815260200182805480156117b357602002820191906000526020600020906000905b82829054906101000a900460ff1660ff168152602001906001019060208260000104928301926001038202915080841161177c5790505b505050505083611436565b90508015611801576040517f08c379a00000000000000000000000000000000000000000000000000000000081526004016117f890613ba5565b60405180910390fd5b60011515600560003373ffffffffffffffffffffffffffffffffffffffff1673ffffffffffffffffffffffffffffffffffffffff16815260200190815260200160002060030160009054906101000a900460ff1615151461186157600080fd5b6001600660008573ffffffffffffffffffffffffffffffffffffffff1673ffffffffffffffffffffffffffffffffffffffff16815260200190815260200160002060040160008282546118b49190613bc5565b925050819055506001600560003373ffffffffffffffffffffffffffffffffffffffff1673ffffffffffffffffffffffffffffffffffffffff16815260200190815260200160002060030160016101000a81548160ff021916908315150217905550600560003373ffffffffffffffffffffffffffffffffffffffff1673ffffffffffffffffffffffffffffffffffffffff1681526020019081526020016000206004018290806001815401808255809150506001900390600052602060002090602091828204019190069091909190916101000a81548160ff021916908360ff160217905550505050565b6060600b60020180546119b290613849565b80601f01602080910402602001604051908101604052809291908181526020018280546119de90613849565b8015611a2b5780601f10611a0057610100808354040283529160200191611a2b565b820191906000526020600020905b815481529060010190602001808311611a0e57829003601f168201915b5050505050905090565b600060019054906101000a900473ffffffffffffffffffffffffffffffffffffffff1673ffffffffffffffffffffffffffffffffffffffff163373ffffffffffffffffffffffffffffffffffffffff1614611a8f57600080fd5b6000815167ffffffffffffffff811115611aac57611aab612ece565b5b604051908082528060200260200182016040528015611adf57816020015b6060815260200190600190039081611aca5790505b50905060005b8251811015611b3a57828181518110611b0157611b0061387b565b5b6020026020010151828281518110611b1c57611b1b61387b565b5b60200260200101819052508080611b32906138d9565b915050611ae5565b5060006040518061012001604052808c81526020018b81526020018a815260200189815260200188815260200187815260200186815260200185815260200183815250905080600b6000820151816000019080519060200190611b9e9291906127c3565b506020820151816001019080519060200190611bbb9291906127c3565b506040820151816002019080519060200190611bd89291906127c3565b506060820151816003019080519060200190611bf59291906127c3565b506080820151816004015560a0820151816005015560c0820151816006015560e08201518160070155610100820151816008019080519060200190611c3b929190612849565b5090505060016000806101000a81548160ff02191690831515021790555084600781905550836008819055508660098190555085600a819055505050505050505050505050565b6000600854905090565b600060019054906101000a900473ffffffffffffffffffffffffffffffffffffffff1673ffffffffffffffffffffffffffffffffffffffff163373ffffffffffffffffffffffffffffffffffffffff1614611ce657600080fd5b81600660008373ffffffffffffffffffffffffffffffffffffffff1673ffffffffffffffffffffffffffffffffffffffff16815260200190815260200160002060050160006101000a81548160ff0219169083151502179055506004819080600181540180825580915050600190039060005260206000200160009091909190916101000a81548173ffffffffffffffffffffffffffffffffffffffff021916908373ffffffffffffffffffffffffffffffffffffffff1602179055505050565b6060600060048054905067ffffffffffffffff811115611dca57611dc9612ece565b5b604051908082528060200260200182016040528015611e0357816020015b611df06128a9565b815260200190600190039081611de85790505b5090506000805b60048054905081101561214f578460ff166006600060048481548110611e3357611e3261387b565b5b9060005260206000200160009054906101000a900473ffffffffffffffffffffffffffffffffffffffff1673ffffffffffffffffffffffffffffffffffffffff1673ffffffffffffffffffffffffffffffffffffffff16815260200190815260200160002060030154141561213c576006600060048381548110611eba57611eb961387b565b5b9060005260206000200160009054906101000a900473ffffffffffffffffffffffffffffffffffffffff1673ffffffffffffffffffffffffffffffffffffffff1673ffffffffffffffffffffffffffffffffffffffff168152602001908152602001600020604051806101000160405290816000820160009054906101000a900460ff1660ff1660ff1681526020016000820160019054906101000a900473ffffffffffffffffffffffffffffffffffffffff1673ffffffffffffffffffffffffffffffffffffffff1673ffffffffffffffffffffffffffffffffffffffff168152602001600182018054611fae90613849565b80601f0160208091040260200160405190810160405280929190818152602001828054611fda90613849565b80156120275780601f10611ffc57610100808354040283529160200191612027565b820191906000526020600020905b81548152906001019060200180831161200a57829003601f168201915b5050505050815260200160028201805461204090613849565b80601f016020809104026020016040519081016040528092919081815260200182805461206c90613849565b80156120b95780601f1061208e576101008083540402835291602001916120b9565b820191906000526020600020905b81548152906001019060200180831161209c57829003601f168201915b5050505050815260200160038201548152602001600482015481526020016005820160009054906101000a900460ff161515151581526020016005820160019054906101000a900460ff161515151581525050838360ff16815181106121225761212161387b565b5b6020026020010181905250818061213890613922565b9250505b8080612147906138d9565b915050611e0a565b5060008160ff1667ffffffffffffffff81111561216f5761216e612ece565b5b6040519080825280602002602001820160405280156121a857816020015b6121956128a9565b81526020019060019003908161218d5790505b50905060005b8260ff16811015612205578381815181106121cc576121cb61387b565b5b60200260200101518282815181106121e7576121e661387b565b5b602002602001018190525080806121fd906138d9565b9150506121ae565b50809350505050919050565b60008060009050600754831015801561222c57506008548311155b1561223657600190505b80915050919050565b60008060009050600854831061225457600190505b80915050919050565b6000806000905060008054906101000a900460ff161561228657600a54831061228557600190505b5b80915050919050565b6001818154811061229f57600080fd5b906000526020600020016000915054906101000a900473ffffffffffffffffffffffffffffffffffffffff1681565b6000600280549050905090565b60008060009054906101000a900460ff16905090565b60606000600560003373ffffffffffffffffffffffffffffffffffffffff1673ffffffffffffffffffffffffffffffffffffffff1681526020019081526020016000206004018054806020026020016040519081016040528092919081815260200182805480156123a757602002820191906000526020600020906000905b82829054906101000a900460ff1660ff16815260200190600101906020826000010492830192600103820291508084116123705790505b505050505090508091505090565b6000600754905090565b60008060009050600080600090505b60048054905081101561254a578460066000600484815481106123f4576123f361387b565b5b9060005260206000200160009054906101000a900473ffffffffffffffffffffffffffffffffffffffff1673ffffffffffffffffffffffffffffffffffffffff1673ffffffffffffffffffffffffffffffffffffffff168152602001908152602001600020600301541415612537576000600660006004848154811061247d5761247c61387b565b5b9060005260206000200160009054906101000a900473ffffffffffffffffffffffffffffffffffffffff1673ffffffffffffffffffffffffffffffffffffffff1673ffffffffffffffffffffffffffffffffffffffff1681526020019081526020016000206004015490508381111561253557809350600482815481106125075761250661387b565b5b9060005260206000200160009054906101000a900473ffffffffffffffffffffffffffffffffffffffff1692505b505b8080612542906138d9565b9150506123ce565b508092505050919050565b600060019054906101000a900473ffffffffffffffffffffffffffffffffffffffff1681565b60006040518060e001604052803373ffffffffffffffffffffffffffffffffffffffff168152602001848152602001838152602001600015158152602001600015158152602001600115158152602001600067ffffffffffffffff8111156125e6576125e5612ece565b5b6040519080825280602002602001820160405280156126145781602001602082028036833780820191505090505b50815250905080600560003373ffffffffffffffffffffffffffffffffffffffff1673ffffffffffffffffffffffffffffffffffffffff16815260200190815260200160002060008201518160000160006101000a81548173ffffffffffffffffffffffffffffffffffffffff021916908373ffffffffffffffffffffffffffffffffffffffff16021790555060208201518160010190805190602001906126bd9291906127c3565b5060408201518160020190805190602001906126da9291906127c3565b5060608201518160030160006101000a81548160ff02191690831515021790555060808201518160030160016101000a81548160ff02191690831515021790555060a08201518160030160026101000a81548160ff02191690831515021790555060c082015181600401908051906020019061275792919061290b565b509050506001339080600181540180825580915050600190039060005260206000200160009091909190916101000a81548173ffffffffffffffffffffffffffffffffffffffff021916908373ffffffffffffffffffffffffffffffffffffffff160217905550505050565b8280546127cf90613849565b90600052602060002090601f0160209004810192826127f15760008555612838565b82601f1061280a57805160ff1916838001178555612838565b82800160010185558215612838579182015b8281111561283757825182559160200191906001019061281c565b5b50905061284591906129b2565b5090565b828054828255906000526020600020908101928215612898579160200282015b828111156128975782518290805190602001906128879291906127c3565b5091602001919060010190612869565b5b5090506128a591906129cf565b5090565b604051806101000160405280600060ff168152602001600073ffffffffffffffffffffffffffffffffffffffff168152602001606081526020016060815260200160008152602001600081526020016000151581526020016000151581525090565b82805482825590600052602060002090601f016020900481019282156129a15791602002820160005b8382111561297257835183826101000a81548160ff021916908360ff1602179055509260200192600101602081600001049283019260010302612934565b801561299f5782816101000a81549060ff0219169055600101602081600001049283019260010302612972565b505b5090506129ae91906129b2565b5090565b5b808211156129cb5760008160009055506001016129b3565b5090565b5b808211156129ef57600081816129e691906129f3565b506001016129d0565b5090565b5080546129ff90613849565b6000825580601f10612a115750612a30565b601f016020900490600052602060002090810190612a2f91906129b2565b5b50565b6000604051905090565b600080fd5b600080fd5b600073ffffffffffffffffffffffffffffffffffffffff82169050919050565b6000612a7282612a47565b9050919050565b612a8281612a67565b8114612a8d57600080fd5b50565b600081359050612a9f81612a79565b92915050565b600060208284031215612abb57612aba612a3d565b5b6000612ac984828501612a90565b91505092915050565b600060ff82169050919050565b612ae881612ad2565b82525050565b612af781612a67565b82525050565b600081519050919050565b600082825260208201905092915050565b60005b83811015612b37578082015181840152602081019050612b1c565b83811115612b46576000848401525b50505050565b6000601f19601f8301169050919050565b6000612b6882612afd565b612b728185612b08565b9350612b82818560208601612b19565b612b8b81612b4c565b840191505092915050565b6000819050919050565b612ba981612b96565b82525050565b60008115159050919050565b612bc481612baf565b82525050565b600061010082019050612be0600083018b612adf565b612bed602083018a612aee565b8181036040830152612bff8189612b5d565b90508181036060830152612c138188612b5d565b9050612c226080830187612ba0565b612c2f60a0830186612ba0565b612c3c60c0830185612bbb565b612c4960e0830184612bbb565b9998505050505050505050565b600081519050919050565b600082825260208201905092915050565b6000819050602082019050919050565b600082825260208201905092915050565b6000612c9e82612afd565b612ca88185612c82565b9350612cb8818560208601612b19565b612cc181612b4c565b840191505092915050565b6000612cd88383612c93565b905092915050565b6000602082019050919050565b6000612cf882612c56565b612d028185612c61565b935083602082028501612d1485612c72565b8060005b85811015612d505784840389528151612d318582612ccc565b9450612d3c83612ce0565b925060208a01995050600181019050612d18565b50829750879550505050505092915050565b60006020820190508181036000830152612d7c8184612ced565b905092915050565b60006020820190508181036000830152612d9e8184612b5d565b905092915050565b612daf81612b96565b8114612dba57600080fd5b50565b600081359050612dcc81612da6565b92915050565b600060208284031215612de857612de7612a3d565b5b6000612df684828501612dbd565b91505092915050565b6000602082019050612e146000830184612bbb565b92915050565b6000602082019050612e2f6000830184612aee565b92915050565b612e3e81612ad2565b8114612e4957600080fd5b50565b600081359050612e5b81612e35565b92915050565b600060208284031215612e7757612e76612a3d565b5b6000612e8584828501612e4c565b91505092915050565b6000602082019050612ea36000830184612adf565b92915050565b6000602082019050612ebe6000830184612ba0565b92915050565b600080fd5b600080fd5b7f4e487b7100000000000000000000000000000000000000000000000000000000600052604160045260246000fd5b612f0682612b4c565b810181811067ffffffffffffffff82111715612f2557612f24612ece565b5b80604052505050565b6000612f38612a33565b9050612f448282612efd565b919050565b600067ffffffffffffffff821115612f6457612f63612ece565b5b612f6d82612b4c565b9050602081019050919050565b82818337600083830152505050565b6000612f9c612f9784612f49565b612f2e565b905082815260208101848484011115612fb857612fb7612ec9565b5b612fc3848285612f7a565b509392505050565b600082601f830112612fe057612fdf612ec4565b5b8135612ff0848260208601612f89565b91505092915050565b60008060006060848603121561301257613011612a3d565b5b600084013567ffffffffffffffff8111156130305761302f612a42565b5b61303c86828701612fcb565b935050602084013567ffffffffffffffff81111561305d5761305c612a42565b5b61306986828701612fcb565b925050604061307a86828701612dbd565b9150509250925092565b61308d81612baf565b811461309857600080fd5b50565b6000813590506130aa81613084565b92915050565b600080604083850312156130c7576130c6612a3d565b5b60006130d58582860161309b565b92505060206130e685828601612a90565b9150509250929050565b600060c0820190506131056000830189612aee565b81810360208301526131178188612b5d565b9050818103604083015261312b8187612b5d565b905061313a6060830186612bbb565b6131476080830185612bbb565b61315460a0830184612bbb565b979650505050505050565b600067ffffffffffffffff82111561317a57613179612ece565b5b602082029050602081019050919050565b600080fd5b60006131a361319e8461315f565b612f2e565b905080838252602082019050602084028301858111156131c6576131c561318b565b5b835b818110156131ef57806131db8882612e4c565b8452602084019350506020810190506131c8565b5050509392505050565b600082601f83011261320e5761320d612ec4565b5b813561321e848260208601613190565b91505092915050565b6000806040838503121561323e5761323d612a3d565b5b600083013567ffffffffffffffff81111561325c5761325b612a42565b5b613268858286016131f9565b925050602061327985828601612e4c565b9150509250929050565b6000806040838503121561329a57613299612a3d565b5b60006132a885828601612a90565b92505060206132b985828601612e4c565b9150509250929050565b600067ffffffffffffffff8211156132de576132dd612ece565b5b602082029050602081019050919050565b60006133026132fd846132c3565b612f2e565b905080838252602082019050602084028301858111156133255761332461318b565b5b835b8181101561336c57803567ffffffffffffffff81111561334a57613349612ec4565b5b8086016133578982612fcb565b85526020850194505050602081019050613327565b5050509392505050565b600082601f83011261338b5761338a612ec4565b5b813561339b8482602086016132ef565b91505092915050565b60008060008060008060008060006101208a8c0312156133c7576133c6612a3d565b5b60008a013567ffffffffffffffff8111156133e5576133e4612a42565b5b6133f18c828d01612fcb565b99505060208a013567ffffffffffffffff81111561341257613411612a42565b5b61341e8c828d01612fcb565b98505060408a013567ffffffffffffffff81111561343f5761343e612a42565b5b61344b8c828d01612fcb565b97505060608a013567ffffffffffffffff81111561346c5761346b612a42565b5b6134788c828d01612fcb565b96505060806134898c828d01612dbd565b95505060a061349a8c828d01612dbd565b94505060c06134ab8c828d01612dbd565b93505060e06134bc8c828d01612dbd565b9250506101008a013567ffffffffffffffff8111156134de576134dd612a42565b5b6134ea8c828d01613376565b9150509295985092959850929598565b600081519050919050565b600082825260208201905092915050565b6000819050602082019050919050565b61352f81612ad2565b82525050565b61353e81612a67565b82525050565b61354d81612b96565b82525050565b61355c81612baf565b82525050565b60006101008301600083015161357b6000860182613526565b50602083015161358e6020860182613535565b50604083015184820360408601526135a68282612c93565b915050606083015184820360608601526135c08282612c93565b91505060808301516135d56080860182613544565b5060a08301516135e860a0860182613544565b5060c08301516135fb60c0860182613553565b5060e083015161360e60e0860182613553565b508091505092915050565b60006136258383613562565b905092915050565b6000602082019050919050565b6000613645826134fa565b61364f8185613505565b93508360208202850161366185613516565b8060005b8581101561369d578484038952815161367e8582613619565b94506136898361362d565b925060208a01995050600181019050613665565b50829750879550505050505092915050565b600060208201905081810360008301526136c9818461363a565b905092915050565b600081519050919050565b600082825260208201905092915050565b6000819050602082019050919050565b60006137098383613526565b60208301905092915050565b6000602082019050919050565b600061372d826136d1565b61373781856136dc565b9350613742836136ed565b8060005b8381101561377357815161375a88826136fd565b975061376583613715565b925050600181019050613746565b5085935050505092915050565b6000602082019050818103600083015261379a8184613722565b905092915050565b600080604083850312156137b9576137b8612a3d565b5b600083013567ffffffffffffffff8111156137d7576137d6612a42565b5b6137e385828601612fcb565b925050602083013567ffffffffffffffff81111561380457613803612a42565b5b61381085828601612fcb565b9150509250929050565b7f4e487b7100000000000000000000000000000000000000000000000000000000600052602260045260246000fd5b6000600282049050600182168061386157607f821691505b602082108114156138755761387461381a565b5b50919050565b7f4e487b7100000000000000000000000000000000000000000000000000000000600052603260045260246000fd5b7f4e487b7100000000000000000000000000000000000000000000000000000000600052601160045260246000fd5b60006138e482612b96565b91507fffffffffffffffffffffffffffffffffffffffffffffffffffffffffffffffff821415613917576139166138aa565b5b600182019050919050565b600061392d82612ad2565b915060ff821415613941576139406138aa565b5b600182019050919050565b7f526567697374726174696f6e206973206e6f7420737461727465642079657400600082015250565b6000613982601f83612b08565b915061398d8261394c565b602082019050919050565b600060208201905081810360008301526139b181613975565b9050919050565b7f526567697374726174696f6e20697320616c726561647920656e6465642e0000600082015250565b60006139ee601e83612b08565b91506139f9826139b8565b602082019050919050565b60006020820190508181036000830152613a1d816139e1565b9050919050565b6000613a2f82612ad2565b9150613a3a83612ad2565b92508260ff03821115613a5057613a4f6138aa565b5b828201905092915050565b7f566f74696e67206973206e6f7420737461727465642079657400000000000000600082015250565b6000613a91601983612b08565b9150613a9c82613a5b565b602082019050919050565b60006020820190508181036000830152613ac081613a84565b9050919050565b7f566f74696e6720697320616c726561647920656e646564000000000000000000600082015250565b6000613afd601783612b08565b9150613b0882613ac7565b602082019050919050565b60006020820190508181036000830152613b2c81613af0565b9050919050565b7f416c72656164792063617374656420766f746520746f207468652073656c656360008201527f746564207469746c652e00000000000000000000000000000000000000000000602082015250565b6000613b8f602a83612b08565b9150613b9a82613b33565b604082019050919050565b60006020820190508181036000830152613bbe81613b82565b9050919050565b6000613bd082612b96565b9150613bdb83612b96565b9250827fffffffffffffffffffffffffffffffffffffffffffffffffffffffffffffffff03821115613c1057613c0f6138aa565b5b82820190509291505056fea26469706673582212202b317321b27e10b0512b0f0455c34d731c38132dae32d55ff0e6949f60ab74c664736f6c634300080b0033",
  "linkReferences": {},
  "deployedLinkReferences": {}
}