{
  "_format": "hh-sol-artifact-1",
  "contractName": "Election",
  "sourceName": "contracts/Election.sol",
  "abi": [
    {
      "inputs": [],
      "stateMutability": "nonpayable",
      "type": "constructor"
    },
    {
      "inputs": [],
      "name": "admin",
      "outputs": [
        {
          "internalType": "address",
          "name": "",
          "type": "address"
        }
      ],
      "stateMutability": "view",
      "type": "function"
    },
    {
      "inputs": [
        {
          "internalType": "uint256",
          "name": "",
          "type": "uint256"
        }
      ],
      "name": "approvedCandidates",
      "outputs": [
        {
          "internalType": "address",
          "name": "",
          "type": "address"
        }
      ],
      "stateMutability": "view",
      "type": "function"
    },
    {
      "inputs": [
        {
          "internalType": "uint256",
          "name": "",
          "type": "uint256"
        }
      ],
      "name": "approvedVoters",
      "outputs": [
        {
          "internalType": "address",
          "name": "",
          "type": "address"
        }
      ],
      "stateMutability": "view",
      "type": "function"
    },
    {
      "inputs": [
        {
          "internalType": "address",
          "name": "",
          "type": "address"
        }
      ],
      "name": "candidateDetails",
      "outputs": [
        {
          "internalType": "uint8",
          "name": "candidateId",
          "type": "uint8"
        },
        {
          "internalType": "address",
          "name": "candidateAddress",
          "type": "address"
        },
        {
          "internalType": "string",
          "name": "header",
          "type": "string"
        },
        {
          "internalType": "string",
          "name": "slogan",
          "type": "string"
        },
        {
          "internalType": "uint256",
          "name": "electionTitleIndex",
          "type": "uint256"
        },
        {
          "internalType": "uint256",
          "name": "voteCount",
          "type": "uint256"
        },
        {
          "internalType": "bool",
          "name": "isVerified",
          "type": "bool"
        },
        {
          "internalType": "bool",
          "name": "isRegistered",
          "type": "bool"
        }
      ],
      "stateMutability": "view",
      "type": "function"
    },
    {
      "inputs": [
        {
          "internalType": "uint256",
          "name": "",
          "type": "uint256"
        }
      ],
      "name": "candidates",
      "outputs": [
        {
          "internalType": "address",
          "name": "",
          "type": "address"
        }
      ],
      "stateMutability": "view",
      "type": "function"
    },
    {
      "inputs": [],
      "name": "getAdmin",
      "outputs": [
        {
          "internalType": "address",
          "name": "",
          "type": "address"
        }
      ],
      "stateMutability": "view",
      "type": "function"
    },
    {
      "inputs": [],
      "name": "getAdminEmail",
      "outputs": [
        {
          "internalType": "string",
          "name": "",
          "type": "string"
        }
      ],
      "stateMutability": "view",
      "type": "function"
    },
    {
      "inputs": [],
      "name": "getAdminName",
      "outputs": [
        {
          "internalType": "string",
          "name": "",
          "type": "string"
        }
      ],
      "stateMutability": "view",
      "type": "function"
    },
    {
      "inputs": [],
      "name": "getAdminTitle",
      "outputs": [
        {
          "internalType": "string",
          "name": "",
          "type": "string"
        }
      ],
      "stateMutability": "view",
      "type": "function"
    },
    {
      "inputs": [
        {
          "internalType": "address",
          "name": "_currentAddress",
          "type": "address"
        }
      ],
      "name": "getAlreadyRegisteredCandidateStatus",
      "outputs": [
        {
          "internalType": "bool",
          "name": "",
          "type": "bool"
        }
      ],
      "stateMutability": "view",
      "type": "function"
    },
    {
      "inputs": [
        {
          "internalType": "uint8",
          "name": "_electionTitleIndex",
          "type": "uint8"
        }
      ],
      "name": "getCandidateCountForAsscociatedElection",
      "outputs": [
        {
          "internalType": "uint8",
          "name": "",
          "type": "uint8"
        }
      ],
      "stateMutability": "view",
      "type": "function"
    },
    {
      "inputs": [
        {
          "internalType": "uint8",
          "name": "_electionTitleIndex",
          "type": "uint8"
        }
      ],
      "name": "getCandidatesForAssociatedElections",
      "outputs": [
        {
          "components": [
            {
              "internalType": "uint8",
              "name": "candidateId",
              "type": "uint8"
            },
            {
              "internalType": "address",
              "name": "candidateAddress",
              "type": "address"
            },
            {
              "internalType": "string",
              "name": "header",
              "type": "string"
            },
            {
              "internalType": "string",
              "name": "slogan",
              "type": "string"
            },
            {
              "internalType": "uint256",
              "name": "electionTitleIndex",
              "type": "uint256"
            },
            {
              "internalType": "uint256",
              "name": "voteCount",
              "type": "uint256"
            },
            {
              "internalType": "bool",
              "name": "isVerified",
              "type": "bool"
            },
            {
              "internalType": "bool",
              "name": "isRegistered",
              "type": "bool"
            }
          ],
          "internalType": "struct Election.Candidate[]",
          "name": "",
          "type": "tuple[]"
        }
      ],
      "stateMutability": "view",
      "type": "function"
    },
    {
      "inputs": [
        {
          "internalType": "uint256",
          "name": "_timeStamp",
          "type": "uint256"
        }
      ],
      "name": "getElectionEndedStatus",
      "outputs": [
        {
          "internalType": "bool",
          "name": "",
          "type": "bool"
        }
      ],
      "stateMutability": "view",
      "type": "function"
    },
    {
      "inputs": [],
      "name": "getElectionInitStatus",
      "outputs": [
        {
          "internalType": "bool",
          "name": "",
          "type": "bool"
        }
      ],
      "stateMutability": "view",
      "type": "function"
    },
    {
      "inputs": [],
      "name": "getElectionSlogans",
      "outputs": [
        {
          "internalType": "string[]",
          "name": "",
          "type": "string[]"
        }
      ],
      "stateMutability": "view",
      "type": "function"
    },
    {
      "inputs": [
        {
          "internalType": "uint256",
          "name": "_timeStamp",
          "type": "uint256"
        }
      ],
      "name": "getElectionStatus",
      "outputs": [
        {
          "internalType": "bool",
          "name": "",
          "type": "bool"
        }
      ],
      "stateMutability": "view",
      "type": "function"
    },
    {
      "inputs": [],
      "name": "getElectionTitles",
      "outputs": [
        {
          "internalType": "string[]",
          "name": "",
          "type": "string[]"
        }
      ],
      "stateMutability": "view",
      "type": "function"
    },
    {
      "inputs": [],
      "name": "getOrganizationTitle",
      "outputs": [
        {
          "internalType": "string",
          "name": "",
          "type": "string"
        }
      ],
      "stateMutability": "view",
      "type": "function"
    },
    {
      "inputs": [],
      "name": "getRegistrationEndTime",
      "outputs": [
        {
          "internalType": "uint256",
          "name": "",
          "type": "uint256"
        }
      ],
      "stateMutability": "view",
      "type": "function"
    },
    {
      "inputs": [
        {
          "internalType": "uint256",
          "name": "_timeStamp",
          "type": "uint256"
        }
      ],
      "name": "getRegistrationEndedStatus",
      "outputs": [
        {
          "internalType": "bool",
          "name": "",
          "type": "bool"
        }
      ],
      "stateMutability": "view",
      "type": "function"
    },
    {
      "inputs": [],
      "name": "getRegistrationStartTime",
      "outputs": [
        {
          "internalType": "uint256",
          "name": "",
          "type": "uint256"
        }
      ],
      "stateMutability": "view",
      "type": "function"
    },
    {
      "inputs": [
        {
          "internalType": "uint256",
          "name": "_timeStamp",
          "type": "uint256"
        }
      ],
      "name": "getRegistrationStartedStatus",
      "outputs": [
        {
          "internalType": "bool",
          "name": "",
          "type": "bool"
        }
      ],
      "stateMutability": "view",
      "type": "function"
    },
    {
      "inputs": [
        {
          "internalType": "uint256",
          "name": "_timeStamp",
          "type": "uint256"
        }
      ],
      "name": "getRegistrationStatus",
      "outputs": [
        {
          "internalType": "bool",
          "name": "",
          "type": "bool"
        }
      ],
      "stateMutability": "view",
      "type": "function"
    },
    {
      "inputs": [],
      "name": "getUnVerifiedCandidates",
      "outputs": [
        {
          "internalType": "uint256",
          "name": "",
          "type": "uint256"
        }
      ],
      "stateMutability": "view",
      "type": "function"
    },
    {
      "inputs": [],
      "name": "getUnVerifiedVoters",
      "outputs": [
        {
          "internalType": "uint256",
          "name": "",
          "type": "uint256"
        }
      ],
      "stateMutability": "view",
      "type": "function"
    },
    {
      "inputs": [],
      "name": "getVerifiedCandidates",
      "outputs": [
        {
          "internalType": "uint256",
          "name": "",
          "type": "uint256"
        }
      ],
      "stateMutability": "view",
      "type": "function"
    },
    {
      "inputs": [],
      "name": "getVerifiedVoters",
      "outputs": [
        {
          "internalType": "uint256",
          "name": "",
          "type": "uint256"
        }
      ],
      "stateMutability": "view",
      "type": "function"
    },
    {
      "inputs": [],
      "name": "getVoterElectionTitles",
      "outputs": [
        {
          "internalType": "uint8[]",
          "name": "",
          "type": "uint8[]"
        }
      ],
      "stateMutability": "view",
      "type": "function"
    },
    {
      "inputs": [
        {
          "internalType": "address",
          "name": "_currentAddress",
          "type": "address"
        }
      ],
      "name": "getVoterStatusForCandidate",
      "outputs": [
        {
          "internalType": "bool",
          "name": "",
          "type": "bool"
        }
      ],
      "stateMutability": "view",
      "type": "function"
    },
    {
      "inputs": [],
      "name": "getVotingEndTime",
      "outputs": [
        {
          "internalType": "uint256",
          "name": "",
          "type": "uint256"
        }
      ],
      "stateMutability": "view",
      "type": "function"
    },
    {
      "inputs": [],
      "name": "getVotingStartTime",
      "outputs": [
        {
          "internalType": "uint256",
          "name": "",
          "type": "uint256"
        }
      ],
      "stateMutability": "view",
      "type": "function"
    },
    {
      "inputs": [
        {
          "internalType": "uint256",
          "name": "_electionTitleIndex",
          "type": "uint256"
        }
      ],
      "name": "getWinnerCandidate",
      "outputs": [
        {
          "internalType": "address",
          "name": "",
          "type": "address"
        }
      ],
      "stateMutability": "view",
      "type": "function"
    },
    {
      "inputs": [
        {
          "internalType": "uint8[]",
          "name": "electionTitleList",
          "type": "uint8[]"
        },
        {
          "internalType": "uint8",
          "name": "item",
          "type": "uint8"
        }
      ],
      "name": "iselectionTitleIndexInList",
      "outputs": [
        {
          "internalType": "bool",
          "name": "",
          "type": "bool"
        }
      ],
      "stateMutability": "pure",
      "type": "function"
    },
    {
      "inputs": [
        {
          "internalType": "string",
          "name": "_header",
          "type": "string"
        },
        {
          "internalType": "string",
          "name": "_slogan",
          "type": "string"
        },
        {
          "internalType": "uint256",
          "name": "_electionTitleIndex",
          "type": "uint256"
        }
      ],
      "name": "registerAsCandidate",
      "outputs": [],
      "stateMutability": "nonpayable",
      "type": "function"
    },
    {
      "inputs": [
        {
          "internalType": "string",
          "name": "_name",
          "type": "string"
        },
        {
          "internalType": "string",
          "name": "_phone",
          "type": "string"
        }
      ],
      "name": "registerAsVoter",
      "outputs": [],
      "stateMutability": "nonpayable",
      "type": "function"
    },
    {
      "inputs": [
        {
          "internalType": "string",
          "name": "_adminName",
          "type": "string"
        },
        {
          "internalType": "string",
          "name": "_adminEmail",
          "type": "string"
        },
        {
          "internalType": "string",
          "name": "_adminTitle",
          "type": "string"
        },
        {
          "internalType": "string",
          "name": "_organizationTitle",
          "type": "string"
        },
        {
          "internalType": "uint256",
          "name": "_votingStartTime",
          "type": "uint256"
        },
        {
          "internalType": "uint256",
          "name": "_votingEndTime",
          "type": "uint256"
        },
        {
          "internalType": "uint256",
          "name": "_registrationStartTime",
          "type": "uint256"
        },
        {
          "internalType": "uint256",
          "name": "_registrationEndTime",
          "type": "uint256"
        },
        {
          "internalType": "string[]",
          "name": "_elections",
          "type": "string[]"
        },
        {
          "internalType": "string[]",
          "name": "_slogans",
          "type": "string[]"
        }
      ],
      "name": "setElectionDetails",
      "outputs": [],
      "stateMutability": "nonpayable",
      "type": "function"
    },
    {
      "inputs": [
        {
          "internalType": "bool",
          "name": "_verifedStatus",
          "type": "bool"
        },
        {
          "internalType": "address",
          "name": "candidateAddress",
          "type": "address"
        }
      ],
      "name": "verifyCandidate",
      "outputs": [],
      "stateMutability": "nonpayable",
      "type": "function"
    },
    {
      "inputs": [
        {
          "internalType": "bool",
          "name": "_verifedStatus",
          "type": "bool"
        },
        {
          "internalType": "address",
          "name": "voterAddress",
          "type": "address"
        }
      ],
      "name": "verifyVoter",
      "outputs": [],
      "stateMutability": "nonpayable",
      "type": "function"
    },
    {
      "inputs": [
        {
          "internalType": "address",
          "name": "_candidateAddress",
          "type": "address"
        },
        {
          "internalType": "uint8",
          "name": "_electionTitleIndex",
          "type": "uint8"
        }
      ],
      "name": "vote",
      "outputs": [],
      "stateMutability": "nonpayable",
      "type": "function"
    },
    {
      "inputs": [
        {
          "internalType": "address",
          "name": "",
          "type": "address"
        }
      ],
      "name": "voterDetails",
      "outputs": [
        {
          "internalType": "address",
          "name": "voterAddress",
          "type": "address"
        },
        {
          "internalType": "string",
          "name": "name",
          "type": "string"
        },
        {
          "internalType": "string",
          "name": "phone",
          "type": "string"
        },
        {
          "internalType": "bool",
          "name": "isVerified",
          "type": "bool"
        },
        {
          "internalType": "bool",
          "name": "hasVoted",
          "type": "bool"
        },
        {
          "internalType": "bool",
          "name": "isRegistered",
          "type": "bool"
        }
      ],
      "stateMutability": "view",
      "type": "function"
    },
    {
      "inputs": [
        {
          "internalType": "uint256",
          "name": "",
          "type": "uint256"
        }
      ],
      "name": "voters",
      "outputs": [
        {
          "internalType": "address",
          "name": "",
          "type": "address"
        }
      ],
      "stateMutability": "view",
      "type": "function"
    }
  ],
  "bytecode": "0x608060405234801561001057600080fd5b5033600060016101000a81548173ffffffffffffffffffffffffffffffffffffffff021916908373ffffffffffffffffffffffffffffffffffffffff16021790555060008060156101000a81548160ff021916908360ff16021790555060008060006101000a81548160ff0219169083151502179055506000600781905550600060088190555060006009819055506000600a81905550613ed8806100b66000396000f3fe608060405234801561001057600080fd5b50600436106102535760003560e01c80638709b71b11610146578063d0980f20116100c3578063dd698f9011610087578063dd698f9014610794578063df1c84ef146107b2578063df6d2784146107d0578063f33a8a73146107ee578063f851a4401461081e578063fee0d19a1461083c57610253565b8063d0980f20146106b6578063d2fdf16f146106e6578063d4ecadb814610716578063da58c7d914610746578063dc973d501461077657610253565b8063be081b6f1161010a578063be081b6f14610610578063c041da311461062e578063c784d2131461064c578063cad43b481461066a578063cfe0c7fc1461068657610253565b80638709b71b1461056c578063aed9301014610588578063b1bf87b0146105b8578063b54e629a146105d6578063bceb514d146105f457610253565b80634c652fc6116101d45780636a82ee51116101985780636a82ee51146104c45780636e9960c3146104e2578063739a95f8146105005780637d6605351461051e578063831318f11461054e57610253565b80634c652fc6146103f7578063506b8e0a146104135780635938750d1461042f5780635fcdd8a11461046457806364ca69381461049457610253565b80633477ee2e1161021b5780633477ee2e1461032b578063399f694d1461035b5780633f66f48b1461038b57806347eaa1d9146103bb57806348343175146103d957610253565b806305e73ced146102585780630712aa051461028f5780630e2354cf146102ad57806319c5c507146102cb57806324785b9e146102fb575b600080fd5b610272600480360381019061026d9190612cfb565b610858565b604051610286989796959493929190612e20565b60405180910390f35b6102976109f7565b6040516102a49190612fb8565b60405180910390f35b6102b5610b49565b6040516102c29190612fda565b60405180910390f35b6102e560048036038101906102e09190613028565b610bde565b6040516102f29190613055565b60405180910390f35b61031560048036038101906103109190613028565b610c11565b6040516103229190613055565b60405180910390f35b61034560048036038101906103409190613028565b610c44565b6040516103529190613070565b60405180910390f35b610375600480360381019061037091906130b7565b610c83565b60405161038291906130e4565b60405180910390f35b6103a560048036038101906103a09190613028565b610d51565b6040516103b29190613070565b60405180910390f35b6103c3610d90565b6040516103d091906130ff565b60405180910390f35b6103e1610d9d565b6040516103ee9190612fda565b60405180910390f35b610411600480360381019061040c919061324f565b610e32565b005b61042d60048036038101906104289190613306565b611102565b005b61044960048036038101906104449190612cfb565b61121d565b60405161045b96959493929190613346565b60405180910390f35b61047e60048036038101906104799190612cfb565b6113b0565b60405161048b9190613055565b60405180910390f35b6104ae60048036038101906104a9919061347d565b61145f565b6040516104bb9190613055565b60405180910390f35b6104cc6114c1565b6040516104d991906130ff565b60405180910390f35b6104ea6114cb565b6040516104f79190613070565b60405180910390f35b6105086114f4565b60405161051591906130ff565b60405180910390f35b61053860048036038101906105339190612cfb565b611501565b6040516105459190613055565b60405180910390f35b6105566115b0565b6040516105639190612fda565b60405180910390f35b610586600480360381019061058191906135ba565b611645565b005b6105a2600480360381019061059d9190613028565b611964565b6040516105af9190613070565b60405180910390f35b6105c06119a3565b6040516105cd91906130ff565b60405180910390f35b6105de6119ad565b6040516105eb91906130ff565b60405180910390f35b61060e60048036038101906106099190613741565b6119ba565b005b610618611ce8565b6040516106259190612fda565b60405180910390f35b610636611d7d565b6040516106439190612fb8565b60405180910390f35b610654611ed8565b60405161066191906130ff565b60405180910390f35b610684600480360381019061067f9190613306565b611ee2565b005b6106a0600480360381019061069b91906130b7565b611ffd565b6040516106ad9190613936565b60405180910390f35b6106d060048036038101906106cb9190613028565b612467565b6040516106dd9190613055565b60405180910390f35b61070060048036038101906106fb9190613028565b612495565b60405161070d9190613055565b60405180910390f35b610730600480360381019061072b9190613028565b6124b3565b60405161073d9190613055565b60405180910390f35b610760600480360381019061075b9190613028565b6124e5565b60405161076d9190613070565b60405180910390f35b61077e612524565b60405161078b91906130ff565b60405180910390f35b61079c612531565b6040516107a99190613055565b60405180910390f35b6107ba612547565b6040516107c79190613a07565b60405180910390f35b6107d861260b565b6040516107e591906130ff565b60405180910390f35b61080860048036038101906108039190613028565b612615565b6040516108159190613070565b60405180910390f35b6108266127ab565b6040516108339190613070565b60405180910390f35b61085660048036038101906108519190613a29565b6127d1565b005b60066020528060005260406000206000915090508060000160009054906101000a900460ff16908060000160019054906101000a900473ffffffffffffffffffffffffffffffffffffffff16908060010180546108b490613ad0565b80601f01602080910402602001604051908101604052809291908181526020018280546108e090613ad0565b801561092d5780601f106109025761010080835404028352916020019161092d565b820191906000526020600020905b81548152906001019060200180831161091057829003601f168201915b50505050509080600201805461094290613ad0565b80601f016020809104026020016040519081016040528092919081815260200182805461096e90613ad0565b80156109bb5780601f10610990576101008083540402835291602001916109bb565b820191906000526020600020905b81548152906001019060200180831161099e57829003601f168201915b5050505050908060030154908060040154908060050160009054906101000a900460ff16908060050160019054906101000a900460ff16905088565b60606000600b6008018054905067ffffffffffffffff811115610a1d57610a1c613124565b5b604051908082528060200260200182016040528015610a5057816020015b6060815260200190600190039081610a3b5790505b50905060005b600b60080180549050811015610b4157600b6008018181548110610a7d57610a7c613b02565b5b906000526020600020018054610a9290613ad0565b80601f0160208091040260200160405190810160405280929190818152602001828054610abe90613ad0565b8015610b0b5780601f10610ae057610100808354040283529160200191610b0b565b820191906000526020600020905b815481529060010190602001808311610aee57829003601f168201915b5050505050828281518110610b2357610b22613b02565b5b60200260200101819052508080610b3990613b60565b915050610a56565b508091505090565b6060600b6000018054610b5b90613ad0565b80601f0160208091040260200160405190810160405280929190818152602001828054610b8790613ad0565b8015610bd45780601f10610ba957610100808354040283529160200191610bd4565b820191906000526020600020905b815481529060010190602001808311610bb757829003601f168201915b5050505050905090565b6000806007548310158015610bf557506008548311155b15610c035760019050610c08565b600090505b80915050919050565b6000806009548310158015610c285750600a548311155b15610c365760019050610c3b565b600090505b80915050919050565b60028181548110610c5457600080fd5b906000526020600020016000915054906101000a900473ffffffffffffffffffffffffffffffffffffffff1681565b6000806000905060005b600480549050811015610d47578360ff166006600060048481548110610cb657610cb5613b02565b5b9060005260206000200160009054906101000a900473ffffffffffffffffffffffffffffffffffffffff1673ffffffffffffffffffffffffffffffffffffffff1673ffffffffffffffffffffffffffffffffffffffff168152602001908152602001600020600301541415610d34578180610d3090613ba9565b9250505b8080610d3f90613b60565b915050610c8d565b5080915050919050565b60048181548110610d6157600080fd5b906000526020600020016000915054906101000a900473ffffffffffffffffffffffffffffffffffffffff1681565b6000600480549050905090565b6060600b6003018054610daf90613ad0565b80601f0160208091040260200160405190810160405280929190818152602001828054610ddb90613ad0565b8015610e285780601f10610dfd57610100808354040283529160200191610e28565b820191906000526020600020905b815481529060010190602001808311610e0b57829003601f168201915b5050505050905090565b600754421015610e77576040517f08c379a0000000000000000000000000000000000000000000000000000000008152600401610e6e90613c1f565b60405180910390fd5b600854421115610ebc576040517f08c379a0000000000000000000000000000000000000000000000000000000008152600401610eb390613c8b565b60405180910390fd5b6000604051806101000160405280600060159054906101000a900460ff1660ff1681526020013373ffffffffffffffffffffffffffffffffffffffff1681526020018581526020018481526020018381526020016000815260200160001515815260200160011515815250905080600660003373ffffffffffffffffffffffffffffffffffffffff1673ffffffffffffffffffffffffffffffffffffffff16815260200190815260200160002060008201518160000160006101000a81548160ff021916908360ff16021790555060208201518160000160016101000a81548173ffffffffffffffffffffffffffffffffffffffff021916908373ffffffffffffffffffffffffffffffffffffffff1602179055506040820151816001019080519060200190610fed929190612a19565b50606082015181600201908051906020019061100a929190612a19565b506080820151816003015560a0820151816004015560c08201518160050160006101000a81548160ff02191690831515021790555060e08201518160050160016101000a81548160ff0219169083151502179055509050506002339080600181540180825580915050600190039060005260206000200160009091909190916101000a81548173ffffffffffffffffffffffffffffffffffffffff021916908373ffffffffffffffffffffffffffffffffffffffff1602179055506001600060158282829054906101000a900460ff166110e49190613cab565b92506101000a81548160ff021916908360ff16021790555050505050565b600060019054906101000a900473ffffffffffffffffffffffffffffffffffffffff1673ffffffffffffffffffffffffffffffffffffffff163373ffffffffffffffffffffffffffffffffffffffff161461115c57600080fd5b81600560008373ffffffffffffffffffffffffffffffffffffffff1673ffffffffffffffffffffffffffffffffffffffff16815260200190815260200160002060030160006101000a81548160ff0219169083151502179055506003819080600181540180825580915050600190039060005260206000200160009091909190916101000a81548173ffffffffffffffffffffffffffffffffffffffff021916908373ffffffffffffffffffffffffffffffffffffffff1602179055505050565b60056020528060005260406000206000915090508060000160009054906101000a900473ffffffffffffffffffffffffffffffffffffffff169080600101805461126690613ad0565b80601f016020809104026020016040519081016040528092919081815260200182805461129290613ad0565b80156112df5780601f106112b4576101008083540402835291602001916112df565b820191906000526020600020905b8154815290600101906020018083116112c257829003601f168201915b5050505050908060020180546112f490613ad0565b80601f016020809104026020016040519081016040528092919081815260200182805461132090613ad0565b801561136d5780601f106113425761010080835404028352916020019161136d565b820191906000526020600020905b81548152906001019060200180831161135057829003601f168201915b5050505050908060030160009054906101000a900460ff16908060030160019054906101000a900460ff16908060030160029054906101000a900460ff16905086565b6000806000905060005b60038054905081101561145557600381815481106113db576113da613b02565b5b9060005260206000200160009054906101000a900473ffffffffffffffffffffffffffffffffffffffff1673ffffffffffffffffffffffffffffffffffffffff168473ffffffffffffffffffffffffffffffffffffffff1614156114425760019150611455565b808061144d90613b60565b9150506113ba565b5080915050919050565b600080600090505b83518110156114b5578260ff1684828151811061148757611486613b02565b5b602002602001015160ff1614156114a25760019150506114bb565b80806114ad90613b60565b915050611467565b50600090505b92915050565b6000600954905090565b60008060019054906101000a900473ffffffffffffffffffffffffffffffffffffffff16905090565b6000600180549050905090565b6000806000905060005b6002805490508110156115a6576002818154811061152c5761152b613b02565b5b9060005260206000200160009054906101000a900473ffffffffffffffffffffffffffffffffffffffff1673ffffffffffffffffffffffffffffffffffffffff168473ffffffffffffffffffffffffffffffffffffffff16141561159357600191506115a6565b808061159e90613b60565b91505061150b565b5080915050919050565b6060600b60010180546115c290613ad0565b80601f01602080910402602001604051908101604052809291908181526020018280546115ee90613ad0565b801561163b5780601f106116105761010080835404028352916020019161163b565b820191906000526020600020905b81548152906001019060200180831161161e57829003601f168201915b5050505050905090565b600060019054906101000a900473ffffffffffffffffffffffffffffffffffffffff1673ffffffffffffffffffffffffffffffffffffffff163373ffffffffffffffffffffffffffffffffffffffff161461169f57600080fd5b6000825167ffffffffffffffff8111156116bc576116bb613124565b5b6040519080825280602002602001820160405280156116ef57816020015b60608152602001906001900390816116da5790505b50905060005b835181101561174a5783818151811061171157611710613b02565b5b602002602001015182828151811061172c5761172b613b02565b5b6020026020010181905250808061174290613b60565b9150506116f5565b506000825167ffffffffffffffff81111561176857611767613124565b5b60405190808252806020026020018201604052801561179b57816020015b60608152602001906001900390816117865790505b50905060005b83518110156117f6578381815181106117bd576117bc613b02565b5b60200260200101518282815181106117d8576117d7613b02565b5b602002602001018190525080806117ee90613b60565b9150506117a1565b5060006040518061014001604052808e81526020018d81526020018c81526020018b81526020018a815260200189815260200188815260200187815260200184815260200183815250905080600b6000820151816000019080519060200190611860929190612a19565b50602082015181600101908051906020019061187d929190612a19565b50604082015181600201908051906020019061189a929190612a19565b5060608201518160030190805190602001906118b7929190612a19565b506080820151816004015560a0820151816005015560c0820151816006015560e082015181600701556101008201518160080190805190602001906118fd929190612a9f565b5061012082015181600901908051906020019061191b929190612a9f565b5090505060016000806101000a81548160ff02191690831515021790555086600781905550856008819055508860098190555087600a8190555050505050505050505050505050565b6003818154811061197457600080fd5b906000526020600020016000915054906101000a900473ffffffffffffffffffffffffffffffffffffffff1681565b6000600a54905090565b6000600380549050905090565b6009544210156119ff576040517f08c379a00000000000000000000000000000000000000000000000000000000081526004016119f690613d2e565b60405180910390fd5b600a54421115611a44576040517f08c379a0000000000000000000000000000000000000000000000000000000008152600401611a3b90613d9a565b60405180910390fd5b6000611b06600560003373ffffffffffffffffffffffffffffffffffffffff1673ffffffffffffffffffffffffffffffffffffffff168152602001908152602001600020600401805480602002602001604051908101604052809291908181526020018280548015611afb57602002820191906000526020600020906000905b82829054906101000a900460ff1660ff1681526020019060010190602082600001049283019260010382029150808411611ac45790505b50505050508361145f565b90508015611b49576040517f08c379a0000000000000000000000000000000000000000000000000000000008152600401611b4090613e2c565b60405180910390fd5b60011515600560003373ffffffffffffffffffffffffffffffffffffffff1673ffffffffffffffffffffffffffffffffffffffff16815260200190815260200160002060030160009054906101000a900460ff16151514611ba957600080fd5b6001600660008573ffffffffffffffffffffffffffffffffffffffff1673ffffffffffffffffffffffffffffffffffffffff1681526020019081526020016000206004016000828254611bfc9190613e4c565b925050819055506001600560003373ffffffffffffffffffffffffffffffffffffffff1673ffffffffffffffffffffffffffffffffffffffff16815260200190815260200160002060030160016101000a81548160ff021916908315150217905550600560003373ffffffffffffffffffffffffffffffffffffffff1673ffffffffffffffffffffffffffffffffffffffff1681526020019081526020016000206004018290806001815401808255809150506001900390600052602060002090602091828204019190069091909190916101000a81548160ff021916908360ff160217905550505050565b6060600b6002018054611cfa90613ad0565b80601f0160208091040260200160405190810160405280929190818152602001828054611d2690613ad0565b8015611d735780601f10611d4857610100808354040283529160200191611d73565b820191906000526020600020905b815481529060010190602001808311611d5657829003601f168201915b5050505050905090565b60606000600b6009018054905067ffffffffffffffff811115611da357611da2613124565b5b604051908082528060200260200182016040528015611dd657816020015b6060815260200190600190039081611dc15790505b50905060005b600b600901805490508160ff161015611ed057600b6009018160ff1681548110611e0957611e08613b02565b5b906000526020600020018054611e1e90613ad0565b80601f0160208091040260200160405190810160405280929190818152602001828054611e4a90613ad0565b8015611e975780601f10611e6c57610100808354040283529160200191611e97565b820191906000526020600020905b815481529060010190602001808311611e7a57829003601f168201915b5050505050828260ff1681518110611eb257611eb1613b02565b5b60200260200101819052508080611ec890613ba9565b915050611ddc565b508091505090565b6000600854905090565b600060019054906101000a900473ffffffffffffffffffffffffffffffffffffffff1673ffffffffffffffffffffffffffffffffffffffff163373ffffffffffffffffffffffffffffffffffffffff1614611f3c57600080fd5b81600660008373ffffffffffffffffffffffffffffffffffffffff1673ffffffffffffffffffffffffffffffffffffffff16815260200190815260200160002060050160006101000a81548160ff0219169083151502179055506004819080600181540180825580915050600190039060005260206000200160009091909190916101000a81548173ffffffffffffffffffffffffffffffffffffffff021916908373ffffffffffffffffffffffffffffffffffffffff1602179055505050565b6060600060048054905067ffffffffffffffff8111156120205761201f613124565b5b60405190808252806020026020018201604052801561205957816020015b612046612aff565b81526020019060019003908161203e5790505b5090506000805b6004805490508110156123a5578460ff16600660006004848154811061208957612088613b02565b5b9060005260206000200160009054906101000a900473ffffffffffffffffffffffffffffffffffffffff1673ffffffffffffffffffffffffffffffffffffffff1673ffffffffffffffffffffffffffffffffffffffff1681526020019081526020016000206003015414156123925760066000600483815481106121105761210f613b02565b5b9060005260206000200160009054906101000a900473ffffffffffffffffffffffffffffffffffffffff1673ffffffffffffffffffffffffffffffffffffffff1673ffffffffffffffffffffffffffffffffffffffff168152602001908152602001600020604051806101000160405290816000820160009054906101000a900460ff1660ff1660ff1681526020016000820160019054906101000a900473ffffffffffffffffffffffffffffffffffffffff1673ffffffffffffffffffffffffffffffffffffffff1673ffffffffffffffffffffffffffffffffffffffff16815260200160018201805461220490613ad0565b80601f016020809104026020016040519081016040528092919081815260200182805461223090613ad0565b801561227d5780601f106122525761010080835404028352916020019161227d565b820191906000526020600020905b81548152906001019060200180831161226057829003601f168201915b5050505050815260200160028201805461229690613ad0565b80601f01602080910402602001604051908101604052809291908181526020018280546122c290613ad0565b801561230f5780601f106122e45761010080835404028352916020019161230f565b820191906000526020600020905b8154815290600101906020018083116122f257829003601f168201915b5050505050815260200160038201548152602001600482015481526020016005820160009054906101000a900460ff161515151581526020016005820160019054906101000a900460ff161515151581525050838360ff168151811061237857612377613b02565b5b6020026020010181905250818061238e90613ba9565b9250505b808061239d90613b60565b915050612060565b5060008160ff1667ffffffffffffffff8111156123c5576123c4613124565b5b6040519080825280602002602001820160405280156123fe57816020015b6123eb612aff565b8152602001906001900390816123e35790505b50905060005b8260ff1681101561245b5783818151811061242257612421613b02565b5b602002602001015182828151811061243d5761243c613b02565b5b6020026020010181905250808061245390613b60565b915050612404565b50809350505050919050565b60008060009050600754831015801561248257506008548311155b1561248c57600190505b80915050919050565b6000806000905060085483106124aa57600190505b80915050919050565b6000806000905060008054906101000a900460ff16156124dc57600a5483106124db57600190505b5b80915050919050565b600181815481106124f557600080fd5b906000526020600020016000915054906101000a900473ffffffffffffffffffffffffffffffffffffffff1681565b6000600280549050905090565b60008060009054906101000a900460ff16905090565b60606000600560003373ffffffffffffffffffffffffffffffffffffffff1673ffffffffffffffffffffffffffffffffffffffff1681526020019081526020016000206004018054806020026020016040519081016040528092919081815260200182805480156125fd57602002820191906000526020600020906000905b82829054906101000a900460ff1660ff16815260200190600101906020826000010492830192600103820291508084116125c65790505b505050505090508091505090565b6000600754905090565b60008060009050600080600090505b6004805490508110156127a05784600660006004848154811061264a57612649613b02565b5b9060005260206000200160009054906101000a900473ffffffffffffffffffffffffffffffffffffffff1673ffffffffffffffffffffffffffffffffffffffff1673ffffffffffffffffffffffffffffffffffffffff16815260200190815260200160002060030154141561278d57600060066000600484815481106126d3576126d2613b02565b5b9060005260206000200160009054906101000a900473ffffffffffffffffffffffffffffffffffffffff1673ffffffffffffffffffffffffffffffffffffffff1673ffffffffffffffffffffffffffffffffffffffff1681526020019081526020016000206004015490508381111561278b578093506004828154811061275d5761275c613b02565b5b9060005260206000200160009054906101000a900473ffffffffffffffffffffffffffffffffffffffff1692505b505b808061279890613b60565b915050612624565b508092505050919050565b600060019054906101000a900473ffffffffffffffffffffffffffffffffffffffff1681565b60006040518060e001604052803373ffffffffffffffffffffffffffffffffffffffff168152602001848152602001838152602001600015158152602001600015158152602001600115158152602001600067ffffffffffffffff81111561283c5761283b613124565b5b60405190808252806020026020018201604052801561286a5781602001602082028036833780820191505090505b50815250905080600560003373ffffffffffffffffffffffffffffffffffffffff1673ffffffffffffffffffffffffffffffffffffffff16815260200190815260200160002060008201518160000160006101000a81548173ffffffffffffffffffffffffffffffffffffffff021916908373ffffffffffffffffffffffffffffffffffffffff1602179055506020820151816001019080519060200190612913929190612a19565b506040820151816002019080519060200190612930929190612a19565b5060608201518160030160006101000a81548160ff02191690831515021790555060808201518160030160016101000a81548160ff02191690831515021790555060a08201518160030160026101000a81548160ff02191690831515021790555060c08201518160040190805190602001906129ad929190612b61565b509050506001339080600181540180825580915050600190039060005260206000200160009091909190916101000a81548173ffffffffffffffffffffffffffffffffffffffff021916908373ffffffffffffffffffffffffffffffffffffffff160217905550505050565b828054612a2590613ad0565b90600052602060002090601f016020900481019282612a475760008555612a8e565b82601f10612a6057805160ff1916838001178555612a8e565b82800160010185558215612a8e579182015b82811115612a8d578251825591602001919060010190612a72565b5b509050612a9b9190612c08565b5090565b828054828255906000526020600020908101928215612aee579160200282015b82811115612aed578251829080519060200190612add929190612a19565b5091602001919060010190612abf565b5b509050612afb9190612c25565b5090565b604051806101000160405280600060ff168152602001600073ffffffffffffffffffffffffffffffffffffffff168152602001606081526020016060815260200160008152602001600081526020016000151581526020016000151581525090565b82805482825590600052602060002090601f01602090048101928215612bf75791602002820160005b83821115612bc857835183826101000a81548160ff021916908360ff1602179055509260200192600101602081600001049283019260010302612b8a565b8015612bf55782816101000a81549060ff0219169055600101602081600001049283019260010302612bc8565b505b509050612c049190612c08565b5090565b5b80821115612c21576000816000905550600101612c09565b5090565b5b80821115612c455760008181612c3c9190612c49565b50600101612c26565b5090565b508054612c5590613ad0565b6000825580601f10612c675750612c86565b601f016020900490600052602060002090810190612c859190612c08565b5b50565b6000604051905090565b600080fd5b600080fd5b600073ffffffffffffffffffffffffffffffffffffffff82169050919050565b6000612cc882612c9d565b9050919050565b612cd881612cbd565b8114612ce357600080fd5b50565b600081359050612cf581612ccf565b92915050565b600060208284031215612d1157612d10612c93565b5b6000612d1f84828501612ce6565b91505092915050565b600060ff82169050919050565b612d3e81612d28565b82525050565b612d4d81612cbd565b82525050565b600081519050919050565b600082825260208201905092915050565b60005b83811015612d8d578082015181840152602081019050612d72565b83811115612d9c576000848401525b50505050565b6000601f19601f8301169050919050565b6000612dbe82612d53565b612dc88185612d5e565b9350612dd8818560208601612d6f565b612de181612da2565b840191505092915050565b6000819050919050565b612dff81612dec565b82525050565b60008115159050919050565b612e1a81612e05565b82525050565b600061010082019050612e36600083018b612d35565b612e43602083018a612d44565b8181036040830152612e558189612db3565b90508181036060830152612e698188612db3565b9050612e786080830187612df6565b612e8560a0830186612df6565b612e9260c0830185612e11565b612e9f60e0830184612e11565b9998505050505050505050565b600081519050919050565b600082825260208201905092915050565b6000819050602082019050919050565b600082825260208201905092915050565b6000612ef482612d53565b612efe8185612ed8565b9350612f0e818560208601612d6f565b612f1781612da2565b840191505092915050565b6000612f2e8383612ee9565b905092915050565b6000602082019050919050565b6000612f4e82612eac565b612f588185612eb7565b935083602082028501612f6a85612ec8565b8060005b85811015612fa65784840389528151612f878582612f22565b9450612f9283612f36565b925060208a01995050600181019050612f6e565b50829750879550505050505092915050565b60006020820190508181036000830152612fd28184612f43565b905092915050565b60006020820190508181036000830152612ff48184612db3565b905092915050565b61300581612dec565b811461301057600080fd5b50565b60008135905061302281612ffc565b92915050565b60006020828403121561303e5761303d612c93565b5b600061304c84828501613013565b91505092915050565b600060208201905061306a6000830184612e11565b92915050565b60006020820190506130856000830184612d44565b92915050565b61309481612d28565b811461309f57600080fd5b50565b6000813590506130b18161308b565b92915050565b6000602082840312156130cd576130cc612c93565b5b60006130db848285016130a2565b91505092915050565b60006020820190506130f96000830184612d35565b92915050565b60006020820190506131146000830184612df6565b92915050565b600080fd5b600080fd5b7f4e487b7100000000000000000000000000000000000000000000000000000000600052604160045260246000fd5b61315c82612da2565b810181811067ffffffffffffffff8211171561317b5761317a613124565b5b80604052505050565b600061318e612c89565b905061319a8282613153565b919050565b600067ffffffffffffffff8211156131ba576131b9613124565b5b6131c382612da2565b9050602081019050919050565b82818337600083830152505050565b60006131f26131ed8461319f565b613184565b90508281526020810184848401111561320e5761320d61311f565b5b6132198482856131d0565b509392505050565b600082601f8301126132365761323561311a565b5b81356132468482602086016131df565b91505092915050565b60008060006060848603121561326857613267612c93565b5b600084013567ffffffffffffffff81111561328657613285612c98565b5b61329286828701613221565b935050602084013567ffffffffffffffff8111156132b3576132b2612c98565b5b6132bf86828701613221565b92505060406132d086828701613013565b9150509250925092565b6132e381612e05565b81146132ee57600080fd5b50565b600081359050613300816132da565b92915050565b6000806040838503121561331d5761331c612c93565b5b600061332b858286016132f1565b925050602061333c85828601612ce6565b9150509250929050565b600060c08201905061335b6000830189612d44565b818103602083015261336d8188612db3565b905081810360408301526133818187612db3565b90506133906060830186612e11565b61339d6080830185612e11565b6133aa60a0830184612e11565b979650505050505050565b600067ffffffffffffffff8211156133d0576133cf613124565b5b602082029050602081019050919050565b600080fd5b60006133f96133f4846133b5565b613184565b9050808382526020820190506020840283018581111561341c5761341b6133e1565b5b835b81811015613445578061343188826130a2565b84526020840193505060208101905061341e565b5050509392505050565b600082601f8301126134645761346361311a565b5b81356134748482602086016133e6565b91505092915050565b6000806040838503121561349457613493612c93565b5b600083013567ffffffffffffffff8111156134b2576134b1612c98565b5b6134be8582860161344f565b92505060206134cf858286016130a2565b9150509250929050565b600067ffffffffffffffff8211156134f4576134f3613124565b5b602082029050602081019050919050565b6000613518613513846134d9565b613184565b9050808382526020820190506020840283018581111561353b5761353a6133e1565b5b835b8181101561358257803567ffffffffffffffff8111156135605761355f61311a565b5b80860161356d8982613221565b8552602085019450505060208101905061353d565b5050509392505050565b600082601f8301126135a1576135a061311a565b5b81356135b1848260208601613505565b91505092915050565b6000806000806000806000806000806101408b8d0312156135de576135dd612c93565b5b60008b013567ffffffffffffffff8111156135fc576135fb612c98565b5b6136088d828e01613221565b9a505060208b013567ffffffffffffffff81111561362957613628612c98565b5b6136358d828e01613221565b99505060408b013567ffffffffffffffff81111561365657613655612c98565b5b6136628d828e01613221565b98505060608b013567ffffffffffffffff81111561368357613682612c98565b5b61368f8d828e01613221565b97505060806136a08d828e01613013565b96505060a06136b18d828e01613013565b95505060c06136c28d828e01613013565b94505060e06136d38d828e01613013565b9350506101008b013567ffffffffffffffff8111156136f5576136f4612c98565b5b6137018d828e0161358c565b9250506101208b013567ffffffffffffffff81111561372357613722612c98565b5b61372f8d828e0161358c565b9150509295989b9194979a5092959850565b6000806040838503121561375857613757612c93565b5b600061376685828601612ce6565b9250506020613777858286016130a2565b9150509250929050565b600081519050919050565b600082825260208201905092915050565b6000819050602082019050919050565b6137b681612d28565b82525050565b6137c581612cbd565b82525050565b6137d481612dec565b82525050565b6137e381612e05565b82525050565b60006101008301600083015161380260008601826137ad565b50602083015161381560208601826137bc565b506040830151848203604086015261382d8282612ee9565b915050606083015184820360608601526138478282612ee9565b915050608083015161385c60808601826137cb565b5060a083015161386f60a08601826137cb565b5060c083015161388260c08601826137da565b5060e083015161389560e08601826137da565b508091505092915050565b60006138ac83836137e9565b905092915050565b6000602082019050919050565b60006138cc82613781565b6138d6818561378c565b9350836020820285016138e88561379d565b8060005b85811015613924578484038952815161390585826138a0565b9450613910836138b4565b925060208a019950506001810190506138ec565b50829750879550505050505092915050565b6000602082019050818103600083015261395081846138c1565b905092915050565b600081519050919050565b600082825260208201905092915050565b6000819050602082019050919050565b600061399083836137ad565b60208301905092915050565b6000602082019050919050565b60006139b482613958565b6139be8185613963565b93506139c983613974565b8060005b838110156139fa5781516139e18882613984565b97506139ec8361399c565b9250506001810190506139cd565b5085935050505092915050565b60006020820190508181036000830152613a2181846139a9565b905092915050565b60008060408385031215613a4057613a3f612c93565b5b600083013567ffffffffffffffff811115613a5e57613a5d612c98565b5b613a6a85828601613221565b925050602083013567ffffffffffffffff811115613a8b57613a8a612c98565b5b613a9785828601613221565b9150509250929050565b7f4e487b7100000000000000000000000000000000000000000000000000000000600052602260045260246000fd5b60006002820490506001821680613ae857607f821691505b60208210811415613afc57613afb613aa1565b5b50919050565b7f4e487b7100000000000000000000000000000000000000000000000000000000600052603260045260246000fd5b7f4e487b7100000000000000000000000000000000000000000000000000000000600052601160045260246000fd5b6000613b6b82612dec565b91507fffffffffffffffffffffffffffffffffffffffffffffffffffffffffffffffff821415613b9e57613b9d613b31565b5b600182019050919050565b6000613bb482612d28565b915060ff821415613bc857613bc7613b31565b5b600182019050919050565b7f526567697374726174696f6e206973206e6f7420737461727465642079657400600082015250565b6000613c09601f83612d5e565b9150613c1482613bd3565b602082019050919050565b60006020820190508181036000830152613c3881613bfc565b9050919050565b7f526567697374726174696f6e20697320616c726561647920656e6465642e0000600082015250565b6000613c75601e83612d5e565b9150613c8082613c3f565b602082019050919050565b60006020820190508181036000830152613ca481613c68565b9050919050565b6000613cb682612d28565b9150613cc183612d28565b92508260ff03821115613cd757613cd6613b31565b5b828201905092915050565b7f566f74696e67206973206e6f7420737461727465642079657400000000000000600082015250565b6000613d18601983612d5e565b9150613d2382613ce2565b602082019050919050565b60006020820190508181036000830152613d4781613d0b565b9050919050565b7f566f74696e6720697320616c726561647920656e646564000000000000000000600082015250565b6000613d84601783612d5e565b9150613d8f82613d4e565b602082019050919050565b60006020820190508181036000830152613db381613d77565b9050919050565b7f416c72656164792063617374656420766f746520746f207468652073656c656360008201527f746564207469746c652e00000000000000000000000000000000000000000000602082015250565b6000613e16602a83612d5e565b9150613e2182613dba565b604082019050919050565b60006020820190508181036000830152613e4581613e09565b9050919050565b6000613e5782612dec565b9150613e6283612dec565b9250827fffffffffffffffffffffffffffffffffffffffffffffffffffffffffffffffff03821115613e9757613e96613b31565b5b82820190509291505056fea2646970667358221220346bd7dd5d23d586a4cfad57e19b647f242aec606d756c283933f49505d162ed64736f6c634300080b0033",
  "linkReferences": {},
  "deployedLinkReferences": {}
}