{
  "_format": "hh-sol-artifact-1",
  "contractName": "Election",
  "sourceName": "contracts/Election.sol",
  "abi": [
    {
      "inputs": [],
      "stateMutability": "nonpayable",
      "type": "constructor"
    },
    {
      "inputs": [],
      "name": "admin",
      "outputs": [
        {
          "internalType": "address",
          "name": "",
          "type": "address"
        }
      ],
      "stateMutability": "view",
      "type": "function"
    },
    {
      "inputs": [
        {
          "internalType": "uint256",
          "name": "",
          "type": "uint256"
        }
      ],
      "name": "approvedCandidates",
      "outputs": [
        {
          "internalType": "address",
          "name": "",
          "type": "address"
        }
      ],
      "stateMutability": "view",
      "type": "function"
    },
    {
      "inputs": [
        {
          "internalType": "uint256",
          "name": "",
          "type": "uint256"
        }
      ],
      "name": "approvedVoters",
      "outputs": [
        {
          "internalType": "address",
          "name": "",
          "type": "address"
        }
      ],
      "stateMutability": "view",
      "type": "function"
    },
    {
      "inputs": [
        {
          "internalType": "address",
          "name": "",
          "type": "address"
        }
      ],
      "name": "candidateDetails",
      "outputs": [
        {
          "internalType": "uint8",
          "name": "candidateId",
          "type": "uint8"
        },
        {
          "internalType": "address",
          "name": "candidateAddress",
          "type": "address"
        },
        {
          "internalType": "string",
          "name": "header",
          "type": "string"
        },
        {
          "internalType": "string",
          "name": "slogan",
          "type": "string"
        },
        {
          "internalType": "uint256",
          "name": "electionTitleIndex",
          "type": "uint256"
        },
        {
          "internalType": "uint256",
          "name": "voteCount",
          "type": "uint256"
        },
        {
          "internalType": "bool",
          "name": "isVerified",
          "type": "bool"
        },
        {
          "internalType": "bool",
          "name": "isRegistered",
          "type": "bool"
        }
      ],
      "stateMutability": "view",
      "type": "function"
    },
    {
      "inputs": [
        {
          "internalType": "uint256",
          "name": "",
          "type": "uint256"
        }
      ],
      "name": "candidates",
      "outputs": [
        {
          "internalType": "address",
          "name": "",
          "type": "address"
        }
      ],
      "stateMutability": "view",
      "type": "function"
    },
    {
      "inputs": [],
      "name": "getAdmin",
      "outputs": [
        {
          "internalType": "address",
          "name": "",
          "type": "address"
        }
      ],
      "stateMutability": "view",
      "type": "function"
    },
    {
      "inputs": [],
      "name": "getAdminEmail",
      "outputs": [
        {
          "internalType": "string",
          "name": "",
          "type": "string"
        }
      ],
      "stateMutability": "view",
      "type": "function"
    },
    {
      "inputs": [],
      "name": "getAdminName",
      "outputs": [
        {
          "internalType": "string",
          "name": "",
          "type": "string"
        }
      ],
      "stateMutability": "view",
      "type": "function"
    },
    {
      "inputs": [],
      "name": "getAdminTitle",
      "outputs": [
        {
          "internalType": "string",
          "name": "",
          "type": "string"
        }
      ],
      "stateMutability": "view",
      "type": "function"
    },
    {
      "inputs": [
        {
          "internalType": "address",
          "name": "_currentAddress",
          "type": "address"
        }
      ],
      "name": "getAlreadyRegisteredCandidateStatus",
      "outputs": [
        {
          "internalType": "bool",
          "name": "",
          "type": "bool"
        }
      ],
      "stateMutability": "view",
      "type": "function"
    },
    {
      "inputs": [
        {
          "internalType": "uint8",
          "name": "_electionTitleIndex",
          "type": "uint8"
        }
      ],
      "name": "getCandidateCountForAsscociatedElection",
      "outputs": [
        {
          "internalType": "uint8",
          "name": "",
          "type": "uint8"
        }
      ],
      "stateMutability": "view",
      "type": "function"
    },
    {
      "inputs": [
        {
          "internalType": "uint8",
          "name": "_electionTitleIndex",
          "type": "uint8"
        }
      ],
      "name": "getCandidatesForAssociatedElections",
      "outputs": [
        {
          "components": [
            {
              "internalType": "uint8",
              "name": "candidateId",
              "type": "uint8"
            },
            {
              "internalType": "address",
              "name": "candidateAddress",
              "type": "address"
            },
            {
              "internalType": "string",
              "name": "header",
              "type": "string"
            },
            {
              "internalType": "string",
              "name": "slogan",
              "type": "string"
            },
            {
              "internalType": "uint256",
              "name": "electionTitleIndex",
              "type": "uint256"
            },
            {
              "internalType": "uint256",
              "name": "voteCount",
              "type": "uint256"
            },
            {
              "internalType": "bool",
              "name": "isVerified",
              "type": "bool"
            },
            {
              "internalType": "bool",
              "name": "isRegistered",
              "type": "bool"
            }
          ],
          "internalType": "struct Election.Candidate[]",
          "name": "",
          "type": "tuple[]"
        }
      ],
      "stateMutability": "view",
      "type": "function"
    },
    {
      "inputs": [
        {
          "internalType": "uint256",
          "name": "_timeStamp",
          "type": "uint256"
        }
      ],
      "name": "getElectionEndedStatus",
      "outputs": [
        {
          "internalType": "bool",
          "name": "",
          "type": "bool"
        }
      ],
      "stateMutability": "view",
      "type": "function"
    },
    {
      "inputs": [],
      "name": "getElectionInitStatus",
      "outputs": [
        {
          "internalType": "bool",
          "name": "",
          "type": "bool"
        }
      ],
      "stateMutability": "view",
      "type": "function"
    },
    {
      "inputs": [
        {
          "internalType": "uint256",
          "name": "_timeStamp",
          "type": "uint256"
        }
      ],
      "name": "getElectionStatus",
      "outputs": [
        {
          "internalType": "bool",
          "name": "",
          "type": "bool"
        }
      ],
      "stateMutability": "view",
      "type": "function"
    },
    {
      "inputs": [],
      "name": "getElectionTitles",
      "outputs": [
        {
          "internalType": "string[]",
          "name": "",
          "type": "string[]"
        }
      ],
      "stateMutability": "view",
      "type": "function"
    },
    {
      "inputs": [],
      "name": "getOrganizationTitle",
      "outputs": [
        {
          "internalType": "string",
          "name": "",
          "type": "string"
        }
      ],
      "stateMutability": "view",
      "type": "function"
    },
    {
      "inputs": [],
      "name": "getRegistrationEndTime",
      "outputs": [
        {
          "internalType": "uint256",
          "name": "",
          "type": "uint256"
        }
      ],
      "stateMutability": "view",
      "type": "function"
    },
    {
      "inputs": [
        {
          "internalType": "uint256",
          "name": "_timeStamp",
          "type": "uint256"
        }
      ],
      "name": "getRegistrationEndedStatus",
      "outputs": [
        {
          "internalType": "bool",
          "name": "",
          "type": "bool"
        }
      ],
      "stateMutability": "view",
      "type": "function"
    },
    {
      "inputs": [],
      "name": "getRegistrationStartTime",
      "outputs": [
        {
          "internalType": "uint256",
          "name": "",
          "type": "uint256"
        }
      ],
      "stateMutability": "view",
      "type": "function"
    },
    {
      "inputs": [
        {
          "internalType": "uint256",
          "name": "_timeStamp",
          "type": "uint256"
        }
      ],
      "name": "getRegistrationStartedStatus",
      "outputs": [
        {
          "internalType": "bool",
          "name": "",
          "type": "bool"
        }
      ],
      "stateMutability": "view",
      "type": "function"
    },
    {
      "inputs": [
        {
          "internalType": "uint256",
          "name": "_timeStamp",
          "type": "uint256"
        }
      ],
      "name": "getRegistrationStatus",
      "outputs": [
        {
          "internalType": "bool",
          "name": "",
          "type": "bool"
        }
      ],
      "stateMutability": "view",
      "type": "function"
    },
    {
      "inputs": [],
      "name": "getUnVerifiedCandidates",
      "outputs": [
        {
          "internalType": "uint256",
          "name": "",
          "type": "uint256"
        }
      ],
      "stateMutability": "view",
      "type": "function"
    },
    {
      "inputs": [],
      "name": "getUnVerifiedVoters",
      "outputs": [
        {
          "internalType": "uint256",
          "name": "",
          "type": "uint256"
        }
      ],
      "stateMutability": "view",
      "type": "function"
    },
    {
      "inputs": [],
      "name": "getVerifiedCandidates",
      "outputs": [
        {
          "internalType": "uint256",
          "name": "",
          "type": "uint256"
        }
      ],
      "stateMutability": "view",
      "type": "function"
    },
    {
      "inputs": [],
      "name": "getVerifiedVoters",
      "outputs": [
        {
          "internalType": "uint256",
          "name": "",
          "type": "uint256"
        }
      ],
      "stateMutability": "view",
      "type": "function"
    },
    {
      "inputs": [
        {
          "internalType": "address",
          "name": "_currentAddress",
          "type": "address"
        }
      ],
      "name": "getVoterStatusForCandidate",
      "outputs": [
        {
          "internalType": "bool",
          "name": "",
          "type": "bool"
        }
      ],
      "stateMutability": "view",
      "type": "function"
    },
    {
      "inputs": [],
      "name": "getVotingEndTime",
      "outputs": [
        {
          "internalType": "uint256",
          "name": "",
          "type": "uint256"
        }
      ],
      "stateMutability": "view",
      "type": "function"
    },
    {
      "inputs": [],
      "name": "getVotingStartTime",
      "outputs": [
        {
          "internalType": "uint256",
          "name": "",
          "type": "uint256"
        }
      ],
      "stateMutability": "view",
      "type": "function"
    },
    {
      "inputs": [
        {
          "internalType": "uint256",
          "name": "_electionTitleIndex",
          "type": "uint256"
        }
      ],
      "name": "getWinnerCandidate",
      "outputs": [
        {
          "internalType": "address",
          "name": "",
          "type": "address"
        }
      ],
      "stateMutability": "view",
      "type": "function"
    },
    {
      "inputs": [
        {
          "internalType": "string",
          "name": "_header",
          "type": "string"
        },
        {
          "internalType": "string",
          "name": "_slogan",
          "type": "string"
        },
        {
          "internalType": "uint256",
          "name": "_electionTitleIndex",
          "type": "uint256"
        }
      ],
      "name": "registerAsCandidate",
      "outputs": [],
      "stateMutability": "nonpayable",
      "type": "function"
    },
    {
      "inputs": [
        {
          "internalType": "string",
          "name": "_name",
          "type": "string"
        },
        {
          "internalType": "string",
          "name": "_phone",
          "type": "string"
        }
      ],
      "name": "registerAsVoter",
      "outputs": [],
      "stateMutability": "nonpayable",
      "type": "function"
    },
    {
      "inputs": [
        {
          "internalType": "string",
          "name": "_adminName",
          "type": "string"
        },
        {
          "internalType": "string",
          "name": "_adminEmail",
          "type": "string"
        },
        {
          "internalType": "string",
          "name": "_adminTitle",
          "type": "string"
        },
        {
          "internalType": "string",
          "name": "_organizationTitle",
          "type": "string"
        },
        {
          "internalType": "uint256",
          "name": "_votingStartTime",
          "type": "uint256"
        },
        {
          "internalType": "uint256",
          "name": "_votingEndTime",
          "type": "uint256"
        },
        {
          "internalType": "uint256",
          "name": "_registrationStartTime",
          "type": "uint256"
        },
        {
          "internalType": "uint256",
          "name": "_registrationEndTime",
          "type": "uint256"
        },
        {
          "internalType": "string[]",
          "name": "_elections",
          "type": "string[]"
        }
      ],
      "name": "setElectionDetails",
      "outputs": [],
      "stateMutability": "nonpayable",
      "type": "function"
    },
    {
      "inputs": [
        {
          "internalType": "bool",
          "name": "_verifedStatus",
          "type": "bool"
        },
        {
          "internalType": "address",
          "name": "candidateAddress",
          "type": "address"
        }
      ],
      "name": "verifyCandidate",
      "outputs": [],
      "stateMutability": "nonpayable",
      "type": "function"
    },
    {
      "inputs": [
        {
          "internalType": "bool",
          "name": "_verifedStatus",
          "type": "bool"
        },
        {
          "internalType": "address",
          "name": "voterAddress",
          "type": "address"
        }
      ],
      "name": "verifyVoter",
      "outputs": [],
      "stateMutability": "nonpayable",
      "type": "function"
    },
    {
      "inputs": [
        {
          "internalType": "address",
          "name": "_candidateAddress",
          "type": "address"
        },
        {
          "internalType": "uint8",
          "name": "_electionTitleIndex",
          "type": "uint8"
        }
      ],
      "name": "vote",
      "outputs": [],
      "stateMutability": "nonpayable",
      "type": "function"
    },
    {
      "inputs": [
        {
          "internalType": "address",
          "name": "",
          "type": "address"
        }
      ],
      "name": "voterDetails",
      "outputs": [
        {
          "internalType": "address",
          "name": "voterAddress",
          "type": "address"
        },
        {
          "internalType": "string",
          "name": "name",
          "type": "string"
        },
        {
          "internalType": "string",
          "name": "phone",
          "type": "string"
        },
        {
          "internalType": "bool",
          "name": "isVerified",
          "type": "bool"
        },
        {
          "internalType": "bool",
          "name": "hasVoted",
          "type": "bool"
        },
        {
          "internalType": "bool",
          "name": "isRegistered",
          "type": "bool"
        }
      ],
      "stateMutability": "view",
      "type": "function"
    },
    {
      "inputs": [
        {
          "internalType": "uint256",
          "name": "",
          "type": "uint256"
        }
      ],
      "name": "voters",
      "outputs": [
        {
          "internalType": "address",
          "name": "",
          "type": "address"
        }
      ],
      "stateMutability": "view",
      "type": "function"
    }
  ],
  "bytecode": "0x608060405234801561001057600080fd5b5033600060016101000a81548173ffffffffffffffffffffffffffffffffffffffff021916908373ffffffffffffffffffffffffffffffffffffffff16021790555060008060156101000a81548160ff021916908360ff16021790555060008060006101000a81548160ff0219169083151502179055506000600781905550600060088190555060006009819055506000600a81905550613908806100b66000396000f3fe608060405234801561001057600080fd5b50600436106102325760003560e01c8063aed9301011610130578063d0980f20116100b8578063dd698f901161007c578063dd698f9014610725578063df6d278414610743578063f33a8a7314610761578063f851a44014610791578063fee0d19a146107af57610232565b8063d0980f2014610647578063d2fdf16f14610677578063d4ecadb8146106a7578063da58c7d9146106d7578063dc973d501461070757610232565b8063be081b6f116100ff578063be081b6f146105a3578063c3a171a2146105c1578063c784d213146105dd578063cad43b48146105fb578063cfe0c7fc1461061757610232565b8063aed930101461051b578063b1bf87b01461054b578063b54e629a14610569578063bceb514d1461058757610232565b806348343175116101be5780636a82ee51116101825780636a82ee51146104735780636e9960c314610491578063739a95f8146104af5780637d660535146104cd578063831318f1146104fd57610232565b806348343175146103b85780634c652fc6146103d6578063506b8e0a146103f25780635938750d1461040e5780635fcdd8a11461044357610232565b806324785b9e1161020557806324785b9e146102da5780633477ee2e1461030a578063399f694d1461033a5780633f66f48b1461036a57806347eaa1d91461039a57610232565b806305e73ced146102375780630712aa051461026e5780630e2354cf1461028c57806319c5c507146102aa575b600080fd5b610251600480360381019061024c919061294c565b6107cb565b604051610265989796959493929190612a71565b60405180910390f35b61027661096a565b6040516102839190612c09565b60405180910390f35b610294610abc565b6040516102a19190612c2b565b60405180910390f35b6102c460048036038101906102bf9190612c79565b610b51565b6040516102d19190612ca6565b60405180910390f35b6102f460048036038101906102ef9190612c79565b610b84565b6040516103019190612ca6565b60405180910390f35b610324600480360381019061031f9190612c79565b610bb7565b6040516103319190612cc1565b60405180910390f35b610354600480360381019061034f9190612d08565b610bf6565b6040516103619190612d35565b60405180910390f35b610384600480360381019061037f9190612c79565b610cc4565b6040516103919190612cc1565b60405180910390f35b6103a2610d03565b6040516103af9190612d50565b60405180910390f35b6103c0610d10565b6040516103cd9190612c2b565b60405180910390f35b6103f060048036038101906103eb9190612ea0565b610da5565b005b61040c60048036038101906104079190612f57565b611075565b005b6104286004803603810190610423919061294c565b611190565b60405161043a96959493929190612f97565b60405180910390f35b61045d6004803603810190610458919061294c565b611323565b60405161046a9190612ca6565b60405180910390f35b61047b6113d2565b6040516104889190612d50565b60405180910390f35b6104996113dc565b6040516104a69190612cc1565b60405180910390f35b6104b7611405565b6040516104c49190612d50565b60405180910390f35b6104e760048036038101906104e2919061294c565b611412565b6040516104f49190612ca6565b60405180910390f35b6105056114c1565b6040516105129190612c2b565b60405180910390f35b61053560048036038101906105309190612c79565b611556565b6040516105429190612cc1565b60405180910390f35b610553611595565b6040516105609190612d50565b60405180910390f35b61057161159f565b60405161057e9190612d50565b60405180910390f35b6105a1600480360381019061059c9190613006565b6115ac565b005b6105ab61190b565b6040516105b89190612c2b565b60405180910390f35b6105db60048036038101906105d6919061312c565b6119a0565b005b6105e5611bed565b6040516105f29190612d50565b60405180910390f35b61061560048036038101906106109190612f57565b611bf7565b005b610631600480360381019061062c9190612d08565b611d12565b60405161063e9190613437565b60405180910390f35b610661600480360381019061065c9190612c79565b61217c565b60405161066e9190612ca6565b60405180910390f35b610691600480360381019061068c9190612c79565b6121aa565b60405161069e9190612ca6565b60405180910390f35b6106c160048036038101906106bc9190612c79565b6121c8565b6040516106ce9190612ca6565b60405180910390f35b6106f160048036038101906106ec9190612c79565b6121fa565b6040516106fe9190612cc1565b60405180910390f35b61070f612239565b60405161071c9190612d50565b60405180910390f35b61072d612246565b60405161073a9190612ca6565b60405180910390f35b61074b61225c565b6040516107589190612d50565b60405180910390f35b61077b60048036038101906107769190612c79565b612266565b6040516107889190612cc1565b60405180910390f35b6107996123fc565b6040516107a69190612cc1565b60405180910390f35b6107c960048036038101906107c49190613459565b612422565b005b60066020528060005260406000206000915090508060000160009054906101000a900460ff16908060000160019054906101000a900473ffffffffffffffffffffffffffffffffffffffff169080600101805461082790613500565b80601f016020809104026020016040519081016040528092919081815260200182805461085390613500565b80156108a05780601f10610875576101008083540402835291602001916108a0565b820191906000526020600020905b81548152906001019060200180831161088357829003601f168201915b5050505050908060020180546108b590613500565b80601f01602080910402602001604051908101604052809291908181526020018280546108e190613500565b801561092e5780601f106109035761010080835404028352916020019161092e565b820191906000526020600020905b81548152906001019060200180831161091157829003601f168201915b5050505050908060030154908060040154908060050160009054906101000a900460ff16908060050160019054906101000a900460ff16905088565b60606000600b6008018054905067ffffffffffffffff8111156109905761098f612d75565b5b6040519080825280602002602001820160405280156109c357816020015b60608152602001906001900390816109ae5790505b50905060005b600b60080180549050811015610ab457600b60080181815481106109f0576109ef613532565b5b906000526020600020018054610a0590613500565b80601f0160208091040260200160405190810160405280929190818152602001828054610a3190613500565b8015610a7e5780601f10610a5357610100808354040283529160200191610a7e565b820191906000526020600020905b815481529060010190602001808311610a6157829003601f168201915b5050505050828281518110610a9657610a95613532565b5b60200260200101819052508080610aac90613590565b9150506109c9565b508091505090565b6060600b6000018054610ace90613500565b80601f0160208091040260200160405190810160405280929190818152602001828054610afa90613500565b8015610b475780601f10610b1c57610100808354040283529160200191610b47565b820191906000526020600020905b815481529060010190602001808311610b2a57829003601f168201915b5050505050905090565b6000806007548310158015610b6857506008548311155b15610b765760019050610b7b565b600090505b80915050919050565b6000806009548310158015610b9b5750600a548311155b15610ba95760019050610bae565b600090505b80915050919050565b60028181548110610bc757600080fd5b906000526020600020016000915054906101000a900473ffffffffffffffffffffffffffffffffffffffff1681565b6000806000905060005b600480549050811015610cba578360ff166006600060048481548110610c2957610c28613532565b5b9060005260206000200160009054906101000a900473ffffffffffffffffffffffffffffffffffffffff1673ffffffffffffffffffffffffffffffffffffffff1673ffffffffffffffffffffffffffffffffffffffff168152602001908152602001600020600301541415610ca7578180610ca3906135d9565b9250505b8080610cb290613590565b915050610c00565b5080915050919050565b60048181548110610cd457600080fd5b906000526020600020016000915054906101000a900473ffffffffffffffffffffffffffffffffffffffff1681565b6000600480549050905090565b6060600b6003018054610d2290613500565b80601f0160208091040260200160405190810160405280929190818152602001828054610d4e90613500565b8015610d9b5780601f10610d7057610100808354040283529160200191610d9b565b820191906000526020600020905b815481529060010190602001808311610d7e57829003601f168201915b5050505050905090565b600754421015610dea576040517f08c379a0000000000000000000000000000000000000000000000000000000008152600401610de19061364f565b60405180910390fd5b600854421115610e2f576040517f08c379a0000000000000000000000000000000000000000000000000000000008152600401610e26906136bb565b60405180910390fd5b6000604051806101000160405280600060159054906101000a900460ff1660ff1681526020013373ffffffffffffffffffffffffffffffffffffffff1681526020018581526020018481526020018381526020016000815260200160001515815260200160011515815250905080600660003373ffffffffffffffffffffffffffffffffffffffff1673ffffffffffffffffffffffffffffffffffffffff16815260200190815260200160002060008201518160000160006101000a81548160ff021916908360ff16021790555060208201518160000160016101000a81548173ffffffffffffffffffffffffffffffffffffffff021916908373ffffffffffffffffffffffffffffffffffffffff1602179055506040820151816001019080519060200190610f6092919061266a565b506060820151816002019080519060200190610f7d92919061266a565b506080820151816003015560a0820151816004015560c08201518160050160006101000a81548160ff02191690831515021790555060e08201518160050160016101000a81548160ff0219169083151502179055509050506002339080600181540180825580915050600190039060005260206000200160009091909190916101000a81548173ffffffffffffffffffffffffffffffffffffffff021916908373ffffffffffffffffffffffffffffffffffffffff1602179055506001600060158282829054906101000a900460ff1661105791906136db565b92506101000a81548160ff021916908360ff16021790555050505050565b600060019054906101000a900473ffffffffffffffffffffffffffffffffffffffff1673ffffffffffffffffffffffffffffffffffffffff163373ffffffffffffffffffffffffffffffffffffffff16146110cf57600080fd5b81600560008373ffffffffffffffffffffffffffffffffffffffff1673ffffffffffffffffffffffffffffffffffffffff16815260200190815260200160002060030160006101000a81548160ff0219169083151502179055506003819080600181540180825580915050600190039060005260206000200160009091909190916101000a81548173ffffffffffffffffffffffffffffffffffffffff021916908373ffffffffffffffffffffffffffffffffffffffff1602179055505050565b60056020528060005260406000206000915090508060000160009054906101000a900473ffffffffffffffffffffffffffffffffffffffff16908060010180546111d990613500565b80601f016020809104026020016040519081016040528092919081815260200182805461120590613500565b80156112525780601f1061122757610100808354040283529160200191611252565b820191906000526020600020905b81548152906001019060200180831161123557829003601f168201915b50505050509080600201805461126790613500565b80601f016020809104026020016040519081016040528092919081815260200182805461129390613500565b80156112e05780601f106112b5576101008083540402835291602001916112e0565b820191906000526020600020905b8154815290600101906020018083116112c357829003601f168201915b5050505050908060030160009054906101000a900460ff16908060030160019054906101000a900460ff16908060030160029054906101000a900460ff16905086565b6000806000905060005b6003805490508110156113c8576003818154811061134e5761134d613532565b5b9060005260206000200160009054906101000a900473ffffffffffffffffffffffffffffffffffffffff1673ffffffffffffffffffffffffffffffffffffffff168473ffffffffffffffffffffffffffffffffffffffff1614156113b557600191506113c8565b80806113c090613590565b91505061132d565b5080915050919050565b6000600954905090565b60008060019054906101000a900473ffffffffffffffffffffffffffffffffffffffff16905090565b6000600180549050905090565b6000806000905060005b6002805490508110156114b7576002818154811061143d5761143c613532565b5b9060005260206000200160009054906101000a900473ffffffffffffffffffffffffffffffffffffffff1673ffffffffffffffffffffffffffffffffffffffff168473ffffffffffffffffffffffffffffffffffffffff1614156114a457600191506114b7565b80806114af90613590565b91505061141c565b5080915050919050565b6060600b60010180546114d390613500565b80601f01602080910402602001604051908101604052809291908181526020018280546114ff90613500565b801561154c5780601f106115215761010080835404028352916020019161154c565b820191906000526020600020905b81548152906001019060200180831161152f57829003601f168201915b5050505050905090565b6003818154811061156657600080fd5b906000526020600020016000915054906101000a900473ffffffffffffffffffffffffffffffffffffffff1681565b6000600a54905090565b6000600380549050905090565b6009544210156115f1576040517f08c379a00000000000000000000000000000000000000000000000000000000081526004016115e89061375e565b60405180910390fd5b600a54421115611636576040517f08c379a000000000000000000000000000000000000000000000000000000000815260040161162d906137ca565b60405180910390fd5b6000805b600560003373ffffffffffffffffffffffffffffffffffffffff1673ffffffffffffffffffffffffffffffffffffffff16815260200190815260200160002060040180549050811015611724578260ff16600560003373ffffffffffffffffffffffffffffffffffffffff1673ffffffffffffffffffffffffffffffffffffffff16815260200190815260200160002060040182815481106116df576116de613532565b5b90600052602060002090602091828204019190069054906101000a900460ff1660ff1614156117115760019150611724565b808061171c90613590565b91505061163a565b50600015158115151461176c576040517f08c379a00000000000000000000000000000000000000000000000000000000081526004016117639061385c565b60405180910390fd5b60011515600560003373ffffffffffffffffffffffffffffffffffffffff1673ffffffffffffffffffffffffffffffffffffffff16815260200190815260200160002060030160009054906101000a900460ff161515146117cc57600080fd5b6001600660008573ffffffffffffffffffffffffffffffffffffffff1673ffffffffffffffffffffffffffffffffffffffff168152602001908152602001600020600401600082825461181f919061387c565b925050819055506001600560003373ffffffffffffffffffffffffffffffffffffffff1673ffffffffffffffffffffffffffffffffffffffff16815260200190815260200160002060030160016101000a81548160ff021916908315150217905550600560003373ffffffffffffffffffffffffffffffffffffffff1673ffffffffffffffffffffffffffffffffffffffff1681526020019081526020016000206004018290806001815401808255809150506001900390600052602060002090602091828204019190069091909190916101000a81548160ff021916908360ff160217905550505050565b6060600b600201805461191d90613500565b80601f016020809104026020016040519081016040528092919081815260200182805461194990613500565b80156119965780601f1061196b57610100808354040283529160200191611996565b820191906000526020600020905b81548152906001019060200180831161197957829003601f168201915b5050505050905090565b600060019054906101000a900473ffffffffffffffffffffffffffffffffffffffff1673ffffffffffffffffffffffffffffffffffffffff163373ffffffffffffffffffffffffffffffffffffffff16146119fa57600080fd5b6000815167ffffffffffffffff811115611a1757611a16612d75565b5b604051908082528060200260200182016040528015611a4a57816020015b6060815260200190600190039081611a355790505b50905060005b8251811015611aa557828181518110611a6c57611a6b613532565b5b6020026020010151828281518110611a8757611a86613532565b5b60200260200101819052508080611a9d90613590565b915050611a50565b5060006040518061012001604052808c81526020018b81526020018a815260200189815260200188815260200187815260200186815260200185815260200183815250905080600b6000820151816000019080519060200190611b0992919061266a565b506020820151816001019080519060200190611b2692919061266a565b506040820151816002019080519060200190611b4392919061266a565b506060820151816003019080519060200190611b6092919061266a565b506080820151816004015560a0820151816005015560c0820151816006015560e08201518160070155610100820151816008019080519060200190611ba69291906126f0565b5090505060016000806101000a81548160ff02191690831515021790555084600781905550836008819055508660098190555085600a819055505050505050505050505050565b6000600854905090565b600060019054906101000a900473ffffffffffffffffffffffffffffffffffffffff1673ffffffffffffffffffffffffffffffffffffffff163373ffffffffffffffffffffffffffffffffffffffff1614611c5157600080fd5b81600660008373ffffffffffffffffffffffffffffffffffffffff1673ffffffffffffffffffffffffffffffffffffffff16815260200190815260200160002060050160006101000a81548160ff0219169083151502179055506004819080600181540180825580915050600190039060005260206000200160009091909190916101000a81548173ffffffffffffffffffffffffffffffffffffffff021916908373ffffffffffffffffffffffffffffffffffffffff1602179055505050565b6060600060048054905067ffffffffffffffff811115611d3557611d34612d75565b5b604051908082528060200260200182016040528015611d6e57816020015b611d5b612750565b815260200190600190039081611d535790505b5090506000805b6004805490508110156120ba578460ff166006600060048481548110611d9e57611d9d613532565b5b9060005260206000200160009054906101000a900473ffffffffffffffffffffffffffffffffffffffff1673ffffffffffffffffffffffffffffffffffffffff1673ffffffffffffffffffffffffffffffffffffffff1681526020019081526020016000206003015414156120a7576006600060048381548110611e2557611e24613532565b5b9060005260206000200160009054906101000a900473ffffffffffffffffffffffffffffffffffffffff1673ffffffffffffffffffffffffffffffffffffffff1673ffffffffffffffffffffffffffffffffffffffff168152602001908152602001600020604051806101000160405290816000820160009054906101000a900460ff1660ff1660ff1681526020016000820160019054906101000a900473ffffffffffffffffffffffffffffffffffffffff1673ffffffffffffffffffffffffffffffffffffffff1673ffffffffffffffffffffffffffffffffffffffff168152602001600182018054611f1990613500565b80601f0160208091040260200160405190810160405280929190818152602001828054611f4590613500565b8015611f925780601f10611f6757610100808354040283529160200191611f92565b820191906000526020600020905b815481529060010190602001808311611f7557829003601f168201915b50505050508152602001600282018054611fab90613500565b80601f0160208091040260200160405190810160405280929190818152602001828054611fd790613500565b80156120245780601f10611ff957610100808354040283529160200191612024565b820191906000526020600020905b81548152906001019060200180831161200757829003601f168201915b5050505050815260200160038201548152602001600482015481526020016005820160009054906101000a900460ff161515151581526020016005820160019054906101000a900460ff161515151581525050838360ff168151811061208d5761208c613532565b5b602002602001018190525081806120a3906135d9565b9250505b80806120b290613590565b915050611d75565b5060008160ff1667ffffffffffffffff8111156120da576120d9612d75565b5b60405190808252806020026020018201604052801561211357816020015b612100612750565b8152602001906001900390816120f85790505b50905060005b8260ff168110156121705783818151811061213757612136613532565b5b602002602001015182828151811061215257612151613532565b5b6020026020010181905250808061216890613590565b915050612119565b50809350505050919050565b60008060009050600754831015801561219757506008548311155b156121a157600190505b80915050919050565b6000806000905060085483106121bf57600190505b80915050919050565b6000806000905060008054906101000a900460ff16156121f157600a5483106121f057600190505b5b80915050919050565b6001818154811061220a57600080fd5b906000526020600020016000915054906101000a900473ffffffffffffffffffffffffffffffffffffffff1681565b6000600280549050905090565b60008060009054906101000a900460ff16905090565b6000600754905090565b60008060009050600080600090505b6004805490508110156123f15784600660006004848154811061229b5761229a613532565b5b9060005260206000200160009054906101000a900473ffffffffffffffffffffffffffffffffffffffff1673ffffffffffffffffffffffffffffffffffffffff1673ffffffffffffffffffffffffffffffffffffffff1681526020019081526020016000206003015414156123de576000600660006004848154811061232457612323613532565b5b9060005260206000200160009054906101000a900473ffffffffffffffffffffffffffffffffffffffff1673ffffffffffffffffffffffffffffffffffffffff1673ffffffffffffffffffffffffffffffffffffffff168152602001908152602001600020600401549050838111156123dc57809350600482815481106123ae576123ad613532565b5b9060005260206000200160009054906101000a900473ffffffffffffffffffffffffffffffffffffffff1692505b505b80806123e990613590565b915050612275565b508092505050919050565b600060019054906101000a900473ffffffffffffffffffffffffffffffffffffffff1681565b60006040518060e001604052803373ffffffffffffffffffffffffffffffffffffffff168152602001848152602001838152602001600015158152602001600015158152602001600115158152602001600067ffffffffffffffff81111561248d5761248c612d75565b5b6040519080825280602002602001820160405280156124bb5781602001602082028036833780820191505090505b50815250905080600560003373ffffffffffffffffffffffffffffffffffffffff1673ffffffffffffffffffffffffffffffffffffffff16815260200190815260200160002060008201518160000160006101000a81548173ffffffffffffffffffffffffffffffffffffffff021916908373ffffffffffffffffffffffffffffffffffffffff160217905550602082015181600101908051906020019061256492919061266a565b50604082015181600201908051906020019061258192919061266a565b5060608201518160030160006101000a81548160ff02191690831515021790555060808201518160030160016101000a81548160ff02191690831515021790555060a08201518160030160026101000a81548160ff02191690831515021790555060c08201518160040190805190602001906125fe9291906127b2565b509050506001339080600181540180825580915050600190039060005260206000200160009091909190916101000a81548173ffffffffffffffffffffffffffffffffffffffff021916908373ffffffffffffffffffffffffffffffffffffffff160217905550505050565b82805461267690613500565b90600052602060002090601f01602090048101928261269857600085556126df565b82601f106126b157805160ff19168380011785556126df565b828001600101855582156126df579182015b828111156126de5782518255916020019190600101906126c3565b5b5090506126ec9190612859565b5090565b82805482825590600052602060002090810192821561273f579160200282015b8281111561273e57825182908051906020019061272e92919061266a565b5091602001919060010190612710565b5b50905061274c9190612876565b5090565b604051806101000160405280600060ff168152602001600073ffffffffffffffffffffffffffffffffffffffff168152602001606081526020016060815260200160008152602001600081526020016000151581526020016000151581525090565b82805482825590600052602060002090601f016020900481019282156128485791602002820160005b8382111561281957835183826101000a81548160ff021916908360ff16021790555092602001926001016020816000010492830192600103026127db565b80156128465782816101000a81549060ff0219169055600101602081600001049283019260010302612819565b505b5090506128559190612859565b5090565b5b8082111561287257600081600090555060010161285a565b5090565b5b80821115612896576000818161288d919061289a565b50600101612877565b5090565b5080546128a690613500565b6000825580601f106128b857506128d7565b601f0160209004906000526020600020908101906128d69190612859565b5b50565b6000604051905090565b600080fd5b600080fd5b600073ffffffffffffffffffffffffffffffffffffffff82169050919050565b6000612919826128ee565b9050919050565b6129298161290e565b811461293457600080fd5b50565b60008135905061294681612920565b92915050565b600060208284031215612962576129616128e4565b5b600061297084828501612937565b91505092915050565b600060ff82169050919050565b61298f81612979565b82525050565b61299e8161290e565b82525050565b600081519050919050565b600082825260208201905092915050565b60005b838110156129de5780820151818401526020810190506129c3565b838111156129ed576000848401525b50505050565b6000601f19601f8301169050919050565b6000612a0f826129a4565b612a1981856129af565b9350612a298185602086016129c0565b612a32816129f3565b840191505092915050565b6000819050919050565b612a5081612a3d565b82525050565b60008115159050919050565b612a6b81612a56565b82525050565b600061010082019050612a87600083018b612986565b612a94602083018a612995565b8181036040830152612aa68189612a04565b90508181036060830152612aba8188612a04565b9050612ac96080830187612a47565b612ad660a0830186612a47565b612ae360c0830185612a62565b612af060e0830184612a62565b9998505050505050505050565b600081519050919050565b600082825260208201905092915050565b6000819050602082019050919050565b600082825260208201905092915050565b6000612b45826129a4565b612b4f8185612b29565b9350612b5f8185602086016129c0565b612b68816129f3565b840191505092915050565b6000612b7f8383612b3a565b905092915050565b6000602082019050919050565b6000612b9f82612afd565b612ba98185612b08565b935083602082028501612bbb85612b19565b8060005b85811015612bf75784840389528151612bd88582612b73565b9450612be383612b87565b925060208a01995050600181019050612bbf565b50829750879550505050505092915050565b60006020820190508181036000830152612c238184612b94565b905092915050565b60006020820190508181036000830152612c458184612a04565b905092915050565b612c5681612a3d565b8114612c6157600080fd5b50565b600081359050612c7381612c4d565b92915050565b600060208284031215612c8f57612c8e6128e4565b5b6000612c9d84828501612c64565b91505092915050565b6000602082019050612cbb6000830184612a62565b92915050565b6000602082019050612cd66000830184612995565b92915050565b612ce581612979565b8114612cf057600080fd5b50565b600081359050612d0281612cdc565b92915050565b600060208284031215612d1e57612d1d6128e4565b5b6000612d2c84828501612cf3565b91505092915050565b6000602082019050612d4a6000830184612986565b92915050565b6000602082019050612d656000830184612a47565b92915050565b600080fd5b600080fd5b7f4e487b7100000000000000000000000000000000000000000000000000000000600052604160045260246000fd5b612dad826129f3565b810181811067ffffffffffffffff82111715612dcc57612dcb612d75565b5b80604052505050565b6000612ddf6128da565b9050612deb8282612da4565b919050565b600067ffffffffffffffff821115612e0b57612e0a612d75565b5b612e14826129f3565b9050602081019050919050565b82818337600083830152505050565b6000612e43612e3e84612df0565b612dd5565b905082815260208101848484011115612e5f57612e5e612d70565b5b612e6a848285612e21565b509392505050565b600082601f830112612e8757612e86612d6b565b5b8135612e97848260208601612e30565b91505092915050565b600080600060608486031215612eb957612eb86128e4565b5b600084013567ffffffffffffffff811115612ed757612ed66128e9565b5b612ee386828701612e72565b935050602084013567ffffffffffffffff811115612f0457612f036128e9565b5b612f1086828701612e72565b9250506040612f2186828701612c64565b9150509250925092565b612f3481612a56565b8114612f3f57600080fd5b50565b600081359050612f5181612f2b565b92915050565b60008060408385031215612f6e57612f6d6128e4565b5b6000612f7c85828601612f42565b9250506020612f8d85828601612937565b9150509250929050565b600060c082019050612fac6000830189612995565b8181036020830152612fbe8188612a04565b90508181036040830152612fd28187612a04565b9050612fe16060830186612a62565b612fee6080830185612a62565b612ffb60a0830184612a62565b979650505050505050565b6000806040838503121561301d5761301c6128e4565b5b600061302b85828601612937565b925050602061303c85828601612cf3565b9150509250929050565b600067ffffffffffffffff82111561306157613060612d75565b5b602082029050602081019050919050565b600080fd5b600061308a61308584613046565b612dd5565b905080838252602082019050602084028301858111156130ad576130ac613072565b5b835b818110156130f457803567ffffffffffffffff8111156130d2576130d1612d6b565b5b8086016130df8982612e72565b855260208501945050506020810190506130af565b5050509392505050565b600082601f83011261311357613112612d6b565b5b8135613123848260208601613077565b91505092915050565b60008060008060008060008060006101208a8c03121561314f5761314e6128e4565b5b60008a013567ffffffffffffffff81111561316d5761316c6128e9565b5b6131798c828d01612e72565b99505060208a013567ffffffffffffffff81111561319a576131996128e9565b5b6131a68c828d01612e72565b98505060408a013567ffffffffffffffff8111156131c7576131c66128e9565b5b6131d38c828d01612e72565b97505060608a013567ffffffffffffffff8111156131f4576131f36128e9565b5b6132008c828d01612e72565b96505060806132118c828d01612c64565b95505060a06132228c828d01612c64565b94505060c06132338c828d01612c64565b93505060e06132448c828d01612c64565b9250506101008a013567ffffffffffffffff811115613266576132656128e9565b5b6132728c828d016130fe565b9150509295985092959850929598565b600081519050919050565b600082825260208201905092915050565b6000819050602082019050919050565b6132b781612979565b82525050565b6132c68161290e565b82525050565b6132d581612a3d565b82525050565b6132e481612a56565b82525050565b60006101008301600083015161330360008601826132ae565b50602083015161331660208601826132bd565b506040830151848203604086015261332e8282612b3a565b915050606083015184820360608601526133488282612b3a565b915050608083015161335d60808601826132cc565b5060a083015161337060a08601826132cc565b5060c083015161338360c08601826132db565b5060e083015161339660e08601826132db565b508091505092915050565b60006133ad83836132ea565b905092915050565b6000602082019050919050565b60006133cd82613282565b6133d7818561328d565b9350836020820285016133e98561329e565b8060005b85811015613425578484038952815161340685826133a1565b9450613411836133b5565b925060208a019950506001810190506133ed565b50829750879550505050505092915050565b6000602082019050818103600083015261345181846133c2565b905092915050565b600080604083850312156134705761346f6128e4565b5b600083013567ffffffffffffffff81111561348e5761348d6128e9565b5b61349a85828601612e72565b925050602083013567ffffffffffffffff8111156134bb576134ba6128e9565b5b6134c785828601612e72565b9150509250929050565b7f4e487b7100000000000000000000000000000000000000000000000000000000600052602260045260246000fd5b6000600282049050600182168061351857607f821691505b6020821081141561352c5761352b6134d1565b5b50919050565b7f4e487b7100000000000000000000000000000000000000000000000000000000600052603260045260246000fd5b7f4e487b7100000000000000000000000000000000000000000000000000000000600052601160045260246000fd5b600061359b82612a3d565b91507fffffffffffffffffffffffffffffffffffffffffffffffffffffffffffffffff8214156135ce576135cd613561565b5b600182019050919050565b60006135e482612979565b915060ff8214156135f8576135f7613561565b5b600182019050919050565b7f526567697374726174696f6e206973206e6f7420737461727465642079657400600082015250565b6000613639601f836129af565b915061364482613603565b602082019050919050565b600060208201905081810360008301526136688161362c565b9050919050565b7f526567697374726174696f6e20697320616c726561647920656e6465642e0000600082015250565b60006136a5601e836129af565b91506136b08261366f565b602082019050919050565b600060208201905081810360008301526136d481613698565b9050919050565b60006136e682612979565b91506136f183612979565b92508260ff0382111561370757613706613561565b5b828201905092915050565b7f566f74696e67206973206e6f7420737461727465642079657400000000000000600082015250565b60006137486019836129af565b915061375382613712565b602082019050919050565b600060208201905081810360008301526137778161373b565b9050919050565b7f566f74696e6720697320616c726561647920656e646564000000000000000000600082015250565b60006137b46017836129af565b91506137bf8261377e565b602082019050919050565b600060208201905081810360008301526137e3816137a7565b9050919050565b7f596f75206861766520616c726561647920766f74656420746f20656c6563746960008201527f6f6e207469746c65000000000000000000000000000000000000000000000000602082015250565b60006138466028836129af565b9150613851826137ea565b604082019050919050565b6000602082019050818103600083015261387581613839565b9050919050565b600061388782612a3d565b915061389283612a3d565b9250827fffffffffffffffffffffffffffffffffffffffffffffffffffffffffffffffff038211156138c7576138c6613561565b5b82820190509291505056fea2646970667358221220e03ae96ec2240c40a24d68df38f2b901e7a3f478fc4c633cc98d95c643a7b2e364736f6c634300080b0033",
  "linkReferences": {},
  "deployedLinkReferences": {}
}