{
  "_format": "hh-sol-artifact-1",
  "contractName": "Election",
  "sourceName": "contracts/Election.sol",
  "abi": [
    {
      "inputs": [],
      "stateMutability": "nonpayable",
      "type": "constructor"
    },
    {
      "inputs": [],
      "name": "admin",
      "outputs": [
        {
          "internalType": "address",
          "name": "",
          "type": "address"
        }
      ],
      "stateMutability": "view",
      "type": "function"
    },
    {
      "inputs": [
        {
          "internalType": "uint256",
          "name": "",
          "type": "uint256"
        }
      ],
      "name": "approvedCandidates",
      "outputs": [
        {
          "internalType": "address",
          "name": "",
          "type": "address"
        }
      ],
      "stateMutability": "view",
      "type": "function"
    },
    {
      "inputs": [
        {
          "internalType": "uint256",
          "name": "",
          "type": "uint256"
        }
      ],
      "name": "approvedVoters",
      "outputs": [
        {
          "internalType": "address",
          "name": "",
          "type": "address"
        }
      ],
      "stateMutability": "view",
      "type": "function"
    },
    {
      "inputs": [
        {
          "internalType": "address",
          "name": "",
          "type": "address"
        }
      ],
      "name": "candidateDetails",
      "outputs": [
        {
          "internalType": "address",
          "name": "candidateAddress",
          "type": "address"
        },
        {
          "internalType": "string",
          "name": "header",
          "type": "string"
        },
        {
          "internalType": "string",
          "name": "slogan",
          "type": "string"
        },
        {
          "internalType": "uint256",
          "name": "electionTitleIndex",
          "type": "uint256"
        },
        {
          "internalType": "uint256",
          "name": "voteCount",
          "type": "uint256"
        },
        {
          "internalType": "bool",
          "name": "isVerified",
          "type": "bool"
        },
        {
          "internalType": "bool",
          "name": "isRegistered",
          "type": "bool"
        }
      ],
      "stateMutability": "view",
      "type": "function"
    },
    {
      "inputs": [
        {
          "internalType": "uint256",
          "name": "",
          "type": "uint256"
        }
      ],
      "name": "candidates",
      "outputs": [
        {
          "internalType": "address",
          "name": "",
          "type": "address"
        }
      ],
      "stateMutability": "view",
      "type": "function"
    },
    {
      "inputs": [],
      "name": "getAdmin",
      "outputs": [
        {
          "internalType": "address",
          "name": "",
          "type": "address"
        }
      ],
      "stateMutability": "view",
      "type": "function"
    },
    {
      "inputs": [],
      "name": "getAdminEmail",
      "outputs": [
        {
          "internalType": "string",
          "name": "",
          "type": "string"
        }
      ],
      "stateMutability": "view",
      "type": "function"
    },
    {
      "inputs": [],
      "name": "getAdminName",
      "outputs": [
        {
          "internalType": "string",
          "name": "",
          "type": "string"
        }
      ],
      "stateMutability": "view",
      "type": "function"
    },
    {
      "inputs": [],
      "name": "getAdminTitle",
      "outputs": [
        {
          "internalType": "string",
          "name": "",
          "type": "string"
        }
      ],
      "stateMutability": "view",
      "type": "function"
    },
    {
      "inputs": [
        {
          "internalType": "address",
          "name": "_currentAddress",
          "type": "address"
        }
      ],
      "name": "getAlreadyRegisteredCandidateStatus",
      "outputs": [
        {
          "internalType": "bool",
          "name": "",
          "type": "bool"
        }
      ],
      "stateMutability": "view",
      "type": "function"
    },
    {
      "inputs": [
        {
          "internalType": "uint8",
          "name": "_electionTitleIndex",
          "type": "uint8"
        }
      ],
      "name": "getCandidateCountForAsscociatedElection",
      "outputs": [
        {
          "internalType": "uint8",
          "name": "",
          "type": "uint8"
        }
      ],
      "stateMutability": "view",
      "type": "function"
    },
    {
      "inputs": [
        {
          "internalType": "uint8",
          "name": "_electionTitleIndex",
          "type": "uint8"
        }
      ],
      "name": "getCandidatesForAssociatedElections",
      "outputs": [
        {
          "components": [
            {
              "internalType": "address",
              "name": "candidateAddress",
              "type": "address"
            },
            {
              "internalType": "string",
              "name": "header",
              "type": "string"
            },
            {
              "internalType": "string",
              "name": "slogan",
              "type": "string"
            },
            {
              "internalType": "uint256",
              "name": "electionTitleIndex",
              "type": "uint256"
            },
            {
              "internalType": "uint256",
              "name": "voteCount",
              "type": "uint256"
            },
            {
              "internalType": "bool",
              "name": "isVerified",
              "type": "bool"
            },
            {
              "internalType": "bool",
              "name": "isRegistered",
              "type": "bool"
            }
          ],
          "internalType": "struct Election.Candidate[]",
          "name": "",
          "type": "tuple[]"
        }
      ],
      "stateMutability": "view",
      "type": "function"
    },
    {
      "inputs": [
        {
          "internalType": "uint256",
          "name": "_timeStamp",
          "type": "uint256"
        }
      ],
      "name": "getElectionEndedStatus",
      "outputs": [
        {
          "internalType": "bool",
          "name": "",
          "type": "bool"
        }
      ],
      "stateMutability": "view",
      "type": "function"
    },
    {
      "inputs": [],
      "name": "getElectionInitStatus",
      "outputs": [
        {
          "internalType": "bool",
          "name": "",
          "type": "bool"
        }
      ],
      "stateMutability": "view",
      "type": "function"
    },
    {
      "inputs": [
        {
          "internalType": "uint256",
          "name": "_timeStamp",
          "type": "uint256"
        }
      ],
      "name": "getElectionStatus",
      "outputs": [
        {
          "internalType": "bool",
          "name": "",
          "type": "bool"
        }
      ],
      "stateMutability": "view",
      "type": "function"
    },
    {
      "inputs": [],
      "name": "getElectionTitles",
      "outputs": [
        {
          "internalType": "string[]",
          "name": "",
          "type": "string[]"
        }
      ],
      "stateMutability": "view",
      "type": "function"
    },
    {
      "inputs": [],
      "name": "getOrganizationTitle",
      "outputs": [
        {
          "internalType": "string",
          "name": "",
          "type": "string"
        }
      ],
      "stateMutability": "view",
      "type": "function"
    },
    {
      "inputs": [],
      "name": "getRegistrationEndTime",
      "outputs": [
        {
          "internalType": "uint256",
          "name": "",
          "type": "uint256"
        }
      ],
      "stateMutability": "view",
      "type": "function"
    },
    {
      "inputs": [
        {
          "internalType": "uint256",
          "name": "_timeStamp",
          "type": "uint256"
        }
      ],
      "name": "getRegistrationEndedStatus",
      "outputs": [
        {
          "internalType": "bool",
          "name": "",
          "type": "bool"
        }
      ],
      "stateMutability": "view",
      "type": "function"
    },
    {
      "inputs": [],
      "name": "getRegistrationStartTime",
      "outputs": [
        {
          "internalType": "uint256",
          "name": "",
          "type": "uint256"
        }
      ],
      "stateMutability": "view",
      "type": "function"
    },
    {
      "inputs": [
        {
          "internalType": "uint256",
          "name": "_timeStamp",
          "type": "uint256"
        }
      ],
      "name": "getRegistrationStartedStatus",
      "outputs": [
        {
          "internalType": "bool",
          "name": "",
          "type": "bool"
        }
      ],
      "stateMutability": "view",
      "type": "function"
    },
    {
      "inputs": [
        {
          "internalType": "uint256",
          "name": "_timeStamp",
          "type": "uint256"
        }
      ],
      "name": "getRegistrationStatus",
      "outputs": [
        {
          "internalType": "bool",
          "name": "",
          "type": "bool"
        }
      ],
      "stateMutability": "view",
      "type": "function"
    },
    {
      "inputs": [],
      "name": "getUnVerifiedCandidates",
      "outputs": [
        {
          "internalType": "uint256",
          "name": "",
          "type": "uint256"
        }
      ],
      "stateMutability": "view",
      "type": "function"
    },
    {
      "inputs": [],
      "name": "getUnVerifiedVoters",
      "outputs": [
        {
          "internalType": "uint256",
          "name": "",
          "type": "uint256"
        }
      ],
      "stateMutability": "view",
      "type": "function"
    },
    {
      "inputs": [],
      "name": "getVerifiedCandidates",
      "outputs": [
        {
          "internalType": "uint256",
          "name": "",
          "type": "uint256"
        }
      ],
      "stateMutability": "view",
      "type": "function"
    },
    {
      "inputs": [],
      "name": "getVerifiedVoters",
      "outputs": [
        {
          "internalType": "uint256",
          "name": "",
          "type": "uint256"
        }
      ],
      "stateMutability": "view",
      "type": "function"
    },
    {
      "inputs": [
        {
          "internalType": "address",
          "name": "_currentAddress",
          "type": "address"
        }
      ],
      "name": "getVoterStatusForCandidate",
      "outputs": [
        {
          "internalType": "bool",
          "name": "",
          "type": "bool"
        }
      ],
      "stateMutability": "view",
      "type": "function"
    },
    {
      "inputs": [],
      "name": "getVotingEndTime",
      "outputs": [
        {
          "internalType": "uint256",
          "name": "",
          "type": "uint256"
        }
      ],
      "stateMutability": "view",
      "type": "function"
    },
    {
      "inputs": [],
      "name": "getVotingStartTime",
      "outputs": [
        {
          "internalType": "uint256",
          "name": "",
          "type": "uint256"
        }
      ],
      "stateMutability": "view",
      "type": "function"
    },
    {
      "inputs": [
        {
          "internalType": "uint256",
          "name": "_electionTitleIndex",
          "type": "uint256"
        }
      ],
      "name": "getWinnerCandidate",
      "outputs": [
        {
          "internalType": "address",
          "name": "",
          "type": "address"
        }
      ],
      "stateMutability": "view",
      "type": "function"
    },
    {
      "inputs": [
        {
          "internalType": "string",
          "name": "_header",
          "type": "string"
        },
        {
          "internalType": "string",
          "name": "_slogan",
          "type": "string"
        },
        {
          "internalType": "uint256",
          "name": "_electionTitleIndex",
          "type": "uint256"
        }
      ],
      "name": "registerAsCandidate",
      "outputs": [],
      "stateMutability": "nonpayable",
      "type": "function"
    },
    {
      "inputs": [
        {
          "internalType": "string",
          "name": "_name",
          "type": "string"
        },
        {
          "internalType": "string",
          "name": "_phone",
          "type": "string"
        }
      ],
      "name": "registerAsVoter",
      "outputs": [],
      "stateMutability": "nonpayable",
      "type": "function"
    },
    {
      "inputs": [
        {
          "internalType": "string",
          "name": "_adminName",
          "type": "string"
        },
        {
          "internalType": "string",
          "name": "_adminEmail",
          "type": "string"
        },
        {
          "internalType": "string",
          "name": "_adminTitle",
          "type": "string"
        },
        {
          "internalType": "string",
          "name": "_organizationTitle",
          "type": "string"
        },
        {
          "internalType": "uint256",
          "name": "_votingStartTime",
          "type": "uint256"
        },
        {
          "internalType": "uint256",
          "name": "_votingEndTime",
          "type": "uint256"
        },
        {
          "internalType": "uint256",
          "name": "_registrationStartTime",
          "type": "uint256"
        },
        {
          "internalType": "uint256",
          "name": "_registrationEndTime",
          "type": "uint256"
        },
        {
          "internalType": "string[]",
          "name": "_elections",
          "type": "string[]"
        }
      ],
      "name": "setElectionDetails",
      "outputs": [],
      "stateMutability": "nonpayable",
      "type": "function"
    },
    {
      "inputs": [
        {
          "internalType": "bool",
          "name": "_verifedStatus",
          "type": "bool"
        },
        {
          "internalType": "address",
          "name": "candidateAddress",
          "type": "address"
        }
      ],
      "name": "verifyCandidate",
      "outputs": [],
      "stateMutability": "nonpayable",
      "type": "function"
    },
    {
      "inputs": [
        {
          "internalType": "bool",
          "name": "_verifedStatus",
          "type": "bool"
        },
        {
          "internalType": "address",
          "name": "voterAddress",
          "type": "address"
        }
      ],
      "name": "verifyVoter",
      "outputs": [],
      "stateMutability": "nonpayable",
      "type": "function"
    },
    {
      "inputs": [
        {
          "internalType": "address",
          "name": "_candidateAddress",
          "type": "address"
        },
        {
          "internalType": "uint8",
          "name": "_electionTitleIndex",
          "type": "uint8"
        }
      ],
      "name": "vote",
      "outputs": [],
      "stateMutability": "nonpayable",
      "type": "function"
    },
    {
      "inputs": [
        {
          "internalType": "address",
          "name": "",
          "type": "address"
        }
      ],
      "name": "voterDetails",
      "outputs": [
        {
          "internalType": "address",
          "name": "voterAddress",
          "type": "address"
        },
        {
          "internalType": "string",
          "name": "name",
          "type": "string"
        },
        {
          "internalType": "string",
          "name": "phone",
          "type": "string"
        },
        {
          "internalType": "bool",
          "name": "isVerified",
          "type": "bool"
        },
        {
          "internalType": "bool",
          "name": "hasVoted",
          "type": "bool"
        },
        {
          "internalType": "bool",
          "name": "isRegistered",
          "type": "bool"
        }
      ],
      "stateMutability": "view",
      "type": "function"
    },
    {
      "inputs": [
        {
          "internalType": "uint256",
          "name": "",
          "type": "uint256"
        }
      ],
      "name": "voters",
      "outputs": [
        {
          "internalType": "address",
          "name": "",
          "type": "address"
        }
      ],
      "stateMutability": "view",
      "type": "function"
    }
  ],
  "bytecode": "0x608060405234801561001057600080fd5b5033600060016101000a81548173ffffffffffffffffffffffffffffffffffffffff021916908373ffffffffffffffffffffffffffffffffffffffff16021790555060008060006101000a81548160ff0219169083151502179055506000600781905550600060088190555060006009819055506000600a819055506137f18061009b6000396000f3fe608060405234801561001057600080fd5b50600436106102325760003560e01c8063aed9301011610130578063d0980f20116100b8578063dd698f901161007c578063dd698f9014610724578063df6d278414610742578063f33a8a7314610760578063f851a44014610790578063fee0d19a146107ae57610232565b8063d0980f2014610646578063d2fdf16f14610676578063d4ecadb8146106a6578063da58c7d9146106d6578063dc973d501461070657610232565b8063be081b6f116100ff578063be081b6f146105a2578063c3a171a2146105c0578063c784d213146105dc578063cad43b48146105fa578063cfe0c7fc1461061657610232565b8063aed930101461051a578063b1bf87b01461054a578063b54e629a14610568578063bceb514d1461058657610232565b806348343175116101be5780636a82ee51116101825780636a82ee51146104725780636e9960c314610490578063739a95f8146104ae5780637d660535146104cc578063831318f1146104fc57610232565b806348343175146103b75780634c652fc6146103d5578063506b8e0a146103f15780635938750d1461040d5780635fcdd8a11461044257610232565b806324785b9e1161020557806324785b9e146102d95780633477ee2e14610309578063399f694d146103395780633f66f48b1461036957806347eaa1d91461039957610232565b806305e73ced146102375780630712aa051461026d5780630e2354cf1461028b57806319c5c507146102a9575b600080fd5b610251600480360381019061024c919061289e565b6107ca565b60405161026497969594939291906129a7565b60405180910390f35b610275610956565b6040516102829190612b30565b60405180910390f35b610293610aa8565b6040516102a09190612b52565b60405180910390f35b6102c360048036038101906102be9190612ba0565b610b3d565b6040516102d09190612bcd565b60405180910390f35b6102f360048036038101906102ee9190612ba0565b610b70565b6040516103009190612bcd565b60405180910390f35b610323600480360381019061031e9190612ba0565b610ba3565b6040516103309190612be8565b60405180910390f35b610353600480360381019061034e9190612c3c565b610be2565b6040516103609190612c78565b60405180910390f35b610383600480360381019061037e9190612ba0565b610cb0565b6040516103909190612be8565b60405180910390f35b6103a1610cef565b6040516103ae9190612c93565b60405180910390f35b6103bf610cfc565b6040516103cc9190612b52565b60405180910390f35b6103ef60048036038101906103ea9190612de3565b610d91565b005b61040b60048036038101906104069190612e9a565b610ff0565b005b6104276004803603810190610422919061289e565b61110b565b60405161043996959493929190612eda565b60405180910390f35b61045c6004803603810190610457919061289e565b61129e565b6040516104699190612bcd565b60405180910390f35b61047a61134d565b6040516104879190612c93565b60405180910390f35b610498611357565b6040516104a59190612be8565b60405180910390f35b6104b6611380565b6040516104c39190612c93565b60405180910390f35b6104e660048036038101906104e1919061289e565b61138d565b6040516104f39190612bcd565b60405180910390f35b61050461143c565b6040516105119190612b52565b60405180910390f35b610534600480360381019061052f9190612ba0565b6114d1565b6040516105419190612be8565b60405180910390f35b610552611510565b60405161055f9190612c93565b60405180910390f35b61057061151a565b60405161057d9190612c93565b60405180910390f35b6105a0600480360381019061059b9190612f49565b611527565b005b6105aa611886565b6040516105b79190612b52565b60405180910390f35b6105da60048036038101906105d5919061306f565b61191b565b005b6105e4611b68565b6040516105f19190612c93565b60405180910390f35b610614600480360381019061060f9190612e9a565b611b72565b005b610630600480360381019061062b9190612c3c565b611c8d565b60405161063d9190613357565b60405180910390f35b610660600480360381019061065b9190612ba0565b6120d9565b60405161066d9190612bcd565b60405180910390f35b610690600480360381019061068b9190612ba0565b612107565b60405161069d9190612bcd565b60405180910390f35b6106c060048036038101906106bb9190612ba0565b612125565b6040516106cd9190612bcd565b60405180910390f35b6106f060048036038101906106eb9190612ba0565b612157565b6040516106fd9190612be8565b60405180910390f35b61070e612196565b60405161071b9190612c93565b60405180910390f35b61072c6121a3565b6040516107399190612bcd565b60405180910390f35b61074a6121b9565b6040516107579190612c93565b60405180910390f35b61077a60048036038101906107759190612ba0565b6121c3565b6040516107879190612be8565b60405180910390f35b610798612359565b6040516107a59190612be8565b60405180910390f35b6107c860048036038101906107c39190613379565b61237f565b005b60066020528060005260406000206000915090508060000160009054906101000a900473ffffffffffffffffffffffffffffffffffffffff169080600101805461081390613420565b80601f016020809104026020016040519081016040528092919081815260200182805461083f90613420565b801561088c5780601f106108615761010080835404028352916020019161088c565b820191906000526020600020905b81548152906001019060200180831161086f57829003601f168201915b5050505050908060020180546108a190613420565b80601f01602080910402602001604051908101604052809291908181526020018280546108cd90613420565b801561091a5780601f106108ef5761010080835404028352916020019161091a565b820191906000526020600020905b8154815290600101906020018083116108fd57829003601f168201915b5050505050908060030154908060040154908060050160009054906101000a900460ff16908060050160019054906101000a900460ff16905087565b60606000600b6008018054905067ffffffffffffffff81111561097c5761097b612cb8565b5b6040519080825280602002602001820160405280156109af57816020015b606081526020019060019003908161099a5790505b50905060005b600b60080180549050811015610aa057600b60080181815481106109dc576109db613452565b5b9060005260206000200180546109f190613420565b80601f0160208091040260200160405190810160405280929190818152602001828054610a1d90613420565b8015610a6a5780601f10610a3f57610100808354040283529160200191610a6a565b820191906000526020600020905b815481529060010190602001808311610a4d57829003601f168201915b5050505050828281518110610a8257610a81613452565b5b60200260200101819052508080610a98906134b0565b9150506109b5565b508091505090565b6060600b6000018054610aba90613420565b80601f0160208091040260200160405190810160405280929190818152602001828054610ae690613420565b8015610b335780601f10610b0857610100808354040283529160200191610b33565b820191906000526020600020905b815481529060010190602001808311610b1657829003601f168201915b5050505050905090565b6000806007548310158015610b5457506008548311155b15610b625760019050610b67565b600090505b80915050919050565b6000806009548310158015610b875750600a548311155b15610b955760019050610b9a565b600090505b80915050919050565b60028181548110610bb357600080fd5b906000526020600020016000915054906101000a900473ffffffffffffffffffffffffffffffffffffffff1681565b6000806000905060005b600480549050811015610ca6578360ff166006600060048481548110610c1557610c14613452565b5b9060005260206000200160009054906101000a900473ffffffffffffffffffffffffffffffffffffffff1673ffffffffffffffffffffffffffffffffffffffff1673ffffffffffffffffffffffffffffffffffffffff168152602001908152602001600020600301541415610c93578180610c8f906134f9565b9250505b8080610c9e906134b0565b915050610bec565b5080915050919050565b60048181548110610cc057600080fd5b906000526020600020016000915054906101000a900473ffffffffffffffffffffffffffffffffffffffff1681565b6000600480549050905090565b6060600b6003018054610d0e90613420565b80601f0160208091040260200160405190810160405280929190818152602001828054610d3a90613420565b8015610d875780601f10610d5c57610100808354040283529160200191610d87565b820191906000526020600020905b815481529060010190602001808311610d6a57829003601f168201915b5050505050905090565b600754421015610dd6576040517f08c379a0000000000000000000000000000000000000000000000000000000008152600401610dcd9061356f565b60405180910390fd5b600854421115610e1b576040517f08c379a0000000000000000000000000000000000000000000000000000000008152600401610e12906135db565b60405180910390fd5b60006040518060e001604052803373ffffffffffffffffffffffffffffffffffffffff1681526020018581526020018481526020018381526020016000815260200160001515815260200160011515815250905080600660003373ffffffffffffffffffffffffffffffffffffffff1673ffffffffffffffffffffffffffffffffffffffff16815260200190815260200160002060008201518160000160006101000a81548173ffffffffffffffffffffffffffffffffffffffff021916908373ffffffffffffffffffffffffffffffffffffffff1602179055506020820151816001019080519060200190610f129291906125c7565b506040820151816002019080519060200190610f2f9291906125c7565b50606082015181600301556080820151816004015560a08201518160050160006101000a81548160ff02191690831515021790555060c08201518160050160016101000a81548160ff0219169083151502179055509050506002339080600181540180825580915050600190039060005260206000200160009091909190916101000a81548173ffffffffffffffffffffffffffffffffffffffff021916908373ffffffffffffffffffffffffffffffffffffffff16021790555050505050565b600060019054906101000a900473ffffffffffffffffffffffffffffffffffffffff1673ffffffffffffffffffffffffffffffffffffffff163373ffffffffffffffffffffffffffffffffffffffff161461104a57600080fd5b81600560008373ffffffffffffffffffffffffffffffffffffffff1673ffffffffffffffffffffffffffffffffffffffff16815260200190815260200160002060030160006101000a81548160ff0219169083151502179055506003819080600181540180825580915050600190039060005260206000200160009091909190916101000a81548173ffffffffffffffffffffffffffffffffffffffff021916908373ffffffffffffffffffffffffffffffffffffffff1602179055505050565b60056020528060005260406000206000915090508060000160009054906101000a900473ffffffffffffffffffffffffffffffffffffffff169080600101805461115490613420565b80601f016020809104026020016040519081016040528092919081815260200182805461118090613420565b80156111cd5780601f106111a2576101008083540402835291602001916111cd565b820191906000526020600020905b8154815290600101906020018083116111b057829003601f168201915b5050505050908060020180546111e290613420565b80601f016020809104026020016040519081016040528092919081815260200182805461120e90613420565b801561125b5780601f106112305761010080835404028352916020019161125b565b820191906000526020600020905b81548152906001019060200180831161123e57829003601f168201915b5050505050908060030160009054906101000a900460ff16908060030160019054906101000a900460ff16908060030160029054906101000a900460ff16905086565b6000806000905060005b60038054905081101561134357600381815481106112c9576112c8613452565b5b9060005260206000200160009054906101000a900473ffffffffffffffffffffffffffffffffffffffff1673ffffffffffffffffffffffffffffffffffffffff168473ffffffffffffffffffffffffffffffffffffffff1614156113305760019150611343565b808061133b906134b0565b9150506112a8565b5080915050919050565b6000600954905090565b60008060019054906101000a900473ffffffffffffffffffffffffffffffffffffffff16905090565b6000600180549050905090565b6000806000905060005b60028054905081101561143257600281815481106113b8576113b7613452565b5b9060005260206000200160009054906101000a900473ffffffffffffffffffffffffffffffffffffffff1673ffffffffffffffffffffffffffffffffffffffff168473ffffffffffffffffffffffffffffffffffffffff16141561141f5760019150611432565b808061142a906134b0565b915050611397565b5080915050919050565b6060600b600101805461144e90613420565b80601f016020809104026020016040519081016040528092919081815260200182805461147a90613420565b80156114c75780601f1061149c576101008083540402835291602001916114c7565b820191906000526020600020905b8154815290600101906020018083116114aa57829003601f168201915b5050505050905090565b600381815481106114e157600080fd5b906000526020600020016000915054906101000a900473ffffffffffffffffffffffffffffffffffffffff1681565b6000600a54905090565b6000600380549050905090565b60095442101561156c576040517f08c379a000000000000000000000000000000000000000000000000000000000815260040161156390613647565b60405180910390fd5b600a544211156115b1576040517f08c379a00000000000000000000000000000000000000000000000000000000081526004016115a8906136b3565b60405180910390fd5b6000805b600560003373ffffffffffffffffffffffffffffffffffffffff1673ffffffffffffffffffffffffffffffffffffffff1681526020019081526020016000206004018054905081101561169f578260ff16600560003373ffffffffffffffffffffffffffffffffffffffff1673ffffffffffffffffffffffffffffffffffffffff168152602001908152602001600020600401828154811061165a57611659613452565b5b90600052602060002090602091828204019190069054906101000a900460ff1660ff16141561168c576001915061169f565b8080611697906134b0565b9150506115b5565b5060001515811515146116e7576040517f08c379a00000000000000000000000000000000000000000000000000000000081526004016116de90613745565b60405180910390fd5b60011515600560003373ffffffffffffffffffffffffffffffffffffffff1673ffffffffffffffffffffffffffffffffffffffff16815260200190815260200160002060030160009054906101000a900460ff1615151461174757600080fd5b6001600660008573ffffffffffffffffffffffffffffffffffffffff1673ffffffffffffffffffffffffffffffffffffffff168152602001908152602001600020600401600082825461179a9190613765565b925050819055506001600560003373ffffffffffffffffffffffffffffffffffffffff1673ffffffffffffffffffffffffffffffffffffffff16815260200190815260200160002060030160016101000a81548160ff021916908315150217905550600560003373ffffffffffffffffffffffffffffffffffffffff1673ffffffffffffffffffffffffffffffffffffffff1681526020019081526020016000206004018290806001815401808255809150506001900390600052602060002090602091828204019190069091909190916101000a81548160ff021916908360ff160217905550505050565b6060600b600201805461189890613420565b80601f01602080910402602001604051908101604052809291908181526020018280546118c490613420565b80156119115780601f106118e657610100808354040283529160200191611911565b820191906000526020600020905b8154815290600101906020018083116118f457829003601f168201915b5050505050905090565b600060019054906101000a900473ffffffffffffffffffffffffffffffffffffffff1673ffffffffffffffffffffffffffffffffffffffff163373ffffffffffffffffffffffffffffffffffffffff161461197557600080fd5b6000815167ffffffffffffffff81111561199257611991612cb8565b5b6040519080825280602002602001820160405280156119c557816020015b60608152602001906001900390816119b05790505b50905060005b8251811015611a20578281815181106119e7576119e6613452565b5b6020026020010151828281518110611a0257611a01613452565b5b60200260200101819052508080611a18906134b0565b9150506119cb565b5060006040518061012001604052808c81526020018b81526020018a815260200189815260200188815260200187815260200186815260200185815260200183815250905080600b6000820151816000019080519060200190611a849291906125c7565b506020820151816001019080519060200190611aa19291906125c7565b506040820151816002019080519060200190611abe9291906125c7565b506060820151816003019080519060200190611adb9291906125c7565b506080820151816004015560a0820151816005015560c0820151816006015560e08201518160070155610100820151816008019080519060200190611b2192919061264d565b5090505060016000806101000a81548160ff02191690831515021790555084600781905550836008819055508660098190555085600a819055505050505050505050505050565b6000600854905090565b600060019054906101000a900473ffffffffffffffffffffffffffffffffffffffff1673ffffffffffffffffffffffffffffffffffffffff163373ffffffffffffffffffffffffffffffffffffffff1614611bcc57600080fd5b81600660008373ffffffffffffffffffffffffffffffffffffffff1673ffffffffffffffffffffffffffffffffffffffff16815260200190815260200160002060050160006101000a81548160ff0219169083151502179055506004819080600181540180825580915050600190039060005260206000200160009091909190916101000a81548173ffffffffffffffffffffffffffffffffffffffff021916908373ffffffffffffffffffffffffffffffffffffffff1602179055505050565b6060600060048054905067ffffffffffffffff811115611cb057611caf612cb8565b5b604051908082528060200260200182016040528015611ce957816020015b611cd66126ad565b815260200190600190039081611cce5790505b5090506000805b600480549050811015612017578460ff166006600060048481548110611d1957611d18613452565b5b9060005260206000200160009054906101000a900473ffffffffffffffffffffffffffffffffffffffff1673ffffffffffffffffffffffffffffffffffffffff1673ffffffffffffffffffffffffffffffffffffffff168152602001908152602001600020600301541415612004576006600060048381548110611da057611d9f613452565b5b9060005260206000200160009054906101000a900473ffffffffffffffffffffffffffffffffffffffff1673ffffffffffffffffffffffffffffffffffffffff1673ffffffffffffffffffffffffffffffffffffffff1681526020019081526020016000206040518060e00160405290816000820160009054906101000a900473ffffffffffffffffffffffffffffffffffffffff1673ffffffffffffffffffffffffffffffffffffffff1673ffffffffffffffffffffffffffffffffffffffff168152602001600182018054611e7690613420565b80601f0160208091040260200160405190810160405280929190818152602001828054611ea290613420565b8015611eef5780601f10611ec457610100808354040283529160200191611eef565b820191906000526020600020905b815481529060010190602001808311611ed257829003601f168201915b50505050508152602001600282018054611f0890613420565b80601f0160208091040260200160405190810160405280929190818152602001828054611f3490613420565b8015611f815780601f10611f5657610100808354040283529160200191611f81565b820191906000526020600020905b815481529060010190602001808311611f6457829003601f168201915b5050505050815260200160038201548152602001600482015481526020016005820160009054906101000a900460ff161515151581526020016005820160019054906101000a900460ff161515151581525050838360ff1681518110611fea57611fe9613452565b5b60200260200101819052508180612000906134f9565b9250505b808061200f906134b0565b915050611cf0565b5060008160ff1667ffffffffffffffff81111561203757612036612cb8565b5b60405190808252806020026020018201604052801561207057816020015b61205d6126ad565b8152602001906001900390816120555790505b50905060005b8260ff168110156120cd5783818151811061209457612093613452565b5b60200260200101518282815181106120af576120ae613452565b5b602002602001018190525080806120c5906134b0565b915050612076565b50809350505050919050565b6000806000905060075483101580156120f457506008548311155b156120fe57600190505b80915050919050565b60008060009050600854831061211c57600190505b80915050919050565b6000806000905060008054906101000a900460ff161561214e57600a54831061214d57600190505b5b80915050919050565b6001818154811061216757600080fd5b906000526020600020016000915054906101000a900473ffffffffffffffffffffffffffffffffffffffff1681565b6000600280549050905090565b60008060009054906101000a900460ff16905090565b6000600754905090565b60008060009050600080600090505b60048054905081101561234e578460066000600484815481106121f8576121f7613452565b5b9060005260206000200160009054906101000a900473ffffffffffffffffffffffffffffffffffffffff1673ffffffffffffffffffffffffffffffffffffffff1673ffffffffffffffffffffffffffffffffffffffff16815260200190815260200160002060030154141561233b576000600660006004848154811061228157612280613452565b5b9060005260206000200160009054906101000a900473ffffffffffffffffffffffffffffffffffffffff1673ffffffffffffffffffffffffffffffffffffffff1673ffffffffffffffffffffffffffffffffffffffff16815260200190815260200160002060040154905083811115612339578093506004828154811061230b5761230a613452565b5b9060005260206000200160009054906101000a900473ffffffffffffffffffffffffffffffffffffffff1692505b505b8080612346906134b0565b9150506121d2565b508092505050919050565b600060019054906101000a900473ffffffffffffffffffffffffffffffffffffffff1681565b60006040518060e001604052803373ffffffffffffffffffffffffffffffffffffffff168152602001848152602001838152602001600015158152602001600015158152602001600115158152602001600067ffffffffffffffff8111156123ea576123e9612cb8565b5b6040519080825280602002602001820160405280156124185781602001602082028036833780820191505090505b50815250905080600560003373ffffffffffffffffffffffffffffffffffffffff1673ffffffffffffffffffffffffffffffffffffffff16815260200190815260200160002060008201518160000160006101000a81548173ffffffffffffffffffffffffffffffffffffffff021916908373ffffffffffffffffffffffffffffffffffffffff16021790555060208201518160010190805190602001906124c19291906125c7565b5060408201518160020190805190602001906124de9291906125c7565b5060608201518160030160006101000a81548160ff02191690831515021790555060808201518160030160016101000a81548160ff02191690831515021790555060a08201518160030160026101000a81548160ff02191690831515021790555060c082015181600401908051906020019061255b929190612704565b509050506001339080600181540180825580915050600190039060005260206000200160009091909190916101000a81548173ffffffffffffffffffffffffffffffffffffffff021916908373ffffffffffffffffffffffffffffffffffffffff160217905550505050565b8280546125d390613420565b90600052602060002090601f0160209004810192826125f5576000855561263c565b82601f1061260e57805160ff191683800117855561263c565b8280016001018555821561263c579182015b8281111561263b578251825591602001919060010190612620565b5b50905061264991906127ab565b5090565b82805482825590600052602060002090810192821561269c579160200282015b8281111561269b57825182908051906020019061268b9291906125c7565b509160200191906001019061266d565b5b5090506126a991906127c8565b5090565b6040518060e00160405280600073ffffffffffffffffffffffffffffffffffffffff168152602001606081526020016060815260200160008152602001600081526020016000151581526020016000151581525090565b82805482825590600052602060002090601f0160209004810192821561279a5791602002820160005b8382111561276b57835183826101000a81548160ff021916908360ff160217905550926020019260010160208160000104928301926001030261272d565b80156127985782816101000a81549060ff021916905560010160208160000104928301926001030261276b565b505b5090506127a791906127ab565b5090565b5b808211156127c45760008160009055506001016127ac565b5090565b5b808211156127e857600081816127df91906127ec565b506001016127c9565b5090565b5080546127f890613420565b6000825580601f1061280a5750612829565b601f01602090049060005260206000209081019061282891906127ab565b5b50565b6000604051905090565b600080fd5b600080fd5b600073ffffffffffffffffffffffffffffffffffffffff82169050919050565b600061286b82612840565b9050919050565b61287b81612860565b811461288657600080fd5b50565b60008135905061289881612872565b92915050565b6000602082840312156128b4576128b3612836565b5b60006128c284828501612889565b91505092915050565b6128d481612860565b82525050565b600081519050919050565b600082825260208201905092915050565b60005b838110156129145780820151818401526020810190506128f9565b83811115612923576000848401525b50505050565b6000601f19601f8301169050919050565b6000612945826128da565b61294f81856128e5565b935061295f8185602086016128f6565b61296881612929565b840191505092915050565b6000819050919050565b61298681612973565b82525050565b60008115159050919050565b6129a18161298c565b82525050565b600060e0820190506129bc600083018a6128cb565b81810360208301526129ce818961293a565b905081810360408301526129e2818861293a565b90506129f1606083018761297d565b6129fe608083018661297d565b612a0b60a0830185612998565b612a1860c0830184612998565b98975050505050505050565b600081519050919050565b600082825260208201905092915050565b6000819050602082019050919050565b600082825260208201905092915050565b6000612a6c826128da565b612a768185612a50565b9350612a868185602086016128f6565b612a8f81612929565b840191505092915050565b6000612aa68383612a61565b905092915050565b6000602082019050919050565b6000612ac682612a24565b612ad08185612a2f565b935083602082028501612ae285612a40565b8060005b85811015612b1e5784840389528151612aff8582612a9a565b9450612b0a83612aae565b925060208a01995050600181019050612ae6565b50829750879550505050505092915050565b60006020820190508181036000830152612b4a8184612abb565b905092915050565b60006020820190508181036000830152612b6c818461293a565b905092915050565b612b7d81612973565b8114612b8857600080fd5b50565b600081359050612b9a81612b74565b92915050565b600060208284031215612bb657612bb5612836565b5b6000612bc484828501612b8b565b91505092915050565b6000602082019050612be26000830184612998565b92915050565b6000602082019050612bfd60008301846128cb565b92915050565b600060ff82169050919050565b612c1981612c03565b8114612c2457600080fd5b50565b600081359050612c3681612c10565b92915050565b600060208284031215612c5257612c51612836565b5b6000612c6084828501612c27565b91505092915050565b612c7281612c03565b82525050565b6000602082019050612c8d6000830184612c69565b92915050565b6000602082019050612ca8600083018461297d565b92915050565b600080fd5b600080fd5b7f4e487b7100000000000000000000000000000000000000000000000000000000600052604160045260246000fd5b612cf082612929565b810181811067ffffffffffffffff82111715612d0f57612d0e612cb8565b5b80604052505050565b6000612d2261282c565b9050612d2e8282612ce7565b919050565b600067ffffffffffffffff821115612d4e57612d4d612cb8565b5b612d5782612929565b9050602081019050919050565b82818337600083830152505050565b6000612d86612d8184612d33565b612d18565b905082815260208101848484011115612da257612da1612cb3565b5b612dad848285612d64565b509392505050565b600082601f830112612dca57612dc9612cae565b5b8135612dda848260208601612d73565b91505092915050565b600080600060608486031215612dfc57612dfb612836565b5b600084013567ffffffffffffffff811115612e1a57612e1961283b565b5b612e2686828701612db5565b935050602084013567ffffffffffffffff811115612e4757612e4661283b565b5b612e5386828701612db5565b9250506040612e6486828701612b8b565b9150509250925092565b612e778161298c565b8114612e8257600080fd5b50565b600081359050612e9481612e6e565b92915050565b60008060408385031215612eb157612eb0612836565b5b6000612ebf85828601612e85565b9250506020612ed085828601612889565b9150509250929050565b600060c082019050612eef60008301896128cb565b8181036020830152612f01818861293a565b90508181036040830152612f15818761293a565b9050612f246060830186612998565b612f316080830185612998565b612f3e60a0830184612998565b979650505050505050565b60008060408385031215612f6057612f5f612836565b5b6000612f6e85828601612889565b9250506020612f7f85828601612c27565b9150509250929050565b600067ffffffffffffffff821115612fa457612fa3612cb8565b5b602082029050602081019050919050565b600080fd5b6000612fcd612fc884612f89565b612d18565b90508083825260208201905060208402830185811115612ff057612fef612fb5565b5b835b8181101561303757803567ffffffffffffffff81111561301557613014612cae565b5b8086016130228982612db5565b85526020850194505050602081019050612ff2565b5050509392505050565b600082601f83011261305657613055612cae565b5b8135613066848260208601612fba565b91505092915050565b60008060008060008060008060006101208a8c03121561309257613091612836565b5b60008a013567ffffffffffffffff8111156130b0576130af61283b565b5b6130bc8c828d01612db5565b99505060208a013567ffffffffffffffff8111156130dd576130dc61283b565b5b6130e98c828d01612db5565b98505060408a013567ffffffffffffffff81111561310a5761310961283b565b5b6131168c828d01612db5565b97505060608a013567ffffffffffffffff8111156131375761313661283b565b5b6131438c828d01612db5565b96505060806131548c828d01612b8b565b95505060a06131658c828d01612b8b565b94505060c06131768c828d01612b8b565b93505060e06131878c828d01612b8b565b9250506101008a013567ffffffffffffffff8111156131a9576131a861283b565b5b6131b58c828d01613041565b9150509295985092959850929598565b600081519050919050565b600082825260208201905092915050565b6000819050602082019050919050565b6131fa81612860565b82525050565b61320981612973565b82525050565b6132188161298c565b82525050565b600060e08301600083015161323660008601826131f1565b506020830151848203602086015261324e8282612a61565b915050604083015184820360408601526132688282612a61565b915050606083015161327d6060860182613200565b5060808301516132906080860182613200565b5060a08301516132a360a086018261320f565b5060c08301516132b660c086018261320f565b508091505092915050565b60006132cd838361321e565b905092915050565b6000602082019050919050565b60006132ed826131c5565b6132f781856131d0565b935083602082028501613309856131e1565b8060005b85811015613345578484038952815161332685826132c1565b9450613331836132d5565b925060208a0199505060018101905061330d565b50829750879550505050505092915050565b6000602082019050818103600083015261337181846132e2565b905092915050565b600080604083850312156133905761338f612836565b5b600083013567ffffffffffffffff8111156133ae576133ad61283b565b5b6133ba85828601612db5565b925050602083013567ffffffffffffffff8111156133db576133da61283b565b5b6133e785828601612db5565b9150509250929050565b7f4e487b7100000000000000000000000000000000000000000000000000000000600052602260045260246000fd5b6000600282049050600182168061343857607f821691505b6020821081141561344c5761344b6133f1565b5b50919050565b7f4e487b7100000000000000000000000000000000000000000000000000000000600052603260045260246000fd5b7f4e487b7100000000000000000000000000000000000000000000000000000000600052601160045260246000fd5b60006134bb82612973565b91507fffffffffffffffffffffffffffffffffffffffffffffffffffffffffffffffff8214156134ee576134ed613481565b5b600182019050919050565b600061350482612c03565b915060ff82141561351857613517613481565b5b600182019050919050565b7f526567697374726174696f6e206973206e6f7420737461727465642079657400600082015250565b6000613559601f836128e5565b915061356482613523565b602082019050919050565b600060208201905081810360008301526135888161354c565b9050919050565b7f526567697374726174696f6e20697320616c726561647920656e6465642e0000600082015250565b60006135c5601e836128e5565b91506135d08261358f565b602082019050919050565b600060208201905081810360008301526135f4816135b8565b9050919050565b7f566f74696e67206973206e6f7420737461727465642079657400000000000000600082015250565b60006136316019836128e5565b915061363c826135fb565b602082019050919050565b6000602082019050818103600083015261366081613624565b9050919050565b7f566f74696e6720697320616c726561647920656e646564000000000000000000600082015250565b600061369d6017836128e5565b91506136a882613667565b602082019050919050565b600060208201905081810360008301526136cc81613690565b9050919050565b7f596f75206861766520616c726561647920766f74656420746f20656c6563746960008201527f6f6e207469746c65000000000000000000000000000000000000000000000000602082015250565b600061372f6028836128e5565b915061373a826136d3565b604082019050919050565b6000602082019050818103600083015261375e81613722565b9050919050565b600061377082612973565b915061377b83612973565b9250827fffffffffffffffffffffffffffffffffffffffffffffffffffffffffffffffff038211156137b0576137af613481565b5b82820190509291505056fea264697066735822122012754f6f47d855fb0dc2fe814582847c288e2c5c116578cd7b4fd3a53989858464736f6c634300080b0033",
  "linkReferences": {},
  "deployedLinkReferences": {}
}