{
  "_format": "hh-sol-artifact-1",
  "contractName": "Election",
  "sourceName": "contracts/Election.sol",
  "abi": [
    {
      "inputs": [],
      "stateMutability": "nonpayable",
      "type": "constructor"
    },
    {
      "inputs": [],
      "name": "admin",
      "outputs": [
        {
          "internalType": "address",
          "name": "",
          "type": "address"
        }
      ],
      "stateMutability": "view",
      "type": "function"
    },
    {
      "inputs": [
        {
          "internalType": "uint256",
          "name": "",
          "type": "uint256"
        }
      ],
      "name": "approvedCandidates",
      "outputs": [
        {
          "internalType": "address",
          "name": "",
          "type": "address"
        }
      ],
      "stateMutability": "view",
      "type": "function"
    },
    {
      "inputs": [
        {
          "internalType": "uint256",
          "name": "",
          "type": "uint256"
        }
      ],
      "name": "approvedVoters",
      "outputs": [
        {
          "internalType": "address",
          "name": "",
          "type": "address"
        }
      ],
      "stateMutability": "view",
      "type": "function"
    },
    {
      "inputs": [
        {
          "internalType": "address",
          "name": "",
          "type": "address"
        }
      ],
      "name": "candidateDetails",
      "outputs": [
        {
          "internalType": "uint8",
          "name": "candidateId",
          "type": "uint8"
        },
        {
          "internalType": "address",
          "name": "candidateAddress",
          "type": "address"
        },
        {
          "internalType": "string",
          "name": "header",
          "type": "string"
        },
        {
          "internalType": "string",
          "name": "slogan",
          "type": "string"
        },
        {
          "internalType": "uint256",
          "name": "electionTitleIndex",
          "type": "uint256"
        },
        {
          "internalType": "uint256",
          "name": "voteCount",
          "type": "uint256"
        },
        {
          "internalType": "bool",
          "name": "isVerified",
          "type": "bool"
        },
        {
          "internalType": "bool",
          "name": "isRegistered",
          "type": "bool"
        }
      ],
      "stateMutability": "view",
      "type": "function"
    },
    {
      "inputs": [
        {
          "internalType": "uint256",
          "name": "",
          "type": "uint256"
        }
      ],
      "name": "candidates",
      "outputs": [
        {
          "internalType": "address",
          "name": "",
          "type": "address"
        }
      ],
      "stateMutability": "view",
      "type": "function"
    },
    {
      "inputs": [],
      "name": "getAdmin",
      "outputs": [
        {
          "internalType": "address",
          "name": "",
          "type": "address"
        }
      ],
      "stateMutability": "view",
      "type": "function"
    },
    {
      "inputs": [],
      "name": "getAdminEmail",
      "outputs": [
        {
          "internalType": "string",
          "name": "",
          "type": "string"
        }
      ],
      "stateMutability": "view",
      "type": "function"
    },
    {
      "inputs": [],
      "name": "getAdminName",
      "outputs": [
        {
          "internalType": "string",
          "name": "",
          "type": "string"
        }
      ],
      "stateMutability": "view",
      "type": "function"
    },
    {
      "inputs": [],
      "name": "getAdminTitle",
      "outputs": [
        {
          "internalType": "string",
          "name": "",
          "type": "string"
        }
      ],
      "stateMutability": "view",
      "type": "function"
    },
    {
      "inputs": [
        {
          "internalType": "address",
          "name": "_currentAddress",
          "type": "address"
        }
      ],
      "name": "getAlreadyRegisteredCandidateStatus",
      "outputs": [
        {
          "internalType": "bool",
          "name": "",
          "type": "bool"
        }
      ],
      "stateMutability": "view",
      "type": "function"
    },
    {
      "inputs": [
        {
          "internalType": "uint8",
          "name": "_electionTitleIndex",
          "type": "uint8"
        }
      ],
      "name": "getCandidateCountForAsscociatedElection",
      "outputs": [
        {
          "internalType": "uint8",
          "name": "",
          "type": "uint8"
        }
      ],
      "stateMutability": "view",
      "type": "function"
    },
    {
      "inputs": [
        {
          "internalType": "uint8",
          "name": "_electionTitleIndex",
          "type": "uint8"
        }
      ],
      "name": "getCandidatesForAssociatedElections",
      "outputs": [
        {
          "components": [
            {
              "internalType": "uint8",
              "name": "candidateId",
              "type": "uint8"
            },
            {
              "internalType": "address",
              "name": "candidateAddress",
              "type": "address"
            },
            {
              "internalType": "string",
              "name": "header",
              "type": "string"
            },
            {
              "internalType": "string",
              "name": "slogan",
              "type": "string"
            },
            {
              "internalType": "uint256",
              "name": "electionTitleIndex",
              "type": "uint256"
            },
            {
              "internalType": "uint256",
              "name": "voteCount",
              "type": "uint256"
            },
            {
              "internalType": "bool",
              "name": "isVerified",
              "type": "bool"
            },
            {
              "internalType": "bool",
              "name": "isRegistered",
              "type": "bool"
            }
          ],
          "internalType": "struct Election.Candidate[]",
          "name": "",
          "type": "tuple[]"
        }
      ],
      "stateMutability": "view",
      "type": "function"
    },
    {
      "inputs": [
        {
          "internalType": "uint256",
          "name": "_timeStamp",
          "type": "uint256"
        }
      ],
      "name": "getElectionEndedStatus",
      "outputs": [
        {
          "internalType": "bool",
          "name": "",
          "type": "bool"
        }
      ],
      "stateMutability": "view",
      "type": "function"
    },
    {
      "inputs": [],
      "name": "getElectionInitStatus",
      "outputs": [
        {
          "internalType": "bool",
          "name": "",
          "type": "bool"
        }
      ],
      "stateMutability": "view",
      "type": "function"
    },
    {
      "inputs": [],
      "name": "getElectionSlogans",
      "outputs": [
        {
          "internalType": "string[]",
          "name": "",
          "type": "string[]"
        }
      ],
      "stateMutability": "view",
      "type": "function"
    },
    {
      "inputs": [
        {
          "internalType": "uint256",
          "name": "_timeStamp",
          "type": "uint256"
        }
      ],
      "name": "getElectionStatus",
      "outputs": [
        {
          "internalType": "bool",
          "name": "",
          "type": "bool"
        }
      ],
      "stateMutability": "view",
      "type": "function"
    },
    {
      "inputs": [],
      "name": "getElectionTitles",
      "outputs": [
        {
          "internalType": "string[]",
          "name": "",
          "type": "string[]"
        }
      ],
      "stateMutability": "view",
      "type": "function"
    },
    {
      "inputs": [],
      "name": "getOrganizationTitle",
      "outputs": [
        {
          "internalType": "string",
          "name": "",
          "type": "string"
        }
      ],
      "stateMutability": "view",
      "type": "function"
    },
    {
      "inputs": [],
      "name": "getRegistrationEndTime",
      "outputs": [
        {
          "internalType": "uint256",
          "name": "",
          "type": "uint256"
        }
      ],
      "stateMutability": "view",
      "type": "function"
    },
    {
      "inputs": [
        {
          "internalType": "uint256",
          "name": "_timeStamp",
          "type": "uint256"
        }
      ],
      "name": "getRegistrationEndedStatus",
      "outputs": [
        {
          "internalType": "bool",
          "name": "",
          "type": "bool"
        }
      ],
      "stateMutability": "view",
      "type": "function"
    },
    {
      "inputs": [],
      "name": "getRegistrationStartTime",
      "outputs": [
        {
          "internalType": "uint256",
          "name": "",
          "type": "uint256"
        }
      ],
      "stateMutability": "view",
      "type": "function"
    },
    {
      "inputs": [
        {
          "internalType": "uint256",
          "name": "_timeStamp",
          "type": "uint256"
        }
      ],
      "name": "getRegistrationStartedStatus",
      "outputs": [
        {
          "internalType": "bool",
          "name": "",
          "type": "bool"
        }
      ],
      "stateMutability": "view",
      "type": "function"
    },
    {
      "inputs": [
        {
          "internalType": "uint256",
          "name": "_timeStamp",
          "type": "uint256"
        }
      ],
      "name": "getRegistrationStatus",
      "outputs": [
        {
          "internalType": "bool",
          "name": "",
          "type": "bool"
        }
      ],
      "stateMutability": "view",
      "type": "function"
    },
    {
      "inputs": [],
      "name": "getRejectedCandidates",
      "outputs": [
        {
          "internalType": "uint256",
          "name": "",
          "type": "uint256"
        }
      ],
      "stateMutability": "view",
      "type": "function"
    },
    {
      "inputs": [],
      "name": "getRejectedVoters",
      "outputs": [
        {
          "internalType": "uint256",
          "name": "",
          "type": "uint256"
        }
      ],
      "stateMutability": "view",
      "type": "function"
    },
    {
      "inputs": [],
      "name": "getUnVerifiedCandidates",
      "outputs": [
        {
          "internalType": "uint256",
          "name": "",
          "type": "uint256"
        }
      ],
      "stateMutability": "view",
      "type": "function"
    },
    {
      "inputs": [],
      "name": "getUnVerifiedVoters",
      "outputs": [
        {
          "internalType": "uint256",
          "name": "",
          "type": "uint256"
        }
      ],
      "stateMutability": "view",
      "type": "function"
    },
    {
      "inputs": [],
      "name": "getVerifiedCandidates",
      "outputs": [
        {
          "internalType": "uint256",
          "name": "",
          "type": "uint256"
        }
      ],
      "stateMutability": "view",
      "type": "function"
    },
    {
      "inputs": [],
      "name": "getVerifiedVoters",
      "outputs": [
        {
          "internalType": "uint256",
          "name": "",
          "type": "uint256"
        }
      ],
      "stateMutability": "view",
      "type": "function"
    },
    {
      "inputs": [],
      "name": "getVoterElectionTitles",
      "outputs": [
        {
          "internalType": "uint8[]",
          "name": "",
          "type": "uint8[]"
        }
      ],
      "stateMutability": "view",
      "type": "function"
    },
    {
      "inputs": [
        {
          "internalType": "address",
          "name": "_currentAddress",
          "type": "address"
        }
      ],
      "name": "getVoterStatusForCandidate",
      "outputs": [
        {
          "internalType": "bool",
          "name": "",
          "type": "bool"
        }
      ],
      "stateMutability": "view",
      "type": "function"
    },
    {
      "inputs": [],
      "name": "getVotingEndTime",
      "outputs": [
        {
          "internalType": "uint256",
          "name": "",
          "type": "uint256"
        }
      ],
      "stateMutability": "view",
      "type": "function"
    },
    {
      "inputs": [],
      "name": "getVotingStartTime",
      "outputs": [
        {
          "internalType": "uint256",
          "name": "",
          "type": "uint256"
        }
      ],
      "stateMutability": "view",
      "type": "function"
    },
    {
      "inputs": [
        {
          "internalType": "uint256",
          "name": "_electionTitleIndex",
          "type": "uint256"
        }
      ],
      "name": "getWinnerCandidate",
      "outputs": [
        {
          "internalType": "address",
          "name": "",
          "type": "address"
        }
      ],
      "stateMutability": "view",
      "type": "function"
    },
    {
      "inputs": [
        {
          "internalType": "uint8[]",
          "name": "electionTitleList",
          "type": "uint8[]"
        },
        {
          "internalType": "uint8",
          "name": "item",
          "type": "uint8"
        }
      ],
      "name": "iselectionTitleIndexInList",
      "outputs": [
        {
          "internalType": "bool",
          "name": "",
          "type": "bool"
        }
      ],
      "stateMutability": "pure",
      "type": "function"
    },
    {
      "inputs": [
        {
          "internalType": "string",
          "name": "_header",
          "type": "string"
        },
        {
          "internalType": "string",
          "name": "_slogan",
          "type": "string"
        },
        {
          "internalType": "uint256",
          "name": "_electionTitleIndex",
          "type": "uint256"
        }
      ],
      "name": "registerAsCandidate",
      "outputs": [],
      "stateMutability": "nonpayable",
      "type": "function"
    },
    {
      "inputs": [
        {
          "internalType": "string",
          "name": "_name",
          "type": "string"
        },
        {
          "internalType": "string",
          "name": "_phone",
          "type": "string"
        }
      ],
      "name": "registerAsVoter",
      "outputs": [],
      "stateMutability": "nonpayable",
      "type": "function"
    },
    {
      "inputs": [
        {
          "internalType": "address",
          "name": "candidateAddress",
          "type": "address"
        },
        {
          "internalType": "string",
          "name": "message",
          "type": "string"
        }
      ],
      "name": "rejectCandidate",
      "outputs": [],
      "stateMutability": "nonpayable",
      "type": "function"
    },
    {
      "inputs": [
        {
          "internalType": "address",
          "name": "voterAddress",
          "type": "address"
        },
        {
          "internalType": "string",
          "name": "message",
          "type": "string"
        }
      ],
      "name": "rejectVoter",
      "outputs": [],
      "stateMutability": "nonpayable",
      "type": "function"
    },
    {
      "inputs": [
        {
          "internalType": "address",
          "name": "",
          "type": "address"
        }
      ],
      "name": "rejectedCandidateDetails",
      "outputs": [
        {
          "internalType": "uint8",
          "name": "candidateId",
          "type": "uint8"
        },
        {
          "internalType": "address",
          "name": "candidateAddress",
          "type": "address"
        },
        {
          "internalType": "string",
          "name": "header",
          "type": "string"
        },
        {
          "internalType": "string",
          "name": "slogan",
          "type": "string"
        },
        {
          "internalType": "string",
          "name": "message",
          "type": "string"
        }
      ],
      "stateMutability": "view",
      "type": "function"
    },
    {
      "inputs": [
        {
          "internalType": "uint256",
          "name": "",
          "type": "uint256"
        }
      ],
      "name": "rejectedCandidates",
      "outputs": [
        {
          "internalType": "address",
          "name": "",
          "type": "address"
        }
      ],
      "stateMutability": "view",
      "type": "function"
    },
    {
      "inputs": [
        {
          "internalType": "address",
          "name": "",
          "type": "address"
        }
      ],
      "name": "rejectedVoterDetails",
      "outputs": [
        {
          "internalType": "address",
          "name": "voterAddress",
          "type": "address"
        },
        {
          "internalType": "string",
          "name": "name",
          "type": "string"
        },
        {
          "internalType": "string",
          "name": "phone",
          "type": "string"
        },
        {
          "internalType": "string",
          "name": "message",
          "type": "string"
        }
      ],
      "stateMutability": "view",
      "type": "function"
    },
    {
      "inputs": [
        {
          "internalType": "uint256",
          "name": "",
          "type": "uint256"
        }
      ],
      "name": "rejectedVoters",
      "outputs": [
        {
          "internalType": "address",
          "name": "",
          "type": "address"
        }
      ],
      "stateMutability": "view",
      "type": "function"
    },
    {
      "inputs": [
        {
          "internalType": "string",
          "name": "_adminName",
          "type": "string"
        },
        {
          "internalType": "string",
          "name": "_adminEmail",
          "type": "string"
        },
        {
          "internalType": "string",
          "name": "_adminTitle",
          "type": "string"
        },
        {
          "internalType": "string",
          "name": "_organizationTitle",
          "type": "string"
        },
        {
          "internalType": "uint256",
          "name": "_votingStartTime",
          "type": "uint256"
        },
        {
          "internalType": "uint256",
          "name": "_votingEndTime",
          "type": "uint256"
        },
        {
          "internalType": "uint256",
          "name": "_registrationStartTime",
          "type": "uint256"
        },
        {
          "internalType": "uint256",
          "name": "_registrationEndTime",
          "type": "uint256"
        },
        {
          "internalType": "string[]",
          "name": "_elections",
          "type": "string[]"
        },
        {
          "internalType": "string[]",
          "name": "_slogans",
          "type": "string[]"
        }
      ],
      "name": "setElectionDetails",
      "outputs": [],
      "stateMutability": "nonpayable",
      "type": "function"
    },
    {
      "inputs": [
        {
          "internalType": "bool",
          "name": "_verifedStatus",
          "type": "bool"
        },
        {
          "internalType": "address",
          "name": "candidateAddress",
          "type": "address"
        }
      ],
      "name": "verifyCandidate",
      "outputs": [],
      "stateMutability": "nonpayable",
      "type": "function"
    },
    {
      "inputs": [
        {
          "internalType": "bool",
          "name": "_verifedStatus",
          "type": "bool"
        },
        {
          "internalType": "address",
          "name": "voterAddress",
          "type": "address"
        }
      ],
      "name": "verifyVoter",
      "outputs": [],
      "stateMutability": "nonpayable",
      "type": "function"
    },
    {
      "inputs": [
        {
          "internalType": "address",
          "name": "_candidateAddress",
          "type": "address"
        },
        {
          "internalType": "uint8",
          "name": "_electionTitleIndex",
          "type": "uint8"
        }
      ],
      "name": "vote",
      "outputs": [],
      "stateMutability": "nonpayable",
      "type": "function"
    },
    {
      "inputs": [
        {
          "internalType": "address",
          "name": "",
          "type": "address"
        }
      ],
      "name": "voterDetails",
      "outputs": [
        {
          "internalType": "address",
          "name": "voterAddress",
          "type": "address"
        },
        {
          "internalType": "string",
          "name": "name",
          "type": "string"
        },
        {
          "internalType": "string",
          "name": "phone",
          "type": "string"
        },
        {
          "internalType": "bool",
          "name": "isVerified",
          "type": "bool"
        },
        {
          "internalType": "bool",
          "name": "hasVoted",
          "type": "bool"
        },
        {
          "internalType": "bool",
          "name": "isRegistered",
          "type": "bool"
        }
      ],
      "stateMutability": "view",
      "type": "function"
    },
    {
      "inputs": [
        {
          "internalType": "uint256",
          "name": "",
          "type": "uint256"
        }
      ],
      "name": "voters",
      "outputs": [
        {
          "internalType": "address",
          "name": "",
          "type": "address"
        }
      ],
      "stateMutability": "view",
      "type": "function"
    }
  ],
  "bytecode": "0x608060405234801561001057600080fd5b5033600060016101000a81548173ffffffffffffffffffffffffffffffffffffffff021916908373ffffffffffffffffffffffffffffffffffffffff16021790555060008060156101000a81548160ff021916908360ff16021790555060008060006101000a81548160ff0219169083151502179055506000600b819055506000600c819055506000600d819055506000600e819055506151aa806100b66000396000f3fe608060405234801561001057600080fd5b50600436106102bb5760003560e01c8063831318f111610182578063d0980f20116100e9578063dd698f90116100a2578063f33a18801161007c578063f33a188014610973578063f33a8a7314610991578063f851a440146109c1578063fee0d19a146109df576102bb565b8063dd698f9014610919578063df1c84ef14610937578063df6d278414610955576102bb565b8063d0980f2014610808578063d22bc83814610838578063d2fdf16f1461086b578063d4ecadb81461089b578063da58c7d9146108cb578063dc973d50146108fb576102bb565b8063bceb514d1161013b578063bceb514d14610746578063be081b6f14610762578063c041da3114610780578063c784d2131461079e578063cad43b48146107bc578063cfe0c7fc146107d8576102bb565b8063831318f11461066c5780638709b71b1461068a578063aed93010146106a6578063b0891aa4146106d6578063b1bf87b01461070a578063b54e629a14610728576102bb565b80634a2846a8116102265780635fcdd8a1116101df5780635fcdd8a11461058257806364ca6938146105b25780636a82ee51146105e25780636e9960c314610600578063739a95f81461061e5780637d6605351461063c576102bb565b80634a2846a8146104ad5780634c652fc6146104c9578063506b8e0a146104e55780635938750d1461050157806359632c22146105365780635e894b1214610552576102bb565b80633477ee2e116102785780633477ee2e146103b1578063399f694d146103e15780633afa3e07146104115780633f66f48b1461044157806347eaa1d914610471578063483431751461048f576102bb565b806305e73ced146102c05780630712aa05146102f75780630e2354cf1461031557806319c5c5071461033357806324785b9e146103635780632d0f7eef14610393575b600080fd5b6102da60048036038101906102d59190613d6b565b6109fb565b6040516102ee989796959493929190613e90565b60405180910390f35b6102ff610b9a565b60405161030c9190614028565b60405180910390f35b61031d610cec565b60405161032a919061404a565b60405180910390f35b61034d60048036038101906103489190614098565b610d81565b60405161035a91906140c5565b60405180910390f35b61037d60048036038101906103789190614098565b610db4565b60405161038a91906140c5565b60405180910390f35b61039b610de7565b6040516103a891906140e0565b60405180910390f35b6103cb60048036038101906103c69190614098565b610df4565b6040516103d891906140fb565b60405180910390f35b6103fb60048036038101906103f69190614142565b610e33565b604051610408919061416f565b60405180910390f35b61042b60048036038101906104269190614098565b610f01565b60405161043891906140fb565b60405180910390f35b61045b60048036038101906104569190614098565b610f40565b60405161046891906140fb565b60405180910390f35b610479610f7f565b60405161048691906140e0565b60405180910390f35b610497610f8c565b6040516104a4919061404a565b60405180910390f35b6104c760048036038101906104c291906142bf565b611021565b005b6104e360048036038101906104de919061431b565b611521565b005b6104ff60048036038101906104fa91906143d2565b6117f1565b005b61051b60048036038101906105169190613d6b565b61190c565b60405161052d96959493929190614412565b60405180910390f35b610550600480360381019061054b91906142bf565b611a9f565b005b61056c60048036038101906105679190614098565b611f64565b60405161057991906140fb565b60405180910390f35b61059c60048036038101906105979190613d6b565b611fa3565b6040516105a991906140c5565b60405180910390f35b6105cc60048036038101906105c79190614549565b612052565b6040516105d991906140c5565b60405180910390f35b6105ea6120b4565b6040516105f791906140e0565b60405180910390f35b6106086120be565b60405161061591906140fb565b60405180910390f35b6106266120e7565b60405161063391906140e0565b60405180910390f35b61065660048036038101906106519190613d6b565b6120f4565b60405161066391906140c5565b60405180910390f35b6106746121a3565b604051610681919061404a565b60405180910390f35b6106a4600480360381019061069f9190614686565b612238565b005b6106c060048036038101906106bb9190614098565b612557565b6040516106cd91906140fb565b60405180910390f35b6106f060048036038101906106eb9190613d6b565b612596565b60405161070195949392919061480d565b60405180910390f35b610712612791565b60405161071f91906140e0565b60405180910390f35b61073061279b565b60405161073d91906140e0565b60405180910390f35b610760600480360381019061075b9190614875565b6127a8565b005b61076a612ad6565b604051610777919061404a565b60405180910390f35b610788612b6b565b6040516107959190614028565b60405180910390f35b6107a6612cc6565b6040516107b391906140e0565b60405180910390f35b6107d660048036038101906107d191906143d2565b612cd0565b005b6107f260048036038101906107ed9190614142565b612deb565b6040516107ff9190614a6a565b60405180910390f35b610822600480360381019061081d9190614098565b613255565b60405161082f91906140c5565b60405180910390f35b610852600480360381019061084d9190613d6b565b613283565b6040516108629493929190614a8c565b60405180910390f35b61088560048036038101906108809190614098565b61346b565b60405161089291906140c5565b60405180910390f35b6108b560048036038101906108b09190614098565b613489565b6040516108c291906140c5565b60405180910390f35b6108e560048036038101906108e09190614098565b6134bb565b6040516108f291906140fb565b60405180910390f35b6109036134fa565b60405161091091906140e0565b60405180910390f35b610921613507565b60405161092e91906140c5565b60405180910390f35b61093f61351d565b60405161094c9190614b95565b60405180910390f35b61095d6135e1565b60405161096a91906140e0565b60405180910390f35b61097b6135eb565b60405161098891906140e0565b60405180910390f35b6109ab60048036038101906109a69190614098565b6135f8565b6040516109b891906140fb565b60405180910390f35b6109c961378e565b6040516109d691906140fb565b60405180910390f35b6109f960048036038101906109f49190614bb7565b6137b4565b005b60086020528060005260406000206000915090508060000160009054906101000a900460ff16908060000160019054906101000a900473ffffffffffffffffffffffffffffffffffffffff1690806001018054610a5790614c5e565b80601f0160208091040260200160405190810160405280929190818152602001828054610a8390614c5e565b8015610ad05780601f10610aa557610100808354040283529160200191610ad0565b820191906000526020600020905b815481529060010190602001808311610ab357829003601f168201915b505050505090806002018054610ae590614c5e565b80601f0160208091040260200160405190810160405280929190818152602001828054610b1190614c5e565b8015610b5e5780601f10610b3357610100808354040283529160200191610b5e565b820191906000526020600020905b815481529060010190602001808311610b4157829003601f168201915b5050505050908060030154908060040154908060050160009054906101000a900460ff16908060050160019054906101000a900460ff16905088565b60606000600f6008018054905067ffffffffffffffff811115610bc057610bbf614194565b5b604051908082528060200260200182016040528015610bf357816020015b6060815260200190600190039081610bde5790505b50905060005b600f60080180549050811015610ce457600f6008018181548110610c2057610c1f614c90565b5b906000526020600020018054610c3590614c5e565b80601f0160208091040260200160405190810160405280929190818152602001828054610c6190614c5e565b8015610cae5780601f10610c8357610100808354040283529160200191610cae565b820191906000526020600020905b815481529060010190602001808311610c9157829003601f168201915b5050505050828281518110610cc657610cc5614c90565b5b60200260200101819052508080610cdc90614cee565b915050610bf9565b508091505090565b6060600f6000018054610cfe90614c5e565b80601f0160208091040260200160405190810160405280929190818152602001828054610d2a90614c5e565b8015610d775780601f10610d4c57610100808354040283529160200191610d77565b820191906000526020600020905b815481529060010190602001808311610d5a57829003601f168201915b5050505050905090565b600080600b548310158015610d985750600c548311155b15610da65760019050610dab565b600090505b80915050919050565b600080600d548310158015610dcb5750600e548311155b15610dd95760019050610dde565b600090505b80915050919050565b6000600680549050905090565b60028181548110610e0457600080fd5b906000526020600020016000915054906101000a900473ffffffffffffffffffffffffffffffffffffffff1681565b6000806000905060005b600480549050811015610ef7578360ff166008600060048481548110610e6657610e65614c90565b5b9060005260206000200160009054906101000a900473ffffffffffffffffffffffffffffffffffffffff1673ffffffffffffffffffffffffffffffffffffffff1673ffffffffffffffffffffffffffffffffffffffff168152602001908152602001600020600301541415610ee4578180610ee090614d37565b9250505b8080610eef90614cee565b915050610e3d565b5080915050919050565b60058181548110610f1157600080fd5b906000526020600020016000915054906101000a900473ffffffffffffffffffffffffffffffffffffffff1681565b60048181548110610f5057600080fd5b906000526020600020016000915054906101000a900473ffffffffffffffffffffffffffffffffffffffff1681565b6000600480549050905090565b6060600f6003018054610f9e90614c5e565b80601f0160208091040260200160405190810160405280929190818152602001828054610fca90614c5e565b80156110175780601f10610fec57610100808354040283529160200191611017565b820191906000526020600020905b815481529060010190602001808311610ffa57829003601f168201915b5050505050905090565b600060019054906101000a900473ffffffffffffffffffffffffffffffffffffffff1673ffffffffffffffffffffffffffffffffffffffff163373ffffffffffffffffffffffffffffffffffffffff161461107b57600080fd5b60008060005b60018054905081101561111c578473ffffffffffffffffffffffffffffffffffffffff16600182815481106110b9576110b8614c90565b5b9060005260206000200160009054906101000a900473ffffffffffffffffffffffffffffffffffffffff1673ffffffffffffffffffffffffffffffffffffffff161415611109576001925061111c565b808061111490614cee565b915050611081565b5060005b6005805490508110156111b7578473ffffffffffffffffffffffffffffffffffffffff166005828154811061115857611157614c90565b5b9060005260206000200160009054906101000a900473ffffffffffffffffffffffffffffffffffffffff1673ffffffffffffffffffffffffffffffffffffffff1614156111a457600191505b80806111af90614cee565b915050611120565b5060011515821515146111ff576040517f08c379a00000000000000000000000000000000000000000000000000000000081526004016111f690614dad565b60405180910390fd5b6000151581151514611246576040517f08c379a000000000000000000000000000000000000000000000000000000000815260040161123d90614e19565b60405180910390fd5b82600960008673ffffffffffffffffffffffffffffffffffffffff1673ffffffffffffffffffffffffffffffffffffffff168152602001908152602001600020600301908051906020019061129c9291906139fc565b50600760008573ffffffffffffffffffffffffffffffffffffffff1673ffffffffffffffffffffffffffffffffffffffff168152602001908152602001600020600101600960008673ffffffffffffffffffffffffffffffffffffffff1673ffffffffffffffffffffffffffffffffffffffff16815260200190815260200160002060010190805461132d90614c5e565b611338929190613a82565b50600760008573ffffffffffffffffffffffffffffffffffffffff1673ffffffffffffffffffffffffffffffffffffffff168152602001908152602001600020600201600960008673ffffffffffffffffffffffffffffffffffffffff1673ffffffffffffffffffffffffffffffffffffffff1681526020019081526020016000206002019080546113c990614c5e565b6113d4929190613a82565b50600760008573ffffffffffffffffffffffffffffffffffffffff1673ffffffffffffffffffffffffffffffffffffffff16815260200190815260200160002060000160009054906101000a900473ffffffffffffffffffffffffffffffffffffffff16600960008673ffffffffffffffffffffffffffffffffffffffff1673ffffffffffffffffffffffffffffffffffffffff16815260200190815260200160002060000160006101000a81548173ffffffffffffffffffffffffffffffffffffffff021916908373ffffffffffffffffffffffffffffffffffffffff1602179055506005849080600181540180825580915050600190039060005260206000200160009091909190916101000a81548173ffffffffffffffffffffffffffffffffffffffff021916908373ffffffffffffffffffffffffffffffffffffffff16021790555050505050565b600b54421015611566576040517f08c379a000000000000000000000000000000000000000000000000000000000815260040161155d90614e85565b60405180910390fd5b600c544211156115ab576040517f08c379a00000000000000000000000000000000000000000000000000000000081526004016115a290614ef1565b60405180910390fd5b6000604051806101000160405280600060159054906101000a900460ff1660ff1681526020013373ffffffffffffffffffffffffffffffffffffffff1681526020018581526020018481526020018381526020016000815260200160001515815260200160011515815250905080600860003373ffffffffffffffffffffffffffffffffffffffff1673ffffffffffffffffffffffffffffffffffffffff16815260200190815260200160002060008201518160000160006101000a81548160ff021916908360ff16021790555060208201518160000160016101000a81548173ffffffffffffffffffffffffffffffffffffffff021916908373ffffffffffffffffffffffffffffffffffffffff16021790555060408201518160010190805190602001906116dc9291906139fc565b5060608201518160020190805190602001906116f99291906139fc565b506080820151816003015560a0820151816004015560c08201518160050160006101000a81548160ff02191690831515021790555060e08201518160050160016101000a81548160ff0219169083151502179055509050506002339080600181540180825580915050600190039060005260206000200160009091909190916101000a81548173ffffffffffffffffffffffffffffffffffffffff021916908373ffffffffffffffffffffffffffffffffffffffff1602179055506001600060158282829054906101000a900460ff166117d39190614f11565b92506101000a81548160ff021916908360ff16021790555050505050565b600060019054906101000a900473ffffffffffffffffffffffffffffffffffffffff1673ffffffffffffffffffffffffffffffffffffffff163373ffffffffffffffffffffffffffffffffffffffff161461184b57600080fd5b81600760008373ffffffffffffffffffffffffffffffffffffffff1673ffffffffffffffffffffffffffffffffffffffff16815260200190815260200160002060030160006101000a81548160ff0219169083151502179055506003819080600181540180825580915050600190039060005260206000200160009091909190916101000a81548173ffffffffffffffffffffffffffffffffffffffff021916908373ffffffffffffffffffffffffffffffffffffffff1602179055505050565b60076020528060005260406000206000915090508060000160009054906101000a900473ffffffffffffffffffffffffffffffffffffffff169080600101805461195590614c5e565b80601f016020809104026020016040519081016040528092919081815260200182805461198190614c5e565b80156119ce5780601f106119a3576101008083540402835291602001916119ce565b820191906000526020600020905b8154815290600101906020018083116119b157829003601f168201915b5050505050908060020180546119e390614c5e565b80601f0160208091040260200160405190810160405280929190818152602001828054611a0f90614c5e565b8015611a5c5780601f10611a3157610100808354040283529160200191611a5c565b820191906000526020600020905b815481529060010190602001808311611a3f57829003601f168201915b5050505050908060030160009054906101000a900460ff16908060030160019054906101000a900460ff16908060030160029054906101000a900460ff16905086565b600060019054906101000a900473ffffffffffffffffffffffffffffffffffffffff1673ffffffffffffffffffffffffffffffffffffffff163373ffffffffffffffffffffffffffffffffffffffff1614611af957600080fd5b6000805b600280549050811015611b98578373ffffffffffffffffffffffffffffffffffffffff1660028281548110611b3557611b34614c90565b5b9060005260206000200160009054906101000a900473ffffffffffffffffffffffffffffffffffffffff1673ffffffffffffffffffffffffffffffffffffffff161415611b855760019150611b98565b8080611b9090614cee565b915050611afd565b506001151581151514611be0576040517f08c379a0000000000000000000000000000000000000000000000000000000008152600401611bd790614f94565b60405180910390fd5b600860008473ffffffffffffffffffffffffffffffffffffffff1673ffffffffffffffffffffffffffffffffffffffff16815260200190815260200160002060000160009054906101000a900460ff16600a60008573ffffffffffffffffffffffffffffffffffffffff1673ffffffffffffffffffffffffffffffffffffffff16815260200190815260200160002060000160006101000a81548160ff021916908360ff160217905550600860008473ffffffffffffffffffffffffffffffffffffffff1673ffffffffffffffffffffffffffffffffffffffff16815260200190815260200160002060000160019054906101000a900473ffffffffffffffffffffffffffffffffffffffff16600a60008573ffffffffffffffffffffffffffffffffffffffff1673ffffffffffffffffffffffffffffffffffffffff16815260200190815260200160002060000160016101000a81548173ffffffffffffffffffffffffffffffffffffffff021916908373ffffffffffffffffffffffffffffffffffffffff160217905550600860008473ffffffffffffffffffffffffffffffffffffffff1673ffffffffffffffffffffffffffffffffffffffff168152602001908152602001600020600101600a60008573ffffffffffffffffffffffffffffffffffffffff1673ffffffffffffffffffffffffffffffffffffffff168152602001908152602001600020600101908054611dfd90614c5e565b611e08929190613a82565b50600860008473ffffffffffffffffffffffffffffffffffffffff1673ffffffffffffffffffffffffffffffffffffffff168152602001908152602001600020600201600a60008573ffffffffffffffffffffffffffffffffffffffff1673ffffffffffffffffffffffffffffffffffffffff168152602001908152602001600020600201908054611e9990614c5e565b611ea4929190613a82565b5081600a60008573ffffffffffffffffffffffffffffffffffffffff1673ffffffffffffffffffffffffffffffffffffffff1681526020019081526020016000206003019080519060200190611efb9291906139fc565b506006839080600181540180825580915050600190039060005260206000200160009091909190916101000a81548173ffffffffffffffffffffffffffffffffffffffff021916908373ffffffffffffffffffffffffffffffffffffffff160217905550505050565b60068181548110611f7457600080fd5b906000526020600020016000915054906101000a900473ffffffffffffffffffffffffffffffffffffffff1681565b6000806000905060005b6003805490508110156120485760038181548110611fce57611fcd614c90565b5b9060005260206000200160009054906101000a900473ffffffffffffffffffffffffffffffffffffffff1673ffffffffffffffffffffffffffffffffffffffff168473ffffffffffffffffffffffffffffffffffffffff1614156120355760019150612048565b808061204090614cee565b915050611fad565b5080915050919050565b600080600090505b83518110156120a8578260ff1684828151811061207a57612079614c90565b5b602002602001015160ff1614156120955760019150506120ae565b80806120a090614cee565b91505061205a565b50600090505b92915050565b6000600d54905090565b60008060019054906101000a900473ffffffffffffffffffffffffffffffffffffffff16905090565b6000600180549050905090565b6000806000905060005b600280549050811015612199576002818154811061211f5761211e614c90565b5b9060005260206000200160009054906101000a900473ffffffffffffffffffffffffffffffffffffffff1673ffffffffffffffffffffffffffffffffffffffff168473ffffffffffffffffffffffffffffffffffffffff1614156121865760019150612199565b808061219190614cee565b9150506120fe565b5080915050919050565b6060600f60010180546121b590614c5e565b80601f01602080910402602001604051908101604052809291908181526020018280546121e190614c5e565b801561222e5780601f106122035761010080835404028352916020019161222e565b820191906000526020600020905b81548152906001019060200180831161221157829003601f168201915b5050505050905090565b600060019054906101000a900473ffffffffffffffffffffffffffffffffffffffff1673ffffffffffffffffffffffffffffffffffffffff163373ffffffffffffffffffffffffffffffffffffffff161461229257600080fd5b6000825167ffffffffffffffff8111156122af576122ae614194565b5b6040519080825280602002602001820160405280156122e257816020015b60608152602001906001900390816122cd5790505b50905060005b835181101561233d5783818151811061230457612303614c90565b5b602002602001015182828151811061231f5761231e614c90565b5b6020026020010181905250808061233590614cee565b9150506122e8565b506000825167ffffffffffffffff81111561235b5761235a614194565b5b60405190808252806020026020018201604052801561238e57816020015b60608152602001906001900390816123795790505b50905060005b83518110156123e9578381815181106123b0576123af614c90565b5b60200260200101518282815181106123cb576123ca614c90565b5b602002602001018190525080806123e190614cee565b915050612394565b5060006040518061014001604052808e81526020018d81526020018c81526020018b81526020018a815260200189815260200188815260200187815260200184815260200183815250905080600f60008201518160000190805190602001906124539291906139fc565b5060208201518160010190805190602001906124709291906139fc565b50604082015181600201908051906020019061248d9291906139fc565b5060608201518160030190805190602001906124aa9291906139fc565b506080820151816004015560a0820151816005015560c0820151816006015560e082015181600701556101008201518160080190805190602001906124f0929190613b0f565b5061012082015181600901908051906020019061250e929190613b0f565b5090505060016000806101000a81548160ff02191690831515021790555086600b8190555085600c8190555088600d8190555087600e8190555050505050505050505050505050565b6003818154811061256757600080fd5b906000526020600020016000915054906101000a900473ffffffffffffffffffffffffffffffffffffffff1681565b600a6020528060005260406000206000915090508060000160009054906101000a900460ff16908060000160019054906101000a900473ffffffffffffffffffffffffffffffffffffffff16908060010180546125f290614c5e565b80601f016020809104026020016040519081016040528092919081815260200182805461261e90614c5e565b801561266b5780601f106126405761010080835404028352916020019161266b565b820191906000526020600020905b81548152906001019060200180831161264e57829003601f168201915b50505050509080600201805461268090614c5e565b80601f01602080910402602001604051908101604052809291908181526020018280546126ac90614c5e565b80156126f95780601f106126ce576101008083540402835291602001916126f9565b820191906000526020600020905b8154815290600101906020018083116126dc57829003601f168201915b50505050509080600301805461270e90614c5e565b80601f016020809104026020016040519081016040528092919081815260200182805461273a90614c5e565b80156127875780601f1061275c57610100808354040283529160200191612787565b820191906000526020600020905b81548152906001019060200180831161276a57829003601f168201915b5050505050905085565b6000600e54905090565b6000600380549050905090565b600d544210156127ed576040517f08c379a00000000000000000000000000000000000000000000000000000000081526004016127e490615000565b60405180910390fd5b600e54421115612832576040517f08c379a00000000000000000000000000000000000000000000000000000000081526004016128299061506c565b60405180910390fd5b60006128f4600760003373ffffffffffffffffffffffffffffffffffffffff1673ffffffffffffffffffffffffffffffffffffffff1681526020019081526020016000206004018054806020026020016040519081016040528092919081815260200182805480156128e957602002820191906000526020600020906000905b82829054906101000a900460ff1660ff16815260200190600101906020826000010492830192600103820291508084116128b25790505b505050505083612052565b90508015612937576040517f08c379a000000000000000000000000000000000000000000000000000000000815260040161292e906150fe565b60405180910390fd5b60011515600760003373ffffffffffffffffffffffffffffffffffffffff1673ffffffffffffffffffffffffffffffffffffffff16815260200190815260200160002060030160009054906101000a900460ff1615151461299757600080fd5b6001600860008573ffffffffffffffffffffffffffffffffffffffff1673ffffffffffffffffffffffffffffffffffffffff16815260200190815260200160002060040160008282546129ea919061511e565b925050819055506001600760003373ffffffffffffffffffffffffffffffffffffffff1673ffffffffffffffffffffffffffffffffffffffff16815260200190815260200160002060030160016101000a81548160ff021916908315150217905550600760003373ffffffffffffffffffffffffffffffffffffffff1673ffffffffffffffffffffffffffffffffffffffff1681526020019081526020016000206004018290806001815401808255809150506001900390600052602060002090602091828204019190069091909190916101000a81548160ff021916908360ff160217905550505050565b6060600f6002018054612ae890614c5e565b80601f0160208091040260200160405190810160405280929190818152602001828054612b1490614c5e565b8015612b615780601f10612b3657610100808354040283529160200191612b61565b820191906000526020600020905b815481529060010190602001808311612b4457829003601f168201915b5050505050905090565b60606000600f6009018054905067ffffffffffffffff811115612b9157612b90614194565b5b604051908082528060200260200182016040528015612bc457816020015b6060815260200190600190039081612baf5790505b50905060005b600f600901805490508160ff161015612cbe57600f6009018160ff1681548110612bf757612bf6614c90565b5b906000526020600020018054612c0c90614c5e565b80601f0160208091040260200160405190810160405280929190818152602001828054612c3890614c5e565b8015612c855780601f10612c5a57610100808354040283529160200191612c85565b820191906000526020600020905b815481529060010190602001808311612c6857829003601f168201915b5050505050828260ff1681518110612ca057612c9f614c90565b5b60200260200101819052508080612cb690614d37565b915050612bca565b508091505090565b6000600c54905090565b600060019054906101000a900473ffffffffffffffffffffffffffffffffffffffff1673ffffffffffffffffffffffffffffffffffffffff163373ffffffffffffffffffffffffffffffffffffffff1614612d2a57600080fd5b81600860008373ffffffffffffffffffffffffffffffffffffffff1673ffffffffffffffffffffffffffffffffffffffff16815260200190815260200160002060050160006101000a81548160ff0219169083151502179055506004819080600181540180825580915050600190039060005260206000200160009091909190916101000a81548173ffffffffffffffffffffffffffffffffffffffff021916908373ffffffffffffffffffffffffffffffffffffffff1602179055505050565b6060600060048054905067ffffffffffffffff811115612e0e57612e0d614194565b5b604051908082528060200260200182016040528015612e4757816020015b612e34613b6f565b815260200190600190039081612e2c5790505b5090506000805b600480549050811015613193578460ff166008600060048481548110612e7757612e76614c90565b5b9060005260206000200160009054906101000a900473ffffffffffffffffffffffffffffffffffffffff1673ffffffffffffffffffffffffffffffffffffffff1673ffffffffffffffffffffffffffffffffffffffff168152602001908152602001600020600301541415613180576008600060048381548110612efe57612efd614c90565b5b9060005260206000200160009054906101000a900473ffffffffffffffffffffffffffffffffffffffff1673ffffffffffffffffffffffffffffffffffffffff1673ffffffffffffffffffffffffffffffffffffffff168152602001908152602001600020604051806101000160405290816000820160009054906101000a900460ff1660ff1660ff1681526020016000820160019054906101000a900473ffffffffffffffffffffffffffffffffffffffff1673ffffffffffffffffffffffffffffffffffffffff1673ffffffffffffffffffffffffffffffffffffffff168152602001600182018054612ff290614c5e565b80601f016020809104026020016040519081016040528092919081815260200182805461301e90614c5e565b801561306b5780601f106130405761010080835404028352916020019161306b565b820191906000526020600020905b81548152906001019060200180831161304e57829003601f168201915b5050505050815260200160028201805461308490614c5e565b80601f01602080910402602001604051908101604052809291908181526020018280546130b090614c5e565b80156130fd5780601f106130d2576101008083540402835291602001916130fd565b820191906000526020600020905b8154815290600101906020018083116130e057829003601f168201915b5050505050815260200160038201548152602001600482015481526020016005820160009054906101000a900460ff161515151581526020016005820160019054906101000a900460ff161515151581525050838360ff168151811061316657613165614c90565b5b6020026020010181905250818061317c90614d37565b9250505b808061318b90614cee565b915050612e4e565b5060008160ff1667ffffffffffffffff8111156131b3576131b2614194565b5b6040519080825280602002602001820160405280156131ec57816020015b6131d9613b6f565b8152602001906001900390816131d15790505b50905060005b8260ff16811015613249578381815181106132105761320f614c90565b5b602002602001015182828151811061322b5761322a614c90565b5b6020026020010181905250808061324190614cee565b9150506131f2565b50809350505050919050565b60008060009050600b5483101580156132705750600c548311155b1561327a57600190505b80915050919050565b60096020528060005260406000206000915090508060000160009054906101000a900473ffffffffffffffffffffffffffffffffffffffff16908060010180546132cc90614c5e565b80601f01602080910402602001604051908101604052809291908181526020018280546132f890614c5e565b80156133455780601f1061331a57610100808354040283529160200191613345565b820191906000526020600020905b81548152906001019060200180831161332857829003601f168201915b50505050509080600201805461335a90614c5e565b80601f016020809104026020016040519081016040528092919081815260200182805461338690614c5e565b80156133d35780601f106133a8576101008083540402835291602001916133d3565b820191906000526020600020905b8154815290600101906020018083116133b657829003601f168201915b5050505050908060030180546133e890614c5e565b80601f016020809104026020016040519081016040528092919081815260200182805461341490614c5e565b80156134615780601f1061343657610100808354040283529160200191613461565b820191906000526020600020905b81548152906001019060200180831161344457829003601f168201915b5050505050905084565b60008060009050600c54831061348057600190505b80915050919050565b6000806000905060008054906101000a900460ff16156134b257600e5483106134b157600190505b5b80915050919050565b600181815481106134cb57600080fd5b906000526020600020016000915054906101000a900473ffffffffffffffffffffffffffffffffffffffff1681565b6000600280549050905090565b60008060009054906101000a900460ff16905090565b60606000600760003373ffffffffffffffffffffffffffffffffffffffff1673ffffffffffffffffffffffffffffffffffffffff1681526020019081526020016000206004018054806020026020016040519081016040528092919081815260200182805480156135d357602002820191906000526020600020906000905b82829054906101000a900460ff1660ff168152602001906001019060208260000104928301926001038202915080841161359c5790505b505050505090508091505090565b6000600b54905090565b6000600580549050905090565b60008060009050600080600090505b6004805490508110156137835784600860006004848154811061362d5761362c614c90565b5b9060005260206000200160009054906101000a900473ffffffffffffffffffffffffffffffffffffffff1673ffffffffffffffffffffffffffffffffffffffff1673ffffffffffffffffffffffffffffffffffffffff16815260200190815260200160002060030154141561377057600060086000600484815481106136b6576136b5614c90565b5b9060005260206000200160009054906101000a900473ffffffffffffffffffffffffffffffffffffffff1673ffffffffffffffffffffffffffffffffffffffff1673ffffffffffffffffffffffffffffffffffffffff1681526020019081526020016000206004015490508381111561376e57809350600482815481106137405761373f614c90565b5b9060005260206000200160009054906101000a900473ffffffffffffffffffffffffffffffffffffffff1692505b505b808061377b90614cee565b915050613607565b508092505050919050565b600060019054906101000a900473ffffffffffffffffffffffffffffffffffffffff1681565b60006040518060e001604052803373ffffffffffffffffffffffffffffffffffffffff168152602001848152602001838152602001600015158152602001600015158152602001600115158152602001600067ffffffffffffffff81111561381f5761381e614194565b5b60405190808252806020026020018201604052801561384d5781602001602082028036833780820191505090505b50815250905080600760003373ffffffffffffffffffffffffffffffffffffffff1673ffffffffffffffffffffffffffffffffffffffff16815260200190815260200160002060008201518160000160006101000a81548173ffffffffffffffffffffffffffffffffffffffff021916908373ffffffffffffffffffffffffffffffffffffffff16021790555060208201518160010190805190602001906138f69291906139fc565b5060408201518160020190805190602001906139139291906139fc565b5060608201518160030160006101000a81548160ff02191690831515021790555060808201518160030160016101000a81548160ff02191690831515021790555060a08201518160030160026101000a81548160ff02191690831515021790555060c0820151816004019080519060200190613990929190613bd1565b509050506001339080600181540180825580915050600190039060005260206000200160009091909190916101000a81548173ffffffffffffffffffffffffffffffffffffffff021916908373ffffffffffffffffffffffffffffffffffffffff160217905550505050565b828054613a0890614c5e565b90600052602060002090601f016020900481019282613a2a5760008555613a71565b82601f10613a4357805160ff1916838001178555613a71565b82800160010185558215613a71579182015b82811115613a70578251825591602001919060010190613a55565b5b509050613a7e9190613c78565b5090565b828054613a8e90614c5e565b90600052602060002090601f016020900481019282613ab05760008555613afe565b82601f10613ac15780548555613afe565b82800160010185558215613afe57600052602060002091601f016020900482015b82811115613afd578254825591600101919060010190613ae2565b5b509050613b0b9190613c78565b5090565b828054828255906000526020600020908101928215613b5e579160200282015b82811115613b5d578251829080519060200190613b4d9291906139fc565b5091602001919060010190613b2f565b5b509050613b6b9190613c95565b5090565b604051806101000160405280600060ff168152602001600073ffffffffffffffffffffffffffffffffffffffff168152602001606081526020016060815260200160008152602001600081526020016000151581526020016000151581525090565b82805482825590600052602060002090601f01602090048101928215613c675791602002820160005b83821115613c3857835183826101000a81548160ff021916908360ff1602179055509260200192600101602081600001049283019260010302613bfa565b8015613c655782816101000a81549060ff0219169055600101602081600001049283019260010302613c38565b505b509050613c749190613c78565b5090565b5b80821115613c91576000816000905550600101613c79565b5090565b5b80821115613cb55760008181613cac9190613cb9565b50600101613c96565b5090565b508054613cc590614c5e565b6000825580601f10613cd75750613cf6565b601f016020900490600052602060002090810190613cf59190613c78565b5b50565b6000604051905090565b600080fd5b600080fd5b600073ffffffffffffffffffffffffffffffffffffffff82169050919050565b6000613d3882613d0d565b9050919050565b613d4881613d2d565b8114613d5357600080fd5b50565b600081359050613d6581613d3f565b92915050565b600060208284031215613d8157613d80613d03565b5b6000613d8f84828501613d56565b91505092915050565b600060ff82169050919050565b613dae81613d98565b82525050565b613dbd81613d2d565b82525050565b600081519050919050565b600082825260208201905092915050565b60005b83811015613dfd578082015181840152602081019050613de2565b83811115613e0c576000848401525b50505050565b6000601f19601f8301169050919050565b6000613e2e82613dc3565b613e388185613dce565b9350613e48818560208601613ddf565b613e5181613e12565b840191505092915050565b6000819050919050565b613e6f81613e5c565b82525050565b60008115159050919050565b613e8a81613e75565b82525050565b600061010082019050613ea6600083018b613da5565b613eb3602083018a613db4565b8181036040830152613ec58189613e23565b90508181036060830152613ed98188613e23565b9050613ee86080830187613e66565b613ef560a0830186613e66565b613f0260c0830185613e81565b613f0f60e0830184613e81565b9998505050505050505050565b600081519050919050565b600082825260208201905092915050565b6000819050602082019050919050565b600082825260208201905092915050565b6000613f6482613dc3565b613f6e8185613f48565b9350613f7e818560208601613ddf565b613f8781613e12565b840191505092915050565b6000613f9e8383613f59565b905092915050565b6000602082019050919050565b6000613fbe82613f1c565b613fc88185613f27565b935083602082028501613fda85613f38565b8060005b858110156140165784840389528151613ff78582613f92565b945061400283613fa6565b925060208a01995050600181019050613fde565b50829750879550505050505092915050565b600060208201905081810360008301526140428184613fb3565b905092915050565b600060208201905081810360008301526140648184613e23565b905092915050565b61407581613e5c565b811461408057600080fd5b50565b6000813590506140928161406c565b92915050565b6000602082840312156140ae576140ad613d03565b5b60006140bc84828501614083565b91505092915050565b60006020820190506140da6000830184613e81565b92915050565b60006020820190506140f56000830184613e66565b92915050565b60006020820190506141106000830184613db4565b92915050565b61411f81613d98565b811461412a57600080fd5b50565b60008135905061413c81614116565b92915050565b60006020828403121561415857614157613d03565b5b60006141668482850161412d565b91505092915050565b60006020820190506141846000830184613da5565b92915050565b600080fd5b600080fd5b7f4e487b7100000000000000000000000000000000000000000000000000000000600052604160045260246000fd5b6141cc82613e12565b810181811067ffffffffffffffff821117156141eb576141ea614194565b5b80604052505050565b60006141fe613cf9565b905061420a82826141c3565b919050565b600067ffffffffffffffff82111561422a57614229614194565b5b61423382613e12565b9050602081019050919050565b82818337600083830152505050565b600061426261425d8461420f565b6141f4565b90508281526020810184848401111561427e5761427d61418f565b5b614289848285614240565b509392505050565b600082601f8301126142a6576142a561418a565b5b81356142b684826020860161424f565b91505092915050565b600080604083850312156142d6576142d5613d03565b5b60006142e485828601613d56565b925050602083013567ffffffffffffffff81111561430557614304613d08565b5b61431185828601614291565b9150509250929050565b60008060006060848603121561433457614333613d03565b5b600084013567ffffffffffffffff81111561435257614351613d08565b5b61435e86828701614291565b935050602084013567ffffffffffffffff81111561437f5761437e613d08565b5b61438b86828701614291565b925050604061439c86828701614083565b9150509250925092565b6143af81613e75565b81146143ba57600080fd5b50565b6000813590506143cc816143a6565b92915050565b600080604083850312156143e9576143e8613d03565b5b60006143f7858286016143bd565b925050602061440885828601613d56565b9150509250929050565b600060c0820190506144276000830189613db4565b81810360208301526144398188613e23565b9050818103604083015261444d8187613e23565b905061445c6060830186613e81565b6144696080830185613e81565b61447660a0830184613e81565b979650505050505050565b600067ffffffffffffffff82111561449c5761449b614194565b5b602082029050602081019050919050565b600080fd5b60006144c56144c084614481565b6141f4565b905080838252602082019050602084028301858111156144e8576144e76144ad565b5b835b8181101561451157806144fd888261412d565b8452602084019350506020810190506144ea565b5050509392505050565b600082601f8301126145305761452f61418a565b5b81356145408482602086016144b2565b91505092915050565b600080604083850312156145605761455f613d03565b5b600083013567ffffffffffffffff81111561457e5761457d613d08565b5b61458a8582860161451b565b925050602061459b8582860161412d565b9150509250929050565b600067ffffffffffffffff8211156145c0576145bf614194565b5b602082029050602081019050919050565b60006145e46145df846145a5565b6141f4565b90508083825260208201905060208402830185811115614607576146066144ad565b5b835b8181101561464e57803567ffffffffffffffff81111561462c5761462b61418a565b5b8086016146398982614291565b85526020850194505050602081019050614609565b5050509392505050565b600082601f83011261466d5761466c61418a565b5b813561467d8482602086016145d1565b91505092915050565b6000806000806000806000806000806101408b8d0312156146aa576146a9613d03565b5b60008b013567ffffffffffffffff8111156146c8576146c7613d08565b5b6146d48d828e01614291565b9a505060208b013567ffffffffffffffff8111156146f5576146f4613d08565b5b6147018d828e01614291565b99505060408b013567ffffffffffffffff81111561472257614721613d08565b5b61472e8d828e01614291565b98505060608b013567ffffffffffffffff81111561474f5761474e613d08565b5b61475b8d828e01614291565b975050608061476c8d828e01614083565b96505060a061477d8d828e01614083565b95505060c061478e8d828e01614083565b94505060e061479f8d828e01614083565b9350506101008b013567ffffffffffffffff8111156147c1576147c0613d08565b5b6147cd8d828e01614658565b9250506101208b013567ffffffffffffffff8111156147ef576147ee613d08565b5b6147fb8d828e01614658565b9150509295989b9194979a5092959850565b600060a0820190506148226000830188613da5565b61482f6020830187613db4565b81810360408301526148418186613e23565b905081810360608301526148558185613e23565b905081810360808301526148698184613e23565b90509695505050505050565b6000806040838503121561488c5761488b613d03565b5b600061489a85828601613d56565b92505060206148ab8582860161412d565b9150509250929050565b600081519050919050565b600082825260208201905092915050565b6000819050602082019050919050565b6148ea81613d98565b82525050565b6148f981613d2d565b82525050565b61490881613e5c565b82525050565b61491781613e75565b82525050565b60006101008301600083015161493660008601826148e1565b50602083015161494960208601826148f0565b50604083015184820360408601526149618282613f59565b9150506060830151848203606086015261497b8282613f59565b915050608083015161499060808601826148ff565b5060a08301516149a360a08601826148ff565b5060c08301516149b660c086018261490e565b5060e08301516149c960e086018261490e565b508091505092915050565b60006149e0838361491d565b905092915050565b6000602082019050919050565b6000614a00826148b5565b614a0a81856148c0565b935083602082028501614a1c856148d1565b8060005b85811015614a585784840389528151614a3985826149d4565b9450614a44836149e8565b925060208a01995050600181019050614a20565b50829750879550505050505092915050565b60006020820190508181036000830152614a8481846149f5565b905092915050565b6000608082019050614aa16000830187613db4565b8181036020830152614ab38186613e23565b90508181036040830152614ac78185613e23565b90508181036060830152614adb8184613e23565b905095945050505050565b600081519050919050565b600082825260208201905092915050565b6000819050602082019050919050565b6000614b1e83836148e1565b60208301905092915050565b6000602082019050919050565b6000614b4282614ae6565b614b4c8185614af1565b9350614b5783614b02565b8060005b83811015614b88578151614b6f8882614b12565b9750614b7a83614b2a565b925050600181019050614b5b565b5085935050505092915050565b60006020820190508181036000830152614baf8184614b37565b905092915050565b60008060408385031215614bce57614bcd613d03565b5b600083013567ffffffffffffffff811115614bec57614beb613d08565b5b614bf885828601614291565b925050602083013567ffffffffffffffff811115614c1957614c18613d08565b5b614c2585828601614291565b9150509250929050565b7f4e487b7100000000000000000000000000000000000000000000000000000000600052602260045260246000fd5b60006002820490506001821680614c7657607f821691505b60208210811415614c8a57614c89614c2f565b5b50919050565b7f4e487b7100000000000000000000000000000000000000000000000000000000600052603260045260246000fd5b7f4e487b7100000000000000000000000000000000000000000000000000000000600052601160045260246000fd5b6000614cf982613e5c565b91507fffffffffffffffffffffffffffffffffffffffffffffffffffffffffffffffff821415614d2c57614d2b614cbf565b5b600182019050919050565b6000614d4282613d98565b915060ff821415614d5657614d55614cbf565b5b600182019050919050565b7f566f746572732061646472657373206e6f7420666f756e640000000000000000600082015250565b6000614d97601883613dce565b9150614da282614d61565b602082019050919050565b60006020820190508181036000830152614dc681614d8a565b9050919050565b7f566f74657220616c72656164792072656a65637465642e000000000000000000600082015250565b6000614e03601783613dce565b9150614e0e82614dcd565b602082019050919050565b60006020820190508181036000830152614e3281614df6565b9050919050565b7f526567697374726174696f6e206973206e6f7420737461727465642079657400600082015250565b6000614e6f601f83613dce565b9150614e7a82614e39565b602082019050919050565b60006020820190508181036000830152614e9e81614e62565b9050919050565b7f526567697374726174696f6e20697320616c726561647920656e6465642e0000600082015250565b6000614edb601e83613dce565b9150614ee682614ea5565b602082019050919050565b60006020820190508181036000830152614f0a81614ece565b9050919050565b6000614f1c82613d98565b9150614f2783613d98565b92508260ff03821115614f3d57614f3c614cbf565b5b828201905092915050565b7f43616e6469646174652061646472657373206e6f7420666f756e640000000000600082015250565b6000614f7e601b83613dce565b9150614f8982614f48565b602082019050919050565b60006020820190508181036000830152614fad81614f71565b9050919050565b7f566f74696e67206973206e6f7420737461727465642079657400000000000000600082015250565b6000614fea601983613dce565b9150614ff582614fb4565b602082019050919050565b6000602082019050818103600083015261501981614fdd565b9050919050565b7f566f74696e6720697320616c726561647920656e646564000000000000000000600082015250565b6000615056601783613dce565b915061506182615020565b602082019050919050565b6000602082019050818103600083015261508581615049565b9050919050565b7f416c72656164792063617374656420766f746520746f207468652073656c656360008201527f746564207469746c652e00000000000000000000000000000000000000000000602082015250565b60006150e8602a83613dce565b91506150f38261508c565b604082019050919050565b60006020820190508181036000830152615117816150db565b9050919050565b600061512982613e5c565b915061513483613e5c565b9250827fffffffffffffffffffffffffffffffffffffffffffffffffffffffffffffffff0382111561516957615168614cbf565b5b82820190509291505056fea26469706673582212208d56eb866c9d703e6ade29b82c223ad84a2285d4ce05847a56655a808e22310464736f6c634300080b0033",
  "linkReferences": {},
  "deployedLinkReferences": {}
}