{
  "_format": "hh-sol-artifact-1",
  "contractName": "Election",
  "sourceName": "contracts/Election.sol",
  "abi": [
    {
      "inputs": [],
      "stateMutability": "nonpayable",
      "type": "constructor"
    },
    {
      "inputs": [],
      "name": "admin",
      "outputs": [
        {
          "internalType": "address",
          "name": "",
          "type": "address"
        }
      ],
      "stateMutability": "view",
      "type": "function"
    },
    {
      "inputs": [
        {
          "internalType": "uint256",
          "name": "",
          "type": "uint256"
        }
      ],
      "name": "approvedCandidates",
      "outputs": [
        {
          "internalType": "address",
          "name": "",
          "type": "address"
        }
      ],
      "stateMutability": "view",
      "type": "function"
    },
    {
      "inputs": [
        {
          "internalType": "uint256",
          "name": "",
          "type": "uint256"
        }
      ],
      "name": "approvedVoters",
      "outputs": [
        {
          "internalType": "address",
          "name": "",
          "type": "address"
        }
      ],
      "stateMutability": "view",
      "type": "function"
    },
    {
      "inputs": [
        {
          "internalType": "address",
          "name": "",
          "type": "address"
        }
      ],
      "name": "candidateDetails",
      "outputs": [
        {
          "internalType": "uint256",
          "name": "candidateId",
          "type": "uint256"
        },
        {
          "internalType": "address",
          "name": "candidateAddress",
          "type": "address"
        },
        {
          "internalType": "string",
          "name": "header",
          "type": "string"
        },
        {
          "internalType": "string",
          "name": "slogan",
          "type": "string"
        },
        {
          "internalType": "uint256",
          "name": "electionTitleIndex",
          "type": "uint256"
        },
        {
          "internalType": "uint256",
          "name": "voteCount",
          "type": "uint256"
        },
        {
          "internalType": "bool",
          "name": "isVerified",
          "type": "bool"
        },
        {
          "internalType": "bool",
          "name": "isRegistered",
          "type": "bool"
        }
      ],
      "stateMutability": "view",
      "type": "function"
    },
    {
      "inputs": [
        {
          "internalType": "uint256",
          "name": "",
          "type": "uint256"
        }
      ],
      "name": "candidates",
      "outputs": [
        {
          "internalType": "address",
          "name": "",
          "type": "address"
        }
      ],
      "stateMutability": "view",
      "type": "function"
    },
    {
      "inputs": [],
      "name": "getAdmin",
      "outputs": [
        {
          "internalType": "address",
          "name": "",
          "type": "address"
        }
      ],
      "stateMutability": "view",
      "type": "function"
    },
    {
      "inputs": [],
      "name": "getAdminEmail",
      "outputs": [
        {
          "internalType": "string",
          "name": "",
          "type": "string"
        }
      ],
      "stateMutability": "view",
      "type": "function"
    },
    {
      "inputs": [],
      "name": "getAdminName",
      "outputs": [
        {
          "internalType": "string",
          "name": "",
          "type": "string"
        }
      ],
      "stateMutability": "view",
      "type": "function"
    },
    {
      "inputs": [],
      "name": "getAdminTitle",
      "outputs": [
        {
          "internalType": "string",
          "name": "",
          "type": "string"
        }
      ],
      "stateMutability": "view",
      "type": "function"
    },
    {
      "inputs": [
        {
          "internalType": "uint256",
          "name": "_electionTitleIndex",
          "type": "uint256"
        }
      ],
      "name": "getCandidateCountForAsscociatedElection",
      "outputs": [
        {
          "internalType": "uint256",
          "name": "",
          "type": "uint256"
        }
      ],
      "stateMutability": "view",
      "type": "function"
    },
    {
      "inputs": [
        {
          "internalType": "uint256",
          "name": "_electionTitleIndex",
          "type": "uint256"
        }
      ],
      "name": "getCandidatesForAssociatedElections",
      "outputs": [
        {
          "components": [
            {
              "internalType": "uint256",
              "name": "candidateId",
              "type": "uint256"
            },
            {
              "internalType": "address",
              "name": "candidateAddress",
              "type": "address"
            },
            {
              "internalType": "string",
              "name": "header",
              "type": "string"
            },
            {
              "internalType": "string",
              "name": "slogan",
              "type": "string"
            },
            {
              "internalType": "uint256",
              "name": "electionTitleIndex",
              "type": "uint256"
            },
            {
              "internalType": "uint256",
              "name": "voteCount",
              "type": "uint256"
            },
            {
              "internalType": "bool",
              "name": "isVerified",
              "type": "bool"
            },
            {
              "internalType": "bool",
              "name": "isRegistered",
              "type": "bool"
            }
          ],
          "internalType": "struct Election.Candidate[]",
          "name": "",
          "type": "tuple[]"
        }
      ],
      "stateMutability": "view",
      "type": "function"
    },
    {
      "inputs": [],
      "name": "getElectionInitStatus",
      "outputs": [
        {
          "internalType": "bool",
          "name": "",
          "type": "bool"
        }
      ],
      "stateMutability": "view",
      "type": "function"
    },
    {
      "inputs": [],
      "name": "getElectionTitles",
      "outputs": [
        {
          "internalType": "string[]",
          "name": "",
          "type": "string[]"
        }
      ],
      "stateMutability": "view",
      "type": "function"
    },
    {
      "inputs": [],
      "name": "getEnd",
      "outputs": [
        {
          "internalType": "bool",
          "name": "",
          "type": "bool"
        }
      ],
      "stateMutability": "view",
      "type": "function"
    },
    {
      "inputs": [],
      "name": "getOrganizationTitle",
      "outputs": [
        {
          "internalType": "string",
          "name": "",
          "type": "string"
        }
      ],
      "stateMutability": "view",
      "type": "function"
    },
    {
      "inputs": [],
      "name": "getRegistrationEndTime",
      "outputs": [
        {
          "internalType": "uint256",
          "name": "",
          "type": "uint256"
        }
      ],
      "stateMutability": "view",
      "type": "function"
    },
    {
      "inputs": [],
      "name": "getRegistrationStartTime",
      "outputs": [
        {
          "internalType": "uint256",
          "name": "",
          "type": "uint256"
        }
      ],
      "stateMutability": "view",
      "type": "function"
    },
    {
      "inputs": [
        {
          "internalType": "uint256",
          "name": "_timeStamp",
          "type": "uint256"
        }
      ],
      "name": "getRegistrationStatus",
      "outputs": [
        {
          "internalType": "bool",
          "name": "",
          "type": "bool"
        }
      ],
      "stateMutability": "view",
      "type": "function"
    },
    {
      "inputs": [],
      "name": "getStart",
      "outputs": [
        {
          "internalType": "bool",
          "name": "",
          "type": "bool"
        }
      ],
      "stateMutability": "view",
      "type": "function"
    },
    {
      "inputs": [],
      "name": "getTotalCandidate",
      "outputs": [
        {
          "internalType": "uint256",
          "name": "",
          "type": "uint256"
        }
      ],
      "stateMutability": "view",
      "type": "function"
    },
    {
      "inputs": [],
      "name": "getTotalVoter",
      "outputs": [
        {
          "internalType": "uint256",
          "name": "",
          "type": "uint256"
        }
      ],
      "stateMutability": "view",
      "type": "function"
    },
    {
      "inputs": [
        {
          "internalType": "address",
          "name": "_currentAddress",
          "type": "address"
        }
      ],
      "name": "getVoterStatusForCandidate",
      "outputs": [
        {
          "internalType": "bool",
          "name": "",
          "type": "bool"
        }
      ],
      "stateMutability": "view",
      "type": "function"
    },
    {
      "inputs": [],
      "name": "getVotingEndTime",
      "outputs": [
        {
          "internalType": "uint256",
          "name": "",
          "type": "uint256"
        }
      ],
      "stateMutability": "view",
      "type": "function"
    },
    {
      "inputs": [],
      "name": "getVotingStartTime",
      "outputs": [
        {
          "internalType": "uint256",
          "name": "",
          "type": "uint256"
        }
      ],
      "stateMutability": "view",
      "type": "function"
    },
    {
      "inputs": [],
      "name": "getWinner",
      "outputs": [
        {
          "internalType": "address",
          "name": "",
          "type": "address"
        }
      ],
      "stateMutability": "view",
      "type": "function"
    },
    {
      "inputs": [
        {
          "internalType": "string",
          "name": "_header",
          "type": "string"
        },
        {
          "internalType": "string",
          "name": "_slogan",
          "type": "string"
        },
        {
          "internalType": "uint256",
          "name": "_electionTitleIndex",
          "type": "uint256"
        }
      ],
      "name": "registerAsCandidate",
      "outputs": [],
      "stateMutability": "nonpayable",
      "type": "function"
    },
    {
      "inputs": [
        {
          "internalType": "string",
          "name": "_name",
          "type": "string"
        },
        {
          "internalType": "string",
          "name": "_phone",
          "type": "string"
        }
      ],
      "name": "registerAsVoter",
      "outputs": [],
      "stateMutability": "nonpayable",
      "type": "function"
    },
    {
      "inputs": [],
      "name": "registrationEndTime",
      "outputs": [
        {
          "internalType": "uint256",
          "name": "",
          "type": "uint256"
        }
      ],
      "stateMutability": "view",
      "type": "function"
    },
    {
      "inputs": [],
      "name": "registrationStartTime",
      "outputs": [
        {
          "internalType": "uint256",
          "name": "",
          "type": "uint256"
        }
      ],
      "stateMutability": "view",
      "type": "function"
    },
    {
      "inputs": [
        {
          "internalType": "string",
          "name": "_adminName",
          "type": "string"
        },
        {
          "internalType": "string",
          "name": "_adminEmail",
          "type": "string"
        },
        {
          "internalType": "string",
          "name": "_adminTitle",
          "type": "string"
        },
        {
          "internalType": "string",
          "name": "_organizationTitle",
          "type": "string"
        },
        {
          "internalType": "uint256",
          "name": "_votingStartTime",
          "type": "uint256"
        },
        {
          "internalType": "uint256",
          "name": "_votingEndTime",
          "type": "uint256"
        },
        {
          "internalType": "uint256",
          "name": "_registrationStartTime",
          "type": "uint256"
        },
        {
          "internalType": "uint256",
          "name": "_registrationEndTime",
          "type": "uint256"
        },
        {
          "internalType": "string[]",
          "name": "_elections",
          "type": "string[]"
        }
      ],
      "name": "setElectionDetails",
      "outputs": [],
      "stateMutability": "nonpayable",
      "type": "function"
    },
    {
      "inputs": [
        {
          "internalType": "bool",
          "name": "_verifedStatus",
          "type": "bool"
        },
        {
          "internalType": "address",
          "name": "candidateAddress",
          "type": "address"
        }
      ],
      "name": "verifyCandidate",
      "outputs": [],
      "stateMutability": "nonpayable",
      "type": "function"
    },
    {
      "inputs": [
        {
          "internalType": "bool",
          "name": "_verifedStatus",
          "type": "bool"
        },
        {
          "internalType": "address",
          "name": "voterAddress",
          "type": "address"
        }
      ],
      "name": "verifyVoter",
      "outputs": [],
      "stateMutability": "nonpayable",
      "type": "function"
    },
    {
      "inputs": [
        {
          "internalType": "address",
          "name": "_candidateAddress",
          "type": "address"
        }
      ],
      "name": "vote",
      "outputs": [],
      "stateMutability": "nonpayable",
      "type": "function"
    },
    {
      "inputs": [
        {
          "internalType": "address",
          "name": "",
          "type": "address"
        }
      ],
      "name": "voterDetails",
      "outputs": [
        {
          "internalType": "address",
          "name": "voterAddress",
          "type": "address"
        },
        {
          "internalType": "string",
          "name": "name",
          "type": "string"
        },
        {
          "internalType": "string",
          "name": "phone",
          "type": "string"
        },
        {
          "internalType": "bool",
          "name": "isVerified",
          "type": "bool"
        },
        {
          "internalType": "bool",
          "name": "hasVoted",
          "type": "bool"
        },
        {
          "internalType": "bool",
          "name": "isRegistered",
          "type": "bool"
        }
      ],
      "stateMutability": "view",
      "type": "function"
    },
    {
      "inputs": [
        {
          "internalType": "uint256",
          "name": "",
          "type": "uint256"
        }
      ],
      "name": "voters",
      "outputs": [
        {
          "internalType": "address",
          "name": "",
          "type": "address"
        }
      ],
      "stateMutability": "view",
      "type": "function"
    },
    {
      "inputs": [],
      "name": "votingEndTime",
      "outputs": [
        {
          "internalType": "uint256",
          "name": "",
          "type": "uint256"
        }
      ],
      "stateMutability": "view",
      "type": "function"
    },
    {
      "inputs": [],
      "name": "votingStartTime",
      "outputs": [
        {
          "internalType": "uint256",
          "name": "",
          "type": "uint256"
        }
      ],
      "stateMutability": "view",
      "type": "function"
    }
  ],
  "bytecode": "0x608060405234801561001057600080fd5b5033600360006101000a81548173ffffffffffffffffffffffffffffffffffffffff021916908373ffffffffffffffffffffffffffffffffffffffff1602179055506000600281905550600060018190555060008060006101000a81548160ff02191690831515021790555060008060016101000a81548160ff02191690831515021790555060008060026101000a81548160ff02191690831515021790555061325e806100bf6000396000f3fe608060405234801561001057600080fd5b50600436106102275760003560e01c80636dd7d8ea11610130578063c3a171a2116100b8578063dd698f901161007c578063dd698f90146106a2578063df6d2784146106c0578063dff7d2c7146106de578063f851a440146106fc578063fee0d19a1461071a57610227565b8063c3a171a2146105fe578063c5292c671461061a578063c784d21314610638578063cad43b4814610656578063da58c7d91461067257610227565b80639af5c09d116100ff5780639af5c09d146105565780639f05a36d14610574578063aed9301014610592578063b1bf87b0146105c2578063be081b6f146105e057610227565b80636dd7d8ea146104e05780636e9960c3146104fc578063831318f11461051a5780638e7ea5b21461053857610227565b80633f66f48b116101b3578063506b8e0a11610182578063506b8e0a146104235780635938750d1461043f5780635fcdd8a11461047457806364d198a1146104a45780636a82ee51146104c257610227565b80633f66f48b1461038957806341217ed5146103b957806348343175146103e95780634c652fc61461040757610227565b806315811029116101fa57806315811029146102bd57806319c5c507146102ed5780631ea736e01461031d5780632019a6081461033b5780633477ee2e1461035957610227565b806305e73ced1461022c5780630712aa05146102635780630b93400e146102815780630e2354cf1461029f575b600080fd5b61024660048036038101906102419190612474565b610736565b60405161025a98979695949392919061257d565b60405180910390f35b61026b6108c8565b6040516102789190612715565b60405180910390f35b610289610a1a565b6040516102969190612737565b60405180910390f35b6102a7610a24565b6040516102b49190612752565b60405180910390f35b6102d760048036038101906102d291906127a0565b610ab9565b6040516102e49190612973565b60405180910390f35b610307600480360381019061030291906127a0565b610f04565b6040516103149190612995565b60405180910390f35b610325610f37565b6040516103329190612737565b60405180910390f35b610343610f3d565b6040516103509190612737565b60405180910390f35b610373600480360381019061036e91906127a0565b610f43565b60405161038091906129b0565b60405180910390f35b6103a3600480360381019061039e91906127a0565b610f82565b6040516103b091906129b0565b60405180910390f35b6103d360048036038101906103ce91906127a0565b610fc1565b6040516103e09190612737565b60405180910390f35b6103f161108c565b6040516103fe9190612752565b60405180910390f35b610421600480360381019061041c9190612b00565b611121565b005b61043d60048036038101906104389190612bb7565b6113ad565b005b61045960048036038101906104549190612474565b6114c8565b60405161046b96959493929190612bf7565b60405180910390f35b61048e60048036038101906104899190612474565b61165b565b60405161049b9190612995565b60405180910390f35b6104ac61170a565b6040516104b99190612737565b60405180910390f35b6104ca611714565b6040516104d79190612737565b60405180910390f35b6104fa60048036038101906104f59190612474565b61171e565b005b610504611920565b60405161051191906129b0565b60405180910390f35b61052261194a565b60405161052f9190612752565b60405180910390f35b6105406119df565b60405161054d91906129b0565b60405180910390f35b61055e611aaf565b60405161056b9190612737565b60405180910390f35b61057c611ab5565b6040516105899190612995565b60405180910390f35b6105ac60048036038101906105a791906127a0565b611acb565b6040516105b991906129b0565b60405180910390f35b6105ca611b0a565b6040516105d79190612737565b60405180910390f35b6105e8611b14565b6040516105f59190612752565b60405180910390f35b61061860048036038101906106139190612d4c565b611ba9565b005b610622611df7565b60405161062f9190612995565b60405180910390f35b610640611e0d565b60405161064d9190612737565b60405180910390f35b610670600480360381019061066b9190612bb7565b611e17565b005b61068c600480360381019061068791906127a0565b611f32565b60405161069991906129b0565b60405180910390f35b6106aa611f71565b6040516106b79190612995565b60405180910390f35b6106c8611f87565b6040516106d59190612737565b60405180910390f35b6106e6611f91565b6040516106f39190612737565b60405180910390f35b610704611f97565b60405161071191906129b0565b60405180910390f35b610734600480360381019061072f9190612ea2565b611fbd565b005b60096020528060005260406000206000915090508060000154908060010160009054906101000a900473ffffffffffffffffffffffffffffffffffffffff169080600201805461078590612f49565b80601f01602080910402602001604051908101604052809291908181526020018280546107b190612f49565b80156107fe5780601f106107d3576101008083540402835291602001916107fe565b820191906000526020600020905b8154815290600101906020018083116107e157829003601f168201915b50505050509080600301805461081390612f49565b80601f016020809104026020016040519081016040528092919081815260200182805461083f90612f49565b801561088c5780601f106108615761010080835404028352916020019161088c565b820191906000526020600020905b81548152906001019060200180831161086f57829003601f168201915b5050505050908060040154908060050154908060060160009054906101000a900460ff16908060060160019054906101000a900460ff16905088565b60606000600e6008018054905067ffffffffffffffff8111156108ee576108ed6129d5565b5b60405190808252806020026020018201604052801561092157816020015b606081526020019060019003908161090c5790505b50905060005b600e60080180549050811015610a1257600e600801818154811061094e5761094d612f7b565b5b90600052602060002001805461096390612f49565b80601f016020809104026020016040519081016040528092919081815260200182805461098f90612f49565b80156109dc5780601f106109b1576101008083540402835291602001916109dc565b820191906000526020600020905b8154815290600101906020018083116109bf57829003601f168201915b50505050508282815181106109f4576109f3612f7b565b5b60200260200101819052508080610a0a90612fd9565b915050610927565b508091505090565b6000600154905090565b6060600e6000018054610a3690612f49565b80601f0160208091040260200160405190810160405280929190818152602001828054610a6290612f49565b8015610aaf5780601f10610a8457610100808354040283529160200191610aaf565b820191906000526020600020905b815481529060010190602001808311610a9257829003601f168201915b5050505050905090565b6060600060078054905067ffffffffffffffff811115610adc57610adb6129d5565b5b604051908082528060200260200182016040528015610b1557816020015b610b0261223c565b815260200190600190039081610afa5790505b5090506000805b600780549050811015610e4857846009600060078481548110610b4257610b41612f7b565b5b9060005260206000200160009054906101000a900473ffffffffffffffffffffffffffffffffffffffff1673ffffffffffffffffffffffffffffffffffffffff1673ffffffffffffffffffffffffffffffffffffffff168152602001908152602001600020600401541415610e35576009600060078381548110610bc957610bc8612f7b565b5b9060005260206000200160009054906101000a900473ffffffffffffffffffffffffffffffffffffffff1673ffffffffffffffffffffffffffffffffffffffff1673ffffffffffffffffffffffffffffffffffffffff16815260200190815260200160002060405180610100016040529081600082015481526020016001820160009054906101000a900473ffffffffffffffffffffffffffffffffffffffff1673ffffffffffffffffffffffffffffffffffffffff1673ffffffffffffffffffffffffffffffffffffffff168152602001600282018054610caa90612f49565b80601f0160208091040260200160405190810160405280929190818152602001828054610cd690612f49565b8015610d235780601f10610cf857610100808354040283529160200191610d23565b820191906000526020600020905b815481529060010190602001808311610d0657829003601f168201915b50505050508152602001600382018054610d3c90612f49565b80601f0160208091040260200160405190810160405280929190818152602001828054610d6890612f49565b8015610db55780601f10610d8a57610100808354040283529160200191610db5565b820191906000526020600020905b815481529060010190602001808311610d9857829003601f168201915b5050505050815260200160048201548152602001600582015481526020016006820160009054906101000a900460ff161515151581526020016006820160019054906101000a900460ff161515151581525050838381518110610e1b57610e1a612f7b565b5b60200260200101819052508180610e3190612fd9565b9250505b8080610e4090612fd9565b915050610b1c565b5060008167ffffffffffffffff811115610e6557610e646129d5565b5b604051908082528060200260200182016040528015610e9e57816020015b610e8b61223c565b815260200190600190039081610e835790505b50905060005b82811015610ef857838181518110610ebf57610ebe612f7b565b5b6020026020010151828281518110610eda57610ed9612f7b565b5b60200260200101819052508080610ef090612fd9565b915050610ea4565b50809350505050919050565b600080600a548310158015610f1b5750600b548311155b15610f295760019050610f2e565b600090505b80915050919050565b600d5481565b600c5481565b60058181548110610f5357600080fd5b906000526020600020016000915054906101000a900473ffffffffffffffffffffffffffffffffffffffff1681565b60078181548110610f9257600080fd5b906000526020600020016000915054906101000a900473ffffffffffffffffffffffffffffffffffffffff1681565b6000806000905060005b60078054905081101561108257836009600060078481548110610ff157610ff0612f7b565b5b9060005260206000200160009054906101000a900473ffffffffffffffffffffffffffffffffffffffff1673ffffffffffffffffffffffffffffffffffffffff1673ffffffffffffffffffffffffffffffffffffffff16815260200190815260200160002060040154141561106f57818061106b90612fd9565b9250505b808061107a90612fd9565b915050610fcb565b5080915050919050565b6060600e600301805461109e90612f49565b80601f01602080910402602001604051908101604052809291908181526020018280546110ca90612f49565b80156111175780601f106110ec57610100808354040283529160200191611117565b820191906000526020600020905b8154815290600101906020018083116110fa57829003601f168201915b5050505050905090565b600a54421015611166576040517f08c379a000000000000000000000000000000000000000000000000000000000815260040161115d9061306e565b60405180910390fd5b600b544211156111ab576040517f08c379a00000000000000000000000000000000000000000000000000000000081526004016111a2906130da565b60405180910390fd5b600060405180610100016040528060025481526020013373ffffffffffffffffffffffffffffffffffffffff1681526020018581526020018481526020018381526020016000815260200160001515815260200160011515815250905080600960003373ffffffffffffffffffffffffffffffffffffffff1673ffffffffffffffffffffffffffffffffffffffff1681526020019081526020016000206000820151816000015560208201518160010160006101000a81548173ffffffffffffffffffffffffffffffffffffffff021916908373ffffffffffffffffffffffffffffffffffffffff16021790555060408201518160020190805190602001906112b592919061229b565b5060608201518160030190805190602001906112d292919061229b565b506080820151816004015560a0820151816005015560c08201518160060160006101000a81548160ff02191690831515021790555060e08201518160060160016101000a81548160ff0219169083151502179055509050506005339080600181540180825580915050600190039060005260206000200160009091909190916101000a81548173ffffffffffffffffffffffffffffffffffffffff021916908373ffffffffffffffffffffffffffffffffffffffff1602179055506001600260008282546113a091906130fa565b9250508190555050505050565b600360009054906101000a900473ffffffffffffffffffffffffffffffffffffffff1673ffffffffffffffffffffffffffffffffffffffff163373ffffffffffffffffffffffffffffffffffffffff161461140757600080fd5b81600860008373ffffffffffffffffffffffffffffffffffffffff1673ffffffffffffffffffffffffffffffffffffffff16815260200190815260200160002060030160006101000a81548160ff0219169083151502179055506006819080600181540180825580915050600190039060005260206000200160009091909190916101000a81548173ffffffffffffffffffffffffffffffffffffffff021916908373ffffffffffffffffffffffffffffffffffffffff1602179055505050565b60086020528060005260406000206000915090508060000160009054906101000a900473ffffffffffffffffffffffffffffffffffffffff169080600101805461151190612f49565b80601f016020809104026020016040519081016040528092919081815260200182805461153d90612f49565b801561158a5780601f1061155f5761010080835404028352916020019161158a565b820191906000526020600020905b81548152906001019060200180831161156d57829003601f168201915b50505050509080600201805461159f90612f49565b80601f01602080910402602001604051908101604052809291908181526020018280546115cb90612f49565b80156116185780601f106115ed57610100808354040283529160200191611618565b820191906000526020600020905b8154815290600101906020018083116115fb57829003601f168201915b5050505050908060030160009054906101000a900460ff16908060030160019054906101000a900460ff16908060030160029054906101000a900460ff16905086565b6000806000905060005b600680549050811015611700576006818154811061168657611685612f7b565b5b9060005260206000200160009054906101000a900473ffffffffffffffffffffffffffffffffffffffff1673ffffffffffffffffffffffffffffffffffffffff168473ffffffffffffffffffffffffffffffffffffffff1614156116ed5760019150611700565b80806116f890612fd9565b915050611665565b5080915050919050565b6000600254905090565b6000600c54905090565b600c54421015611763576040517f08c379a000000000000000000000000000000000000000000000000000000000815260040161175a9061319c565b60405180910390fd5b600d544211156117a8576040517f08c379a000000000000000000000000000000000000000000000000000000000815260040161179f90613208565b60405180910390fd5b60001515600860003373ffffffffffffffffffffffffffffffffffffffff1673ffffffffffffffffffffffffffffffffffffffff16815260200190815260200160002060030160019054906101000a900460ff1615151461180857600080fd5b60011515600860003373ffffffffffffffffffffffffffffffffffffffff1673ffffffffffffffffffffffffffffffffffffffff16815260200190815260200160002060030160009054906101000a900460ff1615151461186857600080fd5b6001600960008373ffffffffffffffffffffffffffffffffffffffff1673ffffffffffffffffffffffffffffffffffffffff16815260200190815260200160002060050160008282546118bb91906130fa565b925050819055506001600860003373ffffffffffffffffffffffffffffffffffffffff1673ffffffffffffffffffffffffffffffffffffffff16815260200190815260200160002060030160016101000a81548160ff02191690831515021790555050565b6000600360009054906101000a900473ffffffffffffffffffffffffffffffffffffffff16905090565b6060600e600101805461195c90612f49565b80601f016020809104026020016040519081016040528092919081815260200182805461198890612f49565b80156119d55780601f106119aa576101008083540402835291602001916119d5565b820191906000526020600020905b8154815290600101906020018083116119b857829003601f168201915b5050505050905090565b60008060009050600080600090505b600254811015611aa657600060058281548110611a0e57611a0d612f7b565b5b9060005260206000200160009054906101000a900473ffffffffffffffffffffffffffffffffffffffff1690506000600960008373ffffffffffffffffffffffffffffffffffffffff1673ffffffffffffffffffffffffffffffffffffffff16815260200190815260200160002060050154905084811115611a91578094508193505b50508080611a9e90612fd9565b9150506119ee565b50809250505090565b600a5481565b60008060019054906101000a900460ff16905090565b60068181548110611adb57600080fd5b906000526020600020016000915054906101000a900473ffffffffffffffffffffffffffffffffffffffff1681565b6000600d54905090565b6060600e6002018054611b2690612f49565b80601f0160208091040260200160405190810160405280929190818152602001828054611b5290612f49565b8015611b9f5780601f10611b7457610100808354040283529160200191611b9f565b820191906000526020600020905b815481529060010190602001808311611b8257829003601f168201915b5050505050905090565b600360009054906101000a900473ffffffffffffffffffffffffffffffffffffffff1673ffffffffffffffffffffffffffffffffffffffff163373ffffffffffffffffffffffffffffffffffffffff1614611c0357600080fd5b6000815167ffffffffffffffff811115611c2057611c1f6129d5565b5b604051908082528060200260200182016040528015611c5357816020015b6060815260200190600190039081611c3e5790505b50905060005b8251811015611cae57828181518110611c7557611c74612f7b565b5b6020026020010151828281518110611c9057611c8f612f7b565b5b60200260200101819052508080611ca690612fd9565b915050611c59565b5060006040518061012001604052808c81526020018b81526020018a815260200189815260200188815260200187815260200186815260200185815260200183815250905080600e6000820151816000019080519060200190611d1292919061229b565b506020820151816001019080519060200190611d2f92919061229b565b506040820151816002019080519060200190611d4c92919061229b565b506060820151816003019080519060200190611d6992919061229b565b506080820151816004015560a0820151816005015560c0820151816006015560e08201518160070155610100820151816008019080519060200190611daf929190612321565b509050506001600060026101000a81548160ff02191690831515021790555084600a8190555083600b8190555086600c8190555085600d819055505050505050505050505050565b60008060009054906101000a900460ff16905090565b6000600b54905090565b600360009054906101000a900473ffffffffffffffffffffffffffffffffffffffff1673ffffffffffffffffffffffffffffffffffffffff163373ffffffffffffffffffffffffffffffffffffffff1614611e7157600080fd5b81600960008373ffffffffffffffffffffffffffffffffffffffff1673ffffffffffffffffffffffffffffffffffffffff16815260200190815260200160002060060160006101000a81548160ff0219169083151502179055506007819080600181540180825580915050600190039060005260206000200160009091909190916101000a81548173ffffffffffffffffffffffffffffffffffffffff021916908373ffffffffffffffffffffffffffffffffffffffff1602179055505050565b60048181548110611f4257600080fd5b906000526020600020016000915054906101000a900473ffffffffffffffffffffffffffffffffffffffff1681565b60008060029054906101000a900460ff16905090565b6000600a54905090565b600b5481565b600360009054906101000a900473ffffffffffffffffffffffffffffffffffffffff1681565b600a54421015612002576040517f08c379a0000000000000000000000000000000000000000000000000000000008152600401611ff99061306e565b60405180910390fd5b600b54421115612047576040517f08c379a000000000000000000000000000000000000000000000000000000000815260040161203e906130da565b60405180910390fd5b60006040518060c001604052803373ffffffffffffffffffffffffffffffffffffffff16815260200184815260200183815260200160001515815260200160001515815260200160011515815250905080600860003373ffffffffffffffffffffffffffffffffffffffff1673ffffffffffffffffffffffffffffffffffffffff16815260200190815260200160002060008201518160000160006101000a81548173ffffffffffffffffffffffffffffffffffffffff021916908373ffffffffffffffffffffffffffffffffffffffff160217905550602082015181600101908051906020019061213a92919061229b565b50604082015181600201908051906020019061215792919061229b565b5060608201518160030160006101000a81548160ff02191690831515021790555060808201518160030160016101000a81548160ff02191690831515021790555060a08201518160030160026101000a81548160ff0219169083151502179055509050506004339080600181540180825580915050600190039060005260206000200160009091909190916101000a81548173ffffffffffffffffffffffffffffffffffffffff021916908373ffffffffffffffffffffffffffffffffffffffff160217905550600180600082825461223091906130fa565b92505081905550505050565b60405180610100016040528060008152602001600073ffffffffffffffffffffffffffffffffffffffff168152602001606081526020016060815260200160008152602001600081526020016000151581526020016000151581525090565b8280546122a790612f49565b90600052602060002090601f0160209004810192826122c95760008555612310565b82601f106122e257805160ff1916838001178555612310565b82800160010185558215612310579182015b8281111561230f5782518255916020019190600101906122f4565b5b50905061231d9190612381565b5090565b828054828255906000526020600020908101928215612370579160200282015b8281111561236f57825182908051906020019061235f92919061229b565b5091602001919060010190612341565b5b50905061237d919061239e565b5090565b5b8082111561239a576000816000905550600101612382565b5090565b5b808211156123be57600081816123b591906123c2565b5060010161239f565b5090565b5080546123ce90612f49565b6000825580601f106123e057506123ff565b601f0160209004906000526020600020908101906123fe9190612381565b5b50565b6000604051905090565b600080fd5b600080fd5b600073ffffffffffffffffffffffffffffffffffffffff82169050919050565b600061244182612416565b9050919050565b61245181612436565b811461245c57600080fd5b50565b60008135905061246e81612448565b92915050565b60006020828403121561248a5761248961240c565b5b60006124988482850161245f565b91505092915050565b6000819050919050565b6124b4816124a1565b82525050565b6124c381612436565b82525050565b600081519050919050565b600082825260208201905092915050565b60005b838110156125035780820151818401526020810190506124e8565b83811115612512576000848401525b50505050565b6000601f19601f8301169050919050565b6000612534826124c9565b61253e81856124d4565b935061254e8185602086016124e5565b61255781612518565b840191505092915050565b60008115159050919050565b61257781612562565b82525050565b600061010082019050612593600083018b6124ab565b6125a0602083018a6124ba565b81810360408301526125b28189612529565b905081810360608301526125c68188612529565b90506125d560808301876124ab565b6125e260a08301866124ab565b6125ef60c083018561256e565b6125fc60e083018461256e565b9998505050505050505050565b600081519050919050565b600082825260208201905092915050565b6000819050602082019050919050565b600082825260208201905092915050565b6000612651826124c9565b61265b8185612635565b935061266b8185602086016124e5565b61267481612518565b840191505092915050565b600061268b8383612646565b905092915050565b6000602082019050919050565b60006126ab82612609565b6126b58185612614565b9350836020820285016126c785612625565b8060005b8581101561270357848403895281516126e4858261267f565b94506126ef83612693565b925060208a019950506001810190506126cb565b50829750879550505050505092915050565b6000602082019050818103600083015261272f81846126a0565b905092915050565b600060208201905061274c60008301846124ab565b92915050565b6000602082019050818103600083015261276c8184612529565b905092915050565b61277d816124a1565b811461278857600080fd5b50565b60008135905061279a81612774565b92915050565b6000602082840312156127b6576127b561240c565b5b60006127c48482850161278b565b91505092915050565b600081519050919050565b600082825260208201905092915050565b6000819050602082019050919050565b612802816124a1565b82525050565b61281181612436565b82525050565b61282081612562565b82525050565b60006101008301600083015161283f60008601826127f9565b5060208301516128526020860182612808565b506040830151848203604086015261286a8282612646565b915050606083015184820360608601526128848282612646565b915050608083015161289960808601826127f9565b5060a08301516128ac60a08601826127f9565b5060c08301516128bf60c0860182612817565b5060e08301516128d260e0860182612817565b508091505092915050565b60006128e98383612826565b905092915050565b6000602082019050919050565b6000612909826127cd565b61291381856127d8565b935083602082028501612925856127e9565b8060005b85811015612961578484038952815161294285826128dd565b945061294d836128f1565b925060208a01995050600181019050612929565b50829750879550505050505092915050565b6000602082019050818103600083015261298d81846128fe565b905092915050565b60006020820190506129aa600083018461256e565b92915050565b60006020820190506129c560008301846124ba565b92915050565b600080fd5b600080fd5b7f4e487b7100000000000000000000000000000000000000000000000000000000600052604160045260246000fd5b612a0d82612518565b810181811067ffffffffffffffff82111715612a2c57612a2b6129d5565b5b80604052505050565b6000612a3f612402565b9050612a4b8282612a04565b919050565b600067ffffffffffffffff821115612a6b57612a6a6129d5565b5b612a7482612518565b9050602081019050919050565b82818337600083830152505050565b6000612aa3612a9e84612a50565b612a35565b905082815260208101848484011115612abf57612abe6129d0565b5b612aca848285612a81565b509392505050565b600082601f830112612ae757612ae66129cb565b5b8135612af7848260208601612a90565b91505092915050565b600080600060608486031215612b1957612b1861240c565b5b600084013567ffffffffffffffff811115612b3757612b36612411565b5b612b4386828701612ad2565b935050602084013567ffffffffffffffff811115612b6457612b63612411565b5b612b7086828701612ad2565b9250506040612b818682870161278b565b9150509250925092565b612b9481612562565b8114612b9f57600080fd5b50565b600081359050612bb181612b8b565b92915050565b60008060408385031215612bce57612bcd61240c565b5b6000612bdc85828601612ba2565b9250506020612bed8582860161245f565b9150509250929050565b600060c082019050612c0c60008301896124ba565b8181036020830152612c1e8188612529565b90508181036040830152612c328187612529565b9050612c41606083018661256e565b612c4e608083018561256e565b612c5b60a083018461256e565b979650505050505050565b600067ffffffffffffffff821115612c8157612c806129d5565b5b602082029050602081019050919050565b600080fd5b6000612caa612ca584612c66565b612a35565b90508083825260208201905060208402830185811115612ccd57612ccc612c92565b5b835b81811015612d1457803567ffffffffffffffff811115612cf257612cf16129cb565b5b808601612cff8982612ad2565b85526020850194505050602081019050612ccf565b5050509392505050565b600082601f830112612d3357612d326129cb565b5b8135612d43848260208601612c97565b91505092915050565b60008060008060008060008060006101208a8c031215612d6f57612d6e61240c565b5b60008a013567ffffffffffffffff811115612d8d57612d8c612411565b5b612d998c828d01612ad2565b99505060208a013567ffffffffffffffff811115612dba57612db9612411565b5b612dc68c828d01612ad2565b98505060408a013567ffffffffffffffff811115612de757612de6612411565b5b612df38c828d01612ad2565b97505060608a013567ffffffffffffffff811115612e1457612e13612411565b5b612e208c828d01612ad2565b9650506080612e318c828d0161278b565b95505060a0612e428c828d0161278b565b94505060c0612e538c828d0161278b565b93505060e0612e648c828d0161278b565b9250506101008a013567ffffffffffffffff811115612e8657612e85612411565b5b612e928c828d01612d1e565b9150509295985092959850929598565b60008060408385031215612eb957612eb861240c565b5b600083013567ffffffffffffffff811115612ed757612ed6612411565b5b612ee385828601612ad2565b925050602083013567ffffffffffffffff811115612f0457612f03612411565b5b612f1085828601612ad2565b9150509250929050565b7f4e487b7100000000000000000000000000000000000000000000000000000000600052602260045260246000fd5b60006002820490506001821680612f6157607f821691505b60208210811415612f7557612f74612f1a565b5b50919050565b7f4e487b7100000000000000000000000000000000000000000000000000000000600052603260045260246000fd5b7f4e487b7100000000000000000000000000000000000000000000000000000000600052601160045260246000fd5b6000612fe4826124a1565b91507fffffffffffffffffffffffffffffffffffffffffffffffffffffffffffffffff82141561301757613016612faa565b5b600182019050919050565b7f526567697374726174696f6e206973206e6f7420737461727465642079657400600082015250565b6000613058601f836124d4565b915061306382613022565b602082019050919050565b600060208201905081810360008301526130878161304b565b9050919050565b7f526567697374726174696f6e20697320616c726561647920656e6465642e0000600082015250565b60006130c4601e836124d4565b91506130cf8261308e565b602082019050919050565b600060208201905081810360008301526130f3816130b7565b9050919050565b6000613105826124a1565b9150613110836124a1565b9250827fffffffffffffffffffffffffffffffffffffffffffffffffffffffffffffffff0382111561314557613144612faa565b5b828201905092915050565b7f566f74696e67206973206e6f7420737461727465642079657400000000000000600082015250565b60006131866019836124d4565b915061319182613150565b602082019050919050565b600060208201905081810360008301526131b581613179565b9050919050565b7f566f74696e6720697320616c726561647920656e646564000000000000000000600082015250565b60006131f26017836124d4565b91506131fd826131bc565b602082019050919050565b60006020820190508181036000830152613221816131e5565b905091905056fea2646970667358221220e0ffe8257afedd0586e02fb4e79dbe9d76f01b5eb4c515db534a5e3b443c64ce64736f6c634300080b0033",
  "linkReferences": {},
  "deployedLinkReferences": {}
}