{
  "_format": "hh-sol-artifact-1",
  "contractName": "Election",
  "sourceName": "contracts/Election.sol",
  "abi": [
    {
      "inputs": [],
      "stateMutability": "nonpayable",
      "type": "constructor"
    },
    {
      "inputs": [],
      "name": "admin",
      "outputs": [
        {
          "internalType": "address",
          "name": "",
          "type": "address"
        }
      ],
      "stateMutability": "view",
      "type": "function"
    },
    {
      "inputs": [
        {
          "internalType": "uint256",
          "name": "",
          "type": "uint256"
        }
      ],
      "name": "approvedCandidates",
      "outputs": [
        {
          "internalType": "address",
          "name": "",
          "type": "address"
        }
      ],
      "stateMutability": "view",
      "type": "function"
    },
    {
      "inputs": [
        {
          "internalType": "uint256",
          "name": "",
          "type": "uint256"
        }
      ],
      "name": "approvedVoters",
      "outputs": [
        {
          "internalType": "address",
          "name": "",
          "type": "address"
        }
      ],
      "stateMutability": "view",
      "type": "function"
    },
    {
      "inputs": [
        {
          "internalType": "address",
          "name": "",
          "type": "address"
        }
      ],
      "name": "candidateDetails",
      "outputs": [
        {
          "internalType": "uint256",
          "name": "candidateId",
          "type": "uint256"
        },
        {
          "internalType": "address",
          "name": "candidateAddress",
          "type": "address"
        },
        {
          "internalType": "string",
          "name": "header",
          "type": "string"
        },
        {
          "internalType": "string",
          "name": "slogan",
          "type": "string"
        },
        {
          "internalType": "uint256",
          "name": "electionTitleIndex",
          "type": "uint256"
        },
        {
          "internalType": "uint256",
          "name": "voteCount",
          "type": "uint256"
        },
        {
          "internalType": "bool",
          "name": "isVerified",
          "type": "bool"
        },
        {
          "internalType": "bool",
          "name": "isRegistered",
          "type": "bool"
        }
      ],
      "stateMutability": "view",
      "type": "function"
    },
    {
      "inputs": [
        {
          "internalType": "uint256",
          "name": "",
          "type": "uint256"
        }
      ],
      "name": "candidates",
      "outputs": [
        {
          "internalType": "address",
          "name": "",
          "type": "address"
        }
      ],
      "stateMutability": "view",
      "type": "function"
    },
    {
      "inputs": [
        {
          "internalType": "uint256",
          "name": "_electionTitleIndex",
          "type": "uint256"
        }
      ],
      "name": "checkForSingleElectionAndCandidate",
      "outputs": [
        {
          "internalType": "bool",
          "name": "",
          "type": "bool"
        }
      ],
      "stateMutability": "view",
      "type": "function"
    },
    {
      "inputs": [],
      "name": "getAdmin",
      "outputs": [
        {
          "internalType": "address",
          "name": "",
          "type": "address"
        }
      ],
      "stateMutability": "view",
      "type": "function"
    },
    {
      "inputs": [],
      "name": "getAdminEmail",
      "outputs": [
        {
          "internalType": "string",
          "name": "",
          "type": "string"
        }
      ],
      "stateMutability": "view",
      "type": "function"
    },
    {
      "inputs": [],
      "name": "getAdminName",
      "outputs": [
        {
          "internalType": "string",
          "name": "",
          "type": "string"
        }
      ],
      "stateMutability": "view",
      "type": "function"
    },
    {
      "inputs": [],
      "name": "getAdminTitle",
      "outputs": [
        {
          "internalType": "string",
          "name": "",
          "type": "string"
        }
      ],
      "stateMutability": "view",
      "type": "function"
    },
    {
      "inputs": [
        {
          "internalType": "address",
          "name": "_currentAddress",
          "type": "address"
        }
      ],
      "name": "getAlreadyRegisteredCandidateStatus",
      "outputs": [
        {
          "internalType": "bool",
          "name": "",
          "type": "bool"
        }
      ],
      "stateMutability": "view",
      "type": "function"
    },
    {
      "inputs": [
        {
          "internalType": "uint256",
          "name": "_electionTitleIndex",
          "type": "uint256"
        }
      ],
      "name": "getCandidateCountForAsscociatedElection",
      "outputs": [
        {
          "internalType": "uint256",
          "name": "",
          "type": "uint256"
        }
      ],
      "stateMutability": "view",
      "type": "function"
    },
    {
      "inputs": [
        {
          "internalType": "uint256",
          "name": "_electionTitleIndex",
          "type": "uint256"
        }
      ],
      "name": "getCandidatesForAssociatedElections",
      "outputs": [
        {
          "components": [
            {
              "internalType": "uint256",
              "name": "candidateId",
              "type": "uint256"
            },
            {
              "internalType": "address",
              "name": "candidateAddress",
              "type": "address"
            },
            {
              "internalType": "string",
              "name": "header",
              "type": "string"
            },
            {
              "internalType": "string",
              "name": "slogan",
              "type": "string"
            },
            {
              "internalType": "uint256",
              "name": "electionTitleIndex",
              "type": "uint256"
            },
            {
              "internalType": "uint256",
              "name": "voteCount",
              "type": "uint256"
            },
            {
              "internalType": "bool",
              "name": "isVerified",
              "type": "bool"
            },
            {
              "internalType": "bool",
              "name": "isRegistered",
              "type": "bool"
            }
          ],
          "internalType": "struct Election.Candidate[]",
          "name": "",
          "type": "tuple[]"
        }
      ],
      "stateMutability": "view",
      "type": "function"
    },
    {
      "inputs": [
        {
          "internalType": "uint256",
          "name": "_timeStamp",
          "type": "uint256"
        }
      ],
      "name": "getElectionEndedStatus",
      "outputs": [
        {
          "internalType": "bool",
          "name": "",
          "type": "bool"
        }
      ],
      "stateMutability": "view",
      "type": "function"
    },
    {
      "inputs": [],
      "name": "getElectionInitStatus",
      "outputs": [
        {
          "internalType": "bool",
          "name": "",
          "type": "bool"
        }
      ],
      "stateMutability": "view",
      "type": "function"
    },
    {
      "inputs": [
        {
          "internalType": "uint256",
          "name": "_timeStamp",
          "type": "uint256"
        }
      ],
      "name": "getElectionStatus",
      "outputs": [
        {
          "internalType": "bool",
          "name": "",
          "type": "bool"
        }
      ],
      "stateMutability": "view",
      "type": "function"
    },
    {
      "inputs": [],
      "name": "getElectionTitles",
      "outputs": [
        {
          "internalType": "string[]",
          "name": "",
          "type": "string[]"
        }
      ],
      "stateMutability": "view",
      "type": "function"
    },
    {
      "inputs": [],
      "name": "getOrganizationTitle",
      "outputs": [
        {
          "internalType": "string",
          "name": "",
          "type": "string"
        }
      ],
      "stateMutability": "view",
      "type": "function"
    },
    {
      "inputs": [],
      "name": "getRegistrationEndTime",
      "outputs": [
        {
          "internalType": "uint256",
          "name": "",
          "type": "uint256"
        }
      ],
      "stateMutability": "view",
      "type": "function"
    },
    {
      "inputs": [],
      "name": "getRegistrationStartTime",
      "outputs": [
        {
          "internalType": "uint256",
          "name": "",
          "type": "uint256"
        }
      ],
      "stateMutability": "view",
      "type": "function"
    },
    {
      "inputs": [
        {
          "internalType": "uint256",
          "name": "_timeStamp",
          "type": "uint256"
        }
      ],
      "name": "getRegistrationStatus",
      "outputs": [
        {
          "internalType": "bool",
          "name": "",
          "type": "bool"
        }
      ],
      "stateMutability": "view",
      "type": "function"
    },
    {
      "inputs": [],
      "name": "getTotalCandidate",
      "outputs": [
        {
          "internalType": "uint256",
          "name": "",
          "type": "uint256"
        }
      ],
      "stateMutability": "view",
      "type": "function"
    },
    {
      "inputs": [],
      "name": "getTotalVoter",
      "outputs": [
        {
          "internalType": "uint256",
          "name": "",
          "type": "uint256"
        }
      ],
      "stateMutability": "view",
      "type": "function"
    },
    {
      "inputs": [
        {
          "internalType": "address",
          "name": "_currentAddress",
          "type": "address"
        }
      ],
      "name": "getVoterStatusForCandidate",
      "outputs": [
        {
          "internalType": "bool",
          "name": "",
          "type": "bool"
        }
      ],
      "stateMutability": "view",
      "type": "function"
    },
    {
      "inputs": [],
      "name": "getVotingEndTime",
      "outputs": [
        {
          "internalType": "uint256",
          "name": "",
          "type": "uint256"
        }
      ],
      "stateMutability": "view",
      "type": "function"
    },
    {
      "inputs": [],
      "name": "getVotingStartTime",
      "outputs": [
        {
          "internalType": "uint256",
          "name": "",
          "type": "uint256"
        }
      ],
      "stateMutability": "view",
      "type": "function"
    },
    {
      "inputs": [],
      "name": "getWinner",
      "outputs": [
        {
          "internalType": "address",
          "name": "",
          "type": "address"
        }
      ],
      "stateMutability": "view",
      "type": "function"
    },
    {
      "inputs": [
        {
          "internalType": "string",
          "name": "_header",
          "type": "string"
        },
        {
          "internalType": "string",
          "name": "_slogan",
          "type": "string"
        },
        {
          "internalType": "uint256",
          "name": "_electionTitleIndex",
          "type": "uint256"
        }
      ],
      "name": "registerAsCandidate",
      "outputs": [],
      "stateMutability": "nonpayable",
      "type": "function"
    },
    {
      "inputs": [
        {
          "internalType": "string",
          "name": "_name",
          "type": "string"
        },
        {
          "internalType": "string",
          "name": "_phone",
          "type": "string"
        }
      ],
      "name": "registerAsVoter",
      "outputs": [],
      "stateMutability": "nonpayable",
      "type": "function"
    },
    {
      "inputs": [
        {
          "internalType": "string",
          "name": "_adminName",
          "type": "string"
        },
        {
          "internalType": "string",
          "name": "_adminEmail",
          "type": "string"
        },
        {
          "internalType": "string",
          "name": "_adminTitle",
          "type": "string"
        },
        {
          "internalType": "string",
          "name": "_organizationTitle",
          "type": "string"
        },
        {
          "internalType": "uint256",
          "name": "_votingStartTime",
          "type": "uint256"
        },
        {
          "internalType": "uint256",
          "name": "_votingEndTime",
          "type": "uint256"
        },
        {
          "internalType": "uint256",
          "name": "_registrationStartTime",
          "type": "uint256"
        },
        {
          "internalType": "uint256",
          "name": "_registrationEndTime",
          "type": "uint256"
        },
        {
          "internalType": "string[]",
          "name": "_elections",
          "type": "string[]"
        }
      ],
      "name": "setElectionDetails",
      "outputs": [],
      "stateMutability": "nonpayable",
      "type": "function"
    },
    {
      "inputs": [
        {
          "internalType": "bool",
          "name": "_verifedStatus",
          "type": "bool"
        },
        {
          "internalType": "address",
          "name": "candidateAddress",
          "type": "address"
        }
      ],
      "name": "verifyCandidate",
      "outputs": [],
      "stateMutability": "nonpayable",
      "type": "function"
    },
    {
      "inputs": [
        {
          "internalType": "bool",
          "name": "_verifedStatus",
          "type": "bool"
        },
        {
          "internalType": "address",
          "name": "voterAddress",
          "type": "address"
        }
      ],
      "name": "verifyVoter",
      "outputs": [],
      "stateMutability": "nonpayable",
      "type": "function"
    },
    {
      "inputs": [
        {
          "internalType": "address",
          "name": "_candidateAddress",
          "type": "address"
        },
        {
          "internalType": "uint256",
          "name": "_electionTitleIndex",
          "type": "uint256"
        }
      ],
      "name": "vote",
      "outputs": [],
      "stateMutability": "nonpayable",
      "type": "function"
    },
    {
      "inputs": [
        {
          "internalType": "address",
          "name": "",
          "type": "address"
        }
      ],
      "name": "voterDetails",
      "outputs": [
        {
          "internalType": "address",
          "name": "voterAddress",
          "type": "address"
        },
        {
          "internalType": "string",
          "name": "name",
          "type": "string"
        },
        {
          "internalType": "string",
          "name": "phone",
          "type": "string"
        },
        {
          "internalType": "bool",
          "name": "isVerified",
          "type": "bool"
        },
        {
          "internalType": "bool",
          "name": "hasVoted",
          "type": "bool"
        },
        {
          "internalType": "bool",
          "name": "isRegistered",
          "type": "bool"
        }
      ],
      "stateMutability": "view",
      "type": "function"
    },
    {
      "inputs": [
        {
          "internalType": "uint256",
          "name": "",
          "type": "uint256"
        }
      ],
      "name": "voters",
      "outputs": [
        {
          "internalType": "address",
          "name": "",
          "type": "address"
        }
      ],
      "stateMutability": "view",
      "type": "function"
    }
  ],
  "bytecode": "0x608060405234801561001057600080fd5b5033600360006101000a81548173ffffffffffffffffffffffffffffffffffffffff021916908373ffffffffffffffffffffffffffffffffffffffff1602179055506000600281905550600060018190555060008060006101000a81548160ff0219169083151502179055506000600a819055506000600b819055506000600c819055506000600d8190555061348f806100ab6000396000f3fe608060405234801561001057600080fd5b50600436106102115760003560e01c806364d198a111610125578063c3a171a2116100ad578063da58c7d91161007c578063da58c7d914610686578063dd698f90146106b6578063df6d2784146106d4578063f851a440146106f2578063fee0d19a1461071057610211565b8063c3a171a214610600578063c784d2131461061c578063cad43b481461063a578063d4ecadb81461065657610211565b8063831318f1116100f4578063831318f1146105585780638e7ea5b214610576578063aed9301014610594578063b1bf87b0146105c4578063be081b6f146105e257610211565b806364d198a1146104ce5780636a82ee51146104ec5780636e9960c31461050a5780637d6605351461052857610211565b80633f66f48b116101a85780634c652fc6116101775780634c652fc614610415578063506b8e0a146104315780635938750d1461044d5780635f74bbde146104825780635fcdd8a11461049e57610211565b80633f66f48b1461036757806341217ed51461039757806345543878146103c757806348343175146103f757610211565b806315811029116101e457806315811029146102a757806319c5c507146102d757806324785b9e146103075780633477ee2e1461033757610211565b806305e73ced146102165780630712aa051461024d5780630b93400e1461026b5780630e2354cf14610289575b600080fd5b610230600480360381019061022b9190612665565b61072c565b60405161024498979695949392919061276e565b60405180910390f35b6102556108be565b6040516102629190612906565b60405180910390f35b610273610a10565b6040516102809190612928565b60405180910390f35b610291610a1a565b60405161029e9190612943565b60405180910390f35b6102c160048036038101906102bc9190612991565b610aaf565b6040516102ce9190612b64565b60405180910390f35b6102f160048036038101906102ec9190612991565b610efa565b6040516102fe9190612b86565b60405180910390f35b610321600480360381019061031c9190612991565b610f2d565b60405161032e9190612b86565b60405180910390f35b610351600480360381019061034c9190612991565b610f60565b60405161035e9190612ba1565b60405180910390f35b610381600480360381019061037c9190612991565b610f9f565b60405161038e9190612ba1565b60405180910390f35b6103b160048036038101906103ac9190612991565b610fde565b6040516103be9190612928565b60405180910390f35b6103e160048036038101906103dc9190612991565b6110a9565b6040516103ee9190612b86565b60405180910390f35b6103ff61119c565b60405161040c9190612943565b60405180910390f35b61042f600480360381019061042a9190612cf1565b611231565b005b61044b60048036038101906104469190612da8565b6114bd565b005b61046760048036038101906104629190612665565b6115d8565b60405161047996959493929190612de8565b60405180910390f35b61049c60048036038101906104979190612e57565b61176b565b005b6104b860048036038101906104b39190612665565b611977565b6040516104c59190612b86565b60405180910390f35b6104d6611a26565b6040516104e39190612928565b60405180910390f35b6104f4611a30565b6040516105019190612928565b60405180910390f35b610512611a3a565b60405161051f9190612ba1565b60405180910390f35b610542600480360381019061053d9190612665565b611a64565b60405161054f9190612b86565b60405180910390f35b610560611b13565b60405161056d9190612943565b60405180910390f35b61057e611ba8565b60405161058b9190612ba1565b60405180910390f35b6105ae60048036038101906105a99190612991565b611c78565b6040516105bb9190612ba1565b60405180910390f35b6105cc611cb7565b6040516105d99190612928565b60405180910390f35b6105ea611cc1565b6040516105f79190612943565b60405180910390f35b61061a60048036038101906106159190612f7d565b611d56565b005b610624611fa3565b6040516106319190612928565b60405180910390f35b610654600480360381019061064f9190612da8565b611fad565b005b610670600480360381019061066b9190612991565b6120c8565b60405161067d9190612b86565b60405180910390f35b6106a0600480360381019061069b9190612991565b6120fa565b6040516106ad9190612ba1565b60405180910390f35b6106be612139565b6040516106cb9190612b86565b60405180910390f35b6106dc61214f565b6040516106e99190612928565b60405180910390f35b6106fa612159565b6040516107079190612ba1565b60405180910390f35b61072a600480360381019061072591906130d3565b61217f565b005b60096020528060005260406000206000915090508060000154908060010160009054906101000a900473ffffffffffffffffffffffffffffffffffffffff169080600201805461077b9061317a565b80601f01602080910402602001604051908101604052809291908181526020018280546107a79061317a565b80156107f45780601f106107c9576101008083540402835291602001916107f4565b820191906000526020600020905b8154815290600101906020018083116107d757829003601f168201915b5050505050908060030180546108099061317a565b80601f01602080910402602001604051908101604052809291908181526020018280546108359061317a565b80156108825780601f1061085757610100808354040283529160200191610882565b820191906000526020600020905b81548152906001019060200180831161086557829003601f168201915b5050505050908060040154908060050154908060060160009054906101000a900460ff16908060060160019054906101000a900460ff16905088565b60606000600e6008018054905067ffffffffffffffff8111156108e4576108e3612bc6565b5b60405190808252806020026020018201604052801561091757816020015b60608152602001906001900390816109025790505b50905060005b600e60080180549050811015610a0857600e6008018181548110610944576109436131ac565b5b9060005260206000200180546109599061317a565b80601f01602080910402602001604051908101604052809291908181526020018280546109859061317a565b80156109d25780601f106109a7576101008083540402835291602001916109d2565b820191906000526020600020905b8154815290600101906020018083116109b557829003601f168201915b50505050508282815181106109ea576109e96131ac565b5b60200260200101819052508080610a009061320a565b91505061091d565b508091505090565b6000600154905090565b6060600e6000018054610a2c9061317a565b80601f0160208091040260200160405190810160405280929190818152602001828054610a589061317a565b8015610aa55780601f10610a7a57610100808354040283529160200191610aa5565b820191906000526020600020905b815481529060010190602001808311610a8857829003601f168201915b5050505050905090565b6060600060078054905067ffffffffffffffff811115610ad257610ad1612bc6565b5b604051908082528060200260200182016040528015610b0b57816020015b610af86123e0565b815260200190600190039081610af05790505b5090506000805b600780549050811015610e3e57846009600060078481548110610b3857610b376131ac565b5b9060005260206000200160009054906101000a900473ffffffffffffffffffffffffffffffffffffffff1673ffffffffffffffffffffffffffffffffffffffff1673ffffffffffffffffffffffffffffffffffffffff168152602001908152602001600020600401541415610e2b576009600060078381548110610bbf57610bbe6131ac565b5b9060005260206000200160009054906101000a900473ffffffffffffffffffffffffffffffffffffffff1673ffffffffffffffffffffffffffffffffffffffff1673ffffffffffffffffffffffffffffffffffffffff16815260200190815260200160002060405180610100016040529081600082015481526020016001820160009054906101000a900473ffffffffffffffffffffffffffffffffffffffff1673ffffffffffffffffffffffffffffffffffffffff1673ffffffffffffffffffffffffffffffffffffffff168152602001600282018054610ca09061317a565b80601f0160208091040260200160405190810160405280929190818152602001828054610ccc9061317a565b8015610d195780601f10610cee57610100808354040283529160200191610d19565b820191906000526020600020905b815481529060010190602001808311610cfc57829003601f168201915b50505050508152602001600382018054610d329061317a565b80601f0160208091040260200160405190810160405280929190818152602001828054610d5e9061317a565b8015610dab5780601f10610d8057610100808354040283529160200191610dab565b820191906000526020600020905b815481529060010190602001808311610d8e57829003601f168201915b5050505050815260200160048201548152602001600582015481526020016006820160009054906101000a900460ff161515151581526020016006820160019054906101000a900460ff161515151581525050838381518110610e1157610e106131ac565b5b60200260200101819052508180610e279061320a565b9250505b8080610e369061320a565b915050610b12565b5060008167ffffffffffffffff811115610e5b57610e5a612bc6565b5b604051908082528060200260200182016040528015610e9457816020015b610e816123e0565b815260200190600190039081610e795790505b50905060005b82811015610eee57838181518110610eb557610eb46131ac565b5b6020026020010151828281518110610ed057610ecf6131ac565b5b60200260200101819052508080610ee69061320a565b915050610e9a565b50809350505050919050565b600080600a548310158015610f115750600b548311155b15610f1f5760019050610f24565b600090505b80915050919050565b600080600c548310158015610f445750600d548311155b15610f525760019050610f57565b600090505b80915050919050565b60058181548110610f7057600080fd5b906000526020600020016000915054906101000a900473ffffffffffffffffffffffffffffffffffffffff1681565b60078181548110610faf57600080fd5b906000526020600020016000915054906101000a900473ffffffffffffffffffffffffffffffffffffffff1681565b6000806000905060005b60078054905081101561109f5783600960006007848154811061100e5761100d6131ac565b5b9060005260206000200160009054906101000a900473ffffffffffffffffffffffffffffffffffffffff1673ffffffffffffffffffffffffffffffffffffffff1673ffffffffffffffffffffffffffffffffffffffff16815260200190815260200160002060040154141561108c5781806110889061320a565b9250505b80806110979061320a565b915050610fe8565b5080915050919050565b60008060009050600080600e60080180549050905060018114156111835760005b600780549050811015611181578560096000600784815481106110f0576110ef6131ac565b5b9060005260206000200160009054906101000a900473ffffffffffffffffffffffffffffffffffffffff1673ffffffffffffffffffffffffffffffffffffffff1673ffffffffffffffffffffffffffffffffffffffff16815260200190815260200160002060040154141561116e57828061116a9061320a565b9350505b80806111799061320a565b9150506110ca565b505b600182141561119157600192505b829350505050919050565b6060600e60030180546111ae9061317a565b80601f01602080910402602001604051908101604052809291908181526020018280546111da9061317a565b80156112275780601f106111fc57610100808354040283529160200191611227565b820191906000526020600020905b81548152906001019060200180831161120a57829003601f168201915b5050505050905090565b600a54421015611276576040517f08c379a000000000000000000000000000000000000000000000000000000000815260040161126d9061329f565b60405180910390fd5b600b544211156112bb576040517f08c379a00000000000000000000000000000000000000000000000000000000081526004016112b29061330b565b60405180910390fd5b600060405180610100016040528060025481526020013373ffffffffffffffffffffffffffffffffffffffff1681526020018581526020018481526020018381526020016000815260200160001515815260200160011515815250905080600960003373ffffffffffffffffffffffffffffffffffffffff1673ffffffffffffffffffffffffffffffffffffffff1681526020019081526020016000206000820151816000015560208201518160010160006101000a81548173ffffffffffffffffffffffffffffffffffffffff021916908373ffffffffffffffffffffffffffffffffffffffff16021790555060408201518160020190805190602001906113c592919061243f565b5060608201518160030190805190602001906113e292919061243f565b506080820151816004015560a0820151816005015560c08201518160060160006101000a81548160ff02191690831515021790555060e08201518160060160016101000a81548160ff0219169083151502179055509050506005339080600181540180825580915050600190039060005260206000200160009091909190916101000a81548173ffffffffffffffffffffffffffffffffffffffff021916908373ffffffffffffffffffffffffffffffffffffffff1602179055506001600260008282546114b0919061332b565b9250508190555050505050565b600360009054906101000a900473ffffffffffffffffffffffffffffffffffffffff1673ffffffffffffffffffffffffffffffffffffffff163373ffffffffffffffffffffffffffffffffffffffff161461151757600080fd5b81600860008373ffffffffffffffffffffffffffffffffffffffff1673ffffffffffffffffffffffffffffffffffffffff16815260200190815260200160002060030160006101000a81548160ff0219169083151502179055506006819080600181540180825580915050600190039060005260206000200160009091909190916101000a81548173ffffffffffffffffffffffffffffffffffffffff021916908373ffffffffffffffffffffffffffffffffffffffff1602179055505050565b60086020528060005260406000206000915090508060000160009054906101000a900473ffffffffffffffffffffffffffffffffffffffff16908060010180546116219061317a565b80601f016020809104026020016040519081016040528092919081815260200182805461164d9061317a565b801561169a5780601f1061166f5761010080835404028352916020019161169a565b820191906000526020600020905b81548152906001019060200180831161167d57829003601f168201915b5050505050908060020180546116af9061317a565b80601f01602080910402602001604051908101604052809291908181526020018280546116db9061317a565b80156117285780601f106116fd57610100808354040283529160200191611728565b820191906000526020600020905b81548152906001019060200180831161170b57829003601f168201915b5050505050908060030160009054906101000a900460ff16908060030160019054906101000a900460ff16908060030160029054906101000a900460ff16905086565b600c544210156117b0576040517f08c379a00000000000000000000000000000000000000000000000000000000081526004016117a7906133cd565b60405180910390fd5b600d544211156117f5576040517f08c379a00000000000000000000000000000000000000000000000000000000081526004016117ec90613439565b60405180910390fd5b60011515600860003373ffffffffffffffffffffffffffffffffffffffff1673ffffffffffffffffffffffffffffffffffffffff16815260200190815260200160002060030160009054906101000a900460ff1615151461185557600080fd5b6001600960008473ffffffffffffffffffffffffffffffffffffffff1673ffffffffffffffffffffffffffffffffffffffff16815260200190815260200160002060050160008282546118a8919061332b565b925050819055506001600860003373ffffffffffffffffffffffffffffffffffffffff1673ffffffffffffffffffffffffffffffffffffffff16815260200190815260200160002060030160016101000a81548160ff021916908315150217905550600860003373ffffffffffffffffffffffffffffffffffffffff1673ffffffffffffffffffffffffffffffffffffffff1681526020019081526020016000206004018190806001815401808255809150506001900390600052602060002001600090919091909150555050565b6000806000905060005b600680549050811015611a1c57600681815481106119a2576119a16131ac565b5b9060005260206000200160009054906101000a900473ffffffffffffffffffffffffffffffffffffffff1673ffffffffffffffffffffffffffffffffffffffff168473ffffffffffffffffffffffffffffffffffffffff161415611a095760019150611a1c565b8080611a149061320a565b915050611981565b5080915050919050565b6000600254905090565b6000600c54905090565b6000600360009054906101000a900473ffffffffffffffffffffffffffffffffffffffff16905090565b6000806000905060005b600580549050811015611b095760058181548110611a8f57611a8e6131ac565b5b9060005260206000200160009054906101000a900473ffffffffffffffffffffffffffffffffffffffff1673ffffffffffffffffffffffffffffffffffffffff168473ffffffffffffffffffffffffffffffffffffffff161415611af65760019150611b09565b8080611b019061320a565b915050611a6e565b5080915050919050565b6060600e6001018054611b259061317a565b80601f0160208091040260200160405190810160405280929190818152602001828054611b519061317a565b8015611b9e5780601f10611b7357610100808354040283529160200191611b9e565b820191906000526020600020905b815481529060010190602001808311611b8157829003601f168201915b5050505050905090565b60008060009050600080600090505b600254811015611c6f57600060078281548110611bd757611bd66131ac565b5b9060005260206000200160009054906101000a900473ffffffffffffffffffffffffffffffffffffffff1690506000600960008373ffffffffffffffffffffffffffffffffffffffff1673ffffffffffffffffffffffffffffffffffffffff16815260200190815260200160002060050154905084811115611c5a578094508193505b50508080611c679061320a565b915050611bb7565b50809250505090565b60068181548110611c8857600080fd5b906000526020600020016000915054906101000a900473ffffffffffffffffffffffffffffffffffffffff1681565b6000600d54905090565b6060600e6002018054611cd39061317a565b80601f0160208091040260200160405190810160405280929190818152602001828054611cff9061317a565b8015611d4c5780601f10611d2157610100808354040283529160200191611d4c565b820191906000526020600020905b815481529060010190602001808311611d2f57829003601f168201915b5050505050905090565b600360009054906101000a900473ffffffffffffffffffffffffffffffffffffffff1673ffffffffffffffffffffffffffffffffffffffff163373ffffffffffffffffffffffffffffffffffffffff1614611db057600080fd5b6000815167ffffffffffffffff811115611dcd57611dcc612bc6565b5b604051908082528060200260200182016040528015611e0057816020015b6060815260200190600190039081611deb5790505b50905060005b8251811015611e5b57828181518110611e2257611e216131ac565b5b6020026020010151828281518110611e3d57611e3c6131ac565b5b60200260200101819052508080611e539061320a565b915050611e06565b5060006040518061012001604052808c81526020018b81526020018a815260200189815260200188815260200187815260200186815260200185815260200183815250905080600e6000820151816000019080519060200190611ebf92919061243f565b506020820151816001019080519060200190611edc92919061243f565b506040820151816002019080519060200190611ef992919061243f565b506060820151816003019080519060200190611f1692919061243f565b506080820151816004015560a0820151816005015560c0820151816006015560e08201518160070155610100820151816008019080519060200190611f5c9291906124c5565b5090505060016000806101000a81548160ff02191690831515021790555084600a8190555083600b8190555086600c8190555085600d819055505050505050505050505050565b6000600b54905090565b600360009054906101000a900473ffffffffffffffffffffffffffffffffffffffff1673ffffffffffffffffffffffffffffffffffffffff163373ffffffffffffffffffffffffffffffffffffffff161461200757600080fd5b81600960008373ffffffffffffffffffffffffffffffffffffffff1673ffffffffffffffffffffffffffffffffffffffff16815260200190815260200160002060060160006101000a81548160ff0219169083151502179055506007819080600181540180825580915050600190039060005260206000200160009091909190916101000a81548173ffffffffffffffffffffffffffffffffffffffff021916908373ffffffffffffffffffffffffffffffffffffffff1602179055505050565b6000806000905060008054906101000a900460ff16156120f157600d5483106120f057600190505b5b80915050919050565b6004818154811061210a57600080fd5b906000526020600020016000915054906101000a900473ffffffffffffffffffffffffffffffffffffffff1681565b60008060009054906101000a900460ff16905090565b6000600a54905090565b600360009054906101000a900473ffffffffffffffffffffffffffffffffffffffff1681565b60006040518060e001604052803373ffffffffffffffffffffffffffffffffffffffff168152602001848152602001838152602001600015158152602001600015158152602001600115158152602001600067ffffffffffffffff8111156121ea576121e9612bc6565b5b6040519080825280602002602001820160405280156122185781602001602082028036833780820191505090505b50815250905080600860003373ffffffffffffffffffffffffffffffffffffffff1673ffffffffffffffffffffffffffffffffffffffff16815260200190815260200160002060008201518160000160006101000a81548173ffffffffffffffffffffffffffffffffffffffff021916908373ffffffffffffffffffffffffffffffffffffffff16021790555060208201518160010190805190602001906122c192919061243f565b5060408201518160020190805190602001906122de92919061243f565b5060608201518160030160006101000a81548160ff02191690831515021790555060808201518160030160016101000a81548160ff02191690831515021790555060a08201518160030160026101000a81548160ff02191690831515021790555060c082015181600401908051906020019061235b929190612525565b509050506004339080600181540180825580915050600190039060005260206000200160009091909190916101000a81548173ffffffffffffffffffffffffffffffffffffffff021916908373ffffffffffffffffffffffffffffffffffffffff16021790555060018060008282546123d4919061332b565b92505081905550505050565b60405180610100016040528060008152602001600073ffffffffffffffffffffffffffffffffffffffff168152602001606081526020016060815260200160008152602001600081526020016000151581526020016000151581525090565b82805461244b9061317a565b90600052602060002090601f01602090048101928261246d57600085556124b4565b82601f1061248657805160ff19168380011785556124b4565b828001600101855582156124b4579182015b828111156124b3578251825591602001919060010190612498565b5b5090506124c19190612572565b5090565b828054828255906000526020600020908101928215612514579160200282015b8281111561251357825182908051906020019061250392919061243f565b50916020019190600101906124e5565b5b509050612521919061258f565b5090565b828054828255906000526020600020908101928215612561579160200282015b82811115612560578251825591602001919060010190612545565b5b50905061256e9190612572565b5090565b5b8082111561258b576000816000905550600101612573565b5090565b5b808211156125af57600081816125a691906125b3565b50600101612590565b5090565b5080546125bf9061317a565b6000825580601f106125d157506125f0565b601f0160209004906000526020600020908101906125ef9190612572565b5b50565b6000604051905090565b600080fd5b600080fd5b600073ffffffffffffffffffffffffffffffffffffffff82169050919050565b600061263282612607565b9050919050565b61264281612627565b811461264d57600080fd5b50565b60008135905061265f81612639565b92915050565b60006020828403121561267b5761267a6125fd565b5b600061268984828501612650565b91505092915050565b6000819050919050565b6126a581612692565b82525050565b6126b481612627565b82525050565b600081519050919050565b600082825260208201905092915050565b60005b838110156126f45780820151818401526020810190506126d9565b83811115612703576000848401525b50505050565b6000601f19601f8301169050919050565b6000612725826126ba565b61272f81856126c5565b935061273f8185602086016126d6565b61274881612709565b840191505092915050565b60008115159050919050565b61276881612753565b82525050565b600061010082019050612784600083018b61269c565b612791602083018a6126ab565b81810360408301526127a3818961271a565b905081810360608301526127b7818861271a565b90506127c6608083018761269c565b6127d360a083018661269c565b6127e060c083018561275f565b6127ed60e083018461275f565b9998505050505050505050565b600081519050919050565b600082825260208201905092915050565b6000819050602082019050919050565b600082825260208201905092915050565b6000612842826126ba565b61284c8185612826565b935061285c8185602086016126d6565b61286581612709565b840191505092915050565b600061287c8383612837565b905092915050565b6000602082019050919050565b600061289c826127fa565b6128a68185612805565b9350836020820285016128b885612816565b8060005b858110156128f457848403895281516128d58582612870565b94506128e083612884565b925060208a019950506001810190506128bc565b50829750879550505050505092915050565b600060208201905081810360008301526129208184612891565b905092915050565b600060208201905061293d600083018461269c565b92915050565b6000602082019050818103600083015261295d818461271a565b905092915050565b61296e81612692565b811461297957600080fd5b50565b60008135905061298b81612965565b92915050565b6000602082840312156129a7576129a66125fd565b5b60006129b58482850161297c565b91505092915050565b600081519050919050565b600082825260208201905092915050565b6000819050602082019050919050565b6129f381612692565b82525050565b612a0281612627565b82525050565b612a1181612753565b82525050565b600061010083016000830151612a3060008601826129ea565b506020830151612a4360208601826129f9565b5060408301518482036040860152612a5b8282612837565b91505060608301518482036060860152612a758282612837565b9150506080830151612a8a60808601826129ea565b5060a0830151612a9d60a08601826129ea565b5060c0830151612ab060c0860182612a08565b5060e0830151612ac360e0860182612a08565b508091505092915050565b6000612ada8383612a17565b905092915050565b6000602082019050919050565b6000612afa826129be565b612b0481856129c9565b935083602082028501612b16856129da565b8060005b85811015612b525784840389528151612b338582612ace565b9450612b3e83612ae2565b925060208a01995050600181019050612b1a565b50829750879550505050505092915050565b60006020820190508181036000830152612b7e8184612aef565b905092915050565b6000602082019050612b9b600083018461275f565b92915050565b6000602082019050612bb660008301846126ab565b92915050565b600080fd5b600080fd5b7f4e487b7100000000000000000000000000000000000000000000000000000000600052604160045260246000fd5b612bfe82612709565b810181811067ffffffffffffffff82111715612c1d57612c1c612bc6565b5b80604052505050565b6000612c306125f3565b9050612c3c8282612bf5565b919050565b600067ffffffffffffffff821115612c5c57612c5b612bc6565b5b612c6582612709565b9050602081019050919050565b82818337600083830152505050565b6000612c94612c8f84612c41565b612c26565b905082815260208101848484011115612cb057612caf612bc1565b5b612cbb848285612c72565b509392505050565b600082601f830112612cd857612cd7612bbc565b5b8135612ce8848260208601612c81565b91505092915050565b600080600060608486031215612d0a57612d096125fd565b5b600084013567ffffffffffffffff811115612d2857612d27612602565b5b612d3486828701612cc3565b935050602084013567ffffffffffffffff811115612d5557612d54612602565b5b612d6186828701612cc3565b9250506040612d728682870161297c565b9150509250925092565b612d8581612753565b8114612d9057600080fd5b50565b600081359050612da281612d7c565b92915050565b60008060408385031215612dbf57612dbe6125fd565b5b6000612dcd85828601612d93565b9250506020612dde85828601612650565b9150509250929050565b600060c082019050612dfd60008301896126ab565b8181036020830152612e0f818861271a565b90508181036040830152612e23818761271a565b9050612e32606083018661275f565b612e3f608083018561275f565b612e4c60a083018461275f565b979650505050505050565b60008060408385031215612e6e57612e6d6125fd565b5b6000612e7c85828601612650565b9250506020612e8d8582860161297c565b9150509250929050565b600067ffffffffffffffff821115612eb257612eb1612bc6565b5b602082029050602081019050919050565b600080fd5b6000612edb612ed684612e97565b612c26565b90508083825260208201905060208402830185811115612efe57612efd612ec3565b5b835b81811015612f4557803567ffffffffffffffff811115612f2357612f22612bbc565b5b808601612f308982612cc3565b85526020850194505050602081019050612f00565b5050509392505050565b600082601f830112612f6457612f63612bbc565b5b8135612f74848260208601612ec8565b91505092915050565b60008060008060008060008060006101208a8c031215612fa057612f9f6125fd565b5b60008a013567ffffffffffffffff811115612fbe57612fbd612602565b5b612fca8c828d01612cc3565b99505060208a013567ffffffffffffffff811115612feb57612fea612602565b5b612ff78c828d01612cc3565b98505060408a013567ffffffffffffffff81111561301857613017612602565b5b6130248c828d01612cc3565b97505060608a013567ffffffffffffffff81111561304557613044612602565b5b6130518c828d01612cc3565b96505060806130628c828d0161297c565b95505060a06130738c828d0161297c565b94505060c06130848c828d0161297c565b93505060e06130958c828d0161297c565b9250506101008a013567ffffffffffffffff8111156130b7576130b6612602565b5b6130c38c828d01612f4f565b9150509295985092959850929598565b600080604083850312156130ea576130e96125fd565b5b600083013567ffffffffffffffff81111561310857613107612602565b5b61311485828601612cc3565b925050602083013567ffffffffffffffff81111561313557613134612602565b5b61314185828601612cc3565b9150509250929050565b7f4e487b7100000000000000000000000000000000000000000000000000000000600052602260045260246000fd5b6000600282049050600182168061319257607f821691505b602082108114156131a6576131a561314b565b5b50919050565b7f4e487b7100000000000000000000000000000000000000000000000000000000600052603260045260246000fd5b7f4e487b7100000000000000000000000000000000000000000000000000000000600052601160045260246000fd5b600061321582612692565b91507fffffffffffffffffffffffffffffffffffffffffffffffffffffffffffffffff821415613248576132476131db565b5b600182019050919050565b7f526567697374726174696f6e206973206e6f7420737461727465642079657400600082015250565b6000613289601f836126c5565b915061329482613253565b602082019050919050565b600060208201905081810360008301526132b88161327c565b9050919050565b7f526567697374726174696f6e20697320616c726561647920656e6465642e0000600082015250565b60006132f5601e836126c5565b9150613300826132bf565b602082019050919050565b60006020820190508181036000830152613324816132e8565b9050919050565b600061333682612692565b915061334183612692565b9250827fffffffffffffffffffffffffffffffffffffffffffffffffffffffffffffffff03821115613376576133756131db565b5b828201905092915050565b7f566f74696e67206973206e6f7420737461727465642079657400000000000000600082015250565b60006133b76019836126c5565b91506133c282613381565b602082019050919050565b600060208201905081810360008301526133e6816133aa565b9050919050565b7f566f74696e6720697320616c726561647920656e646564000000000000000000600082015250565b60006134236017836126c5565b915061342e826133ed565b602082019050919050565b6000602082019050818103600083015261345281613416565b905091905056fea2646970667358221220969922e8089a3fce6cd277b2fd4892605ce7adc300f81ebe8af7d3160877144864736f6c634300080b0033",
  "linkReferences": {},
  "deployedLinkReferences": {}
}