{
  "_format": "hh-sol-artifact-1",
  "contractName": "Election",
  "sourceName": "contracts/Election.sol",
  "abi": [
    {
      "inputs": [],
      "stateMutability": "nonpayable",
      "type": "constructor"
    },
    {
      "inputs": [],
      "name": "admin",
      "outputs": [
        {
          "internalType": "address",
          "name": "",
          "type": "address"
        }
      ],
      "stateMutability": "view",
      "type": "function"
    },
    {
      "inputs": [
        {
          "internalType": "address",
          "name": "",
          "type": "address"
        }
      ],
      "name": "candidateDetails",
      "outputs": [
        {
          "internalType": "uint256",
          "name": "candidateId",
          "type": "uint256"
        },
        {
          "internalType": "address",
          "name": "candidateAddress",
          "type": "address"
        },
        {
          "internalType": "string",
          "name": "header",
          "type": "string"
        },
        {
          "internalType": "string",
          "name": "slogan",
          "type": "string"
        },
        {
          "internalType": "uint256",
          "name": "voteCount",
          "type": "uint256"
        },
        {
          "internalType": "bool",
          "name": "isVerified",
          "type": "bool"
        },
        {
          "internalType": "bool",
          "name": "isRegistered",
          "type": "bool"
        }
      ],
      "stateMutability": "view",
      "type": "function"
    },
    {
      "inputs": [
        {
          "internalType": "uint256",
          "name": "",
          "type": "uint256"
        }
      ],
      "name": "candidates",
      "outputs": [
        {
          "internalType": "address",
          "name": "",
          "type": "address"
        }
      ],
      "stateMutability": "view",
      "type": "function"
    },
    {
      "inputs": [],
      "name": "endElection",
      "outputs": [],
      "stateMutability": "nonpayable",
      "type": "function"
    },
    {
      "inputs": [],
      "name": "getAdmin",
      "outputs": [
        {
          "internalType": "address",
          "name": "",
          "type": "address"
        }
      ],
      "stateMutability": "view",
      "type": "function"
    },
    {
      "inputs": [],
      "name": "getAdminEmail",
      "outputs": [
        {
          "internalType": "string",
          "name": "",
          "type": "string"
        }
      ],
      "stateMutability": "view",
      "type": "function"
    },
    {
      "inputs": [],
      "name": "getAdminName",
      "outputs": [
        {
          "internalType": "string",
          "name": "",
          "type": "string"
        }
      ],
      "stateMutability": "view",
      "type": "function"
    },
    {
      "inputs": [],
      "name": "getAdminTitle",
      "outputs": [
        {
          "internalType": "string",
          "name": "",
          "type": "string"
        }
      ],
      "stateMutability": "view",
      "type": "function"
    },
    {
      "inputs": [],
      "name": "getElectionTitle",
      "outputs": [
        {
          "internalType": "string",
          "name": "",
          "type": "string"
        }
      ],
      "stateMutability": "view",
      "type": "function"
    },
    {
      "inputs": [],
      "name": "getEnd",
      "outputs": [
        {
          "internalType": "bool",
          "name": "",
          "type": "bool"
        }
      ],
      "stateMutability": "view",
      "type": "function"
    },
    {
      "inputs": [],
      "name": "getOrganizationTitle",
      "outputs": [
        {
          "internalType": "string",
          "name": "",
          "type": "string"
        }
      ],
      "stateMutability": "view",
      "type": "function"
    },
    {
      "inputs": [],
      "name": "getStart",
      "outputs": [
        {
          "internalType": "bool",
          "name": "",
          "type": "bool"
        }
      ],
      "stateMutability": "view",
      "type": "function"
    },
    {
      "inputs": [],
      "name": "getTotalCandidate",
      "outputs": [
        {
          "internalType": "uint256",
          "name": "",
          "type": "uint256"
        }
      ],
      "stateMutability": "view",
      "type": "function"
    },
    {
      "inputs": [],
      "name": "getTotalVoter",
      "outputs": [
        {
          "internalType": "uint256",
          "name": "",
          "type": "uint256"
        }
      ],
      "stateMutability": "view",
      "type": "function"
    },
    {
      "inputs": [],
      "name": "getWinner",
      "outputs": [
        {
          "internalType": "address",
          "name": "",
          "type": "address"
        }
      ],
      "stateMutability": "view",
      "type": "function"
    },
    {
      "inputs": [
        {
          "internalType": "string",
          "name": "_header",
          "type": "string"
        },
        {
          "internalType": "string",
          "name": "_slogan",
          "type": "string"
        }
      ],
      "name": "registerAsCandidate",
      "outputs": [],
      "stateMutability": "nonpayable",
      "type": "function"
    },
    {
      "inputs": [
        {
          "internalType": "string",
          "name": "_name",
          "type": "string"
        },
        {
          "internalType": "string",
          "name": "_phone",
          "type": "string"
        }
      ],
      "name": "registerAsVoter",
      "outputs": [],
      "stateMutability": "nonpayable",
      "type": "function"
    },
    {
      "inputs": [
        {
          "internalType": "string",
          "name": "_adminName",
          "type": "string"
        },
        {
          "internalType": "string",
          "name": "_adminEmail",
          "type": "string"
        },
        {
          "internalType": "string",
          "name": "_adminTitle",
          "type": "string"
        },
        {
          "internalType": "string",
          "name": "_electionTitle",
          "type": "string"
        },
        {
          "internalType": "string",
          "name": "_organizationTitle",
          "type": "string"
        }
      ],
      "name": "setElectionDetails",
      "outputs": [],
      "stateMutability": "nonpayable",
      "type": "function"
    },
    {
      "inputs": [
        {
          "internalType": "bool",
          "name": "_verifedStatus",
          "type": "bool"
        },
        {
          "internalType": "address",
          "name": "candidateAddress",
          "type": "address"
        }
      ],
      "name": "verifyCandidate",
      "outputs": [],
      "stateMutability": "nonpayable",
      "type": "function"
    },
    {
      "inputs": [
        {
          "internalType": "bool",
          "name": "_verifedStatus",
          "type": "bool"
        },
        {
          "internalType": "address",
          "name": "voterAddress",
          "type": "address"
        }
      ],
      "name": "verifyVoter",
      "outputs": [],
      "stateMutability": "nonpayable",
      "type": "function"
    },
    {
      "inputs": [
        {
          "internalType": "address",
          "name": "_candidateAddress",
          "type": "address"
        }
      ],
      "name": "vote",
      "outputs": [],
      "stateMutability": "nonpayable",
      "type": "function"
    },
    {
      "inputs": [
        {
          "internalType": "address",
          "name": "",
          "type": "address"
        }
      ],
      "name": "voterDetails",
      "outputs": [
        {
          "internalType": "address",
          "name": "voterAddress",
          "type": "address"
        },
        {
          "internalType": "string",
          "name": "name",
          "type": "string"
        },
        {
          "internalType": "string",
          "name": "phone",
          "type": "string"
        },
        {
          "internalType": "bool",
          "name": "isVerified",
          "type": "bool"
        },
        {
          "internalType": "bool",
          "name": "hasVoted",
          "type": "bool"
        },
        {
          "internalType": "bool",
          "name": "isRegistered",
          "type": "bool"
        }
      ],
      "stateMutability": "view",
      "type": "function"
    },
    {
      "inputs": [
        {
          "internalType": "uint256",
          "name": "",
          "type": "uint256"
        }
      ],
      "name": "voters",
      "outputs": [
        {
          "internalType": "address",
          "name": "",
          "type": "address"
        }
      ],
      "stateMutability": "view",
      "type": "function"
    }
  ],
  "bytecode": "0x608060405234801561001057600080fd5b5033600360006101000a81548173ffffffffffffffffffffffffffffffffffffffff021916908373ffffffffffffffffffffffffffffffffffffffff1602179055506000600281905550600060018190555060008060006101000a81548160ff02191690831515021790555060008060016101000a81548160ff021916908315150217905550611d40806100a56000396000f3fe608060405234801561001057600080fd5b506004361061014d5760003560e01c80636dd7d8ea116100c3578063c5292c671161007c578063c5292c6714610375578063cad43b4814610393578063da58c7d9146103af578063e173730c146103df578063f851a440146103fd578063fee0d19a1461041b5761014d565b80636dd7d8ea146102c35780636e9960c3146102df578063831318f1146102fd5780638e7ea5b21461031b5780639f05a36d14610339578063be081b6f146103575761014d565b80633477ee2e116101155780633477ee2e146101fc578063483431751461022c578063506b8e0a1461024a5780635938750d1461026657806359f784681461029b57806364d198a1146102a55761014d565b806304b8789b1461015257806305e73ced1461016e5780630b93400e146101a45780630e2354cf146101c2578063253e74e2146101e0575b600080fd5b61016c600480360381019061016791906116e0565b610437565b005b6101886004803603810190610183919061167b565b610627565b60405161019b97969594939291906119ac565b60405180910390f35b6101ac6107b3565b6040516101b99190611991565b60405180910390f35b6101ca6107bd565b6040516101d7919061196f565b60405180910390f35b6101fa60048036038101906101f5919061174c565b610852565b005b6102166004803603810190610211919061183b565b6109a4565b60405161022391906118ca565b60405180910390f35b6102346109e3565b604051610241919061196f565b60405180910390f35b610264600480360381019061025f91906116a4565b610a78565b005b610280600480360381019061027b919061167b565b610b30565b604051610292969594939291906118e5565b60405180910390f35b6102a3610cc3565b005b6102ad610d54565b6040516102ba9190611991565b60405180910390f35b6102dd60048036038101906102d8919061167b565b610d5e565b005b6102e7610f14565b6040516102f491906118ca565b60405180910390f35b610305610f3e565b604051610312919061196f565b60405180910390f35b610323610fd3565b60405161033091906118ca565b60405180910390f35b6103416110c9565b60405161034e9190611954565b60405180910390f35b61035f6110df565b60405161036c919061196f565b60405180910390f35b61037d611174565b60405161038a9190611954565b60405180910390f35b6103ad60048036038101906103a891906116a4565b61118a565b005b6103c960048036038101906103c4919061183b565b611242565b6040516103d691906118ca565b60405180910390f35b6103e7611281565b6040516103f4919061196f565b60405180910390f35b610405611316565b60405161041291906118ca565b60405180910390f35b610435600480360381019061043091906116e0565b61133c565b005b60006040518060e0016040528060025481526020013373ffffffffffffffffffffffffffffffffffffffff1681526020018481526020018381526020016000815260200160001515815260200160011515815250905080600760003373ffffffffffffffffffffffffffffffffffffffff1673ffffffffffffffffffffffffffffffffffffffff1681526020019081526020016000206000820151816000015560208201518160010160006101000a81548173ffffffffffffffffffffffffffffffffffffffff021916908373ffffffffffffffffffffffffffffffffffffffff160217905550604082015181600201908051906020019061053a929190611531565b506060820151816003019080519060200190610557929190611531565b506080820151816004015560a08201518160050160006101000a81548160ff02191690831515021790555060c08201518160050160016101000a81548160ff0219169083151502179055509050506005339080600181540180825580915050600190039060005260206000200160009091909190916101000a81548173ffffffffffffffffffffffffffffffffffffffff021916908373ffffffffffffffffffffffffffffffffffffffff16021790555060016002600082825461061b9190611a9b565b92505081905550505050565b60076020528060005260406000206000915090508060000154908060010160009054906101000a900473ffffffffffffffffffffffffffffffffffffffff169080600201805461067690611b7b565b80601f01602080910402602001604051908101604052809291908181526020018280546106a290611b7b565b80156106ef5780601f106106c4576101008083540402835291602001916106ef565b820191906000526020600020905b8154815290600101906020018083116106d257829003601f168201915b50505050509080600301805461070490611b7b565b80601f016020809104026020016040519081016040528092919081815260200182805461073090611b7b565b801561077d5780601f106107525761010080835404028352916020019161077d565b820191906000526020600020905b81548152906001019060200180831161076057829003601f168201915b5050505050908060040154908060050160009054906101000a900460ff16908060050160019054906101000a900460ff16905087565b6000600154905090565b6060600c60000180546107cf90611b7b565b80601f01602080910402602001604051908101604052809291908181526020018280546107fb90611b7b565b80156108485780601f1061081d57610100808354040283529160200191610848565b820191906000526020600020905b81548152906001019060200180831161082b57829003601f168201915b5050505050905090565b600360009054906101000a900473ffffffffffffffffffffffffffffffffffffffff1673ffffffffffffffffffffffffffffffffffffffff163373ffffffffffffffffffffffffffffffffffffffff16146108ac57600080fd5b6040518060a0016040528086815260200185815260200184815260200183815260200182815250600c60008201518160000190805190602001906108f1929190611531565b50602082015181600101908051906020019061090e929190611531565b50604082015181600201908051906020019061092b929190611531565b506060820151816003019080519060200190610948929190611531565b506080820151816004019080519060200190610965929190611531565b5090505060016000806101000a81548160ff02191690831515021790555060008060016101000a81548160ff0219169083151502179055505050505050565b600581815481106109b457600080fd5b906000526020600020016000915054906101000a900473ffffffffffffffffffffffffffffffffffffffff1681565b6060600c60040180546109f590611b7b565b80601f0160208091040260200160405190810160405280929190818152602001828054610a2190611b7b565b8015610a6e5780601f10610a4357610100808354040283529160200191610a6e565b820191906000526020600020905b815481529060010190602001808311610a5157829003601f168201915b5050505050905090565b600360009054906101000a900473ffffffffffffffffffffffffffffffffffffffff1673ffffffffffffffffffffffffffffffffffffffff163373ffffffffffffffffffffffffffffffffffffffff1614610ad257600080fd5b81600660008373ffffffffffffffffffffffffffffffffffffffff1673ffffffffffffffffffffffffffffffffffffffff16815260200190815260200160002060030160006101000a81548160ff0219169083151502179055505050565b60066020528060005260406000206000915090508060000160009054906101000a900473ffffffffffffffffffffffffffffffffffffffff1690806001018054610b7990611b7b565b80601f0160208091040260200160405190810160405280929190818152602001828054610ba590611b7b565b8015610bf25780601f10610bc757610100808354040283529160200191610bf2565b820191906000526020600020905b815481529060010190602001808311610bd557829003601f168201915b505050505090806002018054610c0790611b7b565b80601f0160208091040260200160405190810160405280929190818152602001828054610c3390611b7b565b8015610c805780601f10610c5557610100808354040283529160200191610c80565b820191906000526020600020905b815481529060010190602001808311610c6357829003601f168201915b5050505050908060030160009054906101000a900460ff16908060030160019054906101000a900460ff16908060030160029054906101000a900460ff16905086565b600360009054906101000a900473ffffffffffffffffffffffffffffffffffffffff1673ffffffffffffffffffffffffffffffffffffffff163373ffffffffffffffffffffffffffffffffffffffff1614610d1d57600080fd5b6001600060016101000a81548160ff02191690831515021790555060008060006101000a81548160ff021916908315150217905550565b6000600254905090565b60001515600660003373ffffffffffffffffffffffffffffffffffffffff1673ffffffffffffffffffffffffffffffffffffffff16815260200190815260200160002060030160019054906101000a900460ff16151514610dbe57600080fd5b60011515600660003373ffffffffffffffffffffffffffffffffffffffff1673ffffffffffffffffffffffffffffffffffffffff16815260200190815260200160002060030160009054906101000a900460ff16151514610e1e57600080fd5b6001151560008054906101000a900460ff16151514610e3c57600080fd5b60001515600060019054906101000a900460ff16151514610e5c57600080fd5b6001600760008373ffffffffffffffffffffffffffffffffffffffff1673ffffffffffffffffffffffffffffffffffffffff1681526020019081526020016000206004016000828254610eaf9190611a9b565b925050819055506001600660003373ffffffffffffffffffffffffffffffffffffffff1673ffffffffffffffffffffffffffffffffffffffff16815260200190815260200160002060030160016101000a81548160ff02191690831515021790555050565b6000600360009054906101000a900473ffffffffffffffffffffffffffffffffffffffff16905090565b6060600c6001018054610f5090611b7b565b80601f0160208091040260200160405190810160405280929190818152602001828054610f7c90611b7b565b8015610fc95780601f10610f9e57610100808354040283529160200191610fc9565b820191906000526020600020905b815481529060010190602001808311610fac57829003601f168201915b5050505050905090565b60008060009050600080600090505b6002548110156110c057600060058281548110611028577f4e487b7100000000000000000000000000000000000000000000000000000000600052603260045260246000fd5b9060005260206000200160009054906101000a900473ffffffffffffffffffffffffffffffffffffffff1690506000600760008373ffffffffffffffffffffffffffffffffffffffff1673ffffffffffffffffffffffffffffffffffffffff168152602001908152602001600020600401549050848111156110ab578094508193505b505080806110b890611bde565b915050610fe2565b50809250505090565b60008060019054906101000a900460ff16905090565b6060600c60020180546110f190611b7b565b80601f016020809104026020016040519081016040528092919081815260200182805461111d90611b7b565b801561116a5780601f1061113f5761010080835404028352916020019161116a565b820191906000526020600020905b81548152906001019060200180831161114d57829003601f168201915b5050505050905090565b60008060009054906101000a900460ff16905090565b600360009054906101000a900473ffffffffffffffffffffffffffffffffffffffff1673ffffffffffffffffffffffffffffffffffffffff163373ffffffffffffffffffffffffffffffffffffffff16146111e457600080fd5b81600760008373ffffffffffffffffffffffffffffffffffffffff1673ffffffffffffffffffffffffffffffffffffffff16815260200190815260200160002060050160006101000a81548160ff0219169083151502179055505050565b6004818154811061125257600080fd5b906000526020600020016000915054906101000a900473ffffffffffffffffffffffffffffffffffffffff1681565b6060600c600301805461129390611b7b565b80601f01602080910402602001604051908101604052809291908181526020018280546112bf90611b7b565b801561130c5780601f106112e15761010080835404028352916020019161130c565b820191906000526020600020905b8154815290600101906020018083116112ef57829003601f168201915b5050505050905090565b600360009054906101000a900473ffffffffffffffffffffffffffffffffffffffff1681565b60006040518060c001604052803373ffffffffffffffffffffffffffffffffffffffff16815260200184815260200183815260200160001515815260200160001515815260200160011515815250905080600660003373ffffffffffffffffffffffffffffffffffffffff1673ffffffffffffffffffffffffffffffffffffffff16815260200190815260200160002060008201518160000160006101000a81548173ffffffffffffffffffffffffffffffffffffffff021916908373ffffffffffffffffffffffffffffffffffffffff160217905550602082015181600101908051906020019061142f929190611531565b50604082015181600201908051906020019061144c929190611531565b5060608201518160030160006101000a81548160ff02191690831515021790555060808201518160030160016101000a81548160ff02191690831515021790555060a08201518160030160026101000a81548160ff0219169083151502179055509050506004339080600181540180825580915050600190039060005260206000200160009091909190916101000a81548173ffffffffffffffffffffffffffffffffffffffff021916908373ffffffffffffffffffffffffffffffffffffffff16021790555060018060008282546115259190611a9b565b92505081905550505050565b82805461153d90611b7b565b90600052602060002090601f01602090048101928261155f57600085556115a6565b82601f1061157857805160ff19168380011785556115a6565b828001600101855582156115a6579182015b828111156115a557825182559160200191906001019061158a565b5b5090506115b391906115b7565b5090565b5b808211156115d05760008160009055506001016115b8565b5090565b60006115e76115e284611a4e565b611a29565b9050828152602081018484840111156115ff57600080fd5b61160a848285611b39565b509392505050565b60008135905061162181611cc5565b92915050565b60008135905061163681611cdc565b92915050565b600082601f83011261164d57600080fd5b813561165d8482602086016115d4565b91505092915050565b60008135905061167581611cf3565b92915050565b60006020828403121561168d57600080fd5b600061169b84828501611612565b91505092915050565b600080604083850312156116b757600080fd5b60006116c585828601611627565b92505060206116d685828601611612565b9150509250929050565b600080604083850312156116f357600080fd5b600083013567ffffffffffffffff81111561170d57600080fd5b6117198582860161163c565b925050602083013567ffffffffffffffff81111561173657600080fd5b6117428582860161163c565b9150509250929050565b600080600080600060a0868803121561176457600080fd5b600086013567ffffffffffffffff81111561177e57600080fd5b61178a8882890161163c565b955050602086013567ffffffffffffffff8111156117a757600080fd5b6117b38882890161163c565b945050604086013567ffffffffffffffff8111156117d057600080fd5b6117dc8882890161163c565b935050606086013567ffffffffffffffff8111156117f957600080fd5b6118058882890161163c565b925050608086013567ffffffffffffffff81111561182257600080fd5b61182e8882890161163c565b9150509295509295909350565b60006020828403121561184d57600080fd5b600061185b84828501611666565b91505092915050565b61186d81611af1565b82525050565b61187c81611b03565b82525050565b600061188d82611a7f565b6118978185611a8a565b93506118a7818560208601611b48565b6118b081611cb4565b840191505092915050565b6118c481611b2f565b82525050565b60006020820190506118df6000830184611864565b92915050565b600060c0820190506118fa6000830189611864565b818103602083015261190c8188611882565b905081810360408301526119208187611882565b905061192f6060830186611873565b61193c6080830185611873565b61194960a0830184611873565b979650505050505050565b60006020820190506119696000830184611873565b92915050565b600060208201905081810360008301526119898184611882565b905092915050565b60006020820190506119a660008301846118bb565b92915050565b600060e0820190506119c1600083018a6118bb565b6119ce6020830189611864565b81810360408301526119e08188611882565b905081810360608301526119f48187611882565b9050611a0360808301866118bb565b611a1060a0830185611873565b611a1d60c0830184611873565b98975050505050505050565b6000611a33611a44565b9050611a3f8282611bad565b919050565b6000604051905090565b600067ffffffffffffffff821115611a6957611a68611c85565b5b611a7282611cb4565b9050602081019050919050565b600081519050919050565b600082825260208201905092915050565b6000611aa682611b2f565b9150611ab183611b2f565b9250827fffffffffffffffffffffffffffffffffffffffffffffffffffffffffffffffff03821115611ae657611ae5611c27565b5b828201905092915050565b6000611afc82611b0f565b9050919050565b60008115159050919050565b600073ffffffffffffffffffffffffffffffffffffffff82169050919050565b6000819050919050565b82818337600083830152505050565b60005b83811015611b66578082015181840152602081019050611b4b565b83811115611b75576000848401525b50505050565b60006002820490506001821680611b9357607f821691505b60208210811415611ba757611ba6611c56565b5b50919050565b611bb682611cb4565b810181811067ffffffffffffffff82111715611bd557611bd4611c85565b5b80604052505050565b6000611be982611b2f565b91507fffffffffffffffffffffffffffffffffffffffffffffffffffffffffffffffff821415611c1c57611c1b611c27565b5b600182019050919050565b7f4e487b7100000000000000000000000000000000000000000000000000000000600052601160045260246000fd5b7f4e487b7100000000000000000000000000000000000000000000000000000000600052602260045260246000fd5b7f4e487b7100000000000000000000000000000000000000000000000000000000600052604160045260246000fd5b6000601f19601f8301169050919050565b611cce81611af1565b8114611cd957600080fd5b50565b611ce581611b03565b8114611cf057600080fd5b50565b611cfc81611b2f565b8114611d0757600080fd5b5056fea264697066735822122015780431e12f83419d3305590a9794b4c55acdbf2ee1c14c4d60f9992e7c5f4264736f6c63430008010033",
  "linkReferences": {},
  "deployedLinkReferences": {}
}