{
  "_format": "hh-sol-artifact-1",
  "contractName": "Election",
  "sourceName": "contracts/Election.sol",
  "abi": [
    {
      "inputs": [],
      "stateMutability": "nonpayable",
      "type": "constructor"
    },
    {
      "inputs": [],
      "name": "admin",
      "outputs": [
        {
          "internalType": "address",
          "name": "",
          "type": "address"
        }
      ],
      "stateMutability": "view",
      "type": "function"
    },
    {
      "inputs": [
        {
          "internalType": "uint256",
          "name": "",
          "type": "uint256"
        }
      ],
      "name": "approvedCandidates",
      "outputs": [
        {
          "internalType": "address",
          "name": "",
          "type": "address"
        }
      ],
      "stateMutability": "view",
      "type": "function"
    },
    {
      "inputs": [
        {
          "internalType": "uint256",
          "name": "",
          "type": "uint256"
        }
      ],
      "name": "approvedVoters",
      "outputs": [
        {
          "internalType": "address",
          "name": "",
          "type": "address"
        }
      ],
      "stateMutability": "view",
      "type": "function"
    },
    {
      "inputs": [
        {
          "internalType": "address",
          "name": "",
          "type": "address"
        }
      ],
      "name": "candidateDetails",
      "outputs": [
        {
          "internalType": "uint256",
          "name": "candidateId",
          "type": "uint256"
        },
        {
          "internalType": "address",
          "name": "candidateAddress",
          "type": "address"
        },
        {
          "internalType": "string",
          "name": "header",
          "type": "string"
        },
        {
          "internalType": "string",
          "name": "slogan",
          "type": "string"
        },
        {
          "internalType": "uint256",
          "name": "electionTitleIndex",
          "type": "uint256"
        },
        {
          "internalType": "uint256",
          "name": "voteCount",
          "type": "uint256"
        },
        {
          "internalType": "bool",
          "name": "isVerified",
          "type": "bool"
        },
        {
          "internalType": "bool",
          "name": "isRegistered",
          "type": "bool"
        }
      ],
      "stateMutability": "view",
      "type": "function"
    },
    {
      "inputs": [
        {
          "internalType": "uint256",
          "name": "",
          "type": "uint256"
        }
      ],
      "name": "candidates",
      "outputs": [
        {
          "internalType": "address",
          "name": "",
          "type": "address"
        }
      ],
      "stateMutability": "view",
      "type": "function"
    },
    {
      "inputs": [],
      "name": "getAdmin",
      "outputs": [
        {
          "internalType": "address",
          "name": "",
          "type": "address"
        }
      ],
      "stateMutability": "view",
      "type": "function"
    },
    {
      "inputs": [],
      "name": "getAdminEmail",
      "outputs": [
        {
          "internalType": "string",
          "name": "",
          "type": "string"
        }
      ],
      "stateMutability": "view",
      "type": "function"
    },
    {
      "inputs": [],
      "name": "getAdminName",
      "outputs": [
        {
          "internalType": "string",
          "name": "",
          "type": "string"
        }
      ],
      "stateMutability": "view",
      "type": "function"
    },
    {
      "inputs": [],
      "name": "getAdminTitle",
      "outputs": [
        {
          "internalType": "string",
          "name": "",
          "type": "string"
        }
      ],
      "stateMutability": "view",
      "type": "function"
    },
    {
      "inputs": [
        {
          "internalType": "uint256",
          "name": "_electionTitleIndex",
          "type": "uint256"
        }
      ],
      "name": "getCandidateCountForAsscociatedElection",
      "outputs": [
        {
          "internalType": "uint256",
          "name": "",
          "type": "uint256"
        }
      ],
      "stateMutability": "view",
      "type": "function"
    },
    {
      "inputs": [
        {
          "internalType": "uint256",
          "name": "_electionTitleIndex",
          "type": "uint256"
        }
      ],
      "name": "getCandidatesForAssociatedElections",
      "outputs": [
        {
          "components": [
            {
              "internalType": "uint256",
              "name": "candidateId",
              "type": "uint256"
            },
            {
              "internalType": "address",
              "name": "candidateAddress",
              "type": "address"
            },
            {
              "internalType": "string",
              "name": "header",
              "type": "string"
            },
            {
              "internalType": "string",
              "name": "slogan",
              "type": "string"
            },
            {
              "internalType": "uint256",
              "name": "electionTitleIndex",
              "type": "uint256"
            },
            {
              "internalType": "uint256",
              "name": "voteCount",
              "type": "uint256"
            },
            {
              "internalType": "bool",
              "name": "isVerified",
              "type": "bool"
            },
            {
              "internalType": "bool",
              "name": "isRegistered",
              "type": "bool"
            }
          ],
          "internalType": "struct Election.Candidate[]",
          "name": "",
          "type": "tuple[]"
        }
      ],
      "stateMutability": "view",
      "type": "function"
    },
    {
      "inputs": [],
      "name": "getElectionTitles",
      "outputs": [
        {
          "internalType": "string[]",
          "name": "",
          "type": "string[]"
        }
      ],
      "stateMutability": "view",
      "type": "function"
    },
    {
      "inputs": [],
      "name": "getEnd",
      "outputs": [
        {
          "internalType": "bool",
          "name": "",
          "type": "bool"
        }
      ],
      "stateMutability": "view",
      "type": "function"
    },
    {
      "inputs": [],
      "name": "getOrganizationTitle",
      "outputs": [
        {
          "internalType": "string",
          "name": "",
          "type": "string"
        }
      ],
      "stateMutability": "view",
      "type": "function"
    },
    {
      "inputs": [],
      "name": "getRegistrationEndTime",
      "outputs": [
        {
          "internalType": "uint256",
          "name": "",
          "type": "uint256"
        }
      ],
      "stateMutability": "view",
      "type": "function"
    },
    {
      "inputs": [],
      "name": "getRegistrationStartTime",
      "outputs": [
        {
          "internalType": "uint256",
          "name": "",
          "type": "uint256"
        }
      ],
      "stateMutability": "view",
      "type": "function"
    },
    {
      "inputs": [
        {
          "internalType": "uint256",
          "name": "_timeStamp",
          "type": "uint256"
        }
      ],
      "name": "getRegistrationStatus",
      "outputs": [
        {
          "internalType": "bool",
          "name": "",
          "type": "bool"
        }
      ],
      "stateMutability": "view",
      "type": "function"
    },
    {
      "inputs": [],
      "name": "getStart",
      "outputs": [
        {
          "internalType": "bool",
          "name": "",
          "type": "bool"
        }
      ],
      "stateMutability": "view",
      "type": "function"
    },
    {
      "inputs": [],
      "name": "getTotalCandidate",
      "outputs": [
        {
          "internalType": "uint256",
          "name": "",
          "type": "uint256"
        }
      ],
      "stateMutability": "view",
      "type": "function"
    },
    {
      "inputs": [],
      "name": "getTotalVoter",
      "outputs": [
        {
          "internalType": "uint256",
          "name": "",
          "type": "uint256"
        }
      ],
      "stateMutability": "view",
      "type": "function"
    },
    {
      "inputs": [
        {
          "internalType": "address",
          "name": "_currentAddress",
          "type": "address"
        }
      ],
      "name": "getVoterStatusForCandidate",
      "outputs": [
        {
          "internalType": "bool",
          "name": "",
          "type": "bool"
        }
      ],
      "stateMutability": "view",
      "type": "function"
    },
    {
      "inputs": [],
      "name": "getVotingEndTime",
      "outputs": [
        {
          "internalType": "uint256",
          "name": "",
          "type": "uint256"
        }
      ],
      "stateMutability": "view",
      "type": "function"
    },
    {
      "inputs": [],
      "name": "getVotingStartTime",
      "outputs": [
        {
          "internalType": "uint256",
          "name": "",
          "type": "uint256"
        }
      ],
      "stateMutability": "view",
      "type": "function"
    },
    {
      "inputs": [],
      "name": "getWinner",
      "outputs": [
        {
          "internalType": "address",
          "name": "",
          "type": "address"
        }
      ],
      "stateMutability": "view",
      "type": "function"
    },
    {
      "inputs": [
        {
          "internalType": "string",
          "name": "_header",
          "type": "string"
        },
        {
          "internalType": "string",
          "name": "_slogan",
          "type": "string"
        },
        {
          "internalType": "uint256",
          "name": "_electionTitleIndex",
          "type": "uint256"
        }
      ],
      "name": "registerAsCandidate",
      "outputs": [],
      "stateMutability": "nonpayable",
      "type": "function"
    },
    {
      "inputs": [
        {
          "internalType": "string",
          "name": "_name",
          "type": "string"
        },
        {
          "internalType": "string",
          "name": "_phone",
          "type": "string"
        }
      ],
      "name": "registerAsVoter",
      "outputs": [],
      "stateMutability": "nonpayable",
      "type": "function"
    },
    {
      "inputs": [],
      "name": "registrationEndTime",
      "outputs": [
        {
          "internalType": "uint256",
          "name": "",
          "type": "uint256"
        }
      ],
      "stateMutability": "view",
      "type": "function"
    },
    {
      "inputs": [],
      "name": "registrationStartTime",
      "outputs": [
        {
          "internalType": "uint256",
          "name": "",
          "type": "uint256"
        }
      ],
      "stateMutability": "view",
      "type": "function"
    },
    {
      "inputs": [
        {
          "internalType": "string",
          "name": "_adminName",
          "type": "string"
        },
        {
          "internalType": "string",
          "name": "_adminEmail",
          "type": "string"
        },
        {
          "internalType": "string",
          "name": "_adminTitle",
          "type": "string"
        },
        {
          "internalType": "string",
          "name": "_organizationTitle",
          "type": "string"
        },
        {
          "internalType": "uint256",
          "name": "_votingStartTime",
          "type": "uint256"
        },
        {
          "internalType": "uint256",
          "name": "_votingEndTime",
          "type": "uint256"
        },
        {
          "internalType": "uint256",
          "name": "_registrationStartTime",
          "type": "uint256"
        },
        {
          "internalType": "uint256",
          "name": "_registrationEndTime",
          "type": "uint256"
        },
        {
          "internalType": "string[]",
          "name": "_elections",
          "type": "string[]"
        }
      ],
      "name": "setElectionDetails",
      "outputs": [],
      "stateMutability": "nonpayable",
      "type": "function"
    },
    {
      "inputs": [
        {
          "internalType": "bool",
          "name": "_verifedStatus",
          "type": "bool"
        },
        {
          "internalType": "address",
          "name": "candidateAddress",
          "type": "address"
        }
      ],
      "name": "verifyCandidate",
      "outputs": [],
      "stateMutability": "nonpayable",
      "type": "function"
    },
    {
      "inputs": [
        {
          "internalType": "bool",
          "name": "_verifedStatus",
          "type": "bool"
        },
        {
          "internalType": "address",
          "name": "voterAddress",
          "type": "address"
        }
      ],
      "name": "verifyVoter",
      "outputs": [],
      "stateMutability": "nonpayable",
      "type": "function"
    },
    {
      "inputs": [
        {
          "internalType": "address",
          "name": "_candidateAddress",
          "type": "address"
        }
      ],
      "name": "vote",
      "outputs": [],
      "stateMutability": "nonpayable",
      "type": "function"
    },
    {
      "inputs": [
        {
          "internalType": "address",
          "name": "",
          "type": "address"
        }
      ],
      "name": "voterDetails",
      "outputs": [
        {
          "internalType": "address",
          "name": "voterAddress",
          "type": "address"
        },
        {
          "internalType": "string",
          "name": "name",
          "type": "string"
        },
        {
          "internalType": "string",
          "name": "phone",
          "type": "string"
        },
        {
          "internalType": "bool",
          "name": "isVerified",
          "type": "bool"
        },
        {
          "internalType": "bool",
          "name": "hasVoted",
          "type": "bool"
        },
        {
          "internalType": "bool",
          "name": "isRegistered",
          "type": "bool"
        }
      ],
      "stateMutability": "view",
      "type": "function"
    },
    {
      "inputs": [
        {
          "internalType": "uint256",
          "name": "",
          "type": "uint256"
        }
      ],
      "name": "voters",
      "outputs": [
        {
          "internalType": "address",
          "name": "",
          "type": "address"
        }
      ],
      "stateMutability": "view",
      "type": "function"
    },
    {
      "inputs": [],
      "name": "votingEndTime",
      "outputs": [
        {
          "internalType": "uint256",
          "name": "",
          "type": "uint256"
        }
      ],
      "stateMutability": "view",
      "type": "function"
    },
    {
      "inputs": [],
      "name": "votingStartTime",
      "outputs": [
        {
          "internalType": "uint256",
          "name": "",
          "type": "uint256"
        }
      ],
      "stateMutability": "view",
      "type": "function"
    }
  ],
  "bytecode": "0x608060405234801561001057600080fd5b5033600360006101000a81548173ffffffffffffffffffffffffffffffffffffffff021916908373ffffffffffffffffffffffffffffffffffffffff1602179055506000600281905550600060018190555060008060026101000a81548160ff02191690831515021790555060008060036101000a81548160ff02191690831515021790555060008060006101000a81548160ff02191690831515021790555060008060016101000a81548160ff021916908315150217905550613204806100d96000396000f3fe608060405234801561001057600080fd5b506004361061021c5760003560e01c80636dd7d8ea11610125578063c3a171a2116100ad578063da58c7d91161007c578063da58c7d914610667578063df6d278414610697578063dff7d2c7146106b5578063f851a440146106d3578063fee0d19a146106f15761021c565b8063c3a171a2146105f3578063c5292c671461060f578063c784d2131461062d578063cad43b481461064b5761021c565b80639af5c09d116100f45780639af5c09d1461054b5780639f05a36d14610569578063aed9301014610587578063b1bf87b0146105b7578063be081b6f146105d55761021c565b80636dd7d8ea146104d55780636e9960c3146104f1578063831318f11461050f5780638e7ea5b21461052d5761021c565b80633f66f48b116101a8578063506b8e0a11610177578063506b8e0a146104185780635938750d146104345780635fcdd8a11461046957806364d198a1146104995780636a82ee51146104b75761021c565b80633f66f48b1461037e57806341217ed5146103ae57806348343175146103de5780634c652fc6146103fc5761021c565b806315811029116101ef57806315811029146102b257806319c5c507146102e25780631ea736e0146103125780632019a608146103305780633477ee2e1461034e5761021c565b806305e73ced146102215780630712aa05146102585780630b93400e146102765780630e2354cf14610294575b600080fd5b61023b6004803603810190610236919061241a565b61070d565b60405161024f989796959493929190612523565b60405180910390f35b61026061089f565b60405161026d91906126bb565b60405180910390f35b61027e6109f1565b60405161028b91906126dd565b60405180910390f35b61029c6109fb565b6040516102a991906126f8565b60405180910390f35b6102cc60048036038101906102c79190612746565b610a90565b6040516102d99190612919565b60405180910390f35b6102fc60048036038101906102f79190612746565b610edb565b604051610309919061293b565b60405180910390f35b61031a610f0e565b60405161032791906126dd565b60405180910390f35b610338610f14565b60405161034591906126dd565b60405180910390f35b61036860048036038101906103639190612746565b610f1a565b6040516103759190612956565b60405180910390f35b61039860048036038101906103939190612746565b610f59565b6040516103a59190612956565b60405180910390f35b6103c860048036038101906103c39190612746565b610f98565b6040516103d591906126dd565b60405180910390f35b6103e6611063565b6040516103f391906126f8565b60405180910390f35b61041660048036038101906104119190612aa6565b6110f8565b005b610432600480360381019061042d9190612b5d565b611384565b005b61044e6004803603810190610449919061241a565b61149f565b60405161046096959493929190612b9d565b60405180910390f35b610483600480360381019061047e919061241a565b611632565b604051610490919061293b565b60405180910390f35b6104a16116e1565b6040516104ae91906126dd565b60405180910390f35b6104bf6116eb565b6040516104cc91906126dd565b60405180910390f35b6104ef60048036038101906104ea919061241a565b6116f5565b005b6104f96118f7565b6040516105069190612956565b60405180910390f35b610517611921565b60405161052491906126f8565b60405180910390f35b6105356119b6565b6040516105429190612956565b60405180910390f35b610553611a86565b60405161056091906126dd565b60405180910390f35b610571611a8c565b60405161057e919061293b565b60405180910390f35b6105a1600480360381019061059c9190612746565b611aa2565b6040516105ae9190612956565b60405180910390f35b6105bf611ae1565b6040516105cc91906126dd565b60405180910390f35b6105dd611aeb565b6040516105ea91906126f8565b60405180910390f35b61060d60048036038101906106089190612cf2565b611b80565b005b610617611db3565b604051610624919061293b565b60405180910390f35b610635611dc9565b60405161064291906126dd565b60405180910390f35b61066560048036038101906106609190612b5d565b611dd3565b005b610681600480360381019061067c9190612746565b611eee565b60405161068e9190612956565b60405180910390f35b61069f611f2d565b6040516106ac91906126dd565b60405180910390f35b6106bd611f37565b6040516106ca91906126dd565b60405180910390f35b6106db611f3d565b6040516106e89190612956565b60405180910390f35b61070b60048036038101906107069190612e48565b611f63565b005b60096020528060005260406000206000915090508060000154908060010160009054906101000a900473ffffffffffffffffffffffffffffffffffffffff169080600201805461075c90612eef565b80601f016020809104026020016040519081016040528092919081815260200182805461078890612eef565b80156107d55780601f106107aa576101008083540402835291602001916107d5565b820191906000526020600020905b8154815290600101906020018083116107b857829003601f168201915b5050505050908060030180546107ea90612eef565b80601f016020809104026020016040519081016040528092919081815260200182805461081690612eef565b80156108635780601f1061083857610100808354040283529160200191610863565b820191906000526020600020905b81548152906001019060200180831161084657829003601f168201915b5050505050908060040154908060050154908060060160009054906101000a900460ff16908060060160019054906101000a900460ff16905088565b6060600060106008018054905067ffffffffffffffff8111156108c5576108c461297b565b5b6040519080825280602002602001820160405280156108f857816020015b60608152602001906001900390816108e35790505b50905060005b6010600801805490508110156109e9576010600801818154811061092557610924612f21565b5b90600052602060002001805461093a90612eef565b80601f016020809104026020016040519081016040528092919081815260200182805461096690612eef565b80156109b35780601f10610988576101008083540402835291602001916109b3565b820191906000526020600020905b81548152906001019060200180831161099657829003601f168201915b50505050508282815181106109cb576109ca612f21565b5b602002602001018190525080806109e190612f7f565b9150506108fe565b508091505090565b6000600154905090565b606060106000018054610a0d90612eef565b80601f0160208091040260200160405190810160405280929190818152602001828054610a3990612eef565b8015610a865780601f10610a5b57610100808354040283529160200191610a86565b820191906000526020600020905b815481529060010190602001808311610a6957829003601f168201915b5050505050905090565b6060600060078054905067ffffffffffffffff811115610ab357610ab261297b565b5b604051908082528060200260200182016040528015610aec57816020015b610ad96121e2565b815260200190600190039081610ad15790505b5090506000805b600780549050811015610e1f57846009600060078481548110610b1957610b18612f21565b5b9060005260206000200160009054906101000a900473ffffffffffffffffffffffffffffffffffffffff1673ffffffffffffffffffffffffffffffffffffffff1673ffffffffffffffffffffffffffffffffffffffff168152602001908152602001600020600401541415610e0c576009600060078381548110610ba057610b9f612f21565b5b9060005260206000200160009054906101000a900473ffffffffffffffffffffffffffffffffffffffff1673ffffffffffffffffffffffffffffffffffffffff1673ffffffffffffffffffffffffffffffffffffffff16815260200190815260200160002060405180610100016040529081600082015481526020016001820160009054906101000a900473ffffffffffffffffffffffffffffffffffffffff1673ffffffffffffffffffffffffffffffffffffffff1673ffffffffffffffffffffffffffffffffffffffff168152602001600282018054610c8190612eef565b80601f0160208091040260200160405190810160405280929190818152602001828054610cad90612eef565b8015610cfa5780601f10610ccf57610100808354040283529160200191610cfa565b820191906000526020600020905b815481529060010190602001808311610cdd57829003601f168201915b50505050508152602001600382018054610d1390612eef565b80601f0160208091040260200160405190810160405280929190818152602001828054610d3f90612eef565b8015610d8c5780601f10610d6157610100808354040283529160200191610d8c565b820191906000526020600020905b815481529060010190602001808311610d6f57829003601f168201915b5050505050815260200160048201548152602001600582015481526020016006820160009054906101000a900460ff161515151581526020016006820160019054906101000a900460ff161515151581525050838381518110610df257610df1612f21565b5b60200260200101819052508180610e0890612f7f565b9250505b8080610e1790612f7f565b915050610af3565b5060008167ffffffffffffffff811115610e3c57610e3b61297b565b5b604051908082528060200260200182016040528015610e7557816020015b610e626121e2565b815260200190600190039081610e5a5790505b50905060005b82811015610ecf57838181518110610e9657610e95612f21565b5b6020026020010151828281518110610eb157610eb0612f21565b5b60200260200101819052508080610ec790612f7f565b915050610e7b565b50809350505050919050565b600080600a548310158015610ef25750600b548311155b15610f005760019050610f05565b600090505b80915050919050565b600d5481565b600c5481565b60058181548110610f2a57600080fd5b906000526020600020016000915054906101000a900473ffffffffffffffffffffffffffffffffffffffff1681565b60078181548110610f6957600080fd5b906000526020600020016000915054906101000a900473ffffffffffffffffffffffffffffffffffffffff1681565b6000806000905060005b60078054905081101561105957836009600060078481548110610fc857610fc7612f21565b5b9060005260206000200160009054906101000a900473ffffffffffffffffffffffffffffffffffffffff1673ffffffffffffffffffffffffffffffffffffffff1673ffffffffffffffffffffffffffffffffffffffff16815260200190815260200160002060040154141561104657818061104290612f7f565b9250505b808061105190612f7f565b915050610fa2565b5080915050919050565b60606010600301805461107590612eef565b80601f01602080910402602001604051908101604052809291908181526020018280546110a190612eef565b80156110ee5780601f106110c3576101008083540402835291602001916110ee565b820191906000526020600020905b8154815290600101906020018083116110d157829003601f168201915b5050505050905090565b600a5442101561113d576040517f08c379a000000000000000000000000000000000000000000000000000000000815260040161113490613014565b60405180910390fd5b600b54421115611182576040517f08c379a000000000000000000000000000000000000000000000000000000000815260040161117990613080565b60405180910390fd5b600060405180610100016040528060025481526020013373ffffffffffffffffffffffffffffffffffffffff1681526020018581526020018481526020018381526020016000815260200160001515815260200160011515815250905080600960003373ffffffffffffffffffffffffffffffffffffffff1673ffffffffffffffffffffffffffffffffffffffff1681526020019081526020016000206000820151816000015560208201518160010160006101000a81548173ffffffffffffffffffffffffffffffffffffffff021916908373ffffffffffffffffffffffffffffffffffffffff160217905550604082015181600201908051906020019061128c929190612241565b5060608201518160030190805190602001906112a9929190612241565b506080820151816004015560a0820151816005015560c08201518160060160006101000a81548160ff02191690831515021790555060e08201518160060160016101000a81548160ff0219169083151502179055509050506005339080600181540180825580915050600190039060005260206000200160009091909190916101000a81548173ffffffffffffffffffffffffffffffffffffffff021916908373ffffffffffffffffffffffffffffffffffffffff16021790555060016002600082825461137791906130a0565b9250508190555050505050565b600360009054906101000a900473ffffffffffffffffffffffffffffffffffffffff1673ffffffffffffffffffffffffffffffffffffffff163373ffffffffffffffffffffffffffffffffffffffff16146113de57600080fd5b81600860008373ffffffffffffffffffffffffffffffffffffffff1673ffffffffffffffffffffffffffffffffffffffff16815260200190815260200160002060030160006101000a81548160ff0219169083151502179055506006819080600181540180825580915050600190039060005260206000200160009091909190916101000a81548173ffffffffffffffffffffffffffffffffffffffff021916908373ffffffffffffffffffffffffffffffffffffffff1602179055505050565b60086020528060005260406000206000915090508060000160009054906101000a900473ffffffffffffffffffffffffffffffffffffffff16908060010180546114e890612eef565b80601f016020809104026020016040519081016040528092919081815260200182805461151490612eef565b80156115615780601f1061153657610100808354040283529160200191611561565b820191906000526020600020905b81548152906001019060200180831161154457829003601f168201915b50505050509080600201805461157690612eef565b80601f01602080910402602001604051908101604052809291908181526020018280546115a290612eef565b80156115ef5780601f106115c4576101008083540402835291602001916115ef565b820191906000526020600020905b8154815290600101906020018083116115d257829003601f168201915b5050505050908060030160009054906101000a900460ff16908060030160019054906101000a900460ff16908060030160029054906101000a900460ff16905086565b6000806000905060005b6006805490508110156116d7576006818154811061165d5761165c612f21565b5b9060005260206000200160009054906101000a900473ffffffffffffffffffffffffffffffffffffffff1673ffffffffffffffffffffffffffffffffffffffff168473ffffffffffffffffffffffffffffffffffffffff1614156116c457600191506116d7565b80806116cf90612f7f565b91505061163c565b5080915050919050565b6000600254905090565b6000600c54905090565b600c5442101561173a576040517f08c379a000000000000000000000000000000000000000000000000000000000815260040161173190613142565b60405180910390fd5b600d5442111561177f576040517f08c379a0000000000000000000000000000000000000000000000000000000008152600401611776906131ae565b60405180910390fd5b60001515600860003373ffffffffffffffffffffffffffffffffffffffff1673ffffffffffffffffffffffffffffffffffffffff16815260200190815260200160002060030160019054906101000a900460ff161515146117df57600080fd5b60011515600860003373ffffffffffffffffffffffffffffffffffffffff1673ffffffffffffffffffffffffffffffffffffffff16815260200190815260200160002060030160009054906101000a900460ff1615151461183f57600080fd5b6001600960008373ffffffffffffffffffffffffffffffffffffffff1673ffffffffffffffffffffffffffffffffffffffff168152602001908152602001600020600501600082825461189291906130a0565b925050819055506001600860003373ffffffffffffffffffffffffffffffffffffffff1673ffffffffffffffffffffffffffffffffffffffff16815260200190815260200160002060030160016101000a81548160ff02191690831515021790555050565b6000600360009054906101000a900473ffffffffffffffffffffffffffffffffffffffff16905090565b60606010600101805461193390612eef565b80601f016020809104026020016040519081016040528092919081815260200182805461195f90612eef565b80156119ac5780601f10611981576101008083540402835291602001916119ac565b820191906000526020600020905b81548152906001019060200180831161198f57829003601f168201915b5050505050905090565b60008060009050600080600090505b600254811015611a7d576000600582815481106119e5576119e4612f21565b5b9060005260206000200160009054906101000a900473ffffffffffffffffffffffffffffffffffffffff1690506000600960008373ffffffffffffffffffffffffffffffffffffffff1673ffffffffffffffffffffffffffffffffffffffff16815260200190815260200160002060050154905084811115611a68578094508193505b50508080611a7590612f7f565b9150506119c5565b50809250505090565b600a5481565b60008060019054906101000a900460ff16905090565b60068181548110611ab257600080fd5b906000526020600020016000915054906101000a900473ffffffffffffffffffffffffffffffffffffffff1681565b6000600d54905090565b606060106002018054611afd90612eef565b80601f0160208091040260200160405190810160405280929190818152602001828054611b2990612eef565b8015611b765780601f10611b4b57610100808354040283529160200191611b76565b820191906000526020600020905b815481529060010190602001808311611b5957829003601f168201915b5050505050905090565b600360009054906101000a900473ffffffffffffffffffffffffffffffffffffffff1673ffffffffffffffffffffffffffffffffffffffff163373ffffffffffffffffffffffffffffffffffffffff1614611bda57600080fd5b6000815167ffffffffffffffff811115611bf757611bf661297b565b5b604051908082528060200260200182016040528015611c2a57816020015b6060815260200190600190039081611c155790505b50905060005b8251811015611c8557828181518110611c4c57611c4b612f21565b5b6020026020010151828281518110611c6757611c66612f21565b5b60200260200101819052508080611c7d90612f7f565b915050611c30565b5060006040518061012001604052808c81526020018b81526020018a81526020018981526020018881526020018781526020018681526020018581526020018381525090508060106000820151816000019080519060200190611ce9929190612241565b506020820151816001019080519060200190611d06929190612241565b506040820151816002019080519060200190611d23929190612241565b506060820151816003019080519060200190611d40929190612241565b506080820151816004015560a0820151816005015560c0820151816006015560e08201518160070155610100820151816008019080519060200190611d869291906122c7565b5090505084600a8190555083600b8190555086600c8190555085600d819055505050505050505050505050565b60008060009054906101000a900460ff16905090565b6000600b54905090565b600360009054906101000a900473ffffffffffffffffffffffffffffffffffffffff1673ffffffffffffffffffffffffffffffffffffffff163373ffffffffffffffffffffffffffffffffffffffff1614611e2d57600080fd5b81600960008373ffffffffffffffffffffffffffffffffffffffff1673ffffffffffffffffffffffffffffffffffffffff16815260200190815260200160002060060160006101000a81548160ff0219169083151502179055506007819080600181540180825580915050600190039060005260206000200160009091909190916101000a81548173ffffffffffffffffffffffffffffffffffffffff021916908373ffffffffffffffffffffffffffffffffffffffff1602179055505050565b60048181548110611efe57600080fd5b906000526020600020016000915054906101000a900473ffffffffffffffffffffffffffffffffffffffff1681565b6000600a54905090565b600b5481565b600360009054906101000a900473ffffffffffffffffffffffffffffffffffffffff1681565b600a54421015611fa8576040517f08c379a0000000000000000000000000000000000000000000000000000000008152600401611f9f90613014565b60405180910390fd5b600b54421115611fed576040517f08c379a0000000000000000000000000000000000000000000000000000000008152600401611fe490613080565b60405180910390fd5b60006040518060c001604052803373ffffffffffffffffffffffffffffffffffffffff16815260200184815260200183815260200160001515815260200160001515815260200160011515815250905080600860003373ffffffffffffffffffffffffffffffffffffffff1673ffffffffffffffffffffffffffffffffffffffff16815260200190815260200160002060008201518160000160006101000a81548173ffffffffffffffffffffffffffffffffffffffff021916908373ffffffffffffffffffffffffffffffffffffffff16021790555060208201518160010190805190602001906120e0929190612241565b5060408201518160020190805190602001906120fd929190612241565b5060608201518160030160006101000a81548160ff02191690831515021790555060808201518160030160016101000a81548160ff02191690831515021790555060a08201518160030160026101000a81548160ff0219169083151502179055509050506004339080600181540180825580915050600190039060005260206000200160009091909190916101000a81548173ffffffffffffffffffffffffffffffffffffffff021916908373ffffffffffffffffffffffffffffffffffffffff16021790555060018060008282546121d691906130a0565b92505081905550505050565b60405180610100016040528060008152602001600073ffffffffffffffffffffffffffffffffffffffff168152602001606081526020016060815260200160008152602001600081526020016000151581526020016000151581525090565b82805461224d90612eef565b90600052602060002090601f01602090048101928261226f57600085556122b6565b82601f1061228857805160ff19168380011785556122b6565b828001600101855582156122b6579182015b828111156122b557825182559160200191906001019061229a565b5b5090506122c39190612327565b5090565b828054828255906000526020600020908101928215612316579160200282015b82811115612315578251829080519060200190612305929190612241565b50916020019190600101906122e7565b5b5090506123239190612344565b5090565b5b80821115612340576000816000905550600101612328565b5090565b5b80821115612364576000818161235b9190612368565b50600101612345565b5090565b50805461237490612eef565b6000825580601f1061238657506123a5565b601f0160209004906000526020600020908101906123a49190612327565b5b50565b6000604051905090565b600080fd5b600080fd5b600073ffffffffffffffffffffffffffffffffffffffff82169050919050565b60006123e7826123bc565b9050919050565b6123f7816123dc565b811461240257600080fd5b50565b600081359050612414816123ee565b92915050565b6000602082840312156124305761242f6123b2565b5b600061243e84828501612405565b91505092915050565b6000819050919050565b61245a81612447565b82525050565b612469816123dc565b82525050565b600081519050919050565b600082825260208201905092915050565b60005b838110156124a957808201518184015260208101905061248e565b838111156124b8576000848401525b50505050565b6000601f19601f8301169050919050565b60006124da8261246f565b6124e4818561247a565b93506124f481856020860161248b565b6124fd816124be565b840191505092915050565b60008115159050919050565b61251d81612508565b82525050565b600061010082019050612539600083018b612451565b612546602083018a612460565b818103604083015261255881896124cf565b9050818103606083015261256c81886124cf565b905061257b6080830187612451565b61258860a0830186612451565b61259560c0830185612514565b6125a260e0830184612514565b9998505050505050505050565b600081519050919050565b600082825260208201905092915050565b6000819050602082019050919050565b600082825260208201905092915050565b60006125f78261246f565b61260181856125db565b935061261181856020860161248b565b61261a816124be565b840191505092915050565b600061263183836125ec565b905092915050565b6000602082019050919050565b6000612651826125af565b61265b81856125ba565b93508360208202850161266d856125cb565b8060005b858110156126a9578484038952815161268a8582612625565b945061269583612639565b925060208a01995050600181019050612671565b50829750879550505050505092915050565b600060208201905081810360008301526126d58184612646565b905092915050565b60006020820190506126f26000830184612451565b92915050565b6000602082019050818103600083015261271281846124cf565b905092915050565b61272381612447565b811461272e57600080fd5b50565b6000813590506127408161271a565b92915050565b60006020828403121561275c5761275b6123b2565b5b600061276a84828501612731565b91505092915050565b600081519050919050565b600082825260208201905092915050565b6000819050602082019050919050565b6127a881612447565b82525050565b6127b7816123dc565b82525050565b6127c681612508565b82525050565b6000610100830160008301516127e5600086018261279f565b5060208301516127f860208601826127ae565b506040830151848203604086015261281082826125ec565b9150506060830151848203606086015261282a82826125ec565b915050608083015161283f608086018261279f565b5060a083015161285260a086018261279f565b5060c083015161286560c08601826127bd565b5060e083015161287860e08601826127bd565b508091505092915050565b600061288f83836127cc565b905092915050565b6000602082019050919050565b60006128af82612773565b6128b9818561277e565b9350836020820285016128cb8561278f565b8060005b8581101561290757848403895281516128e88582612883565b94506128f383612897565b925060208a019950506001810190506128cf565b50829750879550505050505092915050565b6000602082019050818103600083015261293381846128a4565b905092915050565b60006020820190506129506000830184612514565b92915050565b600060208201905061296b6000830184612460565b92915050565b600080fd5b600080fd5b7f4e487b7100000000000000000000000000000000000000000000000000000000600052604160045260246000fd5b6129b3826124be565b810181811067ffffffffffffffff821117156129d2576129d161297b565b5b80604052505050565b60006129e56123a8565b90506129f182826129aa565b919050565b600067ffffffffffffffff821115612a1157612a1061297b565b5b612a1a826124be565b9050602081019050919050565b82818337600083830152505050565b6000612a49612a44846129f6565b6129db565b905082815260208101848484011115612a6557612a64612976565b5b612a70848285612a27565b509392505050565b600082601f830112612a8d57612a8c612971565b5b8135612a9d848260208601612a36565b91505092915050565b600080600060608486031215612abf57612abe6123b2565b5b600084013567ffffffffffffffff811115612add57612adc6123b7565b5b612ae986828701612a78565b935050602084013567ffffffffffffffff811115612b0a57612b096123b7565b5b612b1686828701612a78565b9250506040612b2786828701612731565b9150509250925092565b612b3a81612508565b8114612b4557600080fd5b50565b600081359050612b5781612b31565b92915050565b60008060408385031215612b7457612b736123b2565b5b6000612b8285828601612b48565b9250506020612b9385828601612405565b9150509250929050565b600060c082019050612bb26000830189612460565b8181036020830152612bc481886124cf565b90508181036040830152612bd881876124cf565b9050612be76060830186612514565b612bf46080830185612514565b612c0160a0830184612514565b979650505050505050565b600067ffffffffffffffff821115612c2757612c2661297b565b5b602082029050602081019050919050565b600080fd5b6000612c50612c4b84612c0c565b6129db565b90508083825260208201905060208402830185811115612c7357612c72612c38565b5b835b81811015612cba57803567ffffffffffffffff811115612c9857612c97612971565b5b808601612ca58982612a78565b85526020850194505050602081019050612c75565b5050509392505050565b600082601f830112612cd957612cd8612971565b5b8135612ce9848260208601612c3d565b91505092915050565b60008060008060008060008060006101208a8c031215612d1557612d146123b2565b5b60008a013567ffffffffffffffff811115612d3357612d326123b7565b5b612d3f8c828d01612a78565b99505060208a013567ffffffffffffffff811115612d6057612d5f6123b7565b5b612d6c8c828d01612a78565b98505060408a013567ffffffffffffffff811115612d8d57612d8c6123b7565b5b612d998c828d01612a78565b97505060608a013567ffffffffffffffff811115612dba57612db96123b7565b5b612dc68c828d01612a78565b9650506080612dd78c828d01612731565b95505060a0612de88c828d01612731565b94505060c0612df98c828d01612731565b93505060e0612e0a8c828d01612731565b9250506101008a013567ffffffffffffffff811115612e2c57612e2b6123b7565b5b612e388c828d01612cc4565b9150509295985092959850929598565b60008060408385031215612e5f57612e5e6123b2565b5b600083013567ffffffffffffffff811115612e7d57612e7c6123b7565b5b612e8985828601612a78565b925050602083013567ffffffffffffffff811115612eaa57612ea96123b7565b5b612eb685828601612a78565b9150509250929050565b7f4e487b7100000000000000000000000000000000000000000000000000000000600052602260045260246000fd5b60006002820490506001821680612f0757607f821691505b60208210811415612f1b57612f1a612ec0565b5b50919050565b7f4e487b7100000000000000000000000000000000000000000000000000000000600052603260045260246000fd5b7f4e487b7100000000000000000000000000000000000000000000000000000000600052601160045260246000fd5b6000612f8a82612447565b91507fffffffffffffffffffffffffffffffffffffffffffffffffffffffffffffffff821415612fbd57612fbc612f50565b5b600182019050919050565b7f526567697374726174696f6e206973206e6f7420737461727465642079657400600082015250565b6000612ffe601f8361247a565b915061300982612fc8565b602082019050919050565b6000602082019050818103600083015261302d81612ff1565b9050919050565b7f526567697374726174696f6e20697320616c726561647920656e6465642e0000600082015250565b600061306a601e8361247a565b915061307582613034565b602082019050919050565b600060208201905081810360008301526130998161305d565b9050919050565b60006130ab82612447565b91506130b683612447565b9250827fffffffffffffffffffffffffffffffffffffffffffffffffffffffffffffffff038211156130eb576130ea612f50565b5b828201905092915050565b7f566f74696e67206973206e6f7420737461727465642079657400000000000000600082015250565b600061312c60198361247a565b9150613137826130f6565b602082019050919050565b6000602082019050818103600083015261315b8161311f565b9050919050565b7f566f74696e6720697320616c726561647920656e646564000000000000000000600082015250565b600061319860178361247a565b91506131a382613162565b602082019050919050565b600060208201905081810360008301526131c78161318b565b905091905056fea2646970667358221220ba39869a70cf598bdaeb5801068d502968d1eb4fa0f90593e3f2afc945da68ac64736f6c634300080b0033",
  "linkReferences": {},
  "deployedLinkReferences": {}
}