{
  "_format": "hh-sol-artifact-1",
  "contractName": "Election",
  "sourceName": "contracts/Election.sol",
  "abi": [
    {
      "inputs": [],
      "stateMutability": "nonpayable",
      "type": "constructor"
    },
    {
      "inputs": [
        {
          "internalType": "string",
          "name": "_header",
          "type": "string"
        },
        {
          "internalType": "string",
          "name": "_slogan",
          "type": "string"
        }
      ],
      "name": "addCandidate",
      "outputs": [],
      "stateMutability": "nonpayable",
      "type": "function"
    },
    {
      "inputs": [],
      "name": "admin",
      "outputs": [
        {
          "internalType": "address",
          "name": "",
          "type": "address"
        }
      ],
      "stateMutability": "view",
      "type": "function"
    },
    {
      "inputs": [
        {
          "internalType": "uint256",
          "name": "",
          "type": "uint256"
        }
      ],
      "name": "candidateDetails",
      "outputs": [
        {
          "internalType": "uint256",
          "name": "candidateId",
          "type": "uint256"
        },
        {
          "internalType": "string",
          "name": "header",
          "type": "string"
        },
        {
          "internalType": "string",
          "name": "symbol",
          "type": "string"
        },
        {
          "internalType": "uint256",
          "name": "voteCount",
          "type": "uint256"
        }
      ],
      "stateMutability": "view",
      "type": "function"
    },
    {
      "inputs": [],
      "name": "endElection",
      "outputs": [],
      "stateMutability": "nonpayable",
      "type": "function"
    },
    {
      "inputs": [],
      "name": "getAdmin",
      "outputs": [
        {
          "internalType": "address",
          "name": "",
          "type": "address"
        }
      ],
      "stateMutability": "view",
      "type": "function"
    },
    {
      "inputs": [],
      "name": "getAdminEmail",
      "outputs": [
        {
          "internalType": "string",
          "name": "",
          "type": "string"
        }
      ],
      "stateMutability": "view",
      "type": "function"
    },
    {
      "inputs": [],
      "name": "getAdminName",
      "outputs": [
        {
          "internalType": "string",
          "name": "",
          "type": "string"
        }
      ],
      "stateMutability": "view",
      "type": "function"
    },
    {
      "inputs": [],
      "name": "getAdminTitle",
      "outputs": [
        {
          "internalType": "string",
          "name": "",
          "type": "string"
        }
      ],
      "stateMutability": "view",
      "type": "function"
    },
    {
      "inputs": [],
      "name": "getElectionTitle",
      "outputs": [
        {
          "internalType": "string",
          "name": "",
          "type": "string"
        }
      ],
      "stateMutability": "view",
      "type": "function"
    },
    {
      "inputs": [],
      "name": "getEnd",
      "outputs": [
        {
          "internalType": "bool",
          "name": "",
          "type": "bool"
        }
      ],
      "stateMutability": "view",
      "type": "function"
    },
    {
      "inputs": [],
      "name": "getOrganizationTitle",
      "outputs": [
        {
          "internalType": "string",
          "name": "",
          "type": "string"
        }
      ],
      "stateMutability": "view",
      "type": "function"
    },
    {
      "inputs": [],
      "name": "getStart",
      "outputs": [
        {
          "internalType": "bool",
          "name": "",
          "type": "bool"
        }
      ],
      "stateMutability": "view",
      "type": "function"
    },
    {
      "inputs": [],
      "name": "getTotalCandidate",
      "outputs": [
        {
          "internalType": "uint256",
          "name": "",
          "type": "uint256"
        }
      ],
      "stateMutability": "view",
      "type": "function"
    },
    {
      "inputs": [],
      "name": "getTotalVoter",
      "outputs": [
        {
          "internalType": "uint256",
          "name": "",
          "type": "uint256"
        }
      ],
      "stateMutability": "view",
      "type": "function"
    },
    {
      "inputs": [
        {
          "internalType": "string",
          "name": "_name",
          "type": "string"
        },
        {
          "internalType": "string",
          "name": "_phone",
          "type": "string"
        }
      ],
      "name": "registerAsVoter",
      "outputs": [],
      "stateMutability": "nonpayable",
      "type": "function"
    },
    {
      "inputs": [
        {
          "internalType": "string",
          "name": "_adminName",
          "type": "string"
        },
        {
          "internalType": "string",
          "name": "_adminEmail",
          "type": "string"
        },
        {
          "internalType": "string",
          "name": "_adminTitle",
          "type": "string"
        },
        {
          "internalType": "string",
          "name": "_electionTitle",
          "type": "string"
        },
        {
          "internalType": "string",
          "name": "_organizationTitle",
          "type": "string"
        }
      ],
      "name": "setElectionDetails",
      "outputs": [],
      "stateMutability": "nonpayable",
      "type": "function"
    },
    {
      "inputs": [
        {
          "internalType": "bool",
          "name": "_verifedStatus",
          "type": "bool"
        },
        {
          "internalType": "address",
          "name": "voterAddress",
          "type": "address"
        }
      ],
      "name": "verifyVoter",
      "outputs": [],
      "stateMutability": "nonpayable",
      "type": "function"
    },
    {
      "inputs": [
        {
          "internalType": "uint256",
          "name": "candidateId",
          "type": "uint256"
        }
      ],
      "name": "vote",
      "outputs": [],
      "stateMutability": "nonpayable",
      "type": "function"
    },
    {
      "inputs": [
        {
          "internalType": "address",
          "name": "",
          "type": "address"
        }
      ],
      "name": "voterDetails",
      "outputs": [
        {
          "internalType": "address",
          "name": "voterAddress",
          "type": "address"
        },
        {
          "internalType": "string",
          "name": "name",
          "type": "string"
        },
        {
          "internalType": "string",
          "name": "phone",
          "type": "string"
        },
        {
          "internalType": "bool",
          "name": "isVerified",
          "type": "bool"
        },
        {
          "internalType": "bool",
          "name": "hasVoted",
          "type": "bool"
        },
        {
          "internalType": "bool",
          "name": "isRegistered",
          "type": "bool"
        }
      ],
      "stateMutability": "view",
      "type": "function"
    },
    {
      "inputs": [
        {
          "internalType": "uint256",
          "name": "",
          "type": "uint256"
        }
      ],
      "name": "voters",
      "outputs": [
        {
          "internalType": "address",
          "name": "",
          "type": "address"
        }
      ],
      "stateMutability": "view",
      "type": "function"
    }
  ],
  "bytecode": "0x608060405234801561001057600080fd5b5033600360006101000a81548173ffffffffffffffffffffffffffffffffffffffff021916908373ffffffffffffffffffffffffffffffffffffffff1602179055506000600281905550600060018190555060008060006101000a81548160ff02191690831515021790555060008060016101000a81548160ff0219169083151502179055506118f2806100a56000396000f3fe608060405234801561001057600080fd5b506004361061012c5760003560e01c806364d198a1116100ad578063c5292c6711610071578063c5292c6714610303578063da58c7d914610321578063e173730c14610351578063f851a4401461036f578063fee0d19a1461038d5761012c565b806364d198a11461026d5780636e9960c31461028b578063831318f1146102a95780639f05a36d146102c7578063be081b6f146102e55761012c565b806348343175116100f457806348343175146101c1578063506b8e0a146101df5780635938750d146101fb57806359f78468146102305780636247e5321461023a5761012c565b80630121b93f146101315780630b93400e1461014d5780630e2354cf1461016b578063253e74e21461018957806326541b56146101a5575b600080fd5b61014b60048036038101906101469190611460565b6103a9565b005b610155610533565b60405161016291906115b6565b60405180910390f35b61017361053d565b6040516101809190611594565b60405180910390f35b6101a3600480360381019061019e9190611371565b6105d2565b005b6101bf60048036038101906101ba9190611305565b610724565b005b6101c961082c565b6040516101d69190611594565b60405180910390f35b6101f960048036038101906101f491906112c9565b6108c1565b005b610215600480360381019061021091906112a0565b610979565b6040516102279695949392919061150a565b60405180910390f35b610238610b0c565b005b610254600480360381019061024f9190611460565b610b9d565b60405161026494939291906115d1565b60405180910390f35b610275610cdd565b60405161028291906115b6565b60405180910390f35b610293610ce7565b6040516102a091906114ef565b60405180910390f35b6102b1610d11565b6040516102be9190611594565b60405180910390f35b6102cf610da6565b6040516102dc9190611579565b60405180910390f35b6102ed610dbc565b6040516102fa9190611594565b60405180910390f35b61030b610e51565b6040516103189190611579565b60405180910390f35b61033b60048036038101906103369190611460565b610e67565b60405161034891906114ef565b60405180910390f35b610359610ea6565b6040516103669190611594565b60405180910390f35b610377610f3b565b60405161038491906114ef565b60405180910390f35b6103a760048036038101906103a29190611305565b610f61565b005b60001515600560003373ffffffffffffffffffffffffffffffffffffffff1673ffffffffffffffffffffffffffffffffffffffff16815260200190815260200160002060030160019054906101000a900460ff1615151461040957600080fd5b60011515600560003373ffffffffffffffffffffffffffffffffffffffff1673ffffffffffffffffffffffffffffffffffffffff16815260200190815260200160002060030160009054906101000a900460ff1615151461046957600080fd5b6001151560008054906101000a900460ff1615151461048757600080fd5b60001515600060019054906101000a900460ff161515146104a757600080fd5b60016006600083815260200190815260200160002060030160008282546104ce9190611696565b925050819055506001600560003373ffffffffffffffffffffffffffffffffffffffff1673ffffffffffffffffffffffffffffffffffffffff16815260200190815260200160002060030160016101000a81548160ff02191690831515021790555050565b6000600154905090565b60606007600001805461054f90611776565b80601f016020809104026020016040519081016040528092919081815260200182805461057b90611776565b80156105c85780601f1061059d576101008083540402835291602001916105c8565b820191906000526020600020905b8154815290600101906020018083116105ab57829003601f168201915b5050505050905090565b600360009054906101000a900473ffffffffffffffffffffffffffffffffffffffff1673ffffffffffffffffffffffffffffffffffffffff163373ffffffffffffffffffffffffffffffffffffffff161461062c57600080fd5b6040518060a001604052808681526020018581526020018481526020018381526020018281525060076000820151816000019080519060200190610671929190611156565b50602082015181600101908051906020019061068e929190611156565b5060408201518160020190805190602001906106ab929190611156565b5060608201518160030190805190602001906106c8929190611156565b5060808201518160040190805190602001906106e5929190611156565b5090505060016000806101000a81548160ff02191690831515021790555060008060016101000a81548160ff0219169083151502179055505050505050565b600360009054906101000a900473ffffffffffffffffffffffffffffffffffffffff1673ffffffffffffffffffffffffffffffffffffffff163373ffffffffffffffffffffffffffffffffffffffff161461077e57600080fd5b60006040518060800160405280600254815260200184815260200183815260200160008152509050806006600060025481526020019081526020016000206000820151816000015560208201518160010190805190602001906107e2929190611156565b5060408201518160020190805190602001906107ff929190611156565b50606082015181600301559050506001600260008282546108209190611696565b92505081905550505050565b60606007600401805461083e90611776565b80601f016020809104026020016040519081016040528092919081815260200182805461086a90611776565b80156108b75780601f1061088c576101008083540402835291602001916108b7565b820191906000526020600020905b81548152906001019060200180831161089a57829003601f168201915b5050505050905090565b600360009054906101000a900473ffffffffffffffffffffffffffffffffffffffff1673ffffffffffffffffffffffffffffffffffffffff163373ffffffffffffffffffffffffffffffffffffffff161461091b57600080fd5b81600560008373ffffffffffffffffffffffffffffffffffffffff1673ffffffffffffffffffffffffffffffffffffffff16815260200190815260200160002060030160006101000a81548160ff0219169083151502179055505050565b60056020528060005260406000206000915090508060000160009054906101000a900473ffffffffffffffffffffffffffffffffffffffff16908060010180546109c290611776565b80601f01602080910402602001604051908101604052809291908181526020018280546109ee90611776565b8015610a3b5780601f10610a1057610100808354040283529160200191610a3b565b820191906000526020600020905b815481529060010190602001808311610a1e57829003601f168201915b505050505090806002018054610a5090611776565b80601f0160208091040260200160405190810160405280929190818152602001828054610a7c90611776565b8015610ac95780601f10610a9e57610100808354040283529160200191610ac9565b820191906000526020600020905b815481529060010190602001808311610aac57829003601f168201915b5050505050908060030160009054906101000a900460ff16908060030160019054906101000a900460ff16908060030160029054906101000a900460ff16905086565b600360009054906101000a900473ffffffffffffffffffffffffffffffffffffffff1673ffffffffffffffffffffffffffffffffffffffff163373ffffffffffffffffffffffffffffffffffffffff1614610b6657600080fd5b6001600060016101000a81548160ff02191690831515021790555060008060006101000a81548160ff021916908315150217905550565b6006602052806000526040600020600091509050806000015490806001018054610bc690611776565b80601f0160208091040260200160405190810160405280929190818152602001828054610bf290611776565b8015610c3f5780601f10610c1457610100808354040283529160200191610c3f565b820191906000526020600020905b815481529060010190602001808311610c2257829003601f168201915b505050505090806002018054610c5490611776565b80601f0160208091040260200160405190810160405280929190818152602001828054610c8090611776565b8015610ccd5780601f10610ca257610100808354040283529160200191610ccd565b820191906000526020600020905b815481529060010190602001808311610cb057829003601f168201915b5050505050908060030154905084565b6000600254905090565b6000600360009054906101000a900473ffffffffffffffffffffffffffffffffffffffff16905090565b606060076001018054610d2390611776565b80601f0160208091040260200160405190810160405280929190818152602001828054610d4f90611776565b8015610d9c5780601f10610d7157610100808354040283529160200191610d9c565b820191906000526020600020905b815481529060010190602001808311610d7f57829003601f168201915b5050505050905090565b60008060019054906101000a900460ff16905090565b606060076002018054610dce90611776565b80601f0160208091040260200160405190810160405280929190818152602001828054610dfa90611776565b8015610e475780601f10610e1c57610100808354040283529160200191610e47565b820191906000526020600020905b815481529060010190602001808311610e2a57829003601f168201915b5050505050905090565b60008060009054906101000a900460ff16905090565b60048181548110610e7757600080fd5b906000526020600020016000915054906101000a900473ffffffffffffffffffffffffffffffffffffffff1681565b606060076003018054610eb890611776565b80601f0160208091040260200160405190810160405280929190818152602001828054610ee490611776565b8015610f315780601f10610f0657610100808354040283529160200191610f31565b820191906000526020600020905b815481529060010190602001808311610f1457829003601f168201915b5050505050905090565b600360009054906101000a900473ffffffffffffffffffffffffffffffffffffffff1681565b60006040518060c001604052803373ffffffffffffffffffffffffffffffffffffffff16815260200184815260200183815260200160001515815260200160001515815260200160011515815250905080600560003373ffffffffffffffffffffffffffffffffffffffff1673ffffffffffffffffffffffffffffffffffffffff16815260200190815260200160002060008201518160000160006101000a81548173ffffffffffffffffffffffffffffffffffffffff021916908373ffffffffffffffffffffffffffffffffffffffff1602179055506020820151816001019080519060200190611054929190611156565b506040820151816002019080519060200190611071929190611156565b5060608201518160030160006101000a81548160ff02191690831515021790555060808201518160030160016101000a81548160ff02191690831515021790555060a08201518160030160026101000a81548160ff0219169083151502179055509050506004339080600181540180825580915050600190039060005260206000200160009091909190916101000a81548173ffffffffffffffffffffffffffffffffffffffff021916908373ffffffffffffffffffffffffffffffffffffffff160217905550600180600082825461114a9190611696565b92505081905550505050565b82805461116290611776565b90600052602060002090601f01602090048101928261118457600085556111cb565b82601f1061119d57805160ff19168380011785556111cb565b828001600101855582156111cb579182015b828111156111ca5782518255916020019190600101906111af565b5b5090506111d891906111dc565b5090565b5b808211156111f55760008160009055506001016111dd565b5090565b600061120c61120784611649565b611624565b90508281526020810184848401111561122457600080fd5b61122f848285611734565b509392505050565b60008135905061124681611877565b92915050565b60008135905061125b8161188e565b92915050565b600082601f83011261127257600080fd5b81356112828482602086016111f9565b91505092915050565b60008135905061129a816118a5565b92915050565b6000602082840312156112b257600080fd5b60006112c084828501611237565b91505092915050565b600080604083850312156112dc57600080fd5b60006112ea8582860161124c565b92505060206112fb85828601611237565b9150509250929050565b6000806040838503121561131857600080fd5b600083013567ffffffffffffffff81111561133257600080fd5b61133e85828601611261565b925050602083013567ffffffffffffffff81111561135b57600080fd5b61136785828601611261565b9150509250929050565b600080600080600060a0868803121561138957600080fd5b600086013567ffffffffffffffff8111156113a357600080fd5b6113af88828901611261565b955050602086013567ffffffffffffffff8111156113cc57600080fd5b6113d888828901611261565b945050604086013567ffffffffffffffff8111156113f557600080fd5b61140188828901611261565b935050606086013567ffffffffffffffff81111561141e57600080fd5b61142a88828901611261565b925050608086013567ffffffffffffffff81111561144757600080fd5b61145388828901611261565b9150509295509295909350565b60006020828403121561147257600080fd5b60006114808482850161128b565b91505092915050565b611492816116ec565b82525050565b6114a1816116fe565b82525050565b60006114b28261167a565b6114bc8185611685565b93506114cc818560208601611743565b6114d581611866565b840191505092915050565b6114e98161172a565b82525050565b60006020820190506115046000830184611489565b92915050565b600060c08201905061151f6000830189611489565b818103602083015261153181886114a7565b9050818103604083015261154581876114a7565b90506115546060830186611498565b6115616080830185611498565b61156e60a0830184611498565b979650505050505050565b600060208201905061158e6000830184611498565b92915050565b600060208201905081810360008301526115ae81846114a7565b905092915050565b60006020820190506115cb60008301846114e0565b92915050565b60006080820190506115e660008301876114e0565b81810360208301526115f881866114a7565b9050818103604083015261160c81856114a7565b905061161b60608301846114e0565b95945050505050565b600061162e61163f565b905061163a82826117a8565b919050565b6000604051905090565b600067ffffffffffffffff82111561166457611663611837565b5b61166d82611866565b9050602081019050919050565b600081519050919050565b600082825260208201905092915050565b60006116a18261172a565b91506116ac8361172a565b9250827fffffffffffffffffffffffffffffffffffffffffffffffffffffffffffffffff038211156116e1576116e06117d9565b5b828201905092915050565b60006116f78261170a565b9050919050565b60008115159050919050565b600073ffffffffffffffffffffffffffffffffffffffff82169050919050565b6000819050919050565b82818337600083830152505050565b60005b83811015611761578082015181840152602081019050611746565b83811115611770576000848401525b50505050565b6000600282049050600182168061178e57607f821691505b602082108114156117a2576117a1611808565b5b50919050565b6117b182611866565b810181811067ffffffffffffffff821117156117d0576117cf611837565b5b80604052505050565b7f4e487b7100000000000000000000000000000000000000000000000000000000600052601160045260246000fd5b7f4e487b7100000000000000000000000000000000000000000000000000000000600052602260045260246000fd5b7f4e487b7100000000000000000000000000000000000000000000000000000000600052604160045260246000fd5b6000601f19601f8301169050919050565b611880816116ec565b811461188b57600080fd5b50565b611897816116fe565b81146118a257600080fd5b50565b6118ae8161172a565b81146118b957600080fd5b5056fea26469706673582212205971c837446fcf1c568d401a8503c8058abecac46662888a3ceaa4958305257a64736f6c63430008010033",
  "linkReferences": {},
  "deployedLinkReferences": {}
}