{
  "_format": "hh-sol-artifact-1",
  "contractName": "Election",
  "sourceName": "contracts/Election.sol",
  "abi": [
    {
      "inputs": [],
      "stateMutability": "nonpayable",
      "type": "constructor"
    },
    {
      "inputs": [],
      "name": "admin",
      "outputs": [
        {
          "internalType": "address",
          "name": "",
          "type": "address"
        }
      ],
      "stateMutability": "view",
      "type": "function"
    },
    {
      "inputs": [
        {
          "internalType": "uint256",
          "name": "",
          "type": "uint256"
        }
      ],
      "name": "approvedCandidates",
      "outputs": [
        {
          "internalType": "address",
          "name": "",
          "type": "address"
        }
      ],
      "stateMutability": "view",
      "type": "function"
    },
    {
      "inputs": [
        {
          "internalType": "uint256",
          "name": "",
          "type": "uint256"
        }
      ],
      "name": "approvedVoters",
      "outputs": [
        {
          "internalType": "address",
          "name": "",
          "type": "address"
        }
      ],
      "stateMutability": "view",
      "type": "function"
    },
    {
      "inputs": [
        {
          "internalType": "address",
          "name": "",
          "type": "address"
        }
      ],
      "name": "candidateDetails",
      "outputs": [
        {
          "internalType": "uint256",
          "name": "candidateId",
          "type": "uint256"
        },
        {
          "internalType": "address",
          "name": "candidateAddress",
          "type": "address"
        },
        {
          "internalType": "string",
          "name": "header",
          "type": "string"
        },
        {
          "internalType": "string",
          "name": "slogan",
          "type": "string"
        },
        {
          "internalType": "uint256",
          "name": "electionTitleIndex",
          "type": "uint256"
        },
        {
          "internalType": "uint256",
          "name": "voteCount",
          "type": "uint256"
        },
        {
          "internalType": "bool",
          "name": "isVerified",
          "type": "bool"
        },
        {
          "internalType": "bool",
          "name": "isRegistered",
          "type": "bool"
        }
      ],
      "stateMutability": "view",
      "type": "function"
    },
    {
      "inputs": [
        {
          "internalType": "uint256",
          "name": "",
          "type": "uint256"
        }
      ],
      "name": "candidates",
      "outputs": [
        {
          "internalType": "address",
          "name": "",
          "type": "address"
        }
      ],
      "stateMutability": "view",
      "type": "function"
    },
    {
      "inputs": [],
      "name": "checkForSingleElectionAndCandidate",
      "outputs": [
        {
          "internalType": "bool",
          "name": "",
          "type": "bool"
        }
      ],
      "stateMutability": "view",
      "type": "function"
    },
    {
      "inputs": [],
      "name": "getAdmin",
      "outputs": [
        {
          "internalType": "address",
          "name": "",
          "type": "address"
        }
      ],
      "stateMutability": "view",
      "type": "function"
    },
    {
      "inputs": [],
      "name": "getAdminEmail",
      "outputs": [
        {
          "internalType": "string",
          "name": "",
          "type": "string"
        }
      ],
      "stateMutability": "view",
      "type": "function"
    },
    {
      "inputs": [],
      "name": "getAdminName",
      "outputs": [
        {
          "internalType": "string",
          "name": "",
          "type": "string"
        }
      ],
      "stateMutability": "view",
      "type": "function"
    },
    {
      "inputs": [],
      "name": "getAdminTitle",
      "outputs": [
        {
          "internalType": "string",
          "name": "",
          "type": "string"
        }
      ],
      "stateMutability": "view",
      "type": "function"
    },
    {
      "inputs": [
        {
          "internalType": "address",
          "name": "_currentAddress",
          "type": "address"
        }
      ],
      "name": "getAlreadyRegisteredCandidateStatus",
      "outputs": [
        {
          "internalType": "bool",
          "name": "",
          "type": "bool"
        }
      ],
      "stateMutability": "view",
      "type": "function"
    },
    {
      "inputs": [
        {
          "internalType": "uint256",
          "name": "_electionTitleIndex",
          "type": "uint256"
        }
      ],
      "name": "getCandidateCountForAsscociatedElection",
      "outputs": [
        {
          "internalType": "uint256",
          "name": "",
          "type": "uint256"
        }
      ],
      "stateMutability": "view",
      "type": "function"
    },
    {
      "inputs": [
        {
          "internalType": "uint256",
          "name": "_electionTitleIndex",
          "type": "uint256"
        }
      ],
      "name": "getCandidatesForAssociatedElections",
      "outputs": [
        {
          "components": [
            {
              "internalType": "uint256",
              "name": "candidateId",
              "type": "uint256"
            },
            {
              "internalType": "address",
              "name": "candidateAddress",
              "type": "address"
            },
            {
              "internalType": "string",
              "name": "header",
              "type": "string"
            },
            {
              "internalType": "string",
              "name": "slogan",
              "type": "string"
            },
            {
              "internalType": "uint256",
              "name": "electionTitleIndex",
              "type": "uint256"
            },
            {
              "internalType": "uint256",
              "name": "voteCount",
              "type": "uint256"
            },
            {
              "internalType": "bool",
              "name": "isVerified",
              "type": "bool"
            },
            {
              "internalType": "bool",
              "name": "isRegistered",
              "type": "bool"
            }
          ],
          "internalType": "struct Election.Candidate[]",
          "name": "",
          "type": "tuple[]"
        }
      ],
      "stateMutability": "view",
      "type": "function"
    },
    {
      "inputs": [
        {
          "internalType": "uint256",
          "name": "_timeStamp",
          "type": "uint256"
        }
      ],
      "name": "getElectionEndedStatus",
      "outputs": [
        {
          "internalType": "bool",
          "name": "",
          "type": "bool"
        }
      ],
      "stateMutability": "view",
      "type": "function"
    },
    {
      "inputs": [],
      "name": "getElectionInitStatus",
      "outputs": [
        {
          "internalType": "bool",
          "name": "",
          "type": "bool"
        }
      ],
      "stateMutability": "view",
      "type": "function"
    },
    {
      "inputs": [
        {
          "internalType": "uint256",
          "name": "_timeStamp",
          "type": "uint256"
        }
      ],
      "name": "getElectionStatus",
      "outputs": [
        {
          "internalType": "bool",
          "name": "",
          "type": "bool"
        }
      ],
      "stateMutability": "view",
      "type": "function"
    },
    {
      "inputs": [],
      "name": "getElectionTitles",
      "outputs": [
        {
          "internalType": "string[]",
          "name": "",
          "type": "string[]"
        }
      ],
      "stateMutability": "view",
      "type": "function"
    },
    {
      "inputs": [],
      "name": "getOrganizationTitle",
      "outputs": [
        {
          "internalType": "string",
          "name": "",
          "type": "string"
        }
      ],
      "stateMutability": "view",
      "type": "function"
    },
    {
      "inputs": [],
      "name": "getRegistrationEndTime",
      "outputs": [
        {
          "internalType": "uint256",
          "name": "",
          "type": "uint256"
        }
      ],
      "stateMutability": "view",
      "type": "function"
    },
    {
      "inputs": [],
      "name": "getRegistrationStartTime",
      "outputs": [
        {
          "internalType": "uint256",
          "name": "",
          "type": "uint256"
        }
      ],
      "stateMutability": "view",
      "type": "function"
    },
    {
      "inputs": [
        {
          "internalType": "uint256",
          "name": "_timeStamp",
          "type": "uint256"
        }
      ],
      "name": "getRegistrationStatus",
      "outputs": [
        {
          "internalType": "bool",
          "name": "",
          "type": "bool"
        }
      ],
      "stateMutability": "view",
      "type": "function"
    },
    {
      "inputs": [],
      "name": "getTotalCandidate",
      "outputs": [
        {
          "internalType": "uint256",
          "name": "",
          "type": "uint256"
        }
      ],
      "stateMutability": "view",
      "type": "function"
    },
    {
      "inputs": [],
      "name": "getTotalVoter",
      "outputs": [
        {
          "internalType": "uint256",
          "name": "",
          "type": "uint256"
        }
      ],
      "stateMutability": "view",
      "type": "function"
    },
    {
      "inputs": [
        {
          "internalType": "address",
          "name": "_currentAddress",
          "type": "address"
        }
      ],
      "name": "getVoterStatusForCandidate",
      "outputs": [
        {
          "internalType": "bool",
          "name": "",
          "type": "bool"
        }
      ],
      "stateMutability": "view",
      "type": "function"
    },
    {
      "inputs": [],
      "name": "getVotingEndTime",
      "outputs": [
        {
          "internalType": "uint256",
          "name": "",
          "type": "uint256"
        }
      ],
      "stateMutability": "view",
      "type": "function"
    },
    {
      "inputs": [],
      "name": "getVotingStartTime",
      "outputs": [
        {
          "internalType": "uint256",
          "name": "",
          "type": "uint256"
        }
      ],
      "stateMutability": "view",
      "type": "function"
    },
    {
      "inputs": [],
      "name": "getWinner",
      "outputs": [
        {
          "internalType": "address",
          "name": "",
          "type": "address"
        }
      ],
      "stateMutability": "view",
      "type": "function"
    },
    {
      "inputs": [
        {
          "internalType": "string",
          "name": "_header",
          "type": "string"
        },
        {
          "internalType": "string",
          "name": "_slogan",
          "type": "string"
        },
        {
          "internalType": "uint256",
          "name": "_electionTitleIndex",
          "type": "uint256"
        }
      ],
      "name": "registerAsCandidate",
      "outputs": [],
      "stateMutability": "nonpayable",
      "type": "function"
    },
    {
      "inputs": [
        {
          "internalType": "string",
          "name": "_name",
          "type": "string"
        },
        {
          "internalType": "string",
          "name": "_phone",
          "type": "string"
        }
      ],
      "name": "registerAsVoter",
      "outputs": [],
      "stateMutability": "nonpayable",
      "type": "function"
    },
    {
      "inputs": [
        {
          "internalType": "string",
          "name": "_adminName",
          "type": "string"
        },
        {
          "internalType": "string",
          "name": "_adminEmail",
          "type": "string"
        },
        {
          "internalType": "string",
          "name": "_adminTitle",
          "type": "string"
        },
        {
          "internalType": "string",
          "name": "_organizationTitle",
          "type": "string"
        },
        {
          "internalType": "uint256",
          "name": "_votingStartTime",
          "type": "uint256"
        },
        {
          "internalType": "uint256",
          "name": "_votingEndTime",
          "type": "uint256"
        },
        {
          "internalType": "uint256",
          "name": "_registrationStartTime",
          "type": "uint256"
        },
        {
          "internalType": "uint256",
          "name": "_registrationEndTime",
          "type": "uint256"
        },
        {
          "internalType": "string[]",
          "name": "_elections",
          "type": "string[]"
        }
      ],
      "name": "setElectionDetails",
      "outputs": [],
      "stateMutability": "nonpayable",
      "type": "function"
    },
    {
      "inputs": [
        {
          "internalType": "bool",
          "name": "_verifedStatus",
          "type": "bool"
        },
        {
          "internalType": "address",
          "name": "candidateAddress",
          "type": "address"
        }
      ],
      "name": "verifyCandidate",
      "outputs": [],
      "stateMutability": "nonpayable",
      "type": "function"
    },
    {
      "inputs": [
        {
          "internalType": "bool",
          "name": "_verifedStatus",
          "type": "bool"
        },
        {
          "internalType": "address",
          "name": "voterAddress",
          "type": "address"
        }
      ],
      "name": "verifyVoter",
      "outputs": [],
      "stateMutability": "nonpayable",
      "type": "function"
    },
    {
      "inputs": [
        {
          "internalType": "address",
          "name": "_candidateAddress",
          "type": "address"
        }
      ],
      "name": "vote",
      "outputs": [],
      "stateMutability": "nonpayable",
      "type": "function"
    },
    {
      "inputs": [
        {
          "internalType": "address",
          "name": "",
          "type": "address"
        }
      ],
      "name": "voterDetails",
      "outputs": [
        {
          "internalType": "address",
          "name": "voterAddress",
          "type": "address"
        },
        {
          "internalType": "string",
          "name": "name",
          "type": "string"
        },
        {
          "internalType": "string",
          "name": "phone",
          "type": "string"
        },
        {
          "internalType": "bool",
          "name": "isVerified",
          "type": "bool"
        },
        {
          "internalType": "bool",
          "name": "hasVoted",
          "type": "bool"
        },
        {
          "internalType": "bool",
          "name": "isRegistered",
          "type": "bool"
        }
      ],
      "stateMutability": "view",
      "type": "function"
    },
    {
      "inputs": [
        {
          "internalType": "uint256",
          "name": "",
          "type": "uint256"
        }
      ],
      "name": "voters",
      "outputs": [
        {
          "internalType": "address",
          "name": "",
          "type": "address"
        }
      ],
      "stateMutability": "view",
      "type": "function"
    }
  ],
  "bytecode": "0x608060405234801561001057600080fd5b5033600360006101000a81548173ffffffffffffffffffffffffffffffffffffffff021916908373ffffffffffffffffffffffffffffffffffffffff1602179055506000600281905550600060018190555060008060006101000a81548160ff0219169083151502179055506000600a819055506000600b819055506000600c819055506000600d81905550613379806100ab6000396000f3fe608060405234801561001057600080fd5b50600436106102115760003560e01c80636a82ee5111610125578063c3a171a2116100ad578063da58c7d91161007c578063da58c7d914610674578063dd698f90146106a4578063df6d2784146106c2578063f851a440146106e0578063fee0d19a146106fe57610211565b8063c3a171a2146105ee578063c784d2131461060a578063cad43b4814610628578063d4ecadb81461064457610211565b8063831318f1116100f4578063831318f1146105465780638e7ea5b214610564578063aed9301014610582578063b1bf87b0146105b2578063be081b6f146105d057610211565b80636a82ee51146104be5780636dd7d8ea146104dc5780636e9960c3146104f85780637d6605351461051657610211565b80633f66f48b116101a8578063506b8e0a11610177578063506b8e0a14610401578063544b19f71461041d5780635938750d1461043b5780635fcdd8a11461047057806364d198a1146104a057610211565b80633f66f48b1461036757806341217ed51461039757806348343175146103c75780634c652fc6146103e557610211565b806315811029116101e457806315811029146102a757806319c5c507146102d757806324785b9e146103075780633477ee2e1461033757610211565b806305e73ced146102165780630712aa051461024d5780630b93400e1461026b5780630e2354cf14610289575b600080fd5b610230600480360381019061022b919061258f565b61071a565b604051610244989796959493929190612698565b60405180910390f35b6102556108ac565b6040516102629190612830565b60405180910390f35b6102736109fe565b6040516102809190612852565b60405180910390f35b610291610a08565b60405161029e919061286d565b60405180910390f35b6102c160048036038101906102bc91906128bb565b610a9d565b6040516102ce9190612a8e565b60405180910390f35b6102f160048036038101906102ec91906128bb565b610ee8565b6040516102fe9190612ab0565b60405180910390f35b610321600480360381019061031c91906128bb565b610f1b565b60405161032e9190612ab0565b60405180910390f35b610351600480360381019061034c91906128bb565b610f4e565b60405161035e9190612acb565b60405180910390f35b610381600480360381019061037c91906128bb565b610f8d565b60405161038e9190612acb565b60405180910390f35b6103b160048036038101906103ac91906128bb565b610fcc565b6040516103be9190612852565b60405180910390f35b6103cf611097565b6040516103dc919061286d565b60405180910390f35b6103ff60048036038101906103fa9190612c1b565b61112c565b005b61041b60048036038101906104169190612cd2565b6113b8565b005b6104256114d3565b6040516104329190612ab0565b60405180910390f35b6104556004803603810190610450919061258f565b6115c5565b60405161046796959493929190612d12565b60405180910390f35b61048a6004803603810190610485919061258f565b611758565b6040516104979190612ab0565b60405180910390f35b6104a8611807565b6040516104b59190612852565b60405180910390f35b6104c6611811565b6040516104d39190612852565b60405180910390f35b6104f660048036038101906104f1919061258f565b61181b565b005b610500611a1d565b60405161050d9190612acb565b60405180910390f35b610530600480360381019061052b919061258f565b611a47565b60405161053d9190612ab0565b60405180910390f35b61054e611af6565b60405161055b919061286d565b60405180910390f35b61056c611b8b565b6040516105799190612acb565b60405180910390f35b61059c600480360381019061059791906128bb565b611c5b565b6040516105a99190612acb565b60405180910390f35b6105ba611c9a565b6040516105c79190612852565b60405180910390f35b6105d8611ca4565b6040516105e5919061286d565b60405180910390f35b61060860048036038101906106039190612e67565b611d39565b005b610612611f86565b60405161061f9190612852565b60405180910390f35b610642600480360381019061063d9190612cd2565b611f90565b005b61065e600480360381019061065991906128bb565b6120ab565b60405161066b9190612ab0565b60405180910390f35b61068e600480360381019061068991906128bb565b6120dd565b60405161069b9190612acb565b60405180910390f35b6106ac61211c565b6040516106b99190612ab0565b60405180910390f35b6106ca612132565b6040516106d79190612852565b60405180910390f35b6106e861213c565b6040516106f59190612acb565b60405180910390f35b61071860048036038101906107139190612fbd565b612162565b005b60096020528060005260406000206000915090508060000154908060010160009054906101000a900473ffffffffffffffffffffffffffffffffffffffff169080600201805461076990613064565b80601f016020809104026020016040519081016040528092919081815260200182805461079590613064565b80156107e25780601f106107b7576101008083540402835291602001916107e2565b820191906000526020600020905b8154815290600101906020018083116107c557829003601f168201915b5050505050908060030180546107f790613064565b80601f016020809104026020016040519081016040528092919081815260200182805461082390613064565b80156108705780601f1061084557610100808354040283529160200191610870565b820191906000526020600020905b81548152906001019060200180831161085357829003601f168201915b5050505050908060040154908060050154908060060160009054906101000a900460ff16908060060160019054906101000a900460ff16905088565b60606000600e6008018054905067ffffffffffffffff8111156108d2576108d1612af0565b5b60405190808252806020026020018201604052801561090557816020015b60608152602001906001900390816108f05790505b50905060005b600e600801805490508110156109f657600e600801818154811061093257610931613096565b5b90600052602060002001805461094790613064565b80601f016020809104026020016040519081016040528092919081815260200182805461097390613064565b80156109c05780601f10610995576101008083540402835291602001916109c0565b820191906000526020600020905b8154815290600101906020018083116109a357829003601f168201915b50505050508282815181106109d8576109d7613096565b5b602002602001018190525080806109ee906130f4565b91505061090b565b508091505090565b6000600154905090565b6060600e6000018054610a1a90613064565b80601f0160208091040260200160405190810160405280929190818152602001828054610a4690613064565b8015610a935780601f10610a6857610100808354040283529160200191610a93565b820191906000526020600020905b815481529060010190602001808311610a7657829003601f168201915b5050505050905090565b6060600060078054905067ffffffffffffffff811115610ac057610abf612af0565b5b604051908082528060200260200182016040528015610af957816020015b610ae6612357565b815260200190600190039081610ade5790505b5090506000805b600780549050811015610e2c57846009600060078481548110610b2657610b25613096565b5b9060005260206000200160009054906101000a900473ffffffffffffffffffffffffffffffffffffffff1673ffffffffffffffffffffffffffffffffffffffff1673ffffffffffffffffffffffffffffffffffffffff168152602001908152602001600020600401541415610e19576009600060078381548110610bad57610bac613096565b5b9060005260206000200160009054906101000a900473ffffffffffffffffffffffffffffffffffffffff1673ffffffffffffffffffffffffffffffffffffffff1673ffffffffffffffffffffffffffffffffffffffff16815260200190815260200160002060405180610100016040529081600082015481526020016001820160009054906101000a900473ffffffffffffffffffffffffffffffffffffffff1673ffffffffffffffffffffffffffffffffffffffff1673ffffffffffffffffffffffffffffffffffffffff168152602001600282018054610c8e90613064565b80601f0160208091040260200160405190810160405280929190818152602001828054610cba90613064565b8015610d075780601f10610cdc57610100808354040283529160200191610d07565b820191906000526020600020905b815481529060010190602001808311610cea57829003601f168201915b50505050508152602001600382018054610d2090613064565b80601f0160208091040260200160405190810160405280929190818152602001828054610d4c90613064565b8015610d995780601f10610d6e57610100808354040283529160200191610d99565b820191906000526020600020905b815481529060010190602001808311610d7c57829003601f168201915b5050505050815260200160048201548152602001600582015481526020016006820160009054906101000a900460ff161515151581526020016006820160019054906101000a900460ff161515151581525050838381518110610dff57610dfe613096565b5b60200260200101819052508180610e15906130f4565b9250505b8080610e24906130f4565b915050610b00565b5060008167ffffffffffffffff811115610e4957610e48612af0565b5b604051908082528060200260200182016040528015610e8257816020015b610e6f612357565b815260200190600190039081610e675790505b50905060005b82811015610edc57838181518110610ea357610ea2613096565b5b6020026020010151828281518110610ebe57610ebd613096565b5b60200260200101819052508080610ed4906130f4565b915050610e88565b50809350505050919050565b600080600a548310158015610eff5750600b548311155b15610f0d5760019050610f12565b600090505b80915050919050565b600080600c548310158015610f325750600d548311155b15610f405760019050610f45565b600090505b80915050919050565b60058181548110610f5e57600080fd5b906000526020600020016000915054906101000a900473ffffffffffffffffffffffffffffffffffffffff1681565b60078181548110610f9d57600080fd5b906000526020600020016000915054906101000a900473ffffffffffffffffffffffffffffffffffffffff1681565b6000806000905060005b60078054905081101561108d57836009600060078481548110610ffc57610ffb613096565b5b9060005260206000200160009054906101000a900473ffffffffffffffffffffffffffffffffffffffff1673ffffffffffffffffffffffffffffffffffffffff1673ffffffffffffffffffffffffffffffffffffffff16815260200190815260200160002060040154141561107a578180611076906130f4565b9250505b8080611085906130f4565b915050610fd6565b5080915050919050565b6060600e60030180546110a990613064565b80601f01602080910402602001604051908101604052809291908181526020018280546110d590613064565b80156111225780601f106110f757610100808354040283529160200191611122565b820191906000526020600020905b81548152906001019060200180831161110557829003601f168201915b5050505050905090565b600a54421015611171576040517f08c379a000000000000000000000000000000000000000000000000000000000815260040161116890613189565b60405180910390fd5b600b544211156111b6576040517f08c379a00000000000000000000000000000000000000000000000000000000081526004016111ad906131f5565b60405180910390fd5b600060405180610100016040528060025481526020013373ffffffffffffffffffffffffffffffffffffffff1681526020018581526020018481526020018381526020016000815260200160001515815260200160011515815250905080600960003373ffffffffffffffffffffffffffffffffffffffff1673ffffffffffffffffffffffffffffffffffffffff1681526020019081526020016000206000820151816000015560208201518160010160006101000a81548173ffffffffffffffffffffffffffffffffffffffff021916908373ffffffffffffffffffffffffffffffffffffffff16021790555060408201518160020190805190602001906112c09291906123b6565b5060608201518160030190805190602001906112dd9291906123b6565b506080820151816004015560a0820151816005015560c08201518160060160006101000a81548160ff02191690831515021790555060e08201518160060160016101000a81548160ff0219169083151502179055509050506005339080600181540180825580915050600190039060005260206000200160009091909190916101000a81548173ffffffffffffffffffffffffffffffffffffffff021916908373ffffffffffffffffffffffffffffffffffffffff1602179055506001600260008282546113ab9190613215565b9250508190555050505050565b600360009054906101000a900473ffffffffffffffffffffffffffffffffffffffff1673ffffffffffffffffffffffffffffffffffffffff163373ffffffffffffffffffffffffffffffffffffffff161461141257600080fd5b81600860008373ffffffffffffffffffffffffffffffffffffffff1673ffffffffffffffffffffffffffffffffffffffff16815260200190815260200160002060030160006101000a81548160ff0219169083151502179055506006819080600181540180825580915050600190039060005260206000200160009091909190916101000a81548173ffffffffffffffffffffffffffffffffffffffff021916908373ffffffffffffffffffffffffffffffffffffffff1602179055505050565b60008060009050600080600e60080180549050905060018114156115ae5760005b6007805490508110156115ac576000600960006007848154811061151b5761151a613096565b5b9060005260206000200160009054906101000a900473ffffffffffffffffffffffffffffffffffffffff1673ffffffffffffffffffffffffffffffffffffffff1673ffffffffffffffffffffffffffffffffffffffff168152602001908152602001600020600401541415611599578280611595906130f4565b9350505b80806115a4906130f4565b9150506114f4565b505b60018214156115bc57600192505b82935050505090565b60086020528060005260406000206000915090508060000160009054906101000a900473ffffffffffffffffffffffffffffffffffffffff169080600101805461160e90613064565b80601f016020809104026020016040519081016040528092919081815260200182805461163a90613064565b80156116875780601f1061165c57610100808354040283529160200191611687565b820191906000526020600020905b81548152906001019060200180831161166a57829003601f168201915b50505050509080600201805461169c90613064565b80601f01602080910402602001604051908101604052809291908181526020018280546116c890613064565b80156117155780601f106116ea57610100808354040283529160200191611715565b820191906000526020600020905b8154815290600101906020018083116116f857829003601f168201915b5050505050908060030160009054906101000a900460ff16908060030160019054906101000a900460ff16908060030160029054906101000a900460ff16905086565b6000806000905060005b6006805490508110156117fd576006818154811061178357611782613096565b5b9060005260206000200160009054906101000a900473ffffffffffffffffffffffffffffffffffffffff1673ffffffffffffffffffffffffffffffffffffffff168473ffffffffffffffffffffffffffffffffffffffff1614156117ea57600191506117fd565b80806117f5906130f4565b915050611762565b5080915050919050565b6000600254905090565b6000600c54905090565b600c54421015611860576040517f08c379a0000000000000000000000000000000000000000000000000000000008152600401611857906132b7565b60405180910390fd5b600d544211156118a5576040517f08c379a000000000000000000000000000000000000000000000000000000000815260040161189c90613323565b60405180910390fd5b60001515600860003373ffffffffffffffffffffffffffffffffffffffff1673ffffffffffffffffffffffffffffffffffffffff16815260200190815260200160002060030160019054906101000a900460ff1615151461190557600080fd5b60011515600860003373ffffffffffffffffffffffffffffffffffffffff1673ffffffffffffffffffffffffffffffffffffffff16815260200190815260200160002060030160009054906101000a900460ff1615151461196557600080fd5b6001600960008373ffffffffffffffffffffffffffffffffffffffff1673ffffffffffffffffffffffffffffffffffffffff16815260200190815260200160002060050160008282546119b89190613215565b925050819055506001600860003373ffffffffffffffffffffffffffffffffffffffff1673ffffffffffffffffffffffffffffffffffffffff16815260200190815260200160002060030160016101000a81548160ff02191690831515021790555050565b6000600360009054906101000a900473ffffffffffffffffffffffffffffffffffffffff16905090565b6000806000905060005b600580549050811015611aec5760058181548110611a7257611a71613096565b5b9060005260206000200160009054906101000a900473ffffffffffffffffffffffffffffffffffffffff1673ffffffffffffffffffffffffffffffffffffffff168473ffffffffffffffffffffffffffffffffffffffff161415611ad95760019150611aec565b8080611ae4906130f4565b915050611a51565b5080915050919050565b6060600e6001018054611b0890613064565b80601f0160208091040260200160405190810160405280929190818152602001828054611b3490613064565b8015611b815780601f10611b5657610100808354040283529160200191611b81565b820191906000526020600020905b815481529060010190602001808311611b6457829003601f168201915b5050505050905090565b60008060009050600080600090505b600254811015611c5257600060078281548110611bba57611bb9613096565b5b9060005260206000200160009054906101000a900473ffffffffffffffffffffffffffffffffffffffff1690506000600960008373ffffffffffffffffffffffffffffffffffffffff1673ffffffffffffffffffffffffffffffffffffffff16815260200190815260200160002060050154905084811115611c3d578094508193505b50508080611c4a906130f4565b915050611b9a565b50809250505090565b60068181548110611c6b57600080fd5b906000526020600020016000915054906101000a900473ffffffffffffffffffffffffffffffffffffffff1681565b6000600d54905090565b6060600e6002018054611cb690613064565b80601f0160208091040260200160405190810160405280929190818152602001828054611ce290613064565b8015611d2f5780601f10611d0457610100808354040283529160200191611d2f565b820191906000526020600020905b815481529060010190602001808311611d1257829003601f168201915b5050505050905090565b600360009054906101000a900473ffffffffffffffffffffffffffffffffffffffff1673ffffffffffffffffffffffffffffffffffffffff163373ffffffffffffffffffffffffffffffffffffffff1614611d9357600080fd5b6000815167ffffffffffffffff811115611db057611daf612af0565b5b604051908082528060200260200182016040528015611de357816020015b6060815260200190600190039081611dce5790505b50905060005b8251811015611e3e57828181518110611e0557611e04613096565b5b6020026020010151828281518110611e2057611e1f613096565b5b60200260200101819052508080611e36906130f4565b915050611de9565b5060006040518061012001604052808c81526020018b81526020018a815260200189815260200188815260200187815260200186815260200185815260200183815250905080600e6000820151816000019080519060200190611ea29291906123b6565b506020820151816001019080519060200190611ebf9291906123b6565b506040820151816002019080519060200190611edc9291906123b6565b506060820151816003019080519060200190611ef99291906123b6565b506080820151816004015560a0820151816005015560c0820151816006015560e08201518160070155610100820151816008019080519060200190611f3f92919061243c565b5090505060016000806101000a81548160ff02191690831515021790555084600a8190555083600b8190555086600c8190555085600d819055505050505050505050505050565b6000600b54905090565b600360009054906101000a900473ffffffffffffffffffffffffffffffffffffffff1673ffffffffffffffffffffffffffffffffffffffff163373ffffffffffffffffffffffffffffffffffffffff1614611fea57600080fd5b81600960008373ffffffffffffffffffffffffffffffffffffffff1673ffffffffffffffffffffffffffffffffffffffff16815260200190815260200160002060060160006101000a81548160ff0219169083151502179055506007819080600181540180825580915050600190039060005260206000200160009091909190916101000a81548173ffffffffffffffffffffffffffffffffffffffff021916908373ffffffffffffffffffffffffffffffffffffffff1602179055505050565b6000806000905060008054906101000a900460ff16156120d457600d5483106120d357600190505b5b80915050919050565b600481815481106120ed57600080fd5b906000526020600020016000915054906101000a900473ffffffffffffffffffffffffffffffffffffffff1681565b60008060009054906101000a900460ff16905090565b6000600a54905090565b600360009054906101000a900473ffffffffffffffffffffffffffffffffffffffff1681565b60006040518060c001604052803373ffffffffffffffffffffffffffffffffffffffff16815260200184815260200183815260200160001515815260200160001515815260200160011515815250905080600860003373ffffffffffffffffffffffffffffffffffffffff1673ffffffffffffffffffffffffffffffffffffffff16815260200190815260200160002060008201518160000160006101000a81548173ffffffffffffffffffffffffffffffffffffffff021916908373ffffffffffffffffffffffffffffffffffffffff16021790555060208201518160010190805190602001906122559291906123b6565b5060408201518160020190805190602001906122729291906123b6565b5060608201518160030160006101000a81548160ff02191690831515021790555060808201518160030160016101000a81548160ff02191690831515021790555060a08201518160030160026101000a81548160ff0219169083151502179055509050506004339080600181540180825580915050600190039060005260206000200160009091909190916101000a81548173ffffffffffffffffffffffffffffffffffffffff021916908373ffffffffffffffffffffffffffffffffffffffff160217905550600180600082825461234b9190613215565b92505081905550505050565b60405180610100016040528060008152602001600073ffffffffffffffffffffffffffffffffffffffff168152602001606081526020016060815260200160008152602001600081526020016000151581526020016000151581525090565b8280546123c290613064565b90600052602060002090601f0160209004810192826123e4576000855561242b565b82601f106123fd57805160ff191683800117855561242b565b8280016001018555821561242b579182015b8281111561242a57825182559160200191906001019061240f565b5b509050612438919061249c565b5090565b82805482825590600052602060002090810192821561248b579160200282015b8281111561248a57825182908051906020019061247a9291906123b6565b509160200191906001019061245c565b5b50905061249891906124b9565b5090565b5b808211156124b557600081600090555060010161249d565b5090565b5b808211156124d957600081816124d091906124dd565b506001016124ba565b5090565b5080546124e990613064565b6000825580601f106124fb575061251a565b601f016020900490600052602060002090810190612519919061249c565b5b50565b6000604051905090565b600080fd5b600080fd5b600073ffffffffffffffffffffffffffffffffffffffff82169050919050565b600061255c82612531565b9050919050565b61256c81612551565b811461257757600080fd5b50565b60008135905061258981612563565b92915050565b6000602082840312156125a5576125a4612527565b5b60006125b38482850161257a565b91505092915050565b6000819050919050565b6125cf816125bc565b82525050565b6125de81612551565b82525050565b600081519050919050565b600082825260208201905092915050565b60005b8381101561261e578082015181840152602081019050612603565b8381111561262d576000848401525b50505050565b6000601f19601f8301169050919050565b600061264f826125e4565b61265981856125ef565b9350612669818560208601612600565b61267281612633565b840191505092915050565b60008115159050919050565b6126928161267d565b82525050565b6000610100820190506126ae600083018b6125c6565b6126bb602083018a6125d5565b81810360408301526126cd8189612644565b905081810360608301526126e18188612644565b90506126f060808301876125c6565b6126fd60a08301866125c6565b61270a60c0830185612689565b61271760e0830184612689565b9998505050505050505050565b600081519050919050565b600082825260208201905092915050565b6000819050602082019050919050565b600082825260208201905092915050565b600061276c826125e4565b6127768185612750565b9350612786818560208601612600565b61278f81612633565b840191505092915050565b60006127a68383612761565b905092915050565b6000602082019050919050565b60006127c682612724565b6127d0818561272f565b9350836020820285016127e285612740565b8060005b8581101561281e57848403895281516127ff858261279a565b945061280a836127ae565b925060208a019950506001810190506127e6565b50829750879550505050505092915050565b6000602082019050818103600083015261284a81846127bb565b905092915050565b600060208201905061286760008301846125c6565b92915050565b600060208201905081810360008301526128878184612644565b905092915050565b612898816125bc565b81146128a357600080fd5b50565b6000813590506128b58161288f565b92915050565b6000602082840312156128d1576128d0612527565b5b60006128df848285016128a6565b91505092915050565b600081519050919050565b600082825260208201905092915050565b6000819050602082019050919050565b61291d816125bc565b82525050565b61292c81612551565b82525050565b61293b8161267d565b82525050565b60006101008301600083015161295a6000860182612914565b50602083015161296d6020860182612923565b50604083015184820360408601526129858282612761565b9150506060830151848203606086015261299f8282612761565b91505060808301516129b46080860182612914565b5060a08301516129c760a0860182612914565b5060c08301516129da60c0860182612932565b5060e08301516129ed60e0860182612932565b508091505092915050565b6000612a048383612941565b905092915050565b6000602082019050919050565b6000612a24826128e8565b612a2e81856128f3565b935083602082028501612a4085612904565b8060005b85811015612a7c5784840389528151612a5d85826129f8565b9450612a6883612a0c565b925060208a01995050600181019050612a44565b50829750879550505050505092915050565b60006020820190508181036000830152612aa88184612a19565b905092915050565b6000602082019050612ac56000830184612689565b92915050565b6000602082019050612ae060008301846125d5565b92915050565b600080fd5b600080fd5b7f4e487b7100000000000000000000000000000000000000000000000000000000600052604160045260246000fd5b612b2882612633565b810181811067ffffffffffffffff82111715612b4757612b46612af0565b5b80604052505050565b6000612b5a61251d565b9050612b668282612b1f565b919050565b600067ffffffffffffffff821115612b8657612b85612af0565b5b612b8f82612633565b9050602081019050919050565b82818337600083830152505050565b6000612bbe612bb984612b6b565b612b50565b905082815260208101848484011115612bda57612bd9612aeb565b5b612be5848285612b9c565b509392505050565b600082601f830112612c0257612c01612ae6565b5b8135612c12848260208601612bab565b91505092915050565b600080600060608486031215612c3457612c33612527565b5b600084013567ffffffffffffffff811115612c5257612c5161252c565b5b612c5e86828701612bed565b935050602084013567ffffffffffffffff811115612c7f57612c7e61252c565b5b612c8b86828701612bed565b9250506040612c9c868287016128a6565b9150509250925092565b612caf8161267d565b8114612cba57600080fd5b50565b600081359050612ccc81612ca6565b92915050565b60008060408385031215612ce957612ce8612527565b5b6000612cf785828601612cbd565b9250506020612d088582860161257a565b9150509250929050565b600060c082019050612d2760008301896125d5565b8181036020830152612d398188612644565b90508181036040830152612d4d8187612644565b9050612d5c6060830186612689565b612d696080830185612689565b612d7660a0830184612689565b979650505050505050565b600067ffffffffffffffff821115612d9c57612d9b612af0565b5b602082029050602081019050919050565b600080fd5b6000612dc5612dc084612d81565b612b50565b90508083825260208201905060208402830185811115612de857612de7612dad565b5b835b81811015612e2f57803567ffffffffffffffff811115612e0d57612e0c612ae6565b5b808601612e1a8982612bed565b85526020850194505050602081019050612dea565b5050509392505050565b600082601f830112612e4e57612e4d612ae6565b5b8135612e5e848260208601612db2565b91505092915050565b60008060008060008060008060006101208a8c031215612e8a57612e89612527565b5b60008a013567ffffffffffffffff811115612ea857612ea761252c565b5b612eb48c828d01612bed565b99505060208a013567ffffffffffffffff811115612ed557612ed461252c565b5b612ee18c828d01612bed565b98505060408a013567ffffffffffffffff811115612f0257612f0161252c565b5b612f0e8c828d01612bed565b97505060608a013567ffffffffffffffff811115612f2f57612f2e61252c565b5b612f3b8c828d01612bed565b9650506080612f4c8c828d016128a6565b95505060a0612f5d8c828d016128a6565b94505060c0612f6e8c828d016128a6565b93505060e0612f7f8c828d016128a6565b9250506101008a013567ffffffffffffffff811115612fa157612fa061252c565b5b612fad8c828d01612e39565b9150509295985092959850929598565b60008060408385031215612fd457612fd3612527565b5b600083013567ffffffffffffffff811115612ff257612ff161252c565b5b612ffe85828601612bed565b925050602083013567ffffffffffffffff81111561301f5761301e61252c565b5b61302b85828601612bed565b9150509250929050565b7f4e487b7100000000000000000000000000000000000000000000000000000000600052602260045260246000fd5b6000600282049050600182168061307c57607f821691505b602082108114156130905761308f613035565b5b50919050565b7f4e487b7100000000000000000000000000000000000000000000000000000000600052603260045260246000fd5b7f4e487b7100000000000000000000000000000000000000000000000000000000600052601160045260246000fd5b60006130ff826125bc565b91507fffffffffffffffffffffffffffffffffffffffffffffffffffffffffffffffff821415613132576131316130c5565b5b600182019050919050565b7f526567697374726174696f6e206973206e6f7420737461727465642079657400600082015250565b6000613173601f836125ef565b915061317e8261313d565b602082019050919050565b600060208201905081810360008301526131a281613166565b9050919050565b7f526567697374726174696f6e20697320616c726561647920656e6465642e0000600082015250565b60006131df601e836125ef565b91506131ea826131a9565b602082019050919050565b6000602082019050818103600083015261320e816131d2565b9050919050565b6000613220826125bc565b915061322b836125bc565b9250827fffffffffffffffffffffffffffffffffffffffffffffffffffffffffffffffff038211156132605761325f6130c5565b5b828201905092915050565b7f566f74696e67206973206e6f7420737461727465642079657400000000000000600082015250565b60006132a16019836125ef565b91506132ac8261326b565b602082019050919050565b600060208201905081810360008301526132d081613294565b9050919050565b7f566f74696e6720697320616c726561647920656e646564000000000000000000600082015250565b600061330d6017836125ef565b9150613318826132d7565b602082019050919050565b6000602082019050818103600083015261333c81613300565b905091905056fea264697066735822122090d569def5334d18cb4affaeed3d6753903c9b94e65401aa8236a72daf5336dd64736f6c634300080b0033",
  "linkReferences": {},
  "deployedLinkReferences": {}
}