{
  "_format": "hh-sol-artifact-1",
  "contractName": "Election",
  "sourceName": "contracts/Election.sol",
  "abi": [
    {
      "inputs": [],
      "stateMutability": "nonpayable",
      "type": "constructor"
    },
    {
      "inputs": [],
      "name": "admin",
      "outputs": [
        {
          "internalType": "address",
          "name": "",
          "type": "address"
        }
      ],
      "stateMutability": "view",
      "type": "function"
    },
    {
      "inputs": [
        {
          "internalType": "address",
          "name": "",
          "type": "address"
        }
      ],
      "name": "candidateDetails",
      "outputs": [
        {
          "internalType": "uint256",
          "name": "candidateId",
          "type": "uint256"
        },
        {
          "internalType": "address",
          "name": "candidateAddress",
          "type": "address"
        },
        {
          "internalType": "string",
          "name": "header",
          "type": "string"
        },
        {
          "internalType": "string",
          "name": "slogan",
          "type": "string"
        },
        {
          "internalType": "uint256",
          "name": "voteCount",
          "type": "uint256"
        },
        {
          "internalType": "bool",
          "name": "isVerified",
          "type": "bool"
        },
        {
          "internalType": "bool",
          "name": "isRegistered",
          "type": "bool"
        }
      ],
      "stateMutability": "view",
      "type": "function"
    },
    {
      "inputs": [
        {
          "internalType": "uint256",
          "name": "",
          "type": "uint256"
        }
      ],
      "name": "candidates",
      "outputs": [
        {
          "internalType": "address",
          "name": "",
          "type": "address"
        }
      ],
      "stateMutability": "view",
      "type": "function"
    },
    {
      "inputs": [],
      "name": "getAdmin",
      "outputs": [
        {
          "internalType": "address",
          "name": "",
          "type": "address"
        }
      ],
      "stateMutability": "view",
      "type": "function"
    },
    {
      "inputs": [],
      "name": "getEnd",
      "outputs": [
        {
          "internalType": "bool",
          "name": "",
          "type": "bool"
        }
      ],
      "stateMutability": "view",
      "type": "function"
    },
    {
      "inputs": [],
      "name": "getStart",
      "outputs": [
        {
          "internalType": "bool",
          "name": "",
          "type": "bool"
        }
      ],
      "stateMutability": "view",
      "type": "function"
    },
    {
      "inputs": [],
      "name": "getTotalCandidate",
      "outputs": [
        {
          "internalType": "uint256",
          "name": "",
          "type": "uint256"
        }
      ],
      "stateMutability": "view",
      "type": "function"
    },
    {
      "inputs": [],
      "name": "getTotalVoter",
      "outputs": [
        {
          "internalType": "uint256",
          "name": "",
          "type": "uint256"
        }
      ],
      "stateMutability": "view",
      "type": "function"
    },
    {
      "inputs": [],
      "name": "getWinner",
      "outputs": [
        {
          "internalType": "address",
          "name": "",
          "type": "address"
        }
      ],
      "stateMutability": "view",
      "type": "function"
    },
    {
      "inputs": [
        {
          "internalType": "string",
          "name": "_header",
          "type": "string"
        },
        {
          "internalType": "string",
          "name": "_slogan",
          "type": "string"
        }
      ],
      "name": "registerAsCandidate",
      "outputs": [],
      "stateMutability": "nonpayable",
      "type": "function"
    },
    {
      "inputs": [
        {
          "internalType": "string",
          "name": "_name",
          "type": "string"
        },
        {
          "internalType": "string",
          "name": "_phone",
          "type": "string"
        }
      ],
      "name": "registerAsVoter",
      "outputs": [],
      "stateMutability": "nonpayable",
      "type": "function"
    },
    {
      "inputs": [
        {
          "internalType": "bool",
          "name": "_verifedStatus",
          "type": "bool"
        },
        {
          "internalType": "address",
          "name": "candidateAddress",
          "type": "address"
        }
      ],
      "name": "verifyCandidate",
      "outputs": [],
      "stateMutability": "nonpayable",
      "type": "function"
    },
    {
      "inputs": [
        {
          "internalType": "bool",
          "name": "_verifedStatus",
          "type": "bool"
        },
        {
          "internalType": "address",
          "name": "voterAddress",
          "type": "address"
        }
      ],
      "name": "verifyVoter",
      "outputs": [],
      "stateMutability": "nonpayable",
      "type": "function"
    },
    {
      "inputs": [
        {
          "internalType": "address",
          "name": "_candidateAddress",
          "type": "address"
        }
      ],
      "name": "vote",
      "outputs": [],
      "stateMutability": "nonpayable",
      "type": "function"
    },
    {
      "inputs": [
        {
          "internalType": "address",
          "name": "",
          "type": "address"
        }
      ],
      "name": "voterDetails",
      "outputs": [
        {
          "internalType": "address",
          "name": "voterAddress",
          "type": "address"
        },
        {
          "internalType": "string",
          "name": "name",
          "type": "string"
        },
        {
          "internalType": "string",
          "name": "phone",
          "type": "string"
        },
        {
          "internalType": "bool",
          "name": "isVerified",
          "type": "bool"
        },
        {
          "internalType": "bool",
          "name": "hasVoted",
          "type": "bool"
        },
        {
          "internalType": "bool",
          "name": "isRegistered",
          "type": "bool"
        }
      ],
      "stateMutability": "view",
      "type": "function"
    },
    {
      "inputs": [
        {
          "internalType": "uint256",
          "name": "",
          "type": "uint256"
        }
      ],
      "name": "voters",
      "outputs": [
        {
          "internalType": "address",
          "name": "",
          "type": "address"
        }
      ],
      "stateMutability": "view",
      "type": "function"
    }
  ],
  "bytecode": "0x608060405234801561001057600080fd5b5033600360006101000a81548173ffffffffffffffffffffffffffffffffffffffff021916908373ffffffffffffffffffffffffffffffffffffffff160217905550600060028190555060006001819055506000600960006101000a81548160ff0219169083151502179055506000600960016101000a81548160ff0219169083151502179055506000600960026101000a81548160ff0219169083151502179055506001600960036101000a81548160ff02191690831515021790555060008060006101000a81548160ff02191690831515021790555060008060016101000a81548160ff02191690831515021790555061196a806101116000396000f3fe608060405234801561001057600080fd5b50600436106101005760003560e01c80636e9960c311610097578063cad43b4811610066578063cad43b48146102a8578063da58c7d9146102c4578063f851a440146102f4578063fee0d19a1461031257610100565b80636e9960c3146102305780638e7ea5b21461024e5780639f05a36d1461026c578063c5292c671461028a57610100565b8063506b8e0a116100d3578063506b8e0a146101a55780635938750d146101c157806364d198a1146101f65780636dd7d8ea1461021457610100565b806304b8789b1461010557806305e73ced146101215780630b93400e146101575780633477ee2e14610175575b600080fd5b61011f600480360381019061011a919061126b565b61032e565b005b61013b60048036038101906101369190611206565b6105a8565b60405161014e9796959493929190611532565b60405180910390f35b61015f610734565b60405161016c9190611517565b60405180910390f35b61018f600480360381019061018a91906112d7565b61073e565b60405161019c91906113f2565b60405180910390f35b6101bf60048036038101906101ba919061122f565b61077d565b005b6101db60048036038101906101d69190611206565b610835565b6040516101ed9695949392919061140d565b60405180910390f35b6101fe6109c8565b60405161020b9190611517565b60405180910390f35b61022e60048036038101906102299190611206565b6109d2565b005b610238610bd4565b60405161024591906113f2565b60405180910390f35b610256610bfe565b60405161026391906113f2565b60405180910390f35b610274610cf4565b604051610281919061147c565b60405180910390f35b610292610d0a565b60405161029f919061147c565b60405180910390f35b6102c260048036038101906102bd919061122f565b610d20565b005b6102de60048036038101906102d991906112d7565b610dd8565b6040516102eb91906113f2565b60405180910390f35b6102fc610e17565b60405161030991906113f2565b60405180910390f35b61032c6004803603810190610327919061126b565b610e3d565b005b600a54421015610373576040517f08c379a000000000000000000000000000000000000000000000000000000000815260040161036a90611497565b60405180910390fd5b600b544211156103b8576040517f08c379a00000000000000000000000000000000000000000000000000000000081526004016103af906114b7565b60405180910390fd5b60006040518060e0016040528060025481526020013373ffffffffffffffffffffffffffffffffffffffff1681526020018481526020018381526020016000815260200160001515815260200160011515815250905080600760003373ffffffffffffffffffffffffffffffffffffffff1673ffffffffffffffffffffffffffffffffffffffff1681526020019081526020016000206000820151816000015560208201518160010160006101000a81548173ffffffffffffffffffffffffffffffffffffffff021916908373ffffffffffffffffffffffffffffffffffffffff16021790555060408201518160020190805190602001906104bb9291906110bc565b5060608201518160030190805190602001906104d89291906110bc565b506080820151816004015560a08201518160050160006101000a81548160ff02191690831515021790555060c08201518160050160016101000a81548160ff0219169083151502179055509050506005339080600181540180825580915050600190039060005260206000200160009091909190916101000a81548173ffffffffffffffffffffffffffffffffffffffff021916908373ffffffffffffffffffffffffffffffffffffffff16021790555060016002600082825461059c9190611621565b92505081905550505050565b60076020528060005260406000206000915090508060000154908060010160009054906101000a900473ffffffffffffffffffffffffffffffffffffffff16908060020180546105f790611701565b80601f016020809104026020016040519081016040528092919081815260200182805461062390611701565b80156106705780601f1061064557610100808354040283529160200191610670565b820191906000526020600020905b81548152906001019060200180831161065357829003601f168201915b50505050509080600301805461068590611701565b80601f01602080910402602001604051908101604052809291908181526020018280546106b190611701565b80156106fe5780601f106106d3576101008083540402835291602001916106fe565b820191906000526020600020905b8154815290600101906020018083116106e157829003601f168201915b5050505050908060040154908060050160009054906101000a900460ff16908060050160019054906101000a900460ff16905087565b6000600154905090565b6005818154811061074e57600080fd5b906000526020600020016000915054906101000a900473ffffffffffffffffffffffffffffffffffffffff1681565b600360009054906101000a900473ffffffffffffffffffffffffffffffffffffffff1673ffffffffffffffffffffffffffffffffffffffff163373ffffffffffffffffffffffffffffffffffffffff16146107d757600080fd5b81600660008373ffffffffffffffffffffffffffffffffffffffff1673ffffffffffffffffffffffffffffffffffffffff16815260200190815260200160002060030160006101000a81548160ff0219169083151502179055505050565b60066020528060005260406000206000915090508060000160009054906101000a900473ffffffffffffffffffffffffffffffffffffffff169080600101805461087e90611701565b80601f01602080910402602001604051908101604052809291908181526020018280546108aa90611701565b80156108f75780601f106108cc576101008083540402835291602001916108f7565b820191906000526020600020905b8154815290600101906020018083116108da57829003601f168201915b50505050509080600201805461090c90611701565b80601f016020809104026020016040519081016040528092919081815260200182805461093890611701565b80156109855780601f1061095a57610100808354040283529160200191610985565b820191906000526020600020905b81548152906001019060200180831161096857829003601f168201915b5050505050908060030160009054906101000a900460ff16908060030160019054906101000a900460ff16908060030160029054906101000a900460ff16905086565b6000600254905090565b600c54421015610a17576040517f08c379a0000000000000000000000000000000000000000000000000000000008152600401610a0e906114f7565b60405180910390fd5b600d54421115610a5c576040517f08c379a0000000000000000000000000000000000000000000000000000000008152600401610a53906114d7565b60405180910390fd5b60001515600660003373ffffffffffffffffffffffffffffffffffffffff1673ffffffffffffffffffffffffffffffffffffffff16815260200190815260200160002060030160019054906101000a900460ff16151514610abc57600080fd5b60011515600660003373ffffffffffffffffffffffffffffffffffffffff1673ffffffffffffffffffffffffffffffffffffffff16815260200190815260200160002060030160009054906101000a900460ff16151514610b1c57600080fd5b6001600760008373ffffffffffffffffffffffffffffffffffffffff1673ffffffffffffffffffffffffffffffffffffffff1681526020019081526020016000206004016000828254610b6f9190611621565b925050819055506001600660003373ffffffffffffffffffffffffffffffffffffffff1673ffffffffffffffffffffffffffffffffffffffff16815260200190815260200160002060030160016101000a81548160ff02191690831515021790555050565b6000600360009054906101000a900473ffffffffffffffffffffffffffffffffffffffff16905090565b60008060009050600080600090505b600254811015610ceb57600060058281548110610c53577f4e487b7100000000000000000000000000000000000000000000000000000000600052603260045260246000fd5b9060005260206000200160009054906101000a900473ffffffffffffffffffffffffffffffffffffffff1690506000600760008373ffffffffffffffffffffffffffffffffffffffff1673ffffffffffffffffffffffffffffffffffffffff16815260200190815260200160002060040154905084811115610cd6578094508193505b50508080610ce390611764565b915050610c0d565b50809250505090565b60008060019054906101000a900460ff16905090565b60008060009054906101000a900460ff16905090565b600360009054906101000a900473ffffffffffffffffffffffffffffffffffffffff1673ffffffffffffffffffffffffffffffffffffffff163373ffffffffffffffffffffffffffffffffffffffff1614610d7a57600080fd5b81600760008373ffffffffffffffffffffffffffffffffffffffff1673ffffffffffffffffffffffffffffffffffffffff16815260200190815260200160002060050160006101000a81548160ff0219169083151502179055505050565b60048181548110610de857600080fd5b906000526020600020016000915054906101000a900473ffffffffffffffffffffffffffffffffffffffff1681565b600360009054906101000a900473ffffffffffffffffffffffffffffffffffffffff1681565b600a54421015610e82576040517f08c379a0000000000000000000000000000000000000000000000000000000008152600401610e7990611497565b60405180910390fd5b600b54421115610ec7576040517f08c379a0000000000000000000000000000000000000000000000000000000008152600401610ebe906114b7565b60405180910390fd5b60006040518060c001604052803373ffffffffffffffffffffffffffffffffffffffff16815260200184815260200183815260200160001515815260200160001515815260200160011515815250905080600660003373ffffffffffffffffffffffffffffffffffffffff1673ffffffffffffffffffffffffffffffffffffffff16815260200190815260200160002060008201518160000160006101000a81548173ffffffffffffffffffffffffffffffffffffffff021916908373ffffffffffffffffffffffffffffffffffffffff1602179055506020820151816001019080519060200190610fba9291906110bc565b506040820151816002019080519060200190610fd79291906110bc565b5060608201518160030160006101000a81548160ff02191690831515021790555060808201518160030160016101000a81548160ff02191690831515021790555060a08201518160030160026101000a81548160ff0219169083151502179055509050506004339080600181540180825580915050600190039060005260206000200160009091909190916101000a81548173ffffffffffffffffffffffffffffffffffffffff021916908373ffffffffffffffffffffffffffffffffffffffff16021790555060018060008282546110b09190611621565b92505081905550505050565b8280546110c890611701565b90600052602060002090601f0160209004810192826110ea5760008555611131565b82601f1061110357805160ff1916838001178555611131565b82800160010185558215611131579182015b82811115611130578251825591602001919060010190611115565b5b50905061113e9190611142565b5090565b5b8082111561115b576000816000905550600101611143565b5090565b600061117261116d846115d4565b6115af565b90508281526020810184848401111561118a57600080fd5b6111958482856116bf565b509392505050565b6000813590506111ac816118ef565b92915050565b6000813590506111c181611906565b92915050565b600082601f8301126111d857600080fd5b81356111e884826020860161115f565b91505092915050565b6000813590506112008161191d565b92915050565b60006020828403121561121857600080fd5b60006112268482850161119d565b91505092915050565b6000806040838503121561124257600080fd5b6000611250858286016111b2565b92505060206112618582860161119d565b9150509250929050565b6000806040838503121561127e57600080fd5b600083013567ffffffffffffffff81111561129857600080fd5b6112a4858286016111c7565b925050602083013567ffffffffffffffff8111156112c157600080fd5b6112cd858286016111c7565b9150509250929050565b6000602082840312156112e957600080fd5b60006112f7848285016111f1565b91505092915050565b61130981611677565b82525050565b61131881611689565b82525050565b600061132982611605565b6113338185611610565b93506113438185602086016116ce565b61134c8161183a565b840191505092915050565b6000611364601f83611610565b915061136f8261184b565b602082019050919050565b6000611387601e83611610565b915061139282611874565b602082019050919050565b60006113aa601783611610565b91506113b58261189d565b602082019050919050565b60006113cd601983611610565b91506113d8826118c6565b602082019050919050565b6113ec816116b5565b82525050565b60006020820190506114076000830184611300565b92915050565b600060c0820190506114226000830189611300565b8181036020830152611434818861131e565b90508181036040830152611448818761131e565b9050611457606083018661130f565b611464608083018561130f565b61147160a083018461130f565b979650505050505050565b6000602082019050611491600083018461130f565b92915050565b600060208201905081810360008301526114b081611357565b9050919050565b600060208201905081810360008301526114d08161137a565b9050919050565b600060208201905081810360008301526114f08161139d565b9050919050565b60006020820190508181036000830152611510816113c0565b9050919050565b600060208201905061152c60008301846113e3565b92915050565b600060e082019050611547600083018a6113e3565b6115546020830189611300565b8181036040830152611566818861131e565b9050818103606083015261157a818761131e565b905061158960808301866113e3565b61159660a083018561130f565b6115a360c083018461130f565b98975050505050505050565b60006115b96115ca565b90506115c58282611733565b919050565b6000604051905090565b600067ffffffffffffffff8211156115ef576115ee61180b565b5b6115f88261183a565b9050602081019050919050565b600081519050919050565b600082825260208201905092915050565b600061162c826116b5565b9150611637836116b5565b9250827fffffffffffffffffffffffffffffffffffffffffffffffffffffffffffffffff0382111561166c5761166b6117ad565b5b828201905092915050565b600061168282611695565b9050919050565b60008115159050919050565b600073ffffffffffffffffffffffffffffffffffffffff82169050919050565b6000819050919050565b82818337600083830152505050565b60005b838110156116ec5780820151818401526020810190506116d1565b838111156116fb576000848401525b50505050565b6000600282049050600182168061171957607f821691505b6020821081141561172d5761172c6117dc565b5b50919050565b61173c8261183a565b810181811067ffffffffffffffff8211171561175b5761175a61180b565b5b80604052505050565b600061176f826116b5565b91507fffffffffffffffffffffffffffffffffffffffffffffffffffffffffffffffff8214156117a2576117a16117ad565b5b600182019050919050565b7f4e487b7100000000000000000000000000000000000000000000000000000000600052601160045260246000fd5b7f4e487b7100000000000000000000000000000000000000000000000000000000600052602260045260246000fd5b7f4e487b7100000000000000000000000000000000000000000000000000000000600052604160045260246000fd5b6000601f19601f8301169050919050565b7f526567697374726174696f6e206973206e6f7420737461727465642079657400600082015250565b7f526567697374726174696f6e20697320616c726561647920656e6465642e0000600082015250565b7f566f74696e6720697320616c726561647920656e646564000000000000000000600082015250565b7f566f74696e67206973206e6f7420737461727465642079657400000000000000600082015250565b6118f881611677565b811461190357600080fd5b50565b61190f81611689565b811461191a57600080fd5b50565b611926816116b5565b811461193157600080fd5b5056fea26469706673582212208c4804950a0ddfcecfec8d285a259b6e8a388d581e25b5a69b89ad39143fa47a64736f6c63430008010033",
  "linkReferences": {},
  "deployedLinkReferences": {}
}