{
  "_format": "hh-sol-artifact-1",
  "contractName": "Election",
  "sourceName": "contracts/Election.sol",
  "abi": [
    {
      "inputs": [],
      "stateMutability": "nonpayable",
      "type": "constructor"
    },
    {
      "inputs": [],
      "name": "admin",
      "outputs": [
        {
          "internalType": "address",
          "name": "",
          "type": "address"
        }
      ],
      "stateMutability": "view",
      "type": "function"
    },
    {
      "inputs": [
        {
          "internalType": "address",
          "name": "",
          "type": "address"
        }
      ],
      "name": "candidateDetails",
      "outputs": [
        {
          "internalType": "uint256",
          "name": "candidateId",
          "type": "uint256"
        },
        {
          "internalType": "address",
          "name": "candidateAddress",
          "type": "address"
        },
        {
          "internalType": "string",
          "name": "header",
          "type": "string"
        },
        {
          "internalType": "string",
          "name": "slogan",
          "type": "string"
        },
        {
          "internalType": "uint256",
          "name": "voteCount",
          "type": "uint256"
        },
        {
          "internalType": "bool",
          "name": "isVerified",
          "type": "bool"
        },
        {
          "internalType": "bool",
          "name": "isRegistered",
          "type": "bool"
        }
      ],
      "stateMutability": "view",
      "type": "function"
    },
    {
      "inputs": [
        {
          "internalType": "uint256",
          "name": "",
          "type": "uint256"
        }
      ],
      "name": "candidates",
      "outputs": [
        {
          "internalType": "address",
          "name": "",
          "type": "address"
        }
      ],
      "stateMutability": "view",
      "type": "function"
    },
    {
      "inputs": [],
      "name": "endElection",
      "outputs": [],
      "stateMutability": "nonpayable",
      "type": "function"
    },
    {
      "inputs": [],
      "name": "getAdmin",
      "outputs": [
        {
          "internalType": "address",
          "name": "",
          "type": "address"
        }
      ],
      "stateMutability": "view",
      "type": "function"
    },
    {
      "inputs": [],
      "name": "getAdminEmail",
      "outputs": [
        {
          "internalType": "string",
          "name": "",
          "type": "string"
        }
      ],
      "stateMutability": "view",
      "type": "function"
    },
    {
      "inputs": [],
      "name": "getAdminName",
      "outputs": [
        {
          "internalType": "string",
          "name": "",
          "type": "string"
        }
      ],
      "stateMutability": "view",
      "type": "function"
    },
    {
      "inputs": [],
      "name": "getAdminTitle",
      "outputs": [
        {
          "internalType": "string",
          "name": "",
          "type": "string"
        }
      ],
      "stateMutability": "view",
      "type": "function"
    },
    {
      "inputs": [],
      "name": "getElectionTitle",
      "outputs": [
        {
          "internalType": "string",
          "name": "",
          "type": "string"
        }
      ],
      "stateMutability": "view",
      "type": "function"
    },
    {
      "inputs": [],
      "name": "getEnd",
      "outputs": [
        {
          "internalType": "bool",
          "name": "",
          "type": "bool"
        }
      ],
      "stateMutability": "view",
      "type": "function"
    },
    {
      "inputs": [],
      "name": "getOrganizationTitle",
      "outputs": [
        {
          "internalType": "string",
          "name": "",
          "type": "string"
        }
      ],
      "stateMutability": "view",
      "type": "function"
    },
    {
      "inputs": [],
      "name": "getStart",
      "outputs": [
        {
          "internalType": "bool",
          "name": "",
          "type": "bool"
        }
      ],
      "stateMutability": "view",
      "type": "function"
    },
    {
      "inputs": [],
      "name": "getTotalCandidate",
      "outputs": [
        {
          "internalType": "uint256",
          "name": "",
          "type": "uint256"
        }
      ],
      "stateMutability": "view",
      "type": "function"
    },
    {
      "inputs": [],
      "name": "getTotalVoter",
      "outputs": [
        {
          "internalType": "uint256",
          "name": "",
          "type": "uint256"
        }
      ],
      "stateMutability": "view",
      "type": "function"
    },
    {
      "inputs": [
        {
          "internalType": "string",
          "name": "_header",
          "type": "string"
        },
        {
          "internalType": "string",
          "name": "_slogan",
          "type": "string"
        }
      ],
      "name": "registerAsCandidate",
      "outputs": [],
      "stateMutability": "nonpayable",
      "type": "function"
    },
    {
      "inputs": [
        {
          "internalType": "string",
          "name": "_name",
          "type": "string"
        },
        {
          "internalType": "string",
          "name": "_phone",
          "type": "string"
        }
      ],
      "name": "registerAsVoter",
      "outputs": [],
      "stateMutability": "nonpayable",
      "type": "function"
    },
    {
      "inputs": [
        {
          "internalType": "string",
          "name": "_adminName",
          "type": "string"
        },
        {
          "internalType": "string",
          "name": "_adminEmail",
          "type": "string"
        },
        {
          "internalType": "string",
          "name": "_adminTitle",
          "type": "string"
        },
        {
          "internalType": "string",
          "name": "_electionTitle",
          "type": "string"
        },
        {
          "internalType": "string",
          "name": "_organizationTitle",
          "type": "string"
        }
      ],
      "name": "setElectionDetails",
      "outputs": [],
      "stateMutability": "nonpayable",
      "type": "function"
    },
    {
      "inputs": [
        {
          "internalType": "bool",
          "name": "_verifedStatus",
          "type": "bool"
        },
        {
          "internalType": "address",
          "name": "candidateAddress",
          "type": "address"
        }
      ],
      "name": "verifyCandidate",
      "outputs": [],
      "stateMutability": "nonpayable",
      "type": "function"
    },
    {
      "inputs": [
        {
          "internalType": "bool",
          "name": "_verifedStatus",
          "type": "bool"
        },
        {
          "internalType": "address",
          "name": "voterAddress",
          "type": "address"
        }
      ],
      "name": "verifyVoter",
      "outputs": [],
      "stateMutability": "nonpayable",
      "type": "function"
    },
    {
      "inputs": [
        {
          "internalType": "address",
          "name": "_candidateAddress",
          "type": "address"
        }
      ],
      "name": "vote",
      "outputs": [],
      "stateMutability": "nonpayable",
      "type": "function"
    },
    {
      "inputs": [
        {
          "internalType": "address",
          "name": "",
          "type": "address"
        }
      ],
      "name": "voterDetails",
      "outputs": [
        {
          "internalType": "address",
          "name": "voterAddress",
          "type": "address"
        },
        {
          "internalType": "string",
          "name": "name",
          "type": "string"
        },
        {
          "internalType": "string",
          "name": "phone",
          "type": "string"
        },
        {
          "internalType": "bool",
          "name": "isVerified",
          "type": "bool"
        },
        {
          "internalType": "bool",
          "name": "hasVoted",
          "type": "bool"
        },
        {
          "internalType": "bool",
          "name": "isRegistered",
          "type": "bool"
        }
      ],
      "stateMutability": "view",
      "type": "function"
    },
    {
      "inputs": [
        {
          "internalType": "uint256",
          "name": "",
          "type": "uint256"
        }
      ],
      "name": "voters",
      "outputs": [
        {
          "internalType": "address",
          "name": "",
          "type": "address"
        }
      ],
      "stateMutability": "view",
      "type": "function"
    }
  ],
  "bytecode": "0x608060405234801561001057600080fd5b5033600360006101000a81548173ffffffffffffffffffffffffffffffffffffffff021916908373ffffffffffffffffffffffffffffffffffffffff1602179055506000600281905550600060018190555060008060006101000a81548160ff02191690831515021790555060008060016101000a81548160ff021916908315150217905550611bd8806100a56000396000f3fe608060405234801561001057600080fd5b50600436106101425760003560e01c80636dd7d8ea116100b8578063c5292c671161007c578063c5292c671461034c578063cad43b481461036a578063da58c7d914610386578063e173730c146103b6578063f851a440146103d4578063fee0d19a146103f257610142565b80636dd7d8ea146102b85780636e9960c3146102d4578063831318f1146102f25780639f05a36d14610310578063be081b6f1461032e57610142565b80633477ee2e1161010a5780633477ee2e146101f15780634834317514610221578063506b8e0a1461023f5780635938750d1461025b57806359f784681461029057806364d198a11461029a57610142565b806304b8789b1461014757806305e73ced146101635780630b93400e146101995780630e2354cf146101b7578063253e74e2146101d5575b600080fd5b610161600480360381019061015c91906115c1565b61040e565b005b61017d6004803603810190610178919061155c565b6105fe565b604051610190979695949392919061188d565b60405180910390f35b6101a161078a565b6040516101ae9190611872565b60405180910390f35b6101bf610794565b6040516101cc9190611850565b60405180910390f35b6101ef60048036038101906101ea919061162d565b610829565b005b61020b6004803603810190610206919061171c565b61097b565b60405161021891906117ab565b60405180910390f35b6102296109ba565b6040516102369190611850565b60405180910390f35b61025960048036038101906102549190611585565b610a4f565b005b6102756004803603810190610270919061155c565b610b07565b604051610287969594939291906117c6565b60405180910390f35b610298610c9a565b005b6102a2610d2b565b6040516102af9190611872565b60405180910390f35b6102d260048036038101906102cd919061155c565b610d35565b005b6102dc610eeb565b6040516102e991906117ab565b60405180910390f35b6102fa610f15565b6040516103079190611850565b60405180910390f35b610318610faa565b6040516103259190611835565b60405180910390f35b610336610fc0565b6040516103439190611850565b60405180910390f35b610354611055565b6040516103619190611835565b60405180910390f35b610384600480360381019061037f9190611585565b61106b565b005b6103a0600480360381019061039b919061171c565b611123565b6040516103ad91906117ab565b60405180910390f35b6103be611162565b6040516103cb9190611850565b60405180910390f35b6103dc6111f7565b6040516103e991906117ab565b60405180910390f35b61040c600480360381019061040791906115c1565b61121d565b005b60006040518060e0016040528060025481526020013373ffffffffffffffffffffffffffffffffffffffff1681526020018481526020018381526020016000815260200160001515815260200160011515815250905080600760003373ffffffffffffffffffffffffffffffffffffffff1673ffffffffffffffffffffffffffffffffffffffff1681526020019081526020016000206000820151816000015560208201518160010160006101000a81548173ffffffffffffffffffffffffffffffffffffffff021916908373ffffffffffffffffffffffffffffffffffffffff1602179055506040820151816002019080519060200190610511929190611412565b50606082015181600301908051906020019061052e929190611412565b506080820151816004015560a08201518160050160006101000a81548160ff02191690831515021790555060c08201518160050160016101000a81548160ff0219169083151502179055509050506005339080600181540180825580915050600190039060005260206000200160009091909190916101000a81548173ffffffffffffffffffffffffffffffffffffffff021916908373ffffffffffffffffffffffffffffffffffffffff1602179055506001600260008282546105f2919061197c565b92505081905550505050565b60076020528060005260406000206000915090508060000154908060010160009054906101000a900473ffffffffffffffffffffffffffffffffffffffff169080600201805461064d90611a5c565b80601f016020809104026020016040519081016040528092919081815260200182805461067990611a5c565b80156106c65780601f1061069b576101008083540402835291602001916106c6565b820191906000526020600020905b8154815290600101906020018083116106a957829003601f168201915b5050505050908060030180546106db90611a5c565b80601f016020809104026020016040519081016040528092919081815260200182805461070790611a5c565b80156107545780601f1061072957610100808354040283529160200191610754565b820191906000526020600020905b81548152906001019060200180831161073757829003601f168201915b5050505050908060040154908060050160009054906101000a900460ff16908060050160019054906101000a900460ff16905087565b6000600154905090565b6060600860000180546107a690611a5c565b80601f01602080910402602001604051908101604052809291908181526020018280546107d290611a5c565b801561081f5780601f106107f45761010080835404028352916020019161081f565b820191906000526020600020905b81548152906001019060200180831161080257829003601f168201915b5050505050905090565b600360009054906101000a900473ffffffffffffffffffffffffffffffffffffffff1673ffffffffffffffffffffffffffffffffffffffff163373ffffffffffffffffffffffffffffffffffffffff161461088357600080fd5b6040518060a0016040528086815260200185815260200184815260200183815260200182815250600860008201518160000190805190602001906108c8929190611412565b5060208201518160010190805190602001906108e5929190611412565b506040820151816002019080519060200190610902929190611412565b50606082015181600301908051906020019061091f929190611412565b50608082015181600401908051906020019061093c929190611412565b5090505060016000806101000a81548160ff02191690831515021790555060008060016101000a81548160ff0219169083151502179055505050505050565b6005818154811061098b57600080fd5b906000526020600020016000915054906101000a900473ffffffffffffffffffffffffffffffffffffffff1681565b6060600860040180546109cc90611a5c565b80601f01602080910402602001604051908101604052809291908181526020018280546109f890611a5c565b8015610a455780601f10610a1a57610100808354040283529160200191610a45565b820191906000526020600020905b815481529060010190602001808311610a2857829003601f168201915b5050505050905090565b600360009054906101000a900473ffffffffffffffffffffffffffffffffffffffff1673ffffffffffffffffffffffffffffffffffffffff163373ffffffffffffffffffffffffffffffffffffffff1614610aa957600080fd5b81600660008373ffffffffffffffffffffffffffffffffffffffff1673ffffffffffffffffffffffffffffffffffffffff16815260200190815260200160002060030160006101000a81548160ff0219169083151502179055505050565b60066020528060005260406000206000915090508060000160009054906101000a900473ffffffffffffffffffffffffffffffffffffffff1690806001018054610b5090611a5c565b80601f0160208091040260200160405190810160405280929190818152602001828054610b7c90611a5c565b8015610bc95780601f10610b9e57610100808354040283529160200191610bc9565b820191906000526020600020905b815481529060010190602001808311610bac57829003601f168201915b505050505090806002018054610bde90611a5c565b80601f0160208091040260200160405190810160405280929190818152602001828054610c0a90611a5c565b8015610c575780601f10610c2c57610100808354040283529160200191610c57565b820191906000526020600020905b815481529060010190602001808311610c3a57829003601f168201915b5050505050908060030160009054906101000a900460ff16908060030160019054906101000a900460ff16908060030160029054906101000a900460ff16905086565b600360009054906101000a900473ffffffffffffffffffffffffffffffffffffffff1673ffffffffffffffffffffffffffffffffffffffff163373ffffffffffffffffffffffffffffffffffffffff1614610cf457600080fd5b6001600060016101000a81548160ff02191690831515021790555060008060006101000a81548160ff021916908315150217905550565b6000600254905090565b60001515600660003373ffffffffffffffffffffffffffffffffffffffff1673ffffffffffffffffffffffffffffffffffffffff16815260200190815260200160002060030160019054906101000a900460ff16151514610d9557600080fd5b60011515600660003373ffffffffffffffffffffffffffffffffffffffff1673ffffffffffffffffffffffffffffffffffffffff16815260200190815260200160002060030160009054906101000a900460ff16151514610df557600080fd5b6001151560008054906101000a900460ff16151514610e1357600080fd5b60001515600060019054906101000a900460ff16151514610e3357600080fd5b6001600760008373ffffffffffffffffffffffffffffffffffffffff1673ffffffffffffffffffffffffffffffffffffffff1681526020019081526020016000206004016000828254610e86919061197c565b925050819055506001600660003373ffffffffffffffffffffffffffffffffffffffff1673ffffffffffffffffffffffffffffffffffffffff16815260200190815260200160002060030160016101000a81548160ff02191690831515021790555050565b6000600360009054906101000a900473ffffffffffffffffffffffffffffffffffffffff16905090565b606060086001018054610f2790611a5c565b80601f0160208091040260200160405190810160405280929190818152602001828054610f5390611a5c565b8015610fa05780601f10610f7557610100808354040283529160200191610fa0565b820191906000526020600020905b815481529060010190602001808311610f8357829003601f168201915b5050505050905090565b60008060019054906101000a900460ff16905090565b606060086002018054610fd290611a5c565b80601f0160208091040260200160405190810160405280929190818152602001828054610ffe90611a5c565b801561104b5780601f106110205761010080835404028352916020019161104b565b820191906000526020600020905b81548152906001019060200180831161102e57829003601f168201915b5050505050905090565b60008060009054906101000a900460ff16905090565b600360009054906101000a900473ffffffffffffffffffffffffffffffffffffffff1673ffffffffffffffffffffffffffffffffffffffff163373ffffffffffffffffffffffffffffffffffffffff16146110c557600080fd5b81600760008373ffffffffffffffffffffffffffffffffffffffff1673ffffffffffffffffffffffffffffffffffffffff16815260200190815260200160002060050160006101000a81548160ff0219169083151502179055505050565b6004818154811061113357600080fd5b906000526020600020016000915054906101000a900473ffffffffffffffffffffffffffffffffffffffff1681565b60606008600301805461117490611a5c565b80601f01602080910402602001604051908101604052809291908181526020018280546111a090611a5c565b80156111ed5780601f106111c2576101008083540402835291602001916111ed565b820191906000526020600020905b8154815290600101906020018083116111d057829003601f168201915b5050505050905090565b600360009054906101000a900473ffffffffffffffffffffffffffffffffffffffff1681565b60006040518060c001604052803373ffffffffffffffffffffffffffffffffffffffff16815260200184815260200183815260200160001515815260200160001515815260200160011515815250905080600660003373ffffffffffffffffffffffffffffffffffffffff1673ffffffffffffffffffffffffffffffffffffffff16815260200190815260200160002060008201518160000160006101000a81548173ffffffffffffffffffffffffffffffffffffffff021916908373ffffffffffffffffffffffffffffffffffffffff1602179055506020820151816001019080519060200190611310929190611412565b50604082015181600201908051906020019061132d929190611412565b5060608201518160030160006101000a81548160ff02191690831515021790555060808201518160030160016101000a81548160ff02191690831515021790555060a08201518160030160026101000a81548160ff0219169083151502179055509050506004339080600181540180825580915050600190039060005260206000200160009091909190916101000a81548173ffffffffffffffffffffffffffffffffffffffff021916908373ffffffffffffffffffffffffffffffffffffffff1602179055506001806000828254611406919061197c565b92505081905550505050565b82805461141e90611a5c565b90600052602060002090601f0160209004810192826114405760008555611487565b82601f1061145957805160ff1916838001178555611487565b82800160010185558215611487579182015b8281111561148657825182559160200191906001019061146b565b5b5090506114949190611498565b5090565b5b808211156114b1576000816000905550600101611499565b5090565b60006114c86114c38461192f565b61190a565b9050828152602081018484840111156114e057600080fd5b6114eb848285611a1a565b509392505050565b60008135905061150281611b5d565b92915050565b60008135905061151781611b74565b92915050565b600082601f83011261152e57600080fd5b813561153e8482602086016114b5565b91505092915050565b60008135905061155681611b8b565b92915050565b60006020828403121561156e57600080fd5b600061157c848285016114f3565b91505092915050565b6000806040838503121561159857600080fd5b60006115a685828601611508565b92505060206115b7858286016114f3565b9150509250929050565b600080604083850312156115d457600080fd5b600083013567ffffffffffffffff8111156115ee57600080fd5b6115fa8582860161151d565b925050602083013567ffffffffffffffff81111561161757600080fd5b6116238582860161151d565b9150509250929050565b600080600080600060a0868803121561164557600080fd5b600086013567ffffffffffffffff81111561165f57600080fd5b61166b8882890161151d565b955050602086013567ffffffffffffffff81111561168857600080fd5b6116948882890161151d565b945050604086013567ffffffffffffffff8111156116b157600080fd5b6116bd8882890161151d565b935050606086013567ffffffffffffffff8111156116da57600080fd5b6116e68882890161151d565b925050608086013567ffffffffffffffff81111561170357600080fd5b61170f8882890161151d565b9150509295509295909350565b60006020828403121561172e57600080fd5b600061173c84828501611547565b91505092915050565b61174e816119d2565b82525050565b61175d816119e4565b82525050565b600061176e82611960565b611778818561196b565b9350611788818560208601611a29565b61179181611b4c565b840191505092915050565b6117a581611a10565b82525050565b60006020820190506117c06000830184611745565b92915050565b600060c0820190506117db6000830189611745565b81810360208301526117ed8188611763565b905081810360408301526118018187611763565b90506118106060830186611754565b61181d6080830185611754565b61182a60a0830184611754565b979650505050505050565b600060208201905061184a6000830184611754565b92915050565b6000602082019050818103600083015261186a8184611763565b905092915050565b6000602082019050611887600083018461179c565b92915050565b600060e0820190506118a2600083018a61179c565b6118af6020830189611745565b81810360408301526118c18188611763565b905081810360608301526118d58187611763565b90506118e4608083018661179c565b6118f160a0830185611754565b6118fe60c0830184611754565b98975050505050505050565b6000611914611925565b90506119208282611a8e565b919050565b6000604051905090565b600067ffffffffffffffff82111561194a57611949611b1d565b5b61195382611b4c565b9050602081019050919050565b600081519050919050565b600082825260208201905092915050565b600061198782611a10565b915061199283611a10565b9250827fffffffffffffffffffffffffffffffffffffffffffffffffffffffffffffffff038211156119c7576119c6611abf565b5b828201905092915050565b60006119dd826119f0565b9050919050565b60008115159050919050565b600073ffffffffffffffffffffffffffffffffffffffff82169050919050565b6000819050919050565b82818337600083830152505050565b60005b83811015611a47578082015181840152602081019050611a2c565b83811115611a56576000848401525b50505050565b60006002820490506001821680611a7457607f821691505b60208210811415611a8857611a87611aee565b5b50919050565b611a9782611b4c565b810181811067ffffffffffffffff82111715611ab657611ab5611b1d565b5b80604052505050565b7f4e487b7100000000000000000000000000000000000000000000000000000000600052601160045260246000fd5b7f4e487b7100000000000000000000000000000000000000000000000000000000600052602260045260246000fd5b7f4e487b7100000000000000000000000000000000000000000000000000000000600052604160045260246000fd5b6000601f19601f8301169050919050565b611b66816119d2565b8114611b7157600080fd5b50565b611b7d816119e4565b8114611b8857600080fd5b50565b611b9481611a10565b8114611b9f57600080fd5b5056fea26469706673582212209975e8231771eceedf386aec0cadfe758d71ed815fa7c125ef81b59b0673386c64736f6c63430008010033",
  "linkReferences": {},
  "deployedLinkReferences": {}
}