{
  "_format": "hh-sol-artifact-1",
  "contractName": "Election",
  "sourceName": "contracts/Election.sol",
  "abi": [
    {
      "inputs": [],
      "stateMutability": "nonpayable",
      "type": "constructor"
    },
    {
      "inputs": [],
      "name": "admin",
      "outputs": [
        {
          "internalType": "address",
          "name": "",
          "type": "address"
        }
      ],
      "stateMutability": "view",
      "type": "function"
    },
    {
      "inputs": [
        {
          "internalType": "uint256",
          "name": "",
          "type": "uint256"
        }
      ],
      "name": "approvedCandidates",
      "outputs": [
        {
          "internalType": "address",
          "name": "",
          "type": "address"
        }
      ],
      "stateMutability": "view",
      "type": "function"
    },
    {
      "inputs": [
        {
          "internalType": "uint256",
          "name": "",
          "type": "uint256"
        }
      ],
      "name": "approvedVoters",
      "outputs": [
        {
          "internalType": "address",
          "name": "",
          "type": "address"
        }
      ],
      "stateMutability": "view",
      "type": "function"
    },
    {
      "inputs": [
        {
          "internalType": "address",
          "name": "",
          "type": "address"
        }
      ],
      "name": "candidateDetails",
      "outputs": [
        {
          "internalType": "uint256",
          "name": "candidateId",
          "type": "uint256"
        },
        {
          "internalType": "address",
          "name": "candidateAddress",
          "type": "address"
        },
        {
          "internalType": "string",
          "name": "header",
          "type": "string"
        },
        {
          "internalType": "string",
          "name": "slogan",
          "type": "string"
        },
        {
          "internalType": "uint256",
          "name": "electionTitleIndex",
          "type": "uint256"
        },
        {
          "internalType": "uint256",
          "name": "voteCount",
          "type": "uint256"
        },
        {
          "internalType": "bool",
          "name": "isVerified",
          "type": "bool"
        },
        {
          "internalType": "bool",
          "name": "isRegistered",
          "type": "bool"
        }
      ],
      "stateMutability": "view",
      "type": "function"
    },
    {
      "inputs": [
        {
          "internalType": "uint256",
          "name": "",
          "type": "uint256"
        }
      ],
      "name": "candidates",
      "outputs": [
        {
          "internalType": "address",
          "name": "",
          "type": "address"
        }
      ],
      "stateMutability": "view",
      "type": "function"
    },
    {
      "inputs": [],
      "name": "getAdmin",
      "outputs": [
        {
          "internalType": "address",
          "name": "",
          "type": "address"
        }
      ],
      "stateMutability": "view",
      "type": "function"
    },
    {
      "inputs": [],
      "name": "getAdminEmail",
      "outputs": [
        {
          "internalType": "string",
          "name": "",
          "type": "string"
        }
      ],
      "stateMutability": "view",
      "type": "function"
    },
    {
      "inputs": [],
      "name": "getAdminName",
      "outputs": [
        {
          "internalType": "string",
          "name": "",
          "type": "string"
        }
      ],
      "stateMutability": "view",
      "type": "function"
    },
    {
      "inputs": [],
      "name": "getAdminTitle",
      "outputs": [
        {
          "internalType": "string",
          "name": "",
          "type": "string"
        }
      ],
      "stateMutability": "view",
      "type": "function"
    },
    {
      "inputs": [
        {
          "internalType": "address",
          "name": "_currentAddress",
          "type": "address"
        }
      ],
      "name": "getAlreadyRegisteredCandidateStatus",
      "outputs": [
        {
          "internalType": "bool",
          "name": "",
          "type": "bool"
        }
      ],
      "stateMutability": "view",
      "type": "function"
    },
    {
      "inputs": [
        {
          "internalType": "uint256",
          "name": "_electionTitleIndex",
          "type": "uint256"
        }
      ],
      "name": "getCandidateCountForAsscociatedElection",
      "outputs": [
        {
          "internalType": "uint256",
          "name": "",
          "type": "uint256"
        }
      ],
      "stateMutability": "view",
      "type": "function"
    },
    {
      "inputs": [
        {
          "internalType": "uint256",
          "name": "_electionTitleIndex",
          "type": "uint256"
        }
      ],
      "name": "getCandidatesForAssociatedElections",
      "outputs": [
        {
          "components": [
            {
              "internalType": "uint256",
              "name": "candidateId",
              "type": "uint256"
            },
            {
              "internalType": "address",
              "name": "candidateAddress",
              "type": "address"
            },
            {
              "internalType": "string",
              "name": "header",
              "type": "string"
            },
            {
              "internalType": "string",
              "name": "slogan",
              "type": "string"
            },
            {
              "internalType": "uint256",
              "name": "electionTitleIndex",
              "type": "uint256"
            },
            {
              "internalType": "uint256",
              "name": "voteCount",
              "type": "uint256"
            },
            {
              "internalType": "bool",
              "name": "isVerified",
              "type": "bool"
            },
            {
              "internalType": "bool",
              "name": "isRegistered",
              "type": "bool"
            }
          ],
          "internalType": "struct Election.Candidate[]",
          "name": "",
          "type": "tuple[]"
        }
      ],
      "stateMutability": "view",
      "type": "function"
    },
    {
      "inputs": [
        {
          "internalType": "uint256",
          "name": "_timeStamp",
          "type": "uint256"
        }
      ],
      "name": "getElectionEndedStatus",
      "outputs": [
        {
          "internalType": "bool",
          "name": "",
          "type": "bool"
        }
      ],
      "stateMutability": "view",
      "type": "function"
    },
    {
      "inputs": [],
      "name": "getElectionInitStatus",
      "outputs": [
        {
          "internalType": "bool",
          "name": "",
          "type": "bool"
        }
      ],
      "stateMutability": "view",
      "type": "function"
    },
    {
      "inputs": [
        {
          "internalType": "uint256",
          "name": "_timeStamp",
          "type": "uint256"
        }
      ],
      "name": "getElectionStatus",
      "outputs": [
        {
          "internalType": "bool",
          "name": "",
          "type": "bool"
        }
      ],
      "stateMutability": "view",
      "type": "function"
    },
    {
      "inputs": [],
      "name": "getElectionTitles",
      "outputs": [
        {
          "internalType": "string[]",
          "name": "",
          "type": "string[]"
        }
      ],
      "stateMutability": "view",
      "type": "function"
    },
    {
      "inputs": [],
      "name": "getOrganizationTitle",
      "outputs": [
        {
          "internalType": "string",
          "name": "",
          "type": "string"
        }
      ],
      "stateMutability": "view",
      "type": "function"
    },
    {
      "inputs": [],
      "name": "getRegistrationEndTime",
      "outputs": [
        {
          "internalType": "uint256",
          "name": "",
          "type": "uint256"
        }
      ],
      "stateMutability": "view",
      "type": "function"
    },
    {
      "inputs": [],
      "name": "getRegistrationStartTime",
      "outputs": [
        {
          "internalType": "uint256",
          "name": "",
          "type": "uint256"
        }
      ],
      "stateMutability": "view",
      "type": "function"
    },
    {
      "inputs": [
        {
          "internalType": "uint256",
          "name": "_timeStamp",
          "type": "uint256"
        }
      ],
      "name": "getRegistrationStatus",
      "outputs": [
        {
          "internalType": "bool",
          "name": "",
          "type": "bool"
        }
      ],
      "stateMutability": "view",
      "type": "function"
    },
    {
      "inputs": [],
      "name": "getTotalCandidate",
      "outputs": [
        {
          "internalType": "uint256",
          "name": "",
          "type": "uint256"
        }
      ],
      "stateMutability": "view",
      "type": "function"
    },
    {
      "inputs": [],
      "name": "getTotalVoter",
      "outputs": [
        {
          "internalType": "uint256",
          "name": "",
          "type": "uint256"
        }
      ],
      "stateMutability": "view",
      "type": "function"
    },
    {
      "inputs": [
        {
          "internalType": "address",
          "name": "_currentAddress",
          "type": "address"
        }
      ],
      "name": "getVoterStatusForCandidate",
      "outputs": [
        {
          "internalType": "bool",
          "name": "",
          "type": "bool"
        }
      ],
      "stateMutability": "view",
      "type": "function"
    },
    {
      "inputs": [],
      "name": "getVotingEndTime",
      "outputs": [
        {
          "internalType": "uint256",
          "name": "",
          "type": "uint256"
        }
      ],
      "stateMutability": "view",
      "type": "function"
    },
    {
      "inputs": [],
      "name": "getVotingStartTime",
      "outputs": [
        {
          "internalType": "uint256",
          "name": "",
          "type": "uint256"
        }
      ],
      "stateMutability": "view",
      "type": "function"
    },
    {
      "inputs": [],
      "name": "getWinner",
      "outputs": [
        {
          "internalType": "address",
          "name": "",
          "type": "address"
        }
      ],
      "stateMutability": "view",
      "type": "function"
    },
    {
      "inputs": [
        {
          "internalType": "string",
          "name": "_header",
          "type": "string"
        },
        {
          "internalType": "string",
          "name": "_slogan",
          "type": "string"
        },
        {
          "internalType": "uint256",
          "name": "_electionTitleIndex",
          "type": "uint256"
        }
      ],
      "name": "registerAsCandidate",
      "outputs": [],
      "stateMutability": "nonpayable",
      "type": "function"
    },
    {
      "inputs": [
        {
          "internalType": "string",
          "name": "_name",
          "type": "string"
        },
        {
          "internalType": "string",
          "name": "_phone",
          "type": "string"
        }
      ],
      "name": "registerAsVoter",
      "outputs": [],
      "stateMutability": "nonpayable",
      "type": "function"
    },
    {
      "inputs": [
        {
          "internalType": "string",
          "name": "_adminName",
          "type": "string"
        },
        {
          "internalType": "string",
          "name": "_adminEmail",
          "type": "string"
        },
        {
          "internalType": "string",
          "name": "_adminTitle",
          "type": "string"
        },
        {
          "internalType": "string",
          "name": "_organizationTitle",
          "type": "string"
        },
        {
          "internalType": "uint256",
          "name": "_votingStartTime",
          "type": "uint256"
        },
        {
          "internalType": "uint256",
          "name": "_votingEndTime",
          "type": "uint256"
        },
        {
          "internalType": "uint256",
          "name": "_registrationStartTime",
          "type": "uint256"
        },
        {
          "internalType": "uint256",
          "name": "_registrationEndTime",
          "type": "uint256"
        },
        {
          "internalType": "string[]",
          "name": "_elections",
          "type": "string[]"
        }
      ],
      "name": "setElectionDetails",
      "outputs": [],
      "stateMutability": "nonpayable",
      "type": "function"
    },
    {
      "inputs": [
        {
          "internalType": "bool",
          "name": "_verifedStatus",
          "type": "bool"
        },
        {
          "internalType": "address",
          "name": "candidateAddress",
          "type": "address"
        }
      ],
      "name": "verifyCandidate",
      "outputs": [],
      "stateMutability": "nonpayable",
      "type": "function"
    },
    {
      "inputs": [
        {
          "internalType": "bool",
          "name": "_verifedStatus",
          "type": "bool"
        },
        {
          "internalType": "address",
          "name": "voterAddress",
          "type": "address"
        }
      ],
      "name": "verifyVoter",
      "outputs": [],
      "stateMutability": "nonpayable",
      "type": "function"
    },
    {
      "inputs": [
        {
          "internalType": "address",
          "name": "_candidateAddress",
          "type": "address"
        }
      ],
      "name": "vote",
      "outputs": [],
      "stateMutability": "nonpayable",
      "type": "function"
    },
    {
      "inputs": [
        {
          "internalType": "address",
          "name": "",
          "type": "address"
        }
      ],
      "name": "voterDetails",
      "outputs": [
        {
          "internalType": "address",
          "name": "voterAddress",
          "type": "address"
        },
        {
          "internalType": "string",
          "name": "name",
          "type": "string"
        },
        {
          "internalType": "string",
          "name": "phone",
          "type": "string"
        },
        {
          "internalType": "bool",
          "name": "isVerified",
          "type": "bool"
        },
        {
          "internalType": "bool",
          "name": "hasVoted",
          "type": "bool"
        },
        {
          "internalType": "bool",
          "name": "isRegistered",
          "type": "bool"
        }
      ],
      "stateMutability": "view",
      "type": "function"
    },
    {
      "inputs": [
        {
          "internalType": "uint256",
          "name": "",
          "type": "uint256"
        }
      ],
      "name": "voters",
      "outputs": [
        {
          "internalType": "address",
          "name": "",
          "type": "address"
        }
      ],
      "stateMutability": "view",
      "type": "function"
    }
  ],
  "bytecode": "0x608060405234801561001057600080fd5b5033600360006101000a81548173ffffffffffffffffffffffffffffffffffffffff021916908373ffffffffffffffffffffffffffffffffffffffff1602179055506000600281905550600060018190555060008060006101000a81548160ff0219169083151502179055506000600a819055506000600b819055506000600c819055506000600d8190555061325e806100ab6000396000f3fe608060405234801561001057600080fd5b50600436106102065760003560e01c80636dd7d8ea1161011a578063c3a171a2116100ad578063da58c7d91161007c578063da58c7d91461064b578063dd698f901461067b578063df6d278414610699578063f851a440146106b7578063fee0d19a146106d557610206565b8063c3a171a2146105c5578063c784d213146105e1578063cad43b48146105ff578063d4ecadb81461061b57610206565b80638e7ea5b2116100e95780638e7ea5b21461053b578063aed9301014610559578063b1bf87b014610589578063be081b6f146105a757610206565b80636dd7d8ea146104b35780636e9960c3146104cf5780637d660535146104ed578063831318f11461051d57610206565b80633f66f48b1161019d578063506b8e0a1161016c578063506b8e0a146103f65780635938750d146104125780635fcdd8a11461044757806364d198a1146104775780636a82ee511461049557610206565b80633f66f48b1461035c57806341217ed51461038c57806348343175146103bc5780634c652fc6146103da57610206565b806315811029116101d9578063158110291461029c57806319c5c507146102cc57806324785b9e146102fc5780633477ee2e1461032c57610206565b806305e73ced1461020b5780630712aa05146102425780630b93400e146102605780630e2354cf1461027e575b600080fd5b61022560048036038101906102209190612474565b6106f1565b60405161023998979695949392919061257d565b60405180910390f35b61024a610883565b6040516102579190612715565b60405180910390f35b6102686109d5565b6040516102759190612737565b60405180910390f35b6102866109df565b6040516102939190612752565b60405180910390f35b6102b660048036038101906102b191906127a0565b610a74565b6040516102c39190612973565b60405180910390f35b6102e660048036038101906102e191906127a0565b610ebf565b6040516102f39190612995565b60405180910390f35b610316600480360381019061031191906127a0565b610ef2565b6040516103239190612995565b60405180910390f35b610346600480360381019061034191906127a0565b610f25565b60405161035391906129b0565b60405180910390f35b610376600480360381019061037191906127a0565b610f64565b60405161038391906129b0565b60405180910390f35b6103a660048036038101906103a191906127a0565b610fa3565b6040516103b39190612737565b60405180910390f35b6103c461106e565b6040516103d19190612752565b60405180910390f35b6103f460048036038101906103ef9190612b00565b611103565b005b610410600480360381019061040b9190612bb7565b61138f565b005b61042c60048036038101906104279190612474565b6114aa565b60405161043e96959493929190612bf7565b60405180910390f35b610461600480360381019061045c9190612474565b61163d565b60405161046e9190612995565b60405180910390f35b61047f6116ec565b60405161048c9190612737565b60405180910390f35b61049d6116f6565b6040516104aa9190612737565b60405180910390f35b6104cd60048036038101906104c89190612474565b611700565b005b6104d7611902565b6040516104e491906129b0565b60405180910390f35b61050760048036038101906105029190612474565b61192c565b6040516105149190612995565b60405180910390f35b6105256119db565b6040516105329190612752565b60405180910390f35b610543611a70565b60405161055091906129b0565b60405180910390f35b610573600480360381019061056e91906127a0565b611b40565b60405161058091906129b0565b60405180910390f35b610591611b7f565b60405161059e9190612737565b60405180910390f35b6105af611b89565b6040516105bc9190612752565b60405180910390f35b6105df60048036038101906105da9190612d4c565b611c1e565b005b6105e9611e6b565b6040516105f69190612737565b60405180910390f35b61061960048036038101906106149190612bb7565b611e75565b005b610635600480360381019061063091906127a0565b611f90565b6040516106429190612995565b60405180910390f35b610665600480360381019061066091906127a0565b611fc2565b60405161067291906129b0565b60405180910390f35b610683612001565b6040516106909190612995565b60405180910390f35b6106a1612017565b6040516106ae9190612737565b60405180910390f35b6106bf612021565b6040516106cc91906129b0565b60405180910390f35b6106ef60048036038101906106ea9190612ea2565b612047565b005b60096020528060005260406000206000915090508060000154908060010160009054906101000a900473ffffffffffffffffffffffffffffffffffffffff169080600201805461074090612f49565b80601f016020809104026020016040519081016040528092919081815260200182805461076c90612f49565b80156107b95780601f1061078e576101008083540402835291602001916107b9565b820191906000526020600020905b81548152906001019060200180831161079c57829003601f168201915b5050505050908060030180546107ce90612f49565b80601f01602080910402602001604051908101604052809291908181526020018280546107fa90612f49565b80156108475780601f1061081c57610100808354040283529160200191610847565b820191906000526020600020905b81548152906001019060200180831161082a57829003601f168201915b5050505050908060040154908060050154908060060160009054906101000a900460ff16908060060160019054906101000a900460ff16905088565b60606000600e6008018054905067ffffffffffffffff8111156108a9576108a86129d5565b5b6040519080825280602002602001820160405280156108dc57816020015b60608152602001906001900390816108c75790505b50905060005b600e600801805490508110156109cd57600e600801818154811061090957610908612f7b565b5b90600052602060002001805461091e90612f49565b80601f016020809104026020016040519081016040528092919081815260200182805461094a90612f49565b80156109975780601f1061096c57610100808354040283529160200191610997565b820191906000526020600020905b81548152906001019060200180831161097a57829003601f168201915b50505050508282815181106109af576109ae612f7b565b5b602002602001018190525080806109c590612fd9565b9150506108e2565b508091505090565b6000600154905090565b6060600e60000180546109f190612f49565b80601f0160208091040260200160405190810160405280929190818152602001828054610a1d90612f49565b8015610a6a5780601f10610a3f57610100808354040283529160200191610a6a565b820191906000526020600020905b815481529060010190602001808311610a4d57829003601f168201915b5050505050905090565b6060600060078054905067ffffffffffffffff811115610a9757610a966129d5565b5b604051908082528060200260200182016040528015610ad057816020015b610abd61223c565b815260200190600190039081610ab55790505b5090506000805b600780549050811015610e0357846009600060078481548110610afd57610afc612f7b565b5b9060005260206000200160009054906101000a900473ffffffffffffffffffffffffffffffffffffffff1673ffffffffffffffffffffffffffffffffffffffff1673ffffffffffffffffffffffffffffffffffffffff168152602001908152602001600020600401541415610df0576009600060078381548110610b8457610b83612f7b565b5b9060005260206000200160009054906101000a900473ffffffffffffffffffffffffffffffffffffffff1673ffffffffffffffffffffffffffffffffffffffff1673ffffffffffffffffffffffffffffffffffffffff16815260200190815260200160002060405180610100016040529081600082015481526020016001820160009054906101000a900473ffffffffffffffffffffffffffffffffffffffff1673ffffffffffffffffffffffffffffffffffffffff1673ffffffffffffffffffffffffffffffffffffffff168152602001600282018054610c6590612f49565b80601f0160208091040260200160405190810160405280929190818152602001828054610c9190612f49565b8015610cde5780601f10610cb357610100808354040283529160200191610cde565b820191906000526020600020905b815481529060010190602001808311610cc157829003601f168201915b50505050508152602001600382018054610cf790612f49565b80601f0160208091040260200160405190810160405280929190818152602001828054610d2390612f49565b8015610d705780601f10610d4557610100808354040283529160200191610d70565b820191906000526020600020905b815481529060010190602001808311610d5357829003601f168201915b5050505050815260200160048201548152602001600582015481526020016006820160009054906101000a900460ff161515151581526020016006820160019054906101000a900460ff161515151581525050838381518110610dd657610dd5612f7b565b5b60200260200101819052508180610dec90612fd9565b9250505b8080610dfb90612fd9565b915050610ad7565b5060008167ffffffffffffffff811115610e2057610e1f6129d5565b5b604051908082528060200260200182016040528015610e5957816020015b610e4661223c565b815260200190600190039081610e3e5790505b50905060005b82811015610eb357838181518110610e7a57610e79612f7b565b5b6020026020010151828281518110610e9557610e94612f7b565b5b60200260200101819052508080610eab90612fd9565b915050610e5f565b50809350505050919050565b600080600a548310158015610ed65750600b548311155b15610ee45760019050610ee9565b600090505b80915050919050565b600080600c548310158015610f095750600d548311155b15610f175760019050610f1c565b600090505b80915050919050565b60058181548110610f3557600080fd5b906000526020600020016000915054906101000a900473ffffffffffffffffffffffffffffffffffffffff1681565b60078181548110610f7457600080fd5b906000526020600020016000915054906101000a900473ffffffffffffffffffffffffffffffffffffffff1681565b6000806000905060005b60078054905081101561106457836009600060078481548110610fd357610fd2612f7b565b5b9060005260206000200160009054906101000a900473ffffffffffffffffffffffffffffffffffffffff1673ffffffffffffffffffffffffffffffffffffffff1673ffffffffffffffffffffffffffffffffffffffff16815260200190815260200160002060040154141561105157818061104d90612fd9565b9250505b808061105c90612fd9565b915050610fad565b5080915050919050565b6060600e600301805461108090612f49565b80601f01602080910402602001604051908101604052809291908181526020018280546110ac90612f49565b80156110f95780601f106110ce576101008083540402835291602001916110f9565b820191906000526020600020905b8154815290600101906020018083116110dc57829003601f168201915b5050505050905090565b600a54421015611148576040517f08c379a000000000000000000000000000000000000000000000000000000000815260040161113f9061306e565b60405180910390fd5b600b5442111561118d576040517f08c379a0000000000000000000000000000000000000000000000000000000008152600401611184906130da565b60405180910390fd5b600060405180610100016040528060025481526020013373ffffffffffffffffffffffffffffffffffffffff1681526020018581526020018481526020018381526020016000815260200160001515815260200160011515815250905080600960003373ffffffffffffffffffffffffffffffffffffffff1673ffffffffffffffffffffffffffffffffffffffff1681526020019081526020016000206000820151816000015560208201518160010160006101000a81548173ffffffffffffffffffffffffffffffffffffffff021916908373ffffffffffffffffffffffffffffffffffffffff160217905550604082015181600201908051906020019061129792919061229b565b5060608201518160030190805190602001906112b492919061229b565b506080820151816004015560a0820151816005015560c08201518160060160006101000a81548160ff02191690831515021790555060e08201518160060160016101000a81548160ff0219169083151502179055509050506005339080600181540180825580915050600190039060005260206000200160009091909190916101000a81548173ffffffffffffffffffffffffffffffffffffffff021916908373ffffffffffffffffffffffffffffffffffffffff16021790555060016002600082825461138291906130fa565b9250508190555050505050565b600360009054906101000a900473ffffffffffffffffffffffffffffffffffffffff1673ffffffffffffffffffffffffffffffffffffffff163373ffffffffffffffffffffffffffffffffffffffff16146113e957600080fd5b81600860008373ffffffffffffffffffffffffffffffffffffffff1673ffffffffffffffffffffffffffffffffffffffff16815260200190815260200160002060030160006101000a81548160ff0219169083151502179055506006819080600181540180825580915050600190039060005260206000200160009091909190916101000a81548173ffffffffffffffffffffffffffffffffffffffff021916908373ffffffffffffffffffffffffffffffffffffffff1602179055505050565b60086020528060005260406000206000915090508060000160009054906101000a900473ffffffffffffffffffffffffffffffffffffffff16908060010180546114f390612f49565b80601f016020809104026020016040519081016040528092919081815260200182805461151f90612f49565b801561156c5780601f106115415761010080835404028352916020019161156c565b820191906000526020600020905b81548152906001019060200180831161154f57829003601f168201915b50505050509080600201805461158190612f49565b80601f01602080910402602001604051908101604052809291908181526020018280546115ad90612f49565b80156115fa5780601f106115cf576101008083540402835291602001916115fa565b820191906000526020600020905b8154815290600101906020018083116115dd57829003601f168201915b5050505050908060030160009054906101000a900460ff16908060030160019054906101000a900460ff16908060030160029054906101000a900460ff16905086565b6000806000905060005b6006805490508110156116e2576006818154811061166857611667612f7b565b5b9060005260206000200160009054906101000a900473ffffffffffffffffffffffffffffffffffffffff1673ffffffffffffffffffffffffffffffffffffffff168473ffffffffffffffffffffffffffffffffffffffff1614156116cf57600191506116e2565b80806116da90612fd9565b915050611647565b5080915050919050565b6000600254905090565b6000600c54905090565b600c54421015611745576040517f08c379a000000000000000000000000000000000000000000000000000000000815260040161173c9061319c565b60405180910390fd5b600d5442111561178a576040517f08c379a000000000000000000000000000000000000000000000000000000000815260040161178190613208565b60405180910390fd5b60001515600860003373ffffffffffffffffffffffffffffffffffffffff1673ffffffffffffffffffffffffffffffffffffffff16815260200190815260200160002060030160019054906101000a900460ff161515146117ea57600080fd5b60011515600860003373ffffffffffffffffffffffffffffffffffffffff1673ffffffffffffffffffffffffffffffffffffffff16815260200190815260200160002060030160009054906101000a900460ff1615151461184a57600080fd5b6001600960008373ffffffffffffffffffffffffffffffffffffffff1673ffffffffffffffffffffffffffffffffffffffff168152602001908152602001600020600501600082825461189d91906130fa565b925050819055506001600860003373ffffffffffffffffffffffffffffffffffffffff1673ffffffffffffffffffffffffffffffffffffffff16815260200190815260200160002060030160016101000a81548160ff02191690831515021790555050565b6000600360009054906101000a900473ffffffffffffffffffffffffffffffffffffffff16905090565b6000806000905060005b6005805490508110156119d1576005818154811061195757611956612f7b565b5b9060005260206000200160009054906101000a900473ffffffffffffffffffffffffffffffffffffffff1673ffffffffffffffffffffffffffffffffffffffff168473ffffffffffffffffffffffffffffffffffffffff1614156119be57600191506119d1565b80806119c990612fd9565b915050611936565b5080915050919050565b6060600e60010180546119ed90612f49565b80601f0160208091040260200160405190810160405280929190818152602001828054611a1990612f49565b8015611a665780601f10611a3b57610100808354040283529160200191611a66565b820191906000526020600020905b815481529060010190602001808311611a4957829003601f168201915b5050505050905090565b60008060009050600080600090505b600254811015611b3757600060058281548110611a9f57611a9e612f7b565b5b9060005260206000200160009054906101000a900473ffffffffffffffffffffffffffffffffffffffff1690506000600960008373ffffffffffffffffffffffffffffffffffffffff1673ffffffffffffffffffffffffffffffffffffffff16815260200190815260200160002060050154905084811115611b22578094508193505b50508080611b2f90612fd9565b915050611a7f565b50809250505090565b60068181548110611b5057600080fd5b906000526020600020016000915054906101000a900473ffffffffffffffffffffffffffffffffffffffff1681565b6000600d54905090565b6060600e6002018054611b9b90612f49565b80601f0160208091040260200160405190810160405280929190818152602001828054611bc790612f49565b8015611c145780601f10611be957610100808354040283529160200191611c14565b820191906000526020600020905b815481529060010190602001808311611bf757829003601f168201915b5050505050905090565b600360009054906101000a900473ffffffffffffffffffffffffffffffffffffffff1673ffffffffffffffffffffffffffffffffffffffff163373ffffffffffffffffffffffffffffffffffffffff1614611c7857600080fd5b6000815167ffffffffffffffff811115611c9557611c946129d5565b5b604051908082528060200260200182016040528015611cc857816020015b6060815260200190600190039081611cb35790505b50905060005b8251811015611d2357828181518110611cea57611ce9612f7b565b5b6020026020010151828281518110611d0557611d04612f7b565b5b60200260200101819052508080611d1b90612fd9565b915050611cce565b5060006040518061012001604052808c81526020018b81526020018a815260200189815260200188815260200187815260200186815260200185815260200183815250905080600e6000820151816000019080519060200190611d8792919061229b565b506020820151816001019080519060200190611da492919061229b565b506040820151816002019080519060200190611dc192919061229b565b506060820151816003019080519060200190611dde92919061229b565b506080820151816004015560a0820151816005015560c0820151816006015560e08201518160070155610100820151816008019080519060200190611e24929190612321565b5090505060016000806101000a81548160ff02191690831515021790555084600a8190555083600b8190555086600c8190555085600d819055505050505050505050505050565b6000600b54905090565b600360009054906101000a900473ffffffffffffffffffffffffffffffffffffffff1673ffffffffffffffffffffffffffffffffffffffff163373ffffffffffffffffffffffffffffffffffffffff1614611ecf57600080fd5b81600960008373ffffffffffffffffffffffffffffffffffffffff1673ffffffffffffffffffffffffffffffffffffffff16815260200190815260200160002060060160006101000a81548160ff0219169083151502179055506007819080600181540180825580915050600190039060005260206000200160009091909190916101000a81548173ffffffffffffffffffffffffffffffffffffffff021916908373ffffffffffffffffffffffffffffffffffffffff1602179055505050565b6000806000905060008054906101000a900460ff1615611fb957600d548310611fb857600190505b5b80915050919050565b60048181548110611fd257600080fd5b906000526020600020016000915054906101000a900473ffffffffffffffffffffffffffffffffffffffff1681565b60008060009054906101000a900460ff16905090565b6000600a54905090565b600360009054906101000a900473ffffffffffffffffffffffffffffffffffffffff1681565b60006040518060c001604052803373ffffffffffffffffffffffffffffffffffffffff16815260200184815260200183815260200160001515815260200160001515815260200160011515815250905080600860003373ffffffffffffffffffffffffffffffffffffffff1673ffffffffffffffffffffffffffffffffffffffff16815260200190815260200160002060008201518160000160006101000a81548173ffffffffffffffffffffffffffffffffffffffff021916908373ffffffffffffffffffffffffffffffffffffffff160217905550602082015181600101908051906020019061213a92919061229b565b50604082015181600201908051906020019061215792919061229b565b5060608201518160030160006101000a81548160ff02191690831515021790555060808201518160030160016101000a81548160ff02191690831515021790555060a08201518160030160026101000a81548160ff0219169083151502179055509050506004339080600181540180825580915050600190039060005260206000200160009091909190916101000a81548173ffffffffffffffffffffffffffffffffffffffff021916908373ffffffffffffffffffffffffffffffffffffffff160217905550600180600082825461223091906130fa565b92505081905550505050565b60405180610100016040528060008152602001600073ffffffffffffffffffffffffffffffffffffffff168152602001606081526020016060815260200160008152602001600081526020016000151581526020016000151581525090565b8280546122a790612f49565b90600052602060002090601f0160209004810192826122c95760008555612310565b82601f106122e257805160ff1916838001178555612310565b82800160010185558215612310579182015b8281111561230f5782518255916020019190600101906122f4565b5b50905061231d9190612381565b5090565b828054828255906000526020600020908101928215612370579160200282015b8281111561236f57825182908051906020019061235f92919061229b565b5091602001919060010190612341565b5b50905061237d919061239e565b5090565b5b8082111561239a576000816000905550600101612382565b5090565b5b808211156123be57600081816123b591906123c2565b5060010161239f565b5090565b5080546123ce90612f49565b6000825580601f106123e057506123ff565b601f0160209004906000526020600020908101906123fe9190612381565b5b50565b6000604051905090565b600080fd5b600080fd5b600073ffffffffffffffffffffffffffffffffffffffff82169050919050565b600061244182612416565b9050919050565b61245181612436565b811461245c57600080fd5b50565b60008135905061246e81612448565b92915050565b60006020828403121561248a5761248961240c565b5b60006124988482850161245f565b91505092915050565b6000819050919050565b6124b4816124a1565b82525050565b6124c381612436565b82525050565b600081519050919050565b600082825260208201905092915050565b60005b838110156125035780820151818401526020810190506124e8565b83811115612512576000848401525b50505050565b6000601f19601f8301169050919050565b6000612534826124c9565b61253e81856124d4565b935061254e8185602086016124e5565b61255781612518565b840191505092915050565b60008115159050919050565b61257781612562565b82525050565b600061010082019050612593600083018b6124ab565b6125a0602083018a6124ba565b81810360408301526125b28189612529565b905081810360608301526125c68188612529565b90506125d560808301876124ab565b6125e260a08301866124ab565b6125ef60c083018561256e565b6125fc60e083018461256e565b9998505050505050505050565b600081519050919050565b600082825260208201905092915050565b6000819050602082019050919050565b600082825260208201905092915050565b6000612651826124c9565b61265b8185612635565b935061266b8185602086016124e5565b61267481612518565b840191505092915050565b600061268b8383612646565b905092915050565b6000602082019050919050565b60006126ab82612609565b6126b58185612614565b9350836020820285016126c785612625565b8060005b8581101561270357848403895281516126e4858261267f565b94506126ef83612693565b925060208a019950506001810190506126cb565b50829750879550505050505092915050565b6000602082019050818103600083015261272f81846126a0565b905092915050565b600060208201905061274c60008301846124ab565b92915050565b6000602082019050818103600083015261276c8184612529565b905092915050565b61277d816124a1565b811461278857600080fd5b50565b60008135905061279a81612774565b92915050565b6000602082840312156127b6576127b561240c565b5b60006127c48482850161278b565b91505092915050565b600081519050919050565b600082825260208201905092915050565b6000819050602082019050919050565b612802816124a1565b82525050565b61281181612436565b82525050565b61282081612562565b82525050565b60006101008301600083015161283f60008601826127f9565b5060208301516128526020860182612808565b506040830151848203604086015261286a8282612646565b915050606083015184820360608601526128848282612646565b915050608083015161289960808601826127f9565b5060a08301516128ac60a08601826127f9565b5060c08301516128bf60c0860182612817565b5060e08301516128d260e0860182612817565b508091505092915050565b60006128e98383612826565b905092915050565b6000602082019050919050565b6000612909826127cd565b61291381856127d8565b935083602082028501612925856127e9565b8060005b85811015612961578484038952815161294285826128dd565b945061294d836128f1565b925060208a01995050600181019050612929565b50829750879550505050505092915050565b6000602082019050818103600083015261298d81846128fe565b905092915050565b60006020820190506129aa600083018461256e565b92915050565b60006020820190506129c560008301846124ba565b92915050565b600080fd5b600080fd5b7f4e487b7100000000000000000000000000000000000000000000000000000000600052604160045260246000fd5b612a0d82612518565b810181811067ffffffffffffffff82111715612a2c57612a2b6129d5565b5b80604052505050565b6000612a3f612402565b9050612a4b8282612a04565b919050565b600067ffffffffffffffff821115612a6b57612a6a6129d5565b5b612a7482612518565b9050602081019050919050565b82818337600083830152505050565b6000612aa3612a9e84612a50565b612a35565b905082815260208101848484011115612abf57612abe6129d0565b5b612aca848285612a81565b509392505050565b600082601f830112612ae757612ae66129cb565b5b8135612af7848260208601612a90565b91505092915050565b600080600060608486031215612b1957612b1861240c565b5b600084013567ffffffffffffffff811115612b3757612b36612411565b5b612b4386828701612ad2565b935050602084013567ffffffffffffffff811115612b6457612b63612411565b5b612b7086828701612ad2565b9250506040612b818682870161278b565b9150509250925092565b612b9481612562565b8114612b9f57600080fd5b50565b600081359050612bb181612b8b565b92915050565b60008060408385031215612bce57612bcd61240c565b5b6000612bdc85828601612ba2565b9250506020612bed8582860161245f565b9150509250929050565b600060c082019050612c0c60008301896124ba565b8181036020830152612c1e8188612529565b90508181036040830152612c328187612529565b9050612c41606083018661256e565b612c4e608083018561256e565b612c5b60a083018461256e565b979650505050505050565b600067ffffffffffffffff821115612c8157612c806129d5565b5b602082029050602081019050919050565b600080fd5b6000612caa612ca584612c66565b612a35565b90508083825260208201905060208402830185811115612ccd57612ccc612c92565b5b835b81811015612d1457803567ffffffffffffffff811115612cf257612cf16129cb565b5b808601612cff8982612ad2565b85526020850194505050602081019050612ccf565b5050509392505050565b600082601f830112612d3357612d326129cb565b5b8135612d43848260208601612c97565b91505092915050565b60008060008060008060008060006101208a8c031215612d6f57612d6e61240c565b5b60008a013567ffffffffffffffff811115612d8d57612d8c612411565b5b612d998c828d01612ad2565b99505060208a013567ffffffffffffffff811115612dba57612db9612411565b5b612dc68c828d01612ad2565b98505060408a013567ffffffffffffffff811115612de757612de6612411565b5b612df38c828d01612ad2565b97505060608a013567ffffffffffffffff811115612e1457612e13612411565b5b612e208c828d01612ad2565b9650506080612e318c828d0161278b565b95505060a0612e428c828d0161278b565b94505060c0612e538c828d0161278b565b93505060e0612e648c828d0161278b565b9250506101008a013567ffffffffffffffff811115612e8657612e85612411565b5b612e928c828d01612d1e565b9150509295985092959850929598565b60008060408385031215612eb957612eb861240c565b5b600083013567ffffffffffffffff811115612ed757612ed6612411565b5b612ee385828601612ad2565b925050602083013567ffffffffffffffff811115612f0457612f03612411565b5b612f1085828601612ad2565b9150509250929050565b7f4e487b7100000000000000000000000000000000000000000000000000000000600052602260045260246000fd5b60006002820490506001821680612f6157607f821691505b60208210811415612f7557612f74612f1a565b5b50919050565b7f4e487b7100000000000000000000000000000000000000000000000000000000600052603260045260246000fd5b7f4e487b7100000000000000000000000000000000000000000000000000000000600052601160045260246000fd5b6000612fe4826124a1565b91507fffffffffffffffffffffffffffffffffffffffffffffffffffffffffffffffff82141561301757613016612faa565b5b600182019050919050565b7f526567697374726174696f6e206973206e6f7420737461727465642079657400600082015250565b6000613058601f836124d4565b915061306382613022565b602082019050919050565b600060208201905081810360008301526130878161304b565b9050919050565b7f526567697374726174696f6e20697320616c726561647920656e6465642e0000600082015250565b60006130c4601e836124d4565b91506130cf8261308e565b602082019050919050565b600060208201905081810360008301526130f3816130b7565b9050919050565b6000613105826124a1565b9150613110836124a1565b9250827fffffffffffffffffffffffffffffffffffffffffffffffffffffffffffffffff0382111561314557613144612faa565b5b828201905092915050565b7f566f74696e67206973206e6f7420737461727465642079657400000000000000600082015250565b60006131866019836124d4565b915061319182613150565b602082019050919050565b600060208201905081810360008301526131b581613179565b9050919050565b7f566f74696e6720697320616c726561647920656e646564000000000000000000600082015250565b60006131f26017836124d4565b91506131fd826131bc565b602082019050919050565b60006020820190508181036000830152613221816131e5565b905091905056fea26469706673582212204b98d0a9777acc04355a5d3ac7b0740065510b5cda6a5e778b54c3bc522d470164736f6c634300080b0033",
  "linkReferences": {},
  "deployedLinkReferences": {}
}