{
  "_format": "hh-sol-artifact-1",
  "contractName": "Election",
  "sourceName": "contracts/Election.sol",
  "abi": [
    {
      "inputs": [],
      "stateMutability": "nonpayable",
      "type": "constructor"
    },
    {
      "inputs": [],
      "name": "admin",
      "outputs": [
        {
          "internalType": "address",
          "name": "",
          "type": "address"
        }
      ],
      "stateMutability": "view",
      "type": "function"
    },
    {
      "inputs": [
        {
          "internalType": "uint256",
          "name": "",
          "type": "uint256"
        }
      ],
      "name": "approvedCandidates",
      "outputs": [
        {
          "internalType": "address",
          "name": "",
          "type": "address"
        }
      ],
      "stateMutability": "view",
      "type": "function"
    },
    {
      "inputs": [
        {
          "internalType": "uint256",
          "name": "",
          "type": "uint256"
        }
      ],
      "name": "approvedVoters",
      "outputs": [
        {
          "internalType": "address",
          "name": "",
          "type": "address"
        }
      ],
      "stateMutability": "view",
      "type": "function"
    },
    {
      "inputs": [
        {
          "internalType": "address",
          "name": "",
          "type": "address"
        }
      ],
      "name": "candidateDetails",
      "outputs": [
        {
          "internalType": "uint256",
          "name": "candidateId",
          "type": "uint256"
        },
        {
          "internalType": "address",
          "name": "candidateAddress",
          "type": "address"
        },
        {
          "internalType": "string",
          "name": "header",
          "type": "string"
        },
        {
          "internalType": "string",
          "name": "slogan",
          "type": "string"
        },
        {
          "internalType": "uint256",
          "name": "electionTitleIndex",
          "type": "uint256"
        },
        {
          "internalType": "uint256",
          "name": "voteCount",
          "type": "uint256"
        },
        {
          "internalType": "bool",
          "name": "isVerified",
          "type": "bool"
        },
        {
          "internalType": "bool",
          "name": "isRegistered",
          "type": "bool"
        }
      ],
      "stateMutability": "view",
      "type": "function"
    },
    {
      "inputs": [
        {
          "internalType": "uint256",
          "name": "",
          "type": "uint256"
        }
      ],
      "name": "candidates",
      "outputs": [
        {
          "internalType": "address",
          "name": "",
          "type": "address"
        }
      ],
      "stateMutability": "view",
      "type": "function"
    },
    {
      "inputs": [],
      "name": "getAdmin",
      "outputs": [
        {
          "internalType": "address",
          "name": "",
          "type": "address"
        }
      ],
      "stateMutability": "view",
      "type": "function"
    },
    {
      "inputs": [],
      "name": "getAdminEmail",
      "outputs": [
        {
          "internalType": "string",
          "name": "",
          "type": "string"
        }
      ],
      "stateMutability": "view",
      "type": "function"
    },
    {
      "inputs": [],
      "name": "getAdminName",
      "outputs": [
        {
          "internalType": "string",
          "name": "",
          "type": "string"
        }
      ],
      "stateMutability": "view",
      "type": "function"
    },
    {
      "inputs": [],
      "name": "getAdminTitle",
      "outputs": [
        {
          "internalType": "string",
          "name": "",
          "type": "string"
        }
      ],
      "stateMutability": "view",
      "type": "function"
    },
    {
      "inputs": [
        {
          "internalType": "address",
          "name": "_currentAddress",
          "type": "address"
        }
      ],
      "name": "getAlreadyRegisteredCandidateStatus",
      "outputs": [
        {
          "internalType": "bool",
          "name": "",
          "type": "bool"
        }
      ],
      "stateMutability": "view",
      "type": "function"
    },
    {
      "inputs": [
        {
          "internalType": "uint256",
          "name": "_electionTitleIndex",
          "type": "uint256"
        }
      ],
      "name": "getCandidateCountForAsscociatedElection",
      "outputs": [
        {
          "internalType": "uint256",
          "name": "",
          "type": "uint256"
        }
      ],
      "stateMutability": "view",
      "type": "function"
    },
    {
      "inputs": [
        {
          "internalType": "uint256",
          "name": "_electionTitleIndex",
          "type": "uint256"
        }
      ],
      "name": "getCandidatesForAssociatedElections",
      "outputs": [
        {
          "components": [
            {
              "internalType": "uint256",
              "name": "candidateId",
              "type": "uint256"
            },
            {
              "internalType": "address",
              "name": "candidateAddress",
              "type": "address"
            },
            {
              "internalType": "string",
              "name": "header",
              "type": "string"
            },
            {
              "internalType": "string",
              "name": "slogan",
              "type": "string"
            },
            {
              "internalType": "uint256",
              "name": "electionTitleIndex",
              "type": "uint256"
            },
            {
              "internalType": "uint256",
              "name": "voteCount",
              "type": "uint256"
            },
            {
              "internalType": "bool",
              "name": "isVerified",
              "type": "bool"
            },
            {
              "internalType": "bool",
              "name": "isRegistered",
              "type": "bool"
            }
          ],
          "internalType": "struct Election.Candidate[]",
          "name": "",
          "type": "tuple[]"
        }
      ],
      "stateMutability": "view",
      "type": "function"
    },
    {
      "inputs": [],
      "name": "getElectionEndedStatus",
      "outputs": [
        {
          "internalType": "bool",
          "name": "",
          "type": "bool"
        }
      ],
      "stateMutability": "view",
      "type": "function"
    },
    {
      "inputs": [],
      "name": "getElectionInitStatus",
      "outputs": [
        {
          "internalType": "bool",
          "name": "",
          "type": "bool"
        }
      ],
      "stateMutability": "view",
      "type": "function"
    },
    {
      "inputs": [
        {
          "internalType": "uint256",
          "name": "_timeStamp",
          "type": "uint256"
        }
      ],
      "name": "getElectionStatus",
      "outputs": [
        {
          "internalType": "bool",
          "name": "",
          "type": "bool"
        }
      ],
      "stateMutability": "view",
      "type": "function"
    },
    {
      "inputs": [],
      "name": "getElectionTitles",
      "outputs": [
        {
          "internalType": "string[]",
          "name": "",
          "type": "string[]"
        }
      ],
      "stateMutability": "view",
      "type": "function"
    },
    {
      "inputs": [],
      "name": "getOrganizationTitle",
      "outputs": [
        {
          "internalType": "string",
          "name": "",
          "type": "string"
        }
      ],
      "stateMutability": "view",
      "type": "function"
    },
    {
      "inputs": [],
      "name": "getRegistrationEndTime",
      "outputs": [
        {
          "internalType": "uint256",
          "name": "",
          "type": "uint256"
        }
      ],
      "stateMutability": "view",
      "type": "function"
    },
    {
      "inputs": [],
      "name": "getRegistrationStartTime",
      "outputs": [
        {
          "internalType": "uint256",
          "name": "",
          "type": "uint256"
        }
      ],
      "stateMutability": "view",
      "type": "function"
    },
    {
      "inputs": [
        {
          "internalType": "uint256",
          "name": "_timeStamp",
          "type": "uint256"
        }
      ],
      "name": "getRegistrationStatus",
      "outputs": [
        {
          "internalType": "bool",
          "name": "",
          "type": "bool"
        }
      ],
      "stateMutability": "view",
      "type": "function"
    },
    {
      "inputs": [],
      "name": "getTotalCandidate",
      "outputs": [
        {
          "internalType": "uint256",
          "name": "",
          "type": "uint256"
        }
      ],
      "stateMutability": "view",
      "type": "function"
    },
    {
      "inputs": [],
      "name": "getTotalVoter",
      "outputs": [
        {
          "internalType": "uint256",
          "name": "",
          "type": "uint256"
        }
      ],
      "stateMutability": "view",
      "type": "function"
    },
    {
      "inputs": [
        {
          "internalType": "address",
          "name": "_currentAddress",
          "type": "address"
        }
      ],
      "name": "getVoterStatusForCandidate",
      "outputs": [
        {
          "internalType": "bool",
          "name": "",
          "type": "bool"
        }
      ],
      "stateMutability": "view",
      "type": "function"
    },
    {
      "inputs": [],
      "name": "getVotingEndTime",
      "outputs": [
        {
          "internalType": "uint256",
          "name": "",
          "type": "uint256"
        }
      ],
      "stateMutability": "view",
      "type": "function"
    },
    {
      "inputs": [],
      "name": "getVotingStartTime",
      "outputs": [
        {
          "internalType": "uint256",
          "name": "",
          "type": "uint256"
        }
      ],
      "stateMutability": "view",
      "type": "function"
    },
    {
      "inputs": [],
      "name": "getWinner",
      "outputs": [
        {
          "internalType": "address",
          "name": "",
          "type": "address"
        }
      ],
      "stateMutability": "view",
      "type": "function"
    },
    {
      "inputs": [
        {
          "internalType": "string",
          "name": "_header",
          "type": "string"
        },
        {
          "internalType": "string",
          "name": "_slogan",
          "type": "string"
        },
        {
          "internalType": "uint256",
          "name": "_electionTitleIndex",
          "type": "uint256"
        }
      ],
      "name": "registerAsCandidate",
      "outputs": [],
      "stateMutability": "nonpayable",
      "type": "function"
    },
    {
      "inputs": [
        {
          "internalType": "string",
          "name": "_name",
          "type": "string"
        },
        {
          "internalType": "string",
          "name": "_phone",
          "type": "string"
        }
      ],
      "name": "registerAsVoter",
      "outputs": [],
      "stateMutability": "nonpayable",
      "type": "function"
    },
    {
      "inputs": [
        {
          "internalType": "string",
          "name": "_adminName",
          "type": "string"
        },
        {
          "internalType": "string",
          "name": "_adminEmail",
          "type": "string"
        },
        {
          "internalType": "string",
          "name": "_adminTitle",
          "type": "string"
        },
        {
          "internalType": "string",
          "name": "_organizationTitle",
          "type": "string"
        },
        {
          "internalType": "uint256",
          "name": "_votingStartTime",
          "type": "uint256"
        },
        {
          "internalType": "uint256",
          "name": "_votingEndTime",
          "type": "uint256"
        },
        {
          "internalType": "uint256",
          "name": "_registrationStartTime",
          "type": "uint256"
        },
        {
          "internalType": "uint256",
          "name": "_registrationEndTime",
          "type": "uint256"
        },
        {
          "internalType": "string[]",
          "name": "_elections",
          "type": "string[]"
        }
      ],
      "name": "setElectionDetails",
      "outputs": [],
      "stateMutability": "nonpayable",
      "type": "function"
    },
    {
      "inputs": [
        {
          "internalType": "bool",
          "name": "_verifedStatus",
          "type": "bool"
        },
        {
          "internalType": "address",
          "name": "candidateAddress",
          "type": "address"
        }
      ],
      "name": "verifyCandidate",
      "outputs": [],
      "stateMutability": "nonpayable",
      "type": "function"
    },
    {
      "inputs": [
        {
          "internalType": "bool",
          "name": "_verifedStatus",
          "type": "bool"
        },
        {
          "internalType": "address",
          "name": "voterAddress",
          "type": "address"
        }
      ],
      "name": "verifyVoter",
      "outputs": [],
      "stateMutability": "nonpayable",
      "type": "function"
    },
    {
      "inputs": [
        {
          "internalType": "address",
          "name": "_candidateAddress",
          "type": "address"
        }
      ],
      "name": "vote",
      "outputs": [],
      "stateMutability": "nonpayable",
      "type": "function"
    },
    {
      "inputs": [
        {
          "internalType": "address",
          "name": "",
          "type": "address"
        }
      ],
      "name": "voterDetails",
      "outputs": [
        {
          "internalType": "address",
          "name": "voterAddress",
          "type": "address"
        },
        {
          "internalType": "string",
          "name": "name",
          "type": "string"
        },
        {
          "internalType": "string",
          "name": "phone",
          "type": "string"
        },
        {
          "internalType": "bool",
          "name": "isVerified",
          "type": "bool"
        },
        {
          "internalType": "bool",
          "name": "hasVoted",
          "type": "bool"
        },
        {
          "internalType": "bool",
          "name": "isRegistered",
          "type": "bool"
        }
      ],
      "stateMutability": "view",
      "type": "function"
    },
    {
      "inputs": [
        {
          "internalType": "uint256",
          "name": "",
          "type": "uint256"
        }
      ],
      "name": "voters",
      "outputs": [
        {
          "internalType": "address",
          "name": "",
          "type": "address"
        }
      ],
      "stateMutability": "view",
      "type": "function"
    }
  ],
  "bytecode": "0x608060405234801561001057600080fd5b5033600360006101000a81548173ffffffffffffffffffffffffffffffffffffffff021916908373ffffffffffffffffffffffffffffffffffffffff1602179055506000600281905550600060018190555060008060006101000a81548160ff0219169083151502179055506000600a819055506000600b819055506000600c819055506000600d81905550613236806100ab6000396000f3fe608060405234801561001057600080fd5b50600436106102065760003560e01c80636dd7d8ea1161011a578063c3a171a2116100ad578063dd698f901161007c578063dd698f901461064b578063df6d278414610669578063f851a44014610687578063fea44d08146106a5578063fee0d19a146106c357610206565b8063c3a171a2146105c5578063c784d213146105e1578063cad43b48146105ff578063da58c7d91461061b57610206565b80638e7ea5b2116100e95780638e7ea5b21461053b578063aed9301014610559578063b1bf87b014610589578063be081b6f146105a757610206565b80636dd7d8ea146104b35780636e9960c3146104cf5780637d660535146104ed578063831318f11461051d57610206565b80633f66f48b1161019d578063506b8e0a1161016c578063506b8e0a146103f65780635938750d146104125780635fcdd8a11461044757806364d198a1146104775780636a82ee511461049557610206565b80633f66f48b1461035c57806341217ed51461038c57806348343175146103bc5780634c652fc6146103da57610206565b806315811029116101d9578063158110291461029c57806319c5c507146102cc57806324785b9e146102fc5780633477ee2e1461032c57610206565b806305e73ced1461020b5780630712aa05146102425780630b93400e146102605780630e2354cf1461027e575b600080fd5b6102256004803603810190610220919061244c565b6106df565b604051610239989796959493929190612555565b60405180910390f35b61024a610871565b60405161025791906126ed565b60405180910390f35b6102686109c3565b604051610275919061270f565b60405180910390f35b6102866109cd565b604051610293919061272a565b60405180910390f35b6102b660048036038101906102b19190612778565b610a62565b6040516102c3919061294b565b60405180910390f35b6102e660048036038101906102e19190612778565b610ead565b6040516102f3919061296d565b60405180910390f35b61031660048036038101906103119190612778565b610ee0565b604051610323919061296d565b60405180910390f35b61034660048036038101906103419190612778565b610f13565b6040516103539190612988565b60405180910390f35b61037660048036038101906103719190612778565b610f52565b6040516103839190612988565b60405180910390f35b6103a660048036038101906103a19190612778565b610f91565b6040516103b3919061270f565b60405180910390f35b6103c461105c565b6040516103d1919061272a565b60405180910390f35b6103f460048036038101906103ef9190612ad8565b6110f1565b005b610410600480360381019061040b9190612b8f565b61137d565b005b61042c6004803603810190610427919061244c565b611498565b60405161043e96959493929190612bcf565b60405180910390f35b610461600480360381019061045c919061244c565b61162b565b60405161046e919061296d565b60405180910390f35b61047f6116da565b60405161048c919061270f565b60405180910390f35b61049d6116e4565b6040516104aa919061270f565b60405180910390f35b6104cd60048036038101906104c8919061244c565b6116ee565b005b6104d76118f0565b6040516104e49190612988565b60405180910390f35b6105076004803603810190610502919061244c565b61191a565b604051610514919061296d565b60405180910390f35b6105256119c9565b604051610532919061272a565b60405180910390f35b610543611a5e565b6040516105509190612988565b60405180910390f35b610573600480360381019061056e9190612778565b611b2e565b6040516105809190612988565b60405180910390f35b610591611b6d565b60405161059e919061270f565b60405180910390f35b6105af611b77565b6040516105bc919061272a565b60405180910390f35b6105df60048036038101906105da9190612d24565b611c0c565b005b6105e9611e59565b6040516105f6919061270f565b60405180910390f35b61061960048036038101906106149190612b8f565b611e63565b005b61063560048036038101906106309190612778565b611f7e565b6040516106429190612988565b60405180910390f35b610653611fbd565b604051610660919061296d565b60405180910390f35b610671611fd3565b60405161067e919061270f565b60405180910390f35b61068f611fdd565b60405161069c9190612988565b60405180910390f35b6106ad612003565b6040516106ba919061296d565b60405180910390f35b6106dd60048036038101906106d89190612e7a565b61201f565b005b60096020528060005260406000206000915090508060000154908060010160009054906101000a900473ffffffffffffffffffffffffffffffffffffffff169080600201805461072e90612f21565b80601f016020809104026020016040519081016040528092919081815260200182805461075a90612f21565b80156107a75780601f1061077c576101008083540402835291602001916107a7565b820191906000526020600020905b81548152906001019060200180831161078a57829003601f168201915b5050505050908060030180546107bc90612f21565b80601f01602080910402602001604051908101604052809291908181526020018280546107e890612f21565b80156108355780601f1061080a57610100808354040283529160200191610835565b820191906000526020600020905b81548152906001019060200180831161081857829003601f168201915b5050505050908060040154908060050154908060060160009054906101000a900460ff16908060060160019054906101000a900460ff16905088565b60606000600e6008018054905067ffffffffffffffff811115610897576108966129ad565b5b6040519080825280602002602001820160405280156108ca57816020015b60608152602001906001900390816108b55790505b50905060005b600e600801805490508110156109bb57600e60080181815481106108f7576108f6612f53565b5b90600052602060002001805461090c90612f21565b80601f016020809104026020016040519081016040528092919081815260200182805461093890612f21565b80156109855780601f1061095a57610100808354040283529160200191610985565b820191906000526020600020905b81548152906001019060200180831161096857829003601f168201915b505050505082828151811061099d5761099c612f53565b5b602002602001018190525080806109b390612fb1565b9150506108d0565b508091505090565b6000600154905090565b6060600e60000180546109df90612f21565b80601f0160208091040260200160405190810160405280929190818152602001828054610a0b90612f21565b8015610a585780601f10610a2d57610100808354040283529160200191610a58565b820191906000526020600020905b815481529060010190602001808311610a3b57829003601f168201915b5050505050905090565b6060600060078054905067ffffffffffffffff811115610a8557610a846129ad565b5b604051908082528060200260200182016040528015610abe57816020015b610aab612214565b815260200190600190039081610aa35790505b5090506000805b600780549050811015610df157846009600060078481548110610aeb57610aea612f53565b5b9060005260206000200160009054906101000a900473ffffffffffffffffffffffffffffffffffffffff1673ffffffffffffffffffffffffffffffffffffffff1673ffffffffffffffffffffffffffffffffffffffff168152602001908152602001600020600401541415610dde576009600060078381548110610b7257610b71612f53565b5b9060005260206000200160009054906101000a900473ffffffffffffffffffffffffffffffffffffffff1673ffffffffffffffffffffffffffffffffffffffff1673ffffffffffffffffffffffffffffffffffffffff16815260200190815260200160002060405180610100016040529081600082015481526020016001820160009054906101000a900473ffffffffffffffffffffffffffffffffffffffff1673ffffffffffffffffffffffffffffffffffffffff1673ffffffffffffffffffffffffffffffffffffffff168152602001600282018054610c5390612f21565b80601f0160208091040260200160405190810160405280929190818152602001828054610c7f90612f21565b8015610ccc5780601f10610ca157610100808354040283529160200191610ccc565b820191906000526020600020905b815481529060010190602001808311610caf57829003601f168201915b50505050508152602001600382018054610ce590612f21565b80601f0160208091040260200160405190810160405280929190818152602001828054610d1190612f21565b8015610d5e5780601f10610d3357610100808354040283529160200191610d5e565b820191906000526020600020905b815481529060010190602001808311610d4157829003601f168201915b5050505050815260200160048201548152602001600582015481526020016006820160009054906101000a900460ff161515151581526020016006820160019054906101000a900460ff161515151581525050838381518110610dc457610dc3612f53565b5b60200260200101819052508180610dda90612fb1565b9250505b8080610de990612fb1565b915050610ac5565b5060008167ffffffffffffffff811115610e0e57610e0d6129ad565b5b604051908082528060200260200182016040528015610e4757816020015b610e34612214565b815260200190600190039081610e2c5790505b50905060005b82811015610ea157838181518110610e6857610e67612f53565b5b6020026020010151828281518110610e8357610e82612f53565b5b60200260200101819052508080610e9990612fb1565b915050610e4d565b50809350505050919050565b600080600a548310158015610ec45750600b548311155b15610ed25760019050610ed7565b600090505b80915050919050565b600080600c548310158015610ef75750600d548311155b15610f055760019050610f0a565b600090505b80915050919050565b60058181548110610f2357600080fd5b906000526020600020016000915054906101000a900473ffffffffffffffffffffffffffffffffffffffff1681565b60078181548110610f6257600080fd5b906000526020600020016000915054906101000a900473ffffffffffffffffffffffffffffffffffffffff1681565b6000806000905060005b60078054905081101561105257836009600060078481548110610fc157610fc0612f53565b5b9060005260206000200160009054906101000a900473ffffffffffffffffffffffffffffffffffffffff1673ffffffffffffffffffffffffffffffffffffffff1673ffffffffffffffffffffffffffffffffffffffff16815260200190815260200160002060040154141561103f57818061103b90612fb1565b9250505b808061104a90612fb1565b915050610f9b565b5080915050919050565b6060600e600301805461106e90612f21565b80601f016020809104026020016040519081016040528092919081815260200182805461109a90612f21565b80156110e75780601f106110bc576101008083540402835291602001916110e7565b820191906000526020600020905b8154815290600101906020018083116110ca57829003601f168201915b5050505050905090565b600a54421015611136576040517f08c379a000000000000000000000000000000000000000000000000000000000815260040161112d90613046565b60405180910390fd5b600b5442111561117b576040517f08c379a0000000000000000000000000000000000000000000000000000000008152600401611172906130b2565b60405180910390fd5b600060405180610100016040528060025481526020013373ffffffffffffffffffffffffffffffffffffffff1681526020018581526020018481526020018381526020016000815260200160001515815260200160011515815250905080600960003373ffffffffffffffffffffffffffffffffffffffff1673ffffffffffffffffffffffffffffffffffffffff1681526020019081526020016000206000820151816000015560208201518160010160006101000a81548173ffffffffffffffffffffffffffffffffffffffff021916908373ffffffffffffffffffffffffffffffffffffffff1602179055506040820151816002019080519060200190611285929190612273565b5060608201518160030190805190602001906112a2929190612273565b506080820151816004015560a0820151816005015560c08201518160060160006101000a81548160ff02191690831515021790555060e08201518160060160016101000a81548160ff0219169083151502179055509050506005339080600181540180825580915050600190039060005260206000200160009091909190916101000a81548173ffffffffffffffffffffffffffffffffffffffff021916908373ffffffffffffffffffffffffffffffffffffffff16021790555060016002600082825461137091906130d2565b9250508190555050505050565b600360009054906101000a900473ffffffffffffffffffffffffffffffffffffffff1673ffffffffffffffffffffffffffffffffffffffff163373ffffffffffffffffffffffffffffffffffffffff16146113d757600080fd5b81600860008373ffffffffffffffffffffffffffffffffffffffff1673ffffffffffffffffffffffffffffffffffffffff16815260200190815260200160002060030160006101000a81548160ff0219169083151502179055506006819080600181540180825580915050600190039060005260206000200160009091909190916101000a81548173ffffffffffffffffffffffffffffffffffffffff021916908373ffffffffffffffffffffffffffffffffffffffff1602179055505050565b60086020528060005260406000206000915090508060000160009054906101000a900473ffffffffffffffffffffffffffffffffffffffff16908060010180546114e190612f21565b80601f016020809104026020016040519081016040528092919081815260200182805461150d90612f21565b801561155a5780601f1061152f5761010080835404028352916020019161155a565b820191906000526020600020905b81548152906001019060200180831161153d57829003601f168201915b50505050509080600201805461156f90612f21565b80601f016020809104026020016040519081016040528092919081815260200182805461159b90612f21565b80156115e85780601f106115bd576101008083540402835291602001916115e8565b820191906000526020600020905b8154815290600101906020018083116115cb57829003601f168201915b5050505050908060030160009054906101000a900460ff16908060030160019054906101000a900460ff16908060030160029054906101000a900460ff16905086565b6000806000905060005b6006805490508110156116d0576006818154811061165657611655612f53565b5b9060005260206000200160009054906101000a900473ffffffffffffffffffffffffffffffffffffffff1673ffffffffffffffffffffffffffffffffffffffff168473ffffffffffffffffffffffffffffffffffffffff1614156116bd57600191506116d0565b80806116c890612fb1565b915050611635565b5080915050919050565b6000600254905090565b6000600c54905090565b600c54421015611733576040517f08c379a000000000000000000000000000000000000000000000000000000000815260040161172a90613174565b60405180910390fd5b600d54421115611778576040517f08c379a000000000000000000000000000000000000000000000000000000000815260040161176f906131e0565b60405180910390fd5b60001515600860003373ffffffffffffffffffffffffffffffffffffffff1673ffffffffffffffffffffffffffffffffffffffff16815260200190815260200160002060030160019054906101000a900460ff161515146117d857600080fd5b60011515600860003373ffffffffffffffffffffffffffffffffffffffff1673ffffffffffffffffffffffffffffffffffffffff16815260200190815260200160002060030160009054906101000a900460ff1615151461183857600080fd5b6001600960008373ffffffffffffffffffffffffffffffffffffffff1673ffffffffffffffffffffffffffffffffffffffff168152602001908152602001600020600501600082825461188b91906130d2565b925050819055506001600860003373ffffffffffffffffffffffffffffffffffffffff1673ffffffffffffffffffffffffffffffffffffffff16815260200190815260200160002060030160016101000a81548160ff02191690831515021790555050565b6000600360009054906101000a900473ffffffffffffffffffffffffffffffffffffffff16905090565b6000806000905060005b6007805490508110156119bf576007818154811061194557611944612f53565b5b9060005260206000200160009054906101000a900473ffffffffffffffffffffffffffffffffffffffff1673ffffffffffffffffffffffffffffffffffffffff168473ffffffffffffffffffffffffffffffffffffffff1614156119ac57600191506119bf565b80806119b790612fb1565b915050611924565b5080915050919050565b6060600e60010180546119db90612f21565b80601f0160208091040260200160405190810160405280929190818152602001828054611a0790612f21565b8015611a545780601f10611a2957610100808354040283529160200191611a54565b820191906000526020600020905b815481529060010190602001808311611a3757829003601f168201915b5050505050905090565b60008060009050600080600090505b600254811015611b2557600060058281548110611a8d57611a8c612f53565b5b9060005260206000200160009054906101000a900473ffffffffffffffffffffffffffffffffffffffff1690506000600960008373ffffffffffffffffffffffffffffffffffffffff1673ffffffffffffffffffffffffffffffffffffffff16815260200190815260200160002060050154905084811115611b10578094508193505b50508080611b1d90612fb1565b915050611a6d565b50809250505090565b60068181548110611b3e57600080fd5b906000526020600020016000915054906101000a900473ffffffffffffffffffffffffffffffffffffffff1681565b6000600d54905090565b6060600e6002018054611b8990612f21565b80601f0160208091040260200160405190810160405280929190818152602001828054611bb590612f21565b8015611c025780601f10611bd757610100808354040283529160200191611c02565b820191906000526020600020905b815481529060010190602001808311611be557829003601f168201915b5050505050905090565b600360009054906101000a900473ffffffffffffffffffffffffffffffffffffffff1673ffffffffffffffffffffffffffffffffffffffff163373ffffffffffffffffffffffffffffffffffffffff1614611c6657600080fd5b6000815167ffffffffffffffff811115611c8357611c826129ad565b5b604051908082528060200260200182016040528015611cb657816020015b6060815260200190600190039081611ca15790505b50905060005b8251811015611d1157828181518110611cd857611cd7612f53565b5b6020026020010151828281518110611cf357611cf2612f53565b5b60200260200101819052508080611d0990612fb1565b915050611cbc565b5060006040518061012001604052808c81526020018b81526020018a815260200189815260200188815260200187815260200186815260200185815260200183815250905080600e6000820151816000019080519060200190611d75929190612273565b506020820151816001019080519060200190611d92929190612273565b506040820151816002019080519060200190611daf929190612273565b506060820151816003019080519060200190611dcc929190612273565b506080820151816004015560a0820151816005015560c0820151816006015560e08201518160070155610100820151816008019080519060200190611e129291906122f9565b5090505060016000806101000a81548160ff02191690831515021790555084600a8190555083600b8190555086600c8190555085600d819055505050505050505050505050565b6000600b54905090565b600360009054906101000a900473ffffffffffffffffffffffffffffffffffffffff1673ffffffffffffffffffffffffffffffffffffffff163373ffffffffffffffffffffffffffffffffffffffff1614611ebd57600080fd5b81600960008373ffffffffffffffffffffffffffffffffffffffff1673ffffffffffffffffffffffffffffffffffffffff16815260200190815260200160002060060160006101000a81548160ff0219169083151502179055506007819080600181540180825580915050600190039060005260206000200160009091909190916101000a81548173ffffffffffffffffffffffffffffffffffffffff021916908373ffffffffffffffffffffffffffffffffffffffff1602179055505050565b60048181548110611f8e57600080fd5b906000526020600020016000915054906101000a900473ffffffffffffffffffffffffffffffffffffffff1681565b60008060009054906101000a900460ff16905090565b6000600a54905090565b600360009054906101000a900473ffffffffffffffffffffffffffffffffffffffff1681565b60008060009050600d54421061201857600190505b8091505090565b60006040518060c001604052803373ffffffffffffffffffffffffffffffffffffffff16815260200184815260200183815260200160001515815260200160001515815260200160011515815250905080600860003373ffffffffffffffffffffffffffffffffffffffff1673ffffffffffffffffffffffffffffffffffffffff16815260200190815260200160002060008201518160000160006101000a81548173ffffffffffffffffffffffffffffffffffffffff021916908373ffffffffffffffffffffffffffffffffffffffff1602179055506020820151816001019080519060200190612112929190612273565b50604082015181600201908051906020019061212f929190612273565b5060608201518160030160006101000a81548160ff02191690831515021790555060808201518160030160016101000a81548160ff02191690831515021790555060a08201518160030160026101000a81548160ff0219169083151502179055509050506004339080600181540180825580915050600190039060005260206000200160009091909190916101000a81548173ffffffffffffffffffffffffffffffffffffffff021916908373ffffffffffffffffffffffffffffffffffffffff160217905550600180600082825461220891906130d2565b92505081905550505050565b60405180610100016040528060008152602001600073ffffffffffffffffffffffffffffffffffffffff168152602001606081526020016060815260200160008152602001600081526020016000151581526020016000151581525090565b82805461227f90612f21565b90600052602060002090601f0160209004810192826122a157600085556122e8565b82601f106122ba57805160ff19168380011785556122e8565b828001600101855582156122e8579182015b828111156122e75782518255916020019190600101906122cc565b5b5090506122f59190612359565b5090565b828054828255906000526020600020908101928215612348579160200282015b82811115612347578251829080519060200190612337929190612273565b5091602001919060010190612319565b5b5090506123559190612376565b5090565b5b8082111561237257600081600090555060010161235a565b5090565b5b80821115612396576000818161238d919061239a565b50600101612377565b5090565b5080546123a690612f21565b6000825580601f106123b857506123d7565b601f0160209004906000526020600020908101906123d69190612359565b5b50565b6000604051905090565b600080fd5b600080fd5b600073ffffffffffffffffffffffffffffffffffffffff82169050919050565b6000612419826123ee565b9050919050565b6124298161240e565b811461243457600080fd5b50565b60008135905061244681612420565b92915050565b600060208284031215612462576124616123e4565b5b600061247084828501612437565b91505092915050565b6000819050919050565b61248c81612479565b82525050565b61249b8161240e565b82525050565b600081519050919050565b600082825260208201905092915050565b60005b838110156124db5780820151818401526020810190506124c0565b838111156124ea576000848401525b50505050565b6000601f19601f8301169050919050565b600061250c826124a1565b61251681856124ac565b93506125268185602086016124bd565b61252f816124f0565b840191505092915050565b60008115159050919050565b61254f8161253a565b82525050565b60006101008201905061256b600083018b612483565b612578602083018a612492565b818103604083015261258a8189612501565b9050818103606083015261259e8188612501565b90506125ad6080830187612483565b6125ba60a0830186612483565b6125c760c0830185612546565b6125d460e0830184612546565b9998505050505050505050565b600081519050919050565b600082825260208201905092915050565b6000819050602082019050919050565b600082825260208201905092915050565b6000612629826124a1565b612633818561260d565b93506126438185602086016124bd565b61264c816124f0565b840191505092915050565b6000612663838361261e565b905092915050565b6000602082019050919050565b6000612683826125e1565b61268d81856125ec565b93508360208202850161269f856125fd565b8060005b858110156126db57848403895281516126bc8582612657565b94506126c78361266b565b925060208a019950506001810190506126a3565b50829750879550505050505092915050565b600060208201905081810360008301526127078184612678565b905092915050565b60006020820190506127246000830184612483565b92915050565b600060208201905081810360008301526127448184612501565b905092915050565b61275581612479565b811461276057600080fd5b50565b6000813590506127728161274c565b92915050565b60006020828403121561278e5761278d6123e4565b5b600061279c84828501612763565b91505092915050565b600081519050919050565b600082825260208201905092915050565b6000819050602082019050919050565b6127da81612479565b82525050565b6127e98161240e565b82525050565b6127f88161253a565b82525050565b60006101008301600083015161281760008601826127d1565b50602083015161282a60208601826127e0565b5060408301518482036040860152612842828261261e565b9150506060830151848203606086015261285c828261261e565b915050608083015161287160808601826127d1565b5060a083015161288460a08601826127d1565b5060c083015161289760c08601826127ef565b5060e08301516128aa60e08601826127ef565b508091505092915050565b60006128c183836127fe565b905092915050565b6000602082019050919050565b60006128e1826127a5565b6128eb81856127b0565b9350836020820285016128fd856127c1565b8060005b85811015612939578484038952815161291a85826128b5565b9450612925836128c9565b925060208a01995050600181019050612901565b50829750879550505050505092915050565b6000602082019050818103600083015261296581846128d6565b905092915050565b60006020820190506129826000830184612546565b92915050565b600060208201905061299d6000830184612492565b92915050565b600080fd5b600080fd5b7f4e487b7100000000000000000000000000000000000000000000000000000000600052604160045260246000fd5b6129e5826124f0565b810181811067ffffffffffffffff82111715612a0457612a036129ad565b5b80604052505050565b6000612a176123da565b9050612a2382826129dc565b919050565b600067ffffffffffffffff821115612a4357612a426129ad565b5b612a4c826124f0565b9050602081019050919050565b82818337600083830152505050565b6000612a7b612a7684612a28565b612a0d565b905082815260208101848484011115612a9757612a966129a8565b5b612aa2848285612a59565b509392505050565b600082601f830112612abf57612abe6129a3565b5b8135612acf848260208601612a68565b91505092915050565b600080600060608486031215612af157612af06123e4565b5b600084013567ffffffffffffffff811115612b0f57612b0e6123e9565b5b612b1b86828701612aaa565b935050602084013567ffffffffffffffff811115612b3c57612b3b6123e9565b5b612b4886828701612aaa565b9250506040612b5986828701612763565b9150509250925092565b612b6c8161253a565b8114612b7757600080fd5b50565b600081359050612b8981612b63565b92915050565b60008060408385031215612ba657612ba56123e4565b5b6000612bb485828601612b7a565b9250506020612bc585828601612437565b9150509250929050565b600060c082019050612be46000830189612492565b8181036020830152612bf68188612501565b90508181036040830152612c0a8187612501565b9050612c196060830186612546565b612c266080830185612546565b612c3360a0830184612546565b979650505050505050565b600067ffffffffffffffff821115612c5957612c586129ad565b5b602082029050602081019050919050565b600080fd5b6000612c82612c7d84612c3e565b612a0d565b90508083825260208201905060208402830185811115612ca557612ca4612c6a565b5b835b81811015612cec57803567ffffffffffffffff811115612cca57612cc96129a3565b5b808601612cd78982612aaa565b85526020850194505050602081019050612ca7565b5050509392505050565b600082601f830112612d0b57612d0a6129a3565b5b8135612d1b848260208601612c6f565b91505092915050565b60008060008060008060008060006101208a8c031215612d4757612d466123e4565b5b60008a013567ffffffffffffffff811115612d6557612d646123e9565b5b612d718c828d01612aaa565b99505060208a013567ffffffffffffffff811115612d9257612d916123e9565b5b612d9e8c828d01612aaa565b98505060408a013567ffffffffffffffff811115612dbf57612dbe6123e9565b5b612dcb8c828d01612aaa565b97505060608a013567ffffffffffffffff811115612dec57612deb6123e9565b5b612df88c828d01612aaa565b9650506080612e098c828d01612763565b95505060a0612e1a8c828d01612763565b94505060c0612e2b8c828d01612763565b93505060e0612e3c8c828d01612763565b9250506101008a013567ffffffffffffffff811115612e5e57612e5d6123e9565b5b612e6a8c828d01612cf6565b9150509295985092959850929598565b60008060408385031215612e9157612e906123e4565b5b600083013567ffffffffffffffff811115612eaf57612eae6123e9565b5b612ebb85828601612aaa565b925050602083013567ffffffffffffffff811115612edc57612edb6123e9565b5b612ee885828601612aaa565b9150509250929050565b7f4e487b7100000000000000000000000000000000000000000000000000000000600052602260045260246000fd5b60006002820490506001821680612f3957607f821691505b60208210811415612f4d57612f4c612ef2565b5b50919050565b7f4e487b7100000000000000000000000000000000000000000000000000000000600052603260045260246000fd5b7f4e487b7100000000000000000000000000000000000000000000000000000000600052601160045260246000fd5b6000612fbc82612479565b91507fffffffffffffffffffffffffffffffffffffffffffffffffffffffffffffffff821415612fef57612fee612f82565b5b600182019050919050565b7f526567697374726174696f6e206973206e6f7420737461727465642079657400600082015250565b6000613030601f836124ac565b915061303b82612ffa565b602082019050919050565b6000602082019050818103600083015261305f81613023565b9050919050565b7f526567697374726174696f6e20697320616c726561647920656e6465642e0000600082015250565b600061309c601e836124ac565b91506130a782613066565b602082019050919050565b600060208201905081810360008301526130cb8161308f565b9050919050565b60006130dd82612479565b91506130e883612479565b9250827fffffffffffffffffffffffffffffffffffffffffffffffffffffffffffffffff0382111561311d5761311c612f82565b5b828201905092915050565b7f566f74696e67206973206e6f7420737461727465642079657400000000000000600082015250565b600061315e6019836124ac565b915061316982613128565b602082019050919050565b6000602082019050818103600083015261318d81613151565b9050919050565b7f566f74696e6720697320616c726561647920656e646564000000000000000000600082015250565b60006131ca6017836124ac565b91506131d582613194565b602082019050919050565b600060208201905081810360008301526131f9816131bd565b905091905056fea26469706673582212209ba378cd1d330c4049e57f2afd3b41c17b03f11e62b4469d0547fab755964c5664736f6c634300080b0033",
  "linkReferences": {},
  "deployedLinkReferences": {}
}