{
  "_format": "hh-sol-artifact-1",
  "contractName": "Election",
  "sourceName": "contracts/Election.sol",
  "abi": [
    {
      "inputs": [],
      "stateMutability": "nonpayable",
      "type": "constructor"
    },
    {
      "inputs": [],
      "name": "admin",
      "outputs": [
        {
          "internalType": "address",
          "name": "",
          "type": "address"
        }
      ],
      "stateMutability": "view",
      "type": "function"
    },
    {
      "inputs": [
        {
          "internalType": "uint256",
          "name": "",
          "type": "uint256"
        }
      ],
      "name": "approvedCandidates",
      "outputs": [
        {
          "internalType": "address",
          "name": "",
          "type": "address"
        }
      ],
      "stateMutability": "view",
      "type": "function"
    },
    {
      "inputs": [
        {
          "internalType": "uint256",
          "name": "",
          "type": "uint256"
        }
      ],
      "name": "approvedVoters",
      "outputs": [
        {
          "internalType": "address",
          "name": "",
          "type": "address"
        }
      ],
      "stateMutability": "view",
      "type": "function"
    },
    {
      "inputs": [
        {
          "internalType": "address",
          "name": "",
          "type": "address"
        }
      ],
      "name": "candidateDetails",
      "outputs": [
        {
          "internalType": "uint8",
          "name": "candidateId",
          "type": "uint8"
        },
        {
          "internalType": "address",
          "name": "candidateAddress",
          "type": "address"
        },
        {
          "internalType": "string",
          "name": "header",
          "type": "string"
        },
        {
          "internalType": "string",
          "name": "slogan",
          "type": "string"
        },
        {
          "internalType": "uint256",
          "name": "electionTitleIndex",
          "type": "uint256"
        },
        {
          "internalType": "uint256",
          "name": "voteCount",
          "type": "uint256"
        },
        {
          "internalType": "bool",
          "name": "isVerified",
          "type": "bool"
        },
        {
          "internalType": "bool",
          "name": "isRegistered",
          "type": "bool"
        }
      ],
      "stateMutability": "view",
      "type": "function"
    },
    {
      "inputs": [
        {
          "internalType": "uint256",
          "name": "",
          "type": "uint256"
        }
      ],
      "name": "candidates",
      "outputs": [
        {
          "internalType": "address",
          "name": "",
          "type": "address"
        }
      ],
      "stateMutability": "view",
      "type": "function"
    },
    {
      "inputs": [],
      "name": "getAdmin",
      "outputs": [
        {
          "internalType": "address",
          "name": "",
          "type": "address"
        }
      ],
      "stateMutability": "view",
      "type": "function"
    },
    {
      "inputs": [],
      "name": "getAdminEmail",
      "outputs": [
        {
          "internalType": "string",
          "name": "",
          "type": "string"
        }
      ],
      "stateMutability": "view",
      "type": "function"
    },
    {
      "inputs": [],
      "name": "getAdminName",
      "outputs": [
        {
          "internalType": "string",
          "name": "",
          "type": "string"
        }
      ],
      "stateMutability": "view",
      "type": "function"
    },
    {
      "inputs": [],
      "name": "getAdminTitle",
      "outputs": [
        {
          "internalType": "string",
          "name": "",
          "type": "string"
        }
      ],
      "stateMutability": "view",
      "type": "function"
    },
    {
      "inputs": [
        {
          "internalType": "address",
          "name": "_currentAddress",
          "type": "address"
        }
      ],
      "name": "getAlreadyRegisteredCandidateStatus",
      "outputs": [
        {
          "internalType": "bool",
          "name": "",
          "type": "bool"
        }
      ],
      "stateMutability": "view",
      "type": "function"
    },
    {
      "inputs": [
        {
          "internalType": "uint8",
          "name": "_electionTitleIndex",
          "type": "uint8"
        }
      ],
      "name": "getCandidateCountForAsscociatedElection",
      "outputs": [
        {
          "internalType": "uint8",
          "name": "",
          "type": "uint8"
        }
      ],
      "stateMutability": "view",
      "type": "function"
    },
    {
      "inputs": [
        {
          "internalType": "uint8",
          "name": "_electionTitleIndex",
          "type": "uint8"
        }
      ],
      "name": "getCandidatesForAssociatedElections",
      "outputs": [
        {
          "components": [
            {
              "internalType": "uint8",
              "name": "candidateId",
              "type": "uint8"
            },
            {
              "internalType": "address",
              "name": "candidateAddress",
              "type": "address"
            },
            {
              "internalType": "string",
              "name": "header",
              "type": "string"
            },
            {
              "internalType": "string",
              "name": "slogan",
              "type": "string"
            },
            {
              "internalType": "uint256",
              "name": "electionTitleIndex",
              "type": "uint256"
            },
            {
              "internalType": "uint256",
              "name": "voteCount",
              "type": "uint256"
            },
            {
              "internalType": "bool",
              "name": "isVerified",
              "type": "bool"
            },
            {
              "internalType": "bool",
              "name": "isRegistered",
              "type": "bool"
            }
          ],
          "internalType": "struct Election.Candidate[]",
          "name": "",
          "type": "tuple[]"
        }
      ],
      "stateMutability": "view",
      "type": "function"
    },
    {
      "inputs": [
        {
          "internalType": "uint256",
          "name": "_timeStamp",
          "type": "uint256"
        }
      ],
      "name": "getElectionEndedStatus",
      "outputs": [
        {
          "internalType": "bool",
          "name": "",
          "type": "bool"
        }
      ],
      "stateMutability": "view",
      "type": "function"
    },
    {
      "inputs": [],
      "name": "getElectionInitStatus",
      "outputs": [
        {
          "internalType": "bool",
          "name": "",
          "type": "bool"
        }
      ],
      "stateMutability": "view",
      "type": "function"
    },
    {
      "inputs": [
        {
          "internalType": "uint256",
          "name": "_timeStamp",
          "type": "uint256"
        }
      ],
      "name": "getElectionStatus",
      "outputs": [
        {
          "internalType": "bool",
          "name": "",
          "type": "bool"
        }
      ],
      "stateMutability": "view",
      "type": "function"
    },
    {
      "inputs": [],
      "name": "getElectionTitles",
      "outputs": [
        {
          "internalType": "string[]",
          "name": "",
          "type": "string[]"
        }
      ],
      "stateMutability": "view",
      "type": "function"
    },
    {
      "inputs": [],
      "name": "getOrganizationTitle",
      "outputs": [
        {
          "internalType": "string",
          "name": "",
          "type": "string"
        }
      ],
      "stateMutability": "view",
      "type": "function"
    },
    {
      "inputs": [],
      "name": "getRegistrationEndTime",
      "outputs": [
        {
          "internalType": "uint256",
          "name": "",
          "type": "uint256"
        }
      ],
      "stateMutability": "view",
      "type": "function"
    },
    {
      "inputs": [
        {
          "internalType": "uint256",
          "name": "_timeStamp",
          "type": "uint256"
        }
      ],
      "name": "getRegistrationEndedStatus",
      "outputs": [
        {
          "internalType": "bool",
          "name": "",
          "type": "bool"
        }
      ],
      "stateMutability": "view",
      "type": "function"
    },
    {
      "inputs": [],
      "name": "getRegistrationStartTime",
      "outputs": [
        {
          "internalType": "uint256",
          "name": "",
          "type": "uint256"
        }
      ],
      "stateMutability": "view",
      "type": "function"
    },
    {
      "inputs": [
        {
          "internalType": "uint256",
          "name": "_timeStamp",
          "type": "uint256"
        }
      ],
      "name": "getRegistrationStartedStatus",
      "outputs": [
        {
          "internalType": "bool",
          "name": "",
          "type": "bool"
        }
      ],
      "stateMutability": "view",
      "type": "function"
    },
    {
      "inputs": [
        {
          "internalType": "uint256",
          "name": "_timeStamp",
          "type": "uint256"
        }
      ],
      "name": "getRegistrationStatus",
      "outputs": [
        {
          "internalType": "bool",
          "name": "",
          "type": "bool"
        }
      ],
      "stateMutability": "view",
      "type": "function"
    },
    {
      "inputs": [],
      "name": "getUnVerifiedCandidates",
      "outputs": [
        {
          "internalType": "uint256",
          "name": "",
          "type": "uint256"
        }
      ],
      "stateMutability": "view",
      "type": "function"
    },
    {
      "inputs": [],
      "name": "getUnVerifiedVoters",
      "outputs": [
        {
          "internalType": "uint256",
          "name": "",
          "type": "uint256"
        }
      ],
      "stateMutability": "view",
      "type": "function"
    },
    {
      "inputs": [],
      "name": "getVerifiedCandidates",
      "outputs": [
        {
          "internalType": "uint256",
          "name": "",
          "type": "uint256"
        }
      ],
      "stateMutability": "view",
      "type": "function"
    },
    {
      "inputs": [],
      "name": "getVerifiedVoters",
      "outputs": [
        {
          "internalType": "uint256",
          "name": "",
          "type": "uint256"
        }
      ],
      "stateMutability": "view",
      "type": "function"
    },
    {
      "inputs": [
        {
          "internalType": "address",
          "name": "_currentAddress",
          "type": "address"
        }
      ],
      "name": "getVoterStatusForCandidate",
      "outputs": [
        {
          "internalType": "bool",
          "name": "",
          "type": "bool"
        }
      ],
      "stateMutability": "view",
      "type": "function"
    },
    {
      "inputs": [],
      "name": "getVotingEndTime",
      "outputs": [
        {
          "internalType": "uint256",
          "name": "",
          "type": "uint256"
        }
      ],
      "stateMutability": "view",
      "type": "function"
    },
    {
      "inputs": [],
      "name": "getVotingStartTime",
      "outputs": [
        {
          "internalType": "uint256",
          "name": "",
          "type": "uint256"
        }
      ],
      "stateMutability": "view",
      "type": "function"
    },
    {
      "inputs": [
        {
          "internalType": "uint256",
          "name": "_electionTitleIndex",
          "type": "uint256"
        }
      ],
      "name": "getWinnerCandidate",
      "outputs": [
        {
          "internalType": "address",
          "name": "",
          "type": "address"
        }
      ],
      "stateMutability": "view",
      "type": "function"
    },
    {
      "inputs": [
        {
          "internalType": "uint8[]",
          "name": "electionTitleList",
          "type": "uint8[]"
        },
        {
          "internalType": "uint8",
          "name": "item",
          "type": "uint8"
        }
      ],
      "name": "iselectionTitleIndexInList",
      "outputs": [
        {
          "internalType": "bool",
          "name": "",
          "type": "bool"
        }
      ],
      "stateMutability": "pure",
      "type": "function"
    },
    {
      "inputs": [
        {
          "internalType": "string",
          "name": "_header",
          "type": "string"
        },
        {
          "internalType": "string",
          "name": "_slogan",
          "type": "string"
        },
        {
          "internalType": "uint256",
          "name": "_electionTitleIndex",
          "type": "uint256"
        }
      ],
      "name": "registerAsCandidate",
      "outputs": [],
      "stateMutability": "nonpayable",
      "type": "function"
    },
    {
      "inputs": [
        {
          "internalType": "string",
          "name": "_name",
          "type": "string"
        },
        {
          "internalType": "string",
          "name": "_phone",
          "type": "string"
        }
      ],
      "name": "registerAsVoter",
      "outputs": [],
      "stateMutability": "nonpayable",
      "type": "function"
    },
    {
      "inputs": [
        {
          "internalType": "string",
          "name": "_adminName",
          "type": "string"
        },
        {
          "internalType": "string",
          "name": "_adminEmail",
          "type": "string"
        },
        {
          "internalType": "string",
          "name": "_adminTitle",
          "type": "string"
        },
        {
          "internalType": "string",
          "name": "_organizationTitle",
          "type": "string"
        },
        {
          "internalType": "uint256",
          "name": "_votingStartTime",
          "type": "uint256"
        },
        {
          "internalType": "uint256",
          "name": "_votingEndTime",
          "type": "uint256"
        },
        {
          "internalType": "uint256",
          "name": "_registrationStartTime",
          "type": "uint256"
        },
        {
          "internalType": "uint256",
          "name": "_registrationEndTime",
          "type": "uint256"
        },
        {
          "internalType": "string[]",
          "name": "_elections",
          "type": "string[]"
        }
      ],
      "name": "setElectionDetails",
      "outputs": [],
      "stateMutability": "nonpayable",
      "type": "function"
    },
    {
      "inputs": [
        {
          "internalType": "bool",
          "name": "_verifedStatus",
          "type": "bool"
        },
        {
          "internalType": "address",
          "name": "candidateAddress",
          "type": "address"
        }
      ],
      "name": "verifyCandidate",
      "outputs": [],
      "stateMutability": "nonpayable",
      "type": "function"
    },
    {
      "inputs": [
        {
          "internalType": "bool",
          "name": "_verifedStatus",
          "type": "bool"
        },
        {
          "internalType": "address",
          "name": "voterAddress",
          "type": "address"
        }
      ],
      "name": "verifyVoter",
      "outputs": [],
      "stateMutability": "nonpayable",
      "type": "function"
    },
    {
      "inputs": [
        {
          "internalType": "address",
          "name": "_candidateAddress",
          "type": "address"
        },
        {
          "internalType": "uint8",
          "name": "_electionTitleIndex",
          "type": "uint8"
        }
      ],
      "name": "vote",
      "outputs": [],
      "stateMutability": "nonpayable",
      "type": "function"
    },
    {
      "inputs": [
        {
          "internalType": "address",
          "name": "",
          "type": "address"
        }
      ],
      "name": "voterDetails",
      "outputs": [
        {
          "internalType": "address",
          "name": "voterAddress",
          "type": "address"
        },
        {
          "internalType": "string",
          "name": "name",
          "type": "string"
        },
        {
          "internalType": "string",
          "name": "phone",
          "type": "string"
        },
        {
          "internalType": "bool",
          "name": "isVerified",
          "type": "bool"
        },
        {
          "internalType": "bool",
          "name": "hasVoted",
          "type": "bool"
        },
        {
          "internalType": "bool",
          "name": "isRegistered",
          "type": "bool"
        }
      ],
      "stateMutability": "view",
      "type": "function"
    },
    {
      "inputs": [
        {
          "internalType": "uint256",
          "name": "",
          "type": "uint256"
        }
      ],
      "name": "voters",
      "outputs": [
        {
          "internalType": "address",
          "name": "",
          "type": "address"
        }
      ],
      "stateMutability": "view",
      "type": "function"
    }
  ],
  "bytecode": "0x608060405234801561001057600080fd5b5033600060016101000a81548173ffffffffffffffffffffffffffffffffffffffff021916908373ffffffffffffffffffffffffffffffffffffffff16021790555060008060156101000a81548160ff021916908360ff16021790555060008060006101000a81548160ff0219169083151502179055506000600781905550600060088190555060006009819055506000600a81905550613a93806100b66000396000f3fe608060405234801561001057600080fd5b506004361061023d5760003560e01c8063831318f11161013b578063d0980f20116100b8578063dd698f901161007c578063dd698f9014610760578063df6d27841461077e578063f33a8a731461079c578063f851a440146107cc578063fee0d19a146107ea5761023d565b8063d0980f2014610682578063d2fdf16f146106b2578063d4ecadb8146106e2578063da58c7d914610712578063dc973d50146107425761023d565b8063be081b6f116100ff578063be081b6f146105de578063c3a171a2146105fc578063c784d21314610618578063cad43b4814610636578063cfe0c7fc146106525761023d565b8063831318f114610538578063aed9301014610556578063b1bf87b014610586578063b54e629a146105a4578063bceb514d146105c25761023d565b806348343175116101c957806364ca69381161018d57806364ca69381461047e5780636a82ee51146104ae5780636e9960c3146104cc578063739a95f8146104ea5780637d660535146105085761023d565b806348343175146103c35780634c652fc6146103e1578063506b8e0a146103fd5780635938750d146104195780635fcdd8a11461044e5761023d565b806324785b9e1161021057806324785b9e146102e55780633477ee2e14610315578063399f694d146103455780633f66f48b1461037557806347eaa1d9146103a55761023d565b806305e73ced146102425780630712aa05146102795780630e2354cf1461029757806319c5c507146102b5575b600080fd5b61025c600480360381019061025791906129b8565b610806565b604051610270989796959493929190612add565b60405180910390f35b6102816109a5565b60405161028e9190612c75565b60405180910390f35b61029f610af7565b6040516102ac9190612c97565b60405180910390f35b6102cf60048036038101906102ca9190612ce5565b610b8c565b6040516102dc9190612d12565b60405180910390f35b6102ff60048036038101906102fa9190612ce5565b610bbf565b60405161030c9190612d12565b60405180910390f35b61032f600480360381019061032a9190612ce5565b610bf2565b60405161033c9190612d2d565b60405180910390f35b61035f600480360381019061035a9190612d74565b610c31565b60405161036c9190612da1565b60405180910390f35b61038f600480360381019061038a9190612ce5565b610cff565b60405161039c9190612d2d565b60405180910390f35b6103ad610d3e565b6040516103ba9190612dbc565b60405180910390f35b6103cb610d4b565b6040516103d89190612c97565b60405180910390f35b6103fb60048036038101906103f69190612f0c565b610de0565b005b61041760048036038101906104129190612fc3565b6110b0565b005b610433600480360381019061042e91906129b8565b6111cb565b60405161044596959493929190613003565b60405180910390f35b610468600480360381019061046391906129b8565b61135e565b6040516104759190612d12565b60405180910390f35b6104986004803603810190610493919061313a565b61140d565b6040516104a59190612d12565b60405180910390f35b6104b661146f565b6040516104c39190612dbc565b60405180910390f35b6104d4611479565b6040516104e19190612d2d565b60405180910390f35b6104f26114a2565b6040516104ff9190612dbc565b60405180910390f35b610522600480360381019061051d91906129b8565b6114af565b60405161052f9190612d12565b60405180910390f35b61054061155e565b60405161054d9190612c97565b60405180910390f35b610570600480360381019061056b9190612ce5565b6115f3565b60405161057d9190612d2d565b60405180910390f35b61058e611632565b60405161059b9190612dbc565b60405180910390f35b6105ac61163c565b6040516105b99190612dbc565b60405180910390f35b6105dc60048036038101906105d79190613196565b611649565b005b6105e6611977565b6040516105f39190612c97565b60405180910390f35b610616600480360381019061061191906132b7565b611a0c565b005b610620611c59565b60405161062d9190612dbc565b60405180910390f35b610650600480360381019061064b9190612fc3565b611c63565b005b61066c60048036038101906106679190612d74565b611d7e565b60405161067991906135c2565b60405180910390f35b61069c60048036038101906106979190612ce5565b6121e8565b6040516106a99190612d12565b60405180910390f35b6106cc60048036038101906106c79190612ce5565b612216565b6040516106d99190612d12565b60405180910390f35b6106fc60048036038101906106f79190612ce5565b612234565b6040516107099190612d12565b60405180910390f35b61072c60048036038101906107279190612ce5565b612266565b6040516107399190612d2d565b60405180910390f35b61074a6122a5565b6040516107579190612dbc565b60405180910390f35b6107686122b2565b6040516107759190612d12565b60405180910390f35b6107866122c8565b6040516107939190612dbc565b60405180910390f35b6107b660048036038101906107b19190612ce5565b6122d2565b6040516107c39190612d2d565b60405180910390f35b6107d4612468565b6040516107e19190612d2d565b60405180910390f35b61080460048036038101906107ff91906135e4565b61248e565b005b60066020528060005260406000206000915090508060000160009054906101000a900460ff16908060000160019054906101000a900473ffffffffffffffffffffffffffffffffffffffff16908060010180546108629061368b565b80601f016020809104026020016040519081016040528092919081815260200182805461088e9061368b565b80156108db5780601f106108b0576101008083540402835291602001916108db565b820191906000526020600020905b8154815290600101906020018083116108be57829003601f168201915b5050505050908060020180546108f09061368b565b80601f016020809104026020016040519081016040528092919081815260200182805461091c9061368b565b80156109695780601f1061093e57610100808354040283529160200191610969565b820191906000526020600020905b81548152906001019060200180831161094c57829003601f168201915b5050505050908060030154908060040154908060050160009054906101000a900460ff16908060050160019054906101000a900460ff16905088565b60606000600b6008018054905067ffffffffffffffff8111156109cb576109ca612de1565b5b6040519080825280602002602001820160405280156109fe57816020015b60608152602001906001900390816109e95790505b50905060005b600b60080180549050811015610aef57600b6008018181548110610a2b57610a2a6136bd565b5b906000526020600020018054610a409061368b565b80601f0160208091040260200160405190810160405280929190818152602001828054610a6c9061368b565b8015610ab95780601f10610a8e57610100808354040283529160200191610ab9565b820191906000526020600020905b815481529060010190602001808311610a9c57829003601f168201915b5050505050828281518110610ad157610ad06136bd565b5b60200260200101819052508080610ae79061371b565b915050610a04565b508091505090565b6060600b6000018054610b099061368b565b80601f0160208091040260200160405190810160405280929190818152602001828054610b359061368b565b8015610b825780601f10610b5757610100808354040283529160200191610b82565b820191906000526020600020905b815481529060010190602001808311610b6557829003601f168201915b5050505050905090565b6000806007548310158015610ba357506008548311155b15610bb15760019050610bb6565b600090505b80915050919050565b6000806009548310158015610bd65750600a548311155b15610be45760019050610be9565b600090505b80915050919050565b60028181548110610c0257600080fd5b906000526020600020016000915054906101000a900473ffffffffffffffffffffffffffffffffffffffff1681565b6000806000905060005b600480549050811015610cf5578360ff166006600060048481548110610c6457610c636136bd565b5b9060005260206000200160009054906101000a900473ffffffffffffffffffffffffffffffffffffffff1673ffffffffffffffffffffffffffffffffffffffff1673ffffffffffffffffffffffffffffffffffffffff168152602001908152602001600020600301541415610ce2578180610cde90613764565b9250505b8080610ced9061371b565b915050610c3b565b5080915050919050565b60048181548110610d0f57600080fd5b906000526020600020016000915054906101000a900473ffffffffffffffffffffffffffffffffffffffff1681565b6000600480549050905090565b6060600b6003018054610d5d9061368b565b80601f0160208091040260200160405190810160405280929190818152602001828054610d899061368b565b8015610dd65780601f10610dab57610100808354040283529160200191610dd6565b820191906000526020600020905b815481529060010190602001808311610db957829003601f168201915b5050505050905090565b600754421015610e25576040517f08c379a0000000000000000000000000000000000000000000000000000000008152600401610e1c906137da565b60405180910390fd5b600854421115610e6a576040517f08c379a0000000000000000000000000000000000000000000000000000000008152600401610e6190613846565b60405180910390fd5b6000604051806101000160405280600060159054906101000a900460ff1660ff1681526020013373ffffffffffffffffffffffffffffffffffffffff1681526020018581526020018481526020018381526020016000815260200160001515815260200160011515815250905080600660003373ffffffffffffffffffffffffffffffffffffffff1673ffffffffffffffffffffffffffffffffffffffff16815260200190815260200160002060008201518160000160006101000a81548160ff021916908360ff16021790555060208201518160000160016101000a81548173ffffffffffffffffffffffffffffffffffffffff021916908373ffffffffffffffffffffffffffffffffffffffff1602179055506040820151816001019080519060200190610f9b9291906126d6565b506060820151816002019080519060200190610fb89291906126d6565b506080820151816003015560a0820151816004015560c08201518160050160006101000a81548160ff02191690831515021790555060e08201518160050160016101000a81548160ff0219169083151502179055509050506002339080600181540180825580915050600190039060005260206000200160009091909190916101000a81548173ffffffffffffffffffffffffffffffffffffffff021916908373ffffffffffffffffffffffffffffffffffffffff1602179055506001600060158282829054906101000a900460ff166110929190613866565b92506101000a81548160ff021916908360ff16021790555050505050565b600060019054906101000a900473ffffffffffffffffffffffffffffffffffffffff1673ffffffffffffffffffffffffffffffffffffffff163373ffffffffffffffffffffffffffffffffffffffff161461110a57600080fd5b81600560008373ffffffffffffffffffffffffffffffffffffffff1673ffffffffffffffffffffffffffffffffffffffff16815260200190815260200160002060030160006101000a81548160ff0219169083151502179055506003819080600181540180825580915050600190039060005260206000200160009091909190916101000a81548173ffffffffffffffffffffffffffffffffffffffff021916908373ffffffffffffffffffffffffffffffffffffffff1602179055505050565b60056020528060005260406000206000915090508060000160009054906101000a900473ffffffffffffffffffffffffffffffffffffffff16908060010180546112149061368b565b80601f01602080910402602001604051908101604052809291908181526020018280546112409061368b565b801561128d5780601f106112625761010080835404028352916020019161128d565b820191906000526020600020905b81548152906001019060200180831161127057829003601f168201915b5050505050908060020180546112a29061368b565b80601f01602080910402602001604051908101604052809291908181526020018280546112ce9061368b565b801561131b5780601f106112f05761010080835404028352916020019161131b565b820191906000526020600020905b8154815290600101906020018083116112fe57829003601f168201915b5050505050908060030160009054906101000a900460ff16908060030160019054906101000a900460ff16908060030160029054906101000a900460ff16905086565b6000806000905060005b6003805490508110156114035760038181548110611389576113886136bd565b5b9060005260206000200160009054906101000a900473ffffffffffffffffffffffffffffffffffffffff1673ffffffffffffffffffffffffffffffffffffffff168473ffffffffffffffffffffffffffffffffffffffff1614156113f05760019150611403565b80806113fb9061371b565b915050611368565b5080915050919050565b600080600090505b8351811015611463578260ff16848281518110611435576114346136bd565b5b602002602001015160ff161415611450576001915050611469565b808061145b9061371b565b915050611415565b50600090505b92915050565b6000600954905090565b60008060019054906101000a900473ffffffffffffffffffffffffffffffffffffffff16905090565b6000600180549050905090565b6000806000905060005b60028054905081101561155457600281815481106114da576114d96136bd565b5b9060005260206000200160009054906101000a900473ffffffffffffffffffffffffffffffffffffffff1673ffffffffffffffffffffffffffffffffffffffff168473ffffffffffffffffffffffffffffffffffffffff1614156115415760019150611554565b808061154c9061371b565b9150506114b9565b5080915050919050565b6060600b60010180546115709061368b565b80601f016020809104026020016040519081016040528092919081815260200182805461159c9061368b565b80156115e95780601f106115be576101008083540402835291602001916115e9565b820191906000526020600020905b8154815290600101906020018083116115cc57829003601f168201915b5050505050905090565b6003818154811061160357600080fd5b906000526020600020016000915054906101000a900473ffffffffffffffffffffffffffffffffffffffff1681565b6000600a54905090565b6000600380549050905090565b60095442101561168e576040517f08c379a0000000000000000000000000000000000000000000000000000000008152600401611685906138e9565b60405180910390fd5b600a544211156116d3576040517f08c379a00000000000000000000000000000000000000000000000000000000081526004016116ca90613955565b60405180910390fd5b6000611795600560003373ffffffffffffffffffffffffffffffffffffffff1673ffffffffffffffffffffffffffffffffffffffff16815260200190815260200160002060040180548060200260200160405190810160405280929190818152602001828054801561178a57602002820191906000526020600020906000905b82829054906101000a900460ff1660ff16815260200190600101906020826000010492830192600103820291508084116117535790505b50505050508361140d565b905080156117d8576040517f08c379a00000000000000000000000000000000000000000000000000000000081526004016117cf906139e7565b60405180910390fd5b60011515600560003373ffffffffffffffffffffffffffffffffffffffff1673ffffffffffffffffffffffffffffffffffffffff16815260200190815260200160002060030160009054906101000a900460ff1615151461183857600080fd5b6001600660008573ffffffffffffffffffffffffffffffffffffffff1673ffffffffffffffffffffffffffffffffffffffff168152602001908152602001600020600401600082825461188b9190613a07565b925050819055506001600560003373ffffffffffffffffffffffffffffffffffffffff1673ffffffffffffffffffffffffffffffffffffffff16815260200190815260200160002060030160016101000a81548160ff021916908315150217905550600560003373ffffffffffffffffffffffffffffffffffffffff1673ffffffffffffffffffffffffffffffffffffffff1681526020019081526020016000206004018290806001815401808255809150506001900390600052602060002090602091828204019190069091909190916101000a81548160ff021916908360ff160217905550505050565b6060600b60020180546119899061368b565b80601f01602080910402602001604051908101604052809291908181526020018280546119b59061368b565b8015611a025780601f106119d757610100808354040283529160200191611a02565b820191906000526020600020905b8154815290600101906020018083116119e557829003601f168201915b5050505050905090565b600060019054906101000a900473ffffffffffffffffffffffffffffffffffffffff1673ffffffffffffffffffffffffffffffffffffffff163373ffffffffffffffffffffffffffffffffffffffff1614611a6657600080fd5b6000815167ffffffffffffffff811115611a8357611a82612de1565b5b604051908082528060200260200182016040528015611ab657816020015b6060815260200190600190039081611aa15790505b50905060005b8251811015611b1157828181518110611ad857611ad76136bd565b5b6020026020010151828281518110611af357611af26136bd565b5b60200260200101819052508080611b099061371b565b915050611abc565b5060006040518061012001604052808c81526020018b81526020018a815260200189815260200188815260200187815260200186815260200185815260200183815250905080600b6000820151816000019080519060200190611b759291906126d6565b506020820151816001019080519060200190611b929291906126d6565b506040820151816002019080519060200190611baf9291906126d6565b506060820151816003019080519060200190611bcc9291906126d6565b506080820151816004015560a0820151816005015560c0820151816006015560e08201518160070155610100820151816008019080519060200190611c1292919061275c565b5090505060016000806101000a81548160ff02191690831515021790555084600781905550836008819055508660098190555085600a819055505050505050505050505050565b6000600854905090565b600060019054906101000a900473ffffffffffffffffffffffffffffffffffffffff1673ffffffffffffffffffffffffffffffffffffffff163373ffffffffffffffffffffffffffffffffffffffff1614611cbd57600080fd5b81600660008373ffffffffffffffffffffffffffffffffffffffff1673ffffffffffffffffffffffffffffffffffffffff16815260200190815260200160002060050160006101000a81548160ff0219169083151502179055506004819080600181540180825580915050600190039060005260206000200160009091909190916101000a81548173ffffffffffffffffffffffffffffffffffffffff021916908373ffffffffffffffffffffffffffffffffffffffff1602179055505050565b6060600060048054905067ffffffffffffffff811115611da157611da0612de1565b5b604051908082528060200260200182016040528015611dda57816020015b611dc76127bc565b815260200190600190039081611dbf5790505b5090506000805b600480549050811015612126578460ff166006600060048481548110611e0a57611e096136bd565b5b9060005260206000200160009054906101000a900473ffffffffffffffffffffffffffffffffffffffff1673ffffffffffffffffffffffffffffffffffffffff1673ffffffffffffffffffffffffffffffffffffffff168152602001908152602001600020600301541415612113576006600060048381548110611e9157611e906136bd565b5b9060005260206000200160009054906101000a900473ffffffffffffffffffffffffffffffffffffffff1673ffffffffffffffffffffffffffffffffffffffff1673ffffffffffffffffffffffffffffffffffffffff168152602001908152602001600020604051806101000160405290816000820160009054906101000a900460ff1660ff1660ff1681526020016000820160019054906101000a900473ffffffffffffffffffffffffffffffffffffffff1673ffffffffffffffffffffffffffffffffffffffff1673ffffffffffffffffffffffffffffffffffffffff168152602001600182018054611f859061368b565b80601f0160208091040260200160405190810160405280929190818152602001828054611fb19061368b565b8015611ffe5780601f10611fd357610100808354040283529160200191611ffe565b820191906000526020600020905b815481529060010190602001808311611fe157829003601f168201915b505050505081526020016002820180546120179061368b565b80601f01602080910402602001604051908101604052809291908181526020018280546120439061368b565b80156120905780601f1061206557610100808354040283529160200191612090565b820191906000526020600020905b81548152906001019060200180831161207357829003601f168201915b5050505050815260200160038201548152602001600482015481526020016005820160009054906101000a900460ff161515151581526020016005820160019054906101000a900460ff161515151581525050838360ff16815181106120f9576120f86136bd565b5b6020026020010181905250818061210f90613764565b9250505b808061211e9061371b565b915050611de1565b5060008160ff1667ffffffffffffffff81111561214657612145612de1565b5b60405190808252806020026020018201604052801561217f57816020015b61216c6127bc565b8152602001906001900390816121645790505b50905060005b8260ff168110156121dc578381815181106121a3576121a26136bd565b5b60200260200101518282815181106121be576121bd6136bd565b5b602002602001018190525080806121d49061371b565b915050612185565b50809350505050919050565b60008060009050600754831015801561220357506008548311155b1561220d57600190505b80915050919050565b60008060009050600854831061222b57600190505b80915050919050565b6000806000905060008054906101000a900460ff161561225d57600a54831061225c57600190505b5b80915050919050565b6001818154811061227657600080fd5b906000526020600020016000915054906101000a900473ffffffffffffffffffffffffffffffffffffffff1681565b6000600280549050905090565b60008060009054906101000a900460ff16905090565b6000600754905090565b60008060009050600080600090505b60048054905081101561245d57846006600060048481548110612307576123066136bd565b5b9060005260206000200160009054906101000a900473ffffffffffffffffffffffffffffffffffffffff1673ffffffffffffffffffffffffffffffffffffffff1673ffffffffffffffffffffffffffffffffffffffff16815260200190815260200160002060030154141561244a57600060066000600484815481106123905761238f6136bd565b5b9060005260206000200160009054906101000a900473ffffffffffffffffffffffffffffffffffffffff1673ffffffffffffffffffffffffffffffffffffffff1673ffffffffffffffffffffffffffffffffffffffff16815260200190815260200160002060040154905083811115612448578093506004828154811061241a576124196136bd565b5b9060005260206000200160009054906101000a900473ffffffffffffffffffffffffffffffffffffffff1692505b505b80806124559061371b565b9150506122e1565b508092505050919050565b600060019054906101000a900473ffffffffffffffffffffffffffffffffffffffff1681565b60006040518060e001604052803373ffffffffffffffffffffffffffffffffffffffff168152602001848152602001838152602001600015158152602001600015158152602001600115158152602001600067ffffffffffffffff8111156124f9576124f8612de1565b5b6040519080825280602002602001820160405280156125275781602001602082028036833780820191505090505b50815250905080600560003373ffffffffffffffffffffffffffffffffffffffff1673ffffffffffffffffffffffffffffffffffffffff16815260200190815260200160002060008201518160000160006101000a81548173ffffffffffffffffffffffffffffffffffffffff021916908373ffffffffffffffffffffffffffffffffffffffff16021790555060208201518160010190805190602001906125d09291906126d6565b5060408201518160020190805190602001906125ed9291906126d6565b5060608201518160030160006101000a81548160ff02191690831515021790555060808201518160030160016101000a81548160ff02191690831515021790555060a08201518160030160026101000a81548160ff02191690831515021790555060c082015181600401908051906020019061266a92919061281e565b509050506001339080600181540180825580915050600190039060005260206000200160009091909190916101000a81548173ffffffffffffffffffffffffffffffffffffffff021916908373ffffffffffffffffffffffffffffffffffffffff160217905550505050565b8280546126e29061368b565b90600052602060002090601f016020900481019282612704576000855561274b565b82601f1061271d57805160ff191683800117855561274b565b8280016001018555821561274b579182015b8281111561274a57825182559160200191906001019061272f565b5b50905061275891906128c5565b5090565b8280548282559060005260206000209081019282156127ab579160200282015b828111156127aa57825182908051906020019061279a9291906126d6565b509160200191906001019061277c565b5b5090506127b891906128e2565b5090565b604051806101000160405280600060ff168152602001600073ffffffffffffffffffffffffffffffffffffffff168152602001606081526020016060815260200160008152602001600081526020016000151581526020016000151581525090565b82805482825590600052602060002090601f016020900481019282156128b45791602002820160005b8382111561288557835183826101000a81548160ff021916908360ff1602179055509260200192600101602081600001049283019260010302612847565b80156128b25782816101000a81549060ff0219169055600101602081600001049283019260010302612885565b505b5090506128c191906128c5565b5090565b5b808211156128de5760008160009055506001016128c6565b5090565b5b8082111561290257600081816128f99190612906565b506001016128e3565b5090565b5080546129129061368b565b6000825580601f106129245750612943565b601f01602090049060005260206000209081019061294291906128c5565b5b50565b6000604051905090565b600080fd5b600080fd5b600073ffffffffffffffffffffffffffffffffffffffff82169050919050565b60006129858261295a565b9050919050565b6129958161297a565b81146129a057600080fd5b50565b6000813590506129b28161298c565b92915050565b6000602082840312156129ce576129cd612950565b5b60006129dc848285016129a3565b91505092915050565b600060ff82169050919050565b6129fb816129e5565b82525050565b612a0a8161297a565b82525050565b600081519050919050565b600082825260208201905092915050565b60005b83811015612a4a578082015181840152602081019050612a2f565b83811115612a59576000848401525b50505050565b6000601f19601f8301169050919050565b6000612a7b82612a10565b612a858185612a1b565b9350612a95818560208601612a2c565b612a9e81612a5f565b840191505092915050565b6000819050919050565b612abc81612aa9565b82525050565b60008115159050919050565b612ad781612ac2565b82525050565b600061010082019050612af3600083018b6129f2565b612b00602083018a612a01565b8181036040830152612b128189612a70565b90508181036060830152612b268188612a70565b9050612b356080830187612ab3565b612b4260a0830186612ab3565b612b4f60c0830185612ace565b612b5c60e0830184612ace565b9998505050505050505050565b600081519050919050565b600082825260208201905092915050565b6000819050602082019050919050565b600082825260208201905092915050565b6000612bb182612a10565b612bbb8185612b95565b9350612bcb818560208601612a2c565b612bd481612a5f565b840191505092915050565b6000612beb8383612ba6565b905092915050565b6000602082019050919050565b6000612c0b82612b69565b612c158185612b74565b935083602082028501612c2785612b85565b8060005b85811015612c635784840389528151612c448582612bdf565b9450612c4f83612bf3565b925060208a01995050600181019050612c2b565b50829750879550505050505092915050565b60006020820190508181036000830152612c8f8184612c00565b905092915050565b60006020820190508181036000830152612cb18184612a70565b905092915050565b612cc281612aa9565b8114612ccd57600080fd5b50565b600081359050612cdf81612cb9565b92915050565b600060208284031215612cfb57612cfa612950565b5b6000612d0984828501612cd0565b91505092915050565b6000602082019050612d276000830184612ace565b92915050565b6000602082019050612d426000830184612a01565b92915050565b612d51816129e5565b8114612d5c57600080fd5b50565b600081359050612d6e81612d48565b92915050565b600060208284031215612d8a57612d89612950565b5b6000612d9884828501612d5f565b91505092915050565b6000602082019050612db660008301846129f2565b92915050565b6000602082019050612dd16000830184612ab3565b92915050565b600080fd5b600080fd5b7f4e487b7100000000000000000000000000000000000000000000000000000000600052604160045260246000fd5b612e1982612a5f565b810181811067ffffffffffffffff82111715612e3857612e37612de1565b5b80604052505050565b6000612e4b612946565b9050612e578282612e10565b919050565b600067ffffffffffffffff821115612e7757612e76612de1565b5b612e8082612a5f565b9050602081019050919050565b82818337600083830152505050565b6000612eaf612eaa84612e5c565b612e41565b905082815260208101848484011115612ecb57612eca612ddc565b5b612ed6848285612e8d565b509392505050565b600082601f830112612ef357612ef2612dd7565b5b8135612f03848260208601612e9c565b91505092915050565b600080600060608486031215612f2557612f24612950565b5b600084013567ffffffffffffffff811115612f4357612f42612955565b5b612f4f86828701612ede565b935050602084013567ffffffffffffffff811115612f7057612f6f612955565b5b612f7c86828701612ede565b9250506040612f8d86828701612cd0565b9150509250925092565b612fa081612ac2565b8114612fab57600080fd5b50565b600081359050612fbd81612f97565b92915050565b60008060408385031215612fda57612fd9612950565b5b6000612fe885828601612fae565b9250506020612ff9858286016129a3565b9150509250929050565b600060c0820190506130186000830189612a01565b818103602083015261302a8188612a70565b9050818103604083015261303e8187612a70565b905061304d6060830186612ace565b61305a6080830185612ace565b61306760a0830184612ace565b979650505050505050565b600067ffffffffffffffff82111561308d5761308c612de1565b5b602082029050602081019050919050565b600080fd5b60006130b66130b184613072565b612e41565b905080838252602082019050602084028301858111156130d9576130d861309e565b5b835b8181101561310257806130ee8882612d5f565b8452602084019350506020810190506130db565b5050509392505050565b600082601f83011261312157613120612dd7565b5b81356131318482602086016130a3565b91505092915050565b6000806040838503121561315157613150612950565b5b600083013567ffffffffffffffff81111561316f5761316e612955565b5b61317b8582860161310c565b925050602061318c85828601612d5f565b9150509250929050565b600080604083850312156131ad576131ac612950565b5b60006131bb858286016129a3565b92505060206131cc85828601612d5f565b9150509250929050565b600067ffffffffffffffff8211156131f1576131f0612de1565b5b602082029050602081019050919050565b6000613215613210846131d6565b612e41565b905080838252602082019050602084028301858111156132385761323761309e565b5b835b8181101561327f57803567ffffffffffffffff81111561325d5761325c612dd7565b5b80860161326a8982612ede565b8552602085019450505060208101905061323a565b5050509392505050565b600082601f83011261329e5761329d612dd7565b5b81356132ae848260208601613202565b91505092915050565b60008060008060008060008060006101208a8c0312156132da576132d9612950565b5b60008a013567ffffffffffffffff8111156132f8576132f7612955565b5b6133048c828d01612ede565b99505060208a013567ffffffffffffffff81111561332557613324612955565b5b6133318c828d01612ede565b98505060408a013567ffffffffffffffff81111561335257613351612955565b5b61335e8c828d01612ede565b97505060608a013567ffffffffffffffff81111561337f5761337e612955565b5b61338b8c828d01612ede565b965050608061339c8c828d01612cd0565b95505060a06133ad8c828d01612cd0565b94505060c06133be8c828d01612cd0565b93505060e06133cf8c828d01612cd0565b9250506101008a013567ffffffffffffffff8111156133f1576133f0612955565b5b6133fd8c828d01613289565b9150509295985092959850929598565b600081519050919050565b600082825260208201905092915050565b6000819050602082019050919050565b613442816129e5565b82525050565b6134518161297a565b82525050565b61346081612aa9565b82525050565b61346f81612ac2565b82525050565b60006101008301600083015161348e6000860182613439565b5060208301516134a16020860182613448565b50604083015184820360408601526134b98282612ba6565b915050606083015184820360608601526134d38282612ba6565b91505060808301516134e86080860182613457565b5060a08301516134fb60a0860182613457565b5060c083015161350e60c0860182613466565b5060e083015161352160e0860182613466565b508091505092915050565b60006135388383613475565b905092915050565b6000602082019050919050565b60006135588261340d565b6135628185613418565b93508360208202850161357485613429565b8060005b858110156135b05784840389528151613591858261352c565b945061359c83613540565b925060208a01995050600181019050613578565b50829750879550505050505092915050565b600060208201905081810360008301526135dc818461354d565b905092915050565b600080604083850312156135fb576135fa612950565b5b600083013567ffffffffffffffff81111561361957613618612955565b5b61362585828601612ede565b925050602083013567ffffffffffffffff81111561364657613645612955565b5b61365285828601612ede565b9150509250929050565b7f4e487b7100000000000000000000000000000000000000000000000000000000600052602260045260246000fd5b600060028204905060018216806136a357607f821691505b602082108114156136b7576136b661365c565b5b50919050565b7f4e487b7100000000000000000000000000000000000000000000000000000000600052603260045260246000fd5b7f4e487b7100000000000000000000000000000000000000000000000000000000600052601160045260246000fd5b600061372682612aa9565b91507fffffffffffffffffffffffffffffffffffffffffffffffffffffffffffffffff821415613759576137586136ec565b5b600182019050919050565b600061376f826129e5565b915060ff821415613783576137826136ec565b5b600182019050919050565b7f526567697374726174696f6e206973206e6f7420737461727465642079657400600082015250565b60006137c4601f83612a1b565b91506137cf8261378e565b602082019050919050565b600060208201905081810360008301526137f3816137b7565b9050919050565b7f526567697374726174696f6e20697320616c726561647920656e6465642e0000600082015250565b6000613830601e83612a1b565b915061383b826137fa565b602082019050919050565b6000602082019050818103600083015261385f81613823565b9050919050565b6000613871826129e5565b915061387c836129e5565b92508260ff03821115613892576138916136ec565b5b828201905092915050565b7f566f74696e67206973206e6f7420737461727465642079657400000000000000600082015250565b60006138d3601983612a1b565b91506138de8261389d565b602082019050919050565b60006020820190508181036000830152613902816138c6565b9050919050565b7f566f74696e6720697320616c726561647920656e646564000000000000000000600082015250565b600061393f601783612a1b565b915061394a82613909565b602082019050919050565b6000602082019050818103600083015261396e81613932565b9050919050565b7f416c72656164792063617374656420766f746520746f207468652073656c656360008201527f746564207469746c652e00000000000000000000000000000000000000000000602082015250565b60006139d1602a83612a1b565b91506139dc82613975565b604082019050919050565b60006020820190508181036000830152613a00816139c4565b9050919050565b6000613a1282612aa9565b9150613a1d83612aa9565b9250827fffffffffffffffffffffffffffffffffffffffffffffffffffffffffffffffff03821115613a5257613a516136ec565b5b82820190509291505056fea2646970667358221220638d35e67d167b00cfeb3caf0338e986b3e8acd049141ae0dda352a72a2459a464736f6c634300080b0033",
  "linkReferences": {},
  "deployedLinkReferences": {}
}