{
  "_format": "hh-sol-artifact-1",
  "contractName": "Election",
  "sourceName": "contracts/Election.sol",
  "abi": [
    {
      "inputs": [],
      "stateMutability": "nonpayable",
      "type": "constructor"
    },
    {
      "inputs": [],
      "name": "admin",
      "outputs": [
        {
          "internalType": "address",
          "name": "",
          "type": "address"
        }
      ],
      "stateMutability": "view",
      "type": "function"
    },
    {
      "inputs": [
        {
          "internalType": "address",
          "name": "",
          "type": "address"
        }
      ],
      "name": "candidateDetails",
      "outputs": [
        {
          "internalType": "uint256",
          "name": "candidateId",
          "type": "uint256"
        },
        {
          "internalType": "address",
          "name": "candidateAddress",
          "type": "address"
        },
        {
          "internalType": "string",
          "name": "header",
          "type": "string"
        },
        {
          "internalType": "string",
          "name": "slogan",
          "type": "string"
        },
        {
          "internalType": "uint256",
          "name": "voteCount",
          "type": "uint256"
        },
        {
          "internalType": "bool",
          "name": "isVerified",
          "type": "bool"
        },
        {
          "internalType": "bool",
          "name": "isRegistered",
          "type": "bool"
        }
      ],
      "stateMutability": "view",
      "type": "function"
    },
    {
      "inputs": [
        {
          "internalType": "uint256",
          "name": "",
          "type": "uint256"
        }
      ],
      "name": "candidates",
      "outputs": [
        {
          "internalType": "address",
          "name": "",
          "type": "address"
        }
      ],
      "stateMutability": "view",
      "type": "function"
    },
    {
      "inputs": [
        {
          "internalType": "uint256",
          "name": "",
          "type": "uint256"
        }
      ],
      "name": "elections",
      "outputs": [
        {
          "internalType": "string",
          "name": "adminName",
          "type": "string"
        },
        {
          "internalType": "string",
          "name": "adminEmail",
          "type": "string"
        },
        {
          "internalType": "string",
          "name": "adminTitle",
          "type": "string"
        },
        {
          "internalType": "string",
          "name": "organizationTitle",
          "type": "string"
        },
        {
          "internalType": "uint256",
          "name": "votingStartDate",
          "type": "uint256"
        },
        {
          "internalType": "uint256",
          "name": "votingEndDate",
          "type": "uint256"
        },
        {
          "internalType": "uint256",
          "name": "registrationStartDate",
          "type": "uint256"
        },
        {
          "internalType": "uint256",
          "name": "registrationEndDate",
          "type": "uint256"
        }
      ],
      "stateMutability": "view",
      "type": "function"
    },
    {
      "inputs": [],
      "name": "endElection",
      "outputs": [],
      "stateMutability": "nonpayable",
      "type": "function"
    },
    {
      "inputs": [],
      "name": "getAdmin",
      "outputs": [
        {
          "internalType": "address",
          "name": "",
          "type": "address"
        }
      ],
      "stateMutability": "view",
      "type": "function"
    },
    {
      "inputs": [],
      "name": "getAdminEmail",
      "outputs": [
        {
          "internalType": "string",
          "name": "",
          "type": "string"
        }
      ],
      "stateMutability": "view",
      "type": "function"
    },
    {
      "inputs": [],
      "name": "getAdminName",
      "outputs": [
        {
          "internalType": "string",
          "name": "",
          "type": "string"
        }
      ],
      "stateMutability": "view",
      "type": "function"
    },
    {
      "inputs": [],
      "name": "getAdminTitle",
      "outputs": [
        {
          "internalType": "string",
          "name": "",
          "type": "string"
        }
      ],
      "stateMutability": "view",
      "type": "function"
    },
    {
      "inputs": [],
      "name": "getElectionTitles",
      "outputs": [
        {
          "internalType": "string[]",
          "name": "",
          "type": "string[]"
        }
      ],
      "stateMutability": "view",
      "type": "function"
    },
    {
      "inputs": [],
      "name": "getEnd",
      "outputs": [
        {
          "internalType": "bool",
          "name": "",
          "type": "bool"
        }
      ],
      "stateMutability": "view",
      "type": "function"
    },
    {
      "inputs": [],
      "name": "getOrganizationTitle",
      "outputs": [
        {
          "internalType": "string",
          "name": "",
          "type": "string"
        }
      ],
      "stateMutability": "view",
      "type": "function"
    },
    {
      "inputs": [],
      "name": "getStart",
      "outputs": [
        {
          "internalType": "bool",
          "name": "",
          "type": "bool"
        }
      ],
      "stateMutability": "view",
      "type": "function"
    },
    {
      "inputs": [],
      "name": "getTotalCandidate",
      "outputs": [
        {
          "internalType": "uint256",
          "name": "",
          "type": "uint256"
        }
      ],
      "stateMutability": "view",
      "type": "function"
    },
    {
      "inputs": [],
      "name": "getTotalVoter",
      "outputs": [
        {
          "internalType": "uint256",
          "name": "",
          "type": "uint256"
        }
      ],
      "stateMutability": "view",
      "type": "function"
    },
    {
      "inputs": [],
      "name": "getWinner",
      "outputs": [
        {
          "internalType": "address",
          "name": "",
          "type": "address"
        }
      ],
      "stateMutability": "view",
      "type": "function"
    },
    {
      "inputs": [
        {
          "internalType": "string",
          "name": "_header",
          "type": "string"
        },
        {
          "internalType": "string",
          "name": "_slogan",
          "type": "string"
        }
      ],
      "name": "registerAsCandidate",
      "outputs": [],
      "stateMutability": "nonpayable",
      "type": "function"
    },
    {
      "inputs": [
        {
          "internalType": "string",
          "name": "_name",
          "type": "string"
        },
        {
          "internalType": "string",
          "name": "_phone",
          "type": "string"
        }
      ],
      "name": "registerAsVoter",
      "outputs": [],
      "stateMutability": "nonpayable",
      "type": "function"
    },
    {
      "inputs": [
        {
          "internalType": "string",
          "name": "_adminName",
          "type": "string"
        },
        {
          "internalType": "string",
          "name": "_adminEmail",
          "type": "string"
        },
        {
          "internalType": "string",
          "name": "_adminTitle",
          "type": "string"
        },
        {
          "internalType": "string",
          "name": "_organizationTitle",
          "type": "string"
        },
        {
          "internalType": "uint256",
          "name": "_votingStartTime",
          "type": "uint256"
        },
        {
          "internalType": "uint256",
          "name": "_votingEndTime",
          "type": "uint256"
        },
        {
          "internalType": "uint256",
          "name": "_registrationStartTime",
          "type": "uint256"
        },
        {
          "internalType": "uint256",
          "name": "_registrationEndTime",
          "type": "uint256"
        },
        {
          "internalType": "string[]",
          "name": "_elections",
          "type": "string[]"
        }
      ],
      "name": "setElectionDetails",
      "outputs": [],
      "stateMutability": "nonpayable",
      "type": "function"
    },
    {
      "inputs": [
        {
          "internalType": "bool",
          "name": "_verifedStatus",
          "type": "bool"
        },
        {
          "internalType": "address",
          "name": "candidateAddress",
          "type": "address"
        }
      ],
      "name": "verifyCandidate",
      "outputs": [],
      "stateMutability": "nonpayable",
      "type": "function"
    },
    {
      "inputs": [
        {
          "internalType": "bool",
          "name": "_verifedStatus",
          "type": "bool"
        },
        {
          "internalType": "address",
          "name": "voterAddress",
          "type": "address"
        }
      ],
      "name": "verifyVoter",
      "outputs": [],
      "stateMutability": "nonpayable",
      "type": "function"
    },
    {
      "inputs": [
        {
          "internalType": "address",
          "name": "_candidateAddress",
          "type": "address"
        }
      ],
      "name": "vote",
      "outputs": [],
      "stateMutability": "nonpayable",
      "type": "function"
    },
    {
      "inputs": [
        {
          "internalType": "address",
          "name": "",
          "type": "address"
        }
      ],
      "name": "voterDetails",
      "outputs": [
        {
          "internalType": "address",
          "name": "voterAddress",
          "type": "address"
        },
        {
          "internalType": "string",
          "name": "name",
          "type": "string"
        },
        {
          "internalType": "string",
          "name": "phone",
          "type": "string"
        },
        {
          "internalType": "bool",
          "name": "isVerified",
          "type": "bool"
        },
        {
          "internalType": "bool",
          "name": "hasVoted",
          "type": "bool"
        },
        {
          "internalType": "bool",
          "name": "isRegistered",
          "type": "bool"
        }
      ],
      "stateMutability": "view",
      "type": "function"
    },
    {
      "inputs": [
        {
          "internalType": "uint256",
          "name": "",
          "type": "uint256"
        }
      ],
      "name": "voters",
      "outputs": [
        {
          "internalType": "address",
          "name": "",
          "type": "address"
        }
      ],
      "stateMutability": "view",
      "type": "function"
    }
  ],
  "bytecode": "0x608060405234801561001057600080fd5b5033600360006101000a81548173ffffffffffffffffffffffffffffffffffffffff021916908373ffffffffffffffffffffffffffffffffffffffff160217905550600060028190555060006001819055506000600a60006101000a81548160ff0219169083151502179055506000600a60016101000a81548160ff0219169083151502179055506000600a60026101000a81548160ff0219169083151502179055506001600a60036101000a81548160ff02191690831515021790555060008060006101000a81548160ff02191690831515021790555060008060016101000a81548160ff02191690831515021790555061293e806101116000396000f3fe608060405234801561001057600080fd5b50600436106101585760003560e01c80636dd7d8ea116100c3578063c3a171a21161007c578063c3a171a2146103b9578063c5292c67146103d5578063cad43b48146103f3578063da58c7d91461040f578063f851a4401461043f578063fee0d19a1461045d57610158565b80636dd7d8ea146103075780636e9960c314610323578063831318f1146103415780638e7ea5b21461035f5780639f05a36d1461037d578063be081b6f1461039b57610158565b806348343175116101155780634834317514610239578063506b8e0a146102575780635938750d1461027357806359f78468146102a85780635e6fef01146102b257806364d198a1146102e957610158565b806304b8789b1461015d57806305e73ced146101795780630712aa05146101af5780630b93400e146101cd5780630e2354cf146101eb5780633477ee2e14610209575b600080fd5b61017760048036038101906101729190611eeb565b610479565b005b610193600480360381019061018e9190611e86565b6106f3565b6040516101a69796959493929190612490565b60405180910390f35b6101b761087f565b6040516101c491906122fc565b60405180910390f35b6101d5610a43565b6040516101e29190612475565b60405180910390f35b6101f3610a4d565b6040516102009190612339565b60405180910390f35b610223600480360381019061021e9190612095565b610ae2565b6040516102309190612272565b60405180910390f35b610241610b21565b60405161024e9190612339565b60405180910390f35b610271600480360381019061026c9190611eaf565b610bb6565b005b61028d60048036038101906102889190611e86565b610c6e565b60405161029f9695949392919061228d565b60405180910390f35b6102b0610e01565b005b6102cc60048036038101906102c79190612095565b610e92565b6040516102e098979695949392919061235b565b60405180910390f35b6102f16110fa565b6040516102fe9190612475565b60405180910390f35b610321600480360381019061031c9190611e86565b611104565b005b61032b611306565b6040516103389190612272565b60405180910390f35b610349611330565b6040516103569190612339565b60405180910390f35b6103676113c5565b6040516103749190612272565b60405180910390f35b6103856114bb565b604051610392919061231e565b60405180910390f35b6103a36114d1565b6040516103b09190612339565b60405180910390f35b6103d360048036038101906103ce9190611f57565b611566565b005b6103dd61183f565b6040516103ea919061231e565b60405180910390f35b61040d60048036038101906104089190611eaf565b611855565b005b61042960048036038101906104249190612095565b61190d565b6040516104369190612272565b60405180910390f35b61044761194c565b6040516104549190612272565b60405180910390f35b61047760048036038101906104729190611eeb565b611972565b005b600b544210156104be576040517f08c379a00000000000000000000000000000000000000000000000000000000081526004016104b5906123f5565b60405180910390fd5b600c54421115610503576040517f08c379a00000000000000000000000000000000000000000000000000000000081526004016104fa90612415565b60405180910390fd5b60006040518060e0016040528060025481526020013373ffffffffffffffffffffffffffffffffffffffff1681526020018481526020018381526020016000815260200160001515815260200160011515815250905080600760003373ffffffffffffffffffffffffffffffffffffffff1673ffffffffffffffffffffffffffffffffffffffff1681526020019081526020016000206000820151816000015560208201518160010160006101000a81548173ffffffffffffffffffffffffffffffffffffffff021916908373ffffffffffffffffffffffffffffffffffffffff1602179055506040820151816002019080519060200190610606929190611bf1565b506060820151816003019080519060200190610623929190611bf1565b506080820151816004015560a08201518160050160006101000a81548160ff02191690831515021790555060c08201518160050160016101000a81548160ff0219169083151502179055509050506005339080600181540180825580915050600190039060005260206000200160009091909190916101000a81548173ffffffffffffffffffffffffffffffffffffffff021916908373ffffffffffffffffffffffffffffffffffffffff1602179055506001600260008282546106e791906125f5565b92505081905550505050565b60076020528060005260406000206000915090508060000154908060010160009054906101000a900473ffffffffffffffffffffffffffffffffffffffff1690806002018054610742906126d5565b80601f016020809104026020016040519081016040528092919081815260200182805461076e906126d5565b80156107bb5780601f10610790576101008083540402835291602001916107bb565b820191906000526020600020905b81548152906001019060200180831161079e57829003601f168201915b5050505050908060030180546107d0906126d5565b80601f01602080910402602001604051908101604052809291908181526020018280546107fc906126d5565b80156108495780601f1061081e57610100808354040283529160200191610849565b820191906000526020600020905b81548152906001019060200180831161082c57829003601f168201915b5050505050908060040154908060050160009054906101000a900460ff16908060050160019054906101000a900460ff16905087565b60606000600f6008018054905067ffffffffffffffff8111156108cb577f4e487b7100000000000000000000000000000000000000000000000000000000600052604160045260246000fd5b6040519080825280602002602001820160405280156108fe57816020015b60608152602001906001900390816108e95790505b50905060005b600f60080180549050811015610a3b57600f6008018181548110610951577f4e487b7100000000000000000000000000000000000000000000000000000000600052603260045260246000fd5b906000526020600020018054610966906126d5565b80601f0160208091040260200160405190810160405280929190818152602001828054610992906126d5565b80156109df5780601f106109b4576101008083540402835291602001916109df565b820191906000526020600020905b8154815290600101906020018083116109c257829003601f168201915b5050505050828281518110610a1d577f4e487b7100000000000000000000000000000000000000000000000000000000600052603260045260246000fd5b60200260200101819052508080610a3390612738565b915050610904565b508091505090565b6000600154905090565b6060600f6000018054610a5f906126d5565b80601f0160208091040260200160405190810160405280929190818152602001828054610a8b906126d5565b8015610ad85780601f10610aad57610100808354040283529160200191610ad8565b820191906000526020600020905b815481529060010190602001808311610abb57829003601f168201915b5050505050905090565b60058181548110610af257600080fd5b906000526020600020016000915054906101000a900473ffffffffffffffffffffffffffffffffffffffff1681565b6060600f6003018054610b33906126d5565b80601f0160208091040260200160405190810160405280929190818152602001828054610b5f906126d5565b8015610bac5780601f10610b8157610100808354040283529160200191610bac565b820191906000526020600020905b815481529060010190602001808311610b8f57829003601f168201915b5050505050905090565b600360009054906101000a900473ffffffffffffffffffffffffffffffffffffffff1673ffffffffffffffffffffffffffffffffffffffff163373ffffffffffffffffffffffffffffffffffffffff1614610c1057600080fd5b81600660008373ffffffffffffffffffffffffffffffffffffffff1673ffffffffffffffffffffffffffffffffffffffff16815260200190815260200160002060030160006101000a81548160ff0219169083151502179055505050565b60066020528060005260406000206000915090508060000160009054906101000a900473ffffffffffffffffffffffffffffffffffffffff1690806001018054610cb7906126d5565b80601f0160208091040260200160405190810160405280929190818152602001828054610ce3906126d5565b8015610d305780601f10610d0557610100808354040283529160200191610d30565b820191906000526020600020905b815481529060010190602001808311610d1357829003601f168201915b505050505090806002018054610d45906126d5565b80601f0160208091040260200160405190810160405280929190818152602001828054610d71906126d5565b8015610dbe5780601f10610d9357610100808354040283529160200191610dbe565b820191906000526020600020905b815481529060010190602001808311610da157829003601f168201915b5050505050908060030160009054906101000a900460ff16908060030160019054906101000a900460ff16908060030160029054906101000a900460ff16905086565b600360009054906101000a900473ffffffffffffffffffffffffffffffffffffffff1673ffffffffffffffffffffffffffffffffffffffff163373ffffffffffffffffffffffffffffffffffffffff1614610e5b57600080fd5b6001600060016101000a81548160ff02191690831515021790555060008060006101000a81548160ff021916908315150217905550565b6008602052806000526040600020600091509050806000018054610eb5906126d5565b80601f0160208091040260200160405190810160405280929190818152602001828054610ee1906126d5565b8015610f2e5780601f10610f0357610100808354040283529160200191610f2e565b820191906000526020600020905b815481529060010190602001808311610f1157829003601f168201915b505050505090806001018054610f43906126d5565b80601f0160208091040260200160405190810160405280929190818152602001828054610f6f906126d5565b8015610fbc5780601f10610f9157610100808354040283529160200191610fbc565b820191906000526020600020905b815481529060010190602001808311610f9f57829003601f168201915b505050505090806002018054610fd1906126d5565b80601f0160208091040260200160405190810160405280929190818152602001828054610ffd906126d5565b801561104a5780601f1061101f5761010080835404028352916020019161104a565b820191906000526020600020905b81548152906001019060200180831161102d57829003601f168201915b50505050509080600301805461105f906126d5565b80601f016020809104026020016040519081016040528092919081815260200182805461108b906126d5565b80156110d85780601f106110ad576101008083540402835291602001916110d8565b820191906000526020600020905b8154815290600101906020018083116110bb57829003601f168201915b5050505050908060040154908060050154908060060154908060070154905088565b6000600254905090565b600d54421015611149576040517f08c379a000000000000000000000000000000000000000000000000000000000815260040161114090612455565b60405180910390fd5b600e5442111561118e576040517f08c379a000000000000000000000000000000000000000000000000000000000815260040161118590612435565b60405180910390fd5b60001515600660003373ffffffffffffffffffffffffffffffffffffffff1673ffffffffffffffffffffffffffffffffffffffff16815260200190815260200160002060030160019054906101000a900460ff161515146111ee57600080fd5b60011515600660003373ffffffffffffffffffffffffffffffffffffffff1673ffffffffffffffffffffffffffffffffffffffff16815260200190815260200160002060030160009054906101000a900460ff1615151461124e57600080fd5b6001600760008373ffffffffffffffffffffffffffffffffffffffff1673ffffffffffffffffffffffffffffffffffffffff16815260200190815260200160002060040160008282546112a191906125f5565b925050819055506001600660003373ffffffffffffffffffffffffffffffffffffffff1673ffffffffffffffffffffffffffffffffffffffff16815260200190815260200160002060030160016101000a81548160ff02191690831515021790555050565b6000600360009054906101000a900473ffffffffffffffffffffffffffffffffffffffff16905090565b6060600f6001018054611342906126d5565b80601f016020809104026020016040519081016040528092919081815260200182805461136e906126d5565b80156113bb5780601f10611390576101008083540402835291602001916113bb565b820191906000526020600020905b81548152906001019060200180831161139e57829003601f168201915b5050505050905090565b60008060009050600080600090505b6002548110156114b25760006005828154811061141a577f4e487b7100000000000000000000000000000000000000000000000000000000600052603260045260246000fd5b9060005260206000200160009054906101000a900473ffffffffffffffffffffffffffffffffffffffff1690506000600760008373ffffffffffffffffffffffffffffffffffffffff1673ffffffffffffffffffffffffffffffffffffffff1681526020019081526020016000206004015490508481111561149d578094508193505b505080806114aa90612738565b9150506113d4565b50809250505090565b60008060019054906101000a900460ff16905090565b6060600f60020180546114e3906126d5565b80601f016020809104026020016040519081016040528092919081815260200182805461150f906126d5565b801561155c5780601f106115315761010080835404028352916020019161155c565b820191906000526020600020905b81548152906001019060200180831161153f57829003601f168201915b5050505050905090565b600360009054906101000a900473ffffffffffffffffffffffffffffffffffffffff1673ffffffffffffffffffffffffffffffffffffffff163373ffffffffffffffffffffffffffffffffffffffff16146115c057600080fd5b6000815167ffffffffffffffff811115611603577f4e487b7100000000000000000000000000000000000000000000000000000000600052604160045260246000fd5b60405190808252806020026020018201604052801561163657816020015b60608152602001906001900390816116215790505b50905060005b82518110156116dd5782818151811061167e577f4e487b7100000000000000000000000000000000000000000000000000000000600052603260045260246000fd5b60200260200101518282815181106116bf577f4e487b7100000000000000000000000000000000000000000000000000000000600052603260045260246000fd5b602002602001018190525080806116d590612738565b91505061163c565b5060006040518061012001604052808c81526020018b81526020018a815260200189815260200188815260200187815260200186815260200185815260200183815250905080600f6000820151816000019080519060200190611741929190611bf1565b50602082015181600101908051906020019061175e929190611bf1565b50604082015181600201908051906020019061177b929190611bf1565b506060820151816003019080519060200190611798929190611bf1565b506080820151816004015560a0820151816005015560c0820151816006015560e082015181600701556101008201518160080190805190602001906117de929190611c77565b5090505084600b8190555083600c8190555086600d8190555085600e8190555060016000806101000a81548160ff02191690831515021790555060008060016101000a81548160ff0219169083151502179055505050505050505050505050565b60008060009054906101000a900460ff16905090565b600360009054906101000a900473ffffffffffffffffffffffffffffffffffffffff1673ffffffffffffffffffffffffffffffffffffffff163373ffffffffffffffffffffffffffffffffffffffff16146118af57600080fd5b81600760008373ffffffffffffffffffffffffffffffffffffffff1673ffffffffffffffffffffffffffffffffffffffff16815260200190815260200160002060050160006101000a81548160ff0219169083151502179055505050565b6004818154811061191d57600080fd5b906000526020600020016000915054906101000a900473ffffffffffffffffffffffffffffffffffffffff1681565b600360009054906101000a900473ffffffffffffffffffffffffffffffffffffffff1681565b600b544210156119b7576040517f08c379a00000000000000000000000000000000000000000000000000000000081526004016119ae906123f5565b60405180910390fd5b600c544211156119fc576040517f08c379a00000000000000000000000000000000000000000000000000000000081526004016119f390612415565b60405180910390fd5b60006040518060c001604052803373ffffffffffffffffffffffffffffffffffffffff16815260200184815260200183815260200160001515815260200160001515815260200160011515815250905080600660003373ffffffffffffffffffffffffffffffffffffffff1673ffffffffffffffffffffffffffffffffffffffff16815260200190815260200160002060008201518160000160006101000a81548173ffffffffffffffffffffffffffffffffffffffff021916908373ffffffffffffffffffffffffffffffffffffffff1602179055506020820151816001019080519060200190611aef929190611bf1565b506040820151816002019080519060200190611b0c929190611bf1565b5060608201518160030160006101000a81548160ff02191690831515021790555060808201518160030160016101000a81548160ff02191690831515021790555060a08201518160030160026101000a81548160ff0219169083151502179055509050506004339080600181540180825580915050600190039060005260206000200160009091909190916101000a81548173ffffffffffffffffffffffffffffffffffffffff021916908373ffffffffffffffffffffffffffffffffffffffff1602179055506001806000828254611be591906125f5565b92505081905550505050565b828054611bfd906126d5565b90600052602060002090601f016020900481019282611c1f5760008555611c66565b82601f10611c3857805160ff1916838001178555611c66565b82800160010185558215611c66579182015b82811115611c65578251825591602001919060010190611c4a565b5b509050611c739190611cd7565b5090565b828054828255906000526020600020908101928215611cc6579160200282015b82811115611cc5578251829080519060200190611cb5929190611bf1565b5091602001919060010190611c97565b5b509050611cd39190611cf4565b5090565b5b80821115611cf0576000816000905550600101611cd8565b5090565b5b80821115611d145760008181611d0b9190611d18565b50600101611cf5565b5090565b508054611d24906126d5565b6000825580601f10611d365750611d55565b601f016020900490600052602060002090810190611d549190611cd7565b5b50565b6000611d6b611d6684612532565b61250d565b9050808382526020820190508260005b85811015611dab5781358501611d918882611e47565b845260208401935060208301925050600181019050611d7b565b5050509392505050565b6000611dc8611dc38461255e565b61250d565b905082815260208101848484011115611de057600080fd5b611deb848285612693565b509392505050565b600081359050611e02816128c3565b92915050565b600082601f830112611e1957600080fd5b8135611e29848260208601611d58565b91505092915050565b600081359050611e41816128da565b92915050565b600082601f830112611e5857600080fd5b8135611e68848260208601611db5565b91505092915050565b600081359050611e80816128f1565b92915050565b600060208284031215611e9857600080fd5b6000611ea684828501611df3565b91505092915050565b60008060408385031215611ec257600080fd5b6000611ed085828601611e32565b9250506020611ee185828601611df3565b9150509250929050565b60008060408385031215611efe57600080fd5b600083013567ffffffffffffffff811115611f1857600080fd5b611f2485828601611e47565b925050602083013567ffffffffffffffff811115611f4157600080fd5b611f4d85828601611e47565b9150509250929050565b60008060008060008060008060006101208a8c031215611f7657600080fd5b60008a013567ffffffffffffffff811115611f9057600080fd5b611f9c8c828d01611e47565b99505060208a013567ffffffffffffffff811115611fb957600080fd5b611fc58c828d01611e47565b98505060408a013567ffffffffffffffff811115611fe257600080fd5b611fee8c828d01611e47565b97505060608a013567ffffffffffffffff81111561200b57600080fd5b6120178c828d01611e47565b96505060806120288c828d01611e71565b95505060a06120398c828d01611e71565b94505060c061204a8c828d01611e71565b93505060e061205b8c828d01611e71565b9250506101008a013567ffffffffffffffff81111561207957600080fd5b6120858c828d01611e08565b9150509295985092959850929598565b6000602082840312156120a757600080fd5b60006120b584828501611e71565b91505092915050565b60006120ca8383612165565b905092915050565b6120db8161264b565b82525050565b60006120ec8261259f565b6120f681856125c2565b9350836020820285016121088561258f565b8060005b85811015612144578484038952815161212585826120be565b9450612130836125b5565b925060208a0199505060018101905061210c565b50829750879550505050505092915050565b61215f8161265d565b82525050565b6000612170826125aa565b61217a81856125d3565b935061218a8185602086016126a2565b6121938161280e565b840191505092915050565b60006121a9826125aa565b6121b381856125e4565b93506121c38185602086016126a2565b6121cc8161280e565b840191505092915050565b60006121e4601f836125e4565b91506121ef8261281f565b602082019050919050565b6000612207601e836125e4565b915061221282612848565b602082019050919050565b600061222a6017836125e4565b915061223582612871565b602082019050919050565b600061224d6019836125e4565b91506122588261289a565b602082019050919050565b61226c81612689565b82525050565b600060208201905061228760008301846120d2565b92915050565b600060c0820190506122a260008301896120d2565b81810360208301526122b4818861219e565b905081810360408301526122c8818761219e565b90506122d76060830186612156565b6122e46080830185612156565b6122f160a0830184612156565b979650505050505050565b6000602082019050818103600083015261231681846120e1565b905092915050565b60006020820190506123336000830184612156565b92915050565b60006020820190508181036000830152612353818461219e565b905092915050565b6000610100820190508181036000830152612376818b61219e565b9050818103602083015261238a818a61219e565b9050818103604083015261239e818961219e565b905081810360608301526123b2818861219e565b90506123c16080830187612263565b6123ce60a0830186612263565b6123db60c0830185612263565b6123e860e0830184612263565b9998505050505050505050565b6000602082019050818103600083015261240e816121d7565b9050919050565b6000602082019050818103600083015261242e816121fa565b9050919050565b6000602082019050818103600083015261244e8161221d565b9050919050565b6000602082019050818103600083015261246e81612240565b9050919050565b600060208201905061248a6000830184612263565b92915050565b600060e0820190506124a5600083018a612263565b6124b260208301896120d2565b81810360408301526124c4818861219e565b905081810360608301526124d8818761219e565b90506124e76080830186612263565b6124f460a0830185612156565b61250160c0830184612156565b98975050505050505050565b6000612517612528565b90506125238282612707565b919050565b6000604051905090565b600067ffffffffffffffff82111561254d5761254c6127df565b5b602082029050602081019050919050565b600067ffffffffffffffff821115612579576125786127df565b5b6125828261280e565b9050602081019050919050565b6000819050602082019050919050565b600081519050919050565b600081519050919050565b6000602082019050919050565b600082825260208201905092915050565b600082825260208201905092915050565b600082825260208201905092915050565b600061260082612689565b915061260b83612689565b9250827fffffffffffffffffffffffffffffffffffffffffffffffffffffffffffffffff038211156126405761263f612781565b5b828201905092915050565b600061265682612669565b9050919050565b60008115159050919050565b600073ffffffffffffffffffffffffffffffffffffffff82169050919050565b6000819050919050565b82818337600083830152505050565b60005b838110156126c05780820151818401526020810190506126a5565b838111156126cf576000848401525b50505050565b600060028204905060018216806126ed57607f821691505b60208210811415612701576127006127b0565b5b50919050565b6127108261280e565b810181811067ffffffffffffffff8211171561272f5761272e6127df565b5b80604052505050565b600061274382612689565b91507fffffffffffffffffffffffffffffffffffffffffffffffffffffffffffffffff82141561277657612775612781565b5b600182019050919050565b7f4e487b7100000000000000000000000000000000000000000000000000000000600052601160045260246000fd5b7f4e487b7100000000000000000000000000000000000000000000000000000000600052602260045260246000fd5b7f4e487b7100000000000000000000000000000000000000000000000000000000600052604160045260246000fd5b6000601f19601f8301169050919050565b7f526567697374726174696f6e206973206e6f7420737461727465642079657400600082015250565b7f526567697374726174696f6e20697320616c726561647920656e6465642e0000600082015250565b7f566f74696e6720697320616c726561647920656e646564000000000000000000600082015250565b7f566f74696e67206973206e6f7420737461727465642079657400000000000000600082015250565b6128cc8161264b565b81146128d757600080fd5b50565b6128e38161265d565b81146128ee57600080fd5b50565b6128fa81612689565b811461290557600080fd5b5056fea2646970667358221220fa55c9df91d33070a4ef49433f14a92096f535e731f77a1c8ee0e2251b02cb3964736f6c63430008010033",
  "linkReferences": {},
  "deployedLinkReferences": {}
}