{
  "_format": "hh-sol-artifact-1",
  "contractName": "Election",
  "sourceName": "contracts/Election.sol",
  "abi": [
    {
      "inputs": [],
      "stateMutability": "nonpayable",
      "type": "constructor"
    },
    {
      "inputs": [],
      "name": "admin",
      "outputs": [
        {
          "internalType": "address",
          "name": "",
          "type": "address"
        }
      ],
      "stateMutability": "view",
      "type": "function"
    },
    {
      "inputs": [
        {
          "internalType": "uint256",
          "name": "",
          "type": "uint256"
        }
      ],
      "name": "approvedCandidates",
      "outputs": [
        {
          "internalType": "address",
          "name": "",
          "type": "address"
        }
      ],
      "stateMutability": "view",
      "type": "function"
    },
    {
      "inputs": [
        {
          "internalType": "uint256",
          "name": "",
          "type": "uint256"
        }
      ],
      "name": "approvedVoters",
      "outputs": [
        {
          "internalType": "address",
          "name": "",
          "type": "address"
        }
      ],
      "stateMutability": "view",
      "type": "function"
    },
    {
      "inputs": [
        {
          "internalType": "address",
          "name": "",
          "type": "address"
        }
      ],
      "name": "candidateDetails",
      "outputs": [
        {
          "internalType": "uint256",
          "name": "candidateId",
          "type": "uint256"
        },
        {
          "internalType": "address",
          "name": "candidateAddress",
          "type": "address"
        },
        {
          "internalType": "string",
          "name": "header",
          "type": "string"
        },
        {
          "internalType": "string",
          "name": "slogan",
          "type": "string"
        },
        {
          "internalType": "string",
          "name": "electionTitle",
          "type": "string"
        },
        {
          "internalType": "uint256",
          "name": "voteCount",
          "type": "uint256"
        },
        {
          "internalType": "bool",
          "name": "isVerified",
          "type": "bool"
        },
        {
          "internalType": "bool",
          "name": "isRegistered",
          "type": "bool"
        }
      ],
      "stateMutability": "view",
      "type": "function"
    },
    {
      "inputs": [
        {
          "internalType": "uint256",
          "name": "",
          "type": "uint256"
        }
      ],
      "name": "candidates",
      "outputs": [
        {
          "internalType": "address",
          "name": "",
          "type": "address"
        }
      ],
      "stateMutability": "view",
      "type": "function"
    },
    {
      "inputs": [],
      "name": "getAdmin",
      "outputs": [
        {
          "internalType": "address",
          "name": "",
          "type": "address"
        }
      ],
      "stateMutability": "view",
      "type": "function"
    },
    {
      "inputs": [],
      "name": "getAdminEmail",
      "outputs": [
        {
          "internalType": "string",
          "name": "",
          "type": "string"
        }
      ],
      "stateMutability": "view",
      "type": "function"
    },
    {
      "inputs": [],
      "name": "getAdminName",
      "outputs": [
        {
          "internalType": "string",
          "name": "",
          "type": "string"
        }
      ],
      "stateMutability": "view",
      "type": "function"
    },
    {
      "inputs": [],
      "name": "getAdminTitle",
      "outputs": [
        {
          "internalType": "string",
          "name": "",
          "type": "string"
        }
      ],
      "stateMutability": "view",
      "type": "function"
    },
    {
      "inputs": [],
      "name": "getElectionTitles",
      "outputs": [
        {
          "internalType": "string[]",
          "name": "",
          "type": "string[]"
        }
      ],
      "stateMutability": "view",
      "type": "function"
    },
    {
      "inputs": [],
      "name": "getEnd",
      "outputs": [
        {
          "internalType": "bool",
          "name": "",
          "type": "bool"
        }
      ],
      "stateMutability": "view",
      "type": "function"
    },
    {
      "inputs": [],
      "name": "getOrganizationTitle",
      "outputs": [
        {
          "internalType": "string",
          "name": "",
          "type": "string"
        }
      ],
      "stateMutability": "view",
      "type": "function"
    },
    {
      "inputs": [],
      "name": "getRegistrationEndTime",
      "outputs": [
        {
          "internalType": "uint256",
          "name": "",
          "type": "uint256"
        }
      ],
      "stateMutability": "view",
      "type": "function"
    },
    {
      "inputs": [],
      "name": "getRegistrationStartTime",
      "outputs": [
        {
          "internalType": "uint256",
          "name": "",
          "type": "uint256"
        }
      ],
      "stateMutability": "view",
      "type": "function"
    },
    {
      "inputs": [
        {
          "internalType": "uint256",
          "name": "_timeStamp",
          "type": "uint256"
        }
      ],
      "name": "getRegistrationStatus",
      "outputs": [
        {
          "internalType": "bool",
          "name": "",
          "type": "bool"
        }
      ],
      "stateMutability": "view",
      "type": "function"
    },
    {
      "inputs": [],
      "name": "getStart",
      "outputs": [
        {
          "internalType": "bool",
          "name": "",
          "type": "bool"
        }
      ],
      "stateMutability": "view",
      "type": "function"
    },
    {
      "inputs": [],
      "name": "getTotalCandidate",
      "outputs": [
        {
          "internalType": "uint256",
          "name": "",
          "type": "uint256"
        }
      ],
      "stateMutability": "view",
      "type": "function"
    },
    {
      "inputs": [],
      "name": "getTotalVoter",
      "outputs": [
        {
          "internalType": "uint256",
          "name": "",
          "type": "uint256"
        }
      ],
      "stateMutability": "view",
      "type": "function"
    },
    {
      "inputs": [
        {
          "internalType": "address",
          "name": "_currentAddress",
          "type": "address"
        }
      ],
      "name": "getVoterStatusForCandidate",
      "outputs": [
        {
          "internalType": "bool",
          "name": "",
          "type": "bool"
        }
      ],
      "stateMutability": "view",
      "type": "function"
    },
    {
      "inputs": [],
      "name": "getVotingEndTime",
      "outputs": [
        {
          "internalType": "uint256",
          "name": "",
          "type": "uint256"
        }
      ],
      "stateMutability": "view",
      "type": "function"
    },
    {
      "inputs": [],
      "name": "getVotingStartTime",
      "outputs": [
        {
          "internalType": "uint256",
          "name": "",
          "type": "uint256"
        }
      ],
      "stateMutability": "view",
      "type": "function"
    },
    {
      "inputs": [],
      "name": "getWinner",
      "outputs": [
        {
          "internalType": "address",
          "name": "",
          "type": "address"
        }
      ],
      "stateMutability": "view",
      "type": "function"
    },
    {
      "inputs": [
        {
          "internalType": "string",
          "name": "_header",
          "type": "string"
        },
        {
          "internalType": "string",
          "name": "_slogan",
          "type": "string"
        },
        {
          "internalType": "string",
          "name": "_electionTitle",
          "type": "string"
        }
      ],
      "name": "registerAsCandidate",
      "outputs": [],
      "stateMutability": "nonpayable",
      "type": "function"
    },
    {
      "inputs": [
        {
          "internalType": "string",
          "name": "_name",
          "type": "string"
        },
        {
          "internalType": "string",
          "name": "_phone",
          "type": "string"
        }
      ],
      "name": "registerAsVoter",
      "outputs": [],
      "stateMutability": "nonpayable",
      "type": "function"
    },
    {
      "inputs": [],
      "name": "registrationEndTime",
      "outputs": [
        {
          "internalType": "uint256",
          "name": "",
          "type": "uint256"
        }
      ],
      "stateMutability": "view",
      "type": "function"
    },
    {
      "inputs": [],
      "name": "registrationStartTime",
      "outputs": [
        {
          "internalType": "uint256",
          "name": "",
          "type": "uint256"
        }
      ],
      "stateMutability": "view",
      "type": "function"
    },
    {
      "inputs": [
        {
          "internalType": "string",
          "name": "_adminName",
          "type": "string"
        },
        {
          "internalType": "string",
          "name": "_adminEmail",
          "type": "string"
        },
        {
          "internalType": "string",
          "name": "_adminTitle",
          "type": "string"
        },
        {
          "internalType": "string",
          "name": "_organizationTitle",
          "type": "string"
        },
        {
          "internalType": "uint256",
          "name": "_votingStartTime",
          "type": "uint256"
        },
        {
          "internalType": "uint256",
          "name": "_votingEndTime",
          "type": "uint256"
        },
        {
          "internalType": "uint256",
          "name": "_registrationStartTime",
          "type": "uint256"
        },
        {
          "internalType": "uint256",
          "name": "_registrationEndTime",
          "type": "uint256"
        },
        {
          "internalType": "string[]",
          "name": "_elections",
          "type": "string[]"
        }
      ],
      "name": "setElectionDetails",
      "outputs": [],
      "stateMutability": "nonpayable",
      "type": "function"
    },
    {
      "inputs": [
        {
          "internalType": "bool",
          "name": "_verifedStatus",
          "type": "bool"
        },
        {
          "internalType": "address",
          "name": "candidateAddress",
          "type": "address"
        }
      ],
      "name": "verifyCandidate",
      "outputs": [],
      "stateMutability": "nonpayable",
      "type": "function"
    },
    {
      "inputs": [
        {
          "internalType": "bool",
          "name": "_verifedStatus",
          "type": "bool"
        },
        {
          "internalType": "address",
          "name": "voterAddress",
          "type": "address"
        }
      ],
      "name": "verifyVoter",
      "outputs": [],
      "stateMutability": "nonpayable",
      "type": "function"
    },
    {
      "inputs": [
        {
          "internalType": "address",
          "name": "_candidateAddress",
          "type": "address"
        }
      ],
      "name": "vote",
      "outputs": [],
      "stateMutability": "nonpayable",
      "type": "function"
    },
    {
      "inputs": [
        {
          "internalType": "address",
          "name": "",
          "type": "address"
        }
      ],
      "name": "voterDetails",
      "outputs": [
        {
          "internalType": "address",
          "name": "voterAddress",
          "type": "address"
        },
        {
          "internalType": "string",
          "name": "name",
          "type": "string"
        },
        {
          "internalType": "string",
          "name": "phone",
          "type": "string"
        },
        {
          "internalType": "bool",
          "name": "isVerified",
          "type": "bool"
        },
        {
          "internalType": "bool",
          "name": "hasVoted",
          "type": "bool"
        },
        {
          "internalType": "bool",
          "name": "isRegistered",
          "type": "bool"
        }
      ],
      "stateMutability": "view",
      "type": "function"
    },
    {
      "inputs": [
        {
          "internalType": "uint256",
          "name": "",
          "type": "uint256"
        }
      ],
      "name": "voters",
      "outputs": [
        {
          "internalType": "address",
          "name": "",
          "type": "address"
        }
      ],
      "stateMutability": "view",
      "type": "function"
    },
    {
      "inputs": [],
      "name": "votingEndTime",
      "outputs": [
        {
          "internalType": "uint256",
          "name": "",
          "type": "uint256"
        }
      ],
      "stateMutability": "view",
      "type": "function"
    },
    {
      "inputs": [],
      "name": "votingStartTime",
      "outputs": [
        {
          "internalType": "uint256",
          "name": "",
          "type": "uint256"
        }
      ],
      "stateMutability": "view",
      "type": "function"
    }
  ],
  "bytecode": "0x608060405234801561001057600080fd5b5033600360006101000a81548173ffffffffffffffffffffffffffffffffffffffff021916908373ffffffffffffffffffffffffffffffffffffffff1602179055506000600281905550600060018190555060008060026101000a81548160ff02191690831515021790555060008060036101000a81548160ff02191690831515021790555060008060006101000a81548160ff02191690831515021790555060008060016101000a81548160ff021916908315150217905550612b0f806100d96000396000f3fe608060405234801561001057600080fd5b50600436106102065760003560e01c80636e9960c31161011a578063c3a171a2116100ad578063da58c7d91161007c578063da58c7d9146105f1578063df6d278414610621578063dff7d2c71461063f578063f851a4401461065d578063fee0d19a1461067b57610206565b8063c3a171a21461057d578063c5292c6714610599578063c784d213146105b7578063cad43b48146105d557610206565b80639f05a36d116100e95780639f05a36d146104f3578063aed9301014610511578063b1bf87b014610541578063be081b6f1461055f57610206565b80636e9960c31461047b578063831318f1146104995780638e7ea5b2146104b75780639af5c09d146104d557610206565b80633477ee2e1161019d5780635938750d1161016c5780635938750d146103be5780635fcdd8a1146103f357806364d198a1146104235780636a82ee51146104415780636dd7d8ea1461045f57610206565b80633477ee2e146103245780633f66f48b146103545780634834317514610384578063506b8e0a146103a257610206565b80630e2354cf116101d95780630e2354cf1461029a57806319c5c507146102b85780631ea736e0146102e85780632019a6081461030657610206565b806305e73ced1461020b5780630712aa0514610242578063079ddd11146102605780630b93400e1461027c575b600080fd5b61022560048036038101906102209190611eca565b610697565b604051610239989796959493929190611fd3565b60405180910390f35b61024a6108b1565b6040516102579190612172565b60405180910390f35b61027a600480360381019061027591906122c9565b610a03565b005b610284610ca2565b6040516102919190612370565b60405180910390f35b6102a2610cac565b6040516102af919061238b565b60405180910390f35b6102d260048036038101906102cd91906123d9565b610d41565b6040516102df9190612406565b60405180910390f35b6102f0610d74565b6040516102fd9190612370565b60405180910390f35b61030e610d7a565b60405161031b9190612370565b60405180910390f35b61033e600480360381019061033991906123d9565b610d80565b60405161034b9190612421565b60405180910390f35b61036e600480360381019061036991906123d9565b610dbf565b60405161037b9190612421565b60405180910390f35b61038c610dfe565b604051610399919061238b565b60405180910390f35b6103bc60048036038101906103b79190612468565b610e93565b005b6103d860048036038101906103d39190611eca565b610fae565b6040516103ea969594939291906124a8565b60405180910390f35b61040d60048036038101906104089190611eca565b611141565b60405161041a9190612406565b60405180910390f35b61042b6111f0565b6040516104389190612370565b60405180910390f35b6104496111fa565b6040516104569190612370565b60405180910390f35b61047960048036038101906104749190611eca565b611204565b005b610483611406565b6040516104909190612421565b60405180910390f35b6104a1611430565b6040516104ae919061238b565b60405180910390f35b6104bf6114c5565b6040516104cc9190612421565b60405180910390f35b6104dd611595565b6040516104ea9190612370565b60405180910390f35b6104fb61159b565b6040516105089190612406565b60405180910390f35b61052b600480360381019061052691906123d9565b6115b1565b6040516105389190612421565b60405180910390f35b6105496115f0565b6040516105569190612370565b60405180910390f35b6105676115fa565b604051610574919061238b565b60405180910390f35b610597600480360381019061059291906125fd565b61168f565b005b6105a16118c2565b6040516105ae9190612406565b60405180910390f35b6105bf6118d8565b6040516105cc9190612370565b60405180910390f35b6105ef60048036038101906105ea9190612468565b6118e2565b005b61060b600480360381019061060691906123d9565b6119fd565b6040516106189190612421565b60405180910390f35b610629611a3c565b6040516106369190612370565b60405180910390f35b610647611a46565b6040516106549190612370565b60405180910390f35b610665611a4c565b6040516106729190612421565b60405180910390f35b61069560048036038101906106909190612753565b611a72565b005b60096020528060005260406000206000915090508060000154908060010160009054906101000a900473ffffffffffffffffffffffffffffffffffffffff16908060020180546106e6906127fa565b80601f0160208091040260200160405190810160405280929190818152602001828054610712906127fa565b801561075f5780601f106107345761010080835404028352916020019161075f565b820191906000526020600020905b81548152906001019060200180831161074257829003601f168201915b505050505090806003018054610774906127fa565b80601f01602080910402602001604051908101604052809291908181526020018280546107a0906127fa565b80156107ed5780601f106107c2576101008083540402835291602001916107ed565b820191906000526020600020905b8154815290600101906020018083116107d057829003601f168201915b505050505090806004018054610802906127fa565b80601f016020809104026020016040519081016040528092919081815260200182805461082e906127fa565b801561087b5780601f106108505761010080835404028352916020019161087b565b820191906000526020600020905b81548152906001019060200180831161085e57829003601f168201915b5050505050908060050154908060060160009054906101000a900460ff16908060060160019054906101000a900460ff16905088565b60606000600e6008018054905067ffffffffffffffff8111156108d7576108d661219e565b5b60405190808252806020026020018201604052801561090a57816020015b60608152602001906001900390816108f55790505b50905060005b600e600801805490508110156109fb57600e60080181815481106109375761093661282c565b5b90600052602060002001805461094c906127fa565b80601f0160208091040260200160405190810160405280929190818152602001828054610978906127fa565b80156109c55780601f1061099a576101008083540402835291602001916109c5565b820191906000526020600020905b8154815290600101906020018083116109a857829003601f168201915b50505050508282815181106109dd576109dc61282c565b5b602002602001018190525080806109f39061288a565b915050610910565b508091505090565b600a54421015610a48576040517f08c379a0000000000000000000000000000000000000000000000000000000008152600401610a3f9061291f565b60405180910390fd5b600b54421115610a8d576040517f08c379a0000000000000000000000000000000000000000000000000000000008152600401610a849061298b565b60405180910390fd5b600060405180610100016040528060025481526020013373ffffffffffffffffffffffffffffffffffffffff1681526020018581526020018481526020018381526020016000815260200160001515815260200160011515815250905080600960003373ffffffffffffffffffffffffffffffffffffffff1673ffffffffffffffffffffffffffffffffffffffff1681526020019081526020016000206000820151816000015560208201518160010160006101000a81548173ffffffffffffffffffffffffffffffffffffffff021916908373ffffffffffffffffffffffffffffffffffffffff1602179055506040820151816002019080519060200190610b97929190611cf1565b506060820151816003019080519060200190610bb4929190611cf1565b506080820151816004019080519060200190610bd1929190611cf1565b5060a0820151816005015560c08201518160060160006101000a81548160ff02191690831515021790555060e08201518160060160016101000a81548160ff0219169083151502179055509050506005339080600181540180825580915050600190039060005260206000200160009091909190916101000a81548173ffffffffffffffffffffffffffffffffffffffff021916908373ffffffffffffffffffffffffffffffffffffffff160217905550600160026000828254610c9591906129ab565b9250508190555050505050565b6000600154905090565b6060600e6000018054610cbe906127fa565b80601f0160208091040260200160405190810160405280929190818152602001828054610cea906127fa565b8015610d375780601f10610d0c57610100808354040283529160200191610d37565b820191906000526020600020905b815481529060010190602001808311610d1a57829003601f168201915b5050505050905090565b600080600a548310158015610d585750600b548311155b15610d665760019050610d6b565b600090505b80915050919050565b600d5481565b600c5481565b60058181548110610d9057600080fd5b906000526020600020016000915054906101000a900473ffffffffffffffffffffffffffffffffffffffff1681565b60078181548110610dcf57600080fd5b906000526020600020016000915054906101000a900473ffffffffffffffffffffffffffffffffffffffff1681565b6060600e6003018054610e10906127fa565b80601f0160208091040260200160405190810160405280929190818152602001828054610e3c906127fa565b8015610e895780601f10610e5e57610100808354040283529160200191610e89565b820191906000526020600020905b815481529060010190602001808311610e6c57829003601f168201915b5050505050905090565b600360009054906101000a900473ffffffffffffffffffffffffffffffffffffffff1673ffffffffffffffffffffffffffffffffffffffff163373ffffffffffffffffffffffffffffffffffffffff1614610eed57600080fd5b81600860008373ffffffffffffffffffffffffffffffffffffffff1673ffffffffffffffffffffffffffffffffffffffff16815260200190815260200160002060030160006101000a81548160ff0219169083151502179055506006819080600181540180825580915050600190039060005260206000200160009091909190916101000a81548173ffffffffffffffffffffffffffffffffffffffff021916908373ffffffffffffffffffffffffffffffffffffffff1602179055505050565b60086020528060005260406000206000915090508060000160009054906101000a900473ffffffffffffffffffffffffffffffffffffffff1690806001018054610ff7906127fa565b80601f0160208091040260200160405190810160405280929190818152602001828054611023906127fa565b80156110705780601f1061104557610100808354040283529160200191611070565b820191906000526020600020905b81548152906001019060200180831161105357829003601f168201915b505050505090806002018054611085906127fa565b80601f01602080910402602001604051908101604052809291908181526020018280546110b1906127fa565b80156110fe5780601f106110d3576101008083540402835291602001916110fe565b820191906000526020600020905b8154815290600101906020018083116110e157829003601f168201915b5050505050908060030160009054906101000a900460ff16908060030160019054906101000a900460ff16908060030160029054906101000a900460ff16905086565b6000806000905060005b6006805490508110156111e6576006818154811061116c5761116b61282c565b5b9060005260206000200160009054906101000a900473ffffffffffffffffffffffffffffffffffffffff1673ffffffffffffffffffffffffffffffffffffffff168473ffffffffffffffffffffffffffffffffffffffff1614156111d357600191506111e6565b80806111de9061288a565b91505061114b565b5080915050919050565b6000600254905090565b6000600c54905090565b600c54421015611249576040517f08c379a000000000000000000000000000000000000000000000000000000000815260040161124090612a4d565b60405180910390fd5b600d5442111561128e576040517f08c379a000000000000000000000000000000000000000000000000000000000815260040161128590612ab9565b60405180910390fd5b60001515600860003373ffffffffffffffffffffffffffffffffffffffff1673ffffffffffffffffffffffffffffffffffffffff16815260200190815260200160002060030160019054906101000a900460ff161515146112ee57600080fd5b60011515600860003373ffffffffffffffffffffffffffffffffffffffff1673ffffffffffffffffffffffffffffffffffffffff16815260200190815260200160002060030160009054906101000a900460ff1615151461134e57600080fd5b6001600960008373ffffffffffffffffffffffffffffffffffffffff1673ffffffffffffffffffffffffffffffffffffffff16815260200190815260200160002060050160008282546113a191906129ab565b925050819055506001600860003373ffffffffffffffffffffffffffffffffffffffff1673ffffffffffffffffffffffffffffffffffffffff16815260200190815260200160002060030160016101000a81548160ff02191690831515021790555050565b6000600360009054906101000a900473ffffffffffffffffffffffffffffffffffffffff16905090565b6060600e6001018054611442906127fa565b80601f016020809104026020016040519081016040528092919081815260200182805461146e906127fa565b80156114bb5780601f10611490576101008083540402835291602001916114bb565b820191906000526020600020905b81548152906001019060200180831161149e57829003601f168201915b5050505050905090565b60008060009050600080600090505b60025481101561158c576000600582815481106114f4576114f361282c565b5b9060005260206000200160009054906101000a900473ffffffffffffffffffffffffffffffffffffffff1690506000600960008373ffffffffffffffffffffffffffffffffffffffff1673ffffffffffffffffffffffffffffffffffffffff16815260200190815260200160002060050154905084811115611577578094508193505b505080806115849061288a565b9150506114d4565b50809250505090565b600a5481565b60008060019054906101000a900460ff16905090565b600681815481106115c157600080fd5b906000526020600020016000915054906101000a900473ffffffffffffffffffffffffffffffffffffffff1681565b6000600d54905090565b6060600e600201805461160c906127fa565b80601f0160208091040260200160405190810160405280929190818152602001828054611638906127fa565b80156116855780601f1061165a57610100808354040283529160200191611685565b820191906000526020600020905b81548152906001019060200180831161166857829003601f168201915b5050505050905090565b600360009054906101000a900473ffffffffffffffffffffffffffffffffffffffff1673ffffffffffffffffffffffffffffffffffffffff163373ffffffffffffffffffffffffffffffffffffffff16146116e957600080fd5b6000815167ffffffffffffffff8111156117065761170561219e565b5b60405190808252806020026020018201604052801561173957816020015b60608152602001906001900390816117245790505b50905060005b82518110156117945782818151811061175b5761175a61282c565b5b60200260200101518282815181106117765761177561282c565b5b6020026020010181905250808061178c9061288a565b91505061173f565b5060006040518061012001604052808c81526020018b81526020018a815260200189815260200188815260200187815260200186815260200185815260200183815250905080600e60008201518160000190805190602001906117f8929190611cf1565b506020820151816001019080519060200190611815929190611cf1565b506040820151816002019080519060200190611832929190611cf1565b50606082015181600301908051906020019061184f929190611cf1565b506080820151816004015560a0820151816005015560c0820151816006015560e08201518160070155610100820151816008019080519060200190611895929190611d77565b5090505084600a8190555083600b8190555086600c8190555085600d819055505050505050505050505050565b60008060009054906101000a900460ff16905090565b6000600b54905090565b600360009054906101000a900473ffffffffffffffffffffffffffffffffffffffff1673ffffffffffffffffffffffffffffffffffffffff163373ffffffffffffffffffffffffffffffffffffffff161461193c57600080fd5b81600960008373ffffffffffffffffffffffffffffffffffffffff1673ffffffffffffffffffffffffffffffffffffffff16815260200190815260200160002060060160006101000a81548160ff0219169083151502179055506007819080600181540180825580915050600190039060005260206000200160009091909190916101000a81548173ffffffffffffffffffffffffffffffffffffffff021916908373ffffffffffffffffffffffffffffffffffffffff1602179055505050565b60048181548110611a0d57600080fd5b906000526020600020016000915054906101000a900473ffffffffffffffffffffffffffffffffffffffff1681565b6000600a54905090565b600b5481565b600360009054906101000a900473ffffffffffffffffffffffffffffffffffffffff1681565b600a54421015611ab7576040517f08c379a0000000000000000000000000000000000000000000000000000000008152600401611aae9061291f565b60405180910390fd5b600b54421115611afc576040517f08c379a0000000000000000000000000000000000000000000000000000000008152600401611af39061298b565b60405180910390fd5b60006040518060c001604052803373ffffffffffffffffffffffffffffffffffffffff16815260200184815260200183815260200160001515815260200160001515815260200160011515815250905080600860003373ffffffffffffffffffffffffffffffffffffffff1673ffffffffffffffffffffffffffffffffffffffff16815260200190815260200160002060008201518160000160006101000a81548173ffffffffffffffffffffffffffffffffffffffff021916908373ffffffffffffffffffffffffffffffffffffffff1602179055506020820151816001019080519060200190611bef929190611cf1565b506040820151816002019080519060200190611c0c929190611cf1565b5060608201518160030160006101000a81548160ff02191690831515021790555060808201518160030160016101000a81548160ff02191690831515021790555060a08201518160030160026101000a81548160ff0219169083151502179055509050506004339080600181540180825580915050600190039060005260206000200160009091909190916101000a81548173ffffffffffffffffffffffffffffffffffffffff021916908373ffffffffffffffffffffffffffffffffffffffff1602179055506001806000828254611ce591906129ab565b92505081905550505050565b828054611cfd906127fa565b90600052602060002090601f016020900481019282611d1f5760008555611d66565b82601f10611d3857805160ff1916838001178555611d66565b82800160010185558215611d66579182015b82811115611d65578251825591602001919060010190611d4a565b5b509050611d739190611dd7565b5090565b828054828255906000526020600020908101928215611dc6579160200282015b82811115611dc5578251829080519060200190611db5929190611cf1565b5091602001919060010190611d97565b5b509050611dd39190611df4565b5090565b5b80821115611df0576000816000905550600101611dd8565b5090565b5b80821115611e145760008181611e0b9190611e18565b50600101611df5565b5090565b508054611e24906127fa565b6000825580601f10611e365750611e55565b601f016020900490600052602060002090810190611e549190611dd7565b5b50565b6000604051905090565b600080fd5b600080fd5b600073ffffffffffffffffffffffffffffffffffffffff82169050919050565b6000611e9782611e6c565b9050919050565b611ea781611e8c565b8114611eb257600080fd5b50565b600081359050611ec481611e9e565b92915050565b600060208284031215611ee057611edf611e62565b5b6000611eee84828501611eb5565b91505092915050565b6000819050919050565b611f0a81611ef7565b82525050565b611f1981611e8c565b82525050565b600081519050919050565b600082825260208201905092915050565b60005b83811015611f59578082015181840152602081019050611f3e565b83811115611f68576000848401525b50505050565b6000601f19601f8301169050919050565b6000611f8a82611f1f565b611f948185611f2a565b9350611fa4818560208601611f3b565b611fad81611f6e565b840191505092915050565b60008115159050919050565b611fcd81611fb8565b82525050565b600061010082019050611fe9600083018b611f01565b611ff6602083018a611f10565b81810360408301526120088189611f7f565b9050818103606083015261201c8188611f7f565b905081810360808301526120308187611f7f565b905061203f60a0830186611f01565b61204c60c0830185611fc4565b61205960e0830184611fc4565b9998505050505050505050565b600081519050919050565b600082825260208201905092915050565b6000819050602082019050919050565b600082825260208201905092915050565b60006120ae82611f1f565b6120b88185612092565b93506120c8818560208601611f3b565b6120d181611f6e565b840191505092915050565b60006120e883836120a3565b905092915050565b6000602082019050919050565b600061210882612066565b6121128185612071565b93508360208202850161212485612082565b8060005b85811015612160578484038952815161214185826120dc565b945061214c836120f0565b925060208a01995050600181019050612128565b50829750879550505050505092915050565b6000602082019050818103600083015261218c81846120fd565b905092915050565b600080fd5b600080fd5b7f4e487b7100000000000000000000000000000000000000000000000000000000600052604160045260246000fd5b6121d682611f6e565b810181811067ffffffffffffffff821117156121f5576121f461219e565b5b80604052505050565b6000612208611e58565b905061221482826121cd565b919050565b600067ffffffffffffffff8211156122345761223361219e565b5b61223d82611f6e565b9050602081019050919050565b82818337600083830152505050565b600061226c61226784612219565b6121fe565b90508281526020810184848401111561228857612287612199565b5b61229384828561224a565b509392505050565b600082601f8301126122b0576122af612194565b5b81356122c0848260208601612259565b91505092915050565b6000806000606084860312156122e2576122e1611e62565b5b600084013567ffffffffffffffff811115612300576122ff611e67565b5b61230c8682870161229b565b935050602084013567ffffffffffffffff81111561232d5761232c611e67565b5b6123398682870161229b565b925050604084013567ffffffffffffffff81111561235a57612359611e67565b5b6123668682870161229b565b9150509250925092565b60006020820190506123856000830184611f01565b92915050565b600060208201905081810360008301526123a58184611f7f565b905092915050565b6123b681611ef7565b81146123c157600080fd5b50565b6000813590506123d3816123ad565b92915050565b6000602082840312156123ef576123ee611e62565b5b60006123fd848285016123c4565b91505092915050565b600060208201905061241b6000830184611fc4565b92915050565b60006020820190506124366000830184611f10565b92915050565b61244581611fb8565b811461245057600080fd5b50565b6000813590506124628161243c565b92915050565b6000806040838503121561247f5761247e611e62565b5b600061248d85828601612453565b925050602061249e85828601611eb5565b9150509250929050565b600060c0820190506124bd6000830189611f10565b81810360208301526124cf8188611f7f565b905081810360408301526124e38187611f7f565b90506124f26060830186611fc4565b6124ff6080830185611fc4565b61250c60a0830184611fc4565b979650505050505050565b600067ffffffffffffffff8211156125325761253161219e565b5b602082029050602081019050919050565b600080fd5b600061255b61255684612517565b6121fe565b9050808382526020820190506020840283018581111561257e5761257d612543565b5b835b818110156125c557803567ffffffffffffffff8111156125a3576125a2612194565b5b8086016125b0898261229b565b85526020850194505050602081019050612580565b5050509392505050565b600082601f8301126125e4576125e3612194565b5b81356125f4848260208601612548565b91505092915050565b60008060008060008060008060006101208a8c0312156126205761261f611e62565b5b60008a013567ffffffffffffffff81111561263e5761263d611e67565b5b61264a8c828d0161229b565b99505060208a013567ffffffffffffffff81111561266b5761266a611e67565b5b6126778c828d0161229b565b98505060408a013567ffffffffffffffff81111561269857612697611e67565b5b6126a48c828d0161229b565b97505060608a013567ffffffffffffffff8111156126c5576126c4611e67565b5b6126d18c828d0161229b565b96505060806126e28c828d016123c4565b95505060a06126f38c828d016123c4565b94505060c06127048c828d016123c4565b93505060e06127158c828d016123c4565b9250506101008a013567ffffffffffffffff81111561273757612736611e67565b5b6127438c828d016125cf565b9150509295985092959850929598565b6000806040838503121561276a57612769611e62565b5b600083013567ffffffffffffffff81111561278857612787611e67565b5b6127948582860161229b565b925050602083013567ffffffffffffffff8111156127b5576127b4611e67565b5b6127c18582860161229b565b9150509250929050565b7f4e487b7100000000000000000000000000000000000000000000000000000000600052602260045260246000fd5b6000600282049050600182168061281257607f821691505b60208210811415612826576128256127cb565b5b50919050565b7f4e487b7100000000000000000000000000000000000000000000000000000000600052603260045260246000fd5b7f4e487b7100000000000000000000000000000000000000000000000000000000600052601160045260246000fd5b600061289582611ef7565b91507fffffffffffffffffffffffffffffffffffffffffffffffffffffffffffffffff8214156128c8576128c761285b565b5b600182019050919050565b7f526567697374726174696f6e206973206e6f7420737461727465642079657400600082015250565b6000612909601f83611f2a565b9150612914826128d3565b602082019050919050565b60006020820190508181036000830152612938816128fc565b9050919050565b7f526567697374726174696f6e20697320616c726561647920656e6465642e0000600082015250565b6000612975601e83611f2a565b91506129808261293f565b602082019050919050565b600060208201905081810360008301526129a481612968565b9050919050565b60006129b682611ef7565b91506129c183611ef7565b9250827fffffffffffffffffffffffffffffffffffffffffffffffffffffffffffffffff038211156129f6576129f561285b565b5b828201905092915050565b7f566f74696e67206973206e6f7420737461727465642079657400000000000000600082015250565b6000612a37601983611f2a565b9150612a4282612a01565b602082019050919050565b60006020820190508181036000830152612a6681612a2a565b9050919050565b7f566f74696e6720697320616c726561647920656e646564000000000000000000600082015250565b6000612aa3601783611f2a565b9150612aae82612a6d565b602082019050919050565b60006020820190508181036000830152612ad281612a96565b905091905056fea2646970667358221220810163c5c9baeb958df4da346f2c38b5db5b3ad5da2401d917f8f96ecf841f3f64736f6c634300080b0033",
  "linkReferences": {},
  "deployedLinkReferences": {}
}