{
  "_format": "hh-sol-artifact-1",
  "contractName": "Election",
  "sourceName": "contracts/Election.sol",
  "abi": [
    {
      "inputs": [],
      "stateMutability": "nonpayable",
      "type": "constructor"
    },
    {
      "inputs": [],
      "name": "admin",
      "outputs": [
        {
          "internalType": "address",
          "name": "",
          "type": "address"
        }
      ],
      "stateMutability": "view",
      "type": "function"
    },
    {
      "inputs": [
        {
          "internalType": "uint256",
          "name": "",
          "type": "uint256"
        }
      ],
      "name": "approvedCandidates",
      "outputs": [
        {
          "internalType": "address",
          "name": "",
          "type": "address"
        }
      ],
      "stateMutability": "view",
      "type": "function"
    },
    {
      "inputs": [
        {
          "internalType": "uint256",
          "name": "",
          "type": "uint256"
        }
      ],
      "name": "approvedVoters",
      "outputs": [
        {
          "internalType": "address",
          "name": "",
          "type": "address"
        }
      ],
      "stateMutability": "view",
      "type": "function"
    },
    {
      "inputs": [
        {
          "internalType": "address",
          "name": "",
          "type": "address"
        }
      ],
      "name": "candidateDetails",
      "outputs": [
        {
          "internalType": "uint256",
          "name": "candidateId",
          "type": "uint256"
        },
        {
          "internalType": "address",
          "name": "candidateAddress",
          "type": "address"
        },
        {
          "internalType": "string",
          "name": "header",
          "type": "string"
        },
        {
          "internalType": "string",
          "name": "slogan",
          "type": "string"
        },
        {
          "internalType": "uint256",
          "name": "electionTitleIndex",
          "type": "uint256"
        },
        {
          "internalType": "uint256",
          "name": "voteCount",
          "type": "uint256"
        },
        {
          "internalType": "bool",
          "name": "isVerified",
          "type": "bool"
        },
        {
          "internalType": "bool",
          "name": "isRegistered",
          "type": "bool"
        }
      ],
      "stateMutability": "view",
      "type": "function"
    },
    {
      "inputs": [
        {
          "internalType": "uint256",
          "name": "",
          "type": "uint256"
        }
      ],
      "name": "candidates",
      "outputs": [
        {
          "internalType": "address",
          "name": "",
          "type": "address"
        }
      ],
      "stateMutability": "view",
      "type": "function"
    },
    {
      "inputs": [],
      "name": "getAdmin",
      "outputs": [
        {
          "internalType": "address",
          "name": "",
          "type": "address"
        }
      ],
      "stateMutability": "view",
      "type": "function"
    },
    {
      "inputs": [],
      "name": "getAdminEmail",
      "outputs": [
        {
          "internalType": "string",
          "name": "",
          "type": "string"
        }
      ],
      "stateMutability": "view",
      "type": "function"
    },
    {
      "inputs": [],
      "name": "getAdminName",
      "outputs": [
        {
          "internalType": "string",
          "name": "",
          "type": "string"
        }
      ],
      "stateMutability": "view",
      "type": "function"
    },
    {
      "inputs": [],
      "name": "getAdminTitle",
      "outputs": [
        {
          "internalType": "string",
          "name": "",
          "type": "string"
        }
      ],
      "stateMutability": "view",
      "type": "function"
    },
    {
      "inputs": [
        {
          "internalType": "address",
          "name": "_currentAddress",
          "type": "address"
        }
      ],
      "name": "getAlreadyRegisteredCandidateStatus",
      "outputs": [
        {
          "internalType": "bool",
          "name": "",
          "type": "bool"
        }
      ],
      "stateMutability": "view",
      "type": "function"
    },
    {
      "inputs": [
        {
          "internalType": "uint256",
          "name": "_electionTitleIndex",
          "type": "uint256"
        }
      ],
      "name": "getCandidateCountForAsscociatedElection",
      "outputs": [
        {
          "internalType": "uint256",
          "name": "",
          "type": "uint256"
        }
      ],
      "stateMutability": "view",
      "type": "function"
    },
    {
      "inputs": [
        {
          "internalType": "uint256",
          "name": "_electionTitleIndex",
          "type": "uint256"
        }
      ],
      "name": "getCandidatesForAssociatedElections",
      "outputs": [
        {
          "components": [
            {
              "internalType": "uint256",
              "name": "candidateId",
              "type": "uint256"
            },
            {
              "internalType": "address",
              "name": "candidateAddress",
              "type": "address"
            },
            {
              "internalType": "string",
              "name": "header",
              "type": "string"
            },
            {
              "internalType": "string",
              "name": "slogan",
              "type": "string"
            },
            {
              "internalType": "uint256",
              "name": "electionTitleIndex",
              "type": "uint256"
            },
            {
              "internalType": "uint256",
              "name": "voteCount",
              "type": "uint256"
            },
            {
              "internalType": "bool",
              "name": "isVerified",
              "type": "bool"
            },
            {
              "internalType": "bool",
              "name": "isRegistered",
              "type": "bool"
            }
          ],
          "internalType": "struct Election.Candidate[]",
          "name": "",
          "type": "tuple[]"
        }
      ],
      "stateMutability": "view",
      "type": "function"
    },
    {
      "inputs": [],
      "name": "getElectionInitStatus",
      "outputs": [
        {
          "internalType": "bool",
          "name": "",
          "type": "bool"
        }
      ],
      "stateMutability": "view",
      "type": "function"
    },
    {
      "inputs": [
        {
          "internalType": "uint256",
          "name": "_timeStamp",
          "type": "uint256"
        }
      ],
      "name": "getElectionStatus",
      "outputs": [
        {
          "internalType": "bool",
          "name": "",
          "type": "bool"
        }
      ],
      "stateMutability": "view",
      "type": "function"
    },
    {
      "inputs": [],
      "name": "getElectionTitles",
      "outputs": [
        {
          "internalType": "string[]",
          "name": "",
          "type": "string[]"
        }
      ],
      "stateMutability": "view",
      "type": "function"
    },
    {
      "inputs": [],
      "name": "getEnd",
      "outputs": [
        {
          "internalType": "bool",
          "name": "",
          "type": "bool"
        }
      ],
      "stateMutability": "view",
      "type": "function"
    },
    {
      "inputs": [],
      "name": "getOrganizationTitle",
      "outputs": [
        {
          "internalType": "string",
          "name": "",
          "type": "string"
        }
      ],
      "stateMutability": "view",
      "type": "function"
    },
    {
      "inputs": [],
      "name": "getRegistrationEndTime",
      "outputs": [
        {
          "internalType": "uint256",
          "name": "",
          "type": "uint256"
        }
      ],
      "stateMutability": "view",
      "type": "function"
    },
    {
      "inputs": [],
      "name": "getRegistrationStartTime",
      "outputs": [
        {
          "internalType": "uint256",
          "name": "",
          "type": "uint256"
        }
      ],
      "stateMutability": "view",
      "type": "function"
    },
    {
      "inputs": [
        {
          "internalType": "uint256",
          "name": "_timeStamp",
          "type": "uint256"
        }
      ],
      "name": "getRegistrationStatus",
      "outputs": [
        {
          "internalType": "bool",
          "name": "",
          "type": "bool"
        }
      ],
      "stateMutability": "view",
      "type": "function"
    },
    {
      "inputs": [],
      "name": "getStart",
      "outputs": [
        {
          "internalType": "bool",
          "name": "",
          "type": "bool"
        }
      ],
      "stateMutability": "view",
      "type": "function"
    },
    {
      "inputs": [],
      "name": "getTotalCandidate",
      "outputs": [
        {
          "internalType": "uint256",
          "name": "",
          "type": "uint256"
        }
      ],
      "stateMutability": "view",
      "type": "function"
    },
    {
      "inputs": [],
      "name": "getTotalVoter",
      "outputs": [
        {
          "internalType": "uint256",
          "name": "",
          "type": "uint256"
        }
      ],
      "stateMutability": "view",
      "type": "function"
    },
    {
      "inputs": [
        {
          "internalType": "address",
          "name": "_currentAddress",
          "type": "address"
        }
      ],
      "name": "getVoterStatusForCandidate",
      "outputs": [
        {
          "internalType": "bool",
          "name": "",
          "type": "bool"
        }
      ],
      "stateMutability": "view",
      "type": "function"
    },
    {
      "inputs": [],
      "name": "getVotingEndTime",
      "outputs": [
        {
          "internalType": "uint256",
          "name": "",
          "type": "uint256"
        }
      ],
      "stateMutability": "view",
      "type": "function"
    },
    {
      "inputs": [],
      "name": "getVotingStartTime",
      "outputs": [
        {
          "internalType": "uint256",
          "name": "",
          "type": "uint256"
        }
      ],
      "stateMutability": "view",
      "type": "function"
    },
    {
      "inputs": [],
      "name": "getWinner",
      "outputs": [
        {
          "internalType": "address",
          "name": "",
          "type": "address"
        }
      ],
      "stateMutability": "view",
      "type": "function"
    },
    {
      "inputs": [
        {
          "internalType": "string",
          "name": "_header",
          "type": "string"
        },
        {
          "internalType": "string",
          "name": "_slogan",
          "type": "string"
        },
        {
          "internalType": "uint256",
          "name": "_electionTitleIndex",
          "type": "uint256"
        }
      ],
      "name": "registerAsCandidate",
      "outputs": [],
      "stateMutability": "nonpayable",
      "type": "function"
    },
    {
      "inputs": [
        {
          "internalType": "string",
          "name": "_name",
          "type": "string"
        },
        {
          "internalType": "string",
          "name": "_phone",
          "type": "string"
        }
      ],
      "name": "registerAsVoter",
      "outputs": [],
      "stateMutability": "nonpayable",
      "type": "function"
    },
    {
      "inputs": [],
      "name": "registrationEndTime",
      "outputs": [
        {
          "internalType": "uint256",
          "name": "",
          "type": "uint256"
        }
      ],
      "stateMutability": "view",
      "type": "function"
    },
    {
      "inputs": [],
      "name": "registrationStartTime",
      "outputs": [
        {
          "internalType": "uint256",
          "name": "",
          "type": "uint256"
        }
      ],
      "stateMutability": "view",
      "type": "function"
    },
    {
      "inputs": [
        {
          "internalType": "string",
          "name": "_adminName",
          "type": "string"
        },
        {
          "internalType": "string",
          "name": "_adminEmail",
          "type": "string"
        },
        {
          "internalType": "string",
          "name": "_adminTitle",
          "type": "string"
        },
        {
          "internalType": "string",
          "name": "_organizationTitle",
          "type": "string"
        },
        {
          "internalType": "uint256",
          "name": "_votingStartTime",
          "type": "uint256"
        },
        {
          "internalType": "uint256",
          "name": "_votingEndTime",
          "type": "uint256"
        },
        {
          "internalType": "uint256",
          "name": "_registrationStartTime",
          "type": "uint256"
        },
        {
          "internalType": "uint256",
          "name": "_registrationEndTime",
          "type": "uint256"
        },
        {
          "internalType": "string[]",
          "name": "_elections",
          "type": "string[]"
        }
      ],
      "name": "setElectionDetails",
      "outputs": [],
      "stateMutability": "nonpayable",
      "type": "function"
    },
    {
      "inputs": [
        {
          "internalType": "bool",
          "name": "_verifedStatus",
          "type": "bool"
        },
        {
          "internalType": "address",
          "name": "candidateAddress",
          "type": "address"
        }
      ],
      "name": "verifyCandidate",
      "outputs": [],
      "stateMutability": "nonpayable",
      "type": "function"
    },
    {
      "inputs": [
        {
          "internalType": "bool",
          "name": "_verifedStatus",
          "type": "bool"
        },
        {
          "internalType": "address",
          "name": "voterAddress",
          "type": "address"
        }
      ],
      "name": "verifyVoter",
      "outputs": [],
      "stateMutability": "nonpayable",
      "type": "function"
    },
    {
      "inputs": [
        {
          "internalType": "address",
          "name": "_candidateAddress",
          "type": "address"
        }
      ],
      "name": "vote",
      "outputs": [],
      "stateMutability": "nonpayable",
      "type": "function"
    },
    {
      "inputs": [
        {
          "internalType": "address",
          "name": "",
          "type": "address"
        }
      ],
      "name": "voterDetails",
      "outputs": [
        {
          "internalType": "address",
          "name": "voterAddress",
          "type": "address"
        },
        {
          "internalType": "string",
          "name": "name",
          "type": "string"
        },
        {
          "internalType": "string",
          "name": "phone",
          "type": "string"
        },
        {
          "internalType": "bool",
          "name": "isVerified",
          "type": "bool"
        },
        {
          "internalType": "bool",
          "name": "hasVoted",
          "type": "bool"
        },
        {
          "internalType": "bool",
          "name": "isRegistered",
          "type": "bool"
        }
      ],
      "stateMutability": "view",
      "type": "function"
    },
    {
      "inputs": [
        {
          "internalType": "uint256",
          "name": "",
          "type": "uint256"
        }
      ],
      "name": "voters",
      "outputs": [
        {
          "internalType": "address",
          "name": "",
          "type": "address"
        }
      ],
      "stateMutability": "view",
      "type": "function"
    },
    {
      "inputs": [],
      "name": "votingEndTime",
      "outputs": [
        {
          "internalType": "uint256",
          "name": "",
          "type": "uint256"
        }
      ],
      "stateMutability": "view",
      "type": "function"
    },
    {
      "inputs": [],
      "name": "votingStartTime",
      "outputs": [
        {
          "internalType": "uint256",
          "name": "",
          "type": "uint256"
        }
      ],
      "stateMutability": "view",
      "type": "function"
    }
  ],
  "bytecode": "0x608060405234801561001057600080fd5b5033600360006101000a81548173ffffffffffffffffffffffffffffffffffffffff021916908373ffffffffffffffffffffffffffffffffffffffff1602179055506000600281905550600060018190555060008060006101000a81548160ff02191690831515021790555060008060016101000a81548160ff02191690831515021790555060008060026101000a81548160ff0219169083151502179055506000600a819055506000600b819055506000600c819055506000600d81905550613348806100df6000396000f3fe608060405234801561001057600080fd5b506004361061023d5760003560e01c80636dd7d8ea1161013b578063c3a171a2116100b8578063dd698f901161007c578063dd698f9014610718578063df6d278414610736578063dff7d2c714610754578063f851a44014610772578063fee0d19a146107905761023d565b8063c3a171a214610674578063c5292c6714610690578063c784d213146106ae578063cad43b48146106cc578063da58c7d9146106e85761023d565b80639af5c09d116100ff5780639af5c09d146105cc5780639f05a36d146105ea578063aed9301014610608578063b1bf87b014610638578063be081b6f146106565761023d565b80636dd7d8ea146105265780636e9960c3146105425780637d66053514610560578063831318f1146105905780638e7ea5b2146105ae5761023d565b80633477ee2e116101c9578063506b8e0a1161018d578063506b8e0a146104695780635938750d146104855780635fcdd8a1146104ba57806364d198a1146104ea5780636a82ee51146105085761023d565b80633477ee2e1461039f5780633f66f48b146103cf57806341217ed5146103ff578063483431751461042f5780634c652fc61461044d5761023d565b8063158110291161021057806315811029146102d357806319c5c507146103035780631ea736e0146103335780632019a6081461035157806324785b9e1461036f5761023d565b806305e73ced146102425780630712aa05146102795780630b93400e146102975780630e2354cf146102b5575b600080fd5b61025c6004803603810190610257919061255e565b6107ac565b604051610270989796959493929190612667565b60405180910390f35b61028161093e565b60405161028e91906127ff565b60405180910390f35b61029f610a90565b6040516102ac9190612821565b60405180910390f35b6102bd610a9a565b6040516102ca919061283c565b60405180910390f35b6102ed60048036038101906102e8919061288a565b610b2f565b6040516102fa9190612a5d565b60405180910390f35b61031d6004803603810190610318919061288a565b610f7a565b60405161032a9190612a7f565b60405180910390f35b61033b610fad565b6040516103489190612821565b60405180910390f35b610359610fb3565b6040516103669190612821565b60405180910390f35b6103896004803603810190610384919061288a565b610fb9565b6040516103969190612a7f565b60405180910390f35b6103b960048036038101906103b4919061288a565b610fec565b6040516103c69190612a9a565b60405180910390f35b6103e960048036038101906103e4919061288a565b61102b565b6040516103f69190612a9a565b60405180910390f35b6104196004803603810190610414919061288a565b61106a565b6040516104269190612821565b60405180910390f35b610437611135565b604051610444919061283c565b60405180910390f35b61046760048036038101906104629190612bea565b6111ca565b005b610483600480360381019061047e9190612ca1565b611456565b005b61049f600480360381019061049a919061255e565b611571565b6040516104b196959493929190612ce1565b60405180910390f35b6104d460048036038101906104cf919061255e565b611704565b6040516104e19190612a7f565b60405180910390f35b6104f26117b3565b6040516104ff9190612821565b60405180910390f35b6105106117bd565b60405161051d9190612821565b60405180910390f35b610540600480360381019061053b919061255e565b6117c7565b005b61054a6119c9565b6040516105579190612a9a565b60405180910390f35b61057a6004803603810190610575919061255e565b6119f3565b6040516105879190612a7f565b60405180910390f35b610598611aa2565b6040516105a5919061283c565b60405180910390f35b6105b6611b37565b6040516105c39190612a9a565b60405180910390f35b6105d4611c07565b6040516105e19190612821565b60405180910390f35b6105f2611c0d565b6040516105ff9190612a7f565b60405180910390f35b610622600480360381019061061d919061288a565b611c29565b60405161062f9190612a9a565b60405180910390f35b610640611c68565b60405161064d9190612821565b60405180910390f35b61065e611c72565b60405161066b919061283c565b60405180910390f35b61068e60048036038101906106899190612e36565b611d07565b005b610698611f55565b6040516106a59190612a7f565b60405180910390f35b6106b6611f81565b6040516106c39190612821565b60405180910390f35b6106e660048036038101906106e19190612ca1565b611f8b565b005b61070260048036038101906106fd919061288a565b6120a6565b60405161070f9190612a9a565b60405180910390f35b6107206120e5565b60405161072d9190612a7f565b60405180910390f35b61073e6120fb565b60405161074b9190612821565b60405180910390f35b61075c612105565b6040516107699190612821565b60405180910390f35b61077a61210b565b6040516107879190612a9a565b60405180910390f35b6107aa60048036038101906107a59190612f8c565b612131565b005b60096020528060005260406000206000915090508060000154908060010160009054906101000a900473ffffffffffffffffffffffffffffffffffffffff16908060020180546107fb90613033565b80601f016020809104026020016040519081016040528092919081815260200182805461082790613033565b80156108745780601f1061084957610100808354040283529160200191610874565b820191906000526020600020905b81548152906001019060200180831161085757829003601f168201915b50505050509080600301805461088990613033565b80601f01602080910402602001604051908101604052809291908181526020018280546108b590613033565b80156109025780601f106108d757610100808354040283529160200191610902565b820191906000526020600020905b8154815290600101906020018083116108e557829003601f168201915b5050505050908060040154908060050154908060060160009054906101000a900460ff16908060060160019054906101000a900460ff16905088565b60606000600e6008018054905067ffffffffffffffff81111561096457610963612abf565b5b60405190808252806020026020018201604052801561099757816020015b60608152602001906001900390816109825790505b50905060005b600e60080180549050811015610a8857600e60080181815481106109c4576109c3613065565b5b9060005260206000200180546109d990613033565b80601f0160208091040260200160405190810160405280929190818152602001828054610a0590613033565b8015610a525780601f10610a2757610100808354040283529160200191610a52565b820191906000526020600020905b815481529060010190602001808311610a3557829003601f168201915b5050505050828281518110610a6a57610a69613065565b5b60200260200101819052508080610a80906130c3565b91505061099d565b508091505090565b6000600154905090565b6060600e6000018054610aac90613033565b80601f0160208091040260200160405190810160405280929190818152602001828054610ad890613033565b8015610b255780601f10610afa57610100808354040283529160200191610b25565b820191906000526020600020905b815481529060010190602001808311610b0857829003601f168201915b5050505050905090565b6060600060078054905067ffffffffffffffff811115610b5257610b51612abf565b5b604051908082528060200260200182016040528015610b8b57816020015b610b78612326565b815260200190600190039081610b705790505b5090506000805b600780549050811015610ebe57846009600060078481548110610bb857610bb7613065565b5b9060005260206000200160009054906101000a900473ffffffffffffffffffffffffffffffffffffffff1673ffffffffffffffffffffffffffffffffffffffff1673ffffffffffffffffffffffffffffffffffffffff168152602001908152602001600020600401541415610eab576009600060078381548110610c3f57610c3e613065565b5b9060005260206000200160009054906101000a900473ffffffffffffffffffffffffffffffffffffffff1673ffffffffffffffffffffffffffffffffffffffff1673ffffffffffffffffffffffffffffffffffffffff16815260200190815260200160002060405180610100016040529081600082015481526020016001820160009054906101000a900473ffffffffffffffffffffffffffffffffffffffff1673ffffffffffffffffffffffffffffffffffffffff1673ffffffffffffffffffffffffffffffffffffffff168152602001600282018054610d2090613033565b80601f0160208091040260200160405190810160405280929190818152602001828054610d4c90613033565b8015610d995780601f10610d6e57610100808354040283529160200191610d99565b820191906000526020600020905b815481529060010190602001808311610d7c57829003601f168201915b50505050508152602001600382018054610db290613033565b80601f0160208091040260200160405190810160405280929190818152602001828054610dde90613033565b8015610e2b5780601f10610e0057610100808354040283529160200191610e2b565b820191906000526020600020905b815481529060010190602001808311610e0e57829003601f168201915b5050505050815260200160048201548152602001600582015481526020016006820160009054906101000a900460ff161515151581526020016006820160019054906101000a900460ff161515151581525050838381518110610e9157610e90613065565b5b60200260200101819052508180610ea7906130c3565b9250505b8080610eb6906130c3565b915050610b92565b5060008167ffffffffffffffff811115610edb57610eda612abf565b5b604051908082528060200260200182016040528015610f1457816020015b610f01612326565b815260200190600190039081610ef95790505b50905060005b82811015610f6e57838181518110610f3557610f34613065565b5b6020026020010151828281518110610f5057610f4f613065565b5b60200260200101819052508080610f66906130c3565b915050610f1a565b50809350505050919050565b600080600a548310158015610f915750600b548311155b15610f9f5760019050610fa4565b600090505b80915050919050565b600d5481565b600c5481565b600080600c548310158015610fd05750600d548311155b15610fde5760019050610fe3565b600090505b80915050919050565b60058181548110610ffc57600080fd5b906000526020600020016000915054906101000a900473ffffffffffffffffffffffffffffffffffffffff1681565b6007818154811061103b57600080fd5b906000526020600020016000915054906101000a900473ffffffffffffffffffffffffffffffffffffffff1681565b6000806000905060005b60078054905081101561112b5783600960006007848154811061109a57611099613065565b5b9060005260206000200160009054906101000a900473ffffffffffffffffffffffffffffffffffffffff1673ffffffffffffffffffffffffffffffffffffffff1673ffffffffffffffffffffffffffffffffffffffff168152602001908152602001600020600401541415611118578180611114906130c3565b9250505b8080611123906130c3565b915050611074565b5080915050919050565b6060600e600301805461114790613033565b80601f016020809104026020016040519081016040528092919081815260200182805461117390613033565b80156111c05780601f10611195576101008083540402835291602001916111c0565b820191906000526020600020905b8154815290600101906020018083116111a357829003601f168201915b5050505050905090565b600a5442101561120f576040517f08c379a000000000000000000000000000000000000000000000000000000000815260040161120690613158565b60405180910390fd5b600b54421115611254576040517f08c379a000000000000000000000000000000000000000000000000000000000815260040161124b906131c4565b60405180910390fd5b600060405180610100016040528060025481526020013373ffffffffffffffffffffffffffffffffffffffff1681526020018581526020018481526020018381526020016000815260200160001515815260200160011515815250905080600960003373ffffffffffffffffffffffffffffffffffffffff1673ffffffffffffffffffffffffffffffffffffffff1681526020019081526020016000206000820151816000015560208201518160010160006101000a81548173ffffffffffffffffffffffffffffffffffffffff021916908373ffffffffffffffffffffffffffffffffffffffff160217905550604082015181600201908051906020019061135e929190612385565b50606082015181600301908051906020019061137b929190612385565b506080820151816004015560a0820151816005015560c08201518160060160006101000a81548160ff02191690831515021790555060e08201518160060160016101000a81548160ff0219169083151502179055509050506005339080600181540180825580915050600190039060005260206000200160009091909190916101000a81548173ffffffffffffffffffffffffffffffffffffffff021916908373ffffffffffffffffffffffffffffffffffffffff16021790555060016002600082825461144991906131e4565b9250508190555050505050565b600360009054906101000a900473ffffffffffffffffffffffffffffffffffffffff1673ffffffffffffffffffffffffffffffffffffffff163373ffffffffffffffffffffffffffffffffffffffff16146114b057600080fd5b81600860008373ffffffffffffffffffffffffffffffffffffffff1673ffffffffffffffffffffffffffffffffffffffff16815260200190815260200160002060030160006101000a81548160ff0219169083151502179055506006819080600181540180825580915050600190039060005260206000200160009091909190916101000a81548173ffffffffffffffffffffffffffffffffffffffff021916908373ffffffffffffffffffffffffffffffffffffffff1602179055505050565b60086020528060005260406000206000915090508060000160009054906101000a900473ffffffffffffffffffffffffffffffffffffffff16908060010180546115ba90613033565b80601f01602080910402602001604051908101604052809291908181526020018280546115e690613033565b80156116335780601f1061160857610100808354040283529160200191611633565b820191906000526020600020905b81548152906001019060200180831161161657829003601f168201915b50505050509080600201805461164890613033565b80601f016020809104026020016040519081016040528092919081815260200182805461167490613033565b80156116c15780601f10611696576101008083540402835291602001916116c1565b820191906000526020600020905b8154815290600101906020018083116116a457829003601f168201915b5050505050908060030160009054906101000a900460ff16908060030160019054906101000a900460ff16908060030160029054906101000a900460ff16905086565b6000806000905060005b6006805490508110156117a9576006818154811061172f5761172e613065565b5b9060005260206000200160009054906101000a900473ffffffffffffffffffffffffffffffffffffffff1673ffffffffffffffffffffffffffffffffffffffff168473ffffffffffffffffffffffffffffffffffffffff16141561179657600191506117a9565b80806117a1906130c3565b91505061170e565b5080915050919050565b6000600254905090565b6000600c54905090565b600c5442101561180c576040517f08c379a000000000000000000000000000000000000000000000000000000000815260040161180390613286565b60405180910390fd5b600d54421115611851576040517f08c379a0000000000000000000000000000000000000000000000000000000008152600401611848906132f2565b60405180910390fd5b60001515600860003373ffffffffffffffffffffffffffffffffffffffff1673ffffffffffffffffffffffffffffffffffffffff16815260200190815260200160002060030160019054906101000a900460ff161515146118b157600080fd5b60011515600860003373ffffffffffffffffffffffffffffffffffffffff1673ffffffffffffffffffffffffffffffffffffffff16815260200190815260200160002060030160009054906101000a900460ff1615151461191157600080fd5b6001600960008373ffffffffffffffffffffffffffffffffffffffff1673ffffffffffffffffffffffffffffffffffffffff168152602001908152602001600020600501600082825461196491906131e4565b925050819055506001600860003373ffffffffffffffffffffffffffffffffffffffff1673ffffffffffffffffffffffffffffffffffffffff16815260200190815260200160002060030160016101000a81548160ff02191690831515021790555050565b6000600360009054906101000a900473ffffffffffffffffffffffffffffffffffffffff16905090565b6000806000905060005b600680549050811015611a985760058181548110611a1e57611a1d613065565b5b9060005260206000200160009054906101000a900473ffffffffffffffffffffffffffffffffffffffff1673ffffffffffffffffffffffffffffffffffffffff168473ffffffffffffffffffffffffffffffffffffffff161415611a855760019150611a98565b8080611a90906130c3565b9150506119fd565b5080915050919050565b6060600e6001018054611ab490613033565b80601f0160208091040260200160405190810160405280929190818152602001828054611ae090613033565b8015611b2d5780601f10611b0257610100808354040283529160200191611b2d565b820191906000526020600020905b815481529060010190602001808311611b1057829003601f168201915b5050505050905090565b60008060009050600080600090505b600254811015611bfe57600060058281548110611b6657611b65613065565b5b9060005260206000200160009054906101000a900473ffffffffffffffffffffffffffffffffffffffff1690506000600960008373ffffffffffffffffffffffffffffffffffffffff1673ffffffffffffffffffffffffffffffffffffffff16815260200190815260200160002060050154905084811115611be9578094508193505b50508080611bf6906130c3565b915050611b46565b50809250505090565b600a5481565b60008060009050600d544210611c2257600190505b8091505090565b60068181548110611c3957600080fd5b906000526020600020016000915054906101000a900473ffffffffffffffffffffffffffffffffffffffff1681565b6000600d54905090565b6060600e6002018054611c8490613033565b80601f0160208091040260200160405190810160405280929190818152602001828054611cb090613033565b8015611cfd5780601f10611cd257610100808354040283529160200191611cfd565b820191906000526020600020905b815481529060010190602001808311611ce057829003601f168201915b5050505050905090565b600360009054906101000a900473ffffffffffffffffffffffffffffffffffffffff1673ffffffffffffffffffffffffffffffffffffffff163373ffffffffffffffffffffffffffffffffffffffff1614611d6157600080fd5b6000815167ffffffffffffffff811115611d7e57611d7d612abf565b5b604051908082528060200260200182016040528015611db157816020015b6060815260200190600190039081611d9c5790505b50905060005b8251811015611e0c57828181518110611dd357611dd2613065565b5b6020026020010151828281518110611dee57611ded613065565b5b60200260200101819052508080611e04906130c3565b915050611db7565b5060006040518061012001604052808c81526020018b81526020018a815260200189815260200188815260200187815260200186815260200185815260200183815250905080600e6000820151816000019080519060200190611e70929190612385565b506020820151816001019080519060200190611e8d929190612385565b506040820151816002019080519060200190611eaa929190612385565b506060820151816003019080519060200190611ec7929190612385565b506080820151816004015560a0820151816005015560c0820151816006015560e08201518160070155610100820151816008019080519060200190611f0d92919061240b565b509050506001600060026101000a81548160ff02191690831515021790555084600a8190555083600b8190555086600c8190555085600d819055505050505050505050505050565b60008060009050600c544210158015611f705750600d544211155b15611f7a57600190505b8091505090565b6000600b54905090565b600360009054906101000a900473ffffffffffffffffffffffffffffffffffffffff1673ffffffffffffffffffffffffffffffffffffffff163373ffffffffffffffffffffffffffffffffffffffff1614611fe557600080fd5b81600960008373ffffffffffffffffffffffffffffffffffffffff1673ffffffffffffffffffffffffffffffffffffffff16815260200190815260200160002060060160006101000a81548160ff0219169083151502179055506007819080600181540180825580915050600190039060005260206000200160009091909190916101000a81548173ffffffffffffffffffffffffffffffffffffffff021916908373ffffffffffffffffffffffffffffffffffffffff1602179055505050565b600481815481106120b657600080fd5b906000526020600020016000915054906101000a900473ffffffffffffffffffffffffffffffffffffffff1681565b60008060029054906101000a900460ff16905090565b6000600a54905090565b600b5481565b600360009054906101000a900473ffffffffffffffffffffffffffffffffffffffff1681565b60006040518060c001604052803373ffffffffffffffffffffffffffffffffffffffff16815260200184815260200183815260200160001515815260200160001515815260200160011515815250905080600860003373ffffffffffffffffffffffffffffffffffffffff1673ffffffffffffffffffffffffffffffffffffffff16815260200190815260200160002060008201518160000160006101000a81548173ffffffffffffffffffffffffffffffffffffffff021916908373ffffffffffffffffffffffffffffffffffffffff1602179055506020820151816001019080519060200190612224929190612385565b506040820151816002019080519060200190612241929190612385565b5060608201518160030160006101000a81548160ff02191690831515021790555060808201518160030160016101000a81548160ff02191690831515021790555060a08201518160030160026101000a81548160ff0219169083151502179055509050506004339080600181540180825580915050600190039060005260206000200160009091909190916101000a81548173ffffffffffffffffffffffffffffffffffffffff021916908373ffffffffffffffffffffffffffffffffffffffff160217905550600180600082825461231a91906131e4565b92505081905550505050565b60405180610100016040528060008152602001600073ffffffffffffffffffffffffffffffffffffffff168152602001606081526020016060815260200160008152602001600081526020016000151581526020016000151581525090565b82805461239190613033565b90600052602060002090601f0160209004810192826123b357600085556123fa565b82601f106123cc57805160ff19168380011785556123fa565b828001600101855582156123fa579182015b828111156123f95782518255916020019190600101906123de565b5b509050612407919061246b565b5090565b82805482825590600052602060002090810192821561245a579160200282015b82811115612459578251829080519060200190612449929190612385565b509160200191906001019061242b565b5b5090506124679190612488565b5090565b5b8082111561248457600081600090555060010161246c565b5090565b5b808211156124a8576000818161249f91906124ac565b50600101612489565b5090565b5080546124b890613033565b6000825580601f106124ca57506124e9565b601f0160209004906000526020600020908101906124e8919061246b565b5b50565b6000604051905090565b600080fd5b600080fd5b600073ffffffffffffffffffffffffffffffffffffffff82169050919050565b600061252b82612500565b9050919050565b61253b81612520565b811461254657600080fd5b50565b60008135905061255881612532565b92915050565b600060208284031215612574576125736124f6565b5b600061258284828501612549565b91505092915050565b6000819050919050565b61259e8161258b565b82525050565b6125ad81612520565b82525050565b600081519050919050565b600082825260208201905092915050565b60005b838110156125ed5780820151818401526020810190506125d2565b838111156125fc576000848401525b50505050565b6000601f19601f8301169050919050565b600061261e826125b3565b61262881856125be565b93506126388185602086016125cf565b61264181612602565b840191505092915050565b60008115159050919050565b6126618161264c565b82525050565b60006101008201905061267d600083018b612595565b61268a602083018a6125a4565b818103604083015261269c8189612613565b905081810360608301526126b08188612613565b90506126bf6080830187612595565b6126cc60a0830186612595565b6126d960c0830185612658565b6126e660e0830184612658565b9998505050505050505050565b600081519050919050565b600082825260208201905092915050565b6000819050602082019050919050565b600082825260208201905092915050565b600061273b826125b3565b612745818561271f565b93506127558185602086016125cf565b61275e81612602565b840191505092915050565b60006127758383612730565b905092915050565b6000602082019050919050565b6000612795826126f3565b61279f81856126fe565b9350836020820285016127b18561270f565b8060005b858110156127ed57848403895281516127ce8582612769565b94506127d98361277d565b925060208a019950506001810190506127b5565b50829750879550505050505092915050565b60006020820190508181036000830152612819818461278a565b905092915050565b60006020820190506128366000830184612595565b92915050565b600060208201905081810360008301526128568184612613565b905092915050565b6128678161258b565b811461287257600080fd5b50565b6000813590506128848161285e565b92915050565b6000602082840312156128a05761289f6124f6565b5b60006128ae84828501612875565b91505092915050565b600081519050919050565b600082825260208201905092915050565b6000819050602082019050919050565b6128ec8161258b565b82525050565b6128fb81612520565b82525050565b61290a8161264c565b82525050565b60006101008301600083015161292960008601826128e3565b50602083015161293c60208601826128f2565b50604083015184820360408601526129548282612730565b9150506060830151848203606086015261296e8282612730565b915050608083015161298360808601826128e3565b5060a083015161299660a08601826128e3565b5060c08301516129a960c0860182612901565b5060e08301516129bc60e0860182612901565b508091505092915050565b60006129d38383612910565b905092915050565b6000602082019050919050565b60006129f3826128b7565b6129fd81856128c2565b935083602082028501612a0f856128d3565b8060005b85811015612a4b5784840389528151612a2c85826129c7565b9450612a37836129db565b925060208a01995050600181019050612a13565b50829750879550505050505092915050565b60006020820190508181036000830152612a7781846129e8565b905092915050565b6000602082019050612a946000830184612658565b92915050565b6000602082019050612aaf60008301846125a4565b92915050565b600080fd5b600080fd5b7f4e487b7100000000000000000000000000000000000000000000000000000000600052604160045260246000fd5b612af782612602565b810181811067ffffffffffffffff82111715612b1657612b15612abf565b5b80604052505050565b6000612b296124ec565b9050612b358282612aee565b919050565b600067ffffffffffffffff821115612b5557612b54612abf565b5b612b5e82612602565b9050602081019050919050565b82818337600083830152505050565b6000612b8d612b8884612b3a565b612b1f565b905082815260208101848484011115612ba957612ba8612aba565b5b612bb4848285612b6b565b509392505050565b600082601f830112612bd157612bd0612ab5565b5b8135612be1848260208601612b7a565b91505092915050565b600080600060608486031215612c0357612c026124f6565b5b600084013567ffffffffffffffff811115612c2157612c206124fb565b5b612c2d86828701612bbc565b935050602084013567ffffffffffffffff811115612c4e57612c4d6124fb565b5b612c5a86828701612bbc565b9250506040612c6b86828701612875565b9150509250925092565b612c7e8161264c565b8114612c8957600080fd5b50565b600081359050612c9b81612c75565b92915050565b60008060408385031215612cb857612cb76124f6565b5b6000612cc685828601612c8c565b9250506020612cd785828601612549565b9150509250929050565b600060c082019050612cf660008301896125a4565b8181036020830152612d088188612613565b90508181036040830152612d1c8187612613565b9050612d2b6060830186612658565b612d386080830185612658565b612d4560a0830184612658565b979650505050505050565b600067ffffffffffffffff821115612d6b57612d6a612abf565b5b602082029050602081019050919050565b600080fd5b6000612d94612d8f84612d50565b612b1f565b90508083825260208201905060208402830185811115612db757612db6612d7c565b5b835b81811015612dfe57803567ffffffffffffffff811115612ddc57612ddb612ab5565b5b808601612de98982612bbc565b85526020850194505050602081019050612db9565b5050509392505050565b600082601f830112612e1d57612e1c612ab5565b5b8135612e2d848260208601612d81565b91505092915050565b60008060008060008060008060006101208a8c031215612e5957612e586124f6565b5b60008a013567ffffffffffffffff811115612e7757612e766124fb565b5b612e838c828d01612bbc565b99505060208a013567ffffffffffffffff811115612ea457612ea36124fb565b5b612eb08c828d01612bbc565b98505060408a013567ffffffffffffffff811115612ed157612ed06124fb565b5b612edd8c828d01612bbc565b97505060608a013567ffffffffffffffff811115612efe57612efd6124fb565b5b612f0a8c828d01612bbc565b9650506080612f1b8c828d01612875565b95505060a0612f2c8c828d01612875565b94505060c0612f3d8c828d01612875565b93505060e0612f4e8c828d01612875565b9250506101008a013567ffffffffffffffff811115612f7057612f6f6124fb565b5b612f7c8c828d01612e08565b9150509295985092959850929598565b60008060408385031215612fa357612fa26124f6565b5b600083013567ffffffffffffffff811115612fc157612fc06124fb565b5b612fcd85828601612bbc565b925050602083013567ffffffffffffffff811115612fee57612fed6124fb565b5b612ffa85828601612bbc565b9150509250929050565b7f4e487b7100000000000000000000000000000000000000000000000000000000600052602260045260246000fd5b6000600282049050600182168061304b57607f821691505b6020821081141561305f5761305e613004565b5b50919050565b7f4e487b7100000000000000000000000000000000000000000000000000000000600052603260045260246000fd5b7f4e487b7100000000000000000000000000000000000000000000000000000000600052601160045260246000fd5b60006130ce8261258b565b91507fffffffffffffffffffffffffffffffffffffffffffffffffffffffffffffffff82141561310157613100613094565b5b600182019050919050565b7f526567697374726174696f6e206973206e6f7420737461727465642079657400600082015250565b6000613142601f836125be565b915061314d8261310c565b602082019050919050565b6000602082019050818103600083015261317181613135565b9050919050565b7f526567697374726174696f6e20697320616c726561647920656e6465642e0000600082015250565b60006131ae601e836125be565b91506131b982613178565b602082019050919050565b600060208201905081810360008301526131dd816131a1565b9050919050565b60006131ef8261258b565b91506131fa8361258b565b9250827fffffffffffffffffffffffffffffffffffffffffffffffffffffffffffffffff0382111561322f5761322e613094565b5b828201905092915050565b7f566f74696e67206973206e6f7420737461727465642079657400000000000000600082015250565b60006132706019836125be565b915061327b8261323a565b602082019050919050565b6000602082019050818103600083015261329f81613263565b9050919050565b7f566f74696e6720697320616c726561647920656e646564000000000000000000600082015250565b60006132dc6017836125be565b91506132e7826132a6565b602082019050919050565b6000602082019050818103600083015261330b816132cf565b905091905056fea26469706673582212208d3eb2dabb5b298526fb2f6d1a0d25d9784191105e7da7d8e2a5dcb64b03632864736f6c634300080b0033",
  "linkReferences": {},
  "deployedLinkReferences": {}
}