{
  "_format": "hh-sol-artifact-1",
  "contractName": "Election",
  "sourceName": "contracts/Election.sol",
  "abi": [
    {
      "inputs": [],
      "stateMutability": "nonpayable",
      "type": "constructor"
    },
    {
      "inputs": [
        {
          "internalType": "string",
          "name": "_header",
          "type": "string"
        },
        {
          "internalType": "string",
          "name": "_slogan",
          "type": "string"
        }
      ],
      "name": "addCandidate",
      "outputs": [],
      "stateMutability": "nonpayable",
      "type": "function"
    },
    {
      "inputs": [],
      "name": "admin",
      "outputs": [
        {
          "internalType": "address",
          "name": "",
          "type": "address"
        }
      ],
      "stateMutability": "view",
      "type": "function"
    },
    {
      "inputs": [
        {
          "internalType": "uint256",
          "name": "",
          "type": "uint256"
        }
      ],
      "name": "candidateDetails",
      "outputs": [
        {
          "internalType": "uint256",
          "name": "candidateId",
          "type": "uint256"
        },
        {
          "internalType": "string",
          "name": "header",
          "type": "string"
        },
        {
          "internalType": "string",
          "name": "slogan",
          "type": "string"
        },
        {
          "internalType": "uint256",
          "name": "voteCount",
          "type": "uint256"
        }
      ],
      "stateMutability": "view",
      "type": "function"
    },
    {
      "inputs": [],
      "name": "endElection",
      "outputs": [],
      "stateMutability": "nonpayable",
      "type": "function"
    },
    {
      "inputs": [],
      "name": "getAdmin",
      "outputs": [
        {
          "internalType": "address",
          "name": "",
          "type": "address"
        }
      ],
      "stateMutability": "view",
      "type": "function"
    },
    {
      "inputs": [],
      "name": "getAdminEmail",
      "outputs": [
        {
          "internalType": "string",
          "name": "",
          "type": "string"
        }
      ],
      "stateMutability": "view",
      "type": "function"
    },
    {
      "inputs": [],
      "name": "getAdminName",
      "outputs": [
        {
          "internalType": "string",
          "name": "",
          "type": "string"
        }
      ],
      "stateMutability": "view",
      "type": "function"
    },
    {
      "inputs": [],
      "name": "getAdminTitle",
      "outputs": [
        {
          "internalType": "string",
          "name": "",
          "type": "string"
        }
      ],
      "stateMutability": "view",
      "type": "function"
    },
    {
      "inputs": [],
      "name": "getElectionTitle",
      "outputs": [
        {
          "internalType": "string",
          "name": "",
          "type": "string"
        }
      ],
      "stateMutability": "view",
      "type": "function"
    },
    {
      "inputs": [],
      "name": "getEnd",
      "outputs": [
        {
          "internalType": "bool",
          "name": "",
          "type": "bool"
        }
      ],
      "stateMutability": "view",
      "type": "function"
    },
    {
      "inputs": [],
      "name": "getOrganizationTitle",
      "outputs": [
        {
          "internalType": "string",
          "name": "",
          "type": "string"
        }
      ],
      "stateMutability": "view",
      "type": "function"
    },
    {
      "inputs": [],
      "name": "getStart",
      "outputs": [
        {
          "internalType": "bool",
          "name": "",
          "type": "bool"
        }
      ],
      "stateMutability": "view",
      "type": "function"
    },
    {
      "inputs": [],
      "name": "getTotalCandidate",
      "outputs": [
        {
          "internalType": "uint256",
          "name": "",
          "type": "uint256"
        }
      ],
      "stateMutability": "view",
      "type": "function"
    },
    {
      "inputs": [],
      "name": "getTotalVoter",
      "outputs": [
        {
          "internalType": "uint256",
          "name": "",
          "type": "uint256"
        }
      ],
      "stateMutability": "view",
      "type": "function"
    },
    {
      "inputs": [
        {
          "internalType": "string",
          "name": "_name",
          "type": "string"
        },
        {
          "internalType": "string",
          "name": "_phone",
          "type": "string"
        }
      ],
      "name": "registerAsVoter",
      "outputs": [],
      "stateMutability": "nonpayable",
      "type": "function"
    },
    {
      "inputs": [
        {
          "internalType": "string",
          "name": "_adminName",
          "type": "string"
        },
        {
          "internalType": "string",
          "name": "_adminEmail",
          "type": "string"
        },
        {
          "internalType": "string",
          "name": "_adminTitle",
          "type": "string"
        },
        {
          "internalType": "string",
          "name": "_electionTitle",
          "type": "string"
        },
        {
          "internalType": "string",
          "name": "_organizationTitle",
          "type": "string"
        }
      ],
      "name": "setElectionDetails",
      "outputs": [],
      "stateMutability": "nonpayable",
      "type": "function"
    },
    {
      "inputs": [
        {
          "internalType": "bool",
          "name": "_verifedStatus",
          "type": "bool"
        },
        {
          "internalType": "address",
          "name": "voterAddress",
          "type": "address"
        }
      ],
      "name": "verifyVoter",
      "outputs": [],
      "stateMutability": "nonpayable",
      "type": "function"
    },
    {
      "inputs": [
        {
          "internalType": "uint256",
          "name": "candidateId",
          "type": "uint256"
        }
      ],
      "name": "vote",
      "outputs": [],
      "stateMutability": "nonpayable",
      "type": "function"
    },
    {
      "inputs": [
        {
          "internalType": "address",
          "name": "",
          "type": "address"
        }
      ],
      "name": "voterDetails",
      "outputs": [
        {
          "internalType": "address",
          "name": "voterAddress",
          "type": "address"
        },
        {
          "internalType": "string",
          "name": "name",
          "type": "string"
        },
        {
          "internalType": "string",
          "name": "phone",
          "type": "string"
        },
        {
          "internalType": "bool",
          "name": "isVerified",
          "type": "bool"
        },
        {
          "internalType": "bool",
          "name": "hasVoted",
          "type": "bool"
        },
        {
          "internalType": "bool",
          "name": "isRegistered",
          "type": "bool"
        }
      ],
      "stateMutability": "view",
      "type": "function"
    },
    {
      "inputs": [
        {
          "internalType": "uint256",
          "name": "",
          "type": "uint256"
        }
      ],
      "name": "voters",
      "outputs": [
        {
          "internalType": "address",
          "name": "",
          "type": "address"
        }
      ],
      "stateMutability": "view",
      "type": "function"
    }
  ],
  "bytecode": "0x608060405234801561001057600080fd5b5033600360006101000a81548173ffffffffffffffffffffffffffffffffffffffff021916908373ffffffffffffffffffffffffffffffffffffffff1602179055506000600281905550600060018190555060008060006101000a81548160ff02191690831515021790555060008060016101000a81548160ff021916908315150217905550611aae806100a56000396000f3fe608060405234801561001057600080fd5b506004361061012c5760003560e01c806364d198a1116100ad578063c5292c6711610071578063c5292c6714610303578063da58c7d914610321578063e173730c14610351578063f851a4401461036f578063fee0d19a1461038d5761012c565b806364d198a11461026d5780636e9960c31461028b578063831318f1146102a95780639f05a36d146102c7578063be081b6f146102e55761012c565b806348343175116100f457806348343175146101c1578063506b8e0a146101df5780635938750d146101fb57806359f78468146102305780636247e5321461023a5761012c565b80630121b93f146101315780630b93400e1461014d5780630e2354cf1461016b578063253e74e21461018957806326541b56146101a5575b600080fd5b61014b60048036038101906101469190611161565b6103a9565b005b610155610533565b604051610162919061119d565b60405180910390f35b61017361053d565b6040516101809190611248565b60405180910390f35b6101a3600480360381019061019e919061139f565b6105d2565b005b6101bf60048036038101906101ba91906114a6565b610701565b005b6101c96107fb565b6040516101d69190611248565b60405180910390f35b6101f960048036038101906101f491906115b4565b610890565b005b610215600480360381019061021091906115f4565b610948565b6040516102279695949392919061163f565b60405180910390f35b610238610adb565b005b610254600480360381019061024f9190611161565b610b6c565b60405161026494939291906116ae565b60405180910390f35b610275610cac565b604051610282919061119d565b60405180910390f35b610293610cb6565b6040516102a09190611701565b60405180910390f35b6102b1610ce0565b6040516102be9190611248565b60405180910390f35b6102cf610d75565b6040516102dc919061171c565b60405180910390f35b6102ed610d8b565b6040516102fa9190611248565b60405180910390f35b61030b610e20565b604051610318919061171c565b60405180910390f35b61033b60048036038101906103369190611161565b610e36565b6040516103489190611701565b60405180910390f35b610359610e75565b6040516103669190611248565b60405180910390f35b610377610f0a565b6040516103849190611701565b60405180910390f35b6103a760048036038101906103a291906114a6565b610f30565b005b60001515600560003373ffffffffffffffffffffffffffffffffffffffff1673ffffffffffffffffffffffffffffffffffffffff16815260200190815260200160002060030160019054906101000a900460ff1615151461040957600080fd5b60011515600560003373ffffffffffffffffffffffffffffffffffffffff1673ffffffffffffffffffffffffffffffffffffffff16815260200190815260200160002060030160009054906101000a900460ff1615151461046957600080fd5b6001151560008054906101000a900460ff1615151461048757600080fd5b60001515600060019054906101000a900460ff161515146104a757600080fd5b60016006600083815260200190815260200160002060030160008282546104ce9190611766565b925050819055506001600560003373ffffffffffffffffffffffffffffffffffffffff1673ffffffffffffffffffffffffffffffffffffffff16815260200190815260200160002060030160016101000a81548160ff02191690831515021790555050565b6000600154905090565b60606007600001805461054f906117c9565b80601f016020809104026020016040519081016040528092919081815260200182805461057b906117c9565b80156105c85780601f1061059d576101008083540402835291602001916105c8565b820191906000526020600020905b8154815290600101906020018083116105ab57829003601f168201915b5050505050905090565b600360009054906101000a900473ffffffffffffffffffffffffffffffffffffffff1673ffffffffffffffffffffffffffffffffffffffff163373ffffffffffffffffffffffffffffffffffffffff161461062c57600080fd5b6040518060a00160405280868152602001858152602001848152602001838152602001828152506007600082015181600001908161066a91906119a6565b50602082015181600101908161068091906119a6565b50604082015181600201908161069691906119a6565b5060608201518160030190816106ac91906119a6565b5060808201518160040190816106c291906119a6565b5090505060016000806101000a81548160ff02191690831515021790555060008060016101000a81548160ff0219169083151502179055505050505050565b600360009054906101000a900473ffffffffffffffffffffffffffffffffffffffff1673ffffffffffffffffffffffffffffffffffffffff163373ffffffffffffffffffffffffffffffffffffffff161461075b57600080fd5b60006040518060800160405280600254815260200184815260200183815260200160008152509050806006600060025481526020019081526020016000206000820151816000015560208201518160010190816107b891906119a6565b5060408201518160020190816107ce91906119a6565b50606082015181600301559050506001600260008282546107ef9190611766565b92505081905550505050565b60606007600401805461080d906117c9565b80601f0160208091040260200160405190810160405280929190818152602001828054610839906117c9565b80156108865780601f1061085b57610100808354040283529160200191610886565b820191906000526020600020905b81548152906001019060200180831161086957829003601f168201915b5050505050905090565b600360009054906101000a900473ffffffffffffffffffffffffffffffffffffffff1673ffffffffffffffffffffffffffffffffffffffff163373ffffffffffffffffffffffffffffffffffffffff16146108ea57600080fd5b81600560008373ffffffffffffffffffffffffffffffffffffffff1673ffffffffffffffffffffffffffffffffffffffff16815260200190815260200160002060030160006101000a81548160ff0219169083151502179055505050565b60056020528060005260406000206000915090508060000160009054906101000a900473ffffffffffffffffffffffffffffffffffffffff1690806001018054610991906117c9565b80601f01602080910402602001604051908101604052809291908181526020018280546109bd906117c9565b8015610a0a5780601f106109df57610100808354040283529160200191610a0a565b820191906000526020600020905b8154815290600101906020018083116109ed57829003601f168201915b505050505090806002018054610a1f906117c9565b80601f0160208091040260200160405190810160405280929190818152602001828054610a4b906117c9565b8015610a985780601f10610a6d57610100808354040283529160200191610a98565b820191906000526020600020905b815481529060010190602001808311610a7b57829003601f168201915b5050505050908060030160009054906101000a900460ff16908060030160019054906101000a900460ff16908060030160029054906101000a900460ff16905086565b600360009054906101000a900473ffffffffffffffffffffffffffffffffffffffff1673ffffffffffffffffffffffffffffffffffffffff163373ffffffffffffffffffffffffffffffffffffffff1614610b3557600080fd5b6001600060016101000a81548160ff02191690831515021790555060008060006101000a81548160ff021916908315150217905550565b6006602052806000526040600020600091509050806000015490806001018054610b95906117c9565b80601f0160208091040260200160405190810160405280929190818152602001828054610bc1906117c9565b8015610c0e5780601f10610be357610100808354040283529160200191610c0e565b820191906000526020600020905b815481529060010190602001808311610bf157829003601f168201915b505050505090806002018054610c23906117c9565b80601f0160208091040260200160405190810160405280929190818152602001828054610c4f906117c9565b8015610c9c5780601f10610c7157610100808354040283529160200191610c9c565b820191906000526020600020905b815481529060010190602001808311610c7f57829003601f168201915b5050505050908060030154905084565b6000600254905090565b6000600360009054906101000a900473ffffffffffffffffffffffffffffffffffffffff16905090565b606060076001018054610cf2906117c9565b80601f0160208091040260200160405190810160405280929190818152602001828054610d1e906117c9565b8015610d6b5780601f10610d4057610100808354040283529160200191610d6b565b820191906000526020600020905b815481529060010190602001808311610d4e57829003601f168201915b5050505050905090565b60008060019054906101000a900460ff16905090565b606060076002018054610d9d906117c9565b80601f0160208091040260200160405190810160405280929190818152602001828054610dc9906117c9565b8015610e165780601f10610deb57610100808354040283529160200191610e16565b820191906000526020600020905b815481529060010190602001808311610df957829003601f168201915b5050505050905090565b60008060009054906101000a900460ff16905090565b60048181548110610e4657600080fd5b906000526020600020016000915054906101000a900473ffffffffffffffffffffffffffffffffffffffff1681565b606060076003018054610e87906117c9565b80601f0160208091040260200160405190810160405280929190818152602001828054610eb3906117c9565b8015610f005780601f10610ed557610100808354040283529160200191610f00565b820191906000526020600020905b815481529060010190602001808311610ee357829003601f168201915b5050505050905090565b600360009054906101000a900473ffffffffffffffffffffffffffffffffffffffff1681565b60006040518060c001604052803373ffffffffffffffffffffffffffffffffffffffff16815260200184815260200183815260200160001515815260200160001515815260200160011515815250905080600560003373ffffffffffffffffffffffffffffffffffffffff1673ffffffffffffffffffffffffffffffffffffffff16815260200190815260200160002060008201518160000160006101000a81548173ffffffffffffffffffffffffffffffffffffffff021916908373ffffffffffffffffffffffffffffffffffffffff160217905550602082015181600101908161101c91906119a6565b50604082015181600201908161103291906119a6565b5060608201518160030160006101000a81548160ff02191690831515021790555060808201518160030160016101000a81548160ff02191690831515021790555060a08201518160030160026101000a81548160ff0219169083151502179055509050506004339080600181540180825580915050600190039060005260206000200160009091909190916101000a81548173ffffffffffffffffffffffffffffffffffffffff021916908373ffffffffffffffffffffffffffffffffffffffff160217905550600180600082825461110b9190611766565b92505081905550505050565b6000604051905090565b600080fd5b600080fd5b6000819050919050565b61113e8161112b565b811461114957600080fd5b50565b60008135905061115b81611135565b92915050565b60006020828403121561117757611176611121565b5b60006111858482850161114c565b91505092915050565b6111978161112b565b82525050565b60006020820190506111b2600083018461118e565b92915050565b600081519050919050565b600082825260208201905092915050565b60005b838110156111f25780820151818401526020810190506111d7565b60008484015250505050565b6000601f19601f8301169050919050565b600061121a826111b8565b61122481856111c3565b93506112348185602086016111d4565b61123d816111fe565b840191505092915050565b60006020820190508181036000830152611262818461120f565b905092915050565b600080fd5b600080fd5b7f4e487b7100000000000000000000000000000000000000000000000000000000600052604160045260246000fd5b6112ac826111fe565b810181811067ffffffffffffffff821117156112cb576112ca611274565b5b80604052505050565b60006112de611117565b90506112ea82826112a3565b919050565b600067ffffffffffffffff82111561130a57611309611274565b5b611313826111fe565b9050602081019050919050565b82818337600083830152505050565b600061134261133d846112ef565b6112d4565b90508281526020810184848401111561135e5761135d61126f565b5b611369848285611320565b509392505050565b600082601f8301126113865761138561126a565b5b813561139684826020860161132f565b91505092915050565b600080600080600060a086880312156113bb576113ba611121565b5b600086013567ffffffffffffffff8111156113d9576113d8611126565b5b6113e588828901611371565b955050602086013567ffffffffffffffff81111561140657611405611126565b5b61141288828901611371565b945050604086013567ffffffffffffffff81111561143357611432611126565b5b61143f88828901611371565b935050606086013567ffffffffffffffff8111156114605761145f611126565b5b61146c88828901611371565b925050608086013567ffffffffffffffff81111561148d5761148c611126565b5b61149988828901611371565b9150509295509295909350565b600080604083850312156114bd576114bc611121565b5b600083013567ffffffffffffffff8111156114db576114da611126565b5b6114e785828601611371565b925050602083013567ffffffffffffffff81111561150857611507611126565b5b61151485828601611371565b9150509250929050565b60008115159050919050565b6115338161151e565b811461153e57600080fd5b50565b6000813590506115508161152a565b92915050565b600073ffffffffffffffffffffffffffffffffffffffff82169050919050565b600061158182611556565b9050919050565b61159181611576565b811461159c57600080fd5b50565b6000813590506115ae81611588565b92915050565b600080604083850312156115cb576115ca611121565b5b60006115d985828601611541565b92505060206115ea8582860161159f565b9150509250929050565b60006020828403121561160a57611609611121565b5b60006116188482850161159f565b91505092915050565b61162a81611576565b82525050565b6116398161151e565b82525050565b600060c0820190506116546000830189611621565b8181036020830152611666818861120f565b9050818103604083015261167a818761120f565b90506116896060830186611630565b6116966080830185611630565b6116a360a0830184611630565b979650505050505050565b60006080820190506116c3600083018761118e565b81810360208301526116d5818661120f565b905081810360408301526116e9818561120f565b90506116f8606083018461118e565b95945050505050565b60006020820190506117166000830184611621565b92915050565b60006020820190506117316000830184611630565b92915050565b7f4e487b7100000000000000000000000000000000000000000000000000000000600052601160045260246000fd5b60006117718261112b565b915061177c8361112b565b925082820190508082111561179457611793611737565b5b92915050565b7f4e487b7100000000000000000000000000000000000000000000000000000000600052602260045260246000fd5b600060028204905060018216806117e157607f821691505b6020821081036117f4576117f361179a565b5b50919050565b60008190508160005260206000209050919050565b60006020601f8301049050919050565b600082821b905092915050565b60006008830261185c7fffffffffffffffffffffffffffffffffffffffffffffffffffffffffffffffff8261181f565b611866868361181f565b95508019841693508086168417925050509392505050565b6000819050919050565b60006118a361189e6118998461112b565b61187e565b61112b565b9050919050565b6000819050919050565b6118bd83611888565b6118d16118c9826118aa565b84845461182c565b825550505050565b600090565b6118e66118d9565b6118f18184846118b4565b505050565b5b818110156119155761190a6000826118de565b6001810190506118f7565b5050565b601f82111561195a5761192b816117fa565b6119348461180f565b81016020851015611943578190505b61195761194f8561180f565b8301826118f6565b50505b505050565b600082821c905092915050565b600061197d6000198460080261195f565b1980831691505092915050565b6000611996838361196c565b9150826002028217905092915050565b6119af826111b8565b67ffffffffffffffff8111156119c8576119c7611274565b5b6119d282546117c9565b6119dd828285611919565b600060209050601f831160018114611a1057600084156119fe578287015190505b611a08858261198a565b865550611a70565b601f198416611a1e866117fa565b60005b82811015611a4657848901518255600182019150602085019450602081019050611a21565b86831015611a635784890151611a5f601f89168261196c565b8355505b6001600288020188555050505b50505050505056fea2646970667358221220bf1635b7f42c4090790099c1426befd4e32900480a34374c9c4ae0dd735ae6eb64736f6c63430008110033",
  "linkReferences": {},
  "deployedLinkReferences": {}
}